{"contracts/MintableERC20.sol":{"MintableERC20":{"abi":[{"inputs":[{"internalType":"string","name":"_name","type":"string"},{"internalType":"string","name":"_symbol","type":"string"}],"stateMutability":"nonpayable","type":"constructor"},{"inputs":[{"internalType":"address","name":"spender","type":"address"},{"internalType":"uint256","name":"allowance","type":"uint256"},{"internalType":"uint256","name":"needed","type":"uint256"}],"name":"ERC20InsufficientAllowance","type":"error"},{"inputs":[{"internalType":"address","name":"sender","type":"address"},{"internalType":"uint256","name":"balance","type":"uint256"},{"internalType":"uint256","name":"needed","type":"uint256"}],"name":"ERC20InsufficientBalance","type":"error"},{"inputs":[{"internalType":"address","name":"approver","type":"address"}],"name":"ERC20InvalidApprover","type":"error"},{"inputs":[{"internalType":"address","name":"receiver","type":"address"}],"name":"ERC20InvalidReceiver","type":"error"},{"inputs":[{"internalType":"address","name":"sender","type":"address"}],"name":"ERC20InvalidSender","type":"error"},{"inputs":[{"internalType":"address","name":"spender","type":"address"}],"name":"ERC20InvalidSpender","type":"error"},{"anonymous":false,"inputs":[{"indexed":true,"internalType":"address","name":"owner","type":"address"},{"indexed":true,"internalType":"address","name":"spender","type":"address"},{"indexed":false,"internalType":"uint256","name":"value","type":"uint256"}],"name":"Approval","type":"event"},{"anonymous":false,"inputs":[{"indexed":true,"internalType":"address","name":"from","type":"address"},{"indexed":true,"internalType":"address","name":"to","type":"address"},{"indexed":false,"internalType":"uint256","name":"value","type":"uint256"}],"name":"Transfer","type":"event"},{"inputs":[{"internalType":"address","name":"owner","type":"address"},{"internalType":"address","name":"spender","type":"address"}],"name":"allowance","outputs":[{"internalType":"uint256","name":"","type":"uint256"}],"stateMutability":"view","type":"function"},{"inputs":[{"internalType":"address","name":"spender","type":"address"},{"internalType":"uint256","name":"value","type":"uint256"}],"name":"approve","outputs":[{"internalType":"bool","name":"","type":"bool"}],"stateMutability":"nonpayable","type":"function"},{"inputs":[{"internalType":"address","name":"account","type":"address"}],"name":"balanceOf","outputs":[{"internalType":"uint256","name":"","type":"uint256"}],"stateMutability":"view","type":"function"},{"inputs":[],"name":"decimals","outputs":[{"internalType":"uint8","name":"","type":"uint8"}],"stateMutability":"view","type":"function"},{"inputs":[],"name":"mintToken","outputs":[],"stateMutability":"nonpayable","type":"function"},{"inputs":[],"name":"name","outputs":[{"internalType":"string","name":"","type":"string"}],"stateMutability":"view","type":"function"},{"inputs":[],"name":"symbol","outputs":[{"internalType":"string","name":"","type":"string"}],"stateMutability":"view","type":"function"},{"inputs":[],"name":"totalSupply","outputs":[{"internalType":"uint256","name":"","type":"uint256"}],"stateMutability":"view","type":"function"},{"inputs":[{"internalType":"address","name":"to","type":"address"},{"internalType":"uint256","name":"value","type":"uint256"}],"name":"transfer","outputs":[{"internalType":"bool","name":"","type":"bool"}],"stateMutability":"nonpayable","type":"function"},{"inputs":[{"internalType":"address","name":"from","type":"address"},{"internalType":"address","name":"to","type":"address"},{"internalType":"uint256","name":"value","type":"uint256"}],"name":"transferFrom","outputs":[{"internalType":"bool","name":"","type":"bool"}],"stateMutability":"nonpayable","type":"function"}],"evm":{"assembly":"// RO data = 0/0 bytes\n// RW data = 168/65760 bytes\n// Stack size = 32768 bytes\n\n// Instructions = 5997\n// Code size = 20710 bytes\n\n      : @0 (gas: 1)\n     0: jump @14 if a0 == a1\n      : @1 (gas: 9)\n     3: a3 = a1 << 0x20\n     6: a3 = a3 >> 0x20\n     9: a4 = a0 << 0x20\n    12: a4 = a4 >> 0x20\n    15: a4 = a4 + a2\n    18: a3 = a3 - a4\n    21: a4 = a2 << 0x1\n    24: a4 = -a4\n    26: jump @7 if a4 >=u a3\n      : @2 (gas: 1)\n    29: jump @11 if a0 >=u a1\n      : @3 (gas: 1)\n    32: jump @14 if a2 == 0\n      : @4 (gas: 3)\n    35: a2 = a2 + a0\n    38: a3 = a0\n    40: fallthrough\n      : @5 (gas: 6)\n    41: a4 = u8 [a1]\n    43: a1 = a1 + 0x1\n    46: a5 = a3 + 0x1\n    49: u8 [a3] = a4\n    51: a3 = a5\n    53: jump @5 if a5 != a2\n      : @6 (gas: 1)\n    56: jump @14\n      : @7 (gas: 1)\n    58: jump @14 if a2 == 0\n      : @8 (gas: 3)\n    61: a2 = a2 + a0\n    64: a3 = a0\n    66: fallthrough\n      : @9 (gas: 6)\n    67: a4 = u8 [a1]\n    69: a1 = a1 + 0x1\n    72: a5 = a3 + 0x1\n    75: u8 [a3] = a4\n    77: a3 = a5\n    79: jump @9 if a5 != a2\n      : @10 (gas: 1)\n    82: jump @14\n      : @11 (gas: 1)\n    84: jump @14 if a2 == 0\n      : @12 (gas: 2)\n    87: i32 a3 = a2 + 0xffffffffffffffff\n    90: fallthrough\n      : @13 (gas: 7)\n    91: a4 = a1 + a3\n    94: a4 = u8 [a4]\n    96: a2 = a2 + 0xffffffffffffffff\n    99: a5 = a0 + a3\n   102: u8 [a5] = a4\n   104: i32 a3 = a3 + 0xffffffffffffffff\n   107: jump @13 if a2 != 0\n      : @14 (gas: 1)\n   110: ret\n      : @15 (gas: 2)\n   112: a1 = i32 [0x200b0]\n   117: jump @200 if a1 == 0\n      : @16 (gas: 4)\n   121: a0 = 0x300e0\n   126: i32 a0 = a0 + 0\n   128: ecalli 8 // 'set_immutable_data'\n   130: jump @200\n      : @17 (gas: 8)\n   133: sp = sp + 0xfffffffffffffff0\n   136: u64 [sp + 0x8] = ra\n   139: u64 [sp] = s0\n   141: a2 = a1\n   143: s0 = a0\n   145: a1 = 0x20\n   148: a0 = a2\n   150: ra = 2, jump @26\n      : @18 [@dyn 1] (gas: 100)\n   155: a1 = u8 [a0 + 0x1]\n   158: a2 = u8 [a0]\n   160: a3 = u8 [a0 + 0x2]\n   163: a4 = u8 [a0 + 0x3]\n   166: a1 = a1 << 0x8\n   169: a1 = a1 | a2\n   172: a3 = a3 << 0x10\n   175: a4 = a4 << 0x18\n   178: a3 = a3 | a4\n   181: a1 = a1 | a3\n   184: a2 = u8 [a0 + 0x5]\n   187: a3 = u8 [a0 + 0x4]\n   190: a4 = u8 [a0 + 0x6]\n   193: a5 = u8 [a0 + 0x7]\n   196: a2 = a2 << 0x8\n   199: a2 = a2 | a3\n   202: a4 = a4 << 0x10\n   205: a5 = a5 << 0x18\n   208: a4 = a4 | a5\n   211: a2 = a2 | a4\n   214: a2 = a2 << 0x20\n   217: t0 = a2 | a1\n   220: a2 = u8 [a0 + 0x9]\n   223: a3 = u8 [a0 + 0x8]\n   226: a4 = u8 [a0 + 0xa]\n   229: a5 = u8 [a0 + 0xb]\n   232: a2 = a2 << 0x8\n   235: a2 = a2 | a3\n   238: a4 = a4 << 0x10\n   241: a5 = a5 << 0x18\n   244: a4 = a4 | a5\n   247: a2 = a2 | a4\n   250: a3 = u8 [a0 + 0xd]\n   253: a4 = u8 [a0 + 0xc]\n   256: a5 = u8 [a0 + 0xe]\n   259: a1 = u8 [a0 + 0xf]\n   262: a3 = a3 << 0x8\n   265: a3 = a3 | a4\n   268: a5 = a5 << 0x10\n   271: a1 = a1 << 0x18\n   274: a1 = a1 | a5\n   277: a1 = a1 | a3\n   280: a1 = a1 << 0x20\n   283: t1 = a1 | a2\n   286: a1 = u8 [a0 + 0x11]\n   289: a3 = u8 [a0 + 0x10]\n   292: a4 = u8 [a0 + 0x12]\n   295: a5 = u8 [a0 + 0x13]\n   298: a1 = a1 << 0x8\n   301: a1 = a1 | a3\n   304: a4 = a4 << 0x10\n   307: a5 = a5 << 0x18\n   310: a4 = a4 | a5\n   313: a1 = a1 | a4\n   316: a3 = u8 [a0 + 0x15]\n   319: a4 = u8 [a0 + 0x14]\n   322: a5 = u8 [a0 + 0x16]\n   325: a2 = u8 [a0 + 0x17]\n   328: a3 = a3 << 0x8\n   331: a3 = a3 | a4\n   334: a5 = a5 << 0x10\n   337: a2 = a2 << 0x18\n   340: a2 = a2 | a5\n   343: a2 = a2 | a3\n   346: a2 = a2 << 0x20\n   349: a3 = a2 | a1\n   352: a1 = u8 [a0 + 0x19]\n   355: a2 = u8 [a0 + 0x18]\n   358: a4 = u8 [a0 + 0x1a]\n   361: a5 = u8 [a0 + 0x1b]\n   364: a1 = a1 << 0x8\n   367: a1 = a1 | a2\n   370: a4 = a4 << 0x10\n   373: a5 = a5 << 0x18\n   376: a4 = a4 | a5\n   379: a1 = a1 | a4\n   382: a2 = u8 [a0 + 0x1d]\n   385: a4 = u8 [a0 + 0x1c]\n   388: a5 = u8 [a0 + 0x1e]\n   391: a0 = u8 [a0 + 0x1f]\n   394: a2 = a2 << 0x8\n   397: a2 = a2 | a4\n   400: a5 = a5 << 0x10\n   403: a0 = a0 << 0x18\n   406: a0 = a0 | a5\n   409: a0 = a0 | a2\n   412: a0 = a0 << 0x20\n   415: a0 = a0 | a1\n   418: a0 = reverse a0\n   420: a1 = reverse a3\n   422: a2 = reverse t1\n   424: a3 = reverse t0\n   426: u64 [s0 + 0x18] = a3\n   429: u64 [s0 + 0x10] = a2\n   432: u64 [s0 + 0x8] = a1\n   435: u64 [s0] = a0\n   437: ra = u64 [sp + 0x8]\n   440: s0 = u64 [sp]\n   442: sp = sp + 0x10\n   445: ret\n      : @19 (gas: 12)\n   447: sp = sp + 0xffffffffffffffd8\n   450: u64 [sp + 0x20] = ra\n   453: u64 [sp + 0x18] = s0\n   456: u64 [sp + 0x10] = s1\n   459: a2 = u64 [a1]\n   461: u64 [sp + 0x8] = a2\n   464: a2 = u64 [a1 + 0x8]\n   467: u64 [sp] = a2\n   469: s0 = u64 [a1 + 0x10]\n   472: s1 = u64 [a1 + 0x18]\n   475: a1 = 0x20\n   478: ra = 4, jump @26\n      : @20 [@dyn 2] (gas: 71)\n   483: a1 = reverse s1\n   485: a2 = reverse s0\n   487: a3 = u64 [sp]\n   489: a3 = reverse a3\n   491: a4 = u64 [sp + 0x8]\n   494: a4 = reverse a4\n   496: u8 [a0 + 0x18] = a4\n   499: u8 [a0 + 0x10] = a3\n   502: u8 [a0 + 0x8] = a2\n   505: u8 [a0] = a1\n   507: a5 = a4 >> 0x38\n   510: u8 [a0 + 0x1f] = a5\n   513: a5 = a4 >> 0x30\n   516: u8 [a0 + 0x1e] = a5\n   519: a5 = a4 >> 0x28\n   522: u8 [a0 + 0x1d] = a5\n   525: a5 = a4 >> 0x20\n   528: u8 [a0 + 0x1c] = a5\n   531: a5 = a4 >> 0x18\n   534: u8 [a0 + 0x1b] = a5\n   537: a5 = a4 >> 0x10\n   540: u8 [a0 + 0x1a] = a5\n   543: a4 = a4 >> 0x8\n   546: u8 [a0 + 0x19] = a4\n   549: a4 = a3 >> 0x38\n   552: u8 [a0 + 0x17] = a4\n   555: a4 = a3 >> 0x30\n   558: u8 [a0 + 0x16] = a4\n   561: a4 = a3 >> 0x28\n   564: u8 [a0 + 0x15] = a4\n   567: a4 = a3 >> 0x20\n   570: u8 [a0 + 0x14] = a4\n   573: a4 = a3 >> 0x18\n   576: u8 [a0 + 0x13] = a4\n   579: a4 = a3 >> 0x10\n   582: u8 [a0 + 0x12] = a4\n   585: a3 = a3 >> 0x8\n   588: u8 [a0 + 0x11] = a3\n   591: a3 = a2 >> 0x38\n   594: u8 [a0 + 0xf] = a3\n   597: a3 = a2 >> 0x30\n   600: u8 [a0 + 0xe] = a3\n   603: a3 = a2 >> 0x28\n   606: u8 [a0 + 0xd] = a3\n   609: a3 = a2 >> 0x20\n   612: u8 [a0 + 0xc] = a3\n   615: a3 = a2 >> 0x18\n   618: u8 [a0 + 0xb] = a3\n   621: a3 = a2 >> 0x10\n   624: u8 [a0 + 0xa] = a3\n   627: a2 = a2 >> 0x8\n   630: u8 [a0 + 0x9] = a2\n   633: a2 = a1 >> 0x38\n   636: u8 [a0 + 0x7] = a2\n   639: a2 = a1 >> 0x30\n   642: u8 [a0 + 0x6] = a2\n   645: a2 = a1 >> 0x28\n   648: u8 [a0 + 0x5] = a2\n   651: a2 = a1 >> 0x20\n   654: u8 [a0 + 0x4] = a2\n   657: a2 = a1 >> 0x18\n   660: u8 [a0 + 0x3] = a2\n   663: a2 = a1 >> 0x10\n   666: u8 [a0 + 0x2] = a2\n   669: a1 = a1 >> 0x8\n   672: u8 [a0 + 0x1] = a1\n   675: ra = u64 [sp + 0x20]\n   678: s0 = u64 [sp + 0x18]\n   681: s1 = u64 [sp + 0x10]\n   684: sp = sp + 0x28\n   687: ret\n      : @21 (gas: 48)\n   689: sp = sp + 0xffffffffffffffa0\n   692: u64 [sp + 0x58] = ra\n   695: u64 [sp + 0x50] = s0\n   698: u64 [sp + 0x48] = s1\n   701: s0 = sp + 0x60\n   704: sp = sp & 0xffffffffffffffe0\n   707: s1 = a0\n   709: a0 = u64 [a1 + 0x18]\n   712: a2 = u64 [a1 + 0x10]\n   715: a3 = u64 [a1 + 0x8]\n   718: a1 = u64 [a1]\n   720: a0 = reverse a0\n   722: a2 = reverse a2\n   724: a3 = reverse a3\n   726: a1 = reverse a1\n   728: u64 [sp + 0x18] = a1\n   731: u64 [sp + 0x10] = a3\n   734: u64 [sp + 0x8] = a2\n   737: u64 [sp] = a0\n   739: u64 [sp + 56] = 0\n   742: u64 [sp + 48] = 0\n   745: u64 [sp + 40] = 0\n   748: u64 [sp + 32] = 0\n   751: u32 [sp + 64] = 0x20\n   755: i32 a1 = sp + 0\n   757: i32 a3 = sp + 0x20\n   760: i32 a4 = sp + 0x40\n   763: a2 = 0xffffffffffffffff\n   766: a0 = 0\n   768: ecalli 5 // 'get_storage'\n   770: a0 = u64 [sp + 0x38]\n   773: a1 = u64 [sp + 0x30]\n   776: a2 = u64 [sp + 0x28]\n   779: a3 = u64 [sp + 0x20]\n   782: a0 = reverse a0\n   784: a1 = reverse a1\n   786: a2 = reverse a2\n   788: a3 = reverse a3\n   790: u64 [s1 + 0x18] = a3\n   793: u64 [s1 + 0x10] = a2\n   796: u64 [s1 + 0x8] = a1\n   799: u64 [s1] = a0\n   801: sp = s0 + 0xffffffffffffffa0\n   804: ra = u64 [sp + 0x58]\n   807: s0 = u64 [sp + 0x50]\n   810: s1 = u64 [sp + 0x48]\n   813: sp = sp + 0x60\n   816: ret\n      : @22 (gas: 40)\n   818: sp = sp + 0xffffffffffffffa0\n   821: u64 [sp + 0x58] = ra\n   824: u64 [sp + 0x50] = s0\n   827: s0 = sp + 0x60\n   830: sp = sp & 0xffffffffffffffe0\n   833: t0 = u64 [a0]\n   835: a3 = u64 [a0 + 0x8]\n   838: a4 = u64 [a0 + 0x10]\n   841: a0 = u64 [a0 + 0x18]\n   844: t1 = u64 [a1]\n   846: a2 = u64 [a1 + 0x8]\n   849: a5 = u64 [a1 + 0x10]\n   852: a1 = u64 [a1 + 0x18]\n   855: t2 = reverse a0\n   857: a4 = reverse a4\n   859: a3 = reverse a3\n   861: a0 = reverse t0\n   863: t0 = reverse a1\n   865: a5 = reverse a5\n   867: a2 = reverse a2\n   869: a1 = reverse t1\n   871: u64 [sp + 0x18] = a0\n   874: u64 [sp + 0x10] = a3\n   877: u64 [sp + 0x8] = a4\n   880: u64 [sp] = t2\n   882: u64 [sp + 0x38] = a1\n   885: u64 [sp + 0x30] = a2\n   888: u64 [sp + 0x28] = a5\n   891: u64 [sp + 0x20] = t0\n   894: i32 a1 = sp + 0\n   896: i32 a3 = sp + 0x20\n   899: a2 = 0xffffffffffffffff\n   902: a4 = 0x20\n   905: a0 = 0\n   907: ecalli 9 // 'set_storage'\n   909: sp = s0 + 0xffffffffffffffa0\n   912: ra = u64 [sp + 0x58]\n   915: s0 = u64 [sp + 0x50]\n   918: sp = sp + 0x60\n   921: ret\n      : @23 (gas: 33)\n   923: sp = sp + 0xffffffffffffff20\n   927: u64 [sp + 0xd8] = ra\n   931: u64 [sp + 0xd0] = s0\n   935: u64 [sp + 0xc8] = s1\n   939: s0 = sp + 0xe0\n   943: sp = sp & 0xffffffffffffffe0\n   946: a5 = u64 [a4]\n   948: u64 [sp + 0x40] = a5\n   951: a5 = u64 [a4 + 0x8]\n   954: u64 [sp + 0x48] = a5\n   957: a5 = u64 [a4 + 0x10]\n   960: u64 [sp + 0x50] = a5\n   963: a4 = u64 [a4 + 0x18]\n   966: u64 [sp + 0x58] = a4\n   969: t0 = 0x6\n   972: a4 = u64 [a3]\n   974: u64 [sp + 0x18] = a4\n   977: a4 = u64 [a3 + 0x8]\n   980: u64 [sp + 0x20] = a4\n   983: a4 = u64 [a3 + 0x10]\n   986: u64 [sp + 0x28] = a4\n   989: a3 = u64 [a3 + 0x18]\n   992: u64 [sp + 0x30] = a3\n   995: s1 = u64 [a2]\n   997: a3 = u64 [a2 + 0x8]\n  1000: u64 [sp] = a3\n  1002: a3 = u64 [a2 + 0x10]\n  1005: u64 [sp + 0x8] = a3\n  1008: a2 = u64 [a2 + 0x18]\n  1011: u64 [sp + 0x10] = a2\n  1014: u64 [sp + 56] = 0x20\n  1018: ra = 0x8\n  1021: jump @26\n      : @24 [@dyn 3] (gas: 2)\n  1024: u64 [sp + 0x38] = a1\n  1027: ra = 8, jump @26\n      : @25 [@dyn 4] (gas: 46)\n  1032: a1 = reverse s1\n  1034: u64 [sp + 0x78] = a1\n  1037: a1 = u64 [sp]\n  1039: a1 = reverse a1\n  1041: u64 [sp + 0x70] = a1\n  1044: a1 = u64 [sp + 0x8]\n  1047: a1 = reverse a1\n  1049: u64 [sp + 0x68] = a1\n  1052: a1 = u64 [sp + 0x10]\n  1055: a1 = reverse a1\n  1057: u64 [sp + 0x60] = a1\n  1060: a1 = u64 [sp + 0x18]\n  1063: a1 = reverse a1\n  1065: u64 [sp + 0x98] = a1\n  1069: a1 = u64 [sp + 0x20]\n  1072: a1 = reverse a1\n  1074: u64 [sp + 0x90] = a1\n  1078: a1 = u64 [sp + 0x28]\n  1081: a1 = reverse a1\n  1083: u64 [sp + 0x88] = a1\n  1087: a1 = u64 [sp + 0x30]\n  1090: a1 = reverse a1\n  1092: u64 [sp + 0x80] = a1\n  1096: a1 = u64 [sp + 0x40]\n  1099: a1 = reverse a1\n  1101: u64 [sp + 0xb8] = a1\n  1105: a1 = u64 [sp + 0x48]\n  1108: a1 = reverse a1\n  1110: u64 [sp + 0xb0] = a1\n  1114: a1 = u64 [sp + 0x50]\n  1117: a1 = reverse a1\n  1119: u64 [sp + 0xa8] = a1\n  1123: a1 = u64 [sp + 0x58]\n  1126: a1 = reverse a1\n  1128: u64 [sp + 0xa0] = a1\n  1132: i32 a2 = a0 + 0\n  1134: a3 = i32 [sp + 0x38]\n  1137: i32 a0 = sp + 0x60\n  1140: a1 = 0x3\n  1143: ecalli 4 // 'deposit_event'\n  1145: sp = s0 + 0xffffffffffffff20\n  1149: ra = u64 [sp + 0xd8]\n  1153: s0 = u64 [sp + 0xd0]\n  1157: s1 = u64 [sp + 0xc8]\n  1161: sp = sp + 0xe0\n  1165: ret\n      : @26 (gas: 2)\n  1167: i32 a2 = a0 >> 0x10\n  1170: jump @31 if a2 != 0\n      : @27 (gas: 4)\n  1173: a1 = a1 + a0\n  1176: i32 a1 = a1 + 0x1f\n  1179: a1 = a1 & 0xffffffffffffffe0\n  1182: jump @31 if a1 >u 65536\n      : @28 (gas: 3)\n  1188: a2 = 0x200ac\n  1193: a3 = i32 [0x200ac]\n  1198: jump @30 if a3 >=u a1\n      : @29 (gas: 2)\n  1201: u32 [0x200ac] = a1\n  1206: fallthrough\n      : @30 (gas: 4)\n  1207: a1 = 0x200c0\n  1212: i32 a0 = a0 + 0\n  1214: a0 = a0 + a1\n  1217: ret\n      : @31 (gas: 1)\n  1219: trap\n      : @32 (gas: 6)\n  1220: sp = sp + 0xfffffffffffffff0\n  1223: u64 [sp + 0x8] = ra\n  1226: u64 [sp] = s0\n  1228: s0 = a0 & 0x1\n  1231: ecalli 2 // 'call_data_size'\n  1233: fallthrough\n      : @33 (gas: 2)\n  1234: u32 [0x200a8] = a0\n  1239: jump @35 if s0 == 0\n      : @34 (gas: 1)\n  1242: ra = 10, jump @36\n      : @35 [@dyn 5] (gas: 21)\n  1246: ra = 0xc\n  1249: sp = sp + 0xfffffffffffffe10\n  1253: u64 [sp + 0x1e8] = ra\n  1257: u64 [sp + 0x1e0] = s0\n  1261: u64 [sp + 0x1d8] = s1\n  1265: s0 = sp + 0x1f0\n  1269: sp = sp + 0xfffffffffffff800\n  1273: sp = sp + 0xfffffffffffff8b0\n  1277: sp = sp & 0xffffffffffffffe0\n  1280: s1 = sp\n  1282: a2 = s1 + 0x7ff\n  1286: a2 = a2 + 0x79\n  1289: u64 [a2 + 1504] = 0\n  1293: u64 [a2 + 1496] = 0\n  1297: u64 [a2 + 1480] = 0x80\n  1303: a0 = 0x40\n  1306: a1 = s1 + 0x7ff\n  1310: a1 = a1 + 0x641\n  1314: u64 [a2 + 1488] = 0\n  1318: ra = 0xb6\n  1322: jump @19\n      : @36 [@dyn 6] (gas: 15)\n  1325: sp = sp + 0xfffffffffffff860\n  1329: a0 = sp + 0x700\n  1333: u64 [a0 + 0x98] = ra\n  1337: u64 [a0 + 0x90] = s0\n  1341: u64 [a0 + 0x88] = s1\n  1345: s0 = sp + 0x7a0\n  1349: sp = sp & 0xffffffffffffffe0\n  1352: s1 = sp\n  1354: u64 [s1 + 1368] = 0\n  1358: u64 [s1 + 1360] = 0\n  1362: u64 [s1 + 1344] = 0x80\n  1368: a0 = 0x40\n  1371: a1 = s1 + 0x540\n  1375: u64 [s1 + 1352] = 0\n  1379: ra = 14, jump @19\n      : @37 [@dyn 7] (gas: 7)\n  1384: u64 [s1 + 1400] = 0\n  1388: u64 [s1 + 1392] = 0\n  1392: u64 [s1 + 1384] = 0\n  1396: u64 [s1 + 1376] = 0\n  1400: i32 a0 = s1 + 0x560\n  1404: ecalli 10 // 'value_transferred'\n  1406: fallthrough\n      : @38 (gas: 9)\n  1407: a4 = s1 + 0x500\n  1411: a0 = u64 [a4 + 0x70]\n  1414: a1 = u64 [a4 + 0x78]\n  1417: a2 = u64 [a4 + 0x68]\n  1420: a3 = u64 [a4 + 0x60]\n  1423: a1 = a1 | a2\n  1426: a0 = a0 | a3\n  1429: a0 = a0 | a1\n  1432: jump @40 if a0 == 0\n      : @39 (gas: 1)\n  1435: jump @169\n      : @40 (gas: 9)\n  1438: a2 = u32 [0x200a8]\n  1443: u64 [s1 + 1304] = 0\n  1447: u64 [s1 + 1296] = 0\n  1451: u64 [s1 + 1288] = 0\n  1455: a0 = s1 + 0x520\n  1459: a1 = s1 + 0x500\n  1463: u64 [s1 + 0x118] = a2\n  1467: u64 [s1 + 0x500] = a2\n  1471: ra = 16, jump @534\n      : @41 [@dyn 8] (gas: 17)\n  1476: a4 = s1 + 0x500\n  1480: a3 = u64 [a4 + 0x38]\n  1483: a2 = u64 [a4 + 0x30]\n  1486: a1 = u64 [a4 + 0x28]\n  1489: a0 = u64 [a4 + 0x20]\n  1492: a4 = s1 + 0x100\n  1496: u64 [a4 + 0x10] = a3\n  1499: u64 [a4] = a1\n  1501: a3 = a3 | a1\n  1504: a1 = a0 | a2\n  1507: a1 = a1 | a3\n  1510: a1 = a1 >> 0x20\n  1513: u64 [a4 + 0x8] = a2\n  1516: a2 = a2 | a3\n  1519: a2 = a2 << 0x20\n  1522: a1 = a1 | a2\n  1525: jump @43 if a1 == 0\n      : @42 (gas: 1)\n  1528: jump @168\n      : @43 (gas: 3)\n  1531: u64 [s1 + 0xf8] = a0\n  1535: a1 = u64 [s1 + 0x118]\n  1539: ra = 18, jump @26\n      : @44 [@dyn 9] (gas: 5)\n  1544: i32 a0 = a0 + 0\n  1546: a1 = i32 [s1 + 0x118]\n  1550: a2 = 0\n  1552: ecalli 0 // 'call_data_copy'\n  1553: fallthrough\n      : @45 (gas: 2)\n  1554: a1 = u64 [s1 + 0x118]\n  1558: jump @47 if a1 >u 63\n      : @46 (gas: 1)\n  1562: jump @170\n      : @47 (gas: 3)\n  1565: a0 = s1 + 0x4e0\n  1569: a1 = u64 [s1 + 0xf8]\n  1573: ra = 20, jump @17\n      : @48 [@dyn 10] (gas: 8)\n  1578: a0 = u64 [s1 + 0x4f8]\n  1582: t0 = u64 [s1 + 0x4f0]\n  1586: a4 = u64 [s1 + 0x4e8]\n  1590: u64 [s1 + 0xf0] = a0\n  1594: a2 = t0 | a0\n  1597: a3 = a4 <u 0x1\n  1600: a3 = 0 if a2 != 0\n  1602: jump @50 if a3 != 0\n      : @49 (gas: 1)\n  1605: jump @171\n      : @50 (gas: 50)\n  1608: a3 = u64 [s1 + 0x4e0]\n  1612: t1 = u64 [s1 + 0xf8]\n  1616: t2 = u64 [s1 + 0x118]\n  1620: t2 = t2 + t1\n  1623: a1 = t2 <u t1\n  1626: t1 = t1 + a3\n  1629: u64 [s1 + 0x118] = t1\n  1633: a3 = t1 <u a3\n  1636: a2 = u64 [s1 + 0x100]\n  1640: a0 = a4 + a2\n  1643: a5 = a2\n  1645: t1 = a0 + a3\n  1648: a2 = t1 ^ a4\n  1651: a4 = t1 <u a4\n  1654: a4 = a3 if a2 == 0\n  1657: a2 = a5\n  1659: a5 = a5 + a1\n  1662: a2 = a5 <u a2\n  1665: a2 = a1 if a1 == 0\n  1668: a1 = u64 [s1 + 0x108]\n  1672: a3 = t0 + a1\n  1675: ra = a3 <u t0\n  1678: a0 = u64 [s1 + 0x110]\n  1682: t0 = u64 [s1 + 0xf0]\n  1686: t0 = t0 + a0\n  1689: ra = ra + t0\n  1692: t0 = a1 + a2\n  1695: a4 = a4 + a3\n  1698: a2 = a4 <u a3\n  1701: a3 = ra + a2\n  1704: a1 = t0 <u a1\n  1707: a1 = a1 + a0\n  1710: u64 [s1 + 0xf0] = t2\n  1714: u64 [s1 + 0x480] = t2\n  1718: u64 [s1 + 0xe8] = a5\n  1722: u64 [s1 + 0x488] = a5\n  1726: a0 = u64 [s1 + 0x118]\n  1730: a5 = s1 + 0x400\n  1734: u64 [a5 + 0xa0] = a0\n  1738: u64 [s1 + 0x118] = t0\n  1742: u64 [s1 + 0x490] = t0\n  1746: u64 [s1 + 0xe0] = a1\n  1750: u64 [a5 + 0x98] = a1\n  1754: u64 [s1 + 0x4a8] = t1\n  1758: u64 [a5 + 0xb0] = a4\n  1762: a0 = s1 + 0x4c0\n  1766: a1 = s1 + 0x4a0\n  1770: a2 = s1 + 0x480\n  1774: u64 [a5 + 0xb8] = a3\n  1778: ra = 22, jump @545\n      : @51 [@dyn 11] (gas: 11)\n  1783: a2 = u64 [s1 + 0xf8]\n  1787: a4 = s1 + 0x100\n  1791: a0 = u64 [a4 + 0x8]\n  1794: a1 = u64 [a4 + 0x10]\n  1797: a0 = a0 | a1\n  1800: a1 = 0xffffffe0\n  1810: a1 = a2 <u a1\n  1813: a3 = u64 [a4]\n  1815: a1 = 0 if a3 != 0\n  1817: a1 = 0 if a0 != 0\n  1819: jump @53 if a1 != 0\n      : @52 (gas: 1)\n  1822: jump @168\n      : @53 (gas: 11)\n  1825: a0 = u64 [s1 + 0x4d8]\n  1829: u64 [s1 + 0xa0] = a0\n  1833: a0 = u64 [s1 + 0x4d0]\n  1837: u64 [s1 + 0x98] = a0\n  1841: a0 = u64 [s1 + 0x4c8]\n  1845: u64 [s1 + 0xa8] = a0\n  1849: a0 = u64 [s1 + 0x4c0]\n  1853: u64 [s1 + 0xb0] = a0\n  1857: i32 a1 = a2 + 0x20\n  1860: a0 = s1 + 0x460\n  1864: ra = 24, jump @17\n      : @54 [@dyn 12] (gas: 7)\n  1869: t0 = u64 [s1 + 0x478]\n  1873: a1 = u64 [s1 + 0x470]\n  1877: a2 = u64 [s1 + 0x468]\n  1881: a3 = a1 | t0\n  1884: a4 = a2 <u 0x1\n  1887: a4 = 0 if a3 != 0\n  1889: jump @56 if a4 != 0\n      : @55 (gas: 1)\n  1892: jump @172\n      : @56 (gas: 36)\n  1895: a3 = u64 [s1 + 0x460]\n  1899: a4 = u64 [s1 + 0xf8]\n  1903: a4 = a4 + a3\n  1906: a3 = a4 <u a3\n  1909: a5 = u64 [s1 + 0x100]\n  1913: a5 = a5 + a2\n  1916: a5 = a5 + a3\n  1919: a0 = a5 ^ a2\n  1922: a2 = a5 <u a2\n  1925: a2 = a3 if a0 == 0\n  1928: a0 = u64 [s1 + 0x108]\n  1932: a0 = a0 + a1\n  1935: a2 = a2 + a0\n  1938: a3 = a2 <u a0\n  1941: a0 = a0 <u a1\n  1944: a1 = u64 [s1 + 0x110]\n  1948: t0 = t0 + a1\n  1951: a0 = a0 + t0\n  1954: a3 = a3 + a0\n  1957: a0 = u64 [s1 + 0xf0]\n  1961: u64 [s1 + 0x400] = a0\n  1965: a0 = u64 [s1 + 0xe8]\n  1969: u64 [s1 + 0x408] = a0\n  1973: u64 [s1 + 0x420] = a4\n  1977: a0 = u64 [s1 + 0x118]\n  1981: a4 = s1 + 0x400\n  1985: u64 [a4 + 0x10] = a0\n  1988: a0 = u64 [s1 + 0xe0]\n  1992: u64 [a4 + 0x18] = a0\n  1995: u64 [a4 + 0x28] = a5\n  1998: u64 [a4 + 0x30] = a2\n  2001: a0 = s1 + 0x440\n  2005: a1 = s1 + 0x420\n  2009: a2 = s1 + 0x400\n  2013: u64 [a4 + 0x38] = a3\n  2016: ra = 26, jump @545\n      : @57 [@dyn 13] (gas: 12)\n  2021: a2 = u64 [s1 + 0x98]\n  2025: a4 = u64 [s1 + 0xb0]\n  2029: a0 = a4 | a2\n  2032: a1 = u64 [s1 + 0xa0]\n  2036: a3 = u64 [s1 + 0xa8]\n  2040: a1 = a1 | a3\n  2043: a0 = a0 | a1\n  2046: a0 = a0 >> 0x20\n  2049: a1 = a1 | a2\n  2052: a1 = a1 << 0x20\n  2055: a0 = a0 | a1\n  2058: jump @59 if a0 == 0\n      : @58 (gas: 1)\n  2061: jump @168\n      : @59 (gas: 12)\n  2064: a1 = a4\n  2066: a2 = s1 + 0x400\n  2070: a0 = u64 [a2 + 0x58]\n  2073: u64 [s1 + 0x78] = a0\n  2076: a0 = u64 [a2 + 0x50]\n  2079: u64 [s1 + 0x70] = a0\n  2082: a0 = u64 [a2 + 0x48]\n  2085: u64 [s1 + 0x80] = a0\n  2089: a0 = u64 [a2 + 0x40]\n  2092: u64 [s1 + 0x88] = a0\n  2096: a0 = s1 + 0x3e0\n  2100: ra = 28, jump @17\n      : @60 [@dyn 14] (gas: 17)\n  2105: a0 = s1 + 0x300\n  2109: a3 = u64 [a0 + 0xf8]\n  2113: a1 = u64 [a0 + 0xf0]\n  2117: a2 = u64 [a0 + 0xe8]\n  2121: a0 = a3 >u 0\n  2123: a4 = a1 >u 0\n  2125: a4 = a0 if a3 != 0\n  2128: u64 [s1 + 0xd0] = a2\n  2132: a0 = a2 >u 0\n  2134: u64 [s1 + 0x60] = a1\n  2137: u64 [s1 + 0xc8] = a3\n  2141: a1 = a1 | a3\n  2144: u64 [s1 + 0x58] = a0\n  2147: u64 [s1 + 0x90] = a4\n  2151: u64 [s1 + 0xc0] = a1\n  2155: a0 = a4 if a1 != 0\n  2158: jump @62 if a0 == 0\n      : @61 (gas: 1)\n  2161: jump @173\n      : @62 (gas: 9)\n  2164: a0 = u64 [s1 + 0x3e0]\n  2168: u64 [s1 + 0x68] = a0\n  2171: u64 [s1 + 1432] = 0\n  2175: u64 [s1 + 1424] = 0\n  2179: u64 [s1 + 1416] = 0\n  2183: u64 [s1 + 1408] = 0x3\n  2188: a0 = s1 + 0x3c0\n  2192: a1 = s1 + 0x580\n  2196: ra = 30, jump @21\n      : @63 [@dyn 15] (gas: 6)\n  2201: a4 = s1 + 0x300\n  2205: a0 = u64 [a4 + 0xd0]\n  2209: a1 = u64 [a4 + 0xc8]\n  2213: a2 = u64 [a4 + 0xc0]\n  2217: a3 = u64 [a4 + 0xd8]\n  2221: t0 = 32, jump @656\n      : @64 [@dyn 16] (gas: 12)\n  2226: t0 = a2 <u 0x1\n  2229: ra = a1 & 0x7f\n  2232: t2 = a5 & a0\n  2235: a4 = a5 & t1\n  2238: ra = a1 if a2 != 0\n  2241: a1 = ra <u 0x20\n  2244: a5 = a5 & a3\n  2247: a2 = a1\n  2249: a2 = 0 if a4 != 0\n  2251: a0 = t2 | a5\n  2254: a2 = 0 if a0 != 0\n  2256: jump @66 if t0 == a2\n      : @65 (gas: 1)\n  2259: jump @179\n      : @66 (gas: 1)\n  2262: t0 = 34, jump @660\n      : @67 [@dyn 17] (gas: 4)\n  2267: a0 = u64 [s1 + 0x68]\n  2270: a0 = a0 <u 0x20\n  2273: u64 [s1 + 0xb8] = a0\n  2277: jump @76 if a3 == 0\n      : @68 (gas: 11)\n  2281: u64 [s1 + 0xf0] = a4\n  2285: u64 [s1 + 0xf8] = ra\n  2289: u64 [s1 + 0x100] = a5\n  2293: u64 [s1 + 0x110] = t2\n  2297: u64 [s1 + 952] = 0\n  2301: u64 [s1 + 944] = 0\n  2305: u64 [s1 + 936] = 0\n  2309: a1 = s1 + 0x3a0\n  2313: u64 [s1 + 928] = 0x3\n  2318: a0 = 0\n  2320: ra = 36, jump @19\n      : @69 [@dyn 18] (gas: 2)\n  2325: a1 = i32 [0x200ac]\n  2330: jump @71 if a1 >u 31\n      : @70 (gas: 2)\n  2334: u32 [0x200ac] = 0x20\n  2340: fallthrough\n      : @71 (gas: 87)\n  2341: a0 = sp + 0xffffffffffffffe0\n  2344: a2 = a0 & 0xffffffffffffffe0\n  2347: u64 [s1 + 0x108] = a2\n  2351: sp = a2\n  2353: a0 = 0x200c0\n  2358: i32 a0 = a0 + 0\n  2360: i32 a2 = a2 + 0\n  2362: a1 = 0x20\n  2365: ecalli 6 // 'hash_keccak_256'\n  2367: a0 = u64 [s1 + 0x68]\n  2370: a1 = a0 + 0x1f\n  2373: a0 = a1 <u a0\n  2376: a5 = u64 [s1 + 0xd0]\n  2380: a2 = a5 + a0\n  2383: a3 = a2 <u a5\n  2386: a3 = a0 if a0 == 0\n  2389: a4 = u64 [s1 + 0x60]\n  2392: a3 = a3 + a4\n  2395: u64 [s1 + 0xe8] = a3\n  2399: a3 = a3 << 0x3b\n  2402: a4 = a2 >> 0x5\n  2405: a4 = a4 | a3\n  2408: a0 = u64 [s1 + 0x108]\n  2412: t1 = u64 [a0 + 0x18]\n  2415: a2 = a2 << 0x3b\n  2418: a3 = u64 [a0 + 0x10]\n  2421: a1 = a1 >> 0x5\n  2424: a0 = a1 | a2\n  2427: t2 = reverse t1\n  2429: a2 = reverse a3\n  2431: a1 = u64 [s1 + 0xb8]\n  2435: a1 = 0 if a5 != 0\n  2437: a3 = u64 [s1 + 0xc0]\n  2441: a1 = 0 if a3 != 0\n  2443: a4 = 0 if a1 != 0\n  2445: a0 = 0 if a1 != 0\n  2447: t0 = t2 + a0\n  2450: a0 = t0 <u t2\n  2453: a5 = a2 + a0\n  2456: a4 = a4 + a5\n  2459: u64 [s1 + 0x118] = a4\n  2463: a5 = a4 ^ a2\n  2466: a3 = a4 <u a2\n  2469: a3 = a0 if a5 == 0\n  2472: u64 [s1 + 0xe0] = a3\n  2476: a0 = u64 [s1 + 0xf8]\n  2480: ra = a0 + 0x1f\n  2483: a4 = ra <u a0\n  2486: a3 = u64 [s1 + 0xf0]\n  2490: a0 = a3 + a4\n  2493: a5 = a0 <u a3\n  2496: a5 = a4 if a4 == 0\n  2499: t1 = u64 [s1 + 0x110]\n  2503: t1 = t1 + a5\n  2506: a4 = t1 << 0x3b\n  2509: a3 = a0 >> 0x5\n  2512: a3 = a3 | a4\n  2515: a0 = a0 << 0x3b\n  2518: a4 = ra >> 0x5\n  2521: a0 = a0 | a4\n  2524: a0 = a0 + t2\n  2527: u64 [s1 + 0xf8] = a0\n  2531: a0 = a0 <u t2\n  2534: t2 = t0\n  2536: a4 = a2 + a0\n  2539: a4 = a4 + a3\n  2542: a3 = a4 ^ a2\n  2545: u64 [s1 + 0xf0] = a4\n  2549: a2 = a4 <u a2\n  2552: a2 = a0 if a3 == 0\n  2555: a4 = u64 [s1 + 0xe8]\n  2559: a0 = u64 [s1 + 0x60]\n  2562: a0 = a4 <u a0\n  2565: a3 = u64 [s1 + 0xc8]\n  2569: a0 = a0 + a3\n  2572: a3 = a4 >> 0x5\n  2575: a4 = a0 << 0x3b\n  2578: a3 = a3 | a4\n  2581: a4 = u64 [s1 + 0x108]\n  2585: t0 = u64 [a4]\n  2587: a4 = u64 [a4 + 0x8]\n  2590: a0 = a0 >> 0x5\n  2593: a3 = 0 if a1 != 0\n  2595: a0 = 0 if a1 != 0\n  2597: a1 = reverse a4\n  2599: a4 = reverse t0\n  2601: t0 = 38, jump @673\n      : @72 [@dyn 19] (gas: 24)\n  2606: t0 = a0 + a3\n  2609: a0 = u64 [s1 + 0x110]\n  2613: a0 = t1 <u a0\n  2616: a3 = u64 [s1 + 0x100]\n  2620: a0 = a0 + a3\n  2623: a3 = t1 >> 0x5\n  2626: a5 = a0 << 0x3b\n  2629: a3 = a3 | a5\n  2632: a0 = a0 >> 0x5\n  2635: a0 = a0 + a4\n  2638: a4 = u64 [s1 + 0x118]\n  2642: a3 = a3 + a1\n  2645: a1 = a3 <u a1\n  2648: a0 = a0 + a1\n  2651: a2 = a2 + a3\n  2654: u64 [s1 + 0xe8] = a2\n  2658: a1 = a2 <u a3\n  2661: a0 = a0 + a1\n  2664: u64 [s1 + 0xe0] = a0\n  2668: a0 = sp + 0xffffffffffffffe0\n  2671: t1 = a0 & 0xffffffffffffffe0\n  2674: sp = t1\n  2676: u64 [s1 + 0xd8] = t1\n  2680: fallthrough\n      : @73 (gas: 20)\n  2681: a0 = u64 [s1 + 0xf8]\n  2685: a0 = t2 <u a0\n  2688: a2 = u64 [s1 + 0xf0]\n  2692: a1 = a4 ^ a2\n  2695: a2 = a4 <u a2\n  2698: a2 = a0 if a1 == 0\n  2701: a5 = u64 [s1 + 0xe8]\n  2705: a0 = ra <u a5\n  2708: a3 = u64 [s1 + 0xe0]\n  2712: a1 = t0 ^ a3\n  2715: a3 = t0 <u a3\n  2718: a3 = a0 if a1 == 0\n  2721: a0 = ra ^ a5\n  2724: a0 = a0 | a1\n  2727: a3 = a2 if a0 == 0\n  2730: u64 [t1] = t2\n  2732: u64 [t1 + 0x8] = a4\n  2735: u64 [t1 + 0x10] = ra\n  2738: u64 [t1 + 0x18] = t0\n  2741: jump @76 if a3 == 0\n      : @74 (gas: 11)\n  2744: u64 [s1 + 1464] = 0\n  2748: u64 [s1 + 1456] = 0\n  2752: u64 [s1 + 1448] = 0\n  2756: u64 [s1 + 1440] = 0\n  2760: a1 = s1 + 0x5a0\n  2764: a0 = t1\n  2766: u64 [s1 + 0x110] = t2\n  2770: u64 [s1 + 0x118] = a4\n  2774: u64 [s1 + 0x108] = t0\n  2778: u64 [s1 + 0x100] = ra\n  2782: ra = 40, jump @22\n      : @75 [@dyn 20] (gas: 15)\n  2787: t1 = u64 [s1 + 0xd8]\n  2791: t0 = u64 [s1 + 0x108]\n  2795: a4 = u64 [s1 + 0x118]\n  2799: t2 = u64 [s1 + 0x110]\n  2803: t2 = t2 + 0x1\n  2806: a0 = t2 <u 0x1\n  2809: a4 = a4 + a0\n  2812: a0 = t2 | a4\n  2815: a0 = a0 <u 0x1\n  2818: a1 = u64 [s1 + 0x100]\n  2822: a0 = a0 + a1\n  2825: a1 = a0 <u a1\n  2828: t0 = t0 + a1\n  2831: ra = a0\n  2833: jump @73\n      : @76 (gas: 23)\n  2836: a0 = u64 [s1 + 0xb8]\n  2840: a0 = a0 ^ 0x1\n  2843: a5 = u64 [s1 + 0xd0]\n  2847: a1 = u64 [s1 + 0x58]\n  2850: a0 = a1 if a5 != 0\n  2853: a1 = u64 [s1 + 0x90]\n  2857: a2 = u64 [s1 + 0xc0]\n  2861: a0 = a1 if a2 != 0\n  2864: ra = u64 [s1 + 0xc8]\n  2868: a4 = a5 | ra\n  2871: a1 = u64 [s1 + 0x60]\n  2874: t2 = a1 >> 0x3f\n  2877: ra = ra << 0x1\n  2880: a2 = a5 >> 0x3f\n  2883: u64 [s1 + 0x58] = a2\n  2886: a2 = a1 << 0x1\n  2889: u64 [s1 + 0x48] = a2\n  2892: a3 = u64 [s1 + 0x68]\n  2895: t0 = a3 >> 0x3f\n  2898: a2 = a5 << 0x1\n  2901: u64 [s1 + 0x50] = a2\n  2904: a2 = a3 << 0x1\n  2907: jump @87 if a0 == 0\n      : @77 (gas: 14)\n  2911: u64 [s1 + 0x20] = a4\n  2914: u64 [s1 + 0x30] = t0\n  2917: u64 [s1 + 0x38] = ra\n  2920: u64 [s1 + 0x28] = t2\n  2923: u64 [s1 + 0x40] = a2\n  2926: a3 = a3 & 0xffffffffffffffe0\n  2929: u64 [s1 + 0x90] = a3\n  2933: u64 [s1 + 888] = 0\n  2937: u64 [s1 + 880] = 0\n  2941: u64 [s1 + 872] = 0\n  2945: a1 = s1 + 0x360\n  2949: u64 [s1 + 864] = 0x3\n  2954: a0 = 0\n  2956: ra = 42, jump @19\n      : @78 [@dyn 21] (gas: 7)\n  2961: a0 = sp + 0xffffffffffffffe0\n  2964: a0 = a0 & 0xffffffffffffffe0\n  2967: u64 [s1 + 0xf0] = a0\n  2971: sp = a0\n  2973: a1 = 0x20\n  2976: a0 = 0\n  2978: ra = 44, jump @26\n      : @79 [@dyn 22] (gas: 1)\n  2983: t0 = 46, jump @672\n      : @80 [@dyn 23] (gas: 5)\n  2988: ecalli 6 // 'hash_keccak_256'\n  2990: u64 [s1 + 280] = 0x20\n  2995: a5 = 0\n  2997: u64 [s1 + 272] = 0\n  3001: t0 = 48, jump @663\n      : @81 [@dyn 24] (gas: 15)\n  3006: t0 = u64 [a3]\n  3008: t1 = reverse a0\n  3010: a1 = reverse a1\n  3012: a3 = reverse a2\n  3014: a2 = reverse t0\n  3016: t0 = a2\n  3018: a0 = u64 [s1 + 0xf0]\n  3022: u64 [a0 + 0x18] = a2\n  3025: u64 [s1 + 0xd0] = a3\n  3029: u64 [a0 + 0x10] = a3\n  3032: u64 [s1 + 0xe8] = a1\n  3036: u64 [a0 + 0x8] = a1\n  3039: a3 = t1\n  3041: u64 [a0] = t1\n  3043: fallthrough\n      : @82 (gas: 25)\n  3044: t2 = t0\n  3046: t1 = a3\n  3048: a0 = u64 [s1 + 0x90]\n  3052: u64 [s1 + 0xe0] = a4\n  3056: a0 = a4 <u a0\n  3059: a4 = a0 ^ 0x1\n  3062: u64 [s1 + 0xd8] = ra\n  3066: a4 = 0x1 if ra != 0\n  3069: a0 = u64 [s1 + 0x100]\n  3073: a2 = u64 [s1 + 0xf8]\n  3077: a0 = a0 | a2\n  3080: a4 = 0x1 if a0 != 0\n  3083: a1 = u64 [s1 + 0xb0]\n  3087: a0 = u64 [s1 + 0x118]\n  3091: a1 = a1 + a0\n  3094: a3 = u64 [s1 + 0xa8]\n  3098: t0 = a5\n  3100: a3 = a3 + a5\n  3103: a2 = u64 [s1 + 0x98]\n  3107: a0 = u64 [s1 + 0x110]\n  3111: a2 = a2 + a0\n  3114: a0 = u64 [s1 + 0xa0]\n  3118: a5 = u64 [s1 + 0x108]\n  3122: a0 = a0 + a5\n  3125: jump @89 if a4 != 0\n      : @83 (gas: 23)\n  3129: a4 = u64 [s1 + 0x118]\n  3133: a4 = a1 <u a4\n  3136: ra = a3 + a4\n  3139: a3 = t0\n  3141: t0 = ra ^ t0\n  3144: a5 = ra <u a3\n  3147: a5 = a4 if t0 == 0\n  3150: a5 = a5 + a2\n  3153: t0 = a5 <u a2\n  3156: a4 = u64 [s1 + 0x110]\n  3160: a2 = a2 <u a4\n  3163: a0 = a0 + a2\n  3166: a0 = a0 + t0\n  3169: a2 = a1 | a5\n  3172: a0 = ra | a0\n  3175: a2 = a2 | a0\n  3178: a2 = a2 >> 0x20\n  3181: a0 = a0 | a5\n  3184: a0 = a0 << 0x20\n  3187: a0 = a0 | a2\n  3190: u64 [s1 + 0xc8] = t1\n  3194: u64 [s1 + 0xc0] = t2\n  3198: jump @168 if a0 != 0\n      : @84 (gas: 3)\n  3202: a0 = s1 + 0x1a0\n  3206: u64 [s1 + 0xb8] = a3\n  3210: ra = 50, jump @17\n      : @85 [@dyn 25] (gas: 12)\n  3215: a0 = u64 [s1 + 0x1b8]\n  3219: a1 = u64 [s1 + 0x1b0]\n  3223: a2 = u64 [s1 + 0x1a8]\n  3227: a3 = u64 [s1 + 0x1a0]\n  3231: a4 = s1 + 0x500\n  3235: u64 [a4 + 0xd8] = a0\n  3239: u64 [a4 + 0xd0] = a1\n  3243: u64 [a4 + 0xc8] = a2\n  3247: u64 [a4 + 0xc0] = a3\n  3251: a1 = s1 + 0x5c0\n  3255: a0 = u64 [s1 + 0xf0]\n  3259: ra = 52, jump @22\n      : @86 [@dyn 26] (gas: 57)\n  3264: ra = u64 [s1 + 0xc8]\n  3268: ra = ra + 0x1\n  3271: a0 = ra <u 0x1\n  3274: t0 = u64 [s1 + 0xe8]\n  3278: t0 = t0 + a0\n  3281: a0 = ra | t0\n  3284: a0 = a0 <u 0x1\n  3287: a1 = u64 [s1 + 0xd0]\n  3291: t1 = a1 + a0\n  3294: a1 = t1 <u a1\n  3297: a0 = u64 [s1 + 0xc0]\n  3301: a0 = a0 + a1\n  3304: a1 = u64 [s1 + 0x118]\n  3308: a2 = a1 + 0x20\n  3311: u64 [s1 + 0xc8] = a2\n  3315: a3 = a2 <u a1\n  3318: a1 = u64 [s1 + 0xb8]\n  3322: a2 = a1 + a3\n  3325: u64 [s1 + 0xc0] = a2\n  3329: a4 = a2 <u a1\n  3332: a4 = a3 if a3 == 0\n  3335: a1 = u64 [s1 + 0x110]\n  3339: t2 = a1 + a4\n  3342: a4 = t2 <u a1\n  3345: a1 = u64 [s1 + 0x108]\n  3349: a1 = a1 + a4\n  3352: u64 [s1 + 0x108] = a1\n  3356: a1 = u64 [s1 + 0xe0]\n  3360: a4 = a1 + 0x20\n  3363: a5 = a4 <u a1\n  3366: a2 = u64 [s1 + 0xd8]\n  3370: a1 = a2 + a5\n  3373: a2 = a1 <u a2\n  3376: a2 = a5 if a5 == 0\n  3379: a3 = u64 [s1 + 0xf8]\n  3383: a2 = a2 + a3\n  3386: a5 = a2 <u a3\n  3389: a3 = u64 [s1 + 0x100]\n  3393: a3 = a3 + a5\n  3396: u64 [s1 + 0x100] = a3\n  3400: a3 = t0\n  3402: u64 [s1 + 0xe8] = a3\n  3406: a5 = u64 [s1 + 0xf0]\n  3410: u64 [a5 + 0x8] = a3\n  3413: a3 = ra\n  3415: u64 [a5] = ra\n  3417: u64 [a5 + 0x10] = t1\n  3420: t0 = a0\n  3422: u64 [a5 + 0x18] = a0\n  3425: u64 [s1 + 0xd0] = t1\n  3429: a0 = u64 [s1 + 0xc8]\n  3433: u64 [s1 + 0x118] = a0\n  3437: a5 = u64 [s1 + 0xc0]\n  3441: u64 [s1 + 0x110] = t2\n  3445: ra = a1\n  3447: u64 [s1 + 0xf8] = a2\n  3451: jump @82\n      : @87 (gas: 7)\n  3454: a0 = a3 | a1\n  3457: a0 = a0 | a4\n  3460: a4 = u64 [s1 + 0xb0]\n  3464: t1 = u64 [s1 + 0xa8]\n  3468: a1 = u64 [s1 + 0xa0]\n  3472: a5 = u64 [s1 + 0x98]\n  3476: jump @102 if a0 != 0\n      : @88 (gas: 6)\n  3480: u64 [s1 + 0x40] = a2\n  3483: u64 [s1 + 256] = 0\n  3487: u64 [s1 + 248] = 0\n  3491: u64 [s1 + 264] = 0\n  3495: u64 [s1 + 272] = 0\n  3499: jump @105\n      : @89 (gas: 11)\n  3502: ra = t0\n  3504: t1 = u64 [s1 + 0x68]\n  3507: a4 = u64 [s1 + 0x90]\n  3511: a4 = a4 ^ t1\n  3514: a5 = u64 [s1 + 0x60]\n  3517: a4 = a4 | a5\n  3520: a5 = u64 [s1 + 0x20]\n  3523: a4 = a4 | a5\n  3526: a5 = u64 [s1 + 0x38]\n  3529: t0 = u64 [s1 + 0x30]\n  3532: jump @101 if a4 == 0\n      : @90 (gas: 13)\n  3536: a4 = u64 [s1 + 0x118]\n  3540: a4 = a1 <u a4\n  3543: a3 = a3 + a4\n  3546: t0 = a3 ^ ra\n  3549: a5 = a3 <u ra\n  3552: a5 = a4 if t0 == 0\n  3555: a5 = a5 + a2\n  3558: t0 = a5 <u a2\n  3561: a4 = u64 [s1 + 0x110]\n  3565: a2 = a2 <u a4\n  3568: a0 = a0 + a2\n  3571: a0 = a0 + t0\n  3574: t0 = 54, jump @662\n      : @91 [@dyn 27] (gas: 1)\n  3579: jump @168 if a0 != 0\n      : @92 (gas: 2)\n  3583: a0 = s1 + 0x340\n  3587: ra = 56, jump @17\n      : @93 [@dyn 28] (gas: 11)\n  3592: a1 = s1 + 0x300\n  3596: a0 = u64 [a1 + 0x58]\n  3599: u64 [s1 + 0x110] = a0\n  3603: a0 = u64 [a1 + 0x50]\n  3606: u64 [s1 + 0x108] = a0\n  3610: a0 = u64 [a1 + 0x48]\n  3613: u64 [s1 + 0x100] = a0\n  3617: a0 = u64 [a1 + 0x40]\n  3620: u64 [s1 + 0xf8] = a0\n  3624: a0 = u64 [s1 + 0x68]\n  3627: t0 = 58, jump @666\n      : @94 [@dyn 29] (gas: 1)\n  3632: ra = 60, jump @680\n      : @95 [@dyn 30] (gas: 6)\n  3637: u64 [s1 + 0xe8] = a0\n  3641: u64 [s1 + 0xd0] = a1\n  3645: a0 = 0xffffffffffffffff\n  3648: a1 = 0xffffffffffffffff\n  3651: a2 = u64 [s1 + 0x118]\n  3655: ra = 62, jump @675\n      : @96 [@dyn 31] (gas: 1)\n  3660: t0 = 64, jump @667\n      : @97 [@dyn 32] (gas: 1)\n  3665: ra = 66, jump @675\n      : @98 [@dyn 33] (gas: 1)\n  3670: t0 = 68, jump @654\n      : @99 [@dyn 34] (gas: 8)\n  3675: a4 = s1 + 0x500\n  3679: u64 [a4 + 0xf8] = a3\n  3683: u64 [a4 + 0xf0] = a2\n  3687: u64 [a4 + 0xe8] = a1\n  3691: u64 [a4 + 0xe0] = a0\n  3695: a1 = s1 + 0x5e0\n  3699: a0 = u64 [s1 + 0xf0]\n  3703: ra = 70, jump @22\n      : @100 [@dyn 35] (gas: 3)\n  3708: t0 = u64 [s1 + 0x30]\n  3711: a5 = u64 [s1 + 0x38]\n  3714: fallthrough\n      : @101 (gas: 22)\n  3715: a0 = u64 [s1 + 0x28]\n  3718: a0 = a0 | a5\n  3721: a1 = u64 [s1 + 0x58]\n  3724: a2 = u64 [s1 + 0x48]\n  3727: a1 = a1 | a2\n  3730: a2 = u64 [s1 + 0x50]\n  3733: a2 = a2 | t0\n  3736: a3 = u64 [s1 + 0x40]\n  3739: a3 = a3 + 0x1\n  3742: u64 [s1 + 1560] = 0\n  3746: u64 [s1 + 1552] = 0\n  3750: u64 [s1 + 1544] = 0\n  3754: a5 = s1 + 0x600\n  3758: u64 [a5 + 0] = 0x3\n  3761: u64 [a5 + 0x20] = a3\n  3764: u64 [a5 + 0x28] = a2\n  3767: u64 [a5 + 0x30] = a1\n  3770: u64 [a5 + 0x38] = a0\n  3773: a0 = s1 + 0x600\n  3777: a1 = s1 + 0x620\n  3781: ra = 0x56\n  3784: jump @22\n      : @102 (gas: 6)\n  3787: a0 = a5 | a1\n  3790: a1 = 0xffffffe0\n  3800: a1 = a4 <u a1\n  3803: a1 = 0 if t1 != 0\n  3805: a1 = 0 if a0 != 0\n  3807: jump @168 if a1 == 0\n      : @103 (gas: 7)\n  3811: u64 [s1 + 0x40] = a2\n  3814: i32 a1 = a4 + 0x20\n  3817: a0 = s1 + 0x380\n  3821: u64 [s1 + 0x28] = t2\n  3824: u64 [s1 + 0x38] = ra\n  3827: u64 [s1 + 0x30] = t0\n  3830: ra = 72, jump @17\n      : @104 [@dyn 36] (gas: 15)\n  3835: t0 = u64 [s1 + 0x30]\n  3838: ra = u64 [s1 + 0x38]\n  3841: t2 = u64 [s1 + 0x28]\n  3844: a3 = u64 [s1 + 0x68]\n  3847: a1 = s1 + 0x300\n  3851: a0 = u64 [a1 + 0x98]\n  3855: a2 = s1 + 0x100\n  3859: u64 [a2 + 0x10] = a0\n  3862: a0 = u64 [a1 + 0x90]\n  3866: u64 [a2 + 0x8] = a0\n  3869: a0 = u64 [a1 + 0x88]\n  3873: u64 [s1 + 0xf8] = a0\n  3877: a0 = u64 [a1 + 0x80]\n  3881: u64 [a2] = a0\n  3883: fallthrough\n      : @105 (gas: 10)\n  3884: a0 = u64 [s1 + 0x58]\n  3887: a1 = u64 [s1 + 0x48]\n  3890: a0 = a0 | a1\n  3893: u64 [s1 + 0xf0] = a0\n  3897: a0 = ra | t2\n  3900: u64 [s1 + 0xe8] = a0\n  3904: a0 = u64 [s1 + 0x50]\n  3907: a0 = a0 | t0\n  3910: u64 [s1 + 0xe0] = a0\n  3914: t0 = 74, jump @674\n      : @106 [@dyn 37] (gas: 1)\n  3919: ra = 76, jump @680\n      : @107 [@dyn 38] (gas: 7)\n  3924: u64 [s1 + 0xc0] = a0\n  3928: u64 [s1 + 0xd8] = a1\n  3932: a0 = u64 [s1 + 0x68]\n  3935: i32 a2 = a0 << 0x3\n  3938: a0 = 0xffffffffffffffff\n  3941: a1 = 0xffffffffffffffff\n  3944: ra = 78, jump @675\n      : @108 [@dyn 39] (gas: 10)\n  3949: u64 [s1 + 0xd0] = a0\n  3953: u64 [s1 + 0xc8] = a1\n  3957: a1 = u64 [s1 + 0xc0]\n  3961: a0 = a0 | a1\n  3964: u64 [s1 + 0xc0] = a0\n  3968: a0 = u64 [s1 + 0x118]\n  3972: i32 a2 = a0 + 0xffffffffffffff80\n  3975: a0 = 0xffffffffffffffff\n  3978: a1 = 0xffffffffffffffff\n  3981: ra = 80, jump @675\n      : @109 [@dyn 40] (gas: 7)\n  3986: a4 = u64 [s1 + 0x118]\n  3990: a2 = a4 <u 0x80\n  3994: a3 = u64 [s1 + 0xc0]\n  3998: a0 = a3 if a2 != 0\n  4001: a5 = u64 [s1 + 0xc8]\n  4005: a3 = u64 [s1 + 0xd8]\n  4009: t0 = 82, jump @669\n      : @110 [@dyn 41] (gas: 2)\n  4014: a4 = u64 [s1 + 0xd0]\n  4018: t0 = 84, jump @657\n      : @111 [@dyn 42] (gas: 20)\n  4023: a4 = u64 [s1 + 0x40]\n  4026: a0 = a0 | a4\n  4029: a4 = u64 [s1 + 0xe0]\n  4033: a1 = a1 | a4\n  4036: a4 = u64 [s1 + 0xe8]\n  4040: a3 = a3 | a4\n  4043: a4 = u64 [s1 + 0xf0]\n  4047: a2 = a2 | a4\n  4050: a5 = s1 + 0x600\n  4054: u64 [a5 + 64] = 0x3\n  4058: u64 [a5 + 0x70] = a2\n  4061: u64 [a5 + 0x78] = a3\n  4064: u64 [a5 + 0x68] = a1\n  4067: u64 [a5 + 0x60] = a0\n  4070: u64 [s1 + 1624] = 0\n  4074: u64 [s1 + 1616] = 0\n  4078: u64 [s1 + 1608] = 0\n  4082: a0 = s1 + 0x640\n  4086: a1 = s1 + 0x660\n  4090: ra = 86, jump @22\n      : @112 [@dyn 43] (gas: 12)\n  4095: a1 = u64 [s1 + 0x88]\n  4099: a4 = u64 [s1 + 0x70]\n  4102: a0 = a1 | a4\n  4105: a2 = u64 [s1 + 0x80]\n  4109: a3 = u64 [s1 + 0x78]\n  4112: a2 = a2 | a3\n  4115: a0 = a0 | a2\n  4118: a0 = a0 >> 0x20\n  4121: a2 = a2 | a4\n  4124: a2 = a2 << 0x20\n  4127: a0 = a0 | a2\n  4130: jump @168 if a0 != 0\n      : @113 (gas: 2)\n  4134: a0 = s1 + 0x320\n  4138: ra = 88, jump @17\n      : @114 [@dyn 44] (gas: 17)\n  4143: a0 = s1 + 0x300\n  4147: a3 = u64 [a0 + 0x38]\n  4150: a2 = u64 [a0 + 0x30]\n  4153: a1 = u64 [a0 + 0x28]\n  4156: a0 = a3 >u 0\n  4158: a4 = a2 >u 0\n  4160: a4 = a0 if a3 != 0\n  4163: u64 [s1 + 0xa0] = a1\n  4167: a0 = a1 >u 0\n  4169: u64 [s1 + 0x98] = a2\n  4173: u64 [s1 + 0x90] = a3\n  4177: a2 = a2 | a3\n  4180: u64 [s1 + 0xb8] = a0\n  4184: u64 [s1 + 0xc0] = a4\n  4188: u64 [s1 + 0xd0] = a2\n  4192: a0 = a4 if a2 != 0\n  4195: jump @185 if a0 != 0\n      : @115 (gas: 9)\n  4199: a0 = u64 [s1 + 0x320]\n  4203: u64 [s1 + 0xa8] = a0\n  4207: u64 [s1 + 1688] = 0\n  4211: u64 [s1 + 1680] = 0\n  4215: u64 [s1 + 1672] = 0\n  4219: u64 [s1 + 1664] = 0x4\n  4224: a0 = s1 + 0x300\n  4228: a1 = s1 + 0x680\n  4232: ra = 90, jump @21\n      : @116 [@dyn 45] (gas: 6)\n  4237: a4 = s1 + 0x300\n  4241: a0 = u64 [a4 + 0x10]\n  4244: a1 = u64 [a4 + 0x8]\n  4247: a2 = u64 [a4]\n  4249: a3 = u64 [a4 + 0x18]\n  4252: t0 = 92, jump @656\n      : @117 [@dyn 46] (gas: 12)\n  4257: t0 = a2 <u 0x1\n  4260: ra = a1 & 0x7f\n  4263: t2 = a5 & a0\n  4266: a4 = a5 & t1\n  4269: ra = a1 if a2 != 0\n  4272: a1 = ra <u 0x20\n  4275: a5 = a5 & a3\n  4278: a2 = a1\n  4280: a2 = 0 if a4 != 0\n  4282: a0 = t2 | a5\n  4285: a2 = 0 if a0 != 0\n  4287: jump @191 if t0 != a2\n      : @118 (gas: 1)\n  4291: t0 = 94, jump @660\n      : @119 [@dyn 47] (gas: 4)\n  4296: a0 = u64 [s1 + 0xa8]\n  4300: a0 = a0 <u 0x20\n  4303: u64 [s1 + 0xc8] = a0\n  4307: jump @128 if a3 == 0\n      : @120 (gas: 11)\n  4311: u64 [s1 + 0xf0] = a4\n  4315: u64 [s1 + 0xf8] = ra\n  4319: u64 [s1 + 0x100] = a5\n  4323: u64 [s1 + 0x110] = t2\n  4327: u64 [s1 + 760] = 0\n  4331: u64 [s1 + 752] = 0\n  4335: u64 [s1 + 744] = 0\n  4339: a1 = s1 + 0x2e0\n  4343: u64 [s1 + 736] = 0x4\n  4348: a0 = 0\n  4350: ra = 96, jump @19\n      : @121 [@dyn 48] (gas: 2)\n  4355: a1 = i32 [0x200ac]\n  4360: jump @123 if a1 >u 31\n      : @122 (gas: 2)\n  4364: u32 [0x200ac] = 0x20\n  4370: fallthrough\n      : @123 (gas: 87)\n  4371: a0 = sp + 0xffffffffffffffe0\n  4374: a2 = a0 & 0xffffffffffffffe0\n  4377: u64 [s1 + 0x108] = a2\n  4381: sp = a2\n  4383: a0 = 0x200c0\n  4388: i32 a0 = a0 + 0\n  4390: i32 a2 = a2 + 0\n  4392: a1 = 0x20\n  4395: ecalli 6 // 'hash_keccak_256'\n  4397: a0 = u64 [s1 + 0xa8]\n  4401: a1 = a0 + 0x1f\n  4404: a0 = a1 <u a0\n  4407: a5 = u64 [s1 + 0xa0]\n  4411: a2 = a5 + a0\n  4414: a3 = a2 <u a5\n  4417: a3 = a0 if a0 == 0\n  4420: a4 = u64 [s1 + 0x98]\n  4424: a3 = a3 + a4\n  4427: u64 [s1 + 0xe8] = a3\n  4431: a3 = a3 << 0x3b\n  4434: a4 = a2 >> 0x5\n  4437: a4 = a4 | a3\n  4440: a0 = u64 [s1 + 0x108]\n  4444: t0 = u64 [a0 + 0x18]\n  4447: a2 = a2 << 0x3b\n  4450: a0 = u64 [a0 + 0x10]\n  4453: a1 = a1 >> 0x5\n  4456: a2 = a2 | a1\n  4459: t2 = reverse t0\n  4461: a0 = reverse a0\n  4463: a1 = u64 [s1 + 0xc8]\n  4467: a1 = 0 if a5 != 0\n  4469: a3 = u64 [s1 + 0xd0]\n  4473: a1 = 0 if a3 != 0\n  4475: a4 = 0 if a1 != 0\n  4477: a2 = 0 if a1 != 0\n  4479: t0 = t2 + a2\n  4482: a2 = t0 <u t2\n  4485: a5 = a0 + a2\n  4488: a4 = a4 + a5\n  4491: u64 [s1 + 0x118] = a4\n  4495: a5 = a4 ^ a0\n  4498: a3 = a4 <u a0\n  4501: a3 = a2 if a5 == 0\n  4504: u64 [s1 + 0xe0] = a3\n  4508: a2 = u64 [s1 + 0xf8]\n  4512: ra = a2 + 0x1f\n  4515: a4 = ra <u a2\n  4518: a3 = u64 [s1 + 0xf0]\n  4522: a2 = a3 + a4\n  4525: a5 = a2 <u a3\n  4528: a5 = a4 if a4 == 0\n  4531: t1 = u64 [s1 + 0x110]\n  4535: t1 = t1 + a5\n  4538: a4 = t1 << 0x3b\n  4541: a3 = a2 >> 0x5\n  4544: a3 = a3 | a4\n  4547: a2 = a2 << 0x3b\n  4550: a4 = ra >> 0x5\n  4553: a2 = a2 | a4\n  4556: a2 = a2 + t2\n  4559: u64 [s1 + 0xf8] = a2\n  4563: a4 = a2 <u t2\n  4566: t2 = t0\n  4568: a2 = a0 + a4\n  4571: a2 = a2 + a3\n  4574: a3 = a2 ^ a0\n  4577: u64 [s1 + 0xf0] = a2\n  4581: a2 = a2 <u a0\n  4584: a2 = a4 if a3 == 0\n  4587: a4 = u64 [s1 + 0xe8]\n  4591: a0 = u64 [s1 + 0x98]\n  4595: a0 = a4 <u a0\n  4598: a3 = u64 [s1 + 0x90]\n  4602: a0 = a0 + a3\n  4605: a3 = a4 >> 0x5\n  4608: a4 = a0 << 0x3b\n  4611: a3 = a3 | a4\n  4614: a4 = u64 [s1 + 0x108]\n  4618: t0 = u64 [a4]\n  4620: a4 = u64 [a4 + 0x8]\n  4623: a0 = a0 >> 0x5\n  4626: a3 = 0 if a1 != 0\n  4628: a0 = 0 if a1 != 0\n  4630: a1 = reverse a4\n  4632: a4 = reverse t0\n  4634: t0 = 98, jump @673\n      : @124 [@dyn 49] (gas: 24)\n  4639: t0 = a0 + a3\n  4642: a0 = u64 [s1 + 0x110]\n  4646: a0 = t1 <u a0\n  4649: a3 = u64 [s1 + 0x100]\n  4653: a0 = a0 + a3\n  4656: a3 = t1 >> 0x5\n  4659: a5 = a0 << 0x3b\n  4662: a3 = a3 | a5\n  4665: a0 = a0 >> 0x5\n  4668: a0 = a0 + a4\n  4671: a4 = u64 [s1 + 0x118]\n  4675: a3 = a3 + a1\n  4678: a1 = a3 <u a1\n  4681: a0 = a0 + a1\n  4684: a2 = a2 + a3\n  4687: u64 [s1 + 0xe8] = a2\n  4691: a1 = a2 <u a3\n  4694: a0 = a0 + a1\n  4697: u64 [s1 + 0xe0] = a0\n  4701: a0 = sp + 0xffffffffffffffe0\n  4704: t1 = a0 & 0xffffffffffffffe0\n  4707: sp = t1\n  4709: u64 [s1 + 0xd8] = t1\n  4713: fallthrough\n      : @125 (gas: 20)\n  4714: a0 = u64 [s1 + 0xf8]\n  4718: a0 = t2 <u a0\n  4721: a2 = u64 [s1 + 0xf0]\n  4725: a1 = a4 ^ a2\n  4728: a2 = a4 <u a2\n  4731: a2 = a0 if a1 == 0\n  4734: a5 = u64 [s1 + 0xe8]\n  4738: a0 = ra <u a5\n  4741: a3 = u64 [s1 + 0xe0]\n  4745: a1 = t0 ^ a3\n  4748: a3 = t0 <u a3\n  4751: a3 = a0 if a1 == 0\n  4754: a0 = ra ^ a5\n  4757: a0 = a0 | a1\n  4760: a3 = a2 if a0 == 0\n  4763: u64 [t1] = t2\n  4765: u64 [t1 + 0x8] = a4\n  4768: u64 [t1 + 0x10] = ra\n  4771: u64 [t1 + 0x18] = t0\n  4774: jump @128 if a3 == 0\n      : @126 (gas: 11)\n  4777: u64 [s1 + 1720] = 0\n  4781: u64 [s1 + 1712] = 0\n  4785: u64 [s1 + 1704] = 0\n  4789: u64 [s1 + 1696] = 0\n  4793: a1 = s1 + 0x6a0\n  4797: a0 = t1\n  4799: u64 [s1 + 0x110] = t2\n  4803: u64 [s1 + 0x118] = a4\n  4807: u64 [s1 + 0x108] = t0\n  4811: u64 [s1 + 0x100] = ra\n  4815: ra = 100, jump @22\n      : @127 [@dyn 50] (gas: 15)\n  4820: t1 = u64 [s1 + 0xd8]\n  4824: t0 = u64 [s1 + 0x108]\n  4828: a4 = u64 [s1 + 0x118]\n  4832: t2 = u64 [s1 + 0x110]\n  4836: t2 = t2 + 0x1\n  4839: a0 = t2 <u 0x1\n  4842: a4 = a4 + a0\n  4845: a0 = t2 | a4\n  4848: a0 = a0 <u 0x1\n  4851: a1 = u64 [s1 + 0x100]\n  4855: a0 = a0 + a1\n  4858: a1 = a0 <u a1\n  4861: t0 = t0 + a1\n  4864: ra = a0\n  4866: jump @125\n      : @128 (gas: 9)\n  4869: a0 = u64 [s1 + 0xc8]\n  4873: a0 = a0 ^ 0x1\n  4876: a4 = u64 [s1 + 0xa0]\n  4880: a1 = u64 [s1 + 0xb8]\n  4884: a0 = a1 if a4 != 0\n  4887: a1 = u64 [s1 + 0xc0]\n  4891: a2 = u64 [s1 + 0xd0]\n  4895: a0 = a1 if a2 != 0\n  4898: jump @140 if a0 == 0\n      : @129 (gas: 10)\n  4902: a0 = u64 [s1 + 0xa8]\n  4906: a0 = a0 & 0xffffffffffffffe0\n  4909: u64 [s1 + 0xb0] = a0\n  4913: u64 [s1 + 696] = 0\n  4917: u64 [s1 + 688] = 0\n  4921: u64 [s1 + 680] = 0\n  4925: a1 = s1 + 0x2a0\n  4929: u64 [s1 + 672] = 0x4\n  4934: a0 = 0\n  4936: ra = 102, jump @19\n      : @130 [@dyn 51] (gas: 7)\n  4941: a0 = sp + 0xffffffffffffffe0\n  4944: a0 = a0 & 0xffffffffffffffe0\n  4947: u64 [s1 + 0xf0] = a0\n  4951: sp = a0\n  4953: a1 = 0x20\n  4956: a0 = 0\n  4958: ra = 104, jump @26\n      : @131 [@dyn 52] (gas: 1)\n  4963: t0 = 106, jump @672\n      : @132 [@dyn 53] (gas: 5)\n  4968: ecalli 6 // 'hash_keccak_256'\n  4970: u64 [s1 + 272] = 0x20\n  4975: a5 = 0\n  4977: u64 [s1 + 280] = 0\n  4981: t0 = 108, jump @663\n      : @133 [@dyn 54] (gas: 15)\n  4986: t0 = u64 [a3]\n  4988: t1 = reverse a0\n  4990: a1 = reverse a1\n  4992: a3 = reverse a2\n  4994: a2 = reverse t0\n  4996: t0 = a2\n  4998: a0 = u64 [s1 + 0xf0]\n  5002: u64 [a0 + 0x18] = a2\n  5005: u64 [s1 + 0xc8] = a3\n  5009: u64 [a0 + 0x10] = a3\n  5012: u64 [s1 + 0xe0] = a1\n  5016: u64 [a0 + 0x8] = a1\n  5019: a3 = t1\n  5021: u64 [a0] = t1\n  5023: fallthrough\n      : @134 (gas: 26)\n  5024: t1 = t0\n  5026: t2 = a3\n  5028: a0 = u64 [s1 + 0xb0]\n  5032: u64 [s1 + 0xd8] = a4\n  5036: a0 = a4 <u a0\n  5039: a4 = a0 ^ 0x1\n  5042: u64 [s1 + 0xd0] = ra\n  5046: a4 = 0x1 if ra != 0\n  5049: a0 = u64 [s1 + 0x100]\n  5053: a2 = u64 [s1 + 0xf8]\n  5057: a0 = a0 | a2\n  5060: a4 = 0x1 if a0 != 0\n  5063: a1 = u64 [s1 + 0x88]\n  5067: ra = u64 [s1 + 0x110]\n  5071: a1 = a1 + ra\n  5074: a3 = u64 [s1 + 0x80]\n  5078: t0 = a5\n  5080: a3 = a3 + a5\n  5083: a2 = u64 [s1 + 0x70]\n  5086: a0 = u64 [s1 + 0x118]\n  5090: a2 = a2 + a0\n  5093: a0 = u64 [s1 + 0x78]\n  5096: a5 = u64 [s1 + 0x108]\n  5100: a0 = a0 + a5\n  5103: u64 [s1 + 0xe8] = t0\n  5107: jump @142 if a4 != 0\n      : @135 (gas: 13)\n  5111: a4 = a1 <u ra\n  5114: a3 = a3 + a4\n  5117: a5 = t0\n  5119: t0 = a3 ^ t0\n  5122: a5 = a3 <u a5\n  5125: a5 = a4 if t0 == 0\n  5128: a5 = a5 + a2\n  5131: t0 = a5 <u a2\n  5134: a4 = u64 [s1 + 0x118]\n  5138: a2 = a2 <u a4\n  5141: a0 = a0 + a2\n  5144: a0 = a0 + t0\n  5147: t0 = 110, jump @662\n      : @136 [@dyn 55] (gas: 3)\n  5152: u64 [s1 + 0xc0] = t2\n  5156: u64 [s1 + 0xb8] = t1\n  5160: jump @168 if a0 != 0\n      : @137 (gas: 3)\n  5164: a0 = s1 + 0x240\n  5168: u64 [s1 + 0x110] = ra\n  5172: ra = 112, jump @17\n      : @138 [@dyn 56] (gas: 13)\n  5177: a4 = s1 + 0x200\n  5181: a0 = u64 [a4 + 0x58]\n  5184: a1 = u64 [a4 + 0x50]\n  5187: a2 = u64 [a4 + 0x48]\n  5190: a3 = u64 [a4 + 0x40]\n  5193: a4 = s1 + 0x600\n  5197: u64 [a4 + 0xd8] = a0\n  5201: u64 [a4 + 0xd0] = a1\n  5205: u64 [a4 + 0xc8] = a2\n  5209: u64 [a4 + 0xc0] = a3\n  5213: a1 = s1 + 0x6c0\n  5217: a0 = u64 [s1 + 0xf0]\n  5221: ra = 114, jump @22\n      : @139 [@dyn 57] (gas: 57)\n  5226: ra = u64 [s1 + 0xc0]\n  5230: ra = ra + 0x1\n  5233: a0 = ra <u 0x1\n  5236: t0 = u64 [s1 + 0xe0]\n  5240: t0 = t0 + a0\n  5243: a0 = ra | t0\n  5246: a0 = a0 <u 0x1\n  5249: a1 = u64 [s1 + 0xc8]\n  5253: t1 = a1 + a0\n  5256: a1 = t1 <u a1\n  5259: a0 = u64 [s1 + 0xb8]\n  5263: a0 = a0 + a1\n  5266: a1 = u64 [s1 + 0x110]\n  5270: a2 = a1 + 0x20\n  5273: u64 [s1 + 0xc0] = a2\n  5277: a3 = a2 <u a1\n  5280: a1 = u64 [s1 + 0xe8]\n  5284: a2 = a1 + a3\n  5287: u64 [s1 + 0xb8] = a2\n  5291: a4 = a2 <u a1\n  5294: a4 = a3 if a3 == 0\n  5297: a1 = u64 [s1 + 0x118]\n  5301: t2 = a1 + a4\n  5304: a4 = t2 <u a1\n  5307: a1 = u64 [s1 + 0x108]\n  5311: a1 = a1 + a4\n  5314: u64 [s1 + 0x108] = a1\n  5318: a1 = u64 [s1 + 0xd8]\n  5322: a4 = a1 + 0x20\n  5325: a5 = a4 <u a1\n  5328: a2 = u64 [s1 + 0xd0]\n  5332: a1 = a2 + a5\n  5335: a2 = a1 <u a2\n  5338: a2 = a5 if a5 == 0\n  5341: a3 = u64 [s1 + 0xf8]\n  5345: a2 = a2 + a3\n  5348: a5 = a2 <u a3\n  5351: a3 = u64 [s1 + 0x100]\n  5355: a3 = a3 + a5\n  5358: u64 [s1 + 0x100] = a3\n  5362: a3 = t0\n  5364: u64 [s1 + 0xe0] = a3\n  5368: a5 = u64 [s1 + 0xf0]\n  5372: u64 [a5 + 0x8] = a3\n  5375: a3 = ra\n  5377: u64 [a5] = ra\n  5379: u64 [a5 + 0x10] = t1\n  5382: t0 = a0\n  5384: u64 [a5 + 0x18] = a0\n  5387: u64 [s1 + 0xc8] = t1\n  5391: a0 = u64 [s1 + 0xc0]\n  5395: u64 [s1 + 0x110] = a0\n  5399: a5 = u64 [s1 + 0xb8]\n  5403: u64 [s1 + 0x118] = t2\n  5407: ra = a1\n  5409: u64 [s1 + 0xf8] = a2\n  5413: jump @134\n      : @140 (gas: 8)\n  5416: a3 = u64 [s1 + 0xa8]\n  5420: a5 = u64 [s1 + 0x98]\n  5424: a0 = a3 | a5\n  5427: a2 = u64 [s1 + 0x90]\n  5431: a1 = a4 | a2\n  5434: a0 = a0 | a1\n  5437: t0 = u64 [s1 + 0x88]\n  5441: jump @155 if a0 != 0\n      : @141 (gas: 5)\n  5445: u64 [s1 + 256] = 0\n  5449: u64 [s1 + 248] = 0\n  5453: u64 [s1 + 264] = 0\n  5457: u64 [s1 + 272] = 0\n  5461: jump @158\n      : @142 (gas: 10)\n  5464: t0 = u64 [s1 + 0xa8]\n  5468: a4 = u64 [s1 + 0xb0]\n  5472: a4 = a4 ^ t0\n  5475: t2 = u64 [s1 + 0x98]\n  5479: a4 = a4 | t2\n  5482: t1 = u64 [s1 + 0xa0]\n  5486: ra = u64 [s1 + 0x90]\n  5490: a5 = t1 | ra\n  5493: a4 = a4 | a5\n  5496: jump @154 if a4 == 0\n      : @143 (gas: 14)\n  5500: a4 = u64 [s1 + 0x110]\n  5504: a4 = a1 <u a4\n  5507: a3 = a3 + a4\n  5510: a5 = u64 [s1 + 0xe8]\n  5514: t0 = a3 ^ a5\n  5517: a5 = a3 <u a5\n  5520: a5 = a4 if t0 == 0\n  5523: a5 = a5 + a2\n  5526: t0 = a5 <u a2\n  5529: a4 = u64 [s1 + 0x118]\n  5533: a2 = a2 <u a4\n  5536: a0 = a0 + a2\n  5539: a0 = a0 + t0\n  5542: t0 = 116, jump @662\n      : @144 [@dyn 58] (gas: 1)\n  5547: jump @168 if a0 != 0\n      : @145 (gas: 2)\n  5551: a0 = s1 + 0x280\n  5555: ra = 118, jump @17\n      : @146 [@dyn 59] (gas: 11)\n  5560: a1 = s1 + 0x200\n  5564: a0 = u64 [a1 + 0x98]\n  5568: u64 [s1 + 0x110] = a0\n  5572: a0 = u64 [a1 + 0x90]\n  5576: u64 [s1 + 0x108] = a0\n  5580: a0 = u64 [a1 + 0x88]\n  5584: u64 [s1 + 0x100] = a0\n  5588: a0 = u64 [a1 + 0x80]\n  5592: u64 [s1 + 0xf8] = a0\n  5596: a0 = u64 [s1 + 0xa8]\n  5600: t0 = 120, jump @666\n      : @147 [@dyn 60] (gas: 1)\n  5605: ra = 122, jump @680\n      : @148 [@dyn 61] (gas: 6)\n  5610: u64 [s1 + 0xe8] = a0\n  5614: u64 [s1 + 0xd0] = a1\n  5618: a0 = 0xffffffffffffffff\n  5621: a1 = 0xffffffffffffffff\n  5624: a2 = u64 [s1 + 0x118]\n  5628: ra = 124, jump @675\n      : @149 [@dyn 62] (gas: 1)\n  5633: t0 = 126, jump @667\n      : @150 [@dyn 63] (gas: 1)\n  5638: ra = 128, jump @675\n      : @151 [@dyn 64] (gas: 1)\n  5644: t0 = 130, jump @654\n      : @152 [@dyn 65] (gas: 8)\n  5650: a4 = s1 + 0x600\n  5654: u64 [a4 + 0xf8] = a3\n  5658: u64 [a4 + 0xf0] = a2\n  5662: u64 [a4 + 0xe8] = a1\n  5666: u64 [a4 + 0xe0] = a0\n  5670: a1 = s1 + 0x6e0\n  5674: a0 = u64 [s1 + 0xf0]\n  5678: ra = 132, jump @22\n      : @153 [@dyn 66] (gas: 5)\n  5684: t0 = u64 [s1 + 0xa8]\n  5688: t1 = u64 [s1 + 0xa0]\n  5692: t2 = u64 [s1 + 0x98]\n  5696: ra = u64 [s1 + 0x90]\n  5700: fallthrough\n      : @154 (gas: 24)\n  5701: a0 = t2 >> 0x3f\n  5704: a1 = ra << 0x1\n  5707: a0 = a0 | a1\n  5710: a1 = t1 >> 0x3f\n  5713: a2 = t2 << 0x1\n  5716: a1 = a1 | a2\n  5719: a2 = t0 >> 0x3f\n  5722: a3 = t1 << 0x1\n  5725: a2 = a2 | a3\n  5728: a3 = t0 << 0x1\n  5731: a3 = a3 + 0x1\n  5734: u64 [s1 + 1816] = 0\n  5738: u64 [s1 + 1808] = 0\n  5742: u64 [s1 + 1800] = 0\n  5746: a5 = s1 + 0x700\n  5750: u64 [a5 + 0] = 0x4\n  5753: u64 [a5 + 0x20] = a3\n  5756: u64 [a5 + 0x28] = a2\n  5759: u64 [a5 + 0x30] = a1\n  5762: u64 [a5 + 0x38] = a0\n  5765: a0 = s1 + 0x700\n  5769: a1 = s1 + 0x720\n  5773: ra = 0x94\n  5777: jump @22\n      : @155 (gas: 9)\n  5780: a0 = u64 [s1 + 0x78]\n  5783: a1 = u64 [s1 + 0x70]\n  5786: a0 = a0 | a1\n  5789: a1 = 0xffffffe0\n  5799: a1 = t0 <u a1\n  5802: a3 = u64 [s1 + 0x80]\n  5806: a1 = 0 if a3 != 0\n  5808: a1 = 0 if a0 != 0\n  5810: jump @168 if a1 == 0\n      : @156 (gas: 3)\n  5814: i32 a1 = t0 + 0x20\n  5817: a0 = s1 + 0x2c0\n  5821: ra = 134, jump @17\n      : @157 [@dyn 67] (gas: 14)\n  5827: a2 = u64 [s1 + 0x90]\n  5831: a5 = u64 [s1 + 0x98]\n  5835: a4 = u64 [s1 + 0xa0]\n  5839: a3 = u64 [s1 + 0xa8]\n  5843: a1 = s1 + 0x200\n  5847: a0 = u64 [a1 + 0xd8]\n  5851: u64 [s1 + 0x110] = a0\n  5855: a0 = u64 [a1 + 0xd0]\n  5859: u64 [s1 + 0x108] = a0\n  5863: a0 = u64 [a1 + 0xc8]\n  5867: u64 [s1 + 0xf8] = a0\n  5871: a0 = u64 [a1 + 0xc0]\n  5875: u64 [s1 + 0x100] = a0\n  5879: fallthrough\n      : @158 (gas: 15)\n  5880: a0 = a4 >> 0x3f\n  5883: a1 = a5 << 0x1\n  5886: a0 = a0 | a1\n  5889: u64 [s1 + 0xf0] = a0\n  5893: a0 = a5 >> 0x3f\n  5896: a1 = a2 << 0x1\n  5899: a0 = a0 | a1\n  5902: u64 [s1 + 0xe8] = a0\n  5906: a0 = a3 >> 0x3f\n  5909: a1 = a4 << 0x1\n  5912: a0 = a0 | a1\n  5915: u64 [s1 + 0xe0] = a0\n  5919: a0 = a3 << 0x1\n  5922: u64 [s1 + 0xd8] = a0\n  5926: t0 = 136, jump @674\n      : @159 [@dyn 68] (gas: 1)\n  5932: ra = 138, jump @680\n      : @160 [@dyn 69] (gas: 7)\n  5938: u64 [s1 + 0xb8] = a0\n  5942: u64 [s1 + 0xd0] = a1\n  5946: a0 = u64 [s1 + 0xa8]\n  5950: i32 a2 = a0 << 0x3\n  5953: a0 = 0xffffffffffffffff\n  5956: a1 = 0xffffffffffffffff\n  5959: ra = 140, jump @675\n      : @161 [@dyn 70] (gas: 10)\n  5965: u64 [s1 + 0xc8] = a0\n  5969: u64 [s1 + 0xc0] = a1\n  5973: a1 = u64 [s1 + 0xb8]\n  5977: a0 = a0 | a1\n  5980: u64 [s1 + 0xb8] = a0\n  5984: a0 = u64 [s1 + 0x118]\n  5988: i32 a2 = a0 + 0xffffffffffffff80\n  5991: a0 = 0xffffffffffffffff\n  5994: a1 = 0xffffffffffffffff\n  5997: ra = 142, jump @675\n      : @162 [@dyn 71] (gas: 7)\n  6003: a4 = u64 [s1 + 0x118]\n  6007: a2 = a4 <u 0x80\n  6011: a3 = u64 [s1 + 0xb8]\n  6015: a0 = a3 if a2 != 0\n  6018: a5 = u64 [s1 + 0xc0]\n  6022: a3 = u64 [s1 + 0xd0]\n  6026: t0 = 144, jump @669\n      : @163 [@dyn 72] (gas: 2)\n  6032: a4 = u64 [s1 + 0xc8]\n  6036: t0 = 146, jump @657\n      : @164 [@dyn 73] (gas: 20)\n  6042: a4 = u64 [s1 + 0xd8]\n  6046: a0 = a0 | a4\n  6049: a4 = u64 [s1 + 0xe0]\n  6053: a1 = a1 | a4\n  6056: a4 = u64 [s1 + 0xe8]\n  6060: a3 = a3 | a4\n  6063: a4 = u64 [s1 + 0xf0]\n  6067: a2 = a2 | a4\n  6070: a5 = s1 + 0x700\n  6074: u64 [a5 + 64] = 0x4\n  6078: u64 [a5 + 0x70] = a2\n  6081: u64 [a5 + 0x78] = a3\n  6084: u64 [a5 + 0x68] = a1\n  6087: u64 [a5 + 0x60] = a0\n  6090: u64 [s1 + 1880] = 0\n  6094: u64 [s1 + 1872] = 0\n  6098: u64 [s1 + 1864] = 0\n  6102: a0 = s1 + 0x740\n  6106: a1 = s1 + 0x760\n  6110: ra = 148, jump @22\n      : @165 [@dyn 74] (gas: 3)\n  6116: a0 = s1 + 0x260\n  6120: a1 = 0x40\n  6123: ra = 150, jump @17\n      : @166 [@dyn 75] (gas: 6)\n  6129: a4 = s1 + 0x200\n  6133: a3 = u64 [a4 + 0x78]\n  6136: a1 = u64 [a4 + 0x70]\n  6139: a2 = u64 [a4 + 0x68]\n  6142: a0 = u64 [a4 + 0x60]\n  6145: t0 = 152, jump @658\n      : @167 [@dyn 76] (gas: 1)\n  6151: jump @198 if a1 == 0\n      : @168 (gas: 1)\n  6155: trap\n      : @169 (gas: 6)\n  6156: a1 = 0x200c0\n  6161: i32 a1 = a1 + 0\n  6163: a0 = 0x1\n  6166: a2 = 0\n  6168: ecalli 7 // 'seal_return'\n  6170: jump @173\n      : @170 (gas: 6)\n  6172: a1 = 0x200c0\n  6177: i32 a1 = a1 + 0\n  6179: a0 = 0x1\n  6182: a2 = 0\n  6184: ecalli 7 // 'seal_return'\n  6186: jump @173\n      : @171 (gas: 6)\n  6188: a1 = 0x200c0\n  6193: i32 a1 = a1 + 0\n  6195: a0 = 0x1\n  6198: a2 = 0\n  6200: ecalli 7 // 'seal_return'\n  6202: jump @173\n      : @172 (gas: 6)\n  6204: a1 = 0x200c0\n  6209: i32 a1 = a1 + 0\n  6211: a0 = 0x1\n  6214: a2 = 0\n  6216: ecalli 7 // 'seal_return'\n  6218: fallthrough\n      : @173 (gas: 6)\n  6219: u64 [s1 + 336] = 0\n  6223: u64 [s1 + 328] = 0\n  6227: u64 [s1 + 320] = 0\n  6231: t0 = 0x9a\n  6235: a0 = 0x4e487b7100000000\n  6245: fallthrough\n      : @174 [@dyn 77] (gas: 4)\n  6246: a1 = s1 + 0x140\n  6250: u64 [s1 + 0x158] = a0\n  6254: a0 = 0\n  6256: ra = 156, jump @19\n      : @175 [@dyn 78] (gas: 7)\n  6262: u64 [s1 + 312] = 0\n  6266: u64 [s1 + 304] = 0\n  6270: u64 [s1 + 288] = 0x41\n  6275: a0 = 0x4\n  6278: a1 = s1 + 0x120\n  6282: u64 [s1 + 296] = 0\n  6286: ra = 158, jump @19\n      : @176 [@dyn 79] (gas: 2)\n  6292: a1 = i32 [0x200ac]\n  6297: jump @178 if a1 >u 63\n      : @177 (gas: 3)\n  6301: u32 [0x200ac] = 0x40\n  6307: a1 = 0x200c0\n  6312: jump @197\n      : @178 (gas: 2)\n  6315: a1 = 0x200c0\n  6320: jump @197\n      : @179 (gas: 6)\n  6323: u64 [s1 + 400] = 0\n  6327: u64 [s1 + 392] = 0\n  6331: u64 [s1 + 384] = 0\n  6335: t0 = 0xa0\n  6339: a0 = 0x4e487b7100000000\n  6349: fallthrough\n      : @180 [@dyn 80] (gas: 4)\n  6350: a1 = s1 + 0x180\n  6354: u64 [s1 + 0x198] = a0\n  6358: a0 = 0\n  6360: ra = 162, jump @19\n      : @181 [@dyn 81] (gas: 7)\n  6366: u64 [s1 + 376] = 0\n  6370: u64 [s1 + 368] = 0\n  6374: u64 [s1 + 352] = 0x22\n  6379: a0 = 0x4\n  6382: a1 = s1 + 0x160\n  6386: u64 [s1 + 360] = 0\n  6390: ra = 164, jump @19\n      : @182 [@dyn 82] (gas: 2)\n  6396: a1 = i32 [0x200ac]\n  6401: jump @184 if a1 >u 63\n      : @183 (gas: 3)\n  6405: u32 [0x200ac] = 0x40\n  6411: a1 = 0x200c0\n  6416: jump @197\n      : @184 (gas: 2)\n  6419: a1 = 0x200c0\n  6424: jump @197\n      : @185 (gas: 6)\n  6427: u64 [s1 + 496] = 0\n  6431: u64 [s1 + 488] = 0\n  6435: u64 [s1 + 480] = 0\n  6439: t0 = 0xa6\n  6443: a0 = 0x4e487b7100000000\n  6453: fallthrough\n      : @186 [@dyn 83] (gas: 4)\n  6454: a1 = s1 + 0x1e0\n  6458: u64 [s1 + 0x1f8] = a0\n  6462: a0 = 0\n  6464: ra = 168, jump @19\n      : @187 [@dyn 84] (gas: 7)\n  6470: u64 [s1 + 472] = 0\n  6474: u64 [s1 + 464] = 0\n  6478: u64 [s1 + 448] = 0x41\n  6483: a0 = 0x4\n  6486: a1 = s1 + 0x1c0\n  6490: u64 [s1 + 456] = 0\n  6494: ra = 170, jump @19\n      : @188 [@dyn 85] (gas: 2)\n  6500: a1 = i32 [0x200ac]\n  6505: jump @190 if a1 >u 63\n      : @189 (gas: 3)\n  6509: u32 [0x200ac] = 0x40\n  6515: a1 = 0x200c0\n  6520: jump @197\n      : @190 (gas: 2)\n  6522: a1 = 0x200c0\n  6527: jump @197\n      : @191 (gas: 6)\n  6529: u64 [s1 + 560] = 0\n  6533: u64 [s1 + 552] = 0\n  6537: u64 [s1 + 544] = 0\n  6541: t0 = 0xac\n  6545: a0 = 0x4e487b7100000000\n  6555: fallthrough\n      : @192 [@dyn 86] (gas: 4)\n  6556: a1 = s1 + 0x220\n  6560: u64 [s1 + 0x238] = a0\n  6564: a0 = 0\n  6566: ra = 174, jump @19\n      : @193 [@dyn 87] (gas: 7)\n  6572: u64 [s1 + 536] = 0\n  6576: u64 [s1 + 528] = 0\n  6580: u64 [s1 + 512] = 0x22\n  6585: a0 = 0x4\n  6588: a1 = s1 + 0x200\n  6592: u64 [s1 + 520] = 0\n  6596: ra = 176, jump @19\n      : @194 [@dyn 88] (gas: 2)\n  6602: a1 = i32 [0x200ac]\n  6607: jump @196 if a1 >u 63\n      : @195 (gas: 3)\n  6611: u32 [0x200ac] = 0x40\n  6617: a1 = 0x200c0\n  6622: jump @197\n      : @196 (gas: 2)\n  6624: a1 = 0x200c0\n  6629: fallthrough\n      : @197 (gas: 7)\n  6630: i32 a1 = a1 + 0\n  6632: a0 = 0x1\n  6635: a2 = 0x24\n  6638: ecalli 7 // 'seal_return'\n  6640: u64 [s1 + 0x118] = a0\n  6644: ra = 0xb2\n  6648: jump @26\n      : @198 (gas: 2)\n  6651: u64 [s1 + 0x118] = a0\n  6655: ra = 178, jump @26\n      : @199 [@dyn 89] (gas: 5)\n  6661: i32 a0 = a0 + 0\n  6663: a1 = 0\n  6665: a2 = 0\n  6667: ecalli 0 // 'call_data_copy'\n  6668: jump @15\n      : @200 (gas: 3)\n  6671: a0 = u64 [s1 + 0x118]\n  6675: a1 = 0\n  6677: ra = 180, jump @26\n      : @201 [@dyn 90] (gas: 5)\n  6683: i32 a1 = a0 + 0\n  6685: a0 = 0\n  6687: a2 = 0\n  6689: ecalli 7 // 'seal_return'\n  6691: jump @173\n      : @202 [@dyn 91] (gas: 4)\n  6694: a0 = 0x200a8\n  6699: u64 [s1 + 0xf8] = a0\n  6703: a0 = i32 [0x200a8]\n  6708: jump @204 if a0 >=u 4\n      : @203 (gas: 1)\n  6712: jump @456\n      : @204 (gas: 6)\n  6715: a0 = s1 + 0x1000\n  6719: i32 a0 = a0 + 0xfffffffffffffe60\n  6723: a1 = 0\n  6725: ra = 0xb8\n  6729: ecalli 1 // 'call_data_load'\n  6731: fallthrough\n      : @205 [@dyn 92] (gas: 4)\n  6732: a2 = s1 + 0x7ff\n  6736: a2 = a2 + 0x79\n  6739: a0 = i32 [a2 + 0x604]\n  6743: jump @326 if a0 == 2514000705\n      : @206 (gas: 1)\n  6751: jump @208 if a0 != 2835717307\n      : @207 (gas: 1)\n  6758: jump @412\n      : @208 (gas: 1)\n  6761: jump @210 if a0 != 3714247998\n      : @209 (gas: 1)\n  6768: jump @391\n      : @210 (gas: 1)\n  6771: jump @227 if a0 == 117300739\n      : @211 (gas: 1)\n  6779: jump @289 if a0 == 157198259\n      : @212 (gas: 1)\n  6787: jump @214 if a0 != 404098525\n      : @213 (gas: 1)\n  6794: jump @383\n      : @214 (gas: 1)\n  6797: jump @353 if a0 == 537198553\n      : @215 (gas: 1)\n  6805: jump @240 if a0 == 599290589\n      : @216 (gas: 1)\n  6813: jump @218 if a0 == 826074471\n      : @217 (gas: 1)\n  6820: jump @420\n      : @218 (gas: 8)\n  6823: u64 [a2 + 1984] = 0\n  6827: u64 [a2 + 1976] = 0\n  6831: u64 [a2 + 1968] = 0\n  6835: u64 [a2 + 1960] = 0\n  6839: a0 = s1 + 0x1000\n  6843: i32 a0 = a0 + 0x20\n  6846: ecalli 10 // 'value_transferred'\n  6848: fallthrough\n      : @219 (gas: 11)\n  6849: a3 = s1 + 0x7ff\n  6853: a3 = a3 + 0x79\n  6856: a4 = a3 + 0x700\n  6860: a0 = u64 [a4 + 0xb8]\n  6864: a1 = u64 [a4 + 0xc0]\n  6868: a2 = u64 [a4 + 0xb0]\n  6872: a3 = u64 [a4 + 0xa8]\n  6876: a1 = a1 | a2\n  6879: a0 = a0 | a3\n  6882: a0 = a0 | a1\n  6885: jump @221 if a0 == 0\n      : @220 (gas: 1)\n  6888: jump @458\n      : @221 (gas: 3)\n  6891: a0 = u64 [s1 + 0xf8]\n  6895: a0 = i32 [a0]\n  6897: jump @223 if a0 >u 3\n      : @222 (gas: 1)\n  6901: jump @459\n      : @223 (gas: 4)\n  6904: a0 = s1 + 0x7ff\n  6908: a0 = a0 + 0x1a1\n  6912: a1 = 0x40\n  6915: ra = 186, jump @17\n      : @224 [@dyn 93] (gas: 15)\n  6921: a3 = s1 + 0x7ff\n  6925: a3 = a3 + 0x79\n  6928: a5 = a3 + 0x100\n  6932: a4 = u64 [a5 + 0x40]\n  6935: a1 = u64 [a5 + 0x38]\n  6938: a2 = u64 [a5 + 0x30]\n  6941: a0 = u64 [a5 + 0x28]\n  6944: a4 = a4 | a2\n  6947: a2 = a0 | a1\n  6950: a2 = a2 | a4\n  6953: a2 = a2 >> 0x20\n  6956: a1 = a1 | a4\n  6959: a1 = a1 << 0x20\n  6962: a1 = a1 | a2\n  6965: jump @226 if a1 == 0\n      : @225 (gas: 1)\n  6968: jump @447\n      : @226 (gas: 9)\n  6971: u64 [a3 + 288] = 0\n  6975: u64 [a3 + 280] = 0\n  6979: u64 [a3 + 264] = 0x12\n  6984: a1 = s1 + 0x7ff\n  6988: a1 = a1 + 0x181\n  6992: u64 [a3 + 272] = 0\n  6996: u64 [s1 + 0xf8] = a0\n  7000: ra = 0x172\n  7004: jump @19\n      : @227 (gas: 8)\n  7007: u64 [a2 + 1568] = 0\n  7011: u64 [a2 + 1560] = 0\n  7015: u64 [a2 + 1552] = 0\n  7019: u64 [a2 + 1544] = 0\n  7023: a0 = s1 + 0x1000\n  7027: i32 a0 = a0 + 0xfffffffffffffe80\n  7031: ecalli 10 // 'value_transferred'\n  7033: fallthrough\n      : @228 (gas: 11)\n  7034: a4 = s1 + 0x7ff\n  7038: a4 = a4 + 0x79\n  7041: a5 = a4 + 0x600\n  7045: a0 = u64 [a5 + 0x18]\n  7048: a1 = u64 [a5 + 0x20]\n  7051: a2 = u64 [a5 + 0x10]\n  7054: a3 = u64 [a5 + 0x8]\n  7057: a1 = a1 | a2\n  7060: a0 = a0 | a3\n  7063: a0 = a0 | a1\n  7066: jump @230 if a0 == 0\n      : @229 (gas: 1)\n  7069: jump @460\n      : @230 (gas: 3)\n  7072: a0 = u64 [s1 + 0xf8]\n  7076: a1 = i32 [a0]\n  7078: jump @232 if a1 >u 3\n      : @231 (gas: 1)\n  7082: jump @461\n      : @232 (gas: 8)\n  7085: u64 [a4 + 1600] = 0\n  7089: u64 [a4 + 1592] = 0\n  7093: u64 [a4 + 1584] = 0\n  7097: u64 [a4 + 1576] = 0x3\n  7102: a0 = s1 + 0x260\n  7106: a1 = s1 + 0x7ff\n  7110: a1 = a1 + 0x6a1\n  7114: ra = 188, jump @21\n      : @233 [@dyn 94] (gas: 34)\n  7120: a1 = s1 + 0x200\n  7124: a2 = u64 [a1 + 0x70]\n  7127: a3 = u64 [a1 + 0x68]\n  7130: a5 = u64 [a1 + 0x78]\n  7133: a0 = u64 [a1 + 0x60]\n  7136: a4 = a2 << 0x3f\n  7139: a1 = a3 >> 0x1\n  7142: t0 = a1 | a4\n  7145: a1 = a5 << 0x3f\n  7148: u64 [s1 + 0xf0] = a2\n  7152: a2 = a2 >> 0x1\n  7155: a1 = a1 | a2\n  7158: u64 [s1 + 0xe0] = a3\n  7162: a2 = a3 << 0x3f\n  7165: a3 = a0 >> 0x1\n  7168: a4 = a3 | a2\n  7171: u64 [s1 + 0xe8] = a5\n  7175: t1 = a5 >> 0x1\n  7178: u64 [s1 + 0xd0] = a0\n  7182: a5 = a0 & 0x1\n  7185: a3 = -a5\n  7187: t2 = a3 & a1\n  7190: a2 = a3 & t0\n  7193: a3 = a3 & t1\n  7196: a0 = a4 & 0x7f\n  7199: u64 [s1 + 0xd8] = a0\n  7203: a4 = a0 if a5 == 0\n  7206: a0 = a4 <u 0x20\n  7209: a0 = 0 if a2 != 0\n  7211: a1 = t2 | a3\n  7214: a0 = 0 if a1 != 0\n  7216: u64 [s1 + 0xf8] = a5\n  7220: a1 = a5 <u 0x1\n  7223: jump @235 if a1 == a0\n      : @234 (gas: 1)\n  7226: jump @462\n      : @235 (gas: 12)\n  7229: u64 [s1 + 0xb8] = a4\n  7233: a5 = s1 + 0x200\n  7237: u64 [a5 + 0x40] = a4\n  7240: u64 [s1 + 0xa8] = a2\n  7244: u64 [a5 + 0x48] = a2\n  7247: u64 [s1 + 0xb0] = t2\n  7251: u64 [s1 + 0x250] = t2\n  7255: a0 = 0x80\n  7259: a1 = s1 + 0x240\n  7263: u64 [s1 + 0xa0] = a3\n  7267: u64 [a5 + 0x58] = a3\n  7270: ra = 190, jump @19\n      : @236 [@dyn 95] (gas: 2)\n  7276: a0 = u64 [s1 + 0xf8]\n  7280: jump @238 if a0 == 0\n      : @237 (gas: 1)\n  7283: jump @435\n      : @238 (gas: 13)\n  7286: a0 = u64 [s1 + 0xd0]\n  7290: a0 = a0 & 0xffffffffffffff00\n  7294: a1 = u64 [s1 + 0xe0]\n  7298: a2 = s1 + 0x100\n  7302: u64 [a2 + 0xc8] = a1\n  7306: u64 [a2 + 0xc0] = a0\n  7310: a0 = u64 [s1 + 0xf0]\n  7314: u64 [a2 + 0xd0] = a0\n  7318: a0 = u64 [s1 + 0xe8]\n  7322: u64 [a2 + 0xd8] = a0\n  7326: a0 = 0xa0\n  7330: a1 = s1 + 0x1c0\n  7334: ra = 192, jump @19\n      : @239 [@dyn 96] (gas: 7)\n  7340: a1 = 0\n  7342: a0 = 0\n  7344: t0 = 0\n  7346: a3 = 0xc0\n  7350: a2 = u64 [s1 + 0xd8]\n  7354: a3 = 0xa0 if a2 == 0\n  7358: jump @443\n      : @240 (gas: 8)\n  7361: u64 [a2 + 1888] = 0\n  7365: u64 [a2 + 1880] = 0\n  7369: u64 [a2 + 1872] = 0\n  7373: u64 [a2 + 1864] = 0\n  7377: a0 = s1 + 0x1000\n  7381: i32 a0 = a0 + 0xffffffffffffffc0\n  7384: ecalli 10 // 'value_transferred'\n  7386: fallthrough\n      : @241 (gas: 11)\n  7387: a3 = s1 + 0x7ff\n  7391: a3 = a3 + 0x79\n  7394: a4 = a3 + 0x700\n  7398: a0 = u64 [a4 + 0x58]\n  7401: a1 = u64 [a4 + 0x60]\n  7404: a2 = u64 [a4 + 0x50]\n  7407: a3 = u64 [a4 + 0x48]\n  7410: a1 = a1 | a2\n  7413: a0 = a0 | a3\n  7416: a0 = a0 | a1\n  7419: jump @243 if a0 == 0\n      : @242 (gas: 1)\n  7422: jump @468\n      : @243 (gas: 4)\n  7425: a0 = u64 [s1 + 0xf8]\n  7429: a0 = i32 [a0]\n  7431: a1 = 0x63\n  7434: jump @245 if a1 <u a0\n      : @244 (gas: 1)\n  7437: jump @469\n      : @245 (gas: 5)\n  7440: a0 = s1 + 0x7ff\n  7444: a0 = a0 + 0x161\n  7448: ra = 0xc2\n  7452: t0 = 0x1ea\n  7456: jump @670\n      : @246 [@dyn 97] (gas: 15)\n  7459: a1 = s1 + 0x7ff\n  7463: a1 = a1 + 0x79\n  7466: a0 = u64 [a1 + 0x100]\n  7470: u64 [s1 + 0xa8] = a0\n  7474: a0 = u64 [a1 + 0xf8]\n  7478: u64 [s1 + 0xb8] = a0\n  7482: a0 = u64 [a1 + 0xf0]\n  7486: u64 [s1 + 0xf8] = a0\n  7490: a0 = u64 [a1 + 0xe8]\n  7494: u64 [s1 + 0xf0] = a0\n  7498: a0 = s1 + 0x7ff\n  7502: a0 = a0 + 0x141\n  7506: ra = 0xc4\n  7510: t0 = 0x1f4\n  7514: jump @670\n      : @247 [@dyn 98] (gas: 40)\n  7517: a1 = s1 + 0x7ff\n  7521: a1 = a1 + 0x79\n  7524: a0 = u64 [a1 + 0xe0]\n  7528: u64 [s1 + 0xa0] = a0\n  7532: a0 = u64 [a1 + 0xd8]\n  7536: u64 [s1 + 0x98] = a0\n  7540: a0 = u64 [a1 + 0xd0]\n  7544: u64 [s1 + 0x90] = a0\n  7548: a0 = u64 [a1 + 0xc8]\n  7552: u64 [s1 + 0x88] = a0\n  7556: a0 = s1 + 0x1000\n  7560: i32 a0 = a0 + 0xffffffffffffffe0\n  7563: a1 = 0x44\n  7566: ecalli 1 // 'call_data_load'\n  7568: a1 = s1 + 0x7ff\n  7572: a1 = a1 + 0x79\n  7575: a2 = a1 + 0x700\n  7579: a0 = u64 [a2 + 0x80]\n  7583: u64 [s1 + 0xe8] = a0\n  7587: a0 = u64 [a2 + 0x78]\n  7590: u64 [s1 + 0xd8] = a0\n  7594: a0 = u64 [a2 + 0x70]\n  7597: u64 [s1 + 0xc8] = a0\n  7601: a0 = u64 [a2 + 0x68]\n  7604: u64 [s1 + 0xd0] = a0\n  7608: a0 = u64 [s1 + 0xb8]\n  7612: a0 = a0 << 0x20\n  7615: a0 = a0 >> 0x20\n  7618: u64 [a1 + 192] = 0\n  7622: u64 [s1 + 0x78] = a0\n  7625: u64 [a1 + 0xb8] = a0\n  7629: a0 = u64 [s1 + 0xf8]\n  7633: u64 [a1 + 0xb0] = a0\n  7637: a2 = a1\n  7639: a1 = s1 + 0x7ff\n  7643: a1 = a1 + 0x121\n  7647: a0 = u64 [s1 + 0xf0]\n  7651: u64 [a2 + 0xa8] = a0\n  7655: a0 = 0\n  7657: ra = 198, jump @19\n      : @248 [@dyn 99] (gas: 11)\n  7663: a1 = s1 + 0x7ff\n  7667: a1 = a1 + 0x79\n  7670: u64 [a1 + 160] = 0\n  7674: u64 [a1 + 152] = 0\n  7678: u64 [a1 + 136] = 0x1\n  7683: a2 = a1\n  7685: a0 = 0x20\n  7688: a1 = s1 + 0x7ff\n  7692: a1 = a1 + 0x101\n  7696: u64 [a2 + 144] = 0\n  7700: ra = 200, jump @19\n      : @249 [@dyn 100] (gas: 3)\n  7706: a1 = 0x200ac\n  7711: a0 = i32 [0x200ac]\n  7716: jump @251 if a0 >u 63\n      : @250 (gas: 2)\n  7720: u32 [0x200ac] = 0x40\n  7726: fallthrough\n      : @251 (gas: 15)\n  7727: a0 = sp + 0xffffffffffffffe0\n  7730: a2 = a0 & 0xffffffffffffffe0\n  7733: u64 [s1 + 0xb0] = a2\n  7737: sp = a2\n  7739: a0 = 0x200c0\n  7744: i32 a0 = a0 + 0\n  7746: i32 a2 = a2 + 0\n  7748: u64 [s1 + 0xc0] = a1\n  7752: a1 = 0x40\n  7755: u64 [s1 + 0xe0] = a0\n  7759: ra = 0xca\n  7763: ecalli 6 // 'hash_keccak_256'\n  7765: a3 = u64 [s1 + 0xb0]\n  7769: t0 = 0xcc\n  7773: jump @671\n      : @252 [@dyn 101] (gas: 2)\n  7776: a3 = u64 [s1 + 0xb0]\n  7780: t0 = 204, jump @671\n      : @253 [@dyn 102] (gas: 20)\n  7786: u64 [s1 + 0x68] = a0\n  7789: a0 = reverse a1\n  7791: u64 [s1 + 0x60] = a0\n  7794: a0 = reverse a2\n  7796: u64 [s1 + 0x58] = a0\n  7799: a0 = reverse a3\n  7801: u64 [s1 + 0x50] = a0\n  7804: a0 = sp + 0xffffffffffffffe0\n  7807: a0 = a0 & 0xffffffffffffffe0\n  7810: u64 [s1 + 0x70] = a0\n  7813: sp = a0\n  7815: a0 = 0x300c0\n  7820: u64 [s1 + 0xb0] = a0\n  7824: i32 a0 = a0 + 0\n  7826: u64 [s1 + 0x80] = a0\n  7830: ra = 0xce\n  7834: ecalli 3 // 'caller'\n  7836: a2 = u64 [s1 + 0xb0]\n  7840: t0 = 0xd0\n  7844: jump @653\n      : @254 [@dyn 103] (gas: 2)\n  7847: a2 = u64 [s1 + 0xb0]\n  7851: t0 = 208, jump @653\n      : @255 [@dyn 104] (gas: 10)\n  7857: a2 = s1 + 0x7ff\n  7861: a2 = a2 + 0x79\n  7864: u64 [a2 + 128] = 0\n  7868: u64 [a2 + 0x78] = a1\n  7871: u64 [a2 + 0x70] = a0\n  7874: a1 = s1 + 0x7ff\n  7878: a1 = a1 + 0xe1\n  7882: u64 [a2 + 0x68] = a3\n  7885: a0 = 0\n  7887: ra = 210, jump @19\n      : @256 [@dyn 105] (gas: 15)\n  7893: a0 = u64 [s1 + 0x50]\n  7896: a1 = s1 + 0x7ff\n  7900: a1 = a1 + 0x79\n  7903: u64 [a1 + 0x60] = a0\n  7906: a0 = u64 [s1 + 0x58]\n  7909: u64 [a1 + 0x58] = a0\n  7912: a0 = u64 [s1 + 0x60]\n  7915: u64 [a1 + 0x50] = a0\n  7918: a3 = a1\n  7920: a0 = 0x20\n  7923: a1 = s1 + 0x7ff\n  7927: a1 = a1 + 0xc1\n  7931: a2 = u64 [s1 + 0x68]\n  7934: u64 [a3 + 0x48] = a2\n  7937: ra = 212, jump @19\n      : @257 [@dyn 106] (gas: 3)\n  7943: a1 = u64 [s1 + 0xc0]\n  7947: a0 = i32 [a1]\n  7949: jump @259 if a0 >u 63\n      : @258 (gas: 2)\n  7953: u32 [a1 + 0] = 0x40\n  7956: fallthrough\n      : @259 (gas: 12)\n  7957: a0 = sp + 0xffffffffffffffe0\n  7960: a0 = a0 & 0xffffffffffffffe0\n  7963: u64 [s1 + 0x68] = a0\n  7966: sp = a0\n  7968: i32 a2 = a0 + 0\n  7970: a1 = 0x40\n  7973: a0 = u64 [s1 + 0xe0]\n  7977: ra = 0xd6\n  7981: ecalli 6 // 'hash_keccak_256'\n  7983: a3 = u64 [s1 + 0x68]\n  7986: t0 = 0xd8\n  7990: jump @655\n      : @260 [@dyn 107] (gas: 2)\n  7993: a3 = u64 [s1 + 0x68]\n  7996: t0 = 216, jump @655\n      : @261 [@dyn 108] (gas: 8)\n  8002: a1 = u64 [s1 + 0x70]\n  8005: u64 [a1 + 0x18] = a3\n  8008: u64 [a1 + 0x10] = a2\n  8011: u64 [a1 + 0x8] = a4\n  8014: u64 [a1] = a0\n  8016: a0 = s1 + 0x7ff\n  8020: a0 = a0 + 0xa1\n  8024: ra = 218, jump @21\n      : @262 [@dyn 109] (gas: 10)\n  8030: a0 = s1 + 0x7ff\n  8034: a0 = a0 + 0x79\n  8037: t2 = u64 [a0 + 0x40]\n  8040: a3 = u64 [a0 + 0x38]\n  8043: a4 = u64 [a0 + 0x30]\n  8046: t0 = u64 [a0 + 0x28]\n  8049: a0 = a4 & t2\n  8052: a1 = t0 & a3\n  8055: a0 = a0 & a1\n  8058: jump @283 if a0 == 4294967295\n      : @263 (gas: 20)\n  8063: a0 = u64 [s1 + 0xd0]\n  8067: t1 = t0 <u a0\n  8070: a1 = u64 [s1 + 0xc8]\n  8074: a0 = a4 ^ a1\n  8077: a5 = a4 <u a1\n  8080: a5 = t1 if a0 == 0\n  8083: a2 = u64 [s1 + 0xd8]\n  8087: ra = a3 <u a2\n  8090: a1 = u64 [s1 + 0xe8]\n  8094: a0 = t2 ^ a1\n  8097: a1 = t2 <u a1\n  8100: a1 = ra if a0 == 0\n  8103: a2 = a2 ^ a3\n  8106: a0 = a0 | a2\n  8109: a1 = a5 if a0 == 0\n  8112: u64 [s1 + 0x70] = t0\n  8115: u64 [s1 + 0x68] = a4\n  8118: u64 [s1 + 0x60] = t2\n  8121: u64 [s1 + 0x58] = a3\n  8124: jump @265 if a1 == 0\n      : @264 (gas: 1)\n  8127: jump @510\n      : @265 (gas: 9)\n  8130: u64 [s1 + 0x40] = ra\n  8133: u64 [s1 + 0x48] = a5\n  8136: u64 [s1 + 0x50] = t1\n  8139: a0 = u64 [s1 + 0xf0]\n  8143: a1 = u64 [s1 + 0x78]\n  8146: a0 = a0 | a1\n  8149: a1 = u64 [s1 + 0xf8]\n  8153: a0 = a0 | a1\n  8156: jump @267 if a0 != 0\n      : @266 (gas: 1)\n  8159: jump @519\n      : @267 (gas: 3)\n  8162: a0 = u64 [s1 + 0x80]\n  8166: ecalli 3 // 'caller'\n  8168: fallthrough\n      : @268 (gas: 7)\n  8169: a2 = u64 [s1 + 0xb0]\n  8173: a0 = u32 [a2 + 0x10]\n  8176: a1 = u64 [a2]\n  8178: a2 = u64 [a2 + 0x8]\n  8181: a0 = a0 | a1\n  8184: a0 = a0 | a2\n  8187: jump @270 if a0 != 0\n      : @269 (gas: 1)\n  8190: jump @521\n      : @270 (gas: 13)\n  8193: a2 = s1 + 0x7ff\n  8197: a2 = a2 + 0x79\n  8200: u64 [a2 + 32] = 0\n  8203: a0 = u64 [s1 + 0xf0]\n  8207: u64 [a2 + 0x8] = a0\n  8210: a0 = u64 [s1 + 0xf8]\n  8214: u64 [a2 + 0x10] = a0\n  8217: a1 = s1 + 0x7ff\n  8221: a1 = a1 + 0x81\n  8225: a0 = u64 [s1 + 0x78]\n  8228: u64 [a2 + 0x18] = a0\n  8231: a0 = 0\n  8233: ra = 220, jump @19\n      : @271 [@dyn 110] (gas: 12)\n  8239: a0 = s1 + 0x7ff\n  8243: a0 = a0 + 0x79\n  8246: u64 [a0 + 0] = 0\n  8248: u64 [a0 + 4294967288] = 0\n  8251: a1 = s1 + 0x1000\n  8255: u64 [a1 + 4294965344] = 0x1\n  8260: a0 = 0x20\n  8263: a1 = s1 + 0x7ff\n  8267: a1 = a1 + 0x61\n  8270: a2 = s1 + 0x1000\n  8274: u64 [a2 + 4294965352] = 0\n  8278: ra = 222, jump @19\n      : @272 [@dyn 111] (gas: 3)\n  8284: a1 = u64 [s1 + 0xc0]\n  8288: a0 = i32 [a1]\n  8290: jump @274 if a0 >u 63\n      : @273 (gas: 2)\n  8294: u32 [a1 + 0] = 0x40\n  8297: fallthrough\n      : @274 (gas: 12)\n  8298: a0 = sp + 0xffffffffffffffe0\n  8301: a0 = a0 & 0xffffffffffffffe0\n  8304: u64 [s1 + 0x78] = a0\n  8307: sp = a0\n  8309: i32 a2 = a0 + 0\n  8311: a1 = 0x40\n  8314: a0 = u64 [s1 + 0xe0]\n  8318: ra = 0xe0\n  8322: ecalli 6 // 'hash_keccak_256'\n  8324: a3 = u64 [s1 + 0x78]\n  8327: t0 = 0xe2\n  8331: jump @671\n      : @275 [@dyn 112] (gas: 2)\n  8334: a3 = u64 [s1 + 0x78]\n  8337: t0 = 226, jump @671\n      : @276 [@dyn 113] (gas: 17)\n  8343: u64 [s1 + 0x38] = a0\n  8346: a0 = reverse a1\n  8348: u64 [s1 + 0x30] = a0\n  8351: a0 = reverse a2\n  8353: u64 [s1 + 0x28] = a0\n  8356: a0 = reverse a3\n  8358: u64 [s1 + 0x20] = a0\n  8361: a0 = sp + 0xffffffffffffffe0\n  8364: a0 = a0 & 0xffffffffffffffe0\n  8367: u64 [s1 + 0x78] = a0\n  8370: sp = a0\n  8372: a0 = u64 [s1 + 0x80]\n  8376: ra = 0xe4\n  8380: ecalli 3 // 'caller'\n  8382: a2 = u64 [s1 + 0xb0]\n  8386: t0 = 0xe6\n  8390: jump @653\n      : @277 [@dyn 114] (gas: 2)\n  8393: a2 = u64 [s1 + 0xb0]\n  8397: t0 = 230, jump @653\n      : @278 [@dyn 115] (gas: 12)\n  8403: a2 = s1 + 0x1000\n  8407: u64 [a2 + 4294965336] = 0\n  8411: a2 = s1 + 0x1000\n  8415: u64 [a2 + 0xfffffffffffff850] = a1\n  8419: a1 = s1 + 0x1000\n  8423: u64 [a1 + 0xfffffffffffff848] = a0\n  8427: a1 = s1 + 0x7ff\n  8431: a1 = a1 + 0x41\n  8434: a0 = s1 + 0x1000\n  8438: u64 [a0 + 0xfffffffffffff840] = a3\n  8442: a0 = 0\n  8444: ra = 232, jump @19\n      : @279 [@dyn 116] (gas: 16)\n  8450: a0 = u64 [s1 + 0x20]\n  8453: a1 = s1 + 0x1000\n  8457: u64 [a1 + 0xfffffffffffff838] = a0\n  8461: a0 = u64 [s1 + 0x28]\n  8464: a1 = s1 + 0x1000\n  8468: u64 [a1 + 0xfffffffffffff830] = a0\n  8472: a0 = u64 [s1 + 0x30]\n  8475: a1 = s1 + 0x1000\n  8479: u64 [a1 + 0xfffffffffffff828] = a0\n  8483: a0 = 0x20\n  8486: a1 = s1 + 0x7ff\n  8490: a1 = a1 + 0x21\n  8493: a2 = u64 [s1 + 0x38]\n  8496: a3 = s1 + 0x1000\n  8500: u64 [a3 + 0xfffffffffffff820] = a2\n  8504: ra = 234, jump @19\n      : @280 [@dyn 117] (gas: 3)\n  8510: a1 = u64 [s1 + 0xc0]\n  8514: a0 = i32 [a1]\n  8516: jump @282 if a0 >u 63\n      : @281 (gas: 2)\n  8520: u32 [a1 + 0] = 0x40\n  8523: fallthrough\n      : @282 (gas: 51)\n  8524: a0 = sp + 0xffffffffffffffe0\n  8527: a0 = a0 & 0xffffffffffffffe0\n  8530: u64 [s1 + 0xc0] = a0\n  8534: sp = a0\n  8536: i32 a2 = a0 + 0\n  8538: a1 = 0x40\n  8541: a0 = u64 [s1 + 0xe0]\n  8545: ecalli 6 // 'hash_keccak_256'\n  8547: a0 = u64 [s1 + 0xd8]\n  8551: a1 = u64 [s1 + 0x58]\n  8554: a0 = a1 - a0\n  8557: a2 = u64 [s1 + 0x48]\n  8560: a1 = a0 - a2\n  8563: a0 = a0 <u a2\n  8566: a2 = u64 [s1 + 0xe8]\n  8570: a3 = u64 [s1 + 0x60]\n  8573: a2 = a3 - a2\n  8576: a3 = u64 [s1 + 0x40]\n  8579: a2 = a2 - a3\n  8582: a2 = a2 - a0\n  8585: a0 = u64 [s1 + 0xc8]\n  8589: a3 = u64 [s1 + 0x68]\n  8592: a0 = a3 - a0\n  8595: a3 = u64 [s1 + 0x50]\n  8598: a0 = a0 - a3\n  8601: a3 = s1 + 0x7ff\n  8605: a3 = a3 + 0x79\n  8608: a5 = a3 + 0x700\n  8612: u64 [a5 + 0xa0] = a2\n  8616: u64 [a5 + 0x98] = a1\n  8620: u64 [a5 + 0x90] = a0\n  8624: a4 = u64 [s1 + 0xc0]\n  8628: a0 = u64 [a4]\n  8630: a1 = u64 [s1 + 0xd0]\n  8634: a2 = u64 [s1 + 0x70]\n  8637: a1 = a2 - a1\n  8640: u64 [a5 + 0x88] = a1\n  8644: a1 = u64 [a4 + 0x8]\n  8647: a2 = reverse a0\n  8649: a0 = u64 [s1 + 0x78]\n  8652: u64 [a0 + 0x18] = a2\n  8655: a3 = u64 [a4 + 0x10]\n  8658: a2 = u64 [a4 + 0x18]\n  8661: a1 = reverse a1\n  8663: u64 [a0 + 0x10] = a1\n  8666: a1 = reverse a3\n  8668: u64 [a0 + 0x8] = a1\n  8671: a1 = reverse a2\n  8673: u64 [a0] = a1\n  8675: a1 = s1 + 0x1000\n  8679: ra = 236, jump @22\n      : @283 [@dyn 118] (gas: 29)\n  8685: a0 = u64 [s1 + 0xd0]\n  8689: u64 [s1 + 0x6c0] = a0\n  8693: a0 = u64 [s1 + 0x88]\n  8697: u64 [s1 + 0x6e0] = a0\n  8701: a0 = u64 [s1 + 0xf0]\n  8705: a4 = s1 + 0x700\n  8709: u64 [a4] = a0\n  8711: a0 = u64 [s1 + 0xc8]\n  8715: u64 [s1 + 0x6c8] = a0\n  8719: a0 = u64 [s1 + 0x90]\n  8723: u64 [s1 + 0x6e8] = a0\n  8727: a0 = u64 [s1 + 0xf8]\n  8731: u64 [a4 + 0x8] = a0\n  8734: a0 = u64 [s1 + 0xd8]\n  8738: u64 [s1 + 0x6d0] = a0\n  8742: a0 = u64 [s1 + 0x98]\n  8746: u64 [s1 + 0x6f0] = a0\n  8750: a0 = u64 [s1 + 0xb8]\n  8754: u64 [a4 + 0x10] = a0\n  8757: a0 = u64 [s1 + 0xe8]\n  8761: u64 [s1 + 0x6d8] = a0\n  8765: a0 = u64 [s1 + 0xa0]\n  8769: u64 [s1 + 0x6f8] = a0\n  8773: a0 = s1 + 0x700\n  8777: a1 = s1 + 0x6e0\n  8781: a2 = s1 + 0x6c0\n  8785: a3 = u64 [s1 + 0xa8]\n  8789: u64 [a4 + 0x18] = a3\n  8792: ra = 238, jump @601\n      : @284 [@dyn 119] (gas: 3)\n  8798: a0 = s1 + 0x6a0\n  8802: a1 = 0x40\n  8805: ra = 240, jump @17\n      : @285 [@dyn 120] (gas: 6)\n  8811: a4 = s1 + 0x600\n  8815: a3 = u64 [a4 + 0xb8]\n  8819: a1 = u64 [a4 + 0xb0]\n  8823: a2 = u64 [a4 + 0xa8]\n  8827: a0 = u64 [a4 + 0xa0]\n  8831: t0 = 242, jump @658\n      : @286 [@dyn 121] (gas: 1)\n  8837: jump @288 if a1 == 0\n      : @287 (gas: 1)\n  8840: jump @447\n      : @288 (gas: 8)\n  8843: u64 [s1 + 1688] = 0\n  8847: u64 [s1 + 1680] = 0\n  8851: u64 [s1 + 1672] = 0\n  8855: a1 = s1 + 0x680\n  8859: u64 [s1 + 1664] = 0x1\n  8864: u64 [s1 + 0xf8] = a0\n  8868: ra = 0x172\n  8872: jump @19\n      : @289 (gas: 8)\n  8875: u64 [a2 + 1632] = 0\n  8879: u64 [a2 + 1624] = 0\n  8883: u64 [a2 + 1616] = 0\n  8887: u64 [a2 + 1608] = 0\n  8891: a0 = s1 + 0x1000\n  8895: i32 a0 = a0 + 0xfffffffffffffec0\n  8899: ecalli 10 // 'value_transferred'\n  8901: fallthrough\n      : @290 (gas: 11)\n  8902: a3 = s1 + 0x7ff\n  8906: a3 = a3 + 0x79\n  8909: a4 = a3 + 0x600\n  8913: a0 = u64 [a4 + 0x58]\n  8916: a1 = u64 [a4 + 0x60]\n  8919: a2 = u64 [a4 + 0x50]\n  8922: a3 = u64 [a4 + 0x48]\n  8925: a1 = a1 | a2\n  8928: a0 = a0 | a3\n  8931: a0 = a0 | a1\n  8934: jump @292 if a0 == 0\n      : @291 (gas: 1)\n  8937: jump @470\n      : @292 (gas: 4)\n  8940: a0 = u64 [s1 + 0xf8]\n  8944: a0 = i32 [a0]\n  8946: a1 = 0x43\n  8949: jump @294 if a1 <u a0\n      : @293 (gas: 1)\n  8952: jump @471\n      : @294 (gas: 4)\n  8955: a0 = s1 + 0x460\n  8959: ra = 0xf4\n  8963: t0 = 0x1ea\n  8967: jump @670\n      : @295 [@dyn 122] (gas: 37)\n  8970: a1 = s1 + 0x400\n  8974: a0 = u64 [a1 + 0x70]\n  8977: u64 [s1 + 0xd8] = a0\n  8981: a0 = u64 [a1 + 0x68]\n  8984: u64 [s1 + 0xf0] = a0\n  8988: a0 = u64 [a1 + 0x60]\n  8991: u64 [s1 + 0xf8] = a0\n  8995: a0 = sp + 0xffffffffffffffe0\n  8998: a0 = a0 & 0xffffffffffffffe0\n  9001: u64 [s1 + 0xe0] = a0\n  9005: sp = a0\n  9007: a0 = s1 + 0x1000\n  9011: i32 a0 = a0 + 0xfffffffffffffee0\n  9015: a1 = 0x24\n  9018: ecalli 1 // 'call_data_load'\n  9020: a0 = s1 + 0x7ff\n  9024: a0 = a0 + 0x79\n  9027: a4 = a0 + 0x600\n  9031: a1 = u64 [a4 + 0x80]\n  9035: a2 = u64 [a4 + 0x78]\n  9038: a3 = u64 [a4 + 0x70]\n  9041: a0 = u64 [a4 + 0x68]\n  9044: u64 [s1 + 0x90] = a1\n  9048: a4 = u64 [s1 + 0xe0]\n  9052: u64 [a4 + 0x18] = a1\n  9055: u64 [s1 + 0x88] = a2\n  9059: u64 [a4 + 0x10] = a2\n  9062: u64 [s1 + 0x80] = a3\n  9066: u64 [a4 + 0x8] = a3\n  9069: u64 [s1 + 0x78] = a0\n  9072: u64 [a4] = a0\n  9074: a0 = 0x300c0\n  9079: u64 [s1 + 0xe8] = a0\n  9083: i32 a0 = a0 + 0\n  9085: u64 [s1 + 0xd0] = a0\n  9089: ecalli 3 // 'caller'\n  9091: fallthrough\n      : @296 (gas: 7)\n  9092: a2 = u64 [s1 + 0xe8]\n  9096: a0 = u32 [a2 + 0x10]\n  9099: a1 = u64 [a2]\n  9101: a2 = u64 [a2 + 0x8]\n  9104: a0 = a0 | a1\n  9107: a0 = a0 | a2\n  9110: jump @298 if a0 != 0\n      : @297 (gas: 1)\n  9113: jump @472\n      : @298 (gas: 9)\n  9116: a0 = u64 [s1 + 0xd8]\n  9120: a0 = a0 << 0x20\n  9123: a1 = a0 >> 0x20\n  9126: a0 = u64 [s1 + 0xf0]\n  9130: a2 = u64 [s1 + 0xf8]\n  9134: a0 = a0 | a2\n  9137: u64 [s1 + 0xd8] = a1\n  9141: a0 = a0 | a1\n  9144: jump @300 if a0 != 0\n      : @299 (gas: 1)\n  9147: jump @477\n      : @300 (gas: 6)\n  9150: a0 = u64 [s1 + 0xd0]\n  9154: ra = 0xf6\n  9158: ecalli 3 // 'caller'\n  9160: a2 = u64 [s1 + 0xe8]\n  9164: t0 = 0xf8\n  9168: jump @653\n      : @301 [@dyn 123] (gas: 2)\n  9171: a2 = u64 [s1 + 0xe8]\n  9175: t0 = 248, jump @653\n      : @302 [@dyn 124] (gas: 7)\n  9181: u64 [s1 + 1112] = 0\n  9185: u64 [s1 + 0x450] = a1\n  9189: u64 [s1 + 0x448] = a0\n  9193: a1 = s1 + 0x440\n  9197: u64 [s1 + 0x440] = a3\n  9201: a0 = 0\n  9203: ra = 250, jump @19\n      : @303 [@dyn 125] (gas: 7)\n  9209: u64 [s1 + 1080] = 0\n  9213: u64 [s1 + 1072] = 0\n  9217: u64 [s1 + 1056] = 0x1\n  9222: a0 = 0x20\n  9225: a1 = s1 + 0x420\n  9229: u64 [s1 + 1064] = 0\n  9233: ra = 252, jump @19\n      : @304 [@dyn 126] (gas: 3)\n  9239: a1 = 0x200ac\n  9244: a0 = i32 [0x200ac]\n  9249: jump @306 if a0 >u 63\n      : @305 (gas: 2)\n  9253: u32 [0x200ac] = 0x40\n  9259: fallthrough\n      : @306 (gas: 15)\n  9260: a0 = sp + 0xffffffffffffffe0\n  9263: a2 = a0 & 0xffffffffffffffe0\n  9266: u64 [s1 + 0xb8] = a2\n  9270: sp = a2\n  9272: a0 = 0x200c0\n  9277: i32 a0 = a0 + 0\n  9279: i32 a2 = a2 + 0\n  9281: u64 [s1 + 0xc8] = a1\n  9285: a1 = 0x40\n  9288: u64 [s1 + 0xc0] = a0\n  9292: ra = 0xfe\n  9296: ecalli 6 // 'hash_keccak_256'\n  9298: a3 = u64 [s1 + 0xb8]\n  9302: t0 = 0x100\n  9306: jump @671\n      : @307 [@dyn 127] (gas: 2)\n  9309: a3 = u64 [s1 + 0xb8]\n  9313: t0 = 256, jump @671\n      : @308 [@dyn 128] (gas: 22)\n  9319: u64 [s1 + 0xb0] = a0\n  9323: a0 = reverse a1\n  9325: u64 [s1 + 0xa8] = a0\n  9329: a0 = reverse a2\n  9331: u64 [s1 + 0xa0] = a0\n  9335: a0 = reverse a3\n  9337: u64 [s1 + 0x98] = a0\n  9341: a0 = sp + 0xffffffffffffffe0\n  9344: a0 = a0 & 0xffffffffffffffe0\n  9347: u64 [s1 + 0xb8] = a0\n  9351: sp = a0\n  9353: u64 [s1 + 1048] = 0\n  9357: a0 = u64 [s1 + 0xd8]\n  9361: a2 = s1 + 0x400\n  9365: u64 [a2 + 0x10] = a0\n  9368: a0 = u64 [s1 + 0xf0]\n  9372: u64 [a2 + 0x8] = a0\n  9375: a1 = s1 + 0x400\n  9379: a0 = u64 [s1 + 0xf8]\n  9383: u64 [a2] = a0\n  9385: a0 = 0\n  9387: ra = 258, jump @19\n      : @309 [@dyn 129] (gas: 12)\n  9393: a0 = u64 [s1 + 0x98]\n  9397: a3 = s1 + 0x300\n  9401: u64 [a3 + 0xf8] = a0\n  9405: a0 = u64 [s1 + 0xa0]\n  9409: u64 [a3 + 0xf0] = a0\n  9413: a0 = u64 [s1 + 0xa8]\n  9417: u64 [a3 + 0xe8] = a0\n  9421: a0 = 0x20\n  9424: a1 = s1 + 0x3e0\n  9428: a2 = u64 [s1 + 0xb0]\n  9432: u64 [a3 + 0xe0] = a2\n  9436: ra = 260, jump @19\n      : @310 [@dyn 130] (gas: 3)\n  9442: a1 = u64 [s1 + 0xc8]\n  9446: a0 = i32 [a1]\n  9448: jump @312 if a0 >u 63\n      : @311 (gas: 2)\n  9452: u32 [a1 + 0] = 0x40\n  9455: fallthrough\n      : @312 (gas: 24)\n  9456: a0 = sp + 0xffffffffffffffe0\n  9459: a0 = a0 & 0xffffffffffffffe0\n  9462: u64 [s1 + 0xc8] = a0\n  9466: sp = a0\n  9468: i32 a2 = a0 + 0\n  9470: a1 = 0x40\n  9473: a0 = u64 [s1 + 0xc0]\n  9477: ecalli 6 // 'hash_keccak_256'\n  9479: a3 = u64 [s1 + 0xc8]\n  9483: a0 = u64 [a3 + 0x18]\n  9486: a1 = u64 [a3 + 0x10]\n  9489: a2 = u64 [a3 + 0x8]\n  9492: a3 = u64 [a3]\n  9494: a4 = reverse a0\n  9496: a1 = reverse a1\n  9498: a2 = reverse a2\n  9500: a3 = reverse a3\n  9502: a0 = u64 [s1 + 0xb8]\n  9506: u64 [a0 + 0x18] = a3\n  9509: u64 [a0 + 0x10] = a2\n  9512: u64 [a0 + 0x8] = a1\n  9515: u64 [a0] = a4\n  9517: a1 = u64 [s1 + 0xe0]\n  9521: ra = 262, jump @22\n      : @313 [@dyn 131] (gas: 3)\n  9527: a0 = s1 + 0x3c0\n  9531: a1 = 0x40\n  9534: ra = 264, jump @17\n      : @314 [@dyn 132] (gas: 6)\n  9540: a4 = s1 + 0x300\n  9544: a0 = u64 [a4 + 0xd8]\n  9548: a1 = u64 [a4 + 0xd0]\n  9552: a2 = u64 [a4 + 0xc8]\n  9556: a3 = u64 [a4 + 0xc0]\n  9560: t0 = 266, jump @665\n      : @315 [@dyn 133] (gas: 1)\n  9566: jump @317 if a0 == 0\n      : @316 (gas: 1)\n  9569: jump @447\n      : @317 (gas: 12)\n  9572: a0 = u64 [s1 + 0x78]\n  9575: u64 [s1 + 0x3a0] = a0\n  9579: a0 = u64 [s1 + 0x80]\n  9583: u64 [s1 + 0x3a8] = a0\n  9587: a0 = u64 [s1 + 0x88]\n  9591: u64 [s1 + 0x3b0] = a0\n  9595: a1 = s1 + 0x3a0\n  9599: a0 = u64 [s1 + 0x90]\n  9603: u64 [s1 + 0x3b8] = a0\n  9607: a0 = a3\n  9609: u64 [s1 + 0xe0] = a3\n  9613: ra = 268, jump @19\n      : @318 [@dyn 134] (gas: 6)\n  9619: a0 = u64 [s1 + 0xd0]\n  9623: ra = 0x10e\n  9627: ecalli 3 // 'caller'\n  9629: a2 = u64 [s1 + 0xe8]\n  9633: t0 = 0x110\n  9637: jump @668\n      : @319 [@dyn 135] (gas: 2)\n  9640: a2 = u64 [s1 + 0xe8]\n  9644: t0 = 272, jump @668\n      : @320 [@dyn 136] (gas: 31)\n  9650: t0 = a1 | a0\n  9653: a3 = a3 >> 0x20\n  9656: a2 = reverse a2\n  9658: a1 = a2 << 0x20\n  9661: a1 = a1 | a3\n  9664: a2 = a2 >> 0x20\n  9667: u64 [s1 + 856] = 0\n  9671: a0 = u64 [s1 + 0xd8]\n  9675: u64 [s1 + 0x350] = a0\n  9679: a0 = u64 [s1 + 0xf0]\n  9683: u64 [s1 + 0x348] = a0\n  9687: a0 = u64 [s1 + 0xf8]\n  9691: u64 [s1 + 0x340] = a0\n  9695: u64 [s1 + 888] = 0\n  9699: a3 = u64 [0x20048]\n  9704: a4 = u64 [0x20050]\n  9709: a5 = u64 [0x20058]\n  9714: a0 = u64 [0x20060]\n  9719: u64 [s1 + 0x398] = a3\n  9723: u64 [s1 + 0x390] = a4\n  9727: u64 [s1 + 0x388] = a5\n  9731: u64 [s1 + 0x380] = a0\n  9735: u64 [s1 + 0x370] = a2\n  9739: u64 [s1 + 0x368] = a1\n  9743: a1 = 0x20\n  9746: a2 = s1 + 0x380\n  9750: a3 = s1 + 0x360\n  9754: a4 = s1 + 0x340\n  9758: u64 [s1 + 0x360] = t0\n  9762: a0 = u64 [s1 + 0xe0]\n  9766: ra = 274, jump @23\n      : @321 [@dyn 137] (gas: 3)\n  9772: a0 = s1 + 0x320\n  9776: a1 = 0x40\n  9779: ra = 276, jump @17\n      : @322 [@dyn 138] (gas: 6)\n  9785: a4 = s1 + 0x300\n  9789: a3 = u64 [a4 + 0x38]\n  9792: a1 = u64 [a4 + 0x30]\n  9795: a2 = u64 [a4 + 0x28]\n  9798: a0 = u64 [a4 + 0x20]\n  9801: t0 = 278, jump @658\n      : @323 [@dyn 139] (gas: 1)\n  9807: jump @325 if a1 == 0\n      : @324 (gas: 1)\n  9810: jump @447\n      : @325 (gas: 8)\n  9813: u64 [s1 + 792] = 0\n  9817: u64 [s1 + 784] = 0\n  9821: u64 [s1 + 776] = 0\n  9825: a1 = s1 + 0x300\n  9829: u64 [s1 + 768] = 0x1\n  9834: u64 [s1 + 0xf8] = a0\n  9838: ra = 0x172\n  9842: jump @19\n      : @326 (gas: 9)\n  9845: a0 = s1 + 0x1078\n  9849: u64 [a0 + 32] = 0\n  9852: u64 [a0 + 24] = 0\n  9855: u64 [a0 + 16] = 0\n  9858: u64 [a0 + 8] = 0\n  9861: a0 = s1 + 0x1000\n  9865: i32 a0 = a0 + 0x80\n  9869: ecalli 10 // 'value_transferred'\n  9871: fallthrough\n      : @327 (gas: 9)\n  9872: a3 = s1 + 0x1078\n  9876: a0 = u64 [a3 + 0x18]\n  9879: a1 = u64 [a3 + 0x20]\n  9882: a2 = u64 [a3 + 0x10]\n  9885: a3 = u64 [a3 + 0x8]\n  9888: a1 = a1 | a2\n  9891: a0 = a0 | a3\n  9894: a0 = a0 | a1\n  9897: jump @329 if a0 == 0\n      : @328 (gas: 1)\n  9900: jump @482\n      : @329 (gas: 3)\n  9903: a0 = u64 [s1 + 0xf8]\n  9907: a0 = i32 [a0]\n  9909: jump @331 if a0 >u 3\n      : @330 (gas: 1)\n  9913: jump @483\n      : @331 (gas: 4)\n  9916: a0 = s1 + 0x7ff\n  9920: a0 = a0 + 0x441\n  9924: a1 = 0x40\n  9927: ra = 280, jump @17\n      : @332 [@dyn 140] (gas: 20)\n  9933: a1 = s1 + 0x7ff\n  9937: a1 = a1 + 0x79\n  9940: a2 = a1 + 0x300\n  9944: a0 = u64 [a2 + 0xe0]\n  9948: u64 [s1 + 0x58] = a0\n  9951: a0 = u64 [a2 + 0xd8]\n  9955: u64 [s1 + 0x68] = a0\n  9958: a0 = u64 [a2 + 0xd0]\n  9962: u64 [s1 + 0x60] = a0\n  9965: a0 = u64 [a2 + 0xc8]\n  9969: u64 [s1 + 0x70] = a0\n  9972: a1 = s1 + 0x1078\n  9976: u64 [a1 + 64] = 0\n  9979: u64 [a1 + 56] = 0\n  9982: u64 [a1 + 48] = 0\n  9985: u64 [a1 + 40] = 0x4\n  9989: a0 = s1 + 0x7ff\n  9993: a0 = a0 + 0x421\n  9997: a1 = s1 + 0x10a0\n 10001: ra = 282, jump @21\n      : @333 [@dyn 141] (gas: 36)\n 10007: a0 = s1 + 0x7ff\n 10011: a0 = a0 + 0x79\n 10014: t2 = u64 [a0 + 0x3b8]\n 10018: ra = u64 [a0 + 0x3b0]\n 10022: t1 = u64 [a0 + 0x3c0]\n 10026: a4 = u64 [a0 + 0x3a8]\n 10030: a0 = t2 << 0x3f\n 10033: a1 = ra >> 0x1\n 10036: a0 = a0 | a1\n 10039: a1 = t1 << 0x3f\n 10042: a2 = t2 >> 0x1\n 10045: a1 = a1 | a2\n 10048: a2 = ra << 0x3f\n 10051: a3 = a4 >> 0x1\n 10054: a5 = a3 | a2\n 10057: a2 = t1 >> 0x1\n 10060: u64 [s1 + 0xf0] = a4\n 10064: a4 = a4 & 0x1\n 10067: a3 = -a4\n 10069: a1 = a1 & a3\n 10072: t0 = a3 & a0\n 10075: a2 = a2 & a3\n 10078: a0 = a5 & 0x7f\n 10081: u64 [s1 + 0xe8] = a0\n 10085: a5 = a0 if a4 == 0\n 10088: u64 [s1 + 0xb0] = a5\n 10092: a0 = a5 <u 0x20\n 10095: u64 [s1 + 0xa0] = t0\n 10099: a0 = 0 if t0 != 0\n 10101: u64 [s1 + 0xa8] = a1\n 10105: u64 [s1 + 0x98] = a2\n 10109: a1 = a1 | a2\n 10112: a0 = 0 if a1 != 0\n 10114: u64 [s1 + 0xf8] = a4\n 10118: a1 = a4 <u 0x1\n 10121: jump @335 if a1 == a0\n      : @334 (gas: 1)\n 10124: jump @484\n      : @335 (gas: 12)\n 10127: a2 = u64 [s1 + 0x68]\n 10130: a3 = u64 [s1 + 0x70]\n 10133: a0 = a3 | a2\n 10136: a1 = u64 [s1 + 0x60]\n 10139: a4 = u64 [s1 + 0x58]\n 10142: a1 = a1 | a4\n 10145: a0 = a0 | a1\n 10148: a0 = a0 >> 0x20\n 10151: a1 = a1 | a2\n 10154: a1 = a1 << 0x20\n 10157: a1 = a1 | a0\n 10160: jump @337 if a1 == 0\n      : @336 (gas: 1)\n 10163: jump @447\n      : @337 (gas: 18)\n 10166: a0 = a3\n 10168: u64 [s1 + 0xd0] = ra\n 10172: u64 [s1 + 0xd8] = t2\n 10176: u64 [s1 + 0xe0] = t1\n 10180: a1 = u64 [s1 + 0xb0]\n 10184: a3 = s1 + 0x7ff\n 10188: a3 = a3 + 0x79\n 10191: a4 = a3 + 0x300\n 10195: u64 [a4 + 0x88] = a1\n 10199: a1 = u64 [s1 + 0xa0]\n 10203: u64 [a4 + 0x90] = a1\n 10207: a1 = u64 [s1 + 0xa8]\n 10211: u64 [a4 + 0x98] = a1\n 10215: a1 = s1 + 0x7ff\n 10219: a1 = a1 + 0x401\n 10223: a2 = u64 [s1 + 0x98]\n 10227: u64 [a4 + 0xa0] = a2\n 10231: ra = 284, jump @19\n      : @338 [@dyn 142] (gas: 2)\n 10237: a0 = u64 [s1 + 0xf8]\n 10241: jump @340 if a0 == 0\n      : @339 (gas: 1)\n 10244: jump @448\n      : @340 (gas: 10)\n 10247: a0 = u64 [s1 + 0x68]\n 10250: a1 = u64 [s1 + 0x58]\n 10253: a0 = a0 | a1\n 10256: a1 = 0xffffffe0\n 10266: a3 = u64 [s1 + 0x70]\n 10269: a1 = a3 <u a1\n 10272: a2 = u64 [s1 + 0x60]\n 10275: a1 = 0 if a2 != 0\n 10277: a1 = 0 if a0 != 0\n 10279: jump @342 if a1 != 0\n      : @341 (gas: 1)\n 10282: jump @447\n      : @342 (gas: 16)\n 10285: a1 = u64 [s1 + 0xf0]\n 10289: a1 = a1 & 0xffffffffffffff00\n 10293: i32 a0 = a3 + 0x20\n 10296: a2 = s1 + 0x7ff\n 10300: a2 = a2 + 0x79\n 10303: a3 = u64 [s1 + 0xd0]\n 10307: a4 = a2 + 0x300\n 10311: u64 [a4 + 0x10] = a3\n 10314: u64 [a4 + 0x8] = a1\n 10317: a1 = u64 [s1 + 0xd8]\n 10321: u64 [a4 + 0x18] = a1\n 10324: a1 = s1 + 0x7ff\n 10328: a1 = a1 + 0x381\n 10332: a3 = u64 [s1 + 0xe0]\n 10336: u64 [a4 + 0x20] = a3\n 10339: ra = 286, jump @19\n      : @343 [@dyn 143] (gas: 8)\n 10345: t2 = 0\n 10347: t1 = 0\n 10349: u64 [s1 + 240] = 0\n 10353: a0 = u64 [s1 + 0xe8]\n 10357: a0 = a0 >u 0\n 10359: a0 = a0 << 0x5\n 10362: u64 [s1 + 0xf8] = a0\n 10366: fallthrough\n      : @344 (gas: 37)\n 10367: a1 = u64 [s1 + 0xf8]\n 10371: a0 = a1 + 0x3f\n 10374: a1 = a0 <u a1\n 10377: a2 = t2 + a1\n 10380: a0 = a0 & 0xffffffffffffffe0\n 10383: ra = u64 [s1 + 0x70]\n 10386: ra = ra + a0\n 10389: u64 [s1 + 0xf8] = ra\n 10393: a0 = ra <u a0\n 10396: t0 = u64 [s1 + 0x60]\n 10399: a3 = a2 + t0\n 10402: ra = a3 + a0\n 10405: a3 = ra ^ a2\n 10408: a4 = ra <u a2\n 10411: a4 = a0 if a3 == 0\n 10414: a0 = a2 <u t2\n 10417: a0 = a1 if a1 == 0\n 10420: a0 = a0 + t1\n 10423: a1 = a0 <u t1\n 10426: a2 = u64 [s1 + 0x68]\n 10429: a2 = a2 + a0\n 10432: a4 = a4 + a2\n 10435: a0 = a2 <u a0\n 10438: a2 = a4 <u a2\n 10441: t1 = u64 [s1 + 0x58]\n 10444: a3 = u64 [s1 + 0xf0]\n 10448: a3 = a3 + t1\n 10451: a1 = a1 + a3\n 10454: a0 = a0 + a1\n 10457: a5 = a0 + a2\n 10460: a0 = a5 >u 0\n 10462: a1 = a4 >u 0\n 10464: a1 = a0 if a5 != 0\n 10467: a0 = a4 | a5\n 10470: a2 = ra >u 0\n 10472: a2 = a1 if a0 != 0\n 10475: jump @346 if a2 == 0\n      : @345 (gas: 1)\n 10478: jump @526\n      : @346 (gas: 15)\n 10481: a0 = u64 [s1 + 0x70]\n 10484: a1 = u64 [s1 + 0xf8]\n 10488: a0 = a1 <u a0\n 10491: a1 = ra ^ t0\n 10494: a2 = ra <u t0\n 10497: a2 = a0 if a1 == 0\n 10500: a0 = u64 [s1 + 0x68]\n 10503: t2 = a4 <u a0\n 10506: a1 = a5 ^ t1\n 10509: a3 = a5 <u t1\n 10512: a3 = t2 if a1 == 0\n 10515: a0 = a0 ^ a4\n 10518: a0 = a0 | a1\n 10521: a3 = a2 if a0 == 0\n 10524: jump @348 if a3 == 0\n      : @347 (gas: 1)\n 10527: jump @526\n      : @348 (gas: 14)\n 10530: a2 = s1 + 0x7ff\n 10534: a2 = a2 + 0x79\n 10537: a0 = u64 [s1 + 0xf8]\n 10541: u64 [a2 + 0x2e8] = a0\n 10545: u64 [a2 + 0x2f0] = ra\n 10549: u64 [a2 + 0x2f8] = a4\n 10553: a0 = 0x40\n 10556: a1 = s1 + 0x7ff\n 10560: a1 = a1 + 0x361\n 10564: u64 [a2 + 0x300] = a5\n 10568: u64 [s1 + 0xe8] = ra\n 10572: u64 [s1 + 0xe0] = a4\n 10576: u64 [s1 + 0xf0] = a5\n 10580: ra = 288, jump @19\n      : @349 [@dyn 144] (gas: 27)\n 10586: a1 = s1 + 0x7ff\n 10590: a1 = a1 + 0x79\n 10593: a0 = u64 [s1 + 0x58]\n 10596: a2 = a1 + 0x200\n 10600: u64 [a2 + 0xa0] = a0\n 10604: a0 = u64 [s1 + 0x68]\n 10607: u64 [a2 + 0x98] = a0\n 10611: a0 = u64 [s1 + 0x60]\n 10614: u64 [a2 + 0x90] = a0\n 10618: a0 = u64 [s1 + 0x70]\n 10621: u64 [a2 + 0x88] = a0\n 10625: a0 = u64 [s1 + 0xf0]\n 10629: u64 [a2 + 0xc0] = a0\n 10633: a0 = u64 [s1 + 0xe0]\n 10637: u64 [a2 + 0xb8] = a0\n 10641: a0 = u64 [s1 + 0xe8]\n 10645: u64 [a2 + 0xb0] = a0\n 10649: a4 = a1\n 10651: a0 = s1 + 0x7ff\n 10655: a0 = a0 + 0x341\n 10659: a1 = s1 + 0x7ff\n 10663: a1 = a1 + 0x321\n 10667: a2 = s1 + 0x7ff\n 10671: a2 = a2 + 0x301\n 10675: a3 = u64 [s1 + 0xf8]\n 10679: u64 [a4 + 0x2a8] = a3\n 10683: ra = 290, jump @572\n      : @350 [@dyn 145] (gas: 12)\n 10689: a3 = u64 [s1 + 0xe0]\n 10693: a4 = u64 [s1 + 0xe8]\n 10697: t0 = u64 [s1 + 0xf8]\n 10701: a0 = t0 | a3\n 10704: a1 = u64 [s1 + 0xf0]\n 10708: a1 = a1 | a4\n 10711: a0 = a0 | a1\n 10714: a0 = a0 >> 0x20\n 10717: a1 = a1 | a3\n 10720: a1 = a1 << 0x20\n 10723: a0 = a0 | a1\n 10726: jump @447 if a0 != 0\n      : @351 (gas: 33)\n 10730: a1 = s1 + 0x7ff\n 10734: a1 = a1 + 0x79\n 10737: a5 = a1 + 0x200\n 10741: a0 = u64 [a5 + 0xd0]\n 10745: a2 = u64 [a5 + 0xe0]\n 10749: u64 [s1 + 0xd8] = a2\n 10753: a2 = a3\n 10755: t1 = u64 [a1 + 0x2c8]\n 10759: a3 = u64 [a5 + 0xd8]\n 10763: t2 = a0 ^ a4\n 10766: a5 = a0 <u a4\n 10769: ra = t1 <u t0\n 10772: a5 = ra if t2 == 0\n 10775: a1 = a3 - a2\n 10778: t2 = a1 - a5\n 10781: a1 = a1 <u a5\n 10784: a3 = a3 <u a2\n 10787: a2 = u64 [s1 + 0xd8]\n 10791: a3 = a2 - a3\n 10794: a2 = u64 [s1 + 0xf0]\n 10798: a3 = a3 - a2\n 10801: a3 = a3 - a1\n 10804: a0 = a0 - a4\n 10807: a0 = a0 - ra\n 10810: a1 = t1 - t0\n 10813: a0 = a0 | a3\n 10816: a2 = a1 | t2\n 10819: a2 = a2 | a0\n 10822: a0 = a0 | t2\n 10825: a2 = a2 >> 0x20\n 10828: a0 = a0 << 0x20\n 10831: a0 = a0 | a2\n 10834: jump @447 if a0 != 0\n      : @352 (gas: 4)\n 10838: a0 = t0\n 10840: u64 [s1 + 0xf8] = a1\n 10844: ra = 0x1b8\n 10848: jump @26\n      : @353 (gas: 8)\n 10851: u64 [a2 + 1760] = 0\n 10855: u64 [a2 + 1752] = 0\n 10859: u64 [a2 + 1744] = 0\n 10863: u64 [a2 + 1736] = 0\n 10867: a0 = s1 + 0x1000\n 10871: i32 a0 = a0 + 0xffffffffffffff40\n 10875: ecalli 10 // 'value_transferred'\n 10877: fallthrough\n      : @354 (gas: 11)\n 10878: a3 = s1 + 0x7ff\n 10882: a3 = a3 + 0x79\n 10885: a4 = a3 + 0x600\n 10889: a0 = u64 [a4 + 0xd8]\n 10893: a1 = u64 [a4 + 0xe0]\n 10897: a2 = u64 [a4 + 0xd0]\n 10901: a3 = u64 [a4 + 0xc8]\n 10905: a1 = a1 | a2\n 10908: a0 = a0 | a3\n 10911: a0 = a0 | a1\n 10914: jump @356 if a0 == 0\n      : @355 (gas: 1)\n 10917: jump @489\n      : @356 (gas: 3)\n 10920: a0 = u64 [s1 + 0xf8]\n 10924: a0 = i32 [a0]\n 10926: jump @358 if a0 >u 3\n      : @357 (gas: 1)\n 10930: jump @490\n      : @358 (gas: 6)\n 10933: a0 = 0x300c0\n 10938: u64 [s1 + 0xf8] = a0\n 10942: i32 a0 = a0 + 0\n 10944: u64 [s1 + 0xe0] = a0\n 10948: ecalli 3 // 'caller'\n 10950: fallthrough\n      : @359 (gas: 7)\n 10951: a2 = u64 [s1 + 0xf8]\n 10955: a0 = u32 [a2 + 0x10]\n 10958: a1 = u64 [a2]\n 10960: a2 = u64 [a2 + 0x8]\n 10963: a0 = a0 | a1\n 10966: a0 = a0 | a2\n 10969: jump @361 if a0 != 0\n      : @360 (gas: 1)\n 10972: jump @491\n      : @361 (gas: 12)\n 10975: a0 = 0x6bc75e2d63100000\n 10985: u64 [s1 + 0xf0] = a0\n 10989: a0 = s1 + 0x7ff\n 10993: a0 = a0 + 0x79\n 10996: u64 [a0 + 1792] = 0\n 11000: u64 [a0 + 1784] = 0\n 11004: u64 [a0 + 1776] = 0\n 11008: u64 [a0 + 1768] = 0x2\n 11013: a0 = s1 + 0x660\n 11017: a1 = s1 + 0x7ff\n 11021: a1 = a1 + 0x761\n 11025: ra = 292, jump @21\n      : @362 [@dyn 146] (gas: 34)\n 11031: a0 = u64 [s1 + 0x678]\n 11035: u64 [s1 + 0xe8] = a0\n 11039: t2 = u64 [s1 + 0x670]\n 11043: a3 = u64 [s1 + 0x668]\n 11047: t1 = u64 [s1 + 0x660]\n 11051: a1 = sp + 0xffffffffffffffe0\n 11054: a1 = a1 & 0xffffffffffffffe0\n 11057: sp = a1\n 11059: t0 = u64 [s1 + 0xf0]\n 11063: t0 = t0 + t1\n 11066: a5 = t0 <u t1\n 11069: a0 = a3 + a5\n 11072: a4 = a0 + 0x5\n 11075: ra = u64 [0x20020]\n 11080: a2 = a4 ^ a3\n 11083: a0 = a4 <u a3\n 11086: a0 = a5 if a2 == 0\n 11089: a2 = ra <u t1\n 11092: a5 = a3 + 0x6\n 11095: a3 = a3 <u 0xfffffffffffffffb\n 11098: a3 = a3 ^ 0x1\n 11101: a3 = a2 if a5 == 0\n 11104: u64 [a1 + 0x8] = a4\n 11107: u64 [a1] = t0\n 11109: a0 = a0 + t2\n 11112: u64 [a1 + 0x10] = a0\n 11115: a0 = a0 <u t2\n 11118: a2 = u64 [s1 + 0xe8]\n 11122: a0 = a0 + a2\n 11125: a2 = t2 & a2\n 11128: a2 = a2 + 0x1\n 11131: a3 = 0 if a2 != 0\n 11133: u64 [a1 + 0x18] = a0\n 11136: jump @364 if a3 == 0\n      : @363 (gas: 1)\n 11139: jump @496\n      : @364 (gas: 9)\n 11142: a0 = s1 + 0x7ff\n 11146: a0 = a0 + 0x79\n 11149: u64 [a0 + 1824] = 0\n 11153: u64 [a0 + 1816] = 0\n 11157: u64 [a0 + 1808] = 0\n 11161: u64 [a0 + 1800] = 0x2\n 11166: a0 = s1 + 0x7ff\n 11170: a0 = a0 + 0x781\n 11174: ra = 294, jump @22\n      : @365 [@dyn 147] (gas: 6)\n 11180: a0 = u64 [s1 + 0xe0]\n 11184: ra = 0x128\n 11188: ecalli 3 // 'caller'\n 11190: a2 = u64 [s1 + 0xf8]\n 11194: t0 = 0x12a\n 11198: jump @653\n      : @366 [@dyn 148] (gas: 2)\n 11201: a2 = u64 [s1 + 0xf8]\n 11205: t0 = 298, jump @653\n      : @367 [@dyn 149] (gas: 8)\n 11211: u64 [s1 + 1624] = 0\n 11215: a2 = s1 + 0x600\n 11219: u64 [a2 + 0x50] = a1\n 11222: u64 [a2 + 0x48] = a0\n 11225: a1 = s1 + 0x640\n 11229: u64 [a2 + 0x40] = a3\n 11232: a0 = 0\n 11234: ra = 300, jump @19\n      : @368 [@dyn 150] (gas: 7)\n 11240: u64 [s1 + 1592] = 0\n 11244: u64 [s1 + 1584] = 0\n 11248: u64 [s1 + 1576] = 0\n 11252: a0 = 0x20\n 11255: a1 = s1 + 0x620\n 11259: u64 [s1 + 1568] = 0\n 11263: ra = 302, jump @19\n      : @369 [@dyn 151] (gas: 6)\n 11269: a0 = sp + 0xffffffffffffffe0\n 11272: a0 = a0 & 0xffffffffffffffe0\n 11275: u64 [s1 + 0xe8] = a0\n 11279: sp = a0\n 11281: a1 = i32 [0x200ac]\n 11286: jump @371 if a1 >u 63\n      : @370 (gas: 2)\n 11290: u32 [0x200ac] = 0x40\n 11296: fallthrough\n      : @371 (gas: 14)\n 11297: a0 = sp + 0xffffffffffffffe0\n 11300: a2 = a0 & 0xffffffffffffffe0\n 11303: u64 [s1 + 0xd8] = a2\n 11307: sp = a2\n 11309: a0 = 0x200c0\n 11314: i32 a0 = a0 + 0\n 11316: i32 a2 = a2 + 0\n 11318: a1 = 0x40\n 11321: u64 [s1 + 0xd0] = a0\n 11325: ra = 0x130\n 11329: ecalli 6 // 'hash_keccak_256'\n 11331: a3 = u64 [s1 + 0xd8]\n 11335: t0 = 0x132\n 11339: jump @655\n      : @372 [@dyn 152] (gas: 2)\n 11342: a3 = u64 [s1 + 0xd8]\n 11346: t0 = 306, jump @655\n      : @373 [@dyn 153] (gas: 7)\n 11352: a1 = u64 [s1 + 0xe8]\n 11356: u64 [a1 + 0x18] = a3\n 11359: u64 [a1 + 0x10] = a2\n 11362: u64 [a1 + 0x8] = a4\n 11365: u64 [a1] = a0\n 11367: a0 = s1 + 0x600\n 11371: ra = 308, jump @21\n      : @374 [@dyn 154] (gas: 27)\n 11377: a2 = s1 + 0x600\n 11381: a0 = u64 [a2 + 0x8]\n 11384: a1 = u64 [a2]\n 11386: t0 = u64 [s1 + 0x618]\n 11390: a3 = u64 [a2 + 0x10]\n 11393: a4 = a0 + 0x5\n 11396: a5 = u64 [s1 + 0xf0]\n 11400: a5 = a5 + a1\n 11403: a1 = a5 <u a1\n 11406: a4 = a4 + a1\n 11409: a2 = a4 ^ a0\n 11412: a0 = a4 <u a0\n 11415: a0 = a1 if a2 == 0\n 11418: a0 = a0 + a3\n 11421: a1 = a0 <u a3\n 11424: a1 = a1 + t0\n 11427: a2 = s1 + 0x7ff\n 11431: a2 = a2 + 0x79\n 11434: a3 = a2 + 0x700\n 11438: u64 [a3 + 0x28] = a5\n 11441: u64 [a3 + 0x30] = a4\n 11444: u64 [a3 + 0x38] = a0\n 11447: u64 [a3 + 0x40] = a1\n 11450: a1 = s1 + 0x7ff\n 11454: a1 = a1 + 0x7a1\n 11458: a0 = u64 [s1 + 0xe8]\n 11462: ra = 310, jump @22\n      : @375 [@dyn 155] (gas: 3)\n 11468: a0 = s1 + 0x5e0\n 11472: a1 = 0x40\n 11475: ra = 312, jump @17\n      : @376 [@dyn 156] (gas: 6)\n 11481: a4 = s1 + 0x500\n 11485: a0 = u64 [a4 + 0xf8]\n 11489: a1 = u64 [a4 + 0xf0]\n 11493: a2 = u64 [a4 + 0xe8]\n 11497: a3 = u64 [a4 + 0xe0]\n 11501: t0 = 314, jump @665\n      : @377 [@dyn 157] (gas: 1)\n 11507: jump @447 if a0 != 0\n      : @378 (gas: 9)\n 11511: u64 [s1 + 1496] = 0\n 11515: u64 [s1 + 1488] = 0\n 11519: u64 [s1 + 1480] = 0x5\n 11524: a0 = 0x6bc75e2d63100000\n 11534: a1 = s1 + 0x5c0\n 11538: u64 [s1 + 0x5c0] = a0\n 11542: a0 = a3\n 11544: u64 [s1 + 0xf0] = a3\n 11548: ra = 316, jump @19\n      : @379 [@dyn 158] (gas: 6)\n 11554: a0 = u64 [s1 + 0xe0]\n 11558: ra = 0x13e\n 11562: ecalli 3 // 'caller'\n 11564: a2 = u64 [s1 + 0xf8]\n 11568: t0 = 0x140\n 11572: jump @668\n      : @380 [@dyn 159] (gas: 2)\n 11575: a2 = u64 [s1 + 0xf8]\n 11579: t0 = 320, jump @668\n      : @381 [@dyn 160] (gas: 29)\n 11585: t0 = a1 | a0\n 11588: a3 = a3 >> 0x20\n 11591: a2 = reverse a2\n 11593: a1 = a2 << 0x20\n 11596: a1 = a1 | a3\n 11599: a2 = a2 >> 0x20\n 11602: u64 [s1 + 1400] = 0\n 11606: u64 [s1 + 1432] = 0\n 11610: u64 [s1 + 1424] = 0\n 11614: u64 [s1 + 1416] = 0\n 11618: u64 [s1 + 1408] = 0\n 11622: a3 = u64 [0x20028]\n 11627: a4 = u64 [0x20030]\n 11632: a5 = u64 [0x20038]\n 11637: a0 = u64 [0x20040]\n 11642: u64 [s1 + 0x5b8] = a3\n 11646: a3 = s1 + 0x500\n 11650: u64 [a3 + 0xb0] = a4\n 11654: u64 [a3 + 0xa8] = a5\n 11658: u64 [a3 + 0xa0] = a0\n 11662: u64 [a3 + 0x70] = a2\n 11665: u64 [a3 + 0x68] = a1\n 11668: a1 = 0x20\n 11671: a2 = s1 + 0x5a0\n 11675: a3 = s1 + 0x580\n 11679: a4 = s1 + 0x560\n 11683: u64 [s1 + 0x560] = t0\n 11687: a0 = u64 [s1 + 0xf0]\n 11691: ra = 322, jump @23\n      : @382 [@dyn 161] (gas: 6)\n 11697: a0 = 0\n 11699: a1 = u64 [s1 + 0xd0]\n 11703: a2 = 0\n 11705: ecalli 7 // 'seal_return'\n 11707: a1 = 0x200c0\n 11712: jump @457\n      : @383 (gas: 8)\n 11715: u64 [a2 + 1696] = 0\n 11719: u64 [a2 + 1688] = 0\n 11723: u64 [a2 + 1680] = 0\n 11727: u64 [a2 + 1672] = 0\n 11731: a0 = s1 + 0x1000\n 11735: i32 a0 = a0 + 0xffffffffffffff00\n 11739: ecalli 10 // 'value_transferred'\n 11741: fallthrough\n      : @384 (gas: 11)\n 11742: a4 = s1 + 0x7ff\n 11746: a4 = a4 + 0x79\n 11749: a5 = a4 + 0x600\n 11753: a0 = u64 [a5 + 0x98]\n 11757: a1 = u64 [a5 + 0xa0]\n 11761: a2 = u64 [a5 + 0x90]\n 11765: a3 = u64 [a5 + 0x88]\n 11769: a1 = a1 | a2\n 11772: a0 = a0 | a3\n 11775: a0 = a0 | a1\n 11778: jump @502 if a0 != 0\n      : @385 (gas: 3)\n 11782: a0 = u64 [s1 + 0xf8]\n 11786: a0 = i32 [a0]\n 11788: jump @503 if a0 <=u 3\n      : @386 (gas: 8)\n 11793: u64 [a4 + 1728] = 0\n 11797: u64 [a4 + 1720] = 0\n 11801: u64 [a4 + 1712] = 0\n 11805: u64 [a4 + 1704] = 0x2\n 11810: a0 = s1 + 0x4c0\n 11814: a1 = s1 + 0x7ff\n 11818: a1 = a1 + 0x721\n 11822: ra = 324, jump @21\n      : @387 [@dyn 162] (gas: 11)\n 11828: a0 = u64 [s1 + 0x4d8]\n 11832: u64 [s1 + 0xf8] = a0\n 11836: a0 = u64 [s1 + 0x4d0]\n 11840: u64 [s1 + 0xf0] = a0\n 11844: a0 = u64 [s1 + 0x4c8]\n 11848: u64 [s1 + 0xe8] = a0\n 11852: a0 = u64 [s1 + 0x4c0]\n 11856: u64 [s1 + 0xe0] = a0\n 11860: a0 = s1 + 0x4a0\n 11864: a1 = 0x40\n 11867: ra = 326, jump @17\n      : @388 [@dyn 163] (gas: 6)\n 11873: a4 = s1 + 0x400\n 11877: a0 = u64 [a4 + 0xb8]\n 11881: a1 = u64 [a4 + 0xb0]\n 11885: a2 = u64 [a4 + 0xa8]\n 11889: a3 = u64 [a4 + 0xa0]\n 11893: t0 = 328, jump @665\n      : @389 [@dyn 164] (gas: 1)\n 11899: jump @447 if a0 != 0\n      : @390 (gas: 14)\n 11903: a0 = u64 [s1 + 0xe0]\n 11907: a2 = s1 + 0x400\n 11911: u64 [a2 + 0x80] = a0\n 11915: a0 = u64 [s1 + 0xe8]\n 11919: u64 [a2 + 0x88] = a0\n 11923: a0 = u64 [s1 + 0xf0]\n 11927: u64 [a2 + 0x90] = a0\n 11931: a1 = s1 + 0x480\n 11935: a0 = u64 [s1 + 0xf8]\n 11939: u64 [a2 + 0x98] = a0\n 11943: a0 = a3\n 11945: u64 [s1 + 0xf8] = a3\n 11949: ra = 0x172\n 11953: jump @19\n      : @391 (gas: 9)\n 11956: a0 = s1 + 0x1078\n 11960: u64 [a0 + 160] = 0\n 11964: u64 [a0 + 152] = 0\n 11968: u64 [a0 + 144] = 0\n 11972: u64 [a0 + 136] = 0\n 11976: a0 = s1 + 0x1000\n 11980: i32 a0 = a0 + 0x100\n 11984: ecalli 10 // 'value_transferred'\n 11986: fallthrough\n      : @392 (gas: 9)\n 11987: a3 = s1 + 0x1078\n 11991: a0 = u64 [a3 + 0x98]\n 11995: a1 = u64 [a3 + 0xa0]\n 11999: a2 = u64 [a3 + 0x90]\n 12003: a3 = u64 [a3 + 0x88]\n 12007: a1 = a1 | a2\n 12010: a0 = a0 | a3\n 12013: a0 = a0 | a1\n 12016: jump @504 if a0 != 0\n      : @393 (gas: 4)\n 12020: a0 = u64 [s1 + 0xf8]\n 12024: a0 = i32 [a0]\n 12026: a1 = 0x43\n 12029: jump @505 if a1 >=u a0\n      : @394 (gas: 7)\n 12033: a0 = 0xffffffff\n 12043: u64 [s1 + 0xf8] = a0\n 12047: a0 = s1 + 0x7ff\n 12051: a0 = a0 + 0x621\n 12055: ra = 0x14a\n 12059: t0 = 0x1ea\n 12063: jump @670\n      : @395 [@dyn 165] (gas: 13)\n 12066: a1 = s1 + 0x7ff\n 12070: a1 = a1 + 0x79\n 12073: a0 = u64 [a1 + 0x5a8]\n 12077: u64 [s1 + 0xf0] = a0\n 12081: a0 = u64 [a1 + 0x5b0]\n 12085: u64 [s1 + 0xd0] = a0\n 12089: a0 = u32 [a1 + 0x5b8]\n 12093: u64 [s1 + 0xc8] = a0\n 12097: a0 = s1 + 0x7ff\n 12101: a0 = a0 + 0x601\n 12105: ra = 0x14c\n 12109: t0 = 0x1f4\n 12113: jump @670\n      : @396 [@dyn 166] (gas: 21)\n 12116: a1 = s1 + 0x7ff\n 12120: a1 = a1 + 0x79\n 12123: a2 = a1 + 0x500\n 12127: a0 = u64 [a2 + 0x98]\n 12131: u64 [s1 + 0xe8] = a0\n 12135: a0 = u64 [a2 + 0x90]\n 12139: u64 [s1 + 0xe0] = a0\n 12143: a0 = u64 [a2 + 0x88]\n 12147: u64 [s1 + 0xd8] = a0\n 12151: u64 [a1 + 1408] = 0\n 12155: a0 = u64 [s1 + 0xc8]\n 12159: u64 [a2 + 0x78] = a0\n 12162: a0 = u64 [s1 + 0xd0]\n 12166: u64 [a2 + 0x70] = a0\n 12169: a2 = a1\n 12171: a1 = s1 + 0x7ff\n 12175: a1 = a1 + 0x5e1\n 12179: a0 = u64 [s1 + 0xf0]\n 12183: u64 [a2 + 0x568] = a0\n 12187: a0 = 0\n 12189: ra = 334, jump @19\n      : @397 [@dyn 167] (gas: 11)\n 12195: a1 = s1 + 0x7ff\n 12199: a1 = a1 + 0x79\n 12202: u64 [a1 + 1376] = 0\n 12206: u64 [a1 + 1368] = 0\n 12210: u64 [a1 + 1352] = 0x1\n 12215: a2 = a1\n 12217: a0 = 0x20\n 12220: a1 = s1 + 0x7ff\n 12224: a1 = a1 + 0x5c1\n 12228: u64 [a2 + 1360] = 0\n 12232: ra = 336, jump @19\n      : @398 [@dyn 168] (gas: 3)\n 12238: a1 = 0x200ac\n 12243: a0 = i32 [0x200ac]\n 12248: jump @400 if a0 >u 63\n      : @399 (gas: 2)\n 12252: u32 [0x200ac] = 0x40\n 12258: fallthrough\n      : @400 (gas: 15)\n 12259: a0 = sp + 0xffffffffffffffe0\n 12262: a2 = a0 & 0xffffffffffffffe0\n 12265: u64 [s1 + 0xc8] = a2\n 12269: sp = a2\n 12271: a0 = 0x200c0\n 12276: i32 a0 = a0 + 0\n 12278: i32 a2 = a2 + 0\n 12280: u64 [s1 + 0xf0] = a1\n 12284: a1 = 0x40\n 12287: u64 [s1 + 0xd0] = a0\n 12291: ra = 0x152\n 12295: ecalli 6 // 'hash_keccak_256'\n 12297: a3 = u64 [s1 + 0xc8]\n 12301: t0 = 0x154\n 12305: jump @671\n      : @401 [@dyn 169] (gas: 2)\n 12308: a3 = u64 [s1 + 0xc8]\n 12312: t0 = 340, jump @671\n      : @402 [@dyn 170] (gas: 29)\n 12318: u64 [s1 + 0xc0] = a0\n 12322: a0 = reverse a1\n 12324: u64 [s1 + 0xb8] = a0\n 12328: a0 = reverse a2\n 12330: u64 [s1 + 0xb0] = a0\n 12334: a0 = reverse a3\n 12336: u64 [s1 + 0xa8] = a0\n 12340: a0 = sp + 0xffffffffffffffe0\n 12343: a0 = a0 & 0xffffffffffffffe0\n 12346: u64 [s1 + 0xc8] = a0\n 12350: sp = a0\n 12352: a0 = u64 [s1 + 0xd8]\n 12356: a0 = a0 & 0xffffffffffffffff\n 12359: a2 = u64 [s1 + 0xe0]\n 12363: a1 = a2 & 0xffffffffffffffff\n 12366: a2 = u64 [s1 + 0xf8]\n 12370: a3 = u64 [s1 + 0xe8]\n 12374: a2 = a2 & a3\n 12377: a3 = s1 + 0x7ff\n 12381: a3 = a3 + 0x79\n 12384: u64 [a3 + 1344] = 0\n 12388: a4 = a3 + 0x500\n 12392: u64 [a4 + 0x38] = a2\n 12395: u64 [a4 + 0x30] = a1\n 12398: a1 = s1 + 0x7ff\n 12402: a1 = a1 + 0x5a1\n 12406: u64 [a4 + 0x28] = a0\n 12409: a0 = 0\n 12411: ra = 342, jump @19\n      : @403 [@dyn 171] (gas: 16)\n 12417: a0 = u64 [s1 + 0xa8]\n 12421: a1 = s1 + 0x7ff\n 12425: a1 = a1 + 0x79\n 12428: a2 = a1 + 0x500\n 12432: u64 [a2 + 0x20] = a0\n 12435: a0 = u64 [s1 + 0xb0]\n 12439: u64 [a2 + 0x18] = a0\n 12442: a0 = u64 [s1 + 0xb8]\n 12446: u64 [a2 + 0x10] = a0\n 12449: a3 = a1\n 12451: a0 = 0x20\n 12454: a1 = s1 + 0x7ff\n 12458: a1 = a1 + 0x581\n 12462: a2 = u64 [s1 + 0xc0]\n 12466: u64 [a3 + 0x508] = a2\n 12470: ra = 344, jump @19\n      : @404 [@dyn 172] (gas: 3)\n 12476: a1 = u64 [s1 + 0xf0]\n 12480: a0 = i32 [a1]\n 12482: jump @406 if a0 >u 63\n      : @405 (gas: 2)\n 12486: u32 [a1 + 0] = 0x40\n 12489: fallthrough\n      : @406 (gas: 12)\n 12490: a0 = sp + 0xffffffffffffffe0\n 12493: a0 = a0 & 0xffffffffffffffe0\n 12496: u64 [s1 + 0xf8] = a0\n 12500: sp = a0\n 12502: i32 a2 = a0 + 0\n 12504: a1 = 0x40\n 12507: a0 = u64 [s1 + 0xd0]\n 12511: ra = 0x15a\n 12515: ecalli 6 // 'hash_keccak_256'\n 12517: a3 = u64 [s1 + 0xf8]\n 12521: t0 = 0x15c\n 12525: jump @655\n      : @407 [@dyn 173] (gas: 2)\n 12528: a3 = u64 [s1 + 0xf8]\n 12532: t0 = 348, jump @655\n      : @408 [@dyn 174] (gas: 8)\n 12538: a1 = u64 [s1 + 0xc8]\n 12542: u64 [a1 + 0x18] = a3\n 12545: u64 [a1 + 0x10] = a2\n 12548: u64 [a1 + 0x8] = a4\n 12551: u64 [a1] = a0\n 12553: a0 = s1 + 0x7ff\n 12557: a0 = a0 + 0x561\n 12561: ra = 350, jump @21\n      : @409 [@dyn 175] (gas: 15)\n 12567: a1 = s1 + 0x7ff\n 12571: a1 = a1 + 0x79\n 12574: a0 = u64 [a1 + 0x500]\n 12578: u64 [s1 + 0xf8] = a0\n 12582: a2 = a1 + 0x400\n 12586: a0 = u64 [a2 + 0xf8]\n 12590: u64 [s1 + 0xf0] = a0\n 12594: a0 = u64 [a2 + 0xf0]\n 12598: u64 [s1 + 0xe8] = a0\n 12602: a0 = u64 [a2 + 0xe8]\n 12606: u64 [s1 + 0xe0] = a0\n 12610: a0 = s1 + 0x7ff\n 12614: a0 = a0 + 0x541\n 12618: a1 = 0x40\n 12621: ra = 352, jump @17\n      : @410 [@dyn 176] (gas: 15)\n 12627: a3 = s1 + 0x7ff\n 12631: a3 = a3 + 0x79\n 12634: a5 = a3 + 0x400\n 12638: a0 = u64 [a5 + 0xe0]\n 12642: a1 = u64 [a5 + 0xd8]\n 12646: a2 = u64 [a5 + 0xd0]\n 12650: a4 = u64 [a5 + 0xc8]\n 12654: a0 = a0 | a2\n 12657: a2 = a4 | a1\n 12660: a2 = a2 | a0\n 12663: a2 = a2 >> 0x20\n 12666: a0 = a0 | a1\n 12669: a0 = a0 << 0x20\n 12672: a0 = a0 | a2\n 12675: jump @447 if a0 != 0\n      : @411 (gas: 15)\n 12679: a0 = u64 [s1 + 0xe0]\n 12683: a2 = a3 + 0x400\n 12687: u64 [a2 + 0xa8] = a0\n 12691: a0 = u64 [s1 + 0xe8]\n 12695: u64 [a2 + 0xb0] = a0\n 12699: a0 = u64 [s1 + 0xf0]\n 12703: u64 [a2 + 0xb8] = a0\n 12707: a1 = s1 + 0x7ff\n 12711: a1 = a1 + 0x521\n 12715: a0 = u64 [s1 + 0xf8]\n 12719: u64 [a2 + 0xc0] = a0\n 12723: a0 = a4\n 12725: u64 [s1 + 0xf8] = a4\n 12729: ra = 0x172\n 12733: jump @19\n      : @412 (gas: 9)\n 12736: a0 = s1 + 0x1078\n 12740: u64 [a0 + 96] = 0\n 12743: u64 [a0 + 88] = 0\n 12746: u64 [a0 + 80] = 0\n 12749: u64 [a0 + 72] = 0\n 12752: a0 = s1 + 0x1000\n 12756: i32 a0 = a0 + 0xc0\n 12760: ecalli 10 // 'value_transferred'\n 12762: fallthrough\n      : @413 (gas: 9)\n 12763: a3 = s1 + 0x1078\n 12767: a0 = u64 [a3 + 0x58]\n 12770: a1 = u64 [a3 + 0x60]\n 12773: a2 = u64 [a3 + 0x50]\n 12776: a3 = u64 [a3 + 0x48]\n 12779: a1 = a1 | a2\n 12782: a0 = a0 | a3\n 12785: a0 = a0 | a1\n 12788: jump @506 if a0 != 0\n      : @414 (gas: 4)\n 12792: a0 = u64 [s1 + 0xf8]\n 12796: a0 = i32 [a0]\n 12798: a1 = 0x43\n 12801: jump @507 if a1 >=u a0\n      : @415 (gas: 5)\n 12805: a0 = s1 + 0x7ff\n 12809: a0 = a0 + 0x501\n 12813: ra = 0x162\n 12817: t0 = 0x1ea\n 12821: jump @670\n      : @416 [@dyn 177] (gas: 72)\n 12824: a1 = s1 + 0x7ff\n 12828: a1 = a1 + 0x79\n 12831: a2 = a1 + 0x400\n 12835: a0 = u64 [a2 + 0x88]\n 12839: u64 [s1 + 0xf8] = a0\n 12843: a0 = u64 [a2 + 0x90]\n 12847: u64 [s1 + 0xf0] = a0\n 12851: a0 = u64 [a2 + 0x98]\n 12855: u64 [s1 + 0xe8] = a0\n 12859: a0 = u64 [a2 + 0xa0]\n 12863: u64 [s1 + 0xe0] = a0\n 12867: a0 = s1 + 0x1000\n 12871: i32 a0 = a0 + 0xe0\n 12875: a1 = 0x24\n 12878: ecalli 1 // 'call_data_load'\n 12880: a0 = s1 + 0x1078\n 12884: a1 = u64 [a0 + 0x68]\n 12887: u64 [s1 + 0xd8] = a1\n 12891: a1 = u64 [a0 + 0x70]\n 12894: u64 [s1 + 0xd0] = a1\n 12898: a1 = u64 [a0 + 0x78]\n 12901: u64 [s1 + 0xc8] = a1\n 12905: a0 = u64 [a0 + 0x80]\n 12909: u64 [s1 + 0xc0] = a0\n 12913: a0 = 0x300c0\n 12918: u64 [s1 + 0xb8] = a0\n 12922: i32 a0 = a0 + 0\n 12924: ecalli 3 // 'caller'\n 12926: a2 = u64 [s1 + 0xb8]\n 12930: a0 = u64 [a2 + 0x8]\n 12933: a1 = i32 [a2 + 0x10]\n 12936: a2 = u64 [a2]\n 12938: a0 = reverse a0\n 12940: a3 = a0 << 0x20\n 12943: a1 = reverse a1\n 12945: a1 = a1 >> 0x20\n 12948: a1 = a1 | a3\n 12951: a0 = a0 >> 0x20\n 12954: a2 = reverse a2\n 12956: a3 = a2 << 0x20\n 12959: a0 = a0 | a3\n 12962: a2 = a2 >> 0x20\n 12965: a3 = s1 + 0x7ff\n 12969: a3 = a3 + 0x79\n 12972: a4 = u64 [s1 + 0xc0]\n 12976: a5 = a3 + 0x400\n 12980: u64 [a5 + 0x40] = a4\n 12983: a4 = u64 [s1 + 0xc8]\n 12987: u64 [a5 + 0x38] = a4\n 12990: a4 = u64 [s1 + 0xd0]\n 12994: u64 [a5 + 0x30] = a4\n 12997: a4 = u64 [s1 + 0xd8]\n 13001: u64 [a5 + 0x28] = a4\n 13004: a4 = u64 [s1 + 0xe0]\n 13008: u64 [a5 + 0x60] = a4\n 13011: a4 = u64 [s1 + 0xe8]\n 13015: u64 [a5 + 0x58] = a4\n 13018: a4 = u64 [s1 + 0xf0]\n 13022: u64 [a5 + 0x50] = a4\n 13025: a4 = u64 [s1 + 0xf8]\n 13029: u64 [a5 + 0x48] = a4\n 13032: u64 [a5 + 0x78] = a2\n 13035: u64 [a5 + 0x70] = a0\n 13038: u64 [a5 + 0x68] = a1\n 13041: a0 = s1 + 0x7ff\n 13045: a0 = a0 + 0x4e1\n 13049: a1 = s1 + 0x7ff\n 13053: a1 = a1 + 0x4c1\n 13057: a2 = s1 + 0x7ff\n 13061: a2 = a2 + 0x4a1\n 13065: u64 [a3 + 1152] = 0\n 13069: ra = 356, jump @601\n      : @417 [@dyn 178] (gas: 4)\n 13075: a0 = s1 + 0x7ff\n 13079: a0 = a0 + 0x481\n 13083: a1 = 0x40\n 13086: ra = 358, jump @17\n      : @418 [@dyn 179] (gas: 15)\n 13092: a3 = s1 + 0x7ff\n 13096: a3 = a3 + 0x79\n 13099: a5 = a3 + 0x400\n 13103: a4 = u64 [a5 + 0x20]\n 13106: a1 = u64 [a5 + 0x18]\n 13109: a2 = u64 [a5 + 0x10]\n 13112: a0 = u64 [a5 + 0x8]\n 13115: a4 = a4 | a2\n 13118: a2 = a0 | a1\n 13121: a2 = a2 | a4\n 13124: a2 = a2 >> 0x20\n 13127: a1 = a1 | a4\n 13130: a1 = a1 << 0x20\n 13133: a1 = a1 | a2\n 13136: jump @447 if a1 != 0\n      : @419 (gas: 9)\n 13140: u64 [a3 + 1024] = 0\n 13144: u64 [a3 + 1016] = 0\n 13148: u64 [a3 + 1000] = 0x1\n 13153: a1 = s1 + 0x7ff\n 13157: a1 = a1 + 0x461\n 13161: u64 [a3 + 1008] = 0\n 13165: u64 [s1 + 0xf8] = a0\n 13169: ra = 0x172\n 13173: jump @19\n      : @420 (gas: 1)\n 13176: jump @456 if a0 != 1889567281\n      : @421 (gas: 8)\n 13184: u64 [a2 + 2016] = 0\n 13188: u64 [a2 + 2008] = 0\n 13192: u64 [a2 + 2000] = 0\n 13196: u64 [a2 + 1992] = 0\n 13200: a0 = s1 + 0x1000\n 13204: i32 a0 = a0 + 0x40\n 13207: ecalli 10 // 'value_transferred'\n 13209: fallthrough\n      : @422 (gas: 11)\n 13210: a3 = s1 + 0x7ff\n 13214: a3 = a3 + 0x79\n 13217: a4 = a3 + 0x700\n 13221: a0 = u64 [a4 + 0xd8]\n 13225: a1 = u64 [a4 + 0xe0]\n 13229: a2 = u64 [a4 + 0xd0]\n 13233: a3 = u64 [a4 + 0xc8]\n 13237: a1 = a1 | a2\n 13240: a0 = a0 | a3\n 13243: a0 = a0 | a1\n 13246: jump @508 if a0 != 0\n      : @423 (gas: 4)\n 13250: a0 = u64 [s1 + 0xf8]\n 13254: a0 = i32 [a0]\n 13256: a1 = 0x23\n 13259: jump @509 if a1 >=u a0\n      : @424 (gas: 5)\n 13263: a0 = s1 + 0x7ff\n 13267: a0 = a0 + 0x261\n 13271: ra = 0x168\n 13275: t0 = 0x1ea\n 13279: jump @670\n      : @425 [@dyn 180] (gas: 14)\n 13282: a3 = s1 + 0x7ff\n 13286: a3 = a3 + 0x79\n 13289: a4 = a3 + 0x100\n 13293: a0 = u64 [a4 + 0xe8]\n 13297: a1 = u64 [a4 + 0xf0]\n 13301: a2 = u32 [a3 + 0x1f8]\n 13305: u64 [a3 + 480] = 0\n 13309: u64 [a4 + 0xd8] = a2\n 13313: u64 [a4 + 0xd0] = a1\n 13317: a1 = s1 + 0x7ff\n 13321: a1 = a1 + 0x241\n 13325: u64 [a4 + 0xc8] = a0\n 13329: a0 = 0\n 13331: ra = 362, jump @19\n      : @426 [@dyn 181] (gas: 11)\n 13337: a0 = s1 + 0x7ff\n 13341: a0 = a0 + 0x79\n 13344: u64 [a0 + 448] = 0\n 13348: u64 [a0 + 440] = 0\n 13352: u64 [a0 + 432] = 0\n 13356: a2 = a0\n 13358: a0 = 0x20\n 13361: a1 = s1 + 0x7ff\n 13365: a1 = a1 + 0x221\n 13369: u64 [a2 + 424] = 0\n 13373: ra = 364, jump @19\n      : @427 [@dyn 182] (gas: 2)\n 13379: a1 = i32 [0x200ac]\n 13384: jump @429 if a1 >u 63\n      : @428 (gas: 2)\n 13388: u32 [0x200ac] = 0x40\n 13394: fallthrough\n      : @429 (gas: 28)\n 13395: a0 = sp + 0xffffffffffffffe0\n 13398: a2 = a0 & 0xffffffffffffffe0\n 13401: u64 [s1 + 0xf8] = a2\n 13405: sp = a2\n 13407: a0 = 0x200c0\n 13412: i32 a0 = a0 + 0\n 13414: i32 a2 = a2 + 0\n 13416: a1 = 0x40\n 13419: ecalli 6 // 'hash_keccak_256'\n 13421: a3 = u64 [s1 + 0xf8]\n 13425: a0 = u64 [a3 + 0x18]\n 13428: a1 = u64 [a3 + 0x10]\n 13431: a2 = u64 [a3 + 0x8]\n 13434: a3 = u64 [a3]\n 13436: a0 = reverse a0\n 13438: a1 = reverse a1\n 13440: a2 = reverse a2\n 13442: a3 = reverse a3\n 13444: a4 = s1 + 0x1078\n 13448: u64 [a4] = a3\n 13450: a3 = a4 + 0xffffffffffffff00\n 13454: u64 [a3 + 0xf8] = a2\n 13458: u64 [a3 + 0xf0] = a1\n 13462: u64 [a3 + 0xe8] = a0\n 13466: a0 = s1 + 0x7ff\n 13470: a0 = a0 + 0x201\n 13474: a1 = s1 + 0x1060\n 13478: ra = 366, jump @21\n      : @430 [@dyn 183] (gas: 15)\n 13484: a1 = s1 + 0x7ff\n 13488: a1 = a1 + 0x79\n 13491: a2 = a1 + 0x100\n 13495: a0 = u64 [a2 + 0xa0]\n 13499: u64 [s1 + 0xf8] = a0\n 13503: a0 = u64 [a2 + 0x98]\n 13507: u64 [s1 + 0xf0] = a0\n 13511: a0 = u64 [a2 + 0x90]\n 13515: u64 [s1 + 0xe8] = a0\n 13519: a0 = u64 [a2 + 0x88]\n 13523: u64 [s1 + 0xe0] = a0\n 13527: a0 = s1 + 0x7ff\n 13531: a0 = a0 + 0x1e1\n 13535: a1 = 0x40\n 13538: ra = 368, jump @17\n      : @431 [@dyn 184] (gas: 15)\n 13544: a3 = s1 + 0x7ff\n 13548: a3 = a3 + 0x79\n 13551: a5 = a3 + 0x100\n 13555: a0 = u64 [a5 + 0x80]\n 13559: a1 = u64 [a5 + 0x78]\n 13562: a2 = u64 [a5 + 0x70]\n 13565: a4 = u64 [a5 + 0x68]\n 13568: a0 = a0 | a2\n 13571: a2 = a4 | a1\n 13574: a2 = a2 | a0\n 13577: a2 = a2 >> 0x20\n 13580: a0 = a0 | a1\n 13583: a0 = a0 << 0x20\n 13586: a0 = a0 | a2\n 13589: jump @447 if a0 != 0\n      : @432 (gas: 14)\n 13593: a0 = u64 [s1 + 0xe0]\n 13597: a2 = a3 + 0x100\n 13601: u64 [a2 + 0x48] = a0\n 13604: a0 = u64 [s1 + 0xe8]\n 13608: u64 [a2 + 0x50] = a0\n 13611: a0 = u64 [s1 + 0xf0]\n 13615: u64 [a2 + 0x58] = a0\n 13618: a1 = s1 + 0x7ff\n 13622: a1 = a1 + 0x1c1\n 13626: a0 = u64 [s1 + 0xf8]\n 13630: u64 [a2 + 0x60] = a0\n 13633: a0 = a4\n 13635: u64 [s1 + 0xf8] = a4\n 13639: ra = 370, jump @19\n      : @433 [@dyn 185] (gas: 3)\n 13645: a1 = 0x20\n 13648: a0 = u64 [s1 + 0xf8]\n 13652: ra = 372, jump @26\n      : @434 [@dyn 186] (gas: 5)\n 13658: i32 a1 = a0 + 0\n 13660: a2 = 0x20\n 13663: a0 = 0\n 13665: ecalli 7 // 'seal_return'\n 13667: fallthrough\n      : @435 (gas: 7)\n 13668: u64 [s1 + 568] = 0\n 13672: u64 [s1 + 560] = 0\n 13676: u64 [s1 + 552] = 0\n 13680: a1 = s1 + 0x220\n 13684: u64 [s1 + 544] = 0x3\n 13689: a0 = 0\n 13691: ra = 374, jump @19\n      : @436 [@dyn 187] (gas: 21)\n 13697: a0 = sp + 0xffffffffffffffe0\n 13700: a1 = a0 & 0xffffffffffffffe0\n 13703: sp = a1\n 13705: u64 [s1 + 248] = 0\n 13709: a5 = 0\n 13711: t2 = 0\n 13713: t0 = 0\n 13715: t1 = u64 [0x20068]\n 13720: a2 = u64 [0x20070]\n 13725: ra = u64 [0x20078]\n 13730: a0 = u64 [0x20080]\n 13735: u64 [a1 + 0x18] = t1\n 13738: u64 [s1 + 0xd8] = a2\n 13742: u64 [a1 + 0x10] = a2\n 13745: u64 [a1 + 0x8] = ra\n 13748: a2 = a0\n 13750: u64 [a1] = a0\n 13752: a0 = 0xffffff60\n 13762: u64 [s1 + 0x98] = a0\n 13766: u64 [s1 + 0x90] = a1\n 13770: fallthrough\n      : @437 (gas: 19)\n 13771: u64 [s1 + 0xd0] = a2\n 13775: a0 = u64 [s1 + 0xb8]\n 13779: a2 = u64 [s1 + 0xf8]\n 13783: a0 = a2 <u a0\n 13786: a2 = u64 [s1 + 0xa8]\n 13790: a3 = a5 ^ a2\n 13793: u64 [s1 + 0xf0] = a5\n 13797: a2 = a5 <u a2\n 13800: a2 = a0 if a3 == 0\n 13803: a4 = u64 [s1 + 0xb0]\n 13807: a0 = t2 <u a4\n 13810: a3 = u64 [s1 + 0xa0]\n 13814: a5 = t0 ^ a3\n 13817: a3 = t0 <u a3\n 13820: a3 = a0 if a5 == 0\n 13823: a0 = t2 ^ a4\n 13826: a0 = a0 | a5\n 13829: a3 = a2 if a0 == 0\n 13832: jump @442 if a3 == 0\n      : @438 (gas: 6)\n 13836: a0 = s1 + 0x200\n 13840: u64 [s1 + 0xe8] = t0\n 13844: u64 [s1 + 0xc8] = t1\n 13848: u64 [s1 + 0xe0] = t2\n 13852: u64 [s1 + 0xc0] = ra\n 13856: ra = 376, jump @21\n      : @439 [@dyn 188] (gas: 10)\n 13862: a5 = u64 [s1 + 0xe0]\n 13866: a0 = u64 [s1 + 0xe8]\n 13870: a0 = a0 | a5\n 13873: a1 = u64 [s1 + 0xf8]\n 13877: a2 = u64 [s1 + 0x98]\n 13881: a1 = a1 <u a2\n 13884: a2 = u64 [s1 + 0xf0]\n 13888: a1 = 0 if a2 != 0\n 13890: a1 = 0 if a0 != 0\n 13892: jump @447 if a1 == 0\n      : @440 (gas: 14)\n 13896: t0 = u64 [s1 + 0x218]\n 13900: a0 = s1 + 0x200\n 13904: a1 = u64 [a0 + 0x10]\n 13907: a3 = u64 [a0 + 0x8]\n 13910: a4 = u64 [a0]\n 13912: a0 = u64 [s1 + 0xf8]\n 13916: i32 a0 = a0 + 0xa0\n 13920: a2 = s1 + 0x100\n 13924: u64 [a2 + 0xe0] = a4\n 13928: u64 [a2 + 0xe8] = a3\n 13932: u64 [a2 + 0xf0] = a1\n 13936: a1 = s1 + 0x1e0\n 13940: u64 [s1 + 0x1f8] = t0\n 13944: ra = 378, jump @19\n      : @441 [@dyn 189] (gas: 36)\n 13950: t0 = u64 [s1 + 0xe8]\n 13954: a5 = u64 [s1 + 0xd0]\n 13958: a5 = a5 + 0x1\n 13961: a0 = a5 <u 0x1\n 13964: ra = u64 [s1 + 0xc0]\n 13968: ra = ra + a0\n 13971: a0 = a5 | ra\n 13974: a0 = a0 <u 0x1\n 13977: a1 = u64 [s1 + 0xd8]\n 13981: a0 = a0 + a1\n 13984: a1 = a0 <u a1\n 13987: a3 = u64 [s1 + 0xc8]\n 13991: a3 = a3 + a1\n 13994: a1 = u64 [s1 + 0xf8]\n 13998: t1 = a1 + 0x20\n 14001: a2 = t1 <u a1\n 14004: a4 = u64 [s1 + 0xf0]\n 14008: t2 = a4 + a2\n 14011: a4 = t2 <u a4\n 14014: a4 = a2 if a2 == 0\n 14017: a1 = u64 [s1 + 0xe0]\n 14021: a4 = a4 + a1\n 14024: a2 = a4 <u a1\n 14027: t0 = t0 + a2\n 14030: a1 = u64 [s1 + 0x90]\n 14034: u64 [a1 + 0x8] = ra\n 14037: a2 = a5\n 14039: u64 [a1] = a5\n 14041: u64 [a1 + 0x10] = a0\n 14044: u64 [a1 + 0x18] = a3\n 14047: u64 [s1 + 0xd8] = a0\n 14051: u64 [s1 + 0xf8] = t1\n 14055: a5 = t2\n 14057: t2 = a4\n 14059: t1 = a3\n 14061: jump @437\n      : @442 (gas: 11)\n 14064: a0 = u64 [s1 + 0xf8]\n 14068: a3 = a0 + 0xa0\n 14072: a0 = a3 <u a0\n 14075: a2 = u64 [s1 + 0xf0]\n 14079: a1 = a2 + a0\n 14082: a2 = a1 <u a2\n 14085: a2 = a0 if a0 == 0\n 14088: a0 = t2 + a2\n 14091: a2 = a0 <u t2\n 14094: t0 = t0 + a2\n 14097: fallthrough\n      : @443 (gas: 37)\n 14098: t1 = a3 + 0xffffffffffffff9f\n 14101: a3 = t1 <u a3\n 14104: a5 = a1 + a3\n 14107: a5 = a5 + 0xffffffffffffffff\n 14110: u64 [s1 + 0xd8] = a5\n 14114: a2 = a5 ^ a1\n 14117: a1 = a5 <u a1\n 14120: a1 = a3 if a2 == 0\n 14123: a3 = a0 + 0xffffffffffffffff\n 14126: a4 = a3 + a1\n 14129: a1 = a4 <u a3\n 14132: a0 = a0 <u 0x1\n 14135: a2 = t0 - a0\n 14138: t0 = a2 + a1\n 14141: u64 [s1 + 0xc0] = t0\n 14145: a0 = t1 & 0xffffffffffffffe0\n 14148: u64 [s1 + 0xd0] = a0\n 14152: a3 = a0 + 0x80\n 14156: u64 [s1 + 0xf8] = a3\n 14160: a0 = a3 <u a0\n 14163: a2 = a5 + a0\n 14166: u64 [s1 + 0xf0] = a2\n 14170: a1 = a2 <u a5\n 14173: a1 = a0 if a0 == 0\n 14176: u64 [s1 + 0xc8] = a4\n 14180: a1 = a1 + a4\n 14183: u64 [s1 + 0xe8] = a1\n 14187: a0 = a1 <u a4\n 14190: t0 = t0 + a0\n 14193: u64 [s1 + 0xe0] = t0\n 14197: u64 [s1 + 0x1a0] = a3\n 14201: u64 [s1 + 0x1a8] = a2\n 14205: u64 [s1 + 0x1b0] = a1\n 14209: a0 = 0x40\n 14212: a1 = s1 + 0x1a0\n 14216: u64 [s1 + 0x1b8] = t0\n 14220: ra = 380, jump @19\n      : @444 [@dyn 190] (gas: 17)\n 14226: u64 [s1 + 344] = 0\n 14230: u64 [s1 + 336] = 0\n 14234: u64 [s1 + 328] = 0\n 14238: a4 = s1 + 0x100\n 14242: u64 [a4 + 64] = 0x80\n 14247: a0 = u64 [s1 + 0xe0]\n 14251: u64 [a4 + 0x78] = a0\n 14254: a0 = u64 [s1 + 0xe8]\n 14258: u64 [a4 + 0x70] = a0\n 14261: a0 = u64 [s1 + 0xf0]\n 14265: u64 [a4 + 0x68] = a0\n 14268: a0 = s1 + 0x180\n 14272: a1 = s1 + 0x160\n 14276: a2 = s1 + 0x140\n 14280: a3 = u64 [s1 + 0xf8]\n 14284: u64 [a4 + 0x60] = a3\n 14287: ra = 382, jump @572\n      : @445 [@dyn 191] (gas: 10)\n 14293: a0 = u64 [s1 + 0xc8]\n 14297: a1 = u64 [s1 + 0xc0]\n 14301: a0 = a0 | a1\n 14304: a1 = 0xffffff80\n 14314: a2 = u64 [s1 + 0xd0]\n 14318: a1 = a2 <u a1\n 14321: a2 = u64 [s1 + 0xd8]\n 14325: a1 = 0 if a2 != 0\n 14327: a1 = 0 if a0 != 0\n 14329: jump @447 if a1 == 0\n      : @446 (gas: 30)\n 14332: ra = u64 [s1 + 0x190]\n 14336: a1 = u64 [s1 + 0x198]\n 14340: t1 = u64 [s1 + 0x180]\n 14344: a3 = u64 [s1 + 0x188]\n 14348: a2 = u64 [s1 + 0xe8]\n 14352: a4 = ra <u a2\n 14355: a1 = a1 - a4\n 14358: a0 = u64 [s1 + 0xe0]\n 14362: t0 = a1 - a0\n 14365: a1 = u64 [s1 + 0xf0]\n 14369: a4 = a3 ^ a1\n 14372: a5 = a3 <u a1\n 14375: a0 = u64 [s1 + 0xf8]\n 14379: t2 = t1 <u a0\n 14382: a5 = t2 if a4 == 0\n 14385: a2 = ra - a2\n 14388: a4 = a2 <u a5\n 14391: a4 = t0 - a4\n 14394: a5 = a2 - a5\n 14397: a3 = a3 - t2\n 14400: a3 = a3 - a1\n 14403: a1 = t1 - a0\n 14406: a2 = a1 | a5\n 14409: a3 = a3 | a4\n 14412: a2 = a2 | a3\n 14415: a2 = a2 >> 0x20\n 14418: a3 = a3 | a5\n 14421: a3 = a3 << 0x20\n 14424: a2 = a2 | a3\n 14427: jump @532 if a2 == 0\n      : @447 (gas: 1)\n 14431: trap\n      : @448 (gas: 10)\n 14432: a2 = s1 + 0x7ff\n 14436: a2 = a2 + 0x79\n 14439: u64 [a2 + 896] = 0\n 14443: u64 [a2 + 888] = 0\n 14447: u64 [a2 + 880] = 0\n 14451: a1 = s1 + 0x7ff\n 14455: a1 = a1 + 0x3e1\n 14459: u64 [a2 + 872] = 0x4\n 14464: a0 = 0\n 14466: ra = 384, jump @19\n      : @449 [@dyn 192] (gas: 37)\n 14472: a0 = sp + 0xffffffffffffffe0\n 14475: a4 = a0 & 0xffffffffffffffe0\n 14478: sp = a4\n 14480: u64 [s1 + 248] = 0\n 14484: t2 = 0\n 14486: t1 = 0\n 14488: u64 [s1 + 240] = 0\n 14492: t0 = u64 [0x20000]\n 14497: a3 = u64 [0x20008]\n 14502: a1 = u64 [s1 + 0x70]\n 14505: a0 = a1 + 0x20\n 14508: u64 [s1 + 0x90] = a0\n 14512: a0 = a0 <u a1\n 14515: a1 = u64 [s1 + 0x60]\n 14518: a2 = a1 + a0\n 14521: u64 [s1 + 0x88] = a2\n 14525: a1 = a2 <u a1\n 14528: a1 = a0 if a0 == 0\n 14531: a5 = u64 [0x20010]\n 14536: a0 = u64 [0x20018]\n 14541: ra = t0\n 14543: u64 [a4 + 0x18] = t0\n 14546: u64 [s1 + 0xd0] = a3\n 14550: u64 [a4 + 0x10] = a3\n 14553: t0 = a5\n 14555: u64 [a4 + 0x8] = a5\n 14558: u64 [s1 + 0xd8] = a4\n 14562: a2 = a0\n 14564: u64 [a4] = a0\n 14566: a0 = u64 [s1 + 0x68]\n 14569: a1 = a1 + a0\n 14572: u64 [s1 + 0x80] = a1\n 14576: a0 = a1 <u a0\n 14579: a1 = u64 [s1 + 0x58]\n 14582: a0 = a0 + a1\n 14585: u64 [s1 + 0x78] = a0\n 14588: fallthrough\n      : @450 (gas: 21)\n 14589: u64 [s1 + 0xb8] = a2\n 14593: u64 [s1 + 0xc0] = t0\n 14597: u64 [s1 + 0xc8] = ra\n 14601: a0 = u64 [s1 + 0xb0]\n 14605: a1 = u64 [s1 + 0xf8]\n 14609: a0 = a1 <u a0\n 14612: a2 = u64 [s1 + 0xa0]\n 14616: a1 = t2 ^ a2\n 14619: a2 = t2 <u a2\n 14622: a2 = a0 if a1 == 0\n 14625: a4 = u64 [s1 + 0xa8]\n 14629: a0 = t1 <u a4\n 14632: a3 = u64 [s1 + 0x98]\n 14636: a1 = u64 [s1 + 0xf0]\n 14640: a5 = a1 ^ a3\n 14643: a3 = a1 <u a3\n 14646: a3 = a0 if a5 == 0\n 14649: a0 = t1 ^ a4\n 14652: a0 = a0 | a5\n 14655: a3 = a2 if a0 == 0\n 14658: jump @452 if a3 != 0\n      : @451 (gas: 1)\n 14661: jump @344\n      : @452 (gas: 6)\n 14664: a0 = s1 + 0x7ff\n 14668: a0 = a0 + 0x3c1\n 14672: a1 = u64 [s1 + 0xd8]\n 14676: u64 [s1 + 0xe8] = t1\n 14680: u64 [s1 + 0xe0] = t2\n 14684: ra = 386, jump @21\n      : @453 [@dyn 193] (gas: 30)\n 14690: t2 = u64 [s1 + 0xf8]\n 14694: t1 = u64 [s1 + 0xe0]\n 14698: ra = u64 [s1 + 0xe8]\n 14702: a1 = u64 [s1 + 0x90]\n 14706: a0 = a1 + t2\n 14709: a1 = a0 <u a1\n 14712: a4 = u64 [s1 + 0x88]\n 14716: a2 = a4 + t1\n 14719: a2 = a2 + a1\n 14722: a5 = a2 ^ a4\n 14725: a4 = a2 <u a4\n 14728: a4 = a1 if a5 == 0\n 14731: a5 = u64 [s1 + 0x80]\n 14735: a1 = a5 + ra\n 14738: t0 = a1 <u a5\n 14741: a5 = u64 [s1 + 0xf0]\n 14745: a3 = u64 [s1 + 0x78]\n 14748: a5 = a5 + a3\n 14751: a5 = a5 + t0\n 14754: a4 = a4 + a1\n 14757: a1 = a4 <u a1\n 14760: a1 = a1 + a5\n 14763: a1 = a1 | a2\n 14766: a2 = a0 | a4\n 14769: a2 = a2 | a1\n 14772: a1 = a1 | a4\n 14775: a2 = a2 >> 0x20\n 14778: a1 = a1 << 0x20\n 14781: a1 = a1 | a2\n 14784: jump @447 if a1 != 0\n      : @454 (gas: 15)\n 14788: a5 = s1 + 0x7ff\n 14792: a5 = a5 + 0x79\n 14795: t0 = u64 [a5 + 0x360]\n 14799: a3 = a5 + 0x300\n 14803: a1 = u64 [a3 + 0x58]\n 14806: a2 = u64 [a3 + 0x50]\n 14809: a4 = u64 [a3 + 0x48]\n 14812: u64 [a3 + 0x28] = a4\n 14815: u64 [a3 + 0x30] = a2\n 14818: u64 [a3 + 0x38] = a1\n 14821: a1 = s1 + 0x7ff\n 14825: a1 = a1 + 0x3a1\n 14829: u64 [a5 + 0x340] = t0\n 14833: u64 [s1 + 0xf8] = t2\n 14837: ra = 388, jump @19\n      : @455 [@dyn 194] (gas: 39)\n 14843: a3 = u64 [s1 + 0xb8]\n 14847: a3 = a3 + 0x1\n 14850: a0 = a3 <u 0x1\n 14853: ra = u64 [s1 + 0xc0]\n 14857: ra = ra + a0\n 14860: a0 = a3 | ra\n 14863: a0 = a0 <u 0x1\n 14866: a1 = u64 [s1 + 0xd0]\n 14870: t2 = a1 + a0\n 14873: a1 = t2 <u a1\n 14876: a0 = u64 [s1 + 0xc8]\n 14880: a0 = a0 + a1\n 14883: a1 = u64 [s1 + 0xf8]\n 14887: t1 = a1 + 0x20\n 14890: a2 = t1 <u a1\n 14893: a4 = u64 [s1 + 0xe0]\n 14897: a1 = a4 + a2\n 14900: a4 = a1 <u a4\n 14903: a4 = a2 if a2 == 0\n 14906: a2 = u64 [s1 + 0xe8]\n 14910: a4 = a4 + a2\n 14913: a2 = a4 <u a2\n 14916: a5 = u64 [s1 + 0xf0]\n 14920: a5 = a5 + a2\n 14923: u64 [s1 + 0xf0] = a5\n 14927: t0 = ra\n 14929: a5 = u64 [s1 + 0xd8]\n 14933: u64 [a5 + 0x8] = ra\n 14936: a2 = a3\n 14938: u64 [a5] = a3\n 14940: a3 = t2\n 14942: u64 [a5 + 0x10] = a3\n 14945: ra = a0\n 14947: u64 [a5 + 0x18] = a0\n 14950: u64 [s1 + 0xd0] = a3\n 14954: u64 [s1 + 0xf8] = t1\n 14958: t2 = a1\n 14960: t1 = a4\n 14962: jump @450\n      : @456 (gas: 7)\n 14965: a1 = 0x200c0\n 14970: i32 a1 = a1 + 0\n 14972: a0 = 0x1\n 14975: a2 = 0\n 14977: ecalli 7 // 'seal_return'\n 14979: a1 = 0x200c0\n 14984: fallthrough\n      : @457 (gas: 6)\n 14985: i32 a1 = a1 + 0\n 14987: a0 = 0x1\n 14990: a2 = 0\n 14992: ecalli 7 // 'seal_return'\n 14994: a1 = 0x200c0\n 14999: jump @457\n      : @458 (gas: 2)\n 15001: a1 = 0x200c0\n 15006: jump @457\n      : @459 (gas: 2)\n 15008: a1 = 0x200c0\n 15013: jump @457\n      : @460 (gas: 2)\n 15015: a1 = 0x200c0\n 15020: jump @457\n      : @461 (gas: 2)\n 15022: a1 = 0x200c0\n 15027: jump @457\n      : @462 (gas: 6)\n 15029: u64 [s1 + 304] = 0\n 15033: u64 [s1 + 296] = 0\n 15037: u64 [s1 + 288] = 0\n 15041: t0 = 0x186\n 15045: a0 = 0x4e487b7100000000\n 15055: fallthrough\n      : @463 [@dyn 195] (gas: 4)\n 15056: a1 = s1 + 0x120\n 15060: u64 [s1 + 0x138] = a0\n 15064: a0 = 0\n 15066: ra = 392, jump @19\n      : @464 [@dyn 196] (gas: 7)\n 15072: u64 [s1 + 280] = 0\n 15076: u64 [s1 + 272] = 0\n 15080: u64 [s1 + 256] = 0x22\n 15085: a0 = 0x4\n 15088: a1 = s1 + 0x100\n 15092: u64 [s1 + 264] = 0\n 15096: ra = 394, jump @19\n      : @465 [@dyn 197] (gas: 2)\n 15102: a1 = i32 [0x200ac]\n 15107: jump @467 if a1 >u 63\n      : @466 (gas: 3)\n 15111: u32 [0x200ac] = 0x40\n 15117: a1 = 0x200c0\n 15122: jump @531\n      : @467 (gas: 2)\n 15125: a1 = 0x200c0\n 15130: jump @531\n      : @468 (gas: 2)\n 15133: a1 = 0x200c0\n 15138: jump @457\n      : @469 (gas: 2)\n 15141: a1 = 0x200c0\n 15146: jump @457\n      : @470 (gas: 2)\n 15149: a1 = 0x200c0\n 15154: jump @457\n      : @471 (gas: 2)\n 15157: a1 = 0x200c0\n 15162: jump @457\n      : @472 (gas: 8)\n 15165: u64 [s1 + 688] = 0\n 15169: u64 [s1 + 680] = 0\n 15173: u64 [s1 + 672] = 0\n 15177: a0 = 0xe602df0500000000\n 15187: a1 = s1 + 0x2a0\n 15191: u64 [s1 + 0x2b8] = a0\n 15195: a0 = 0\n 15197: ra = 396, jump @19\n      : @473 [@dyn 198] (gas: 7)\n 15203: u64 [s1 + 664] = 0\n 15207: u64 [s1 + 656] = 0\n 15211: u64 [s1 + 648] = 0\n 15215: a0 = 0x4\n 15218: a1 = s1 + 0x280\n 15222: u64 [s1 + 640] = 0\n 15226: ra = 398, jump @19\n      : @474 [@dyn 199] (gas: 2)\n 15232: a1 = i32 [0x200ac]\n 15237: jump @476 if a1 >u 63\n      : @475 (gas: 3)\n 15241: u32 [0x200ac] = 0x40\n 15247: a1 = 0x200c0\n 15252: jump @531\n      : @476 (gas: 2)\n 15255: a1 = 0x200c0\n 15260: jump @531\n      : @477 (gas: 8)\n 15263: u64 [s1 + 752] = 0\n 15267: u64 [s1 + 744] = 0\n 15271: u64 [s1 + 736] = 0\n 15275: a0 = 0x94280d6200000000\n 15285: a1 = s1 + 0x2e0\n 15289: u64 [s1 + 0x2f8] = a0\n 15293: a0 = 0\n 15295: ra = 400, jump @19\n      : @478 [@dyn 200] (gas: 7)\n 15301: u64 [s1 + 728] = 0\n 15305: u64 [s1 + 720] = 0\n 15309: u64 [s1 + 712] = 0\n 15313: a0 = 0x4\n 15316: a1 = s1 + 0x2c0\n 15320: u64 [s1 + 704] = 0\n 15324: ra = 402, jump @19\n      : @479 [@dyn 201] (gas: 2)\n 15330: a1 = i32 [0x200ac]\n 15335: jump @481 if a1 >u 63\n      : @480 (gas: 3)\n 15339: u32 [0x200ac] = 0x40\n 15345: a1 = 0x200c0\n 15350: jump @531\n      : @481 (gas: 2)\n 15353: a1 = 0x200c0\n 15358: jump @531\n      : @482 (gas: 2)\n 15361: a1 = 0x200c0\n 15366: jump @457\n      : @483 (gas: 2)\n 15369: a1 = 0x200c0\n 15374: jump @457\n      : @484 (gas: 11)\n 15377: a2 = s1 + 0x7ff\n 15381: a2 = a2 + 0x79\n 15384: u64 [a2 + 568] = 0\n 15388: u64 [a2 + 560] = 0\n 15392: u64 [a2 + 552] = 0\n 15396: a0 = 0x4e487b7100000000\n 15406: a1 = s1 + 0x7ff\n 15410: a1 = a1 + 0x2a1\n 15414: u64 [a2 + 0x240] = a0\n 15418: a0 = 0\n 15420: ra = 404, jump @19\n      : @485 [@dyn 202] (gas: 11)\n 15426: a1 = s1 + 0x7ff\n 15430: a1 = a1 + 0x79\n 15433: u64 [a1 + 544] = 0\n 15437: u64 [a1 + 536] = 0\n 15441: u64 [a1 + 520] = 0x22\n 15446: a2 = a1\n 15448: a0 = 0x4\n 15451: a1 = s1 + 0x7ff\n 15455: a1 = a1 + 0x281\n 15459: u64 [a2 + 528] = 0\n 15463: ra = 406, jump @19\n      : @486 [@dyn 203] (gas: 2)\n 15469: a1 = i32 [0x200ac]\n 15474: jump @488 if a1 >u 63\n      : @487 (gas: 3)\n 15478: u32 [0x200ac] = 0x40\n 15484: a1 = 0x200c0\n 15489: jump @531\n      : @488 (gas: 2)\n 15492: a1 = 0x200c0\n 15497: jump @531\n      : @489 (gas: 2)\n 15500: a1 = 0x200c0\n 15505: jump @457\n      : @490 (gas: 2)\n 15508: a1 = 0x200c0\n 15513: jump @457\n      : @491 (gas: 8)\n 15516: u64 [s1 + 1296] = 0\n 15520: u64 [s1 + 1288] = 0\n 15524: u64 [s1 + 1280] = 0\n 15528: a0 = 0xec442f0500000000\n 15538: a1 = s1 + 0x500\n 15542: u64 [s1 + 0x518] = a0\n 15546: a0 = 0\n 15548: ra = 408, jump @19\n      : @492 [@dyn 204] (gas: 7)\n 15554: u64 [s1 + 1272] = 0\n 15558: u64 [s1 + 1264] = 0\n 15562: u64 [s1 + 1256] = 0\n 15566: a0 = 0x4\n 15569: a1 = s1 + 0x4e0\n 15573: u64 [s1 + 1248] = 0\n 15577: ra = 410, jump @19\n      : @493 [@dyn 205] (gas: 2)\n 15583: a1 = i32 [0x200ac]\n 15588: jump @495 if a1 >u 63\n      : @494 (gas: 3)\n 15592: u32 [0x200ac] = 0x40\n 15598: a1 = 0x200c0\n 15603: jump @531\n      : @495 (gas: 2)\n 15606: a1 = 0x200c0\n 15611: jump @531\n      : @496 (gas: 6)\n 15614: u64 [s1 + 1360] = 0\n 15618: u64 [s1 + 1352] = 0\n 15622: u64 [s1 + 1344] = 0\n 15626: t0 = 0x19c\n 15630: a0 = 0x4e487b7100000000\n 15640: fallthrough\n      : @497 [@dyn 206] (gas: 4)\n 15641: a1 = s1 + 0x540\n 15645: u64 [s1 + 0x558] = a0\n 15649: a0 = 0\n 15651: ra = 414, jump @19\n      : @498 [@dyn 207] (gas: 7)\n 15657: u64 [s1 + 1336] = 0\n 15661: u64 [s1 + 1328] = 0\n 15665: u64 [s1 + 1312] = 0x11\n 15670: a0 = 0x4\n 15673: a1 = s1 + 0x520\n 15677: u64 [s1 + 1320] = 0\n 15681: ra = 416, jump @19\n      : @499 [@dyn 208] (gas: 2)\n 15687: a1 = i32 [0x200ac]\n 15692: jump @501 if a1 >u 63\n      : @500 (gas: 3)\n 15696: u32 [0x200ac] = 0x40\n 15702: a1 = 0x200c0\n 15707: jump @531\n      : @501 (gas: 2)\n 15710: a1 = 0x200c0\n 15715: jump @531\n      : @502 (gas: 2)\n 15718: a1 = 0x200c0\n 15723: jump @457\n      : @503 (gas: 2)\n 15726: a1 = 0x200c0\n 15731: jump @457\n      : @504 (gas: 2)\n 15734: a1 = 0x200c0\n 15739: jump @457\n      : @505 (gas: 2)\n 15742: a1 = 0x200c0\n 15747: jump @457\n      : @506 (gas: 2)\n 15750: a1 = 0x200c0\n 15755: jump @457\n      : @507 (gas: 2)\n 15758: a1 = 0x200c0\n 15763: jump @457\n      : @508 (gas: 2)\n 15766: a1 = 0x200c0\n 15771: jump @457\n      : @509 (gas: 2)\n 15774: a1 = 0x200c0\n 15779: jump @457\n      : @510 (gas: 8)\n 15782: u64 [s1 + 1936] = 0\n 15786: u64 [s1 + 1928] = 0\n 15790: u64 [s1 + 1920] = 0\n 15794: a0 = 0xfb8f41b200000000\n 15804: a1 = s1 + 0x780\n 15808: u64 [s1 + 0x798] = a0\n 15812: a0 = 0\n 15814: ra = 418, jump @19\n      : @511 [@dyn 209] (gas: 6)\n 15820: a0 = u64 [s1 + 0x80]\n 15824: ra = 0x1a4\n 15828: ecalli 3 // 'caller'\n 15830: a2 = u64 [s1 + 0xb0]\n 15834: t0 = 0x1a6\n 15838: jump @653\n      : @512 [@dyn 210] (gas: 2)\n 15841: a2 = u64 [s1 + 0xb0]\n 15845: t0 = 422, jump @653\n      : @513 [@dyn 211] (gas: 7)\n 15851: u64 [s1 + 1912] = 0\n 15855: u64 [s1 + 0x770] = a1\n 15859: u64 [s1 + 0x768] = a0\n 15863: a0 = 0x4\n 15866: a1 = s1 + 0x760\n 15870: u64 [s1 + 0x760] = a3\n 15874: ra = 424, jump @19\n      : @514 [@dyn 212] (gas: 11)\n 15880: a0 = u64 [s1 + 0x60]\n 15883: u64 [s1 + 0x758] = a0\n 15887: a0 = u64 [s1 + 0x58]\n 15890: u64 [s1 + 0x750] = a0\n 15894: a0 = u64 [s1 + 0x68]\n 15897: u64 [s1 + 0x748] = a0\n 15901: a0 = 0x24\n 15904: a1 = s1 + 0x740\n 15908: a2 = u64 [s1 + 0x70]\n 15911: u64 [s1 + 0x740] = a2\n 15915: ra = 426, jump @19\n      : @515 [@dyn 213] (gas: 12)\n 15921: a0 = u64 [s1 + 0xe8]\n 15925: a3 = s1 + 0x700\n 15929: u64 [a3 + 0x38] = a0\n 15932: a0 = u64 [s1 + 0xd8]\n 15936: u64 [a3 + 0x30] = a0\n 15939: a0 = u64 [s1 + 0xc8]\n 15943: u64 [a3 + 0x28] = a0\n 15946: a0 = 0x44\n 15949: a1 = s1 + 0x720\n 15953: a2 = u64 [s1 + 0xd0]\n 15957: u64 [a3 + 0x20] = a2\n 15960: ra = 428, jump @19\n      : @516 [@dyn 214] (gas: 3)\n 15966: a0 = u64 [s1 + 0xc0]\n 15970: a0 = i32 [a0]\n 15972: jump @518 if a0 >u 127\n      : @517 (gas: 7)\n 15976: a1 = u64 [s1 + 0xc0]\n 15980: u32 [a1 + 0] = 0x80\n 15984: a0 = 0x1\n 15987: a2 = 0x64\n 15990: a1 = u64 [s1 + 0xe0]\n 15994: ecalli 7 // 'seal_return'\n 15996: jump @526\n      : @518 (gas: 5)\n 15999: a0 = 0x1\n 16002: a2 = 0x64\n 16005: a1 = u64 [s1 + 0xe0]\n 16009: ecalli 7 // 'seal_return'\n 16011: jump @526\n      : @519 (gas: 8)\n 16014: u64 [s1 + 2000] = 0\n 16018: u64 [s1 + 1992] = 0\n 16022: u64 [s1 + 1984] = 0\n 16026: a0 = 0xe602df0500000000\n 16036: a1 = s1 + 0x7c0\n 16040: u64 [s1 + 0x7d8] = a0\n 16044: a0 = 0\n 16046: ra = 430, jump @19\n      : @520 [@dyn 215] (gas: 8)\n 16052: u64 [s1 + 1976] = 0\n 16056: u64 [s1 + 1968] = 0\n 16060: u64 [s1 + 1960] = 0\n 16064: a0 = 0x4\n 16067: a1 = s1 + 0x7a0\n 16071: u64 [s1 + 1952] = 0\n 16075: ra = 0x1b2\n 16079: jump @19\n      : @521 (gas: 13)\n 16082: a0 = s1 + 0x1000\n 16086: u64 [a0 + 4294965264] = 0\n 16090: a0 = s1 + 0x1000\n 16094: u64 [a0 + 4294965256] = 0\n 16098: a0 = s1 + 0x1000\n 16102: u64 [a0 + 4294965248] = 0\n 16106: a0 = 0x94280d6200000000\n 16116: a1 = s1 + 0x7ff\n 16120: a1 = a1 + 0x1\n 16123: a2 = s1 + 0x1000\n 16127: u64 [a2 + 0xfffffffffffff818] = a0\n 16131: a0 = 0\n 16133: ra = 432, jump @19\n      : @522 [@dyn 216] (gas: 7)\n 16139: u64 [s1 + 2040] = 0\n 16143: u64 [s1 + 2032] = 0\n 16147: u64 [s1 + 2024] = 0\n 16151: a0 = 0x4\n 16154: a1 = s1 + 0x7e0\n 16158: u64 [s1 + 2016] = 0\n 16162: ra = 434, jump @19\n      : @523 [@dyn 217] (gas: 3)\n 16168: a0 = u64 [s1 + 0xc0]\n 16172: a0 = i32 [a0]\n 16174: jump @525 if a0 >u 63\n      : @524 (gas: 7)\n 16178: a1 = u64 [s1 + 0xc0]\n 16182: u32 [a1 + 0] = 0x40\n 16185: a0 = 0x1\n 16188: a2 = 0x24\n 16191: a1 = u64 [s1 + 0xe0]\n 16195: ecalli 7 // 'seal_return'\n 16197: jump @526\n      : @525 (gas: 5)\n 16199: a0 = 0x1\n 16202: a2 = 0x24\n 16205: a1 = u64 [s1 + 0xe0]\n 16209: ecalli 7 // 'seal_return'\n 16211: fallthrough\n      : @526 (gas: 12)\n 16212: a0 = s1 + 0x7ff\n 16216: a0 = a0 + 0x79\n 16219: u64 [a0 + 632] = 0\n 16223: u64 [a0 + 624] = 0\n 16227: u64 [a0 + 616] = 0\n 16231: a2 = a0\n 16233: a0 = 0x4e487b7100000000\n 16243: a1 = s1 + 0x7ff\n 16247: a1 = a1 + 0x2e1\n 16251: u64 [a2 + 0x280] = a0\n 16255: a0 = 0\n 16257: ra = 436, jump @19\n      : @527 [@dyn 218] (gas: 11)\n 16263: a1 = s1 + 0x7ff\n 16267: a1 = a1 + 0x79\n 16270: u64 [a1 + 608] = 0\n 16274: u64 [a1 + 600] = 0\n 16278: u64 [a1 + 584] = 0x41\n 16283: a2 = a1\n 16285: a0 = 0x4\n 16288: a1 = s1 + 0x7ff\n 16292: a1 = a1 + 0x2c1\n 16296: u64 [a2 + 592] = 0\n 16300: ra = 438, jump @19\n      : @528 [@dyn 219] (gas: 2)\n 16306: a1 = i32 [0x200ac]\n 16311: jump @530 if a1 >u 63\n      : @529 (gas: 3)\n 16315: u32 [0x200ac] = 0x40\n 16321: a1 = 0x200c0\n 16326: jump @531\n      : @530 (gas: 2)\n 16328: a1 = 0x200c0\n 16333: fallthrough\n      : @531 (gas: 7)\n 16334: i32 a1 = a1 + 0\n 16336: a0 = 0x1\n 16339: a2 = 0x24\n 16342: ecalli 7 // 'seal_return'\n 16344: u64 [s1 + 0xf8] = a1\n 16348: ra = 0x1b8\n 16352: jump @26\n      : @532 (gas: 2)\n 16355: u64 [s1 + 0xf8] = a1\n 16359: ra = 440, jump @26\n      : @533 [@dyn 220] (gas: 5)\n 16365: i32 a1 = a0 + 0\n 16367: a2 = i32 [s1 + 0xf8]\n 16371: a0 = 0\n 16373: ecalli 7 // 'seal_return'\n 16375: jump @435\n      : @534 (gas: 17)\n 16378: sp = sp + 0xffffffffffffff30\n 16382: u64 [sp + 0xc8] = ra\n 16386: u64 [sp + 0xc0] = s0\n 16390: u64 [sp + 0xb8] = s1\n 16394: s0 = sp + 0xd0\n 16398: sp = sp & 0xfffffffffffffff0\n 16401: a2 = u64 [a1 + 0x18]\n 16404: u64 [sp + 0x10] = a2\n 16407: a2 = u64 [a1 + 0x10]\n 16410: u64 [sp + 0x8] = a2\n 16413: a2 = u64 [a1 + 0x8]\n 16416: u64 [sp] = a2\n 16418: s1 = u64 [a1]\n 16420: u64 [sp + 0x28] = a0\n 16423: a0 = sp + 0x90\n 16427: a1 = 0x40\n 16430: ra = 442, jump @17\n      : @535 [@dyn 221] (gas: 39)\n 16436: a1 = u64 [sp + 0x98]\n 16440: a2 = u64 [sp + 0x90]\n 16444: a0 = s1 + 0x1f\n 16447: ra = a0 <u s1\n 16450: a3 = u64 [sp]\n 16452: a4 = a3 + ra\n 16455: a0 = a0 & 0xffffffffffffffe0\n 16458: t1 = a1 + a4\n 16461: t0 = a2 + a0\n 16464: u64 [sp + 0x20] = a2\n 16467: a5 = t0 <u a2\n 16470: t1 = t1 + a5\n 16473: s1 = t1 ^ a1\n 16476: u64 [sp + 0x18] = a1\n 16479: a2 = t1 <u a1\n 16482: a2 = a5 if s1 == 0\n 16485: t2 = u64 [sp + 0xa8]\n 16489: a4 = a4 <u a3\n 16492: s1 = u64 [sp + 0xa0]\n 16496: a4 = ra if ra == 0\n 16499: a0 = u64 [sp + 0x8]\n 16502: a4 = a4 + a0\n 16505: a5 = a4 <u a0\n 16508: a4 = a4 + s1\n 16511: a3 = a4 + a2\n 16514: a0 = u64 [sp + 0x10]\n 16517: a0 = a0 + t2\n 16520: a0 = a0 + a5\n 16523: a5 = a3 <u a4\n 16526: a4 = a4 <u s1\n 16529: a0 = a0 + a4\n 16532: a4 = a0 + a5\n 16535: a0 = a4 >u 0\n 16537: a5 = a3 >u 0\n 16539: a5 = a0 if a4 != 0\n 16542: a0 = a3 | a4\n 16545: a1 = t1 >u 0\n 16547: a1 = a5 if a0 != 0\n 16550: jump @539 if a1 != 0\n      : @536 (gas: 8)\n 16553: a0 = a3 <u s1\n 16556: a1 = a4 ^ t2\n 16559: a5 = a4 <u t2\n 16562: a5 = a0 if a1 == 0\n 16565: a0 = a3 ^ s1\n 16568: a0 = a0 | a1\n 16571: a2 = a5 if a0 != 0\n 16574: jump @539 if a2 != 0\n      : @537 (gas: 8)\n 16577: u64 [sp + 0x70] = t0\n 16580: u64 [sp + 0x78] = t1\n 16583: u64 [sp + 0x80] = a3\n 16587: a0 = 0x40\n 16590: a1 = sp + 0x70\n 16593: u64 [sp + 0x88] = a4\n 16597: u64 [sp + 0x10] = t2\n 16600: ra = 444, jump @19\n      : @538 [@dyn 222] (gas: 14)\n 16606: a0 = u64 [sp + 0x28]\n 16609: a1 = u64 [sp + 0x10]\n 16612: u64 [a0 + 0x18] = a1\n 16615: u64 [a0 + 0x10] = s1\n 16618: a1 = u64 [sp + 0x18]\n 16621: u64 [a0 + 0x8] = a1\n 16624: a1 = u64 [sp + 0x20]\n 16627: u64 [a0] = a1\n 16629: sp = s0 + 0xffffffffffffff30\n 16633: ra = u64 [sp + 0xc8]\n 16637: s0 = u64 [sp + 0xc0]\n 16641: s1 = u64 [sp + 0xb8]\n 16645: sp = sp + 0xd0\n 16649: ret\n      : @539 (gas: 6)\n 16651: u64 [sp + 96] = 0\n 16654: u64 [sp + 88] = 0\n 16657: u64 [sp + 80] = 0\n 16660: t0 = 0x1be\n 16664: a0 = 0x4e487b7100000000\n 16674: fallthrough\n      : @540 [@dyn 223] (gas: 4)\n 16675: a1 = sp + 0x50\n 16678: u64 [sp + 0x68] = a0\n 16681: a0 = 0\n 16683: ra = 448, jump @19\n      : @541 [@dyn 224] (gas: 7)\n 16689: u64 [sp + 72] = 0\n 16692: u64 [sp + 64] = 0\n 16695: u64 [sp + 48] = 0x41\n 16699: a0 = 0x4\n 16702: a1 = sp + 0x30\n 16705: u64 [sp + 56] = 0\n 16708: ra = 450, jump @19\n      : @542 [@dyn 225] (gas: 2)\n 16714: a1 = i32 [0x200ac]\n 16719: jump @544 if a1 >u 63\n      : @543 (gas: 2)\n 16723: u32 [0x200ac] = 0x40\n 16729: fallthrough\n      : @544 (gas: 7)\n 16730: a1 = 0x200c0\n 16735: i32 a1 = a1 + 0\n 16737: a0 = 0x1\n 16740: a2 = 0x24\n 16743: ra = 0x1c4\n 16747: ecalli 7 // 'seal_return'\n 16749: fallthrough\n      : @545 [@dyn 226] (gas: 37)\n 16750: sp = sp + 0xfffffffffffffe70\n 16754: u64 [sp + 0x188] = ra\n 16758: u64 [sp + 0x180] = s0\n 16762: u64 [sp + 0x178] = s1\n 16766: s0 = sp + 0x190\n 16770: sp = sp & 0xfffffffffffffff0\n 16773: t2 = u64 [a1]\n 16775: a4 = u64 [a2 + 0x8]\n 16778: ra = u64 [a1 + 0x8]\n 16781: s1 = u64 [a2]\n 16783: a3 = t2 + 0x1f\n 16786: t0 = a3 <u t2\n 16789: a5 = ra + t0\n 16792: u64 [sp + 0x20] = s1\n 16795: t1 = a3 <u s1\n 16798: a3 = a5 ^ a4\n 16801: u64 [sp + 0x28] = a4\n 16804: a4 = a5 <u a4\n 16807: a4 = t1 if a3 == 0\n 16810: s1 = u64 [a1 + 0x10]\n 16813: a3 = a5 <u ra\n 16816: a3 = t0 if t0 == 0\n 16819: a5 = u64 [a2 + 0x18]\n 16822: t0 = u64 [a1 + 0x18]\n 16825: t1 = u64 [a2 + 0x10]\n 16828: a3 = a3 + s1\n 16831: a1 = a3 <u s1\n 16834: a1 = a1 + t0\n 16837: a2 = a1 ^ a5\n 16840: u64 [sp + 0x10] = a5\n 16843: a1 = a1 <s a5\n 16846: a5 = a3 <u t1\n 16849: a1 = a5 if a2 == 0\n 16852: a3 = a3 ^ t1\n 16855: a2 = a2 | a3\n 16858: a4 = a1 if a2 != 0\n 16861: jump @563 if a4 == 0\n      : @546 (gas: 13)\n 16865: u64 [sp + 0x8] = a0\n 16868: u64 [sp + 0x18] = t1\n 16871: a0 = t2 | s1\n 16874: u64 [sp + 0x38] = ra\n 16877: u64 [sp + 0x30] = t0\n 16880: a1 = ra | t0\n 16883: a0 = a0 | a1\n 16886: a0 = a0 >> 0x20\n 16889: u64 [sp + 0x58] = s1\n 16892: a1 = a1 | s1\n 16895: a1 = a1 << 0x20\n 16898: a0 = a0 | a1\n 16901: jump @562 if a0 != 0\n      : @547 (gas: 4)\n 16905: a0 = sp + 0x150\n 16909: u64 [sp + 0x50] = t2\n 16912: a1 = t2\n 16914: ra = 454, jump @17\n      : @548 [@dyn 227] (gas: 12)\n 16920: a3 = u64 [sp + 0x168]\n 16924: a2 = u64 [sp + 0x160]\n 16928: a4 = u64 [sp + 0x158]\n 16932: a0 = a3 >u 0\n 16934: a1 = a2 >u 0\n 16936: a1 = a0 if a3 != 0\n 16939: u64 [sp + 0x80] = a2\n 16943: u64 [sp + 0x88] = a3\n 16947: a0 = a2 | a3\n 16950: a2 = a4 >u 0\n 16952: a2 = a1 if a0 != 0\n 16955: jump @564 if a2 != 0\n      : @549 (gas: 20)\n 16959: a1 = u64 [sp + 0x150]\n 16963: a0 = a1 + 0x1f\n 16966: u64 [sp + 0x48] = a1\n 16969: a1 = a0 <u a1\n 16972: u64 [sp + 0x78] = a4\n 16975: a1 = a1 + a4\n 16978: a1 = a1 & 0x1\n 16981: a0 = a0 & 0xffffffffffffffe0\n 16984: a2 = a0 + 0x20\n 16987: a0 = a2 <u a0\n 16990: a3 = a1 + a0\n 16993: a4 = a3 <u a1\n 16996: a4 = a0 if a0 == 0\n 16999: u64 [sp + 296] = 0\n 17003: u64 [sp + 0x110] = a2\n 17007: u64 [sp + 0x118] = a3\n 17011: a0 = sp + 0x130\n 17015: a1 = sp + 0x110\n 17019: u64 [sp + 0x120] = a4\n 17023: ra = 456, jump @534\n      : @550 [@dyn 228] (gas: 15)\n 17029: a2 = u64 [sp + 0x148]\n 17033: a3 = u64 [sp + 0x140]\n 17037: a1 = u64 [sp + 0x138]\n 17041: a0 = u64 [sp + 0x130]\n 17045: u64 [sp + 0x40] = a1\n 17048: u64 [sp + 0x68] = a2\n 17051: a2 = a2 | a1\n 17054: a1 = a0 | a3\n 17057: a1 = a1 | a2\n 17060: a1 = a1 >> 0x20\n 17063: u64 [sp + 0x70] = a3\n 17066: a2 = a2 | a3\n 17069: a2 = a2 << 0x20\n 17072: a1 = a1 | a2\n 17075: jump @562 if a1 != 0\n      : @551 (gas: 11)\n 17079: s1 = u64 [sp + 0x48]\n 17082: u64 [sp + 0xf0] = s1\n 17086: a1 = u64 [sp + 0x78]\n 17089: u64 [sp + 0xf8] = a1\n 17093: a1 = u64 [sp + 0x80]\n 17097: u64 [sp + 0x100] = a1\n 17101: a1 = sp + 0xf0\n 17105: a2 = u64 [sp + 0x88]\n 17109: u64 [sp + 0x108] = a2\n 17113: u64 [sp + 0x60] = a0\n 17116: ra = 458, jump @19\n      : @552 [@dyn 229] (gas: 45)\n 17122: a0 = u64 [sp + 0x50]\n 17125: a3 = a0 + s1\n 17128: a2 = a3 <u a0\n 17131: t2 = u64 [sp + 0x38]\n 17134: a0 = u64 [sp + 0x78]\n 17137: a0 = a0 + t2\n 17140: a0 = a0 + a2\n 17143: a4 = a0 ^ t2\n 17146: a1 = a0 <u t2\n 17149: a1 = a2 if a4 == 0\n 17152: t1 = u64 [sp + 0x58]\n 17155: a2 = u64 [sp + 0x80]\n 17159: a2 = a2 + t1\n 17162: a5 = a3 + 0x20\n 17165: t0 = a5 <u a3\n 17168: a4 = a0 + t0\n 17171: a3 = u64 [sp + 0x20]\n 17174: a5 = a3 <u a5\n 17177: a3 = u64 [sp + 0x28]\n 17180: s1 = a4 ^ a3\n 17183: a3 = a3 <u a4\n 17186: a5 = a3 if s1 != 0\n 17189: a3 = a2 <u t1\n 17192: t1 = u64 [sp + 0x30]\n 17195: s1 = u64 [sp + 0x88]\n 17199: s1 = s1 + t1\n 17202: a3 = a3 + s1\n 17205: a1 = a1 + a2\n 17208: a2 = a1 <u a2\n 17211: a2 = a2 + a3\n 17214: a0 = a4 <u a0\n 17217: a0 = t0 if t0 == 0\n 17220: a0 = a0 + a1\n 17223: a1 = a0 <u a1\n 17226: a1 = a1 + a2\n 17229: a3 = u64 [sp + 0x10]\n 17232: a2 = a1 ^ a3\n 17235: a1 = a3 <u a1\n 17238: a4 = u64 [sp + 0x18]\n 17241: a3 = a4 <u a0\n 17244: a1 = a3 if a2 == 0\n 17247: a0 = a0 ^ a4\n 17250: a0 = a0 | a2\n 17253: a5 = a1 if a0 != 0\n 17256: jump @570 if a5 != 0\n      : @553 (gas: 10)\n 17260: a0 = u64 [sp + 0x70]\n 17263: a1 = u64 [sp + 0x68]\n 17266: a1 = a1 | a0\n 17269: a0 = 0xffffffe0\n 17279: a4 = u64 [sp + 0x60]\n 17282: a2 = a4 <u a0\n 17285: a3 = u64 [sp + 0x40]\n 17288: a2 = 0 if a3 != 0\n 17290: a2 = 0 if a1 != 0\n 17292: jump @562 if a2 == 0\n      : @554 (gas: 12)\n 17296: a3 = a4\n 17298: a1 = u64 [sp + 0x58]\n 17301: a1 = a1 | t1\n 17304: a5 = u64 [sp + 0x50]\n 17307: a0 = a5 <u a0\n 17310: a0 = 0 if t2 != 0\n 17312: a0 = 0 if a1 != 0\n 17314: ra = u64 [sp + 0x88]\n 17318: a2 = u64 [sp + 0x80]\n 17322: a4 = u64 [sp + 0x78]\n 17325: s1 = u64 [sp + 0x48]\n 17328: jump @562 if a0 == 0\n      : @555 (gas: 8)\n 17332: a0 = s1 | a2\n 17335: a1 = a4 | ra\n 17338: a0 = a0 | a1\n 17341: a0 = a0 >> 0x20\n 17344: a1 = a1 | a2\n 17347: a1 = a1 << 0x20\n 17350: a0 = a0 | a1\n 17353: jump @562 if a0 != 0\n      : @556 (gas: 5)\n 17357: i32 a0 = a3 + 0x20\n 17360: i32 a1 = a5 + 0x20\n 17363: u64 [sp + 0x58] = a1\n 17366: a1 = s1\n 17368: ra = 460, jump @26\n      : @557 [@dyn 230] (gas: 4)\n 17374: u64 [sp + 0x50] = a0\n 17377: a0 = u64 [sp + 0x58]\n 17380: a1 = s1\n 17382: ra = 462, jump @26\n      : @558 [@dyn 231] (gas: 4)\n 17388: a1 = a0\n 17390: a0 = u64 [sp + 0x50]\n 17393: a2 = s1\n 17395: ra = 464, jump @0\n      : @559 [@dyn 232] (gas: 27)\n 17401: a1 = u64 [sp + 0x60]\n 17404: a0 = a1 + s1\n 17407: a1 = a0 <u a1\n 17410: s1 = u64 [sp + 0x40]\n 17413: a2 = u64 [sp + 0x78]\n 17416: a2 = a2 + s1\n 17419: a2 = a2 + a1\n 17422: a3 = a2 ^ s1\n 17425: a4 = a2 <u s1\n 17428: a4 = a1 if a3 == 0\n 17431: a5 = u64 [sp + 0x70]\n 17434: a1 = u64 [sp + 0x80]\n 17438: a1 = a1 + a5\n 17441: a4 = a4 + a1\n 17444: t0 = a4 <u a1\n 17447: a1 = a1 <u a5\n 17450: a5 = u64 [sp + 0x88]\n 17454: a3 = u64 [sp + 0x68]\n 17457: a5 = a5 + a3\n 17460: a1 = a1 + a5\n 17463: a1 = a1 + t0\n 17466: a1 = a1 | a4\n 17469: a3 = 0xffffffe0\n 17479: a3 = a0 <u a3\n 17482: a3 = 0 if a2 != 0\n 17484: a3 = 0 if a1 != 0\n 17486: jump @562 if a3 == 0\n      : @560 (gas: 7)\n 17489: i32 a0 = a0 + 0x20\n 17492: u64 [sp + 232] = 0\n 17496: u64 [sp + 224] = 0\n 17500: u64 [sp + 216] = 0\n 17504: a1 = sp + 0xd0\n 17508: u64 [sp + 208] = 0\n 17512: ra = 466, jump @19\n      : @561 [@dyn 233] (gas: 14)\n 17518: a0 = u64 [sp + 0x8]\n 17521: a1 = u64 [sp + 0x68]\n 17524: u64 [a0 + 0x18] = a1\n 17527: a1 = u64 [sp + 0x70]\n 17530: u64 [a0 + 0x10] = a1\n 17533: u64 [a0 + 0x8] = s1\n 17536: a1 = u64 [sp + 0x60]\n 17539: u64 [a0] = a1\n 17541: sp = s0 + 0xfffffffffffffe70\n 17545: ra = u64 [sp + 0x188]\n 17549: s0 = u64 [sp + 0x180]\n 17553: s1 = u64 [sp + 0x178]\n 17557: sp = sp + 0x190\n 17561: ret\n      : @562 (gas: 1)\n 17563: trap\n      : @563 (gas: 2)\n 17564: a1 = 0x200c0\n 17569: jump @571\n      : @564 (gas: 6)\n 17571: u64 [sp + 192] = 0\n 17575: u64 [sp + 184] = 0\n 17579: u64 [sp + 176] = 0\n 17583: t0 = 0x1d4\n 17587: a0 = 0x4e487b7100000000\n 17597: fallthrough\n      : @565 [@dyn 234] (gas: 4)\n 17598: a1 = sp + 0xb0\n 17602: u64 [sp + 0xc8] = a0\n 17606: a0 = 0\n 17608: ra = 470, jump @19\n      : @566 [@dyn 235] (gas: 7)\n 17614: u64 [sp + 168] = 0\n 17618: u64 [sp + 160] = 0\n 17622: u64 [sp + 144] = 0x41\n 17627: a0 = 0x4\n 17630: a1 = sp + 0x90\n 17634: u64 [sp + 152] = 0\n 17638: ra = 472, jump @19\n      : @567 [@dyn 236] (gas: 2)\n 17644: a1 = i32 [0x200ac]\n 17649: jump @569 if a1 >u 63\n      : @568 (gas: 2)\n 17653: u32 [0x200ac] = 0x40\n 17659: fallthrough\n      : @569 (gas: 7)\n 17660: a1 = 0x200c0\n 17665: i32 a1 = a1 + 0\n 17667: a0 = 0x1\n 17670: a2 = 0x24\n 17673: ecalli 7 // 'seal_return'\n 17675: a1 = 0x200c0\n 17680: jump @571\n      : @570 (gas: 2)\n 17682: a1 = 0x200c0\n 17687: fallthrough\n      : @571 (gas: 6)\n 17688: i32 a1 = a1 + 0\n 17690: a0 = 0x1\n 17693: a2 = 0\n 17695: ra = 0x1da\n 17699: ecalli 7 // 'seal_return'\n 17701: fallthrough\n      : @572 [@dyn 237] (gas: 22)\n 17702: sp = sp + 0xfffffffffffffee0\n 17706: u64 [sp + 0x118] = ra\n 17710: u64 [sp + 0x110] = s0\n 17714: u64 [sp + 0x108] = s1\n 17718: s0 = sp + 0x120\n 17722: sp = sp & 0xfffffffffffffff0\n 17725: a4 = u64 [a1 + 0x10]\n 17728: a3 = u64 [a1 + 0x18]\n 17731: a5 = u64 [a1 + 0x8]\n 17734: t0 = u64 [a1]\n 17736: u64 [sp + 0x68] = a3\n 17739: u64 [sp + 0x78] = a5\n 17742: a1 = a5 | a3\n 17745: a3 = t0 | a4\n 17748: a3 = a3 | a1\n 17751: a3 = a3 >> 0x20\n 17754: u64 [sp + 0x70] = a4\n 17757: a1 = a1 | a4\n 17760: a1 = a1 << 0x20\n 17763: a1 = a1 | a3\n 17766: u64 [sp + 0x8] = a0\n 17769: jump @587 if a1 != 0\n      : @573 (gas: 15)\n 17773: a0 = u64 [a2 + 0x18]\n 17776: u64 [sp + 0x48] = a0\n 17779: s1 = u64 [a2 + 0x10]\n 17782: a0 = u64 [a2 + 0x8]\n 17785: u64 [sp + 0x50] = a0\n 17788: a0 = u64 [a2]\n 17790: u64 [sp + 0x58] = a0\n 17793: u64 [sp + 248] = 0\n 17797: u64 [sp + 240] = 0\n 17801: u64 [sp + 232] = 0\n 17805: a1 = sp + 0xe0\n 17809: u64 [sp + 224] = 0x20\n 17814: a0 = t0\n 17816: u64 [sp + 0x60] = t0\n 17819: ra = 476, jump @19\n      : @574 [@dyn 238] (gas: 12)\n 17825: a1 = u64 [sp + 0x58]\n 17828: a0 = a1 | s1\n 17831: a2 = u64 [sp + 0x48]\n 17834: a3 = u64 [sp + 0x50]\n 17837: a2 = a2 | a3\n 17840: a0 = a0 | a2\n 17843: a0 = a0 >> 0x20\n 17846: u64 [sp + 0x20] = s1\n 17849: a2 = a2 | s1\n 17852: a2 = a2 << 0x20\n 17855: a0 = a0 | a2\n 17858: jump @587 if a0 != 0\n      : @575 (gas: 2)\n 17862: a0 = sp + 0xc0\n 17866: ra = 478, jump @17\n      : @576 [@dyn 239] (gas: 13)\n 17872: a0 = u64 [sp + 0x70]\n 17875: a1 = u64 [sp + 0x68]\n 17878: a1 = a1 | a0\n 17881: a0 = 0x100000000\n 17891: u64 [sp + 0x10] = a0\n 17894: a0 = 0xffffffe0\n 17904: a2 = u64 [sp + 0x60]\n 17907: a0 = a2 <u a0\n 17910: a3 = u64 [sp + 0x78]\n 17913: a0 = 0 if a3 != 0\n 17915: u64 [sp + 0x18] = a1\n 17918: a0 = 0 if a1 != 0\n 17920: jump @587 if a0 == 0\n      : @577 (gas: 16)\n 17924: a3 = u64 [sp + 0xd8]\n 17928: a4 = u64 [sp + 0xd0]\n 17932: a5 = u64 [sp + 0xc8]\n 17936: a1 = u64 [sp + 0xc0]\n 17940: i32 a0 = a2 + 0x20\n 17943: u64 [sp + 0x28] = a1\n 17946: u64 [sp + 0xa0] = a1\n 17950: u64 [sp + 0x30] = a5\n 17953: u64 [sp + 0xa8] = a5\n 17957: u64 [sp + 0x38] = a4\n 17960: u64 [sp + 0xb0] = a4\n 17964: a1 = sp + 0xa0\n 17968: u64 [sp + 0x40] = a3\n 17971: u64 [sp + 0xb8] = a3\n 17975: s1 = a2\n 17977: ra = 480, jump @19\n      : @578 [@dyn 240] (gas: 8)\n 17983: a0 = u64 [sp + 0x10]\n 17986: a0 = a0 + 0xffffffffffffffc0\n 17989: a0 = s1 <u a0\n 17992: a1 = u64 [sp + 0x78]\n 17995: a0 = 0 if a1 != 0\n 17997: a1 = u64 [sp + 0x18]\n 18000: a0 = 0 if a1 != 0\n 18002: jump @587 if a0 == 0\n      : @579 (gas: 10)\n 18006: a0 = u64 [sp + 0x48]\n 18009: a1 = u64 [sp + 0x20]\n 18012: a0 = a0 | a1\n 18015: a1 = 0xffffffe0\n 18025: a3 = u64 [sp + 0x58]\n 18028: a1 = a3 <u a1\n 18031: a4 = u64 [sp + 0x50]\n 18034: a1 = 0 if a4 != 0\n 18036: a1 = 0 if a0 != 0\n 18038: jump @587 if a1 == 0\n      : @580 (gas: 13)\n 18042: a2 = s1\n 18044: a1 = u64 [sp + 0x28]\n 18047: a5 = u64 [sp + 0x38]\n 18050: a0 = a1 | a5\n 18053: a4 = u64 [sp + 0x40]\n 18056: s1 = u64 [sp + 0x30]\n 18059: a4 = a4 | s1\n 18062: a0 = a0 | a4\n 18065: a0 = a0 >> 0x20\n 18068: a4 = a4 | a5\n 18071: a4 = a4 << 0x20\n 18074: a0 = a0 | a4\n 18077: jump @587 if a0 != 0\n      : @581 (gas: 5)\n 18081: i32 a0 = a2 + 0x40\n 18084: i32 a3 = a3 + 0x20\n 18087: u64 [sp + 0x58] = a3\n 18090: s1 = a1\n 18092: ra = 482, jump @26\n      : @582 [@dyn 241] (gas: 4)\n 18098: u64 [sp + 0x50] = a0\n 18101: a0 = u64 [sp + 0x58]\n 18104: a1 = s1\n 18106: ra = 484, jump @26\n      : @583 [@dyn 242] (gas: 4)\n 18112: a1 = a0\n 18114: a0 = u64 [sp + 0x50]\n 18117: a2 = s1\n 18119: ra = 486, jump @0\n      : @584 [@dyn 243] (gas: 27)\n 18125: a0 = u64 [sp + 0x60]\n 18128: a0 = a0 + s1\n 18131: a1 = a0 <u s1\n 18134: a2 = u64 [sp + 0x78]\n 18137: a4 = u64 [sp + 0x30]\n 18140: a2 = a2 + a4\n 18143: a2 = a2 + a1\n 18146: a3 = a2 ^ a4\n 18149: a4 = a2 <u a4\n 18152: a4 = a1 if a3 == 0\n 18155: a1 = u64 [sp + 0x70]\n 18158: a3 = u64 [sp + 0x38]\n 18161: a1 = a1 + a3\n 18164: a3 = a1 <u a3\n 18167: a5 = u64 [sp + 0x68]\n 18170: s1 = u64 [sp + 0x40]\n 18173: a5 = a5 + s1\n 18176: a3 = a3 + a5\n 18179: a4 = a4 + a1\n 18182: a1 = a4 <u a1\n 18185: a1 = a1 + a3\n 18188: a1 = a1 | a4\n 18191: a3 = 0xffffffc0\n 18201: a3 = a0 <u a3\n 18204: a3 = 0 if a2 != 0\n 18206: a3 = 0 if a1 != 0\n 18208: jump @587 if a3 == 0\n      : @585 (gas: 7)\n 18212: i32 a0 = a0 + 0x40\n 18215: u64 [sp + 152] = 0\n 18219: u64 [sp + 144] = 0\n 18223: u64 [sp + 136] = 0\n 18227: a1 = sp + 0x80\n 18231: u64 [sp + 128] = 0\n 18235: ra = 488, jump @19\n      : @586 [@dyn 244] (gas: 35)\n 18241: s1 = u64 [sp + 0x28]\n 18244: s1 = s1 + 0x1f\n 18247: a0 = 0x1ffffffe0\n 18257: a0 = a0 & s1\n 18260: a1 = u64 [sp + 0x60]\n 18263: a0 = a0 + a1\n 18266: a1 = a0 <u a1\n 18269: a3 = u64 [sp + 0x78]\n 18272: a2 = a3 + a1\n 18275: a3 = a2 <u a3\n 18278: a3 = a1 if a1 == 0\n 18281: a1 = u64 [sp + 0x70]\n 18284: a3 = a3 + a1\n 18287: a1 = a3 <u a1\n 18290: a4 = u64 [sp + 0x68]\n 18293: a1 = a1 + a4\n 18296: a4 = a0 + 0x40\n 18299: a0 = a4 <u a0\n 18302: a5 = a2 + a0\n 18305: a2 = a5 <u a2\n 18308: a2 = a0 if a0 == 0\n 18311: a2 = a2 + a3\n 18314: a0 = a2 <u a3\n 18317: a0 = a0 + a1\n 18320: a1 = u64 [sp + 0x8]\n 18323: u64 [a1] = a4\n 18325: u64 [a1 + 0x8] = a5\n 18328: u64 [a1 + 0x10] = a2\n 18331: u64 [a1 + 0x18] = a0\n 18334: sp = s0 + 0xfffffffffffffee0\n 18338: ra = u64 [sp + 0x118]\n 18342: s0 = u64 [sp + 0x110]\n 18346: s1 = u64 [sp + 0x108]\n 18350: sp = sp + 0x120\n 18354: ret\n      : @587 (gas: 1)\n 18356: trap\n      : @588 [@dyn 245] (gas: 5)\n 18357: a1 = 0x4\n 18360: ra = 0x1ec\n 18364: ecalli 1 // 'call_data_load'\n 18366: t0 = 0x1ee\n 18370: jump @659\n      : @589 [@dyn 246] (gas: 1)\n 18373: t0 = 494, jump @659\n      : @590 [@dyn 247] (gas: 1)\n 18379: jump @593 if a3 == 0\n      : @591 (gas: 1)\n 18382: t0 = 496, jump @664\n      : @592 [@dyn 248] (gas: 1)\n 18388: ret\n      : @593 (gas: 8)\n 18390: a1 = 0x200c0\n 18395: i32 a1 = a1 + 0\n 18397: a0 = 0x1\n 18400: a2 = 0\n 18402: ra = 0x1f2\n 18406: ecalli 7 // 'seal_return'\n 18408: t0 = 0x1f4\n 18412: jump @670\n      : @594 [@dyn 249] (gas: 1)\n 18415: t0 = 500, jump @670\n      : @595 [@dyn 250] (gas: 5)\n 18421: a1 = 0x24\n 18424: ra = 0x1f6\n 18428: ecalli 1 // 'call_data_load'\n 18430: t0 = 0x1f8\n 18434: jump @659\n      : @596 [@dyn 251] (gas: 1)\n 18437: t0 = 504, jump @659\n      : @597 [@dyn 252] (gas: 1)\n 18443: jump @600 if a3 == 0\n      : @598 (gas: 1)\n 18446: t0 = 506, jump @664\n      : @599 [@dyn 253] (gas: 1)\n 18452: ret\n      : @600 (gas: 7)\n 18454: a1 = 0x200c0\n 18459: i32 a1 = a1 + 0\n 18461: a0 = 0x1\n 18464: a2 = 0\n 18466: ra = 0x1fc\n 18470: ecalli 7 // 'seal_return'\n 18472: fallthrough\n      : @601 [@dyn 254] (gas: 14)\n 18473: sp = sp + 0xfffffffffffffc20\n 18477: a3 = sp + 0x300\n 18481: u64 [a3 + 0xd8] = ra\n 18485: u64 [a3 + 0xd0] = s0\n 18489: u64 [a3 + 0xc8] = s1\n 18493: s0 = sp + 0x3e0\n 18497: sp = sp & 0xffffffffffffffe0\n 18500: s1 = sp\n 18502: t2 = u32 [a0 + 0x10]\n 18505: a3 = u64 [a0]\n 18507: a4 = u64 [a0 + 0x8]\n 18510: a0 = a3 | t2\n 18513: a0 = a0 | a4\n 18516: jump @633 if a0 == 0\n      : @602 (gas: 13)\n 18520: t0 = u64 [a1 + 0x10]\n 18523: t1 = u64 [a1 + 0x8]\n 18526: ra = u64 [a1]\n 18528: a5 = 0xffffffff\n 18538: a1 = t1 & 0xffffffffffffffff\n 18541: a0 = ra & 0xffffffffffffffff\n 18544: a5 = t0 & a5\n 18547: u64 [s1 + 0x48] = a0\n 18550: u64 [s1 + 0x38] = a5\n 18553: a0 = a0 | a5\n 18556: u64 [s1 + 0x40] = a1\n 18559: a0 = a0 | a1\n 18562: jump @638 if a0 == 0\n      : @603 (gas: 18)\n 18566: a0 = u64 [a2 + 0x18]\n 18569: u64 [s1 + 0x98] = a0\n 18573: a0 = u64 [a2 + 0x10]\n 18576: u64 [s1 + 0x88] = a0\n 18580: a0 = u64 [a2 + 0x8]\n 18583: u64 [s1 + 0x80] = a0\n 18587: a0 = u64 [a2]\n 18589: u64 [s1 + 0x90] = a0\n 18593: u64 [s1 + 824] = 0\n 18597: u64 [s1 + 0x60] = a3\n 18600: u64 [s1 + 0x320] = a3\n 18604: u64 [s1 + 0x58] = a4\n 18607: u64 [s1 + 0x328] = a4\n 18611: a1 = s1 + 0x320\n 18615: u64 [s1 + 0x50] = t2\n 18618: u64 [s1 + 0x330] = t2\n 18622: a0 = 0\n 18624: ra = 510, jump @19\n      : @604 [@dyn 255] (gas: 7)\n 18630: u64 [s1 + 792] = 0\n 18634: u64 [s1 + 784] = 0\n 18638: u64 [s1 + 776] = 0\n 18642: a0 = 0x20\n 18645: a1 = s1 + 0x300\n 18649: u64 [s1 + 768] = 0\n 18653: ra = 512, jump @19\n      : @605 [@dyn 256] (gas: 3)\n 18659: a2 = 0x200ac\n 18664: a0 = i32 [0x200ac]\n 18669: jump @607 if a0 >u 63\n      : @606 (gas: 2)\n 18673: u32 [0x200ac] = 0x40\n 18679: fallthrough\n      : @607 (gas: 15)\n 18680: u64 [s1 + 0x70] = a2\n 18683: a0 = sp + 0xffffffffffffffe0\n 18686: a2 = a0 & 0xffffffffffffffe0\n 18689: u64 [s1 + 0x68] = a2\n 18692: sp = a2\n 18694: a0 = 0x200c0\n 18699: i32 a0 = a0 + 0\n 18701: i32 a2 = a2 + 0\n 18703: a1 = 0x40\n 18706: u64 [s1 + 0x78] = a0\n 18709: ra = 0x202\n 18713: ecalli 6 // 'hash_keccak_256'\n 18715: a3 = u64 [s1 + 0x68]\n 18718: t0 = 0x204\n 18722: jump @661\n      : @608 [@dyn 257] (gas: 2)\n 18725: a3 = u64 [s1 + 0x68]\n 18728: t0 = 516, jump @661\n      : @609 [@dyn 258] (gas: 7)\n 18734: u64 [a4 + 0x58] = a3\n 18737: u64 [a4 + 0x50] = a2\n 18740: u64 [a4 + 0x48] = a1\n 18743: u64 [a4 + 0x40] = a0\n 18746: a0 = s1 + 0x2e0\n 18750: a1 = s1 + 0x340\n 18754: ra = 518, jump @21\n      : @610 [@dyn 259] (gas: 28)\n 18760: a1 = s1 + 0x200\n 18764: a2 = u64 [a1 + 0xf8]\n 18768: a0 = u64 [a1 + 0xf0]\n 18772: a5 = u64 [a1 + 0xe8]\n 18776: a4 = u64 [a1 + 0xe0]\n 18780: a1 = u64 [s1 + 0x98]\n 18784: t1 = a2 ^ a1\n 18787: u64 [s1 + 0x28] = a2\n 18790: a1 = a2 <u a1\n 18793: a2 = u64 [s1 + 0x88]\n 18797: a3 = a0 <u a2\n 18800: u64 [s1 + 0x10] = a3\n 18803: a1 = a3 if t1 == 0\n 18806: a3 = u64 [s1 + 0x80]\n 18810: t0 = a5 ^ a3\n 18813: u64 [s1 + 0x30] = a5\n 18816: a5 = a5 <u a3\n 18819: a3 = u64 [s1 + 0x90]\n 18823: u64 [s1 + 0x68] = a4\n 18826: a3 = a4 <u a3\n 18829: u64 [s1 + 0x18] = a3\n 18832: a5 = a3 if t0 == 0\n 18835: u64 [s1 + 0x20] = a0\n 18838: a2 = a2 ^ a0\n 18841: a0 = a2 | t1\n 18844: u64 [s1 + 0x8] = a5\n 18847: a1 = a5 if a0 == 0\n 18850: jump @644 if a1 != 0\n      : @611 (gas: 11)\n 18854: u64 [s1 + 728] = 0\n 18858: a0 = u64 [s1 + 0x60]\n 18861: a2 = s1 + 0x200\n 18865: u64 [a2 + 0xc0] = a0\n 18869: a0 = u64 [s1 + 0x58]\n 18872: u64 [a2 + 0xc8] = a0\n 18876: a1 = s1 + 0x2c0\n 18880: a0 = u64 [s1 + 0x50]\n 18883: u64 [a2 + 0xd0] = a0\n 18887: a0 = 0\n 18889: ra = 520, jump @19\n      : @612 [@dyn 260] (gas: 7)\n 18895: u64 [s1 + 696] = 0\n 18899: u64 [s1 + 688] = 0\n 18903: u64 [s1 + 680] = 0\n 18907: a0 = 0x20\n 18910: a1 = s1 + 0x2a0\n 18914: u64 [s1 + 672] = 0\n 18918: ra = 522, jump @19\n      : @613 [@dyn 261] (gas: 27)\n 18924: a0 = u64 [s1 + 0x88]\n 18928: a1 = u64 [s1 + 0x20]\n 18931: a0 = a1 - a0\n 18934: a2 = u64 [s1 + 0x8]\n 18937: a1 = a0 - a2\n 18940: u64 [s1 + 0x20] = a1\n 18943: a0 = a0 <u a2\n 18946: a1 = u64 [s1 + 0x98]\n 18950: a2 = u64 [s1 + 0x28]\n 18953: a1 = a2 - a1\n 18956: a2 = u64 [s1 + 0x10]\n 18959: a1 = a1 - a2\n 18962: a1 = a1 - a0\n 18965: u64 [s1 + 0x28] = a1\n 18968: a2 = u64 [s1 + 0x70]\n 18971: a0 = i32 [a2]\n 18973: a1 = u64 [s1 + 0x80]\n 18977: a3 = u64 [s1 + 0x30]\n 18980: a1 = a3 - a1\n 18983: a3 = u64 [s1 + 0x18]\n 18986: a1 = a1 - a3\n 18989: u64 [s1 + 0x30] = a1\n 18992: a1 = u64 [s1 + 0x90]\n 18996: a3 = u64 [s1 + 0x68]\n 18999: a3 = a3 - a1\n 19002: u64 [s1 + 0x68] = a3\n 19005: jump @615 if a0 >u 63\n      : @614 (gas: 2)\n 19009: u32 [a2 + 0] = 0x40\n 19012: fallthrough\n      : @615 (gas: 12)\n 19013: a0 = sp + 0xffffffffffffffe0\n 19016: a0 = a0 & 0xffffffffffffffe0\n 19019: u64 [s1 + 0x18] = a0\n 19022: sp = a0\n 19024: i32 a2 = a0 + 0\n 19026: a1 = 0x40\n 19029: a0 = u64 [s1 + 0x78]\n 19032: ra = 0x20c\n 19036: ecalli 6 // 'hash_keccak_256'\n 19038: a3 = u64 [s1 + 0x18]\n 19041: t0 = 0x20e\n 19045: jump @661\n      : @616 [@dyn 262] (gas: 2)\n 19048: a3 = u64 [s1 + 0x18]\n 19051: t0 = 526, jump @661\n      : @617 [@dyn 263] (gas: 15)\n 19057: u64 [a4 + 0x78] = a3\n 19060: u64 [a4 + 0x70] = a2\n 19063: u64 [a4 + 0x68] = a1\n 19066: u64 [a4 + 0x60] = a0\n 19069: a0 = u64 [s1 + 0x28]\n 19072: u64 [a4 + 0x98] = a0\n 19076: a0 = u64 [s1 + 0x20]\n 19079: u64 [a4 + 0x90] = a0\n 19083: a0 = u64 [s1 + 0x30]\n 19086: u64 [a4 + 0x88] = a0\n 19090: a0 = u64 [s1 + 0x68]\n 19093: u64 [a4 + 0x80] = a0\n 19097: a0 = s1 + 0x360\n 19101: a1 = s1 + 0x380\n 19105: ra = 528, jump @22\n      : @618 [@dyn 264] (gas: 11)\n 19111: u64 [s1 + 664] = 0\n 19115: a0 = u64 [s1 + 0x38]\n 19118: a2 = s1 + 0x200\n 19122: u64 [a2 + 0x90] = a0\n 19126: a0 = u64 [s1 + 0x40]\n 19129: u64 [a2 + 0x88] = a0\n 19133: a1 = s1 + 0x280\n 19137: a0 = u64 [s1 + 0x48]\n 19140: u64 [a2 + 0x80] = a0\n 19144: a0 = 0\n 19146: ra = 530, jump @19\n      : @619 [@dyn 265] (gas: 7)\n 19152: u64 [s1 + 632] = 0\n 19156: u64 [s1 + 624] = 0\n 19160: u64 [s1 + 616] = 0\n 19164: a0 = 0x20\n 19167: a1 = s1 + 0x260\n 19171: u64 [s1 + 608] = 0\n 19175: ra = 532, jump @19\n      : @620 [@dyn 266] (gas: 7)\n 19181: a1 = u64 [s1 + 0x70]\n 19184: a0 = sp + 0xffffffffffffffe0\n 19187: a0 = a0 & 0xffffffffffffffe0\n 19190: u64 [s1 + 0x68] = a0\n 19193: sp = a0\n 19195: a0 = i32 [a1]\n 19197: jump @622 if a0 >u 63\n      : @621 (gas: 2)\n 19201: u32 [a1 + 0] = 0x40\n 19204: fallthrough\n      : @622 (gas: 12)\n 19205: a0 = sp + 0xffffffffffffffe0\n 19208: a0 = a0 & 0xffffffffffffffe0\n 19211: u64 [s1 + 0x70] = a0\n 19214: sp = a0\n 19216: i32 a2 = a0 + 0\n 19218: a1 = 0x40\n 19221: a0 = u64 [s1 + 0x78]\n 19224: ra = 0x216\n 19228: ecalli 6 // 'hash_keccak_256'\n 19230: a3 = u64 [s1 + 0x70]\n 19233: t0 = 0x218\n 19237: jump @655\n      : @623 [@dyn 267] (gas: 2)\n 19240: a3 = u64 [s1 + 0x70]\n 19243: t0 = 536, jump @655\n      : @624 [@dyn 268] (gas: 7)\n 19249: a1 = u64 [s1 + 0x68]\n 19252: u64 [a1 + 0x18] = a3\n 19255: u64 [a1 + 0x10] = a2\n 19258: u64 [a1 + 0x8] = a4\n 19261: u64 [a1] = a0\n 19263: a0 = s1 + 0x240\n 19267: ra = 538, jump @21\n      : @625 [@dyn 269] (gas: 30)\n 19273: a0 = u64 [s1 + 0x248]\n 19277: a1 = u64 [s1 + 0x240]\n 19281: t0 = u64 [s1 + 0x258]\n 19285: a3 = u64 [s1 + 0x250]\n 19289: a4 = u64 [s1 + 0x80]\n 19293: a4 = a4 + a0\n 19296: a5 = u64 [s1 + 0x90]\n 19300: a5 = a5 + a1\n 19303: a1 = a5 <u a1\n 19306: a4 = a4 + a1\n 19309: a2 = a4 ^ a0\n 19312: a0 = a4 <u a0\n 19315: a0 = a1 if a2 == 0\n 19318: a1 = u64 [s1 + 0x88]\n 19322: a1 = a1 + a3\n 19325: a2 = u64 [s1 + 0x98]\n 19329: t0 = t0 + a2\n 19332: a2 = a1 <u a3\n 19335: a2 = a2 + t0\n 19338: a0 = a0 + a1\n 19341: a1 = a0 <u a1\n 19344: a1 = a1 + a2\n 19347: a2 = s1 + 0x300\n 19351: u64 [a2 + 0xa0] = a5\n 19355: u64 [a2 + 0xa8] = a4\n 19359: u64 [a2 + 0xb0] = a0\n 19363: u64 [a2 + 0xb8] = a1\n 19367: a1 = s1 + 0x3a0\n 19371: a0 = u64 [s1 + 0x68]\n 19374: ra = 540, jump @22\n      : @626 [@dyn 270] (gas: 3)\n 19380: a0 = s1 + 0x220\n 19384: a1 = 0x40\n 19387: ra = 542, jump @17\n      : @627 [@dyn 271] (gas: 6)\n 19393: a4 = s1 + 0x200\n 19397: a3 = u64 [a4 + 0x38]\n 19400: a1 = u64 [a4 + 0x30]\n 19403: a2 = u64 [a4 + 0x28]\n 19406: a0 = u64 [a4 + 0x20]\n 19409: t0 = 544, jump @658\n      : @628 [@dyn 272] (gas: 1)\n 19415: jump @632 if a1 != 0\n      : @629 (gas: 12)\n 19419: a1 = u64 [s1 + 0x90]\n 19423: a3 = s1 + 0x200\n 19427: u64 [a3] = a1\n 19429: a1 = u64 [s1 + 0x80]\n 19433: u64 [a3 + 0x8] = a1\n 19436: a1 = u64 [s1 + 0x88]\n 19440: u64 [a3 + 0x10] = a1\n 19443: a1 = s1 + 0x200\n 19447: a2 = u64 [s1 + 0x98]\n 19451: u64 [a3 + 0x18] = a2\n 19454: u64 [s1 + 0x98] = a0\n 19458: ra = 546, jump @19\n      : @630 [@dyn 273] (gas: 29)\n 19464: u64 [s1 + 440] = 0\n 19468: a0 = u64 [s1 + 0x38]\n 19471: a5 = s1 + 0x100\n 19475: u64 [a5 + 0xb0] = a0\n 19479: a0 = u64 [s1 + 0x40]\n 19482: u64 [a5 + 0xa8] = a0\n 19486: a0 = u64 [s1 + 0x48]\n 19489: u64 [a5 + 0xa0] = a0\n 19493: u64 [s1 + 472] = 0\n 19497: a0 = u64 [s1 + 0x50]\n 19500: u64 [a5 + 0xd0] = a0\n 19504: a0 = u64 [s1 + 0x58]\n 19507: u64 [a5 + 0xc8] = a0\n 19511: a0 = u64 [0x20088]\n 19516: a1 = u64 [0x20090]\n 19521: a2 = u64 [0x20098]\n 19526: a3 = u64 [s1 + 0x60]\n 19529: u64 [a5 + 0xc0] = a3\n 19533: u64 [a5 + 0xf8] = a0\n 19537: u64 [a5 + 0xf0] = a1\n 19541: u64 [a5 + 0xe8] = a2\n 19545: a0 = u64 [0x200a0]\n 19550: a1 = 0x20\n 19553: a2 = s1 + 0x1e0\n 19557: a3 = s1 + 0x1c0\n 19561: a4 = s1 + 0x1a0\n 19565: u64 [a5 + 0xe0] = a0\n 19569: a0 = u64 [s1 + 0x98]\n 19573: ra = 548, jump @23\n      : @631 [@dyn 274] (gas: 7)\n 19579: sp = s0 + 0xfffffffffffffc20\n 19583: a0 = sp + 0x300\n 19587: ra = u64 [a0 + 0xd8]\n 19591: s0 = u64 [a0 + 0xd0]\n 19595: s1 = u64 [a0 + 0xc8]\n 19599: sp = sp + 0x3e0\n 19603: ret\n      : @632 (gas: 1)\n 19605: trap\n      : @633 (gas: 8)\n 19606: u64 [s1 + 208] = 0\n 19610: u64 [s1 + 200] = 0\n 19614: u64 [s1 + 192] = 0\n 19618: a0 = 0x96c6fd1e00000000\n 19628: a1 = s1 + 0xc0\n 19632: u64 [s1 + 0xd8] = a0\n 19636: a0 = 0\n 19638: ra = 550, jump @19\n      : @634 [@dyn 275] (gas: 7)\n 19644: u64 [s1 + 184] = 0\n 19648: u64 [s1 + 176] = 0\n 19652: u64 [s1 + 168] = 0\n 19656: a0 = 0x4\n 19659: a1 = s1 + 0xa0\n 19663: u64 [s1 + 160] = 0\n 19667: ra = 552, jump @19\n      : @635 [@dyn 276] (gas: 2)\n 19673: a1 = i32 [0x200ac]\n 19678: jump @637 if a1 >u 63\n      : @636 (gas: 3)\n 19682: u32 [0x200ac] = 0x40\n 19688: a1 = 0x200c0\n 19693: jump @643\n      : @637 (gas: 2)\n 19695: a1 = 0x200c0\n 19700: jump @643\n      : @638 (gas: 8)\n 19702: u64 [s1 + 272] = 0\n 19706: u64 [s1 + 264] = 0\n 19710: u64 [s1 + 256] = 0\n 19714: a0 = 0xec442f0500000000\n 19724: a1 = s1 + 0x100\n 19728: u64 [s1 + 0x118] = a0\n 19732: a0 = 0\n 19734: ra = 554, jump @19\n      : @639 [@dyn 277] (gas: 7)\n 19740: u64 [s1 + 248] = 0\n 19744: u64 [s1 + 240] = 0\n 19748: u64 [s1 + 232] = 0\n 19752: a0 = 0x4\n 19755: a1 = s1 + 0xe0\n 19759: u64 [s1 + 224] = 0\n 19763: ra = 556, jump @19\n      : @640 [@dyn 278] (gas: 2)\n 19769: a1 = i32 [0x200ac]\n 19774: jump @642 if a1 >u 63\n      : @641 (gas: 3)\n 19778: u32 [0x200ac] = 0x40\n 19784: a1 = 0x200c0\n 19789: jump @643\n      : @642 (gas: 2)\n 19791: a1 = 0x200c0\n 19796: fallthrough\n      : @643 (gas: 5)\n 19797: i32 a1 = a1 + 0\n 19799: a0 = 0x1\n 19802: a2 = 0x24\n 19805: ecalli 7 // 'seal_return'\n 19807: fallthrough\n      : @644 (gas: 8)\n 19808: u64 [s1 + 400] = 0\n 19812: u64 [s1 + 392] = 0\n 19816: u64 [s1 + 384] = 0\n 19820: a0 = 0xe450d38c00000000\n 19830: a1 = s1 + 0x180\n 19834: u64 [s1 + 0x198] = a0\n 19838: a0 = 0\n 19840: ra = 558, jump @19\n      : @645 [@dyn 279] (gas: 10)\n 19846: u64 [s1 + 376] = 0\n 19850: a0 = u64 [s1 + 0x50]\n 19853: u64 [s1 + 0x170] = a0\n 19857: a0 = u64 [s1 + 0x58]\n 19860: u64 [s1 + 0x168] = a0\n 19864: a0 = 0x4\n 19867: a1 = s1 + 0x160\n 19871: a2 = u64 [s1 + 0x60]\n 19874: u64 [s1 + 0x160] = a2\n 19878: ra = 560, jump @19\n      : @646 [@dyn 280] (gas: 11)\n 19884: a0 = u64 [s1 + 0x28]\n 19887: u64 [s1 + 0x158] = a0\n 19891: a0 = u64 [s1 + 0x20]\n 19894: u64 [s1 + 0x150] = a0\n 19898: a0 = u64 [s1 + 0x30]\n 19901: u64 [s1 + 0x148] = a0\n 19905: a0 = 0x24\n 19908: a1 = s1 + 0x140\n 19912: a2 = u64 [s1 + 0x68]\n 19915: u64 [s1 + 0x140] = a2\n 19919: ra = 562, jump @19\n      : @647 [@dyn 281] (gas: 12)\n 19925: a0 = u64 [s1 + 0x98]\n 19929: a3 = s1 + 0x100\n 19933: u64 [a3 + 0x38] = a0\n 19936: a0 = u64 [s1 + 0x88]\n 19940: u64 [a3 + 0x30] = a0\n 19943: a0 = u64 [s1 + 0x80]\n 19947: u64 [a3 + 0x28] = a0\n 19950: a0 = 0x44\n 19953: a1 = s1 + 0x120\n 19957: a2 = u64 [s1 + 0x90]\n 19961: u64 [a3 + 0x20] = a2\n 19964: ra = 564, jump @19\n      : @648 [@dyn 282] (gas: 3)\n 19970: a0 = u64 [s1 + 0x70]\n 19973: a0 = i32 [a0]\n 19975: jump @650 if a0 >u 127\n      : @649 (gas: 3)\n 19979: a1 = u64 [s1 + 0x70]\n 19982: u32 [a1 + 0] = 0x80\n 19986: fallthrough\n      : @650 (gas: 7)\n 19987: a0 = 0x1\n 19990: a2 = 0x64\n 19993: a1 = u64 [s1 + 0x78]\n 19996: ecalli 7 // 'seal_return'\n 19998: a0 = 0\n 20000: ra = 0x236\n 20004: jump @32\n      : @651 [export #0: 'call'] (gas: 2)\n 20007: a0 = 0\n 20009: ra = 566, jump @32\n      : @652 [@dyn 283] [export #1: 'deploy'] (gas: 2)\n 20015: a0 = 0x1\n 20018: ra = 568, jump @32\n      : @653 [@dyn 284] (gas: 14)\n 20024: a0 = u64 [a2 + 0x8]\n 20027: a1 = i32 [a2 + 0x10]\n 20030: a2 = u64 [a2]\n 20032: a0 = reverse a0\n 20034: a3 = a0 << 0x20\n 20037: a1 = reverse a1\n 20039: a1 = a1 >> 0x20\n 20042: a3 = a3 | a1\n 20045: a0 = a0 >> 0x20\n 20048: a1 = reverse a2\n 20050: a2 = a1 << 0x20\n 20053: a0 = a0 | a2\n 20056: a1 = a1 >> 0x20\n 20059: jump [t0]\n      : @654 (gas: 22)\n 20061: a4 = u64 [s1 + 0x118]\n 20065: a2 = a4 <u 0x80\n 20069: a3 = u64 [s1 + 0xd0]\n 20073: a1 = a3 if a2 != 0\n 20076: a5 = u64 [s1 + 0xd8]\n 20080: a3 = u64 [s1 + 0xe8]\n 20084: a3 = a3 | a5\n 20087: a3 = a0 if a2 == 0\n 20090: a1 = 0xffffffffffffffff if a4 == 0\n 20093: a3 = 0xffffffffffffffff if a4 == 0\n 20096: a4 = u64 [s1 + 0xe0]\n 20100: a4 = 0 if a2 == 0\n 20102: a5 = 0 if a2 == 0\n 20104: a0 = u64 [s1 + 0xf8]\n 20108: a0 = a0 & ~a3\n 20111: a2 = u64 [s1 + 0x100]\n 20115: a1 = a2 & ~a1\n 20118: a2 = u64 [s1 + 0x108]\n 20122: a2 = a2 & ~a5\n 20125: a3 = u64 [s1 + 0x110]\n 20129: a3 = a3 & ~a4\n 20132: jump [t0]\n      : @655 (gas: 9)\n 20134: a0 = u64 [a3 + 0x18]\n 20137: a1 = u64 [a3 + 0x10]\n 20140: a2 = u64 [a3 + 0x8]\n 20143: a3 = u64 [a3]\n 20145: a0 = reverse a0\n 20147: a4 = reverse a1\n 20149: a2 = reverse a2\n 20151: a3 = reverse a3\n 20153: jump [t0]\n      : @656 (gas: 13)\n 20155: a4 = a0 << 0x3f\n 20158: a5 = a1 >> 0x1\n 20161: t1 = a5 | a4\n 20164: a5 = a3 << 0x3f\n 20167: a0 = a0 >> 0x1\n 20170: a0 = a0 | a5\n 20173: a1 = a1 << 0x3f\n 20176: a5 = a2 >> 0x1\n 20179: a1 = a1 | a5\n 20182: a3 = a3 >> 0x1\n 20185: a2 = a2 & 0x1\n 20188: a5 = -a2\n 20190: jump [t0]\n      : @657 (gas: 10)\n 20192: a4 = 0 if a2 == 0\n 20194: a1 = u64 [s1 + 0xf8]\n 20198: a1 = a1 & ~a3\n 20201: a2 = u64 [s1 + 0x100]\n 20205: a0 = a2 & ~a0\n 20208: a2 = u64 [s1 + 0x108]\n 20212: a2 = a2 & ~a4\n 20215: a3 = u64 [s1 + 0x110]\n 20219: a3 = a3 & ~a5\n 20222: jump [t0]\n      : @658 (gas: 8)\n 20224: a3 = a3 | a2\n 20227: a2 = a0 | a1\n 20230: a2 = a2 | a3\n 20233: a2 = a2 >> 0x20\n 20236: a1 = a1 | a3\n 20239: a1 = a1 << 0x20\n 20242: a1 = a1 | a2\n 20245: jump [t0]\n      : @659 (gas: 10)\n 20247: a0 = u64 [sp + 0x10]\n 20250: a1 = u64 [sp + 0x18]\n 20253: a2 = 0x100000000\n 20263: a2 = a2 ^ a0\n 20266: a2 = a2 | a1\n 20269: a3 = a0 >> 0x20\n 20272: a3 = a3 <u 0x1\n 20275: a3 = 0 if a1 != 0\n 20277: a3 = 0 if a2 == 0\n 20279: jump [t0]\n      : @660 (gas: 8)\n 20281: a2 = a4 >u 0\n 20283: a1 = a1 ^ 0x1\n 20286: a1 = a2 if a4 != 0\n 20289: a2 = t2 >u 0\n 20291: a3 = a5 >u 0\n 20293: a3 = a2 if a5 == 0\n 20296: a3 = a1 if a0 == 0\n 20299: jump [t0]\n      : @661 (gas: 10)\n 20301: a0 = u64 [a3 + 0x18]\n 20304: a1 = u64 [a3 + 0x10]\n 20307: a2 = u64 [a3 + 0x8]\n 20310: a3 = u64 [a3]\n 20312: a0 = reverse a0\n 20314: a1 = reverse a1\n 20316: a2 = reverse a2\n 20318: a3 = reverse a3\n 20320: a4 = s1 + 0x300\n 20324: jump [t0]\n      : @662 (gas: 8)\n 20326: a2 = a1 | a5\n 20329: a0 = a0 | a3\n 20332: a2 = a2 | a0\n 20335: a2 = a2 >> 0x20\n 20338: a0 = a0 | a5\n 20341: a0 = a0 << 0x20\n 20344: a0 = a0 | a2\n 20347: jump [t0]\n      : @663 (gas: 10)\n 20349: u64 [s1 + 264] = 0\n 20353: a4 = 0\n 20355: ra = 0\n 20357: u64 [s1 + 248] = 0\n 20361: u64 [s1 + 256] = 0\n 20365: a3 = u64 [s1 + 0xe8]\n 20369: a0 = u64 [a3 + 0x18]\n 20372: a1 = u64 [a3 + 0x10]\n 20375: a2 = u64 [a3 + 0x8]\n 20378: jump [t0]\n      : @664 (gas: 12)\n 20380: a2 = u64 [sp]\n 20382: a3 = u64 [sp + 0x8]\n 20385: u64 [s1] = a2\n 20387: u64 [s1 + 0x8] = a3\n 20390: u64 [s1 + 0x10] = a0\n 20393: u64 [s1 + 0x18] = a1\n 20396: sp = s0 + 0xffffffffffffffc0\n 20399: ra = u64 [sp + 0x38]\n 20402: s0 = u64 [sp + 0x30]\n 20405: s1 = u64 [sp + 0x28]\n 20408: sp = sp + 0x40\n 20411: jump [t0]\n      : @665 (gas: 8)\n 20413: a0 = a0 | a2\n 20416: a2 = a3 | a1\n 20419: a2 = a2 | a0\n 20422: a2 = a2 >> 0x20\n 20425: a0 = a0 | a1\n 20428: a0 = a0 << 0x20\n 20431: a0 = a0 | a2\n 20434: jump [t0]\n      : @666 (gas: 7)\n 20436: a0 = a0 << 0x3b\n 20439: a1 = a0 >> 0x38\n 20442: u64 [s1 + 0x118] = a1\n 20446: a2 = 0x80 - a1\n 20450: a0 = 0xffffffffffffffff\n 20453: a1 = 0xffffffffffffffff\n 20456: jump [t0]\n      : @667 (gas: 10)\n 20458: u64 [s1 + 0xd8] = a0\n 20462: u64 [s1 + 0xe0] = a1\n 20466: a0 = u64 [s1 + 0xd0]\n 20470: a0 = a0 | a1\n 20473: u64 [s1 + 0xd0] = a0\n 20477: a0 = u64 [s1 + 0x118]\n 20481: a2 = a0 + 0xffffffffffffff80\n 20484: a0 = 0xffffffffffffffff\n 20487: a1 = 0xffffffffffffffff\n 20490: jump [t0]\n      : @668 (gas: 8)\n 20492: a0 = u64 [a2 + 0x8]\n 20495: a1 = i32 [a2 + 0x10]\n 20498: a2 = u64 [a2]\n 20500: a3 = reverse a0\n 20502: a0 = a3 << 0x20\n 20505: a1 = reverse a1\n 20507: a1 = a1 >> 0x20\n 20510: jump [t0]\n      : @669 (gas: 7)\n 20512: a3 = a3 | a5\n 20515: a3 = a1 if a2 == 0\n 20518: a1 = 0xffffffffffffffff\n 20521: a0 = a1 if a4 == 0\n 20524: a3 = a1 if a4 == 0\n 20527: a5 = 0 if a2 == 0\n 20529: jump [t0]\n      : @670 (gas: 9)\n 20531: sp = sp + 0xffffffffffffffc0\n 20534: u64 [sp + 0x38] = ra\n 20537: u64 [sp + 0x30] = s0\n 20540: u64 [sp + 0x28] = s1\n 20543: s0 = sp + 0x40\n 20546: sp = sp & 0xffffffffffffffe0\n 20549: s1 = a0\n 20551: i32 a0 = sp + 0\n 20553: jump [t0]\n      : @671 (gas: 6)\n 20555: a0 = u64 [a3 + 0x18]\n 20558: a1 = u64 [a3 + 0x10]\n 20561: a2 = u64 [a3 + 0x8]\n 20564: a3 = u64 [a3]\n 20566: a0 = reverse a0\n 20568: jump [t0]\n      : @672 (gas: 8)\n 20570: a1 = sp + 0xffffffffffffffe0\n 20573: a1 = a1 & 0xffffffffffffffe0\n 20576: u64 [s1 + 0xe8] = a1\n 20580: sp = a1\n 20582: i32 a0 = a0 + 0\n 20584: i32 a2 = a1 + 0\n 20586: a1 = 0x20\n 20589: jump [t0]\n      : @673 (gas: 8)\n 20591: a0 = a0 + a4\n 20594: a3 = a3 + a1\n 20597: a5 = a3 <u a1\n 20600: a0 = a0 + a5\n 20603: ra = u64 [s1 + 0xe0]\n 20607: ra = ra + a3\n 20610: a3 = ra <u a3\n 20613: jump [t0]\n      : @674 (gas: 6)\n 20615: a1 = a3 << 0x3\n 20618: u64 [s1 + 0x118] = a1\n 20622: i32 a2 = 0x80 - a1\n 20626: a0 = 0xffffffffffffffff\n 20629: a1 = 0xffffffffffffffff\n 20632: jump [t0]\n      : @675 (gas: 2)\n 20634: a3 = a2 & 0x40\n 20637: jump @679 if a3 != 0\n      : @676 (gas: 1)\n 20640: jump @678 if a2 == 0\n      : @677 (gas: 6)\n 20643: i32 a3 = 0x40 - a2\n 20646: a3 = a1 << a3\n 20649: a1 = a1 >> a2\n 20652: a0 = a0 >> a2\n 20655: a0 = a0 | a3\n 20658: ret\n      : @678 (gas: 1)\n 20660: ret\n      : @679 (gas: 4)\n 20662: a0 = a2 + 0xffffffffffffffc0\n 20665: a0 = a1 >> a0\n 20668: a1 = 0\n 20670: ret\n      : @680 (gas: 2)\n 20672: a3 = a2 & 0x40\n 20675: jump @684 if a3 != 0\n      : @681 (gas: 1)\n 20678: jump @683 if a2 == 0\n      : @682 (gas: 6)\n 20681: i32 a3 = 0x40 - a2\n 20684: a3 = a0 >> a3\n 20687: a0 = a0 << a2\n 20690: a1 = a1 << a2\n 20693: a1 = a1 | a3\n 20696: ret\n      : @683 (gas: 1)\n 20698: ret\n      : @684 (gas: 4)\n 20700: a1 = a2 + 0xffffffffffffffc0\n 20703: a1 = a0 << a1\n 20706: a0 = 0\n 20708: ret\n","bytecode":{"object":"50564d0000dc5e000000000000010700c1e000c000800380a81af85fc1fbac358af209d74f347dae39c6658caab400868e9bd16be37ffe4bb6ffffef9cd2a138949bc8e21bad52f2ddaa8d37fc68b0c26916a1c463f1a72b95efb323f54d5af5285b7decebe5e15b8cf3841e7d42714fd11e29b2f7c01403dd25b9c3c7c80a205b003c599e0e5a57c228db122fc9f859f9d002053b5a39c3695bf8716f4416255e9bc8e21bad52f2ddaa8d37fc68b0c26916a1c463f1a72b95efb323f54d5af5280480bd0b000000000e0000001c0000002a000000300000003d000000480000005700000062000000740000007f00000063616c6c5f646174615f636f707963616c6c5f646174615f6c6f616463616c6c5f646174615f73697a6563616c6c65726465706f7369745f6576656e746765745f73746f72616765686173685f6b656363616b5f3235367365616c5f72657475726e7365745f696d6d757461626c655f646174617365745f73746f7261676576616c75655f7472616e73666572726564051302c0274e0463616c6cc02f4e066465706c6f7906c0415d811c02c0e6509b00e30100040804de042d056805c40508062a06f7064d07e50739089908b208db0815092e0ae30a910ba70bac0bbe0b8f0cc00cfb0d080e300e350e4c0e510e560e5b0e7c0efb0e4f0f540f6d0f920fae0fb70fff0f2f108d10a110c81003111f12d4124d13631368137a13201439146a14ab15b815e515ea15011606160c1612163416c3162c1732174d17731790179a17e417f1170718661876189418ce18de18fc183619461964199c19ac19ca19051a1b1a261a4c1a091bd01b6c1cac1c231d5d1def1d1a1e601e6a1ea71eb11ed51e071f391f421f5e1f2f205c208e209720c920d32002213e21ed215e226b2285220a23d323dd23f92317245d246724b124e224372544255e259325a825b2252c2639264f26cd261727fd2769285a29c129172bac2bc12bcb2be82b052c4e2c582c712ccc2cd92cf32c222d372d412db12d342e612e7b2e222f542fa32fce2f14301e308130bc30f030fa3017315331183213332433e23319344334ac34e8344d355a35813526367e369237d53788386239fb39d03ae03afe3a633b803bc53be23b423c6d3cc23cdf3c193d293d473dcc3de13deb3d083e313e5e3eb43e0b3f283f873fb23fed3f3440de40234131414a416e4118428542e242de43ec43f9436e44be44ce44ec442645a145d0453f46b246c046cd464147b547c547cb47d447ef47f54705480b4814482948c648e34825492e494849cf49ec49684a714aa74ad04aed4a284b314b494bb44bc14bd74b084c7b4cbc4cd94c1c4d394d864dac4dd54d024e2f4e384eaa876e978a2098aa20977b2098bb20c89b0bc9ba0a979b019abbaeab20ae873751094ec87909647a017c8b95880195ac0178ab64caab9cf42836510934c87909647a017c8b95880195ac0178ab64caab9cf4281c51091a839aff01c8a80b7cbb9599ffc8a70c78cb83aaff5209f032003908b0000251089a193307e0000383770a08288d199511f07b10087b15648964753308206497501002f9037c78017c797c7a027c7b03978808d4980897aa1097bb18d4ba0ad4a8087c79057c7a047c7b067c7c07979908d4a90997bb1097cc18d4cb0bd4b909979920d489027c79097c7a087c7b0a7c7c0b979908d4a90997bb1097cc18d4cb0bd4b9097c7a0d7c7b0c7c7c0e7c780f97aa08d4ba0a97cc10978818d4c808d4a808978820d498037c78117c7a107c7b127c7c13978808d4a80897bb1097cc18d4cb0bd4b8087c7a157c7b147c7c167c791797aa08d4ba0a97cc10979918d4c909d4a909979920d4890a7c78197c79187c7b1a7c7c1b978808d4980897bb1097cc18d4cb0bd4b8087c791d7c7b1c7c7c1e7c771f979908d4b90997cc10977718d4c707d49707977720d487076f776fa86f396f2a7b5a187b59107b58087b57821008821595111032009511d87b10207b15187b161082897b19088289087b19828510828618330820501004b1026f686f59821a6faa821b086fbb787b18787a10787908787898bc38787c1f98bc30787c1e98bc28787c1d98bc20787c1c98bc18787c1b98bc10787c1a98bb08787b1998ab38787b1798ab30787b1698ab28787b1598ab20787b1498ab18787b1398ab10787b1298aa08787a11989a38787a0f989a30787a0e989a28787a0d989a20787a0c989a18787a0b989a10787a0a98990878790998893878790798893078790698892878790598892078790498891878790398891078790298880878780182102082151882161095112832009511a07b10587b15507b16489515608411e06476828718828910828a0882886f776f996faa6f887b18187b1a107b19087b17491138491130491128491120481140208318831a20831b403309ff33070a05821738821830821928821a206f776f886f996faa7b6a187b69107b68087b679551a082105882155082164895116032009511a07b10587b15509515608411e08272827a08827b108277188283828908828c108288186f746fbb6faa6f276f826fcc6f996f387b17187b1a107b1b087b147b18387b19307b1c287b12208318831a203309ff330b2033070a099551a08210588215509511603200951120ff7b10d8007b15d0007b16c8009515e0008411e082bc7b1c4082bc087b1c4882bc107b1c5082bb187b1b5833020682ab7b1b1882ab087b1b2082ab107b1b2882aa187b1a308296829a087b1a829a107b1a088299187b1910491138203300082892007b18385010088c006f687b187882186f887b18708218086f887b18688218106f887b18608218186f887b1898008218206f887b1890008218286f887b1888008218306f887b1880008218406f887b18b8008218486f887b18b0008218506f887b18a8008218586f887b18a0008379811a388317603308030a04955120ff8210d8008215d0008216c8009511e00032008b7910520931c8780883881f8488e05638000001253309ac0002390aac0002ae8a093d08ac0002013308c000028377c887073200009511f07b10087b158475010a02013d07a8000251050750100a5333000c951110fe7b10e8017b15e0017b16d8019515f001951100f89511b0f88411e064169569ff079599794929e0054929d8054929c80580003307409568ff07958841064929d0053300b6002895fc951160f8951700077b7098007b7590007b7688009515a0078411e064164926580549265005492640058000330740956840054926480550100e5cfc49267805492670054926680549266005836760050a0a01956b000582b77082b87882b96882ba60d49808d4a707d487075107062871123809a8000249261805492610054926080595672005956800057b6918017b6900055010103b3a956b000582ba3882b93082b82882b720956b00017bba107bb8d48a0ad49708d4a8089888207bb908d4a909979920d498085108062813127b67f800826818015010128cfe83778168180133090a018268180156183f072802129567e0048268f80050101460fa8267f8048262f004826be8047b67f000d4720988ba01949a520a0628e711826ae0048263f80082641801c83404d83408c8a3037b631801d8a30a82690001c89b07649cc8a703d3b309d8b30bda9a0b64c9c88c0cd89c09da880982680801c8820ad82a00826710018262f000c87202c82000c89802c8ab0bd8ab09c8900ad88208c878087b64f0007b6480047b6ce8007b6c880482671801956c00047bc7a0007b6218017b6290047b68e0007bc898007b63a8047bcbb0009567c0049568a004956980047bcab8005010167c3a8269f800956b000182b70882b810d487071408e0ffffff00000000d8890882ba94a8947852080628ed108267d8047b67a0008267d0047b6798008267c8047b67a8008267c0047b67b000839820956760045010183df9826278048268700482696804d4280a889b0194ab520b0628d810826a6004826bf800c8ab0bd8ab0a826c0001c89c0cc8ac0cd39c07d89c09da7a0982670801c88707c87909d8790ad8870782681001c88202c82707c87a0a8267f0007b6700048267e8007b6708047b6b200482671801956b00047bb7108267e0007bb7187bbc287bb9309567400495682004956900047bba3850101a8e3982699800826bb000d49b078268a000826aa800d4a808d48707987720d49808978820d4870751070628fe0f64b8956900048297587b67788297507b67708297487b6780008297407b6788009567e00350101c51f895670003827af8008278f0008279e8008ea78e8bdba70b7b69d0008e977b68607b6ac800d4a8087b67587b6b90007b68c000db8b0751070628da0f8267e0037b676849269805492690054926880549268005039567c0039568800550101e1dfa956b000382b7d00082b8c80082b9c00082bad8005012200e4688920184807fd27c04d23c0bdb9800880820d2ac0c648994b9d4c4079479aa920628e00f50122263468267688877207b67b800510a2f027b6bf0007b60f8007b6c00017b6410014926b8034926b0034926a8039568a0034926a003033307501024aff83908ac000256181f0b2003ac000220019517e08479e07b69080164913307c00002837783993308200a0682676895781fd87807826cd000c87c09d8c90ada770a826b60c8ba0a7b6ae80097aa3b989b05d4ab0b8267080182731897993b827a10988805d498076f346fa98268b80094c8826ac00094a8948b9487c87402d84207c8790cc8cb0b7b6b1801d39b0cd89b0adac70a7b6ae0008267f80095701fd8700b826af000c8ba07d8a70cdabb0c82631001c8c303973b3b987a05d4ba0a97773b980b05d4b707c847077b67f800d847076424c8790bc8ab0bd39b0a7b6bf000d89b09daa709826be800826760d87b07826ac800c8a70798ba05977b3bd4ba0a826b080182b282bb08987705948a94876fb86f2b5012264646c8a70282671001d87307826a0001c8a707983a05977c3bd4ca0a987705c8b707826b1801c88a0ad88a08c88707c8a9097b69e800d8a908c887077b67e0009517e08473e064317b63d800018267f800d874078269f000d39b08d89b09da8709826ce800d8c007826ae000d3a208d8a20ada870ad3c007d48707da790a7b347b3b087b30107b3218510a5f4926b8054926b0054926a8054926a0059568a00564377b6410017b6b18017b6208017b60000150102854f88263d80082620801826b180182641001954401884701c87b0bd4b40788770182680001c88707d88708c8820264702868ff8267b800857701826cd000826858dbc807826890008269c000db98078260c800d40c0b82686098843f97000198c93f7b69589789017b6948826a6898a23f97c9017b695097a901510723027b6b207b62307b60387b64287b694084aae07b6a9000492678034926700349266803956860034926600303330750102a33f69517e08477e07b67f0006471330820330750102cedf850122eb3440a064926180120330c49261001501230c44382a26f736f886f9a6f2964928267f0007b79187b6ad0007b7a107b68e8007b7808643a7b7301642464a3826790007b6be000d87b07857b017b60d800940b01826700018269f800d49707947b018268b00082671801c87808826aa80064c2c8ca0a8269980082671001c879098267a000826c0801c8c707520b7901826b1801d8b80bc8ba00642ad32002d8a00cda2b0cc89c0cd89c02826b1001d8b909c89707c82707d4c809d47007d47909989920d4c707977720d497077b63c8007b64c00052078d0b9567a0017b6ab800501032fbf38267b8018268b0018269a801826aa001956b00057bb7d8007bb8d0007bb9c8007bbac0009568c0058267f00050103477f68260c8009500018807018262e800c87202d420078877018268d000c87803d883088267c000c88707826818019589207b69c800d8890a8268b800c8a8097b69c000d8890bdaaa0b82681001c8b804d8840b82680801c8b8087b6808018268e000958b20d88b0c8269d800c8c908d89809dacc09826af800c8a909d8a90c826a0001c8ca0a7b6a0001642a7b6ae800826cf0007bca08640a7bc07bc31064727bc7187b63d0008267c8007b671801826cc0007b64100164807b69f8002869fed48a07d4b707826bb0008263a8008268a000826c9800520737017b6940492600014926f80049260801492610012881016420826368826b9000d33b0b826c60d4cb0b826c20d4cb0b826c38826230510bb700826b1801d8b80bc8ba0ad30a02d80a0cda2b0cc89c0cd89c02826b1001d8b909c89707c8270750123670415207100a9567400350103882f2956800038287587b6710018287507b6708018287487b6700018287407b67f80082676850123aa94150103c90427b67e8007b68d0003307ff3308ff8269180150103e53425012409e4150104249425012440740956b00057bbaf8007bb9f0007bb8e8007bb7e0009568e0058267f000501046bbf4826230826c3801826728d4c707826858826948d49808826950d42909826a4095aa01492618064926100649260806956c0006490c037bca207bc9287bc8307bc7389567000695682006330056286af4d48c071408e0ffffff00000000d88b089438947851082c097b694083b820956780037b64287b60387b62305010488ff1826230826038826428826a689568000382879800956900017b9710828790007b9708828788007b67f800828780007b9701826758826848d487077b67f000d440077b67e800826750d427077b67e00050124a3d4150104c71417b67c0007b68d8008267688a79033307ff3308ff50104e32417b67d0007b68c8008268c000d487077b67c000826718018379803307ff3308ff5010500d41826b180188b98000826ac000db9a07826cc800826ad8005012527740826bd0005012542e3f826b40d4b707826be000d4b808826be800d4ba0a826bf000d4b909956c0006491c40037bc9707bca787bc8687bc760492658064926500649264806956740069568600650105638f382688800826b70d4b80782698000826a78d4a909d49707987720d4b909979920d497075207e907956720035010585bf095670003827a388279308278288ea78e9bdba70b7b68a0008e877b6998007b6a9000d4a9097b67b8007b6bc0007b69d000db9b075207b808826720037b67a8004926980649269006492688064926800604956700039568800650105a29f2956b000382b71082b80882b982ba1850125c1f3e88920184807fd27c04d23c0bdb9800880820d2ac0c648994b9d4c4079479ab92c20850125e763e8267a8008877207b67c800510a32027b6bf0007b60f8007b6c00017b6410014926f8024926f0024926e8029568e0024926e002043307501060c1f03908ac000256181f0b2003ac000220019517e08479e07b69080164913307c00002837783993308200a068267a80095781fd87807826ca000c87c09d8c90ada770a826b9800c8ba0a7b6ae80097aa3b989b05d4ab0b8267080182721897993b827710988805d489096f246f778268c80094c8826ad00094a8948b9489c89402d84209c8970cc8cb0b7b6b1801d37b0cd87b0adac90a7b6ae0008269f80095901fd8900b826af000c8ba09d8a90cdabb0c82631001c8c303973b3b989a05d4ba0a97993b980b05d4b909c849097b69f800d8490b6424c8b709c8a909d3790a7b69f000d87909daab09826be80082679800d87b07826a9000c8a70798ba05977b3bd4ba0a826b080182b282bb08987705948a94876fb86f2b501262553ec8a70282671001d87307826a0001c8a707983a05977c3bd4ca0a987705c8b707826b1801c88a0ad88a08c88707c8a9097b69e800d8a908c887077b67e0009517e08473e064317b63d800018267f800d874078269f000d39b08d89b09da8709826ce800d8c007826ae000d3a208d8a20ada870ad3c007d48707da790a7b347b3b087b30107b3218510a5f4926b8064926b0064926a8064926a0069568a00664377b6410017b6b18017b6208017b60000150106463f08263d80082620801826b180182641001954401884701c87b0bd4b40788770182680001c88707d88708c8820264702868ff8267c800857701826ba0008268b800dbb8078268c0008269d000db9807510706028267a8008477e07b67b0004926b8024926b0024926a8029568a0024926a00204330750106677ee9517e08477e07b67f0006471330820330750106831f150126af73c0a064926100120330c4926180150126c083c82a26f736f886f9a6f2964928267f0007b79187b6ac8007b7a107b68e0007b7808643a7b7301642364a48267b0007b6bd800d87b07857b017b60d000940b01826700018269f800d49707947b018268880082601001c80808826a800064c2c8ca0a82697082671801c87909826778826c0801c8c7077b62e800520b6501d8080bc8ba0a642cd32a02d8ca0cda2b0cc89c0cd89c02826b1801d8b909c89707c8270750126e4b3b7b64c0007b63b8005207e303956740027b60100150107051ec956b000282b75882b85082b94882ba40956b00067bb7d8007bb8d0007bb9c8007bbac0009568c0068267f000501072cdee8260c0009500018807018262e000c87202d420078877018268c800c87803d883088267b800c88707826810019589207b69c000d8890a8268e800c8a8097b69b800d8890bdaaa0b82681801c8b804d8840b82680801c8b8087b6808018268d800958b20d88b0c8269d000c8c908d89809dacc09826af800c8a909d8a90c826a0001c8ca0a7b6a0001642a7b6ae000826cf0007bca08640a7bc07bc31064727bc7187b63c8008267c0007b671001826cb8007b64180164807b69f800287bfe826aa800826c9800d4ca0782699000d49b08d487078262880052075301492600014926f800492608014926100128a3018262a800826bb000d32b0b82649800d44b0b8263a00082609000d4030cd4cb0b510bcd00826b1001d8b80bc8ba0a826ce800d3ca02d8ca0cda2b0cc89c0cd89c02826b1801d8b909c89707c82707501274c0395207600295678002501076d2ea95680002828798007b671001828790007b670801828788007b670001828780007b67f8008267a800501278f43950107adb3a7b67e8007b68d0003307ff3308ff8269180150107c9e3a50127ee93950208000943a502282005138956b00067bbaf8007bb9f0007bb8e8007bb7e0009568e0068267f0005020840004ed8262a8008263a00082649800826090000198473f970801d4870798383f974901d4980898293f973a01d4a909972a0195aa01492618074926100749260807956c0007490c047bca207bc9287bc8307bc73895670007956820073300940028a1ec826778826870d487071408e0ffffff00000000d88208826a800094a89478510859018328209567c00250208600c8e982699000826c9800826ba000826aa800956800028287d8007b6710018287d0007b6708018287c8007b67f8008287c0007b6700010198b73f97c801d487077b67f00098c73f979801d487077b67e80098a73f97b801d487077b67e00097a7017b67d80050228800613950208a0094397b67b8007b68d0008267a8008a79033307ff3308ff50208c0053397b67c8007b68c0008268b800d487077b67b800826718018379803307ff3308ff50208e002d39826b180188b98000826ab800db9a07826cc000826ad000502290009638826bc800502292004c37826bd800d4b707826be000d4b808826be800d4ba0a826bf000d4b909956c0007491c40047bc9707bca787bc8687bc76049265807492650074926480795674007956860075020940054eb95676002330840502096009ae8956b000282ba7882b87082b96882b76050229800ff365108f401003308c00002838833070133090a0728313308c00002838833070133090a0728213308c00002838833070133090a0728113308c00002838833070133090a070149265001492648014926400133029a00140700000000717b484e01956840017b675801330750209c004fe949263801492630014926200141330704956820014926280150209e0031e93908ac000256183f122003ac0002403308c00002283e013308c000022836014926900149268801492680013302a000140700000000717b484e01956880017b67980133075020a200e7e84926780149267001492660012233070495686001492668015020a400c9e83908ac000256183f122003ac0002403308c0000228d6003308c0000228ce004926f0014926e8014926e0013302a600140700000000717b484e019568e0017b67f80133075020a8007fe84926d8014926d0014926c001413307049568c0014926c8015020aa0061e83908ac000256183f112003ac0002403308c00002286e3308c0000228674926300249262802492620023302ac00140700000000717b484e01956820027b67380233075020ae0019e84926180249261002492600022233070495680002492608025020b000fbe73908ac000256183f112003ac0002403308c0000228083308c000020183883307013309240a077b6718013300b2002897ea7b6718015020b20090ea8377330833090a2864e68267180133085020b4007aea8378330733090a072828fe3307a800027b67f8003907a8000255170407283d2095670010837760fe33083300b8000a01019569ff07959979819704065147419bd8951e0c5247bb9c05a90a285a1752473eed62dd0a284414514703defd06ec005147b3a75e0930085247dd0d16180a2839135147d9ff0420d60f5147dd72b8232c02514767e53c310a28d4184929c0074929b8074929b0074929a807956700108377200a0a01956aff0795aa7995ab000782b7b80082b8c00082b9b00082baa800d49808d4a707d4870751070628b11f8267f80081775617030728ab1f9567ff079577a1013308405020ba0082e5956aff0795aa7995ac000182cb4082c83882c93082c728d49b0bd48709d4b909989920d4b808978820d4980851080628271d492a2001492a1801492a0801129568ff0795888101492a10017b67f800330072012863e64929200649291806492910064929080695670010837780fe0a0a01956bff0795bb7995bc000682c71882c82082c91082ca08d49808d4a707d48707510706280a1f8267f80081785618030728041f492b4006492b3806492b3006492b280603956760029568ff079588a1065020bc00e7e695680002828970828a68828c78828760979b3f98a801d4b80297c83f7b69f000989901d498087b6ae00097a93f987a01d49a0b7b6ce80098c3017b67d000847c019acad28a04d22a09d23a0a84b77f7b67d800dac70b88b7209497d4a40894877b6cf80088c801aa7806287b1e7b6bb800956c00027bcb407b69a8007bc9487b64b0007b64500233078000956840027b6aa0007bca585020be0059e58267f80051070628f1188267d000847700ff8268e000956900017b98c8007b97c0008267f0007b97d0008267e8007b97d8003307a0009568c0015020c00019e5330833073302330ac0008269d800939aa00028541a49296007492958074929500749294807956700108377c00a0a01956aff0795aa7995ab000782b75882b86082b95082ba48d49808d4a707d48707510706281f1e8267f8008177330863ac780628181e9567ff07957761013300c2003302ea012813339568ff07958879828700017b67a8008287f8007b67b8008287f0007b67f8008287e8007b67f0009567ff07957741013300c4003302f40128d9329568ff079588798287e0007b67a0008287d8007b6798008287d0007b6790008287c8007b678800956700108377e03308440a019568ff0795887995890007829780007b67e8008297787b67d8008297707b67c8008297687b67d0008267b8009777209877204928c0007b67787b87b8008267f8007b87b00064899568ff07958821018267f0007b97a80033075020c600d6e39568ff079588794928a00049289800492888000164893307209568ff0795880101492990005020c800abe33308ac00023907ac000256173f0b2003ac000240019517e08479e07b69b00064913307c00002837783997b68c0003308407b67e0003300ca000a06826ab0003302cc0028ee31826ab0005022cc00e7317b67686f877b67606f977b67586fa77b67509517e08477e07b677064713307c000037b67b00083777b6780003300ce000a038269b0003302d00028942f8269b0005022d0008d2f9569ff07959979492980007b98787b97709568ff079588e1007b9a6833075020d200f0e28267509568ff079588797b87608267587b87588267607b8750648a3307209568ff079588c1008269687ba9485020d400bee28268c000818756173f08480840019517e08477e07b6768647183793308408267e0003300d6000a06826a683302d80028702f826a685022d8006a2f8268707b8a187b89107b8b087b879567ff079577a1005020da0059e39567ff07957779827440827a38827b30827228d24b07d2a208d287075117ff73028267d000d872038268c800d38b07d88b0cda730c8269d800d89a008268e800d38407d88408da7008d3a909d49707da7c087b62707b6b687b64607b6a5851080628e71d7b60407b6c487b63508267f000826878d487078268f800d4870752070628af1e826780000a03018269b0008097108298829908d48707d4970752070628d41e9569ff079599794919208267f0007b97088267f8007b97109568ff07958881008267787b971833075020dc0096e19567ff0795777949074917f895680010492860f8013307209568ff0795886195690010492968f85020de0069e18268c000818756173f08480840019517e08477e07b6778647183793308408267e0003300e0000a06826a783302e20028c02f826a785022e200ba2f7b67386f877b67306f977b67286fa77b67209517e08477e07b67786471826780003300e4000a038269b0003302e60028722d8269b0005022e6006b2d95690010492958f8956900107b9850f8956800107b8748f89568ff07958841956700107b7a40f833075020e800c3e0826720956800107b8738f8826728956800107b8730f8826730956800107b8728f83307209568ff07958821826938956a00107ba920f85020ea0087e08268c000818756173f08480840019517e08477e07b67c000647183793308408267e0000a068267d800826858c97807826948c99708d897078269e800826a60c99a09826a40c9a909c979098267c800826a68c97a07826a50c9a707956aff0795aa7995ac00077bc9a0007bc898007bc79000826bc00082b78268d000826970c989087bc8880082b8086f798267787b791882ba1082b9186f887b78106fa87b78086f987b78956800105020ec004be18267d0007b67c006826788007b67e0068267f000956b00077bb78267c8007b67c806826790007b67e8068267f8007bb7088267d8007b67d006826798007b67f0068267b8007bb7108267e8007b67d8068267a0007b67f806956700079568e0069569c006826aa8007bba185020ee00d1259567a0063308405020f00020de956b000682bab80082b8b00082b9a80082b7a0005022f200812c51080628d7154926980649269006492688069568800649268006017b67f800330072012817df49296006492958064929500649294806956700108377c0fe0a0a01956aff0795aa7995ab000682b75882b86082b95082ba48d49808d4a707d487075107062844188267f8008177330843ac7806283d18956760043300f4003302ea01282c2d956800048287707b67d8008287687b67f0008287607b67f8009517e08477e07b67e0006471956700108377e0fe3308240a019567ff07957779957b000682b8800082b97882ba7082b7687b689000826be0007bb8187b6988007bb9107b6a80007bba087b67787bb73307c000037b67e80083777b67d0000a03018269e8008097108298829908d48707d4970752070628a4178267d8009777209878208267f0008269f800d497077b68d800d4870752070628e4178267d0003300f6000a038269e8003302f80028682a8269e8005022f800612a492658047b6850047b674804956840047b6a400433075020fa00ccdd4926380449263004492620040133072095682004492628045020fc00aedd3308ac00023907ac000256173f0b2003ac000240019517e08479e07b69b80064913307c00002837783997b68c8003308407b67c0003300fe000a06826ab8003302000128f12b826ab80050220001ea2b7b67b0006f877b67a8006f977b67a0006fa77b6798009517e08477e07b67b8006471492618048267d800956900047b97108267f0007b9708956800048267f8007b9733075020020114dd82679800956a00037ba7f8008267a0007ba7f0008267a8007ba7e8003307209568e0038269b0007ba9e00050200401e3dc8268c800818756173f08480840019517e08477e07b67c800647183793308408267c0000a06826ac80082a71882a81082a90882aa6f7b6f886f996faa8267b8007b7a187b79107b78087b7b8268e0005020060101de9567c0033308405020080147db956b000382b7d80082b8d00082b9c80082bac00050220a01652a51070628fe128267787b67a003826780007b67a803826788007b67b0039568a003826790007b67b80364a77b6ae00050200c0132dc8267d00033000e010a038269e8003302100128672a8269e80050221001602ad4780298aa206f99979820d4a808989920492658038267d8007b6750038267f0007b6748038267f8007b674003492678033a0a4800023a0b5000023a0c5800023a076000027b6a98037b6b90037b6c88037b6780037b6970037b68680333082095698003956a6003956b40037b6260038267e0005020120175dd956720033308405020140152da956b000382ba3882b83082b92882b72050221601b728510806280d124926180349261003492608039568000349260003017b67f80033007201284ddb9567781049172049171849171049170895670010837780000a0a01956a781082a71882a82082a91082aa08d49808d4a707d487075107062855158267f8008177561703072850159567ff079577410433084050201801bed99568ff07958879958900038297e0007b67588297d8007b67688297d0007b67608297c8007b677095687810491840491838491830491828049567ff07957721049568a01050201a01a0db9567ff079577798274b8038270b0038273c003827ba80397473f980801d4870797383f984901d4980897093f98ba01d49a0c9839017b6bf00084bb019abad2a808d27a02d2a90984c77f7b67e800dab70c7b6cb00088c7207b62a00094277b68a8007b699800d4980894877b6bf80088b801aa7806288514826968826a70d49a07826860826b58d4b808d48707987720d49808978820d4780851080628ac1064a77b60d0007b64d8007b63e0008268b000956aff0795aa7995ab00037bb888008268a0007bb890008268a8007bb898009568ff0795880104826998007bb9a00050201c01c8d98267f800510706285c10826768826858d487071408e0ffffff00000000826a70d88a08826960949894785208062835108268f000848800ff83a7209569ff07959979826ad000959b00037bba107bb8088268d8007bb8189568ff0795888103826ae0007bba2050201e015cd9330433034926f0008267e8008e779777057b67f800018268f80095873fd88708c884098477e0826070c870007b60f800d87007826260c8290ac87a00d3900ad8900bdaa70bd84907da8807c83707d83708826968c87909c89b0bd87907d89b09826358826af000c83a0ac8a808c88707c8970c8ec78eb8dbc708d4cb078e09db78095109062866168267708268f800d87807d32008d82009da8709826768d87b04d33c08d83c0ada840ad3b707d48707da790a510a062835169569ff079599798267f8007b97e8027b90f0027b9bf8023307409568ff07958861037b9c00037b60e8007b6be0007b6cf000502020016bd89568ff07958879826758958900027b97a0008267687b9798008267607b9790008267707b9788008267f0007b97c0008267e0007b97b8008267e8007b97b000648b9567ff07957741039568ff07958821039569ff0795990103826af8007bbaa802502022016b1b826ae000826be8008262f800d4a2078268f000d4b808d48707987720d4a808978820d487075207790e9568ff07958879958c000282c7d00082c9e0007b69d80064a98283c80282cad800d3b704d8b70cd82300da400cc99a08c9c804d8c808d89a0a8269d800c9a90a8269f000c99a0ac98a0ac9b707c90707c92308d4a707d44809d47909d44707989920977720d4970752070d0e64277b68f8003300b801282fda4929e0064929d8064929d0064929c80695670010837740ff0a0a01956aff0795aa7995ab000682b7d80082b8e00082b9d00082bac800d49808d4a707d4870751070628e7118267f80081775617030728e2113307c000037b67f80083777b67e0000a03018269f8008097108298829908d48707d4970752070628c0111407000010632d5ec76b7b67f0009567ff07957779492700074927f8064927f0064927e80602956760069568ff079588610750202401a0d7826778067b67e80082647006826a6806826360069518e08488e064818262f000c83202d8320cc8ca07957b053a00200002d3ab09d8ab07da9c07d8300995ac0688aafb85aa01dac90a7b8b087b82c847077b8710d847078269e800c89707d29409959901949a7b8718510a06287b119567ff0795777949272007492718074927100749270807029567ff0795778107502026018cd78267e000330028010a038269f80033022a01287a228269f80050222a01732249265806956900067b98507b9748956840067b9a40330750202c01ddd5492638064926300649262806330720956820064926200650202e01c0d59517e08477e07b67e80064713908ac000256183f0b2003ac000240019517e08479e07b69d80064913307c00002837783993308407b67d000330030010a06826ad80033023201285b22826ad8005022320154228268e8007b8a187b89107b8b087b87956700065020340146d695690006829708829882621806829a10957b05826cf000c88c0cd88c08c88b0bd37b09d87b07da9807c8a707d8a708c828089569ff07959979959a00077bac287bab307ba7387ba8409568ff079588a1078267e800502036016cd69567e00533084050203801b2d3956b000582b7f80082b8f00082b9e80082bae00050223a01d02252076c0b4926d8054926d0054926c805051407000010632d5ec76b9568c0057b67c00564a77b6af00050203c01a3d48267e00033003e010a038269f8003302400128d8228269f80050224001d122d4780298aa206f99979820d4a80898992049267805492698054926900549268805492680053a0a2800023a0b3000023a0c3800023a074000027b6ab805956a00057babb0007baca8007ba7a0007ba9707ba8683308209569a005956a8005956b60057b6260058267f00050204201f0d533078268d00033090a073308c0000228c90c4929a00649299806492990064929880695670010837700ff0a0a01956bff0795bb7995bc000682c7980082c8a00082c9900082ca8800d49808d4a707d487075207640f8267f8008177541703620f492bc006492bb806492bb006492ba806029567c0049568ff07958821075020440183d48267d8047b67f8008267d0047b67f0008267c8047b67e8008267c0047b67e0009567a004330840502046012ad2956b000482b7b80082b8b00082b9a80082baa0005022480148215207e4098267e000956900047b9780008267e8007b9788008267f0007b979000956880048267f8007b97980064a77b6af80033007201280ed3956778104927a00049279800492790004927880095670010837700010a0a01956a781082a7980082a8a00082a9900082aa8800d49808d4a707d487075207860e8267f8008177330843ae78810e1407ffffffff000000007b67f8009567ff079577210633004a013302ea012814219568ff079588798287a8057b67f0008287b0057b67d0008087b8057b67c8009567ff079577010633004c013302f40128e2209568ff0795887995890005829798007b67e800829790007b67e000829788007b67d800492880058267c8007b97788267d0007b977064899568ff079588e1058267f0007b976805330750204e0122d29568ff079588794928600549285805492848050164893307209568ff079588c1054929500550205001f7d13308ac00023907ac000256173f0b2003ac000240019517e08479e07b69c80064913307c00002837783997b68f0003308407b67d000330052010a06826ac80033025401283a20826ac8005022540133207b67c0006f877b67b8006f977b67b0006fa77b67a8009517e08477e07b67c80064718267d8008477ff8269e0008498ff8269f800826ae800d2a909956aff0795aa79492a400595ab00057bb9387bb8309568ff079588a1057bb72833075020560144d18267a8009568ff07958879958900057b97208267b0007b97188267b8007b9710648a3307209568ff07958881058269c0007ba908055020580109d18268f000818756173f08480840019517e08477e07b67f800647183793308408267d00033005a010a06826af80033025c0128b91d826af80050225c01b21d8268c8007b8a187b89107b8b087b879567ff079577610550205e01a0d19568ff07958879828700057b67f800958900048297f8007b67f0008297f0007b67e8008297e8007b67e0009567ff07957741053308405020600138cf956aff0795aa7995ac000482c7e00082c8d80082c9d00082cbc800d49707d48b09d47909989920d48707977720d497075207dc068267e00095a900047b97a8008267e8007b97b0008267f0007b97b8009568ff07958821058267f8007b97c00064b77b6bf800330072012802d095677810491760491758491750491748956700108377c0000a0a01956a781082a75882a86082a95082aa48d49808d4a707d487075207920b8267f8008177330843ae788d0b9567ff0795770105330062013302ea01281e1e9568ff0795887995890004829788007b67f800829790007b67f000829798007b67e8008297a0007b67e000956700108377e0003308240a01956778108278687b68d8008278707b68d0008278787b68c800827780007b67c0003307c000037b67b80083770a038269b80082970881981082996f77977a206f88988820d4a8089877206f99979a20d4a707989920956aff0795aa79826bc00095ac00047bcb40826bc8007bcb38826bd0007bcb30826bd8007bcb28826be0007bcb60826be8007bcb58826bf0007bcb50826bf8007bcb487bc9787bc7707bc8689567ff079577e1049568ff079588c1049569ff079599a104492a8004502064011c159567ff07957781043308405020660167cd956aff0795aa7995ac000482cb2082c81882c91082c708d49b0bd48709d4b909989920d4b808978820d4980852080f05492a0004492af803492ae803019568ff0795886104492af0037b67f80033007201284ace52473182a070fd064929e0074929d8074929d0074929c807956700108377400a0a01956aff0795aa7995ab000782b7d80082b8e00082b9d00082bac800d49808d4a707d487075207d8098267f8008177330823ae78d3099567ff0795776102330068013302ea0128541c956aff0795aa7995ab000182b7e80082b8f00080a9f801492ae0017bb9d8007bb8d0009568ff07958841027bb7c800330750206a01accd9567ff079577794927c0014927b8014927b00164793307209568ff07958821024929a80150206c0182cd3908ac000256183f0b2003ac000240019517e08479e07b69f80064913307c00002837783993308400a06826af80082a71882a81082a90882aa6f776f886f996faa956b78107bba95ba00ff7ba9f8007ba8f0007ba7e8009567ff07957701029568601050206e010bce9568ff07958879958900018297a0007b67f800829798007b67f000829790007b67e800829788007b67e0009567ff079577e10133084050207001a3cb956aff0795aa7995ac000182c7800082c87882c97082cb68d49707d48b09d47909989920d48707977720d4970752074a038267e00095a900017b97488267e8007b97508267f0007b97589568ff079588c1018267f8007b976064b77b6bf8005020720178cc3308208267f800502074013bcf837833092033070a070149263802492630024926280295682002492620020333075020760144cc9517e08478e064814926f800330c330433023a036800023a097000023a007800023a078000027b83187b69d8007b89107b800864797b87140760ffffff000000007b6798007b689000017b69d0008267b8008269f800d879078269a800d39c0a7b6cf000d89c09daa709826bb000d8b407826aa000d3a20cd8a20adac70ad3b407d4c707da790a510ae800956700027b62e8007b63c8007b64e0007b60c0005020780191cc826ce0008267e800d4c7078268f80082699800d898088269f0009498947851081b028262180295670002827810827a08827b8267f8008377a000956900017b9be0007b9ae8007b98f0009568e0017b62f80150207a0147cb8262e800826cd00095cc0188c7018260c000c87000d40c078877018268d800c88707d88708826ac800c88a0a8268f800958320d88309826bf000c89b04d8b40bda990b8268e000c88b0bd88b09c89202826890007b800864c97b8c7b87107b8a187b67d8007b63f800644c64b464a328defe8267f800957aa000d87a078269f000c87908d89809da7709c89407d84709c892020195a39fd8a30ac8a80c95ccff7b6cd800d38c09d88c08da9a08957affc88a0bd8ab08887701c97209c889027b62c0008437e07b67d000957a80007b6af800d87a07c87c097b69f000d8c908da77087b6bc800c8b8087b68e800d8b807c872027b62e0007b6aa0017b69a8017b68b0013307409568a0017b62b80150207c0133ca492658014926500149264801956b0001491b4080008267e0007bb7788267e8007bb7708267f0007bb768956780019568600195694001826af8007bba6050207e01570d8267c8008268c000d48707140880ffffff000000008269d000d889088269d80094989478510866826090018268980182638001826a88018269e800d8900bc9b8088267e000c978028268f000d38a0bd88a0c8267f800d87304dab40cc99009d8c90bc9b20bc9c90cc94a0ac98a0ac97308d4c809d4ba0ad4a909989920d4ca0a97aa20d4a90951098807009569ff079599794929800349297803492970039568ff079588e10349296803043307502080013dc99517e0847be064b14926f800330433034926f0003a020000023a0a0800028268709587207b679000d88707826860c878097b698800d88908da77083a0c1000023a0718000264207bb2187b6ad0007bba1064c27bbc087b6bd80064797bb7826768c878087b688000d87807826858c887077b6778017b69b8007b62c0007b60c8008267b0008268f800d878078269a000d39408d89409da8709826ba800d8b307826a98008268f000d3a80cd8a80adac70ad3b307d4c707da790a520a06283aef9567ff079577c1038268d8007b63e8007b64e0005020820155c98264f8008263e0008260e80082689000c84807d88708826b8800c83b09c88909d3b90cd8b90bdac80b826c8000c80c08d8c802826cf000826a78c8ac0cc82c0cc88b0bd88b08c8c808d49808d4b709d48909d4b808989920978820d4980852089ffe956cff0795cc7982c2600395ca000382a85882a95082ab487bab287ba9307ba8389568ff079588a1037bc240037b64f80050208401cac7826ab80095aa0188a7018260c000c87000d40a078877018268d000c87804d884088267c800c887078268f800958320d88309826be000c89b08d8b80bda990b8269e800c89b0bd89b09826cf000c89c0c7b6cf0006402826cd8007bc00864a97bca644a7bca1064707bc7187b6ad0007b63f800648464b3288bfe3308c00002838833070133090a073308c0000201838833070133090a073308c0000228f23308c0000228eb3308c0000228e43308c0000228dd3308c0000228d649263001492628014926200133028601140700000000717b484e01956820017b673801330750208801e5c649261801492610014926000122330704956800014926080150208a01c7c63908ac000256183f122003ac0002403308c0000228bc043308c0000228b4043308c000022867ff3308c00002285fff3308c000022857ff3308c00002284fff4926b0024926a8024926a00214070000000005df02e69568a0027b67b802330750208c0162c6492698024926900249268802330704956880024926800250208e0145c63908ac000256183f122003ac0002403308c00002283a043308c000022832044926f0024926e8024926e002140700000000620d28949568e0027b67f80233075020900100c64926d8024926d0024926c8023307049568c0024926c00250209201e3c53908ac000256183f122003ac0002403308c0000228d8033308c0000228d0033308c000022883fe3308c00002287bfe9569ff07959979492938024929300249292802140700000000717b484e9568ff079588a1027b97400233075020940183c59568ff079588794928200249281802492808022264893307049568ff0795888102492910025020960158c53908ac000256183f122003ac0002403308c00002284d033308c000022845033308c0000228f8fd3308c0000228f0fd492610054926080549260005140700000000052f44ec956800057b67180533075020980103c54926f8044926f0044926e8043307049568e0044926e00450209a01e6c43908ac000256183f122003ac0002403308c0000228db023308c0000228d30249265005492648054926400533029c01140700000000717b484e01956840057b675805330750209e019cc44926380549263005492620051133070495682005492628055020a0017ec43908ac000256183f122003ac0002403308c000022873023308c00002286b023308c00002281efd3308c000022816fd3308c00002280efd3308c000022806fd3308c0000228fefc3308c0000228f6fc3308c0000228eefc3308c0000228e6fc492690074926880749268007140700000000b2418ffb956880077b67980733075020a201f9c3826780003300a4010a038269b0003302a601285a108269b0005022a6015310492678077b6870077b676807330704956860077b6a60075020a801bdc38267607b6758078267587b6750078267687b674807330724956840078269707b6940075020aa0194c38267e800956a00077ba7388267d8007ba7308267c8007ba728330744956820078269d0007ba9205020ac0167c38267c000817756177f1b8268c000480880003307013309648268e0000a0728d8003307013309648268e0000a0728c9004926d0074926c8074926c00714070000000005df02e69568c0077b67d80733075020ae0111c34926b8074926b0074926a8073307049568a0074926a0073300b20128f0c295670010492710f895670010492708f895670010492700f8140700000000620d28949568ff07958801956900107b9718f833075020b001bac24926f8074926f0074926e8073307049568e0074926e0075020b2019dc28267c000817756173f198268c0004808403307013309248268e0000a07280f3307013309248268e0000a07019567ff079577794927780249277002492768026479140700000000717b484e9568ff079588e1027b97800233075020b4013ec29568ff079588794928600249285802492848024164893307049568ff079588c102492950025020b60113c23908ac000256183f112003ac0002403308c0000228083308c000020183883307013309240a077b68f8003300b80128afc47b68f8005020b801a8c483788169f80033070a07286df5951130ff7b10c8007b15c0007b16b8009515d0008411f08289187b19108289107b19088289087b1982867b1728951790003308405020ba0157c0821898008219900095671fd86700821ac80a0b8477e0c8b803c879027b1920d8920cc8c303d383067b1818d88309da6c098214a800d8ab0b8216a000da000b821708c87b0bd87b0cc86b0bc89b0a821710c84707c8c707d8ba0cd86b0bc8b707c8c70b8eb78eacdbb70cd4ba078e38db7c08520865d86a07d34b08d84b0cda870cd36a07d48707db7c0952094d7b12707b13787b1a80003307409518707b1b88007b14105020bc01e7c08217288218107b78187b76108218187b78088218207b78955130ff8210c8008215c0008216b8009511d00032004911604911584911503302be01140700000000717b484e019518507b176833075020c00194c0491148491140491130413307049518304911385020c2017bc03908ac000256183f0b2003ac000240013308c0000283883307013309243300c4010a0701951170fe7b1088017b1580017b167801951590018411f08284829b088280088296954a1fd84a02c8200c7b1620d86a03d3bc0a7b1b28d8bc0bdaa30b828610d80c0ada220a829c18828218829310c86a0ad86a08c82808d3c8097b1c10d9c808d83a0cda9c08d33a0ad4a909db980b510bbf027b17087b1318d464077b10387b1230d42008d487079877207b1658d46808978820d4870752079602951750017b145064485020c60173be821a680182196001821b58018ea78e98dba7087b1980007b1a8800d4a9078eb9db7809520968028218500195871f7b1848d887087b1b78c8b8088488018477e0957920d87907c8780ad88a0bda770b492128017b1910017b1a180195173001951810017b1b20015020c8017bfd82194801821a400182183801821730017b18407b1968d48909d4a708d498089888207b1a70d4a909979920d498085208e8018216487b16f0008218787b18f800821880007b1800019518f000821988007b1908017b17605020ca01e3be821750c8670ad87a09821438821778c84707c89707d3470bd84708dab90882135882198000c8390995ac20d8ac02c8270b821a20d8ca0c821a28d3ab06d8ba0adb6a0cd8390a82133082168800c83606c86a0ac89808d89809c8a909d87b07da2207c88707d88708c89808821a10d3a809d88a08821b18d87b0ada9a08d3b707d49707db780c520caa01821770821868d478081407e0ffffff00000000821b60d87b09821a4094a9948951090f0164ba821858d43808821c50d87c07944794878210880082198000821b788216485107eb00d49607d40b08d48707987720d49808978820d487075207d20083a72083c8207b185864685020cc01b7c07b175082175864685020ce01a9c0647882175064695020d0010dbc821860c86807d88708821640821978c86909c88909d3690ad8690bdaa80b821c7082188000c8c808c88b0bd88b02d8c808821c8800821a68c8ac0cc8c808c82808d4b808140ae0ffffff00000000d8a70a949a948a510a4d8377204921e8004921e0004921d8009518d0004921d0005020d20157bd8217088218687b78188218707b78107b76088218607b78955170fe821088018215800182167801951190013200003308c0000228774921c0004921b8004921b0003302d401140700000000717b484e019518b0007b17c80033075020d601f7bc4921a8004921a000492190004133070495189000492198005020d801d9bc3908ac000256183f0b2003ac000240013308c0000283883307013309240a073308c0000228083308c0000201838833070133093300da010a07019511e0fe7b1018017b1510017b160801951520018411f0828b10828a18828c0882827b1a687b1c78d4ac08d4b20ad48a0a98aa207b1b70d4b808978820d4a8087b170852084b028297187b17488296108297087b175082977b17584921f8004921f0004921e8009518e0004921e0002064277b12605020dc0124bc821858d46807821948821a50d4a909d497079877207b1620d46909979920d497075207f2019517c0005020de01bbba821770821868d47808140700000000010000007b17101407e0ffffff00000000821960d87907821a7894a77b181894875107b401821ad800821bd000821cc8008218c0008397207b18287b18a0007b1c307b1ca8007b1b387b1bb0009518a0007b1a407b1ab80064965020e00186bb8217109577c0d876078218789487821818948751076201821748821820d487071408e0ffffff00000000821a58d88a08821b5094b8947851083e016469821828821c38d4c807821b40821630d46b0bd4b707987720d4cb0b97bb20d4b7075207170183974083aa207b1a5864865020e201e3bd7b175082175864685020e401d5bd647882175064695020e60139b9821760c86707d86708821978821b30c8b909c88909d3b90ad8b90bdaa80b821870821a38c8a808d8a80a821c68821640c86c0cc8ca0ac88b0bd88b08c8a808d4b808140ac0ffffff00000000d8a70a949a948a510a940083774049219800492190004921880095188000492180005020e80184ba82162895661f1407e0ffffff01000000d26707821860c88707d88708821a78c88a09d8a90ada880a821870c88a0ad88a08821b68c8b808957b40d87b07c8790cd89c09da7709c8a909d8a907c887078218087b8b7b8c087b89107b87189551e0fe821018018215100182160801951120013200003308043300ec010a013302ee012855075022ee015207510a0b5022f001ce0732003308c00002838833070133093300f2010a073302f4012847085022f40144083308243300f6010a013302f8012815075022f8011207510a0b5022fa018e0732003308c00002838833070133093300fc010a0701951120fc951a00037ba0d8007ba5d0007ba6c8009515e0038411e06416807410827a827b08d44a07d4b707510742048282108283088280140cffffffff000000008438ff8407ffd2c20c7b67487b6c38d4c7077b6840d48707510774048297187b6798008297107b6788008297087b67800082977b679000492638037b6a607b6a20037b6b587b6b2803956820037b64507b64300333075020fe01ffb8492618034926100349260803330720956800034926000350200002e2b83309ac00023907ac000256173f0b2003ac000240017b69709517e08479e07b696864913307c00002837783993308407b6778330002020a06826a6833020402282b06826a685022040225067bba587bb9507bb8487bb7409567e00295684003502006026fb9956800028289f8008287f000828ce800828be00082689800d389037b6928d8890882698800d8970a7b6a10da3a08826a8000d3ac027b6c30d8ac0c826a90007b6b68d8ab0a7b6a18da2a0c7b6720d37909d439077b6c08da7c085208be034926d802826760956900027b97c0008267587b97c8009568c0028267507b97d000330750200802f6b74926b8024926b0024926a8023307209568a0024926a00250200a02d9b782678800826820c97807826908c997087b6820d8970782689800826928c98908826910c99808c978087b6828826970819782688000826a30c98a08826a18c9a8087b683082689000826a68c98a0a7b6a6856173f08480940019517e08477e07b67186471837933084082677833000c020a06826a1833020e0228e804826a1850220e02e2047bba787bb9707bb8687bb7608267287bb798008267207bb790008267307bb788008267687bb7800095676003956880035020100291b849269802826738956900027b9790008267407b978800956880028267487b978000330750201202f5b6492678024926700249266802330720956860024926600250201402d8b68268709517e08477e07b67686471818756173f08480840019517e08477e07b677064718379330840826778330016020a06826a7033021802288103826a70502218027b038268687b8a187b89107b8b087b879567400250201a026eb7826748028268400282625802826a5002826b8000c87b0b826c9000c88c0cd88c08c88b0bd37b09d87b07da980782688800c8a80882699800c89202d8a809c82909c88707d88708c89808956900037b9ca0007b9ba8007b97b0007b98b8009568a00382676850201c0284b79567200233084050201e02cab4956b000282ba3882b83082b92882b720502220022f035208be0082689000956a00027ba8826880007ba808826888007ba81095680002826998007ba9187b67980050202202bdb54926b801826738956c00017bc7b0008267407bc7a8008267487bc7a0004926d8018267507bc7d0008267587bc7c8003a078800023a089000023a09980002826a607bcac0007bc7f8007bc8f0007bc9e8003a07a000023308209569e001956ac001956ba0017bc7e000826798005020240226b7955120fc951700038270d8008275d0008276c8009511e0033200004926d0004926c8004926c0001407000000001efdc6969568c0007b67d80033075020260209b54926b8004926b0004926a8003307049568a0004926a00050202802ecb43908ac000256183f112003ac0002403308c0000228683308c000022861492610014926080149260001140700000000052f44ec956800017b671801330750202a02a9b44926f8004926f0004926e8003307049568e0004926e00050202c028cb43908ac000256183f112003ac0002403308c0000228083308c000020183883307013309240a07014926900149268801492680011407000000008cd350e4956880017b679801330750202e023fb4492678018267507b6770018267587b676801330704956860018269607b6960015020300219b48267287b6758018267207b6750018267307b674801330724956840018269687b69400150203202f0b382679800956a00017ba738826788007ba730826780007ba72833074495682001826990007ba92050203402c3b3826770817756177f0c82687048088000013307013309648268780a0733073300360228a0b63307502036029bb63307015020380292b682970881981082996f77977a206f88988820d48a0a9877206f98978920d497079888203202826b180188b98000826ad000db9a08826cd800826ae800d4ca0ada970a93b8ff93baff826be000939b939c8267f800e0a70782690001e0890882690801e0c909826a1001e0ba0a320282a71882a81082a90882aa6f776f8b6f996faa3202977b3f988c01d4bc0397ac3f987701d4c70797883f989c01d4c80898aa018499019a9c3202939b8268f800e0a80882690001e0790782690801e0b909826a1001e0ca0a3202d49a0ad48709d4a909989920d4a808978820d49808320282171082181814090000000001000000d37909d48909987a2088aa01948a939a32028eb9858801dbb9088e498ecadac90ada780a320282a71882a81082a90882aa6f776f886f996faa956b00033202d4c809d4a707d47909989920d4c707977720d49707320249260801330b33004926f80049260001826ae80082a71882a81082a90832028219821a087b697b6a087b67107b68189551c08210388215308216289511403202d49707d48a09d47909989920d48707977720d49707320297773b9878387b6818019a8980003307ff3308ff32027b67d8007b68e0008267d000d487077b67d000826718019579803307ff3308ff320282970881981082996f7a97a7206f889888203202d4ca0ada980a3308ffdab807dab80a939c32029511c07b10387b15307b16289515408411e064768317320282a71882a81082a90882aa6f7732029518e08488e07b68e8006481837783893308203202c8b707c88a0ad88a0cc8c7078260e000c8a000d8a00a320297a8037b6818018d8980003307ff3308ff3202849a40520a195109148d9a40cfa80ad09808d09707d4a707320032009597c0d0780733083200849a40520a195109148d9a40d0a70acf9707cf9808d4a808320032009598c0cf87083307320049922425494b2a252da9944c4949214225a952484992244992244992244992244992244992244992244992244992244992244992542529a524292949a84a494a922449922449922449922449922449922449922449929224294955494a92284925495592922425494a5292aaaa242549492a498a88889424495292242925492409a592929222458a142952a44851922222a224491042c2509a94864422222222452282444424222222450489081111d1489224498888888810491229499224890845472422444424251191241229494a124944922449444444444444444484882401a44a222222221221229292882492249124912422222212492222212211499224459224121122222a5122894812898810112222222449924a49482222222222422144308942a524912489249124a928aa24892411492489244992484922892492244aaa422291244924492491142391241249929424111151444488884892449212892422912449922489244922222214922885502842554522915a114924228948948844242229491249922449444484888888888808914492482291482492482211492489241245a4522222a24812111189884889244912912449224988089148241209212289104288888888904c92244944449224224900a94822494892884824229a24124984109124212212912444442242842412894424494444844822499244844852892212118988880811219212922449a5089188888888885008114ca2502992481289249124a928aa248924114924892449924849228948244994548544224992489248222946224924922429492222a2888810119124892425129188442422224221895208852254552412a91591442292884449249188a424492409111111224922222222441249228944229148228944249124924814914a898888221189242222221189442411492449224988081111111111214424114210444444441011314992244944449224229224804445228888888888888849224924894410444492202212912488884404114422914844924444441009224982184a154a154a154a8d880860444144484410220809898808604441444844102208098988086044414448441022088522220218511011121184084261491189a09a28a84a881089281a89804002090808242020908888482311119124892211092291244992248908111191888888462249922451242242440491244912492489444a92484a9124229188884810494444444444445045442222228d44922449a224111189444444444444241211111111499188482412914422a288888248442811118410c1240a1589282211a49492a41045149108229144a42091244989488228324925a244122449114124499284482489449224499224892492442325492289442292824889904844104526a944944882945292145144228888888844142422118948241141149944258a24492449224922111151249192a4948a202222a2888848444424222222224124888888208988081189888868249224491225898844229148a2881489481291482485281a294912494422494411892022220a2242228210229844a12211452482288a2289222291880a22222222111144914954a2485255242982481011114192888888882288282211242589888888082184888888444444100922498224222244249224a29124499228129120129148241249222282484444922449122949229128224592244992244911119188888888882092240124a924229188241211092aa2c448922492244992244912495249491249922449924422221211111144129148242222228a8888880822229124494422228a4892248944922449924411898888682422229224512444d1484992002212112122828888488a2409499224294924294924224244105144228848220511918820894204932854228a480491a408224512499224894492444410092222228888104044114414910892924444440821444444928888088a0a898888682422229244142222444410111111110922222288888888888822121111118d888824112502888888442222222222128988888888448a882888448412114108114ca250918822124114459144914844221149440a221289444a44441045265189282211449222824844444444442488444444922489888888888828229124118d244912512222229188888888884891482422425424959294241291482412894422492222222288481089244992241111222222011111914622222249448988884422222222220a221151222208114ca2502992541545444444108988888888880491882449922422128944448a2011941a11110a92a20a2184445201448c8844228944922411111141442212151149111111114144124922894412492249a492882a1189244926492449922412114924914822221211444484482412119120220144a21211114924924892244992248991888808054951114212492209a1444a5412493222221249221149922411111144442491248924922449922411894892242222882492441289249244128922554a4425940a4b8542a150282222801105112111418820242424242424220288288888440421829090880820a220221211840842424242221111404414442242898820441012121212110144144444228210414848444400230a22422282104148484848484848484848440410511051442288884404894422910822128924224114114994244a44041051101189884444440410892888884404514492a8241a898802888882484428111184084261491189a0a844444492249548109194244992241249922449924a4a9224499248224192242922224a12014c0a92481284088692684444a4a4244992244992244992249224499224220511518948894892244992888888202222499224894422222212244992248924499224892449922449922491248024152549452491244922494152500a92244992449244922480541211114192242922221a8a88086044414448441022184a0a85a56844442449499224492249522222420992244992440449024800494a111191442211898224294592009254942449922492142405a52049922449922449920052918888089200922449922449922429494444345124485028459120512448502845232222524a1249012449924422912822918844414424220821824952a8244a24419244041111114922492489244992442422118982884844104992449224299224912432492551220992249148242282484422120511918820492a32492551220992a40822222291244924922489888848100922498288281289480491884422128910422222422222228888886844041051101189084204a15044041051101189084204a1b0a41111404441241289449048241289202291482212a4484c5291820449a524252922129124519148245292aa4a92244952452291484992a4248024a94a2a294955519224292a2292544a92242949929444244544229294544a49924a92a44a522551a52489a444242549925452499224951400"},"methodIdentifiers":{"allowance(address,address)":"dd62ed3e","approve(address,uint256)":"095ea7b3","balanceOf(address)":"70a08231","decimals()":"313ce567","mintToken()":"2004ffd9","name()":"06fdde03","symbol()":"95d89b41","totalSupply()":"18160ddd","transfer(address,uint256)":"a9059cbb","transferFrom(address,address,uint256)":"23b872dd"}},"hash":"a2f586401859179358478f65b398d6b44f1b88d0ac85e9e93a223e8fe83b81e8","factoryDependencies":{}}}}