{
  "_format": "hh-sol-artifact-1",
  "contractName": "Storage",
  "sourceName": "contracts/storage.sol",
  "abi": [
    {
      "inputs": [],
      "name": "loop",
      "outputs": [],
      "stateMutability": "pure",
      "type": "function"
    },
    {
      "inputs": [],
      "name": "retrieve",
      "outputs": [
        {
          "internalType": "uint256",
          "name": "",
          "type": "uint256"
        }
      ],
      "stateMutability": "view",
      "type": "function"
    },
    {
      "inputs": [
        {
          "internalType": "uint256",
          "name": "num",
          "type": "uint256"
        }
      ],
      "name": "store",
      "outputs": [],
      "stateMutability": "nonpayable",
      "type": "function"
    }
  ],
  "bytecode": "0x6080604052348015600f57600080fd5b506101888061001f6000396000f3fe608060405234801561001057600080fd5b50600436106100415760003560e01c80632e64cec1146100465780636057361d14610064578063a92100cb14610080575b600080fd5b61004e61008a565b60405161005b91906100d9565b60405180910390f35b61007e60048036038101906100799190610125565b610093565b005b61008861009d565b005b60008054905090565b8060008190555050565b6000805b6101008110156100bc578051820191506020810190506100a1565b5050565b6000819050919050565b6100d3816100c0565b82525050565b60006020820190506100ee60008301846100ca565b92915050565b600080fd5b610102816100c0565b811461010d57600080fd5b50565b60008135905061011f816100f9565b92915050565b60006020828403121561013b5761013a6100f4565b5b600061014984828501610110565b9150509291505056fea2646970667358221220141244129fb9aec0451ca9fe9143eabd3290ea0f4d37e75386c1d57052f94e9c64736f6c634300081c0033",
  "linkReferences": {},
  "deployedLinkReferences": {}
}