{
  "contracts/MyToken.sol": {
    "MyToken": {
      "abi": [
        {
          "inputs": [
            {
              "internalType": "uint256",
              "name": "initialSupply",
              "type": "uint256"
            }
          ],
          "stateMutability": "nonpayable",
          "type": "constructor"
        },
        {
          "inputs": [],
          "name": "AccessControlBadConfirmation",
          "type": "error"
        },
        {
          "inputs": [
            {
              "internalType": "address",
              "name": "account",
              "type": "address"
            },
            {
              "internalType": "bytes32",
              "name": "neededRole",
              "type": "bytes32"
            }
          ],
          "name": "AccessControlUnauthorizedAccount",
          "type": "error"
        },
        {
          "inputs": [
            {
              "internalType": "address",
              "name": "spender",
              "type": "address"
            },
            {
              "internalType": "uint256",
              "name": "allowance",
              "type": "uint256"
            },
            {
              "internalType": "uint256",
              "name": "needed",
              "type": "uint256"
            }
          ],
          "name": "ERC20InsufficientAllowance",
          "type": "error"
        },
        {
          "inputs": [
            {
              "internalType": "address",
              "name": "sender",
              "type": "address"
            },
            {
              "internalType": "uint256",
              "name": "balance",
              "type": "uint256"
            },
            {
              "internalType": "uint256",
              "name": "needed",
              "type": "uint256"
            }
          ],
          "name": "ERC20InsufficientBalance",
          "type": "error"
        },
        {
          "inputs": [
            {
              "internalType": "address",
              "name": "approver",
              "type": "address"
            }
          ],
          "name": "ERC20InvalidApprover",
          "type": "error"
        },
        {
          "inputs": [
            {
              "internalType": "address",
              "name": "receiver",
              "type": "address"
            }
          ],
          "name": "ERC20InvalidReceiver",
          "type": "error"
        },
        {
          "inputs": [
            {
              "internalType": "address",
              "name": "sender",
              "type": "address"
            }
          ],
          "name": "ERC20InvalidSender",
          "type": "error"
        },
        {
          "inputs": [
            {
              "internalType": "address",
              "name": "spender",
              "type": "address"
            }
          ],
          "name": "ERC20InvalidSpender",
          "type": "error"
        },
        {
          "inputs": [],
          "name": "EnforcedPause",
          "type": "error"
        },
        {
          "inputs": [],
          "name": "ExpectedPause",
          "type": "error"
        },
        {
          "anonymous": false,
          "inputs": [
            {
              "indexed": true,
              "internalType": "address",
              "name": "owner",
              "type": "address"
            },
            {
              "indexed": true,
              "internalType": "address",
              "name": "spender",
              "type": "address"
            },
            {
              "indexed": false,
              "internalType": "uint256",
              "name": "value",
              "type": "uint256"
            }
          ],
          "name": "Approval",
          "type": "event"
        },
        {
          "anonymous": false,
          "inputs": [
            {
              "indexed": false,
              "internalType": "address",
              "name": "account",
              "type": "address"
            }
          ],
          "name": "Paused",
          "type": "event"
        },
        {
          "anonymous": false,
          "inputs": [
            {
              "indexed": true,
              "internalType": "bytes32",
              "name": "role",
              "type": "bytes32"
            },
            {
              "indexed": true,
              "internalType": "bytes32",
              "name": "previousAdminRole",
              "type": "bytes32"
            },
            {
              "indexed": true,
              "internalType": "bytes32",
              "name": "newAdminRole",
              "type": "bytes32"
            }
          ],
          "name": "RoleAdminChanged",
          "type": "event"
        },
        {
          "anonymous": false,
          "inputs": [
            {
              "indexed": true,
              "internalType": "bytes32",
              "name": "role",
              "type": "bytes32"
            },
            {
              "indexed": true,
              "internalType": "address",
              "name": "account",
              "type": "address"
            },
            {
              "indexed": true,
              "internalType": "address",
              "name": "sender",
              "type": "address"
            }
          ],
          "name": "RoleGranted",
          "type": "event"
        },
        {
          "anonymous": false,
          "inputs": [
            {
              "indexed": true,
              "internalType": "bytes32",
              "name": "role",
              "type": "bytes32"
            },
            {
              "indexed": true,
              "internalType": "address",
              "name": "account",
              "type": "address"
            },
            {
              "indexed": true,
              "internalType": "address",
              "name": "sender",
              "type": "address"
            }
          ],
          "name": "RoleRevoked",
          "type": "event"
        },
        {
          "anonymous": false,
          "inputs": [
            {
              "indexed": true,
              "internalType": "address",
              "name": "from",
              "type": "address"
            },
            {
              "indexed": true,
              "internalType": "address",
              "name": "to",
              "type": "address"
            },
            {
              "indexed": false,
              "internalType": "uint256",
              "name": "value",
              "type": "uint256"
            }
          ],
          "name": "Transfer",
          "type": "event"
        },
        {
          "anonymous": false,
          "inputs": [
            {
              "indexed": false,
              "internalType": "address",
              "name": "account",
              "type": "address"
            }
          ],
          "name": "Unpaused",
          "type": "event"
        },
        {
          "inputs": [],
          "name": "DEFAULT_ADMIN_ROLE",
          "outputs": [
            {
              "internalType": "bytes32",
              "name": "",
              "type": "bytes32"
            }
          ],
          "stateMutability": "view",
          "type": "function"
        },
        {
          "inputs": [],
          "name": "MINTER_ROLE",
          "outputs": [
            {
              "internalType": "bytes32",
              "name": "",
              "type": "bytes32"
            }
          ],
          "stateMutability": "view",
          "type": "function"
        },
        {
          "inputs": [],
          "name": "PAUSER_ROLE",
          "outputs": [
            {
              "internalType": "bytes32",
              "name": "",
              "type": "bytes32"
            }
          ],
          "stateMutability": "view",
          "type": "function"
        },
        {
          "inputs": [
            {
              "internalType": "address",
              "name": "owner",
              "type": "address"
            },
            {
              "internalType": "address",
              "name": "spender",
              "type": "address"
            }
          ],
          "name": "allowance",
          "outputs": [
            {
              "internalType": "uint256",
              "name": "",
              "type": "uint256"
            }
          ],
          "stateMutability": "view",
          "type": "function"
        },
        {
          "inputs": [
            {
              "internalType": "address",
              "name": "spender",
              "type": "address"
            },
            {
              "internalType": "uint256",
              "name": "value",
              "type": "uint256"
            }
          ],
          "name": "approve",
          "outputs": [
            {
              "internalType": "bool",
              "name": "",
              "type": "bool"
            }
          ],
          "stateMutability": "nonpayable",
          "type": "function"
        },
        {
          "inputs": [
            {
              "internalType": "address",
              "name": "account",
              "type": "address"
            }
          ],
          "name": "balanceOf",
          "outputs": [
            {
              "internalType": "uint256",
              "name": "",
              "type": "uint256"
            }
          ],
          "stateMutability": "view",
          "type": "function"
        },
        {
          "inputs": [
            {
              "internalType": "uint256",
              "name": "value",
              "type": "uint256"
            }
          ],
          "name": "burn",
          "outputs": [],
          "stateMutability": "nonpayable",
          "type": "function"
        },
        {
          "inputs": [
            {
              "internalType": "address",
              "name": "account",
              "type": "address"
            },
            {
              "internalType": "uint256",
              "name": "value",
              "type": "uint256"
            }
          ],
          "name": "burnFrom",
          "outputs": [],
          "stateMutability": "nonpayable",
          "type": "function"
        },
        {
          "inputs": [],
          "name": "decimals",
          "outputs": [
            {
              "internalType": "uint8",
              "name": "",
              "type": "uint8"
            }
          ],
          "stateMutability": "view",
          "type": "function"
        },
        {
          "inputs": [
            {
              "internalType": "bytes32",
              "name": "role",
              "type": "bytes32"
            }
          ],
          "name": "getRoleAdmin",
          "outputs": [
            {
              "internalType": "bytes32",
              "name": "",
              "type": "bytes32"
            }
          ],
          "stateMutability": "view",
          "type": "function"
        },
        {
          "inputs": [
            {
              "internalType": "bytes32",
              "name": "role",
              "type": "bytes32"
            },
            {
              "internalType": "address",
              "name": "account",
              "type": "address"
            }
          ],
          "name": "grantRole",
          "outputs": [],
          "stateMutability": "nonpayable",
          "type": "function"
        },
        {
          "inputs": [
            {
              "internalType": "bytes32",
              "name": "role",
              "type": "bytes32"
            },
            {
              "internalType": "address",
              "name": "account",
              "type": "address"
            }
          ],
          "name": "hasRole",
          "outputs": [
            {
              "internalType": "bool",
              "name": "",
              "type": "bool"
            }
          ],
          "stateMutability": "view",
          "type": "function"
        },
        {
          "inputs": [
            {
              "internalType": "address",
              "name": "to",
              "type": "address"
            },
            {
              "internalType": "uint256",
              "name": "amount",
              "type": "uint256"
            }
          ],
          "name": "mint",
          "outputs": [],
          "stateMutability": "nonpayable",
          "type": "function"
        },
        {
          "inputs": [],
          "name": "name",
          "outputs": [
            {
              "internalType": "string",
              "name": "",
              "type": "string"
            }
          ],
          "stateMutability": "view",
          "type": "function"
        },
        {
          "inputs": [],
          "name": "pause",
          "outputs": [],
          "stateMutability": "nonpayable",
          "type": "function"
        },
        {
          "inputs": [],
          "name": "paused",
          "outputs": [
            {
              "internalType": "bool",
              "name": "",
              "type": "bool"
            }
          ],
          "stateMutability": "view",
          "type": "function"
        },
        {
          "inputs": [
            {
              "internalType": "bytes32",
              "name": "role",
              "type": "bytes32"
            },
            {
              "internalType": "address",
              "name": "callerConfirmation",
              "type": "address"
            }
          ],
          "name": "renounceRole",
          "outputs": [],
          "stateMutability": "nonpayable",
          "type": "function"
        },
        {
          "inputs": [
            {
              "internalType": "bytes32",
              "name": "role",
              "type": "bytes32"
            },
            {
              "internalType": "address",
              "name": "account",
              "type": "address"
            }
          ],
          "name": "revokeRole",
          "outputs": [],
          "stateMutability": "nonpayable",
          "type": "function"
        },
        {
          "inputs": [
            {
              "internalType": "bytes4",
              "name": "interfaceId",
              "type": "bytes4"
            }
          ],
          "name": "supportsInterface",
          "outputs": [
            {
              "internalType": "bool",
              "name": "",
              "type": "bool"
            }
          ],
          "stateMutability": "view",
          "type": "function"
        },
        {
          "inputs": [],
          "name": "symbol",
          "outputs": [
            {
              "internalType": "string",
              "name": "",
              "type": "string"
            }
          ],
          "stateMutability": "view",
          "type": "function"
        },
        {
          "inputs": [],
          "name": "totalSupply",
          "outputs": [
            {
              "internalType": "uint256",
              "name": "",
              "type": "uint256"
            }
          ],
          "stateMutability": "view",
          "type": "function"
        },
        {
          "inputs": [
            {
              "internalType": "address",
              "name": "to",
              "type": "address"
            },
            {
              "internalType": "uint256",
              "name": "value",
              "type": "uint256"
            }
          ],
          "name": "transfer",
          "outputs": [
            {
              "internalType": "bool",
              "name": "",
              "type": "bool"
            }
          ],
          "stateMutability": "nonpayable",
          "type": "function"
        },
        {
          "inputs": [
            {
              "internalType": "address",
              "name": "from",
              "type": "address"
            },
            {
              "internalType": "address",
              "name": "to",
              "type": "address"
            },
            {
              "internalType": "uint256",
              "name": "value",
              "type": "uint256"
            }
          ],
          "name": "transferFrom",
          "outputs": [
            {
              "internalType": "bool",
              "name": "",
              "type": "bool"
            }
          ],
          "stateMutability": "nonpayable",
          "type": "function"
        },
        {
          "inputs": [],
          "name": "unpause",
          "outputs": [],
          "stateMutability": "nonpayable",
          "type": "function"
        }
      ],
      "storageLayout": {
        "storage": [
          {
            "astId": 539,
            "contract": "contracts/MyToken.sol:MyToken",
            "label": "_balances",
            "offset": 0,
            "slot": "0",
            "type": "t_mapping(t_address,t_uint256)"
          },
          {
            "astId": 545,
            "contract": "contracts/MyToken.sol:MyToken",
            "label": "_allowances",
            "offset": 0,
            "slot": "1",
            "type": "t_mapping(t_address,t_mapping(t_address,t_uint256))"
          },
          {
            "astId": 547,
            "contract": "contracts/MyToken.sol:MyToken",
            "label": "_totalSupply",
            "offset": 0,
            "slot": "2",
            "type": "t_uint256"
          },
          {
            "astId": 549,
            "contract": "contracts/MyToken.sol:MyToken",
            "label": "_name",
            "offset": 0,
            "slot": "3",
            "type": "t_string_storage"
          },
          {
            "astId": 551,
            "contract": "contracts/MyToken.sol:MyToken",
            "label": "_symbol",
            "offset": 0,
            "slot": "4",
            "type": "t_string_storage"
          },
          {
            "astId": 1220,
            "contract": "contracts/MyToken.sol:MyToken",
            "label": "_paused",
            "offset": 0,
            "slot": "5",
            "type": "t_bool"
          },
          {
            "astId": 27,
            "contract": "contracts/MyToken.sol:MyToken",
            "label": "_roles",
            "offset": 0,
            "slot": "6",
            "type": "t_mapping(t_bytes32,t_struct(RoleData)22_storage)"
          }
        ],
        "types": {
          "t_address": {
            "encoding": "inplace",
            "label": "address",
            "numberOfBytes": "20"
          },
          "t_bool": {
            "encoding": "inplace",
            "label": "bool",
            "numberOfBytes": "1"
          },
          "t_bytes32": {
            "encoding": "inplace",
            "label": "bytes32",
            "numberOfBytes": "32"
          },
          "t_mapping(t_address,t_bool)": {
            "encoding": "mapping",
            "key": "t_address",
            "label": "mapping(address => bool)",
            "numberOfBytes": "32",
            "value": "t_bool"
          },
          "t_mapping(t_address,t_mapping(t_address,t_uint256))": {
            "encoding": "mapping",
            "key": "t_address",
            "label": "mapping(address => mapping(address => uint256))",
            "numberOfBytes": "32",
            "value": "t_mapping(t_address,t_uint256)"
          },
          "t_mapping(t_address,t_uint256)": {
            "encoding": "mapping",
            "key": "t_address",
            "label": "mapping(address => uint256)",
            "numberOfBytes": "32",
            "value": "t_uint256"
          },
          "t_mapping(t_bytes32,t_struct(RoleData)22_storage)": {
            "encoding": "mapping",
            "key": "t_bytes32",
            "label": "mapping(bytes32 => struct AccessControl.RoleData)",
            "numberOfBytes": "32",
            "value": "t_struct(RoleData)22_storage"
          },
          "t_string_storage": {
            "encoding": "bytes",
            "label": "string",
            "numberOfBytes": "32"
          },
          "t_struct(RoleData)22_storage": {
            "encoding": "inplace",
            "label": "struct AccessControl.RoleData",
            "members": [
              {
                "astId": 19,
                "contract": "contracts/MyToken.sol:MyToken",
                "label": "hasRole",
                "offset": 0,
                "slot": "0",
                "type": "t_mapping(t_address,t_bool)"
              },
              {
                "astId": 21,
                "contract": "contracts/MyToken.sol:MyToken",
                "label": "adminRole",
                "offset": 0,
                "slot": "1",
                "type": "t_bytes32"
              }
            ],
            "numberOfBytes": "64"
          },
          "t_uint256": {
            "encoding": "inplace",
            "label": "uint256",
            "numberOfBytes": "32"
          }
        }
      },
      "evm": {
        "assembly": "// RO data = 0/0 bytes\n// RW data = 616/66208 bytes\n// Stack size = 32768 bytes\n\n// Instructions = 9405\n// Code size = 32752 bytes\n\n      : @0 (gas: 1)\n     0: jump @14 if a0 == a1\n      : @1 (gas: 9)\n     3: a3 = a1 << 0x20\n     6: a3 = a3 >> 0x20\n     9: a4 = a0 << 0x20\n    12: a4 = a4 >> 0x20\n    15: a4 = a4 + a2\n    18: a3 = a3 - a4\n    21: a4 = a2 << 0x1\n    24: a4 = -a4\n    26: jump @7 if a4 >=u a3\n      : @2 (gas: 1)\n    29: jump @11 if a0 >=u a1\n      : @3 (gas: 1)\n    32: jump @14 if a2 == 0\n      : @4 (gas: 3)\n    35: a2 = a2 + a0\n    38: a3 = a0\n    40: fallthrough\n      : @5 (gas: 6)\n    41: a4 = u8 [a1]\n    43: a1 = a1 + 0x1\n    46: a5 = a3 + 0x1\n    49: u8 [a3] = a4\n    51: a3 = a5\n    53: jump @5 if a5 != a2\n      : @6 (gas: 1)\n    56: jump @14\n      : @7 (gas: 1)\n    58: jump @14 if a2 == 0\n      : @8 (gas: 3)\n    61: a2 = a2 + a0\n    64: a3 = a0\n    66: fallthrough\n      : @9 (gas: 6)\n    67: a4 = u8 [a1]\n    69: a1 = a1 + 0x1\n    72: a5 = a3 + 0x1\n    75: u8 [a3] = a4\n    77: a3 = a5\n    79: jump @9 if a5 != a2\n      : @10 (gas: 1)\n    82: jump @14\n      : @11 (gas: 1)\n    84: jump @14 if a2 == 0\n      : @12 (gas: 2)\n    87: i32 a3 = a2 + 0xffffffffffffffff\n    90: fallthrough\n      : @13 (gas: 7)\n    91: a4 = a1 + a3\n    94: a4 = u8 [a4]\n    96: a2 = a2 + 0xffffffffffffffff\n    99: a5 = a0 + a3\n   102: u8 [a5] = a4\n   104: i32 a3 = a3 + 0xffffffffffffffff\n   107: jump @13 if a2 != 0\n      : @14 (gas: 1)\n   110: ret\n      : @15 (gas: 6)\n   112: sp = sp + 0xfffffffffffffff0\n   115: u64 [sp + 0x8] = ra\n   118: u64 [sp] = s0\n   120: s0 = a0 & 0x1\n   123: ecalli 2 // 'call_data_size'\n   125: fallthrough\n      : @16 (gas: 2)\n   126: u32 [0x20268] = a0\n   131: jump @18 if s0 == 0\n      : @17 (gas: 1)\n   134: ra = 2, jump @19\n      : @18 [@dyn 1] (gas: 20)\n   138: ra = 0x4\n   141: sp = sp + 0xfffffffffffff808\n   145: a0 = sp + 0x700\n   149: u64 [a0 + 0xf0] = ra\n   153: u64 [a0 + 0xe8] = s0\n   157: u64 [a0 + 0xe0] = s1\n   161: s0 = sp + 0x7f8\n   165: sp = sp + 0xfffffffffffff800\n   169: sp = sp + 0xfffffffffffffab8\n   173: sp = sp & 0xffffffffffffffe0\n   176: s1 = sp\n   178: a2 = s1 + 0x1038\n   182: u64 [a2 + 1248] = 0\n   186: u64 [a2 + 1240] = 0\n   190: u64 [a2 + 1224] = 0x80\n   196: a0 = 0x40\n   199: a1 = s1 + 0x1500\n   203: u64 [a2 + 1232] = 0\n   207: ra = 0x10e\n   211: jump @1426\n      : @19 [@dyn 2] (gas: 20)\n   214: sp = sp + 0xfffffffffffffe10\n   218: u64 [sp + 0x1e8] = ra\n   222: u64 [sp + 0x1e0] = s0\n   226: u64 [sp + 0x1d8] = s1\n   230: s0 = sp + 0x1f0\n   234: sp = sp + 0xfffffffffffff990\n   238: sp = sp & 0xffffffffffffffe0\n   241: s1 = sp\n   243: a0 = s1 + 0x1000\n   247: u64 [a0 + 4294965272] = 0\n   251: a0 = s1 + 0x1000\n   255: u64 [a0 + 4294965264] = 0\n   259: a1 = s1 + 0x1000\n   263: u64 [a1 + 4294965248] = 0x80\n   269: a0 = 0x40\n   272: a1 = s1 + 0x7ff\n   276: a1 = a1 + 0x1\n   279: a2 = s1 + 0x1000\n   283: u64 [a2 + 4294965256] = 0\n   287: ra = 6, jump @1426\n      : @20 [@dyn 3] (gas: 12)\n   292: a0 = s1 + 0x1000\n   296: u64 [a0 + 4294965304] = 0\n   300: a0 = s1 + 0x1000\n   304: u64 [a0 + 4294965296] = 0\n   308: a0 = s1 + 0x1000\n   312: u64 [a0 + 4294965288] = 0\n   316: a0 = s1 + 0x1000\n   320: u64 [a0 + 4294965280] = 0\n   324: a0 = s1 + 0x1000\n   328: i32 a0 = a0 + 0xfffffffffffff820\n   332: ecalli 10 // 'value_transferred'\n   334: fallthrough\n      : @21 (gas: 12)\n   335: a0 = s1 + 0x1000\n   339: a0 = u64 [a0 + 0xfffffffffffff830]\n   343: a1 = s1 + 0x1000\n   347: a1 = u64 [a1 + 0xfffffffffffff838]\n   351: a2 = s1 + 0x1000\n   355: a2 = u64 [a2 + 0xfffffffffffff828]\n   359: a3 = s1 + 0x1000\n   363: a3 = u64 [a3 + 0xfffffffffffff820]\n   367: a1 = a1 | a2\n   370: a0 = a0 | a3\n   373: a0 = a0 | a1\n   376: jump @23 if a0 == 0\n      : @22 (gas: 1)\n   379: jump @198\n      : @23 (gas: 9)\n   382: a2 = u32 [0x20268]\n   387: u64 [s1 + 2008] = 0\n   391: u64 [s1 + 2000] = 0\n   395: u64 [s1 + 1992] = 0\n   399: a0 = s1 + 0x7e0\n   403: a1 = s1 + 0x7c0\n   407: u64 [s1 + 0x118] = a2\n   411: u64 [s1 + 0x7c0] = a2\n   415: ra = 8, jump @876\n      : @24 [@dyn 4] (gas: 6)\n   420: a4 = s1 + 0x700\n   424: a3 = u64 [a4 + 0xf8]\n   428: a1 = u64 [a4 + 0xf0]\n   432: a2 = u64 [a4 + 0xe8]\n   436: a0 = u64 [a4 + 0xe0]\n   440: t0 = 10, jump @1365\n      : @25 [@dyn 5] (gas: 1)\n   445: jump @27 if a1 == 0\n      : @26 (gas: 1)\n   448: jump @197\n      : @27 (gas: 3)\n   451: u64 [s1 + 0x110] = a0\n   455: a1 = u64 [s1 + 0x118]\n   459: ra = 12, jump @1436\n      : @28 [@dyn 6] (gas: 5)\n   464: i32 a0 = a0 + 0\n   466: a1 = i32 [s1 + 0x118]\n   470: a2 = 0\n   472: ecalli 0 // 'call_data_copy'\n   473: fallthrough\n      : @29 (gas: 2)\n   474: a1 = u64 [s1 + 0x118]\n   478: jump @31 if a1 >u 31\n      : @30 (gas: 1)\n   482: jump @199\n      : @31 (gas: 3)\n   485: a0 = s1 + 0x7a0\n   489: a1 = u64 [s1 + 0x110]\n   493: ra = 14, jump @1424\n      : @32 [@dyn 7] (gas: 15)\n   498: a0 = u64 [s1 + 0x7b8]\n   502: u64 [s1 + 0x80] = a0\n   506: a0 = u64 [s1 + 0x7b0]\n   510: u64 [s1 + 0x78] = a0\n   513: a0 = u64 [s1 + 0x7a8]\n   517: u64 [s1 + 0x70] = a0\n   520: a0 = u64 [s1 + 0x7a0]\n   524: u64 [s1 + 0x68] = a0\n   527: u64 [s1 + 1912] = 0\n   531: u64 [s1 + 1904] = 0\n   535: u64 [s1 + 1888] = 0x40\n   540: a0 = s1 + 0x780\n   544: a1 = s1 + 0x760\n   548: u64 [s1 + 1896] = 0\n   552: ra = 16, jump @876\n      : @33 [@dyn 8] (gas: 13)\n   557: a1 = s1 + 0x700\n   561: a2 = u64 [a1 + 0x98]\n   565: a3 = u64 [a1 + 0x90]\n   569: a4 = u64 [a1 + 0x88]\n   573: a0 = u64 [a1 + 0x80]\n   577: a5 = a4 | a2\n   580: a1 = a0 | a3\n   583: a1 = a1 | a5\n   586: a1 = a1 >> 0x20\n   589: a5 = a5 | a3\n   592: a5 = a5 << 0x20\n   595: a1 = a1 | a5\n   598: jump @35 if a1 == 0\n      : @34 (gas: 1)\n   601: jump @197\n      : @35 (gas: 11)\n   604: u64 [s1 + 1880] = 0\n   608: u64 [s1 + 1872] = 0\n   612: u64 [s1 + 1864] = 0\n   616: a5 = 0x7\n   619: a1 = s1 + 0x740\n   623: u64 [s1 + 0x740] = a5\n   627: u64 [s1 + 0xc8] = a2\n   631: u64 [s1 + 0xc0] = a3\n   635: u64 [s1 + 0xb8] = a4\n   639: u64 [s1 + 0xd0] = a0\n   643: ra = 18, jump @1426\n      : @36 [@dyn 9] (gas: 10)\n   648: a3 = u64 [s1 + 0xd0]\n   652: a0 = u64 [s1 + 0xc8]\n   656: a1 = u64 [s1 + 0xc0]\n   660: a0 = a0 | a1\n   663: a1 = 0xffffffe0\n   673: a1 = a3 <u a1\n   676: a2 = u64 [s1 + 0xb8]\n   680: a1 = 0 if a2 != 0\n   682: a1 = 0 if a0 != 0\n   684: jump @38 if a1 != 0\n      : @37 (gas: 1)\n   687: jump @197\n      : @38 (gas: 9)\n   690: i32 a0 = a3 + 0x20\n   693: u64 [s1 + 1840] = 0\n   697: a2 = u64 [0x20000]\n   702: u64 [s1 + 1832] = 0\n   706: u64 [s1 + 1824] = 0\n   710: a1 = s1 + 0x720\n   714: u64 [s1 + 0x738] = a2\n   718: u64 [s1 + 0xf0] = a0\n   722: ra = 20, jump @1426\n      : @39 [@dyn 10] (gas: 7)\n   727: u64 [s1 + 1784] = 0\n   731: u64 [s1 + 1776] = 0\n   735: u64 [s1 + 1760] = 0x40\n   740: a0 = s1 + 0x700\n   744: a1 = s1 + 0x6e0\n   748: u64 [s1 + 1768] = 0\n   752: ra = 22, jump @876\n      : @40 [@dyn 11] (gas: 13)\n   757: a1 = s1 + 0x700\n   761: a5 = u64 [a1 + 0x18]\n   764: a2 = u64 [a1 + 0x10]\n   767: a3 = u64 [a1 + 0x8]\n   770: a0 = u64 [a1]\n   772: a4 = a3 | a5\n   775: a1 = a0 | a2\n   778: a1 = a1 | a4\n   781: a1 = a1 >> 0x20\n   784: a4 = a4 | a2\n   787: a4 = a4 << 0x20\n   790: a1 = a1 | a4\n   793: jump @42 if a1 == 0\n      : @41 (gas: 1)\n   796: jump @197\n      : @42 (gas: 11)\n   799: u64 [s1 + 1752] = 0\n   803: u64 [s1 + 1744] = 0\n   807: u64 [s1 + 1736] = 0\n   811: a4 = 0x3\n   814: a1 = s1 + 0x6c0\n   818: u64 [s1 + 0x6c0] = a4\n   822: u64 [s1 + 0x98] = a2\n   826: u64 [s1 + 0x90] = a3\n   830: u64 [s1 + 0xa0] = a0\n   834: u64 [s1 + 0x88] = a5\n   838: ra = 24, jump @1426\n      : @43 [@dyn 12] (gas: 10)\n   843: a3 = u64 [s1 + 0xa0]\n   847: a0 = u64 [s1 + 0x98]\n   851: a1 = u64 [s1 + 0x88]\n   855: a0 = a0 | a1\n   858: a1 = 0xffffffe0\n   868: a1 = a3 <u a1\n   871: a2 = u64 [s1 + 0x90]\n   875: a1 = 0 if a2 != 0\n   877: a1 = 0 if a0 != 0\n   879: jump @45 if a1 != 0\n      : @44 (gas: 1)\n   882: jump @197\n      : @45 (gas: 9)\n   885: i32 a0 = a3 + 0x20\n   888: u64 [s1 + 1712] = 0\n   892: u64 [s1 + 1704] = 0\n   896: u64 [s1 + 1696] = 0\n   900: a2 = 0x4d544b0000000000\n   910: a1 = s1 + 0x6a0\n   914: u64 [s1 + 0x6b8] = a2\n   918: u64 [s1 + 0x18] = a0\n   921: ra = 26, jump @1426\n      : @46 [@dyn 13] (gas: 3)\n   926: a0 = s1 + 0x680\n   930: a1 = u64 [s1 + 0xd0]\n   934: ra = 28, jump @1424\n      : @47 [@dyn 14] (gas: 17)\n   939: a0 = s1 + 0x600\n   943: a2 = u64 [a0 + 0x98]\n   947: a1 = u64 [a0 + 0x90]\n   951: a3 = u64 [a0 + 0x88]\n   955: a0 = a2 >u 0\n   957: a4 = a1 >u 0\n   959: a4 = a0 if a2 != 0\n   962: u64 [s1 + 0xe0] = a3\n   966: a0 = a3 >u 0\n   968: u64 [s1 + 0x58] = a1\n   971: u64 [s1 + 0xe8] = a2\n   975: a1 = a1 | a2\n   978: u64 [s1 + 0x50] = a0\n   981: u64 [s1 + 0xa8] = a4\n   985: u64 [s1 + 0xd8] = a1\n   989: a0 = a4 if a1 != 0\n   992: jump @49 if a0 == 0\n      : @48 (gas: 1)\n   995: jump @201\n      : @49 (gas: 3)\n   998: a0 = u64 [s1 + 0x680]\n  1002: u64 [s1 + 0x60] = a0\n  1005: t0 = 30, jump @1412\n      : @50 [@dyn 15] (gas: 2)\n  1010: a0 = s1 + 0x660\n  1014: ra = 32, jump @1428\n      : @51 [@dyn 16] (gas: 6)\n  1019: a4 = s1 + 0x600\n  1023: a0 = u64 [a4 + 0x70]\n  1026: a1 = u64 [a4 + 0x68]\n  1029: a2 = u64 [a4 + 0x60]\n  1032: a3 = u64 [a4 + 0x78]\n  1035: t0 = 34, jump @1378\n      : @52 [@dyn 17] (gas: 12)\n  1040: t0 = a2 <u 0x1\n  1043: ra = a1 & 0x7f\n  1046: t2 = a5 & a0\n  1049: a4 = a5 & t1\n  1052: ra = a1 if a2 != 0\n  1055: a1 = ra <u 0x20\n  1058: a5 = a5 & a3\n  1061: a2 = a1\n  1063: a2 = 0 if a4 != 0\n  1065: a0 = t2 | a5\n  1068: a2 = 0 if a0 != 0\n  1070: jump @54 if t0 == a2\n      : @53 (gas: 1)\n  1073: jump @208\n      : @54 (gas: 1)\n  1076: t0 = 36, jump @1389\n      : @55 [@dyn 18] (gas: 4)\n  1081: a0 = u64 [s1 + 0x60]\n  1084: a0 = a0 <u 0x20\n  1087: u64 [s1 + 0xb0] = a0\n  1091: jump @65 if a3 == 0\n      : @56 (gas: 11)\n  1095: u64 [s1 + 0x110] = a4\n  1099: u64 [s1 + 0x118] = ra\n  1103: u64 [s1 + 0xf8] = a5\n  1107: u64 [s1 + 0x108] = t2\n  1111: u64 [s1 + 1624] = 0\n  1115: u64 [s1 + 1616] = 0\n  1119: u64 [s1 + 1608] = 0\n  1123: a1 = s1 + 0x640\n  1127: u64 [s1 + 1600] = 0x3\n  1132: a0 = 0\n  1134: ra = 38, jump @1426\n      : @57 [@dyn 19] (gas: 2)\n  1139: a1 = i32 [0x2026c]\n  1144: jump @59 if a1 >u 31\n      : @58 (gas: 4)\n  1148: a1 = 0x20\n  1151: u32 [0x2026c] = a1\n  1156: t0 = 0x28\n  1159: jump @1419\n      : @59 (gas: 1)\n  1162: t0 = 40, jump @1419\n      : @60 [@dyn 20] (gas: 114)\n  1167: a0 = 0x20280\n  1172: i32 a0 = a0 + 0\n  1174: i32 a2 = a2 + 0\n  1176: a1 = 0x20\n  1179: ecalli 6 // 'hash_keccak_256'\n  1181: a1 = u64 [s1 + 0x60]\n  1184: a0 = a1 + 0x1f\n  1187: a1 = a0 <u a1\n  1190: a4 = u64 [s1 + 0xe0]\n  1194: a2 = a4 + a1\n  1197: t0 = a2 <u a4\n  1200: t0 = a1 if a1 == 0\n  1203: a1 = u64 [s1 + 0x58]\n  1206: a1 = a1 + t0\n  1209: u64 [s1 + 0x48] = a1\n  1212: a1 = a1 << 0x3b\n  1215: a3 = a2 >> 0x5\n  1218: a5 = a3 | a1\n  1221: a1 = u64 [s1 + 0x100]\n  1225: t0 = u64 [a1 + 0x18]\n  1228: a2 = a2 << 0x3b\n  1231: a1 = u64 [a1 + 0x10]\n  1234: a0 = a0 >> 0x5\n  1237: a0 = a0 | a2\n  1240: ra = reverse t0\n  1242: t2 = reverse a1\n  1244: a3 = u64 [s1 + 0xb0]\n  1248: a3 = 0 if a4 != 0\n  1250: a1 = u64 [s1 + 0xd8]\n  1254: a3 = 0 if a1 != 0\n  1256: a5 = 0 if a3 != 0\n  1258: a0 = 0 if a3 != 0\n  1260: t0 = ra + a0\n  1263: a2 = t0 <u ra\n  1266: a1 = t2 + a2\n  1269: a1 = a1 + a5\n  1272: a5 = a1 ^ t2\n  1275: a0 = a1 <u t2\n  1278: a0 = a2 if a5 == 0\n  1281: u64 [s1 + 0x40] = a0\n  1284: a2 = u64 [s1 + 0x118]\n  1288: a0 = a2 + 0x1f\n  1291: a5 = a0 <u a2\n  1294: a2 = u64 [s1 + 0x110]\n  1298: a4 = a2 + a5\n  1301: t1 = a4 <u a2\n  1304: t1 = a5 if a5 == 0\n  1307: a2 = u64 [s1 + 0x108]\n  1311: a2 = a2 + t1\n  1314: u64 [s1 + 0x30] = a2\n  1317: a5 = a2 << 0x3b\n  1320: a2 = a4 >> 0x5\n  1323: a2 = a2 | a5\n  1326: a4 = a4 << 0x3b\n  1329: a5 = a0 >> 0x5\n  1332: a4 = a4 | a5\n  1335: a4 = a4 + ra\n  1338: u64 [s1 + 0x118] = a4\n  1342: a5 = a4 <u ra\n  1345: a4 = t2 + a5\n  1348: a4 = a4 + a2\n  1351: a2 = a4 ^ t2\n  1354: u64 [s1 + 0x110] = a4\n  1358: a0 = a4 <u t2\n  1361: a0 = a5 if a2 == 0\n  1364: u64 [s1 + 0x38] = a0\n  1367: a5 = u64 [s1 + 0x48]\n  1370: a0 = u64 [s1 + 0x58]\n  1373: a2 = a5 <u a0\n  1376: a4 = u64 [s1 + 0xe8]\n  1380: a4 = a4 + a2\n  1383: a5 = a5 >> 0x5\n  1386: a2 = a4 << 0x3b\n  1389: a2 = a2 | a5\n  1392: a0 = u64 [s1 + 0x100]\n  1396: t2 = u64 [a0]\n  1398: a5 = u64 [a0 + 0x8]\n  1401: a4 = a4 >> 0x5\n  1404: a2 = 0 if a3 != 0\n  1406: a4 = 0 if a3 != 0\n  1408: a5 = reverse a5\n  1410: a0 = reverse t2\n  1412: a4 = a4 + a0\n  1415: a3 = a5 + a2\n  1418: a2 = a3 <u a5\n  1421: a4 = a4 + a2\n  1424: t1 = u64 [s1 + 0x40]\n  1427: t1 = t1 + a3\n  1430: a3 = t1 <u a3\n  1433: t2 = a4 + a3\n  1436: a2 = u64 [s1 + 0x30]\n  1439: a3 = u64 [s1 + 0x108]\n  1443: a4 = a2 <u a3\n  1446: ra = u64 [s1 + 0xf8]\n  1450: ra = ra + a4\n  1453: a2 = a2 >> 0x5\n  1456: a4 = ra << 0x3b\n  1459: a2 = a2 | a4\n  1462: a4 = ra >> 0x5\n  1465: a4 = a4 + a0\n  1468: a2 = a2 + a5\n  1471: a5 = a2 <u a5\n  1474: a4 = a4 + a5\n  1477: a0 = u64 [s1 + 0x38]\n  1480: a0 = a0 + a2\n  1483: u64 [s1 + 0x108] = a0\n  1487: a5 = a0 <u a2\n  1490: a4 = a4 + a5\n  1493: u64 [s1 + 0x100] = a4\n  1497: a4 = sp + 0xffffffffffffffe0\n  1500: a0 = a4 & 0xffffffffffffffe0\n  1503: sp = a0\n  1505: u64 [s1 + 0xf8] = a0\n  1509: fallthrough\n      : @61 (gas: 5)\n  1510: u64 [a0] = t0\n  1512: u64 [a0 + 0x8] = a1\n  1515: a4 = u64 [s1 + 0x118]\n  1519: a3 = t0 <u a4\n  1522: t0 = 42, jump @1363\n      : @62 [@dyn 21] (gas: 1)\n  1527: jump @65 if a5 == 0\n      : @63 (gas: 8)\n  1530: a1 = sp + 0xffffffffffffffe0\n  1533: a1 = a1 & 0xffffffffffffffe0\n  1536: sp = a1\n  1538: u64 [a1 + 24] = 0\n  1541: u64 [a1 + 16] = 0\n  1544: u64 [a1 + 8] = 0\n  1547: u64 [a1 + 0] = 0\n  1549: ra = 44, jump @1429\n      : @64 [@dyn 22] (gas: 14)\n  1554: a0 = u64 [s1 + 0xf8]\n  1558: t0 = u64 [a0]\n  1560: a3 = u64 [a0 + 0x18]\n  1563: a1 = u64 [a0 + 0x8]\n  1566: a4 = u64 [a0 + 0x10]\n  1569: t0 = t0 + 0x1\n  1572: a2 = t0 <u 0x1\n  1575: a1 = a1 + a2\n  1578: a2 = t0 | a1\n  1581: a2 = a2 <u 0x1\n  1584: t1 = a4 + a2\n  1587: a4 = t1 <u a4\n  1590: t2 = a3 + a4\n  1593: jump @61\n      : @65 (gas: 26)\n  1595: a0 = u64 [s1 + 0xb0]\n  1599: a0 = a0 ^ 0x1\n  1602: a1 = u64 [s1 + 0xe0]\n  1606: a2 = u64 [s1 + 0x50]\n  1609: a0 = a2 if a1 != 0\n  1612: a2 = u64 [s1 + 0xa8]\n  1616: a3 = u64 [s1 + 0xd8]\n  1620: a0 = a2 if a3 != 0\n  1623: a5 = u64 [s1 + 0xe8]\n  1627: t0 = a1 | a5\n  1630: a3 = u64 [s1 + 0x60]\n  1633: a2 = a3 >> 0x3f\n  1636: u64 [s1 + 0x50] = a2\n  1639: t2 = a1 << 0x1\n  1642: ra = a1 >> 0x3f\n  1645: a1 = u64 [s1 + 0x58]\n  1648: a4 = a1 << 0x1\n  1651: t1 = a1 >> 0x3f\n  1654: a5 = a5 << 0x1\n  1657: a2 = a3 << 0x1\n  1660: u64 [s1 + 0x40] = a2\n  1663: u64 [s1 + 0x38] = t2\n  1666: u64 [s1 + 0x30] = ra\n  1669: u64 [s1 + 0x28] = a4\n  1672: u64 [s1 + 0x48] = t1\n  1675: jump @78 if a0 == 0\n      : @66 (gas: 11)\n  1679: u64 [s1 + 0xa8] = t0\n  1683: u64 [s1 + 0x20] = a5\n  1686: a3 = a3 & 0xffffffffffffffe0\n  1689: u64 [s1 + 0xb0] = a3\n  1693: u64 [s1 + 1560] = 0\n  1697: u64 [s1 + 1552] = 0\n  1701: u64 [s1 + 1544] = 0\n  1705: a1 = s1 + 0x600\n  1709: u64 [s1 + 1536] = 0x3\n  1714: a0 = 0\n  1716: ra = 46, jump @1426\n      : @67 [@dyn 23] (gas: 7)\n  1721: a0 = sp + 0xffffffffffffffe0\n  1724: a0 = a0 & 0xffffffffffffffe0\n  1727: u64 [s1 + 0x108] = a0\n  1731: sp = a0\n  1733: a1 = 0x20\n  1736: a0 = 0\n  1738: ra = 48, jump @1436\n      : @68 [@dyn 24] (gas: 32)\n  1743: a1 = sp + 0xffffffffffffffe0\n  1746: a1 = a1 & 0xffffffffffffffe0\n  1749: u64 [s1 + 0x100] = a1\n  1753: sp = a1\n  1755: i32 a0 = a0 + 0\n  1757: i32 a2 = a1 + 0\n  1759: a1 = 0x20\n  1762: ecalli 6 // 'hash_keccak_256'\n  1764: u64 [s1 + 280] = 0x20\n  1769: a4 = u64 [s1 + 0x100]\n  1773: a0 = u64 [a4]\n  1775: t0 = 0\n  1777: t1 = 0\n  1779: t2 = 0\n  1781: a3 = 0\n  1783: u64 [s1 + 272] = 0\n  1787: ra = 0\n  1789: a5 = 0\n  1791: a1 = u64 [a4 + 0x8]\n  1794: a0 = reverse a0\n  1796: a2 = u64 [s1 + 0x108]\n  1800: u64 [a2 + 0x18] = a0\n  1803: a0 = u64 [a4 + 0x10]\n  1806: a4 = u64 [a4 + 0x18]\n  1809: a1 = reverse a1\n  1811: u64 [a2 + 0x10] = a1\n  1814: a1 = u64 [s1 + 0x110]\n  1818: a0 = reverse a0\n  1820: u64 [a2 + 0x8] = a0\n  1823: a0 = reverse a4\n  1825: u64 [a2] = a0\n  1827: fallthrough\n      : @69 (gas: 22)\n  1828: a0 = u64 [s1 + 0xb0]\n  1832: u64 [s1 + 0xe8] = a3\n  1836: a0 = a3 <u a0\n  1839: a4 = a0 ^ 0x1\n  1842: u64 [s1 + 0x110] = a1\n  1846: a4 = 0x1 if a1 != 0\n  1849: a0 = ra | a5\n  1852: a4 = 0x1 if a0 != 0\n  1855: a1 = u64 [s1 + 0xd0]\n  1859: a0 = u64 [s1 + 0x118]\n  1863: a1 = a1 + a0\n  1866: a3 = u64 [s1 + 0xb8]\n  1870: a3 = a3 + t0\n  1873: a2 = u64 [s1 + 0xc0]\n  1877: a2 = a2 + t1\n  1880: a0 = u64 [s1 + 0xc8]\n  1884: u64 [s1 + 0xf0] = t2\n  1888: t2 = t2 + a0\n  1891: a0 = u64 [s1 + 0xa8]\n  1895: u64 [s1 + 0x100] = t1\n  1899: u64 [s1 + 0xf8] = t0\n  1903: jump @80 if a4 != 0\n      : @70 (gas: 12)\n  1907: u64 [s1 + 0xe0] = a5\n  1911: a0 = u64 [s1 + 0x118]\n  1915: a4 = a1 <u a0\n  1918: a3 = a3 + a4\n  1921: a0 = t0\n  1923: t0 = a3 ^ t0\n  1926: a5 = a3 <u a0\n  1929: a5 = a4 if t0 == 0\n  1932: a5 = a5 + a2\n  1935: a4 = a5 <u a2\n  1938: a2 = a2 <u t1\n  1941: t0 = 50, jump @1408\n      : @71 [@dyn 25] (gas: 1)\n  1946: jump @73 if a0 == 0\n      : @72 (gas: 1)\n  1949: jump @197\n      : @73 (gas: 3)\n  1952: a0 = s1 + 0x1a0\n  1956: u64 [s1 + 0xd8] = ra\n  1960: ra = 52, jump @1424\n      : @74 [@dyn 26] (gas: 5)\n  1965: a0 = u64 [s1 + 0x1a0]\n  1969: a2 = u64 [s1 + 0x1a8]\n  1973: a3 = u64 [s1 + 0x1b0]\n  1977: a4 = u64 [s1 + 0x1b8]\n  1981: t0 = 54, jump @1409\n      : @75 [@dyn 27] (gas: 1)\n  1986: ra = 56, jump @1429\n      : @76 [@dyn 28] (gas: 2)\n  1991: a5 = u64 [s1 + 0x108]\n  1995: t0 = 58, jump @1376\n      : @77 [@dyn 29] (gas: 32)\n  2000: a5 = s1 + 0x100\n  2004: a0 = u64 [a5 + 0x18]\n  2007: t0 = a0 + 0x20\n  2010: a1 = t0 <u a0\n  2013: a0 = u64 [s1 + 0xf8]\n  2017: a2 = a0 + a1\n  2020: a3 = a2 <u a0\n  2023: a3 = a1 if a1 == 0\n  2026: a0 = u64 [a5]\n  2028: a3 = a3 + a0\n  2031: a1 = a3 <u a0\n  2034: t2 = u64 [s1 + 0xf0]\n  2038: t2 = t2 + a1\n  2041: a0 = u64 [s1 + 0xe8]\n  2045: a1 = a0 + 0x20\n  2048: a4 = a1 <u a0\n  2051: a0 = u64 [a5 + 0x10]\n  2054: ra = a0 + a4\n  2057: a0 = ra <u a0\n  2060: a0 = a4 if a4 == 0\n  2063: a4 = u64 [s1 + 0xd8]\n  2067: a0 = a0 + a4\n  2070: a4 = a0 <u a4\n  2073: a5 = u64 [s1 + 0xe0]\n  2077: a5 = a5 + a4\n  2080: u64 [s1 + 0x118] = t0\n  2084: t0 = a2\n  2086: t1 = a3\n  2088: a3 = a1\n  2090: a1 = ra\n  2092: ra = a0\n  2094: jump @69\n      : @78 (gas: 4)\n  2097: a2 = u64 [s1 + 0x50]\n  2100: a0 = a3 | a1\n  2103: a0 = a0 | t0\n  2106: jump @94 if a0 != 0\n      : @79 (gas: 9)\n  2110: u64 [s1 + 256] = 0\n  2114: u64 [s1 + 248] = 0\n  2118: u64 [s1 + 272] = 0\n  2122: u64 [s1 + 264] = 0\n  2126: t0 = u64 [s1 + 0x38]\n  2129: a1 = u64 [s1 + 0x30]\n  2132: t1 = u64 [s1 + 0x28]\n  2135: a4 = u64 [s1 + 0x48]\n  2138: jump @96\n      : @80 (gas: 9)\n  2141: t1 = u64 [s1 + 0x60]\n  2144: a4 = u64 [s1 + 0xb0]\n  2148: a4 = a4 ^ t1\n  2151: a5 = u64 [s1 + 0x58]\n  2154: a4 = a4 | a5\n  2157: a4 = a4 | a0\n  2160: a5 = u64 [s1 + 0x48]\n  2163: t0 = u64 [s1 + 0x20]\n  2166: jump @93 if a4 == 0\n      : @81 (gas: 12)\n  2170: a0 = u64 [s1 + 0x118]\n  2174: a4 = a1 <u a0\n  2177: a3 = a3 + a4\n  2180: a0 = u64 [s1 + 0xf8]\n  2184: t0 = a3 ^ a0\n  2187: a5 = a3 <u a0\n  2190: a5 = a4 if t0 == 0\n  2193: a5 = a5 + a2\n  2196: a4 = a5 <u a2\n  2199: a0 = u64 [s1 + 0x100]\n  2203: a2 = a2 <u a0\n  2206: t0 = 60, jump @1408\n      : @82 [@dyn 30] (gas: 1)\n  2211: jump @197 if a0 != 0\n      : @83 (gas: 2)\n  2215: a0 = s1 + 0x5e0\n  2219: ra = 62, jump @1424\n      : @84 [@dyn 31] (gas: 11)\n  2224: a1 = s1 + 0x500\n  2228: a0 = u64 [a1 + 0xf8]\n  2232: u64 [s1 + 0x110] = a0\n  2236: a0 = u64 [a1 + 0xf0]\n  2240: u64 [s1 + 0x100] = a0\n  2244: a0 = u64 [a1 + 0xe8]\n  2248: u64 [s1 + 0xf8] = a0\n  2252: a0 = u64 [a1 + 0xe0]\n  2256: u64 [s1 + 0xf0] = a0\n  2260: a0 = u64 [s1 + 0x60]\n  2263: t0 = 64, jump @1407\n      : @85 [@dyn 32] (gas: 1)\n  2268: ra = 66, jump @1443\n      : @86 [@dyn 33] (gas: 6)\n  2273: u64 [s1 + 0xe8] = a0\n  2277: u64 [s1 + 0xd0] = a1\n  2281: a0 = 0xffffffffffffffff\n  2284: a1 = 0xffffffffffffffff\n  2287: a2 = u64 [s1 + 0x118]\n  2291: ra = 68, jump @1448\n      : @87 [@dyn 34] (gas: 1)\n  2296: t0 = 70, jump @1406\n      : @88 [@dyn 35] (gas: 1)\n  2301: ra = 72, jump @1448\n      : @89 [@dyn 36] (gas: 1)\n  2306: t0 = 74, jump @1356\n      : @90 [@dyn 37] (gas: 3)\n  2311: a1 = u64 [s1 + 0x110]\n  2315: a4 = a1 & ~a4\n  2318: t0 = 76, jump @1409\n      : @91 [@dyn 38] (gas: 1)\n  2323: ra = 78, jump @1429\n      : @92 [@dyn 39] (gas: 3)\n  2328: t0 = u64 [s1 + 0x20]\n  2331: a5 = u64 [s1 + 0x48]\n  2334: fallthrough\n      : @93 (gas: 25)\n  2335: a0 = u64 [s1 + 0x50]\n  2338: a2 = u64 [s1 + 0x38]\n  2341: a2 = a2 | a0\n  2344: a0 = u64 [s1 + 0x30]\n  2347: a3 = u64 [s1 + 0x28]\n  2350: a3 = a3 | a0\n  2353: a5 = t0 | a5\n  2356: a4 = u64 [s1 + 0x40]\n  2359: a4 = a4 + 0x1\n  2362: a0 = sp + 0xffffffffffffffe0\n  2365: a0 = a0 & 0xffffffffffffffe0\n  2368: sp = a0\n  2370: u64 [a0 + 24] = 0\n  2373: u64 [a0 + 16] = 0\n  2376: u64 [a0 + 8] = 0\n  2379: u64 [a0 + 0] = 0x3\n  2382: a1 = sp + 0xffffffffffffffe0\n  2385: a1 = a1 & 0xffffffffffffffe0\n  2388: sp = a1\n  2390: u64 [a1 + 0x18] = a5\n  2393: u64 [a1 + 0x10] = a3\n  2396: u64 [a1 + 0x8] = a2\n  2399: u64 [a1] = a4\n  2401: ra = 0x5e\n  2404: jump @1429\n      : @94 (gas: 4)\n  2407: a0 = s1 + 0x620\n  2411: a1 = u64 [s1 + 0xf0]\n  2415: u64 [s1 + 0x20] = a5\n  2418: ra = 80, jump @1424\n      : @95 [@dyn 40] (gas: 16)\n  2423: a5 = u64 [s1 + 0x20]\n  2426: a4 = u64 [s1 + 0x48]\n  2429: t1 = u64 [s1 + 0x28]\n  2432: a1 = u64 [s1 + 0x30]\n  2435: t0 = u64 [s1 + 0x38]\n  2438: a2 = u64 [s1 + 0x50]\n  2441: a3 = u64 [s1 + 0x60]\n  2444: a0 = u64 [s1 + 0x638]\n  2448: u64 [s1 + 0x108] = a0\n  2452: a0 = u64 [s1 + 0x630]\n  2456: u64 [s1 + 0x110] = a0\n  2460: a0 = u64 [s1 + 0x628]\n  2464: u64 [s1 + 0xf8] = a0\n  2468: a0 = u64 [s1 + 0x620]\n  2472: u64 [s1 + 0x100] = a0\n  2476: fallthrough\n      : @96 (gas: 7)\n  2477: a4 = a4 | a5\n  2480: u64 [s1 + 0xf0] = a4\n  2484: a0 = t1 | a1\n  2487: u64 [s1 + 0xe8] = a0\n  2491: a0 = t0 | a2\n  2494: u64 [s1 + 0xe0] = a0\n  2498: t0 = 82, jump @1414\n      : @97 [@dyn 41] (gas: 1)\n  2503: ra = 84, jump @1443\n      : @98 [@dyn 42] (gas: 7)\n  2508: u64 [s1 + 0xc0] = a0\n  2512: u64 [s1 + 0xd8] = a1\n  2516: a0 = u64 [s1 + 0x60]\n  2519: i32 a2 = a0 << 0x3\n  2522: a0 = 0xffffffffffffffff\n  2525: a1 = 0xffffffffffffffff\n  2528: ra = 86, jump @1448\n      : @99 [@dyn 43] (gas: 10)\n  2533: u64 [s1 + 0xd0] = a0\n  2537: u64 [s1 + 0xc8] = a1\n  2541: a1 = u64 [s1 + 0xc0]\n  2545: a0 = a0 | a1\n  2548: u64 [s1 + 0xc0] = a0\n  2552: a0 = u64 [s1 + 0x118]\n  2556: i32 a2 = a0 + 0xffffffffffffff80\n  2559: a0 = 0xffffffffffffffff\n  2562: a1 = 0xffffffffffffffff\n  2565: ra = 88, jump @1448\n      : @100 [@dyn 44] (gas: 12)\n  2570: a4 = u64 [s1 + 0x118]\n  2574: a2 = a4 <u 0x80\n  2578: a3 = u64 [s1 + 0xc0]\n  2582: a0 = a3 if a2 != 0\n  2585: a5 = u64 [s1 + 0xc8]\n  2589: a3 = u64 [s1 + 0xd8]\n  2593: a3 = a3 | a5\n  2596: a3 = a1 if a2 == 0\n  2599: a0 = 0xffffffffffffffff if a4 == 0\n  2602: a3 = 0xffffffffffffffff if a4 == 0\n  2605: a4 = u64 [s1 + 0xd0]\n  2609: t0 = 90, jump @1379\n      : @101 [@dyn 45] (gas: 2)\n  2614: a2 = u64 [s1 + 0x40]\n  2617: t0 = 92, jump @1387\n      : @102 [@dyn 46] (gas: 9)\n  2622: u64 [a0 + 0] = 0x3\n  2625: a1 = sp + 0xffffffffffffffe0\n  2628: a1 = a1 & 0xffffffffffffffe0\n  2631: sp = a1\n  2633: u64 [a1 + 0x18] = a5\n  2636: u64 [a1 + 0x10] = a4\n  2639: u64 [a1 + 0x8] = a3\n  2642: u64 [a1] = a2\n  2644: ra = 94, jump @1429\n      : @103 [@dyn 47] (gas: 3)\n  2649: a0 = s1 + 0x5c0\n  2653: a1 = u64 [s1 + 0xa0]\n  2657: ra = 96, jump @1424\n      : @104 [@dyn 48] (gas: 17)\n  2662: a0 = s1 + 0x500\n  2666: a3 = u64 [a0 + 0xd8]\n  2670: a1 = u64 [a0 + 0xd0]\n  2674: a2 = u64 [a0 + 0xc8]\n  2678: a0 = a3 >u 0\n  2680: a4 = a1 >u 0\n  2682: a4 = a0 if a3 != 0\n  2685: u64 [s1 + 0xb8] = a2\n  2689: a0 = a2 >u 0\n  2691: u64 [s1 + 0xc0] = a1\n  2695: u64 [s1 + 0xb0] = a3\n  2699: a1 = a1 | a3\n  2702: u64 [s1 + 0xd8] = a0\n  2706: u64 [s1 + 0xe0] = a4\n  2710: u64 [s1 + 0xf0] = a1\n  2714: a0 = a4 if a1 != 0\n  2717: jump @214 if a0 != 0\n      : @105 (gas: 3)\n  2721: a0 = u64 [s1 + 0x5c0]\n  2725: u64 [s1 + 0xc8] = a0\n  2729: t0 = 98, jump @1411\n      : @106 [@dyn 49] (gas: 2)\n  2734: a0 = s1 + 0x5a0\n  2738: ra = 100, jump @1428\n      : @107 [@dyn 50] (gas: 6)\n  2743: a4 = s1 + 0x500\n  2747: a0 = u64 [a4 + 0xb0]\n  2751: a1 = u64 [a4 + 0xa8]\n  2755: a2 = u64 [a4 + 0xa0]\n  2759: a3 = u64 [a4 + 0xb8]\n  2763: t0 = 102, jump @1378\n      : @108 [@dyn 51] (gas: 12)\n  2768: t0 = a2 <u 0x1\n  2771: ra = a1 & 0x7f\n  2774: t2 = a5 & a0\n  2777: a4 = a5 & t1\n  2780: ra = a1 if a2 != 0\n  2783: a1 = ra <u 0x20\n  2786: a5 = a5 & a3\n  2789: a2 = a1\n  2791: a2 = 0 if a4 != 0\n  2793: a0 = t2 | a5\n  2796: a2 = 0 if a0 != 0\n  2798: jump @220 if t0 != a2\n      : @109 (gas: 1)\n  2802: t0 = 104, jump @1389\n      : @110 [@dyn 52] (gas: 4)\n  2807: a0 = u64 [s1 + 0xc8]\n  2811: a0 = a0 <u 0x20\n  2814: u64 [s1 + 0xe8] = a0\n  2818: jump @120 if a3 == 0\n      : @111 (gas: 11)\n  2822: u64 [s1 + 0x110] = a4\n  2826: u64 [s1 + 0x118] = ra\n  2830: u64 [s1 + 0xf8] = a5\n  2834: u64 [s1 + 0x108] = t2\n  2838: u64 [s1 + 1432] = 0\n  2842: u64 [s1 + 1424] = 0\n  2846: u64 [s1 + 1416] = 0\n  2850: a1 = s1 + 0x580\n  2854: u64 [s1 + 1408] = 0x4\n  2859: a0 = 0\n  2861: ra = 106, jump @1426\n      : @112 [@dyn 53] (gas: 2)\n  2866: a1 = i32 [0x2026c]\n  2871: jump @114 if a1 >u 31\n      : @113 (gas: 4)\n  2875: a1 = 0x20\n  2878: u32 [0x2026c] = a1\n  2883: t0 = 0x6c\n  2886: jump @1419\n      : @114 (gas: 1)\n  2889: t0 = 108, jump @1419\n      : @115 [@dyn 54] (gas: 114)\n  2894: a0 = 0x20280\n  2899: i32 a0 = a0 + 0\n  2901: i32 a2 = a2 + 0\n  2903: a1 = 0x20\n  2906: ecalli 6 // 'hash_keccak_256'\n  2908: a1 = u64 [s1 + 0xc8]\n  2912: a0 = a1 + 0x1f\n  2915: a1 = a0 <u a1\n  2918: a4 = u64 [s1 + 0xb8]\n  2922: a2 = a4 + a1\n  2925: t0 = a2 <u a4\n  2928: t0 = a1 if a1 == 0\n  2931: a1 = u64 [s1 + 0xc0]\n  2935: a1 = a1 + t0\n  2938: u64 [s1 + 0xd0] = a1\n  2942: a1 = a1 << 0x3b\n  2945: a3 = a2 >> 0x5\n  2948: a5 = a3 | a1\n  2951: a1 = u64 [s1 + 0x100]\n  2955: t0 = u64 [a1 + 0x18]\n  2958: a2 = a2 << 0x3b\n  2961: a1 = u64 [a1 + 0x10]\n  2964: a0 = a0 >> 0x5\n  2967: a0 = a0 | a2\n  2970: ra = reverse t0\n  2972: t2 = reverse a1\n  2974: a3 = u64 [s1 + 0xe8]\n  2978: a3 = 0 if a4 != 0\n  2980: a1 = u64 [s1 + 0xf0]\n  2984: a3 = 0 if a1 != 0\n  2986: a5 = 0 if a3 != 0\n  2988: a0 = 0 if a3 != 0\n  2990: t0 = ra + a0\n  2993: a2 = t0 <u ra\n  2996: a1 = t2 + a2\n  2999: a1 = a1 + a5\n  3002: a5 = a1 ^ t2\n  3005: a0 = a1 <u t2\n  3008: a0 = a2 if a5 == 0\n  3011: u64 [s1 + 0xa8] = a0\n  3015: a2 = u64 [s1 + 0x118]\n  3019: a0 = a2 + 0x1f\n  3022: a5 = a0 <u a2\n  3025: a2 = u64 [s1 + 0x110]\n  3029: a4 = a2 + a5\n  3032: t1 = a4 <u a2\n  3035: t1 = a5 if a5 == 0\n  3038: a2 = u64 [s1 + 0x108]\n  3042: a2 = a2 + t1\n  3045: u64 [s1 + 0x58] = a2\n  3048: a5 = a2 << 0x3b\n  3051: a2 = a4 >> 0x5\n  3054: a2 = a2 | a5\n  3057: a4 = a4 << 0x3b\n  3060: a5 = a0 >> 0x5\n  3063: a4 = a4 | a5\n  3066: a4 = a4 + ra\n  3069: u64 [s1 + 0x118] = a4\n  3073: a5 = a4 <u ra\n  3076: a4 = t2 + a5\n  3079: a4 = a4 + a2\n  3082: a2 = a4 ^ t2\n  3085: u64 [s1 + 0x110] = a4\n  3089: a0 = a4 <u t2\n  3092: a0 = a5 if a2 == 0\n  3095: u64 [s1 + 0x60] = a0\n  3098: a5 = u64 [s1 + 0xd0]\n  3102: a0 = u64 [s1 + 0xc0]\n  3106: a2 = a5 <u a0\n  3109: a4 = u64 [s1 + 0xb0]\n  3113: a4 = a4 + a2\n  3116: a5 = a5 >> 0x5\n  3119: a2 = a4 << 0x3b\n  3122: a2 = a2 | a5\n  3125: a0 = u64 [s1 + 0x100]\n  3129: t2 = u64 [a0]\n  3131: a5 = u64 [a0 + 0x8]\n  3134: a4 = a4 >> 0x5\n  3137: a2 = 0 if a3 != 0\n  3139: a4 = 0 if a3 != 0\n  3141: a5 = reverse a5\n  3143: a0 = reverse t2\n  3145: a4 = a4 + a0\n  3148: a3 = a5 + a2\n  3151: a2 = a3 <u a5\n  3154: a4 = a4 + a2\n  3157: t1 = u64 [s1 + 0xa8]\n  3161: t1 = t1 + a3\n  3164: a3 = t1 <u a3\n  3167: t2 = a4 + a3\n  3170: a2 = u64 [s1 + 0x58]\n  3173: a3 = u64 [s1 + 0x108]\n  3177: a4 = a2 <u a3\n  3180: ra = u64 [s1 + 0xf8]\n  3184: ra = ra + a4\n  3187: a2 = a2 >> 0x5\n  3190: a4 = ra << 0x3b\n  3193: a2 = a2 | a4\n  3196: a4 = ra >> 0x5\n  3199: a4 = a4 + a0\n  3202: a2 = a2 + a5\n  3205: a5 = a2 <u a5\n  3208: a4 = a4 + a5\n  3211: a0 = u64 [s1 + 0x60]\n  3214: a0 = a0 + a2\n  3217: u64 [s1 + 0x108] = a0\n  3221: a5 = a0 <u a2\n  3224: a4 = a4 + a5\n  3227: u64 [s1 + 0x100] = a4\n  3231: a4 = sp + 0xffffffffffffffe0\n  3234: a0 = a4 & 0xffffffffffffffe0\n  3237: sp = a0\n  3239: u64 [s1 + 0xf8] = a0\n  3243: fallthrough\n      : @116 (gas: 5)\n  3244: u64 [a0] = t0\n  3246: u64 [a0 + 0x8] = a1\n  3249: a4 = u64 [s1 + 0x118]\n  3253: a3 = t0 <u a4\n  3256: t0 = 110, jump @1363\n      : @117 [@dyn 55] (gas: 1)\n  3261: jump @120 if a5 == 0\n      : @118 (gas: 8)\n  3264: a1 = sp + 0xffffffffffffffe0\n  3267: a1 = a1 & 0xffffffffffffffe0\n  3270: sp = a1\n  3272: u64 [a1 + 24] = 0\n  3275: u64 [a1 + 16] = 0\n  3278: u64 [a1 + 8] = 0\n  3281: u64 [a1 + 0] = 0\n  3283: ra = 112, jump @1429\n      : @119 [@dyn 56] (gas: 14)\n  3288: a0 = u64 [s1 + 0xf8]\n  3292: t0 = u64 [a0]\n  3294: a3 = u64 [a0 + 0x18]\n  3297: a1 = u64 [a0 + 0x8]\n  3300: a4 = u64 [a0 + 0x10]\n  3303: t0 = t0 + 0x1\n  3306: a2 = t0 <u 0x1\n  3309: a1 = a1 + a2\n  3312: a2 = t0 | a1\n  3315: a2 = a2 <u 0x1\n  3318: t1 = a4 + a2\n  3321: a4 = t1 <u a4\n  3324: t2 = a3 + a4\n  3327: jump @116\n      : @120 (gas: 9)\n  3329: a0 = u64 [s1 + 0xe8]\n  3333: a0 = a0 ^ 0x1\n  3336: a4 = u64 [s1 + 0xb8]\n  3340: a1 = u64 [s1 + 0xd8]\n  3344: a0 = a1 if a4 != 0\n  3347: a1 = u64 [s1 + 0xe0]\n  3351: a2 = u64 [s1 + 0xf0]\n  3355: a0 = a1 if a2 != 0\n  3358: jump @132 if a0 == 0\n      : @121 (gas: 10)\n  3362: a0 = u64 [s1 + 0xc8]\n  3366: a0 = a0 & 0xffffffffffffffe0\n  3369: u64 [s1 + 0xd0] = a0\n  3373: u64 [s1 + 1368] = 0\n  3377: u64 [s1 + 1360] = 0\n  3381: u64 [s1 + 1352] = 0\n  3385: a1 = s1 + 0x540\n  3389: u64 [s1 + 1344] = 0x4\n  3394: a0 = 0\n  3396: ra = 114, jump @1426\n      : @122 [@dyn 57] (gas: 7)\n  3401: a0 = sp + 0xffffffffffffffe0\n  3404: a0 = a0 & 0xffffffffffffffe0\n  3407: u64 [s1 + 0x110] = a0\n  3411: sp = a0\n  3413: a1 = 0x20\n  3416: a0 = 0\n  3418: ra = 116, jump @1436\n      : @123 [@dyn 58] (gas: 38)\n  3423: a1 = sp + 0xffffffffffffffe0\n  3426: a1 = a1 & 0xffffffffffffffe0\n  3429: u64 [s1 + 0x108] = a1\n  3433: sp = a1\n  3435: i32 a0 = a0 + 0\n  3437: i32 a2 = a1 + 0\n  3439: a1 = 0x20\n  3442: ecalli 6 // 'hash_keccak_256'\n  3444: ra = 0x20\n  3447: a0 = u64 [s1 + 0x108]\n  3451: t0 = u64 [a0]\n  3453: u64 [s1 + 280] = 0\n  3457: t1 = 0\n  3459: a5 = 0\n  3461: a4 = 0\n  3463: t2 = 0\n  3465: a2 = 0\n  3467: a3 = 0\n  3469: a1 = u64 [a0 + 0x8]\n  3472: u64 [s1 + 0x100] = a1\n  3476: a1 = a0\n  3478: a0 = reverse t0\n  3480: t0 = u64 [s1 + 0x110]\n  3484: u64 [t0 + 0x18] = a0\n  3487: a0 = u64 [a1 + 0x10]\n  3490: a1 = u64 [a1 + 0x18]\n  3493: u64 [s1 + 0x108] = a1\n  3497: a1 = u64 [s1 + 0x100]\n  3501: a1 = reverse a1\n  3503: u64 [t0 + 0x10] = a1\n  3506: a0 = reverse a0\n  3508: a1 = t0\n  3510: u64 [t0 + 0x8] = a0\n  3513: a0 = u64 [s1 + 0x108]\n  3517: a0 = reverse a0\n  3519: t0 = u64 [s1 + 0x118]\n  3523: u64 [a1] = a0\n  3525: fallthrough\n      : @124 (gas: 21)\n  3526: a0 = u64 [s1 + 0xd0]\n  3530: u64 [s1 + 0xf0] = a4\n  3534: a0 = a4 <u a0\n  3537: a4 = a0 ^ 0x1\n  3540: u64 [s1 + 0xe8] = t2\n  3544: a4 = 0x1 if t2 != 0\n  3547: u64 [s1 + 0x108] = a3\n  3551: u64 [s1 + 0x100] = a2\n  3555: a0 = a2 | a3\n  3558: a4 = 0x1 if a0 != 0\n  3561: a0 = u64 [s1 + 0xa0]\n  3565: a1 = a0 + ra\n  3568: a3 = u64 [s1 + 0x90]\n  3572: u64 [s1 + 0x118] = t0\n  3576: t0 = t0 + a3\n  3579: t2 = u64 [s1 + 0x98]\n  3583: u64 [s1 + 0xf8] = t1\n  3587: a2 = t2 + t1\n  3590: t1 = u64 [s1 + 0x88]\n  3594: t1 = t1 + a5\n  3597: jump @134 if a4 != 0\n      : @125 (gas: 8)\n  3601: u64 [s1 + 0xd8] = a5\n  3605: u64 [s1 + 0xe0] = ra\n  3609: ra = a1 <u a0\n  3612: a4 = t0 + ra\n  3615: t0 = a4 ^ a3\n  3618: a5 = a4 <u a3\n  3621: a5 = ra if t0 == 0\n  3624: t0 = 118, jump @1385\n      : @126 [@dyn 59] (gas: 1)\n  3629: jump @197 if a0 != 0\n      : @127 (gas: 2)\n  3633: a0 = s1 + 0x240\n  3637: ra = 120, jump @1424\n      : @128 [@dyn 60] (gas: 6)\n  3642: a1 = s1 + 0x200\n  3646: a0 = u64 [a1 + 0x40]\n  3649: a2 = u64 [a1 + 0x48]\n  3652: a3 = u64 [a1 + 0x50]\n  3655: a4 = u64 [a1 + 0x58]\n  3658: t0 = 122, jump @1410\n      : @129 [@dyn 61] (gas: 1)\n  3663: ra = 124, jump @1429\n      : @130 [@dyn 62] (gas: 2)\n  3668: a5 = u64 [s1 + 0x110]\n  3672: t0 = 126, jump @1376\n      : @131 [@dyn 63] (gas: 31)\n  3677: a0 = u64 [s1 + 0xe0]\n  3681: t0 = a0 + 0x20\n  3684: a1 = t0 <u a0\n  3687: a0 = u64 [s1 + 0x118]\n  3691: t1 = a0 + a1\n  3694: a3 = t1 <u a0\n  3697: a3 = a1 if a1 == 0\n  3700: a0 = u64 [s1 + 0xf8]\n  3704: t2 = a0 + a3\n  3707: a1 = t2 <u a0\n  3710: a5 = u64 [s1 + 0xd8]\n  3714: a5 = a5 + a1\n  3717: a0 = u64 [s1 + 0xf0]\n  3721: a1 = a0 + 0x20\n  3724: a4 = a1 <u a0\n  3727: a0 = u64 [s1 + 0xe8]\n  3731: a2 = a0 + a4\n  3734: a0 = a2 <u a0\n  3737: a0 = a4 if a4 == 0\n  3740: a3 = u64 [s1 + 0x100]\n  3744: a0 = a0 + a3\n  3747: a4 = a0 <u a3\n  3750: a3 = u64 [s1 + 0x108]\n  3754: a3 = a3 + a4\n  3757: ra = t0\n  3759: t0 = t1\n  3761: t1 = t2\n  3763: a4 = a1\n  3765: t2 = a2\n  3767: a2 = a0\n  3769: jump @124\n      : @132 (gas: 7)\n  3772: a3 = u64 [s1 + 0xc8]\n  3776: a2 = u64 [s1 + 0xc0]\n  3780: a0 = a3 | a2\n  3783: a5 = u64 [s1 + 0xb0]\n  3787: a1 = a4 | a5\n  3790: a0 = a0 | a1\n  3793: jump @148 if a0 != 0\n      : @133 (gas: 5)\n  3797: u64 [s1 + 256] = 0\n  3801: u64 [s1 + 248] = 0\n  3805: u64 [s1 + 272] = 0\n  3809: u64 [s1 + 264] = 0\n  3813: jump @150\n      : @134 (gas: 10)\n  3816: a4 = u64 [s1 + 0xd0]\n  3820: a5 = u64 [s1 + 0xc8]\n  3824: a4 = a4 ^ a5\n  3827: a5 = u64 [s1 + 0xc0]\n  3831: a4 = a4 | a5\n  3834: ra = u64 [s1 + 0xb8]\n  3838: a5 = u64 [s1 + 0xb0]\n  3842: a5 = ra | a5\n  3845: a4 = a4 | a5\n  3848: jump @147 if a4 == 0\n      : @135 (gas: 6)\n  3852: ra = a1 <u a0\n  3855: a4 = t0 + ra\n  3858: t0 = a4 ^ a3\n  3861: a5 = a4 <u a3\n  3864: a5 = ra if t0 == 0\n  3867: t0 = 128, jump @1385\n      : @136 [@dyn 64] (gas: 1)\n  3873: jump @197 if a0 != 0\n      : @137 (gas: 2)\n  3877: a0 = s1 + 0x520\n  3881: ra = 130, jump @1424\n      : @138 [@dyn 65] (gas: 11)\n  3887: a1 = s1 + 0x500\n  3891: a0 = u64 [a1 + 0x38]\n  3894: u64 [s1 + 0x108] = a0\n  3898: a0 = u64 [a1 + 0x30]\n  3901: u64 [s1 + 0x100] = a0\n  3905: a0 = u64 [a1 + 0x28]\n  3908: u64 [s1 + 0xf8] = a0\n  3912: a0 = u64 [a1 + 0x20]\n  3915: u64 [s1 + 0xf0] = a0\n  3919: a0 = u64 [s1 + 0xc8]\n  3923: t0 = 132, jump @1407\n      : @139 [@dyn 66] (gas: 1)\n  3929: ra = 134, jump @1443\n      : @140 [@dyn 67] (gas: 6)\n  3935: u64 [s1 + 0xe8] = a0\n  3939: u64 [s1 + 0xd0] = a1\n  3943: a0 = 0xffffffffffffffff\n  3946: a1 = 0xffffffffffffffff\n  3949: a2 = u64 [s1 + 0x118]\n  3953: ra = 136, jump @1448\n      : @141 [@dyn 68] (gas: 1)\n  3959: t0 = 138, jump @1406\n      : @142 [@dyn 69] (gas: 1)\n  3965: ra = 140, jump @1448\n      : @143 [@dyn 70] (gas: 1)\n  3971: t0 = 142, jump @1356\n      : @144 [@dyn 71] (gas: 3)\n  3977: a1 = u64 [s1 + 0x108]\n  3981: a4 = a1 & ~a4\n  3984: t0 = 144, jump @1410\n      : @145 [@dyn 72] (gas: 1)\n  3990: ra = 146, jump @1429\n      : @146 [@dyn 73] (gas: 2)\n  3996: ra = u64 [s1 + 0xb8]\n  4000: fallthrough\n      : @147 (gas: 30)\n  4001: a4 = u64 [s1 + 0xc8]\n  4005: a0 = a4 >> 0x3f\n  4008: a2 = ra << 0x1\n  4011: a2 = a2 | a0\n  4014: a0 = ra >> 0x3f\n  4017: a1 = u64 [s1 + 0xc0]\n  4021: a3 = a1 << 0x1\n  4024: a3 = a3 | a0\n  4027: a0 = a1 >> 0x3f\n  4030: a5 = u64 [s1 + 0xb0]\n  4034: a5 = a5 << 0x1\n  4037: a5 = a5 | a0\n  4040: a4 = a4 << 0x1\n  4043: a4 = a4 + 0x1\n  4046: a0 = sp + 0xffffffffffffffe0\n  4049: a0 = a0 & 0xffffffffffffffe0\n  4052: sp = a0\n  4054: u64 [a0 + 24] = 0\n  4057: u64 [a0 + 16] = 0\n  4060: u64 [a0 + 8] = 0\n  4063: u64 [a0 + 0] = 0x4\n  4066: a1 = sp + 0xffffffffffffffe0\n  4069: a1 = a1 & 0xffffffffffffffe0\n  4072: sp = a1\n  4074: u64 [a1 + 0x18] = a5\n  4077: u64 [a1 + 0x10] = a3\n  4080: u64 [a1 + 0x8] = a2\n  4083: u64 [a1] = a4\n  4085: ra = 0xa2\n  4089: jump @1429\n      : @148 (gas: 3)\n  4092: a0 = s1 + 0x560\n  4096: a1 = u64 [s1 + 0x18]\n  4099: ra = 148, jump @1424\n      : @149 [@dyn 74] (gas: 14)\n  4105: a5 = u64 [s1 + 0xb0]\n  4109: a4 = u64 [s1 + 0xb8]\n  4113: a2 = u64 [s1 + 0xc0]\n  4117: a3 = u64 [s1 + 0xc8]\n  4121: a1 = s1 + 0x500\n  4125: a0 = u64 [a1 + 0x78]\n  4128: u64 [s1 + 0x108] = a0\n  4132: a0 = u64 [a1 + 0x70]\n  4135: u64 [s1 + 0x110] = a0\n  4139: a0 = u64 [a1 + 0x68]\n  4142: u64 [s1 + 0xf8] = a0\n  4146: a0 = u64 [a1 + 0x60]\n  4149: u64 [s1 + 0x100] = a0\n  4153: fallthrough\n      : @150 (gas: 15)\n  4154: a0 = a2 >> 0x3f\n  4157: a1 = a5 << 0x1\n  4160: a0 = a0 | a1\n  4163: u64 [s1 + 0xf0] = a0\n  4167: a0 = a4 >> 0x3f\n  4170: a1 = a2 << 0x1\n  4173: a0 = a0 | a1\n  4176: u64 [s1 + 0xe8] = a0\n  4180: a0 = a3 >> 0x3f\n  4183: a1 = a4 << 0x1\n  4186: a0 = a0 | a1\n  4189: u64 [s1 + 0xe0] = a0\n  4193: a0 = a3 << 0x1\n  4196: u64 [s1 + 0xd8] = a0\n  4200: t0 = 150, jump @1414\n      : @151 [@dyn 75] (gas: 1)\n  4206: ra = 152, jump @1443\n      : @152 [@dyn 76] (gas: 7)\n  4212: u64 [s1 + 0xb8] = a0\n  4216: u64 [s1 + 0xd0] = a1\n  4220: a0 = u64 [s1 + 0xc8]\n  4224: i32 a2 = a0 << 0x3\n  4227: a0 = 0xffffffffffffffff\n  4230: a1 = 0xffffffffffffffff\n  4233: ra = 154, jump @1448\n      : @153 [@dyn 77] (gas: 10)\n  4239: u64 [s1 + 0xc8] = a0\n  4243: u64 [s1 + 0xc0] = a1\n  4247: a1 = u64 [s1 + 0xb8]\n  4251: a0 = a0 | a1\n  4254: u64 [s1 + 0xb8] = a0\n  4258: a0 = u64 [s1 + 0x118]\n  4262: i32 a2 = a0 + 0xffffffffffffff80\n  4265: a0 = 0xffffffffffffffff\n  4268: a1 = 0xffffffffffffffff\n  4271: ra = 156, jump @1448\n      : @154 [@dyn 78] (gas: 12)\n  4277: a4 = u64 [s1 + 0x118]\n  4281: a2 = a4 <u 0x80\n  4285: a3 = u64 [s1 + 0xb8]\n  4289: a0 = a3 if a2 != 0\n  4292: a5 = u64 [s1 + 0xc0]\n  4296: a3 = u64 [s1 + 0xd0]\n  4300: a3 = a3 | a5\n  4303: a3 = a1 if a2 == 0\n  4306: a0 = 0xffffffffffffffff if a4 == 0\n  4309: a3 = 0xffffffffffffffff if a4 == 0\n  4312: a4 = u64 [s1 + 0xc8]\n  4316: t0 = 158, jump @1379\n      : @155 [@dyn 79] (gas: 2)\n  4322: a2 = u64 [s1 + 0xd8]\n  4326: t0 = 160, jump @1387\n      : @156 [@dyn 80] (gas: 9)\n  4332: u64 [a0 + 0] = 0x4\n  4335: a1 = sp + 0xffffffffffffffe0\n  4338: a1 = a1 & 0xffffffffffffffe0\n  4341: sp = a1\n  4343: u64 [a1 + 0x18] = a5\n  4346: u64 [a1 + 0x10] = a4\n  4349: u64 [a1 + 0x8] = a3\n  4352: u64 [a1] = a2\n  4354: ra = 162, jump @1429\n      : @157 [@dyn 81] (gas: 9)\n  4360: a0 = 0x30280\n  4365: u64 [s1 + 0x118] = a0\n  4369: i32 a0 = a0 + 0\n  4371: u64 [s1 + 0x110] = a0\n  4375: ra = 0xa4\n  4379: ecalli 3 // 'caller'\n  4381: a2 = u64 [s1 + 0x118]\n  4385: t0 = 0xa6\n  4389: jump @1345\n      : @158 [@dyn 82] (gas: 2)\n  4392: a2 = u64 [s1 + 0x118]\n  4396: t0 = 166, jump @1345\n      : @159 [@dyn 83] (gas: 7)\n  4402: u64 [s1 + 1272] = 0\n  4406: u64 [s1 + 0x4f0] = a1\n  4410: u64 [s1 + 0x4e8] = a0\n  4414: a0 = s1 + 0x500\n  4418: a1 = s1 + 0x4e0\n  4422: u64 [s1 + 0x4e0] = a3\n  4426: ra = 168, jump @887\n      : @160 [@dyn 84] (gas: 6)\n  4432: a0 = u64 [s1 + 0x110]\n  4436: ra = 0xaa\n  4440: ecalli 3 // 'caller'\n  4442: a2 = u64 [s1 + 0x118]\n  4446: t0 = 0xac\n  4450: jump @1345\n      : @161 [@dyn 85] (gas: 2)\n  4453: a2 = u64 [s1 + 0x118]\n  4457: t0 = 172, jump @1345\n      : @162 [@dyn 86] (gas: 15)\n  4463: u64 [s1 + 1208] = 0\n  4467: u64 [s1 + 0x4b0] = a1\n  4471: u64 [s1 + 0x4a8] = a0\n  4475: a0 = s1 + 0x4c0\n  4479: a1 = s1 + 0x4a0\n  4483: u64 [s1 + 0x4a0] = a3\n  4487: ra = 0xae\n  4491: sp = sp + 0xfffffffffffffda0\n  4495: a2 = sp + 0x200\n  4499: u64 [a2 + 0x58] = ra\n  4502: u64 [a2 + 0x50] = s0\n  4505: u64 [a2 + 0x48] = s1\n  4508: s0 = sp + 0x260\n  4512: t0 = 0x3b0\n  4516: jump @1421\n      : @163 [@dyn 87] (gas: 6)\n  4519: a0 = u64 [s1 + 0x110]\n  4523: ra = 0xb0\n  4527: ecalli 3 // 'caller'\n  4529: a2 = u64 [s1 + 0x118]\n  4533: t0 = 0xb2\n  4537: jump @1345\n      : @164 [@dyn 88] (gas: 2)\n  4540: a2 = u64 [s1 + 0x118]\n  4544: t0 = 178, jump @1345\n      : @165 [@dyn 89] (gas: 16)\n  4550: u64 [s1 + 1144] = 0\n  4554: a2 = s1 + 0x400\n  4558: u64 [a2 + 0x70] = a1\n  4561: u64 [a2 + 0x68] = a0\n  4564: a0 = s1 + 0x480\n  4568: a1 = s1 + 0x460\n  4572: u64 [a2 + 0x60] = a3\n  4575: ra = 0xb4\n  4579: sp = sp + 0xfffffffffffffda0\n  4583: a2 = sp + 0x200\n  4587: u64 [a2 + 0x58] = ra\n  4590: u64 [a2 + 0x50] = s0\n  4593: u64 [a2 + 0x48] = s1\n  4596: s0 = sp + 0x260\n  4600: t0 = 0x3f6\n  4604: jump @1421\n      : @166 [@dyn 90] (gas: 3)\n  4607: a0 = u64 [s1 + 0x110]\n  4611: ecalli 3 // 'caller'\n  4613: fallthrough\n      : @167 (gas: 7)\n  4614: a2 = u64 [s1 + 0x118]\n  4618: a0 = u32 [a2 + 0x10]\n  4621: a1 = u64 [a2]\n  4623: a2 = u64 [a2 + 0x8]\n  4626: a0 = a0 | a1\n  4629: a0 = a0 | a2\n  4632: jump @226 if a0 == 0\n      : @168 (gas: 9)\n  4636: a1 = sp + 0xffffffffffffffe0\n  4639: a1 = a1 & 0xffffffffffffffe0\n  4642: sp = a1\n  4644: u64 [a1 + 24] = 0\n  4647: u64 [a1 + 16] = 0\n  4650: u64 [a1 + 8] = 0\n  4653: u64 [a1 + 0] = 0x5\n  4656: a0 = s1 + 0x440\n  4660: ra = 182, jump @1428\n      : @169 [@dyn 91] (gas: 2)\n  4666: a0 = u8 [s1 + 0x440]\n  4670: jump @231 if a0 != 0\n      : @170 (gas: 1)\n  4674: t0 = 184, jump @1382\n      : @171 [@dyn 92] (gas: 2)\n  4680: a0 = s1 + 0x400\n  4684: ra = 186, jump @1428\n      : @172 [@dyn 93] (gas: 43)\n  4690: t2 = u64 [s1 + 0x418]\n  4694: t1 = u64 [s1 + 0x410]\n  4698: ra = u64 [s1 + 0x400]\n  4702: u64 [s1 + 0x108] = ra\n  4706: a5 = u64 [s1 + 0x408]\n  4710: a1 = sp + 0xffffffffffffffe0\n  4713: a1 = a1 & 0xffffffffffffffe0\n  4716: sp = a1\n  4718: a2 = u64 [s1 + 0x70]\n  4721: a4 = a2 + a5\n  4724: a0 = u64 [s1 + 0x68]\n  4727: ra = ra + a0\n  4730: a0 = ra <u a0\n  4733: a4 = a4 + a0\n  4736: a3 = a4 ^ a2\n  4739: a2 = a4 <u a2\n  4742: a2 = a0 if a3 == 0\n  4745: t0 = u64 [s1 + 0x78]\n  4748: a0 = t0 + t1\n  4751: a3 = u64 [s1 + 0x80]\n  4755: a3 = a3 + t2\n  4758: t0 = a0 <u t0\n  4761: a3 = a3 + t0\n  4764: a2 = a2 + a0\n  4767: a0 = a2 <u a0\n  4770: t0 = a3 + a0\n  4773: a0 = a5 ^ a4\n  4776: a5 = a4 <u a5\n  4779: a3 = u64 [s1 + 0x108]\n  4783: a3 = ra <u a3\n  4786: a3 = a5 if a0 != 0\n  4789: a0 = a2 <u t1\n  4792: a5 = t2 ^ t0\n  4795: t2 = t0 <u t2\n  4798: t2 = a0 if a5 == 0\n  4801: a0 = t1 ^ a2\n  4804: a0 = a0 | a5\n  4807: a3 = t2 if a0 != 0\n  4810: u64 [a1 + 0x10] = a2\n  4813: u64 [a1 + 0x8] = a4\n  4816: u64 [a1] = ra\n  4818: u64 [a1 + 0x18] = t0\n  4821: jump @235 if a3 != 0\n      : @173 (gas: 1)\n  4825: t0 = 188, jump @1417\n      : @174 [@dyn 94] (gas: 1)\n  4831: ra = 190, jump @1429\n      : @175 [@dyn 95] (gas: 6)\n  4837: a0 = u64 [s1 + 0x110]\n  4841: ra = 0xc0\n  4845: ecalli 3 // 'caller'\n  4847: a2 = u64 [s1 + 0x118]\n  4851: t0 = 0xc2\n  4855: jump @1345\n      : @176 [@dyn 96] (gas: 2)\n  4858: a2 = u64 [s1 + 0x118]\n  4862: t0 = 194, jump @1345\n      : @177 [@dyn 97] (gas: 8)\n  4868: u64 [s1 + 1016] = 0\n  4872: a2 = s1 + 0x300\n  4876: u64 [a2 + 0xf0] = a1\n  4880: u64 [a2 + 0xe8] = a0\n  4884: a1 = s1 + 0x3e0\n  4888: u64 [a2 + 0xe0] = a3\n  4892: a0 = 0\n  4894: ra = 196, jump @1426\n      : @178 [@dyn 98] (gas: 7)\n  4900: u64 [s1 + 984] = 0\n  4904: u64 [s1 + 976] = 0\n  4908: u64 [s1 + 968] = 0\n  4912: a0 = 0x20\n  4915: a1 = s1 + 0x3c0\n  4919: u64 [s1 + 960] = 0\n  4923: ra = 198, jump @1426\n      : @179 [@dyn 99] (gas: 6)\n  4929: a0 = sp + 0xffffffffffffffe0\n  4932: a0 = a0 & 0xffffffffffffffe0\n  4935: u64 [s1 + 0x108] = a0\n  4939: sp = a0\n  4941: a1 = i32 [0x2026c]\n  4946: jump @181 if a1 >u 63\n      : @180 (gas: 4)\n  4950: a1 = 0x40\n  4953: u32 [0x2026c] = a1\n  4958: t0 = 0xc8\n  4962: jump @1419\n      : @181 (gas: 1)\n  4965: t0 = 200, jump @1419\n      : @182 [@dyn 100] (gas: 10)\n  4971: a0 = 0x20280\n  4976: u64 [s1 + 0xf8] = a0\n  4980: i32 a0 = a0 + 0\n  4982: i32 a2 = a2 + 0\n  4984: a1 = 0x40\n  4987: ra = 0xca\n  4991: ecalli 6 // 'hash_keccak_256'\n  4993: a3 = u64 [s1 + 0x100]\n  4997: t0 = 0xcc\n  5001: jump @1351\n      : @183 [@dyn 101] (gas: 2)\n  5004: a3 = u64 [s1 + 0x100]\n  5008: t0 = 204, jump @1351\n      : @184 [@dyn 102] (gas: 7)\n  5014: a1 = u64 [s1 + 0x108]\n  5018: u64 [a1 + 0x18] = a3\n  5021: u64 [a1 + 0x10] = a2\n  5024: u64 [a1 + 0x8] = a4\n  5027: u64 [a1] = a0\n  5029: a0 = s1 + 0x3a0\n  5033: ra = 206, jump @1428\n      : @185 [@dyn 103] (gas: 20)\n  5039: a1 = u64 [s1 + 0x3a8]\n  5043: a2 = u64 [s1 + 0x3a0]\n  5047: t0 = u64 [s1 + 0x3b8]\n  5051: a4 = u64 [s1 + 0x3b0]\n  5055: a5 = u64 [s1 + 0x70]\n  5058: a5 = a5 + a1\n  5061: a0 = u64 [s1 + 0x68]\n  5064: a0 = a0 + a2\n  5067: a2 = a0 <u a2\n  5070: a5 = a5 + a2\n  5073: a3 = a5 ^ a1\n  5076: a1 = a5 <u a1\n  5079: a1 = a2 if a3 == 0\n  5082: a2 = u64 [s1 + 0x78]\n  5085: a2 = a2 + a4\n  5088: a3 = u64 [s1 + 0x80]\n  5092: t0 = t0 + a3\n  5095: a3 = a2 <u a4\n  5098: a3 = a3 + t0\n  5101: t0 = 208, jump @1371\n      : @186 [@dyn 104] (gas: 2)\n  5107: a0 = u64 [s1 + 0x108]\n  5111: ra = 210, jump @1429\n      : @187 [@dyn 105] (gas: 3)\n  5117: a0 = s1 + 0x380\n  5121: a1 = 0x40\n  5124: ra = 212, jump @1424\n      : @188 [@dyn 106] (gas: 6)\n  5130: a4 = s1 + 0x300\n  5134: a3 = u64 [a4 + 0x98]\n  5138: a1 = u64 [a4 + 0x90]\n  5142: a2 = u64 [a4 + 0x88]\n  5146: a0 = u64 [a4 + 0x80]\n  5150: t0 = 214, jump @1365\n      : @189 [@dyn 107] (gas: 1)\n  5156: jump @197 if a1 != 0\n      : @190 (gas: 11)\n  5160: a1 = u64 [s1 + 0x68]\n  5163: u64 [s1 + 0x360] = a1\n  5167: a1 = u64 [s1 + 0x70]\n  5170: u64 [s1 + 0x368] = a1\n  5174: a1 = u64 [s1 + 0x78]\n  5177: u64 [s1 + 0x370] = a1\n  5181: a1 = s1 + 0x360\n  5185: a2 = u64 [s1 + 0x80]\n  5189: u64 [s1 + 0x378] = a2\n  5193: u64 [s1 + 0x108] = a0\n  5197: ra = 216, jump @1426\n      : @191 [@dyn 108] (gas: 6)\n  5203: a0 = u64 [s1 + 0x110]\n  5207: ra = 0xda\n  5211: ecalli 3 // 'caller'\n  5213: a2 = u64 [s1 + 0x118]\n  5217: t0 = 0xdc\n  5221: jump @1349\n      : @192 [@dyn 109] (gas: 2)\n  5224: a2 = u64 [s1 + 0x118]\n  5228: t0 = 220, jump @1349\n      : @193 [@dyn 110] (gas: 29)\n  5234: t0 = a1 | a0\n  5237: a3 = a3 >> 0x20\n  5240: a2 = reverse a2\n  5242: a1 = a2 << 0x20\n  5245: a1 = a1 | a3\n  5248: a2 = a2 >> 0x20\n  5251: u64 [s1 + 792] = 0\n  5255: u64 [s1 + 824] = 0\n  5259: u64 [s1 + 816] = 0\n  5263: u64 [s1 + 808] = 0\n  5267: u64 [s1 + 800] = 0\n  5271: a3 = u64 [0x20008]\n  5276: a4 = u64 [0x20010]\n  5281: a5 = u64 [0x20018]\n  5286: a0 = u64 [0x20020]\n  5291: u64 [s1 + 0x358] = a3\n  5295: a3 = s1 + 0x300\n  5299: u64 [a3 + 0x50] = a4\n  5302: u64 [a3 + 0x48] = a5\n  5305: u64 [a3 + 0x40] = a0\n  5308: u64 [a3 + 0x10] = a2\n  5311: u64 [a3 + 0x8] = a1\n  5314: a1 = 0x20\n  5317: a2 = s1 + 0x340\n  5321: a3 = s1 + 0x320\n  5325: a4 = s1 + 0x300\n  5329: u64 [s1 + 0x300] = t0\n  5333: a0 = u64 [s1 + 0x108]\n  5337: ra = 222, jump @1432\n      : @194 [@dyn 111] (gas: 3)\n  5343: a0 = s1 + 0x2e0\n  5347: a1 = 0x40\n  5350: ra = 224, jump @1424\n      : @195 [@dyn 112] (gas: 6)\n  5356: a4 = s1 + 0x200\n  5360: a0 = u64 [a4 + 0xf8]\n  5364: a1 = u64 [a4 + 0xf0]\n  5368: a2 = u64 [a4 + 0xe8]\n  5372: a3 = u64 [a4 + 0xe0]\n  5376: t0 = 226, jump @1383\n      : @196 [@dyn 113] (gas: 1)\n  5382: jump @242 if a0 == 0\n      : @197 (gas: 1)\n  5386: trap\n      : @198 (gas: 4)\n  5387: a1 = 0x20280\n  5392: i32 a1 = a1 + 0\n  5394: a0 = 0x1\n  5397: jump @200\n      : @199 (gas: 4)\n  5399: a1 = 0x20280\n  5404: i32 a1 = a1 + 0\n  5406: a0 = 0x1\n  5409: fallthrough\n      : @200 (gas: 5)\n  5410: a2 = 0\n  5412: ra = 0xe4\n  5416: ecalli 7 // 'seal_return'\n  5418: t0 = 0xe6\n  5422: jump @1384\n      : @201 [@dyn 114] (gas: 1)\n  5425: t0 = 230, jump @1384\n      : @202 [@dyn 115] (gas: 1)\n  5431: ra = 232, jump @1426\n      : @203 [@dyn 116] (gas: 1)\n  5437: t0 = 234, jump @1395\n      : @204 [@dyn 117] (gas: 1)\n  5443: ra = 236, jump @1426\n      : @205 [@dyn 118] (gas: 2)\n  5449: a1 = i32 [0x2026c]\n  5454: jump @207 if a1 >u 63\n      : @206 (gas: 3)\n  5458: u32 [0x2026c] = 0x40\n  5464: a1 = 0x20280\n  5469: jump @241\n      : @207 (gas: 2)\n  5472: a1 = 0x20280\n  5477: jump @241\n      : @208 (gas: 6)\n  5480: u64 [s1 + 400] = 0\n  5484: u64 [s1 + 392] = 0\n  5488: u64 [s1 + 384] = 0\n  5492: t0 = 0xee\n  5496: a0 = 0x4e487b7100000000\n  5506: fallthrough\n      : @209 [@dyn 119] (gas: 4)\n  5507: a1 = s1 + 0x180\n  5511: u64 [s1 + 0x198] = a0\n  5515: a0 = 0\n  5517: ra = 240, jump @1426\n      : @210 [@dyn 120] (gas: 7)\n  5523: u64 [s1 + 376] = 0\n  5527: u64 [s1 + 368] = 0\n  5531: u64 [s1 + 352] = 0x22\n  5536: a0 = 0x4\n  5539: a1 = s1 + 0x160\n  5543: u64 [s1 + 360] = 0\n  5547: ra = 242, jump @1426\n      : @211 [@dyn 121] (gas: 2)\n  5553: a1 = i32 [0x2026c]\n  5558: jump @213 if a1 >u 63\n      : @212 (gas: 3)\n  5562: u32 [0x2026c] = 0x40\n  5568: a1 = 0x20280\n  5573: jump @241\n      : @213 (gas: 2)\n  5576: a1 = 0x20280\n  5581: jump @241\n      : @214 (gas: 6)\n  5584: u64 [s1 + 496] = 0\n  5588: u64 [s1 + 488] = 0\n  5592: u64 [s1 + 480] = 0\n  5596: t0 = 0xf4\n  5600: a0 = 0x4e487b7100000000\n  5610: fallthrough\n      : @215 [@dyn 122] (gas: 4)\n  5611: a1 = s1 + 0x1e0\n  5615: u64 [s1 + 0x1f8] = a0\n  5619: a0 = 0\n  5621: ra = 246, jump @1426\n      : @216 [@dyn 123] (gas: 7)\n  5627: u64 [s1 + 472] = 0\n  5631: u64 [s1 + 464] = 0\n  5635: u64 [s1 + 448] = 0x41\n  5640: a0 = 0x4\n  5643: a1 = s1 + 0x1c0\n  5647: u64 [s1 + 456] = 0\n  5651: ra = 248, jump @1426\n      : @217 [@dyn 124] (gas: 2)\n  5657: a1 = i32 [0x2026c]\n  5662: jump @219 if a1 >u 63\n      : @218 (gas: 3)\n  5666: u32 [0x2026c] = 0x40\n  5672: a1 = 0x20280\n  5677: jump @241\n      : @219 (gas: 2)\n  5680: a1 = 0x20280\n  5685: jump @241\n      : @220 (gas: 6)\n  5688: u64 [s1 + 560] = 0\n  5692: u64 [s1 + 552] = 0\n  5696: u64 [s1 + 544] = 0\n  5700: t0 = 0xfa\n  5704: a0 = 0x4e487b7100000000\n  5714: fallthrough\n      : @221 [@dyn 125] (gas: 4)\n  5715: a1 = s1 + 0x220\n  5719: u64 [s1 + 0x238] = a0\n  5723: a0 = 0\n  5725: ra = 252, jump @1426\n      : @222 [@dyn 126] (gas: 7)\n  5731: u64 [s1 + 536] = 0\n  5735: u64 [s1 + 528] = 0\n  5739: u64 [s1 + 512] = 0x22\n  5744: a0 = 0x4\n  5747: a1 = s1 + 0x200\n  5751: u64 [s1 + 520] = 0\n  5755: ra = 254, jump @1426\n      : @223 [@dyn 127] (gas: 2)\n  5761: a1 = i32 [0x2026c]\n  5766: jump @225 if a1 >u 63\n      : @224 (gas: 3)\n  5770: u32 [0x2026c] = 0x40\n  5776: a1 = 0x20280\n  5781: jump @241\n      : @225 (gas: 2)\n  5784: a1 = 0x20280\n  5789: jump @241\n      : @226 (gas: 8)\n  5792: u64 [s1 + 656] = 0\n  5796: u64 [s1 + 648] = 0\n  5800: u64 [s1 + 640] = 0\n  5804: a0 = 0xec442f0500000000\n  5814: a1 = s1 + 0x280\n  5818: u64 [s1 + 0x298] = a0\n  5822: a0 = 0\n  5824: ra = 256, jump @1426\n      : @227 [@dyn 128] (gas: 7)\n  5830: u64 [s1 + 632] = 0\n  5834: u64 [s1 + 624] = 0\n  5838: u64 [s1 + 616] = 0\n  5842: a0 = 0x4\n  5845: a1 = s1 + 0x260\n  5849: u64 [s1 + 608] = 0\n  5853: ra = 258, jump @1426\n      : @228 [@dyn 129] (gas: 2)\n  5859: a1 = i32 [0x2026c]\n  5864: jump @230 if a1 >u 63\n      : @229 (gas: 3)\n  5868: u32 [0x2026c] = 0x40\n  5874: a1 = 0x20280\n  5879: jump @241\n      : @230 (gas: 2)\n  5882: a1 = 0x20280\n  5887: jump @241\n      : @231 (gas: 8)\n  5890: u64 [s1 + 1072] = 0\n  5894: u64 [s1 + 1064] = 0\n  5898: u64 [s1 + 1056] = 0\n  5902: a0 = 0xd93c066500000000\n  5912: a1 = s1 + 0x420\n  5916: u64 [s1 + 0x438] = a0\n  5920: a0 = 0\n  5922: ra = 260, jump @1426\n      : @232 [@dyn 130] (gas: 2)\n  5928: a1 = i32 [0x2026c]\n  5933: jump @234 if a1 >u 31\n      : @233 (gas: 2)\n  5937: u32 [0x2026c] = 0x20\n  5943: fallthrough\n      : @234 (gas: 6)\n  5944: a1 = 0x20280\n  5949: i32 a1 = a1 + 0\n  5951: a0 = 0x1\n  5954: a2 = 0x4\n  5957: ecalli 7 // 'seal_return'\n  5959: fallthrough\n      : @235 (gas: 6)\n  5960: u64 [s1 + 720] = 0\n  5964: u64 [s1 + 712] = 0\n  5968: u64 [s1 + 704] = 0\n  5972: t0 = 0x106\n  5976: a0 = 0x4e487b7100000000\n  5986: fallthrough\n      : @236 [@dyn 131] (gas: 4)\n  5987: a1 = s1 + 0x2c0\n  5991: u64 [s1 + 0x2d8] = a0\n  5995: a0 = 0\n  5997: ra = 264, jump @1426\n      : @237 [@dyn 132] (gas: 7)\n  6003: u64 [s1 + 696] = 0\n  6007: u64 [s1 + 688] = 0\n  6011: u64 [s1 + 672] = 0x11\n  6016: a0 = 0x4\n  6019: a1 = s1 + 0x2a0\n  6023: u64 [s1 + 680] = 0\n  6027: ra = 266, jump @1426\n      : @238 [@dyn 133] (gas: 2)\n  6033: a1 = i32 [0x2026c]\n  6038: jump @240 if a1 >u 63\n      : @239 (gas: 3)\n  6042: u32 [0x2026c] = 0x40\n  6048: a1 = 0x20280\n  6053: jump @241\n      : @240 (gas: 2)\n  6055: a1 = 0x20280\n  6060: fallthrough\n      : @241 (gas: 5)\n  6061: i32 a1 = a1 + 0\n  6063: a0 = 0x1\n  6066: a2 = 0x24\n  6069: ecalli 7 // 'seal_return'\n  6071: fallthrough\n      : @242 (gas: 7)\n  6072: a0 = u64 [s1 + 0xf8]\n  6076: i32 a0 = a0 + a3\n  6079: a1 = 0\n  6081: a2 = 0\n  6083: u64 [s1 + 0x118] = a3\n  6087: ecalli 0 // 'call_data_copy'\n  6088: jump @1422\n      : @243 (gas: 3)\n  6091: a0 = u64 [s1 + 0x118]\n  6095: a1 = 0\n  6097: ra = 268, jump @1436\n      : @244 [@dyn 134] (gas: 3)\n  6103: i32 a1 = a0 + 0\n  6105: a0 = 0\n  6107: jump @200\n      : @245 [@dyn 135] (gas: 4)\n  6110: a0 = 0x20268\n  6115: u64 [s1 + 0xb8] = a0\n  6119: a0 = i32 [0x20268]\n  6124: jump @247 if a0 >=u 4\n      : @246 (gas: 1)\n  6128: jump @833\n      : @247 (gas: 9)\n  6131: a0 = sp + 0xffffffffffffffe0\n  6134: a0 = a0 & 0xffffffffffffffe0\n  6137: u64 [s1 + 0xb0] = a0\n  6141: sp = a0\n  6143: i32 a0 = a0 + 0\n  6145: a1 = 0\n  6147: ra = 0x110\n  6151: ecalli 1 // 'call_data_load'\n  6153: fallthrough\n      : @248 [@dyn 136] (gas: 3)\n  6154: a0 = u64 [s1 + 0xb0]\n  6158: a0 = i32 [a0 + 0x1c]\n  6161: jump @250 if a0 != 2220280665\n      : @249 (gas: 1)\n  6168: jump @551\n      : @250 (gas: 1)\n  6171: jump @289 if a0 == 2446411860\n      : @251 (gas: 1)\n  6179: jump @253 if a0 != 2514000705\n      : @252 (gas: 1)\n  6186: jump @462\n      : @253 (gas: 1)\n  6189: jump @316 if a0 == 2719481311\n      : @254 (gas: 1)\n  6197: jump @256 if a0 != 2835717307\n      : @255 (gas: 1)\n  6204: jump @585\n      : @256 (gas: 1)\n  6207: jump @367 if a0 == 3577287571\n      : @257 (gas: 1)\n  6215: jump @328 if a0 == 3714247998\n      : @258 (gas: 1)\n  6223: jump @260 if a0 != 3862606313\n      : @259 (gas: 1)\n  6230: jump @619\n      : @260 (gas: 1)\n  6233: jump @379 if a0 == 117300739\n      : @261 (gas: 1)\n  6241: jump @263 if a0 != 157198259\n      : @262 (gas: 1)\n  6248: jump @628\n      : @263 (gas: 1)\n  6251: jump @265 if a0 != 404098525\n      : @264 (gas: 1)\n  6258: jump @517\n      : @265 (gas: 1)\n  6261: jump @267 if a0 != 599290589\n      : @266 (gas: 1)\n  6268: jump @602\n      : @267 (gas: 1)\n  6271: jump @269 if a0 != 613063843\n      : @268 (gas: 1)\n  6278: jump @573\n      : @269 (gas: 1)\n  6281: jump @355 if a0 == 826074471\n      : @270 (gas: 1)\n  6289: jump @272 if a0 != 1061922874\n      : @271 (gas: 1)\n  6296: jump @495\n      : @272 (gas: 1)\n  6299: jump @410 if a0 == 1086394137\n      : @273 (gas: 1)\n  6307: jump @275 if a0 == 1553423035\n      : @274 (gas: 1)\n  6314: jump @530\n      : @275 (gas: 1)\n  6317: t0 = 274, jump @1341\n      : @276 [@dyn 137] (gas: 4)\n  6323: ra = 0x114\n  6327: ecalli 10 // 'value_transferred'\n  6329: t0 = 0x116\n  6333: jump @1342\n      : @277 [@dyn 138] (gas: 1)\n  6336: t0 = 278, jump @1342\n      : @278 [@dyn 139] (gas: 1)\n  6342: jump @280 if a0 == 0\n      : @279 (gas: 1)\n  6345: jump @683\n      : @280 (gas: 3)\n  6348: a0 = u64 [s1 + 0xb8]\n  6352: a0 = i32 [a0]\n  6354: jump @282 if a0 >u 3\n      : @281 (gas: 1)\n  6358: jump @684\n      : @282 (gas: 1)\n  6361: t0 = 280, jump @1398\n      : @283 [@dyn 140] (gas: 2)\n  6367: a0 = a0 + 0x481\n  6371: ra = 282, jump @1428\n      : @284 [@dyn 141] (gas: 8)\n  6377: a0 = s1 + 0x7ff\n  6381: a0 = a0 + 0x39\n  6384: a0 = u64 [a0 + 0x448]\n  6388: u64 [s1 + 0xb8] = a0\n  6392: a0 = s1 + 0x7ff\n  6396: a0 = a0 + 0x461\n  6400: a1 = 0x40\n  6403: ra = 284, jump @1424\n      : @285 [@dyn 142] (gas: 8)\n  6409: a3 = s1 + 0x7ff\n  6413: a3 = a3 + 0x39\n  6416: a5 = a3 + 0x400\n  6420: a4 = u64 [a5 + 0x40]\n  6423: a1 = u64 [a5 + 0x38]\n  6426: a2 = u64 [a5 + 0x30]\n  6429: a0 = u64 [a5 + 0x28]\n  6432: t0 = 286, jump @1364\n      : @286 [@dyn 143] (gas: 1)\n  6438: jump @288 if a1 == 0\n      : @287 (gas: 1)\n  6441: jump @660\n      : @288 (gas: 11)\n  6444: a1 = u8 [s1 + 0xb8]\n  6448: a1 = a1 >u 0\n  6450: u64 [a3 + 1056] = 0\n  6454: u64 [a3 + 1048] = 0\n  6458: u64 [a3 + 0x408] = a1\n  6462: a1 = s1 + 0x7ff\n  6466: a1 = a1 + 0x441\n  6470: u64 [a3 + 1040] = 0\n  6474: u64 [s1 + 0xb8] = a0\n  6478: ra = 0x30c\n  6482: jump @1426\n      : @289 (gas: 1)\n  6485: t0 = 288, jump @1341\n      : @290 [@dyn 144] (gas: 4)\n  6491: ra = 0x122\n  6495: ecalli 10 // 'value_transferred'\n  6497: t0 = 0x124\n  6501: jump @1342\n      : @291 [@dyn 145] (gas: 1)\n  6504: t0 = 292, jump @1342\n      : @292 [@dyn 146] (gas: 1)\n  6510: jump @294 if a0 == 0\n      : @293 (gas: 1)\n  6513: jump @685\n      : @294 (gas: 4)\n  6516: a0 = u64 [s1 + 0xb8]\n  6520: a0 = i32 [a0]\n  6522: a1 = 0x43\n  6525: jump @296 if a1 <u a0\n      : @295 (gas: 1)\n  6528: jump @686\n      : @296 (gas: 5)\n  6531: a0 = s1 + 0x7ff\n  6535: a0 = a0 + 0x781\n  6539: ra = 0x126\n  6543: t0 = 0x454\n  6547: jump @1420\n      : @297 [@dyn 147] (gas: 10)\n  6550: a1 = s1 + 0x7ff\n  6554: a1 = a1 + 0x39\n  6557: a2 = a1 + 0x700\n  6561: a0 = u64 [a2 + 0x58]\n  6564: u64 [s1 + 0xa8] = a0\n  6568: a0 = u64 [a2 + 0x50]\n  6571: u64 [s1 + 0xb0] = a0\n  6575: a0 = u64 [a2 + 0x48]\n  6578: u64 [s1 + 0xb8] = a0\n  6582: t0 = 296, jump @1396\n      : @298 [@dyn 148] (gas: 17)\n  6588: ecalli 1 // 'call_data_load'\n  6590: a3 = u64 [s1 + 0xa0]\n  6594: a0 = u64 [a3]\n  6596: a1 = u64 [a3 + 0x8]\n  6599: a2 = u64 [a3 + 0x10]\n  6602: a3 = u64 [a3 + 0x18]\n  6605: a4 = s1 + 0x7ff\n  6609: a4 = a4 + 0x39\n  6612: a5 = a4 + 0x700\n  6616: u64 [a5 + 0x40] = a3\n  6619: u64 [a5 + 0x38] = a2\n  6622: u64 [a5 + 0x30] = a1\n  6625: a1 = s1 + 0x7ff\n  6629: a1 = a1 + 0x761\n  6633: u64 [a5 + 0x28] = a0\n  6636: a0 = 0\n  6638: ra = 298, jump @1426\n      : @299 [@dyn 149] (gas: 11)\n  6644: a1 = s1 + 0x7ff\n  6648: a1 = a1 + 0x39\n  6651: u64 [a1 + 1824] = 0\n  6655: u64 [a1 + 1816] = 0\n  6659: u64 [a1 + 1800] = 0x6\n  6664: a2 = a1\n  6666: a0 = 0x20\n  6669: a1 = s1 + 0x7ff\n  6673: a1 = a1 + 0x741\n  6677: u64 [a2 + 1808] = 0\n  6681: ra = 300, jump @1426\n      : @300 [@dyn 150] (gas: 3)\n  6687: a1 = 0x2026c\n  6692: a0 = i32 [0x2026c]\n  6697: jump @302 if a0 >u 63\n      : @301 (gas: 2)\n  6701: u32 [0x2026c] = 0x40\n  6707: fallthrough\n      : @302 (gas: 15)\n  6708: a0 = sp + 0xffffffffffffffe0\n  6711: a2 = a0 & 0xffffffffffffffe0\n  6714: u64 [s1 + 0x90] = a2\n  6718: sp = a2\n  6720: a0 = 0x20280\n  6725: i32 a0 = a0 + 0\n  6727: i32 a2 = a2 + 0\n  6729: u64 [s1 + 0xa0] = a1\n  6733: a1 = 0x40\n  6736: u64 [s1 + 0x98] = a0\n  6740: ra = 0x12e\n  6744: ecalli 6 // 'hash_keccak_256'\n  6746: a3 = u64 [s1 + 0x90]\n  6750: t0 = 0x130\n  6754: jump @1397\n      : @303 [@dyn 151] (gas: 2)\n  6757: a3 = u64 [s1 + 0x90]\n  6761: t0 = 304, jump @1397\n      : @304 [@dyn 152] (gas: 27)\n  6767: u64 [s1 + 0x88] = a0\n  6771: a0 = reverse a1\n  6773: u64 [s1 + 0x80] = a0\n  6777: a0 = reverse a2\n  6779: u64 [s1 + 0x78] = a0\n  6782: a0 = reverse a3\n  6784: u64 [s1 + 0x70] = a0\n  6787: a0 = sp + 0xffffffffffffffe0\n  6790: a0 = a0 & 0xffffffffffffffe0\n  6793: u64 [s1 + 0x90] = a0\n  6797: sp = a0\n  6799: a0 = u64 [s1 + 0xa8]\n  6803: a0 = a0 << 0x20\n  6806: a0 = a0 >> 0x20\n  6809: a2 = s1 + 0x7ff\n  6813: a2 = a2 + 0x39\n  6816: u64 [a2 + 1792] = 0\n  6820: a3 = a2 + 0x600\n  6824: u64 [a3 + 0xf8] = a0\n  6828: a0 = u64 [s1 + 0xb0]\n  6832: u64 [a3 + 0xf0] = a0\n  6836: a1 = s1 + 0x7ff\n  6840: a1 = a1 + 0x721\n  6844: a0 = u64 [s1 + 0xb8]\n  6848: u64 [a3 + 0xe8] = a0\n  6852: a0 = 0\n  6854: ra = 306, jump @1426\n      : @305 [@dyn 153] (gas: 16)\n  6860: a0 = u64 [s1 + 0x70]\n  6863: a1 = s1 + 0x7ff\n  6867: a1 = a1 + 0x39\n  6870: a2 = a1 + 0x600\n  6874: u64 [a2 + 0xe0] = a0\n  6878: a0 = u64 [s1 + 0x78]\n  6881: u64 [a2 + 0xd8] = a0\n  6885: a0 = u64 [s1 + 0x80]\n  6889: u64 [a2 + 0xd0] = a0\n  6893: a3 = a1\n  6895: a0 = 0x20\n  6898: a1 = s1 + 0x7ff\n  6902: a1 = a1 + 0x701\n  6906: a2 = u64 [s1 + 0x88]\n  6910: u64 [a3 + 0x6c8] = a2\n  6914: ra = 308, jump @1426\n      : @306 [@dyn 154] (gas: 3)\n  6920: a1 = u64 [s1 + 0xa0]\n  6924: a0 = i32 [a1]\n  6926: jump @308 if a0 >u 63\n      : @307 (gas: 2)\n  6930: u32 [a1 + 0] = 0x40\n  6933: fallthrough\n      : @308 (gas: 12)\n  6934: a0 = sp + 0xffffffffffffffe0\n  6937: a0 = a0 & 0xffffffffffffffe0\n  6940: u64 [s1 + 0xb8] = a0\n  6944: sp = a0\n  6946: i32 a2 = a0 + 0\n  6948: a1 = 0x40\n  6951: a0 = u64 [s1 + 0x98]\n  6955: ra = 0x136\n  6959: ecalli 6 // 'hash_keccak_256'\n  6961: a3 = u64 [s1 + 0xb8]\n  6965: t0 = 0x138\n  6969: jump @1351\n      : @309 [@dyn 155] (gas: 2)\n  6972: a3 = u64 [s1 + 0xb8]\n  6976: t0 = 312, jump @1351\n      : @310 [@dyn 156] (gas: 8)\n  6982: a1 = u64 [s1 + 0x90]\n  6986: u64 [a1 + 0x18] = a3\n  6989: u64 [a1 + 0x10] = a2\n  6992: u64 [a1 + 0x8] = a4\n  6995: u64 [a1] = a0\n  6997: a0 = s1 + 0x7ff\n  7001: a0 = a0 + 0x6e1\n  7005: ra = 314, jump @1428\n      : @311 [@dyn 157] (gas: 8)\n  7011: a0 = s1 + 0x7ff\n  7015: a0 = a0 + 0x39\n  7018: a0 = u64 [a0 + 0x6a8]\n  7022: u64 [s1 + 0xb8] = a0\n  7026: a0 = s1 + 0x7ff\n  7030: a0 = a0 + 0x6c1\n  7034: a1 = 0x40\n  7037: ra = 316, jump @1424\n      : @312 [@dyn 158] (gas: 8)\n  7043: a3 = s1 + 0x7ff\n  7047: a3 = a3 + 0x39\n  7050: a5 = a3 + 0x600\n  7054: a4 = u64 [a5 + 0xa0]\n  7058: a1 = u64 [a5 + 0x98]\n  7062: a2 = u64 [a5 + 0x90]\n  7066: a0 = u64 [a5 + 0x88]\n  7070: t0 = 318, jump @1364\n      : @313 [@dyn 159] (gas: 1)\n  7076: jump @315 if a1 == 0\n      : @314 (gas: 1)\n  7079: jump @660\n      : @315 (gas: 11)\n  7082: a1 = u8 [s1 + 0xb8]\n  7086: a1 = a1 >u 0\n  7088: u64 [a3 + 1664] = 0\n  7092: u64 [a3 + 1656] = 0\n  7096: u64 [a3 + 0x668] = a1\n  7100: a1 = s1 + 0x7ff\n  7104: a1 = a1 + 0x6a1\n  7108: u64 [a3 + 1648] = 0\n  7112: u64 [s1 + 0xb8] = a0\n  7116: ra = 0x30c\n  7120: jump @1426\n      : @316 (gas: 1)\n  7123: t0 = 320, jump @1341\n      : @317 [@dyn 160] (gas: 4)\n  7129: ra = 0x142\n  7133: ecalli 10 // 'value_transferred'\n  7135: t0 = 0x144\n  7139: jump @1342\n      : @318 [@dyn 161] (gas: 1)\n  7142: t0 = 324, jump @1342\n      : @319 [@dyn 162] (gas: 1)\n  7148: jump @321 if a0 == 0\n      : @320 (gas: 1)\n  7151: jump @687\n      : @321 (gas: 3)\n  7154: a0 = u64 [s1 + 0xb8]\n  7158: a0 = i32 [a0]\n  7160: jump @323 if a0 >u 3\n      : @322 (gas: 1)\n  7164: jump @688\n      : @323 (gas: 3)\n  7167: a0 = s1 + 0x11a0\n  7171: a1 = 0x40\n  7174: ra = 326, jump @1424\n      : @324 [@dyn 163] (gas: 7)\n  7180: a3 = s1 + 0x1038\n  7184: a5 = a3 + 0x100\n  7188: a4 = u64 [a5 + 0x80]\n  7192: a1 = u64 [a5 + 0x78]\n  7195: a2 = u64 [a5 + 0x70]\n  7198: a0 = u64 [a5 + 0x68]\n  7201: t0 = 328, jump @1364\n      : @325 [@dyn 164] (gas: 1)\n  7207: jump @327 if a1 == 0\n      : @326 (gas: 1)\n  7210: jump @660\n      : @327 (gas: 8)\n  7213: u64 [a3 + 352] = 0\n  7217: u64 [a3 + 344] = 0\n  7221: u64 [a3 + 336] = 0\n  7225: a1 = s1 + 0x1180\n  7229: u64 [a3 + 328] = 0\n  7233: u64 [s1 + 0xb8] = a0\n  7237: ra = 0x30c\n  7241: jump @1426\n      : @328 (gas: 1)\n  7244: t0 = 330, jump @1341\n      : @329 [@dyn 165] (gas: 4)\n  7250: ra = 0x14c\n  7254: ecalli 10 // 'value_transferred'\n  7256: t0 = 0x14e\n  7260: jump @1342\n      : @330 [@dyn 166] (gas: 1)\n  7263: t0 = 334, jump @1342\n      : @331 [@dyn 167] (gas: 1)\n  7269: jump @333 if a0 == 0\n      : @332 (gas: 1)\n  7272: jump @689\n      : @333 (gas: 4)\n  7275: a0 = u64 [s1 + 0xb8]\n  7279: a0 = i32 [a0]\n  7281: a1 = 0x43\n  7284: jump @335 if a1 <u a0\n      : @334 (gas: 1)\n  7287: jump @690\n      : @335 (gas: 6)\n  7290: a0 = 0xffffffff\n  7300: u64 [s1 + 0xb8] = a0\n  7304: a0 = s1 + 0x14a0\n  7308: ra = 0x150\n  7312: t0 = 0x44a\n  7316: jump @1420\n      : @336 [@dyn 168] (gas: 11)\n  7319: a1 = s1 + 0x1038\n  7323: a0 = u64 [a1 + 0x468]\n  7327: u64 [s1 + 0xb0] = a0\n  7331: a0 = u64 [a1 + 0x470]\n  7335: u64 [s1 + 0x90] = a0\n  7339: a0 = u32 [a1 + 0x478]\n  7343: u64 [s1 + 0x88] = a0\n  7347: a0 = s1 + 0x1480\n  7351: ra = 0x152\n  7355: t0 = 0x454\n  7359: jump @1420\n      : @337 [@dyn 169] (gas: 19)\n  7362: a1 = s1 + 0x1038\n  7366: a2 = a1 + 0x400\n  7370: a0 = u64 [a2 + 0x58]\n  7373: u64 [s1 + 0xa8] = a0\n  7377: a0 = u64 [a2 + 0x50]\n  7380: u64 [s1 + 0xa0] = a0\n  7384: a0 = u64 [a2 + 0x48]\n  7387: u64 [s1 + 0x98] = a0\n  7391: u64 [a1 + 1088] = 0\n  7395: a0 = u64 [s1 + 0x88]\n  7399: u64 [a2 + 0x38] = a0\n  7402: a0 = u64 [s1 + 0x90]\n  7406: u64 [a2 + 0x30] = a0\n  7409: a2 = a1\n  7411: a1 = s1 + 0x1460\n  7415: a0 = u64 [s1 + 0xb0]\n  7419: u64 [a2 + 0x428] = a0\n  7423: a0 = 0\n  7425: ra = 340, jump @1426\n      : @338 [@dyn 170] (gas: 9)\n  7431: a1 = s1 + 0x1038\n  7435: u64 [a1 + 1056] = 0\n  7439: u64 [a1 + 1048] = 0\n  7443: u64 [a1 + 1032] = 0x1\n  7448: a2 = a1\n  7450: a0 = 0x20\n  7453: a1 = s1 + 0x1440\n  7457: u64 [a2 + 1040] = 0\n  7461: ra = 342, jump @1426\n      : @339 [@dyn 171] (gas: 3)\n  7467: a1 = 0x2026c\n  7472: a0 = i32 [0x2026c]\n  7477: jump @341 if a0 >u 63\n      : @340 (gas: 2)\n  7481: u32 [0x2026c] = 0x40\n  7487: fallthrough\n      : @341 (gas: 15)\n  7488: a0 = sp + 0xffffffffffffffe0\n  7491: a2 = a0 & 0xffffffffffffffe0\n  7494: u64 [s1 + 0x88] = a2\n  7498: sp = a2\n  7500: a0 = 0x20280\n  7505: i32 a0 = a0 + 0\n  7507: i32 a2 = a2 + 0\n  7509: u64 [s1 + 0xb0] = a1\n  7513: a1 = 0x40\n  7516: u64 [s1 + 0x90] = a0\n  7520: ra = 0x158\n  7524: ecalli 6 // 'hash_keccak_256'\n  7526: a3 = u64 [s1 + 0x88]\n  7530: t0 = 0x15a\n  7534: jump @1397\n      : @342 [@dyn 172] (gas: 2)\n  7537: a3 = u64 [s1 + 0x88]\n  7541: t0 = 346, jump @1397\n      : @343 [@dyn 173] (gas: 27)\n  7547: u64 [s1 + 0x80] = a0\n  7551: a0 = reverse a1\n  7553: u64 [s1 + 0x78] = a0\n  7556: a0 = reverse a2\n  7558: u64 [s1 + 0x70] = a0\n  7561: a0 = reverse a3\n  7563: u64 [s1 + 0x68] = a0\n  7566: a0 = sp + 0xffffffffffffffe0\n  7569: a0 = a0 & 0xffffffffffffffe0\n  7572: u64 [s1 + 0x88] = a0\n  7576: sp = a0\n  7578: a0 = u64 [s1 + 0x98]\n  7582: a0 = a0 & 0xffffffffffffffff\n  7585: a2 = u64 [s1 + 0xa0]\n  7589: a1 = a2 & 0xffffffffffffffff\n  7592: a2 = u64 [s1 + 0xb8]\n  7596: a3 = u64 [s1 + 0xa8]\n  7600: a2 = a2 & a3\n  7603: a3 = s1 + 0x1038\n  7607: u64 [a3 + 1024] = 0\n  7611: a4 = a3 + 0x300\n  7615: u64 [a4 + 0xf8] = a2\n  7619: u64 [a4 + 0xf0] = a1\n  7623: a1 = s1 + 0x1420\n  7627: u64 [a4 + 0xe8] = a0\n  7631: a0 = 0\n  7633: ra = 348, jump @1426\n      : @344 [@dyn 174] (gas: 14)\n  7639: a0 = u64 [s1 + 0x68]\n  7642: a1 = s1 + 0x1038\n  7646: a2 = a1 + 0x300\n  7650: u64 [a2 + 0xe0] = a0\n  7654: a0 = u64 [s1 + 0x70]\n  7657: u64 [a2 + 0xd8] = a0\n  7661: a0 = u64 [s1 + 0x78]\n  7664: u64 [a2 + 0xd0] = a0\n  7668: a3 = a1\n  7670: a0 = 0x20\n  7673: a1 = s1 + 0x1400\n  7677: a2 = u64 [s1 + 0x80]\n  7681: u64 [a3 + 0x3c8] = a2\n  7685: ra = 350, jump @1426\n      : @345 [@dyn 175] (gas: 3)\n  7691: a1 = u64 [s1 + 0xb0]\n  7695: a0 = i32 [a1]\n  7697: jump @347 if a0 >u 63\n      : @346 (gas: 2)\n  7701: u32 [a1 + 0] = 0x40\n  7704: fallthrough\n      : @347 (gas: 12)\n  7705: a0 = sp + 0xffffffffffffffe0\n  7708: a0 = a0 & 0xffffffffffffffe0\n  7711: u64 [s1 + 0xb8] = a0\n  7715: sp = a0\n  7717: i32 a2 = a0 + 0\n  7719: a1 = 0x40\n  7722: a0 = u64 [s1 + 0x90]\n  7726: ra = 0x160\n  7730: ecalli 6 // 'hash_keccak_256'\n  7732: a3 = u64 [s1 + 0xb8]\n  7736: t0 = 0x162\n  7740: jump @1351\n      : @348 [@dyn 176] (gas: 2)\n  7743: a3 = u64 [s1 + 0xb8]\n  7747: t0 = 354, jump @1351\n      : @349 [@dyn 177] (gas: 7)\n  7753: a1 = u64 [s1 + 0x88]\n  7757: u64 [a1 + 0x18] = a3\n  7760: u64 [a1 + 0x10] = a2\n  7763: u64 [a1 + 0x8] = a4\n  7766: u64 [a1] = a0\n  7768: a0 = s1 + 0x13e0\n  7772: ra = 356, jump @1428\n      : @350 [@dyn 178] (gas: 13)\n  7778: a1 = s1 + 0x1038\n  7782: a2 = a1 + 0x300\n  7786: a0 = u64 [a2 + 0xc0]\n  7790: u64 [s1 + 0xb8] = a0\n  7794: a0 = u64 [a2 + 0xb8]\n  7798: u64 [s1 + 0xb0] = a0\n  7802: a0 = u64 [a2 + 0xb0]\n  7806: u64 [s1 + 0xa8] = a0\n  7810: a0 = u64 [a2 + 0xa8]\n  7814: u64 [s1 + 0xa0] = a0\n  7818: a0 = s1 + 0x13c0\n  7822: a1 = 0x40\n  7825: ra = 358, jump @1424\n      : @351 [@dyn 179] (gas: 3)\n  7831: a3 = s1 + 0x1038\n  7835: a5 = a3 + 0x300\n  7839: t0 = 360, jump @1400\n      : @352 [@dyn 180] (gas: 1)\n  7845: jump @354 if a0 == 0\n      : @353 (gas: 1)\n  7848: jump @660\n      : @354 (gas: 14)\n  7851: a0 = u64 [s1 + 0xa0]\n  7855: a2 = a3 + 0x300\n  7859: u64 [a2 + 0x68] = a0\n  7862: a0 = u64 [s1 + 0xa8]\n  7866: u64 [a2 + 0x70] = a0\n  7869: a0 = u64 [s1 + 0xb0]\n  7873: u64 [a2 + 0x78] = a0\n  7876: a1 = s1 + 0x13a0\n  7880: a0 = u64 [s1 + 0xb8]\n  7884: u64 [a2 + 0x80] = a0\n  7888: a0 = a4\n  7890: u64 [s1 + 0xb8] = a4\n  7894: ra = 0x30c\n  7898: jump @1426\n      : @355 (gas: 1)\n  7901: t0 = 362, jump @1341\n      : @356 [@dyn 181] (gas: 4)\n  7907: ra = 0x16c\n  7911: ecalli 10 // 'value_transferred'\n  7913: t0 = 0x16e\n  7917: jump @1342\n      : @357 [@dyn 182] (gas: 1)\n  7920: t0 = 366, jump @1342\n      : @358 [@dyn 183] (gas: 1)\n  7926: jump @360 if a0 == 0\n      : @359 (gas: 1)\n  7929: jump @691\n      : @360 (gas: 3)\n  7932: a0 = u64 [s1 + 0xb8]\n  7936: a0 = i32 [a0]\n  7938: jump @362 if a0 >u 3\n      : @361 (gas: 1)\n  7942: jump @692\n      : @362 (gas: 3)\n  7945: a0 = s1 + 0x7e0\n  7949: a1 = 0x40\n  7952: ra = 368, jump @1424\n      : @363 [@dyn 184] (gas: 6)\n  7958: a4 = s1 + 0x700\n  7962: a3 = u64 [a4 + 0xf8]\n  7966: a1 = u64 [a4 + 0xf0]\n  7970: a2 = u64 [a4 + 0xe8]\n  7974: a0 = u64 [a4 + 0xe0]\n  7978: t0 = 370, jump @1365\n      : @364 [@dyn 185] (gas: 1)\n  7984: jump @366 if a1 == 0\n      : @365 (gas: 1)\n  7987: jump @660\n      : @366 (gas: 8)\n  7990: u64 [s1 + 2008] = 0\n  7994: u64 [s1 + 2000] = 0\n  7998: u64 [s1 + 1992] = 0\n  8002: a1 = s1 + 0x7c0\n  8006: u64 [s1 + 1984] = 0x12\n  8011: u64 [s1 + 0xb8] = a0\n  8015: ra = 0x30c\n  8019: jump @1426\n      : @367 (gas: 1)\n  8022: t0 = 372, jump @1341\n      : @368 [@dyn 186] (gas: 4)\n  8028: ra = 0x176\n  8032: ecalli 10 // 'value_transferred'\n  8034: t0 = 0x178\n  8038: jump @1342\n      : @369 [@dyn 187] (gas: 1)\n  8041: t0 = 376, jump @1342\n      : @370 [@dyn 188] (gas: 1)\n  8047: jump @372 if a0 == 0\n      : @371 (gas: 1)\n  8050: jump @693\n      : @372 (gas: 3)\n  8053: a0 = u64 [s1 + 0xb8]\n  8057: a0 = i32 [a0]\n  8059: jump @374 if a0 >u 3\n      : @373 (gas: 1)\n  8063: jump @694\n      : @374 (gas: 3)\n  8066: a0 = s1 + 0x12a0\n  8070: a1 = 0x40\n  8073: ra = 378, jump @1424\n      : @375 [@dyn 189] (gas: 7)\n  8079: a3 = s1 + 0x1038\n  8083: a5 = a3 + 0x200\n  8087: a4 = u64 [a5 + 0x80]\n  8091: a1 = u64 [a5 + 0x78]\n  8094: a2 = u64 [a5 + 0x70]\n  8097: a0 = u64 [a5 + 0x68]\n  8100: t0 = 380, jump @1364\n      : @376 [@dyn 190] (gas: 1)\n  8106: jump @378 if a1 == 0\n      : @377 (gas: 1)\n  8109: jump @660\n      : @378 (gas: 13)\n  8112: a1 = u64 [0x20048]\n  8117: a5 = a3 + 0x200\n  8121: u64 [a5 + 0x60] = a1\n  8124: a4 = u64 [0x20050]\n  8129: a1 = u64 [0x20058]\n  8134: a2 = u64 [0x20060]\n  8139: u64 [a5 + 0x58] = a4\n  8142: u64 [a5 + 0x50] = a1\n  8145: a1 = s1 + 0x1280\n  8149: u64 [a5 + 0x48] = a2\n  8152: u64 [s1 + 0xb8] = a0\n  8156: ra = 0x30c\n  8160: jump @1426\n      : @379 (gas: 1)\n  8163: t0 = 382, jump @1341\n      : @380 [@dyn 191] (gas: 4)\n  8169: ra = 0x180\n  8173: ecalli 10 // 'value_transferred'\n  8175: t0 = 0x182\n  8179: jump @1342\n      : @381 [@dyn 192] (gas: 1)\n  8182: t0 = 386, jump @1342\n      : @382 [@dyn 193] (gas: 1)\n  8188: jump @384 if a0 == 0\n      : @383 (gas: 1)\n  8191: jump @695\n      : @384 (gas: 3)\n  8194: a0 = u64 [s1 + 0xb8]\n  8198: a0 = i32 [a0]\n  8200: jump @386 if a0 >u 3\n      : @385 (gas: 1)\n  8204: jump @696\n      : @386 (gas: 3)\n  8207: a0 = s1 + 0x2a0\n  8211: a1 = 0x40\n  8214: ra = 388, jump @1424\n      : @387 [@dyn 194] (gas: 9)\n  8220: a0 = u64 [s1 + 0x2b8]\n  8224: u64 [s1 + 0x38] = a0\n  8227: a0 = u64 [s1 + 0x2b0]\n  8231: u64 [s1 + 0x40] = a0\n  8234: a0 = u64 [s1 + 0x2a8]\n  8238: u64 [s1 + 0x48] = a0\n  8241: a0 = u64 [s1 + 0x2a0]\n  8245: u64 [s1 + 0x50] = a0\n  8248: t0 = 390, jump @1412\n      : @388 [@dyn 195] (gas: 2)\n  8254: a0 = s1 + 0x280\n  8258: ra = 392, jump @1428\n      : @389 [@dyn 196] (gas: 34)\n  8264: a2 = u64 [s1 + 0x290]\n  8268: t2 = u64 [s1 + 0x288]\n  8272: t0 = u64 [s1 + 0x298]\n  8276: a5 = u64 [s1 + 0x280]\n  8280: a0 = a2 << 0x3f\n  8283: a1 = t2 >> 0x1\n  8286: a0 = a0 | a1\n  8289: a1 = t0 << 0x3f\n  8292: u64 [s1 + 0xb0] = a2\n  8296: a2 = a2 >> 0x1\n  8299: a1 = a1 | a2\n  8302: a2 = t2 << 0x3f\n  8305: a3 = a5 >> 0x1\n  8308: a4 = a3 | a2\n  8311: a2 = t0 >> 0x1\n  8314: u64 [s1 + 0xa8] = a5\n  8318: a5 = a5 & 0x1\n  8321: a3 = -a5\n  8323: a1 = a1 & a3\n  8326: t1 = a3 & a0\n  8329: a2 = a2 & a3\n  8332: ra = a4 & 0x7f\n  8335: a4 = ra if a5 == 0\n  8338: u64 [s1 + 0x98] = a4\n  8342: a0 = a4 <u 0x20\n  8345: u64 [s1 + 0x88] = t1\n  8349: a0 = 0 if t1 != 0\n  8351: u64 [s1 + 0x90] = a1\n  8355: u64 [s1 + 0x80] = a2\n  8359: a1 = a1 | a2\n  8362: a0 = 0 if a1 != 0\n  8364: u64 [s1 + 0xb8] = a5\n  8368: a1 = a5 <u 0x1\n  8371: jump @391 if a1 == a0\n      : @390 (gas: 1)\n  8374: jump @697\n      : @391 (gas: 12)\n  8377: a2 = u64 [s1 + 0x40]\n  8380: a4 = u64 [s1 + 0x50]\n  8383: a0 = a4 | a2\n  8386: a1 = u64 [s1 + 0x38]\n  8389: a3 = u64 [s1 + 0x48]\n  8392: a1 = a1 | a3\n  8395: a0 = a0 | a1\n  8398: a0 = a0 >> 0x20\n  8401: a1 = a1 | a2\n  8404: a1 = a1 << 0x20\n  8407: a1 = a1 | a0\n  8410: jump @393 if a1 == 0\n      : @392 (gas: 1)\n  8413: jump @660\n      : @393 (gas: 15)\n  8416: a0 = a4\n  8418: u64 [s1 + 0x70] = ra\n  8421: u64 [s1 + 0x78] = t2\n  8424: u64 [s1 + 0xa0] = t0\n  8428: a1 = u64 [s1 + 0x98]\n  8432: a3 = s1 + 0x200\n  8436: u64 [a3 + 0x60] = a1\n  8439: a1 = u64 [s1 + 0x88]\n  8443: u64 [a3 + 0x68] = a1\n  8446: a1 = u64 [s1 + 0x90]\n  8450: u64 [a3 + 0x70] = a1\n  8453: a1 = s1 + 0x260\n  8457: a2 = u64 [s1 + 0x80]\n  8461: u64 [a3 + 0x78] = a2\n  8464: ra = 394, jump @1426\n      : @394 [@dyn 197] (gas: 2)\n  8470: a0 = u64 [s1 + 0xb8]\n  8474: jump @396 if a0 == 0\n      : @395 (gas: 1)\n  8477: jump @661\n      : @396 (gas: 1)\n  8480: t0 = 396, jump @1391\n      : @397 [@dyn 198] (gas: 1)\n  8486: jump @399 if a1 != 0\n      : @398 (gas: 1)\n  8489: jump @660\n      : @399 (gas: 13)\n  8492: a1 = u64 [s1 + 0xa8]\n  8496: a1 = a1 & 0xffffffffffffff00\n  8500: i32 a0 = a3 + 0x20\n  8503: a2 = u64 [s1 + 0x78]\n  8506: a4 = s1 + 0x100\n  8510: u64 [a4 + 0xe8] = a2\n  8514: u64 [a4 + 0xe0] = a1\n  8518: a1 = u64 [s1 + 0xb0]\n  8522: u64 [a4 + 0xf0] = a1\n  8526: a1 = s1 + 0x1e0\n  8530: a3 = u64 [s1 + 0xa0]\n  8534: u64 [a4 + 0xf8] = a3\n  8538: ra = 398, jump @1426\n      : @400 [@dyn 199] (gas: 7)\n  8544: t2 = 0\n  8546: t0 = 0\n  8548: a5 = 0\n  8550: a0 = u64 [s1 + 0x70]\n  8553: a0 = a0 >u 0\n  8555: ra = a0 << 0x5\n  8558: fallthrough\n      : @401 (gas: 34)\n  8559: a0 = ra + 0x3f\n  8562: a1 = a0 <u ra\n  8565: a2 = t2 + a1\n  8568: a0 = a0 & 0xffffffffffffffe0\n  8571: t1 = u64 [s1 + 0x50]\n  8574: t1 = t1 + a0\n  8577: a0 = t1 <u a0\n  8580: a3 = u64 [s1 + 0x48]\n  8583: a3 = a3 + a2\n  8586: ra = a3 + a0\n  8589: a3 = ra ^ a2\n  8592: a4 = ra <u a2\n  8595: a4 = a0 if a3 == 0\n  8598: a0 = a2 <u t2\n  8601: a0 = a1 if a1 == 0\n  8604: a0 = a0 + t0\n  8607: a1 = a0 <u t0\n  8610: t2 = u64 [s1 + 0x40]\n  8613: a2 = a0 + t2\n  8616: a4 = a4 + a2\n  8619: a0 = a2 <u a0\n  8622: a2 = a4 <u a2\n  8625: t0 = u64 [s1 + 0x38]\n  8628: a3 = a5 + t0\n  8631: a1 = a1 + a3\n  8634: a0 = a0 + a1\n  8637: a5 = a0 + a2\n  8640: a0 = a5 >u 0\n  8642: a1 = a4 >u 0\n  8644: a1 = a0 if a5 != 0\n  8647: a0 = a4 | a5\n  8650: a2 = ra >u 0\n  8652: a2 = a1 if a0 != 0\n  8655: jump @403 if a2 == 0\n      : @402 (gas: 1)\n  8658: jump @766\n      : @403 (gas: 14)\n  8661: a0 = u64 [s1 + 0x50]\n  8664: a0 = t1 <u a0\n  8667: a2 = u64 [s1 + 0x48]\n  8670: a1 = ra ^ a2\n  8673: a2 = ra <u a2\n  8676: a2 = a0 if a1 == 0\n  8679: a0 = a4 <u t2\n  8682: a1 = a5 ^ t0\n  8685: a3 = a5 <u t0\n  8688: a3 = a0 if a1 == 0\n  8691: a0 = a4 ^ t2\n  8694: a0 = a0 | a1\n  8697: a3 = a2 if a0 == 0\n  8700: jump @405 if a3 == 0\n      : @404 (gas: 1)\n  8703: jump @766\n      : @405 (gas: 11)\n  8706: u64 [s1 + 0x1c0] = t1\n  8710: u64 [s1 + 0x1c8] = ra\n  8714: u64 [s1 + 0x1d0] = a4\n  8718: a0 = 0x40\n  8721: a1 = s1 + 0x1c0\n  8725: u64 [s1 + 0x1d8] = a5\n  8729: u64 [s1 + 0xb0] = t1\n  8733: u64 [s1 + 0xa8] = ra\n  8737: u64 [s1 + 0xa0] = a4\n  8741: u64 [s1 + 0xb8] = a5\n  8745: ra = 400, jump @1426\n      : @406 [@dyn 200] (gas: 21)\n  8751: a0 = u64 [s1 + 0x38]\n  8754: a4 = s1 + 0x100\n  8758: u64 [a4 + 0x78] = a0\n  8761: a0 = u64 [s1 + 0x40]\n  8764: u64 [a4 + 0x70] = a0\n  8767: a0 = u64 [s1 + 0x48]\n  8770: u64 [a4 + 0x68] = a0\n  8773: a0 = u64 [s1 + 0x50]\n  8776: u64 [a4 + 0x60] = a0\n  8779: a0 = u64 [s1 + 0xb8]\n  8783: u64 [a4 + 0x98] = a0\n  8787: a0 = u64 [s1 + 0xa0]\n  8791: u64 [a4 + 0x90] = a0\n  8795: a0 = u64 [s1 + 0xa8]\n  8799: u64 [a4 + 0x88] = a0\n  8803: a0 = s1 + 0x1a0\n  8807: a1 = s1 + 0x180\n  8811: a2 = s1 + 0x160\n  8815: a3 = u64 [s1 + 0xb0]\n  8819: u64 [a4 + 0x80] = a3\n  8823: ra = 402, jump @1015\n      : @407 [@dyn 201] (gas: 12)\n  8829: a5 = u64 [s1 + 0xb8]\n  8833: t0 = u64 [s1 + 0xa0]\n  8837: a4 = u64 [s1 + 0xa8]\n  8841: a2 = u64 [s1 + 0xb0]\n  8845: a0 = a2 | t0\n  8848: a1 = a4 | a5\n  8851: a0 = a0 | a1\n  8854: a0 = a0 >> 0x20\n  8857: a1 = a1 | t0\n  8860: a1 = a1 << 0x20\n  8863: a0 = a0 | a1\n  8866: jump @409 if a0 == 0\n      : @408 (gas: 1)\n  8869: jump @660\n      : @409 (gas: 7)\n  8872: a5 = s1 + 0x100\n  8876: a0 = u64 [a5 + 0xa8]\n  8880: a1 = u64 [a5 + 0xb8]\n  8884: u64 [s1 + 0x98] = a1\n  8888: t1 = u64 [s1 + 0x1a0]\n  8892: a3 = u64 [a5 + 0xb0]\n  8896: jump @492\n      : @410 (gas: 1)\n  8899: t0 = 404, jump @1341\n      : @411 [@dyn 202] (gas: 4)\n  8905: ra = 0x196\n  8909: ecalli 10 // 'value_transferred'\n  8911: t0 = 0x198\n  8915: jump @1342\n      : @412 [@dyn 203] (gas: 1)\n  8918: t0 = 408, jump @1342\n      : @413 [@dyn 204] (gas: 1)\n  8924: jump @415 if a0 == 0\n      : @414 (gas: 1)\n  8927: jump @703\n      : @415 (gas: 4)\n  8930: a0 = u64 [s1 + 0xb8]\n  8934: a0 = i32 [a0]\n  8936: a1 = 0x43\n  8939: jump @417 if a1 <u a0\n      : @416 (gas: 1)\n  8942: jump @704\n      : @417 (gas: 5)\n  8945: a0 = s1 + 0x7ff\n  8949: a0 = a0 + 0x3e1\n  8953: ra = 0x19a\n  8957: t0 = 0x44a\n  8961: jump @1420\n      : @418 [@dyn 205] (gas: 44)\n  8964: a1 = s1 + 0x7ff\n  8968: a1 = a1 + 0x39\n  8971: a2 = a1 + 0x300\n  8975: a0 = u64 [a2 + 0xb8]\n  8979: u64 [s1 + 0x78] = a0\n  8982: a0 = u64 [a2 + 0xb0]\n  8986: u64 [s1 + 0xa8] = a0\n  8990: a0 = u64 [a2 + 0xa8]\n  8994: u64 [s1 + 0xb0] = a0\n  8998: a0 = sp + 0xffffffffffffffe0\n  9001: a0 = a0 & 0xffffffffffffffe0\n  9004: u64 [s1 + 0xb8] = a0\n  9008: sp = a0\n  9010: i32 a0 = a0 + 0\n  9012: a1 = 0x24\n  9015: ecalli 1 // 'call_data_load'\n  9017: a1 = u64 [s1 + 0xb8]\n  9021: a0 = u64 [a1 + 0x18]\n  9024: u64 [s1 + 0xa0] = a0\n  9028: a0 = u64 [a1 + 0x10]\n  9031: u64 [s1 + 0x98] = a0\n  9035: a0 = u64 [a1 + 0x8]\n  9038: u64 [s1 + 0x90] = a0\n  9042: a0 = u64 [a1]\n  9044: u64 [s1 + 0x80] = a0\n  9048: a0 = u64 [0x20048]\n  9053: u64 [s1 + 0x40] = a0\n  9056: a3 = s1 + 0x7ff\n  9060: a3 = a3 + 0x39\n  9063: a4 = a3 + 0x300\n  9067: u64 [a4 + 0xa0] = a0\n  9071: a1 = u64 [0x20050]\n  9076: a2 = u64 [0x20058]\n  9081: a0 = u64 [0x20060]\n  9086: u64 [s1 + 0x30] = a1\n  9089: u64 [a4 + 0x98] = a1\n  9093: u64 [s1 + 0x28] = a2\n  9096: u64 [a4 + 0x90] = a2\n  9100: a1 = s1 + 0x7ff\n  9104: a1 = a1 + 0x3c1\n  9108: u64 [s1 + 0x38] = a0\n  9111: u64 [a4 + 0x88] = a0\n  9115: a0 = 0\n  9117: ra = 412, jump @1426\n      : @419 [@dyn 206] (gas: 11)\n  9123: a1 = s1 + 0x7ff\n  9127: a1 = a1 + 0x39\n  9130: u64 [a1 + 896] = 0\n  9134: u64 [a1 + 888] = 0\n  9138: u64 [a1 + 872] = 0x6\n  9143: a2 = a1\n  9145: a0 = 0x20\n  9148: a1 = s1 + 0x7ff\n  9152: a1 = a1 + 0x3a1\n  9156: u64 [a2 + 880] = 0\n  9160: ra = 414, jump @1426\n      : @420 [@dyn 207] (gas: 3)\n  9166: a1 = 0x2026c\n  9171: a0 = i32 [0x2026c]\n  9176: jump @422 if a0 >u 63\n      : @421 (gas: 2)\n  9180: u32 [0x2026c] = 0x40\n  9186: fallthrough\n      : @422 (gas: 15)\n  9187: a0 = sp + 0xffffffffffffffe0\n  9190: a2 = a0 & 0xffffffffffffffe0\n  9193: u64 [s1 + 0x70] = a2\n  9196: sp = a2\n  9198: a0 = 0x20280\n  9203: i32 a0 = a0 + 0\n  9205: u64 [s1 + 0x88] = a1\n  9209: i32 a2 = a2 + 0\n  9211: a1 = 0x40\n  9214: u64 [s1 + 0xb8] = a0\n  9218: ra = 0x1a0\n  9222: ecalli 6 // 'hash_keccak_256'\n  9224: a3 = u64 [s1 + 0x70]\n  9227: t0 = 0x1a2\n  9231: jump @1374\n      : @423 [@dyn 208] (gas: 2)\n  9234: a3 = u64 [s1 + 0x70]\n  9237: t0 = 418, jump @1374\n      : @424 [@dyn 209] (gas: 9)\n  9243: a0 = 0x30280\n  9248: u64 [s1 + 0x70] = a0\n  9251: i32 a0 = a0 + 0\n  9253: u64 [s1 + 0x20] = a0\n  9256: ra = 0x1a4\n  9260: ecalli 3 // 'caller'\n  9262: a2 = u64 [s1 + 0x70]\n  9265: t0 = 0x1a6\n  9269: jump @1343\n      : @425 [@dyn 210] (gas: 2)\n  9272: a2 = u64 [s1 + 0x70]\n  9275: t0 = 422, jump @1343\n      : @426 [@dyn 211] (gas: 9)\n  9281: u64 [a2 + 864] = 0\n  9285: a4 = a2 + 0x300\n  9289: u64 [a4 + 0x58] = a1\n  9292: u64 [a4 + 0x50] = a0\n  9295: a1 = s1 + 0x7ff\n  9299: a1 = a1 + 0x381\n  9303: u64 [a4 + 0x48] = a3\n  9306: a0 = 0\n  9308: ra = 424, jump @1426\n      : @427 [@dyn 212] (gas: 16)\n  9314: a0 = u64 [s1 + 0x48]\n  9317: a1 = s1 + 0x7ff\n  9321: a1 = a1 + 0x39\n  9324: a2 = a1 + 0x300\n  9328: u64 [a2 + 0x40] = a0\n  9331: a0 = u64 [s1 + 0x50]\n  9334: u64 [a2 + 0x38] = a0\n  9337: a0 = u64 [s1 + 0x58]\n  9340: u64 [a2 + 0x30] = a0\n  9343: a3 = a1\n  9345: a0 = 0x20\n  9348: a1 = s1 + 0x7ff\n  9352: a1 = a1 + 0x361\n  9356: a2 = u64 [s1 + 0x60]\n  9359: u64 [a3 + 0x328] = a2\n  9363: ra = 426, jump @1426\n      : @428 [@dyn 213] (gas: 3)\n  9369: a1 = u64 [s1 + 0x88]\n  9373: a0 = i32 [a1]\n  9375: jump @430 if a0 >u 63\n      : @429 (gas: 2)\n  9379: u32 [a1 + 0] = 0x40\n  9382: fallthrough\n      : @430 (gas: 4)\n  9383: a0 = sp + 0xffffffffffffffe0\n  9386: a0 = a0 & 0xffffffffffffffe0\n  9389: u64 [s1 + 0x60] = a0\n  9392: t0 = 428, jump @1402\n      : @431 [@dyn 214] (gas: 5)\n  9398: ra = 0x1ae\n  9402: ecalli 6 // 'hash_keccak_256'\n  9404: a3 = u64 [s1 + 0x60]\n  9407: t0 = 0x1b0\n  9411: jump @1381\n      : @432 [@dyn 215] (gas: 2)\n  9414: a3 = u64 [s1 + 0x60]\n  9417: t0 = 432, jump @1381\n      : @433 [@dyn 216] (gas: 3)\n  9423: a0 = s1 + 0x7ff\n  9427: a0 = a0 + 0x341\n  9431: ra = 434, jump @1428\n      : @434 [@dyn 217] (gas: 4)\n  9437: a2 = s1 + 0x7ff\n  9441: a2 = a2 + 0x39\n  9444: a0 = u8 [a2 + 0x308]\n  9448: jump @436 if a0 != 0\n      : @435 (gas: 1)\n  9451: jump @705\n      : @436 (gas: 9)\n  9454: a0 = u64 [s1 + 0x78]\n  9457: a0 = a0 << 0x20\n  9460: a2 = a0 >> 0x20\n  9463: a0 = u64 [s1 + 0xb0]\n  9467: a1 = u64 [s1 + 0xa8]\n  9471: a0 = a0 | a1\n  9474: u64 [s1 + 0x70] = a2\n  9477: a0 = a0 | a2\n  9480: jump @438 if a0 != 0\n      : @437 (gas: 1)\n  9483: jump @713\n      : @438 (gas: 1)\n  9486: ra = 436, jump @1332\n      : @439 [@dyn 218] (gas: 1)\n  9492: t0 = 438, jump @1382\n      : @440 [@dyn 219] (gas: 3)\n  9498: a0 = s1 + 0x7ff\n  9502: a0 = a0 + 0x321\n  9506: ra = 440, jump @1428\n      : @441 [@dyn 220] (gas: 40)\n  9512: a1 = s1 + 0x7ff\n  9516: a1 = a1 + 0x39\n  9519: t2 = u64 [a1 + 0x300]\n  9523: a2 = a1 + 0x200\n  9527: a0 = u64 [a2 + 0xf8]\n  9531: a4 = u64 [a2 + 0xe8]\n  9535: a5 = u64 [a2 + 0xf0]\n  9539: a1 = sp + 0xffffffffffffffe0\n  9542: a1 = a1 & 0xffffffffffffffe0\n  9545: sp = a1\n  9547: a3 = u64 [s1 + 0x90]\n  9551: a3 = a3 + a5\n  9554: t0 = u64 [s1 + 0x80]\n  9558: t0 = t0 + a4\n  9561: a4 = t0 <u a4\n  9564: a3 = a3 + a4\n  9567: t1 = a3 ^ a5\n  9570: a2 = a3 <u a5\n  9573: a2 = a4 if t1 == 0\n  9576: a4 = u64 [s1 + 0x98]\n  9580: a4 = a4 + a0\n  9583: a5 = a4 + a2\n  9586: t1 = a5 <u a4\n  9589: ra = u64 [s1 + 0xa0]\n  9593: ra = ra + t2\n  9596: a4 = a4 <u a0\n  9599: a4 = a4 + ra\n  9602: ra = a4 + t1\n  9605: t1 = a5 <u a0\n  9608: a4 = t2 ^ ra\n  9611: t2 = ra <u t2\n  9614: t2 = t1 if a4 == 0\n  9617: a0 = a0 ^ a5\n  9620: a0 = a0 | a4\n  9623: t2 = a2 if a0 == 0\n  9626: u64 [a1 + 0x10] = a5\n  9629: u64 [a1 + 0x8] = a3\n  9632: u64 [a1] = t0\n  9634: u64 [a1 + 0x18] = ra\n  9637: jump @443 if t2 == 0\n      : @442 (gas: 1)\n  9640: jump @715\n      : @443 (gas: 1)\n  9643: t0 = 442, jump @1417\n      : @444 [@dyn 221] (gas: 1)\n  9649: ra = 444, jump @1429\n      : @445 [@dyn 222] (gas: 14)\n  9655: a2 = s1 + 0x7ff\n  9659: a2 = a2 + 0x39\n  9662: u64 [a2 + 736] = 0\n  9666: a0 = u64 [s1 + 0x70]\n  9669: a3 = a2 + 0x200\n  9673: u64 [a3 + 0xd8] = a0\n  9677: a0 = u64 [s1 + 0xa8]\n  9681: u64 [a3 + 0xd0] = a0\n  9685: a1 = s1 + 0x7ff\n  9689: a1 = a1 + 0x301\n  9693: a0 = u64 [s1 + 0xb0]\n  9697: u64 [a3 + 0xc8] = a0\n  9701: a0 = 0\n  9703: ra = 446, jump @1426\n      : @446 [@dyn 223] (gas: 11)\n  9709: a0 = s1 + 0x7ff\n  9713: a0 = a0 + 0x39\n  9716: u64 [a0 + 704] = 0\n  9720: u64 [a0 + 696] = 0\n  9724: u64 [a0 + 688] = 0\n  9728: a2 = a0\n  9730: a0 = 0x20\n  9733: a1 = s1 + 0x7ff\n  9737: a1 = a1 + 0x2e1\n  9741: u64 [a2 + 680] = 0\n  9745: ra = 448, jump @1426\n      : @447 [@dyn 224] (gas: 7)\n  9751: a0 = sp + 0xffffffffffffffe0\n  9754: a0 = a0 & 0xffffffffffffffe0\n  9757: u64 [s1 + 0x78] = a0\n  9760: sp = a0\n  9762: a2 = u64 [s1 + 0x88]\n  9766: a0 = i32 [a2]\n  9768: jump @449 if a0 >u 63\n      : @448 (gas: 2)\n  9772: u32 [a2 + 0] = 0x40\n  9775: fallthrough\n      : @449 (gas: 4)\n  9776: a0 = sp + 0xffffffffffffffe0\n  9779: a0 = a0 & 0xffffffffffffffe0\n  9782: u64 [s1 + 0x88] = a0\n  9786: t0 = 450, jump @1402\n      : @450 [@dyn 225] (gas: 5)\n  9792: ra = 0x1c4\n  9796: ecalli 6 // 'hash_keccak_256'\n  9798: a3 = u64 [s1 + 0x88]\n  9802: t0 = 0x1c6\n  9806: jump @1351\n      : @451 [@dyn 226] (gas: 2)\n  9809: a3 = u64 [s1 + 0x88]\n  9813: t0 = 454, jump @1351\n      : @452 [@dyn 227] (gas: 8)\n  9819: a1 = u64 [s1 + 0x78]\n  9822: u64 [a1 + 0x18] = a3\n  9825: u64 [a1 + 0x10] = a2\n  9828: u64 [a1 + 0x8] = a4\n  9831: u64 [a1] = a0\n  9833: a0 = s1 + 0x7ff\n  9837: a0 = a0 + 0x2c1\n  9841: ra = 456, jump @1428\n      : @453 [@dyn 228] (gas: 23)\n  9847: a0 = s1 + 0x7ff\n  9851: a0 = a0 + 0x39\n  9854: a3 = a0 + 0x200\n  9858: a1 = u64 [a3 + 0x90]\n  9862: a2 = u64 [a3 + 0x88]\n  9866: t0 = u64 [a0 + 0x2a0]\n  9870: a4 = u64 [a3 + 0x98]\n  9874: a5 = u64 [s1 + 0x90]\n  9878: a5 = a5 + a1\n  9881: a0 = u64 [s1 + 0x80]\n  9885: a0 = a0 + a2\n  9888: a2 = a0 <u a2\n  9891: a5 = a5 + a2\n  9894: a3 = a5 ^ a1\n  9897: a1 = a5 <u a1\n  9900: a1 = a2 if a3 == 0\n  9903: a2 = u64 [s1 + 0x98]\n  9907: a2 = a2 + a4\n  9910: a3 = u64 [s1 + 0xa0]\n  9914: t0 = t0 + a3\n  9917: a3 = a2 <u a4\n  9920: a3 = a3 + t0\n  9923: t0 = 458, jump @1371\n      : @454 [@dyn 229] (gas: 2)\n  9929: a0 = u64 [s1 + 0x78]\n  9932: ra = 460, jump @1429\n      : @455 [@dyn 230] (gas: 4)\n  9938: a0 = s1 + 0x7ff\n  9942: a0 = a0 + 0x2a1\n  9946: a1 = 0x40\n  9949: ra = 462, jump @1424\n      : @456 [@dyn 231] (gas: 8)\n  9955: a3 = s1 + 0x7ff\n  9959: a3 = a3 + 0x39\n  9962: a5 = a3 + 0x200\n  9966: a4 = u64 [a5 + 0x80]\n  9970: a1 = u64 [a5 + 0x78]\n  9973: a2 = u64 [a5 + 0x70]\n  9976: a0 = u64 [a5 + 0x68]\n  9979: t0 = 464, jump @1364\n      : @457 [@dyn 232] (gas: 1)\n  9985: jump @459 if a1 == 0\n      : @458 (gas: 1)\n  9988: jump @660\n      : @459 (gas: 13)\n  9991: a1 = u64 [s1 + 0x80]\n  9995: a4 = a3 + 0x200\n  9999: u64 [a4 + 0x48] = a1\n 10002: a1 = u64 [s1 + 0x90]\n 10006: u64 [a4 + 0x50] = a1\n 10009: a1 = u64 [s1 + 0x98]\n 10013: u64 [a4 + 0x58] = a1\n 10016: a1 = s1 + 0x7ff\n 10020: a1 = a1 + 0x281\n 10024: a2 = u64 [s1 + 0xa0]\n 10028: u64 [a4 + 0x60] = a2\n 10031: u64 [s1 + 0xa0] = a0\n 10035: ra = 466, jump @1426\n      : @460 [@dyn 233] (gas: 32)\n 10041: a5 = s1 + 0x7ff\n 10045: a5 = a5 + 0x39\n 10048: u64 [a5 + 512] = 0\n 10052: a0 = u64 [s1 + 0x70]\n 10055: a1 = a5 + 0x100\n 10059: u64 [a1 + 0xf8] = a0\n 10063: a0 = u64 [s1 + 0xa8]\n 10067: u64 [a1 + 0xf0] = a0\n 10071: a0 = u64 [s1 + 0xb0]\n 10075: u64 [a1 + 0xe8] = a0\n 10079: u64 [a5 + 544] = 0\n 10083: u64 [a5 + 536] = 0\n 10087: u64 [a5 + 528] = 0\n 10091: a0 = u64 [0x200a8]\n 10096: a1 = u64 [0x200b0]\n 10101: a2 = u64 [0x200b8]\n 10106: a3 = u64 [0x200c0]\n 10111: a4 = a5 + 0x200\n 10115: u64 [a4 + 0x40] = a0\n 10118: u64 [a4 + 0x38] = a1\n 10121: u64 [a4 + 0x30] = a2\n 10124: u64 [a4 + 0x28] = a3\n 10127: a1 = 0x20\n 10130: a2 = s1 + 0x7ff\n 10134: a2 = a2 + 0x261\n 10138: a3 = s1 + 0x7ff\n 10142: a3 = a3 + 0x241\n 10146: a4 = s1 + 0x7ff\n 10150: a4 = a4 + 0x221\n 10154: u64 [a5 + 520] = 0\n 10158: a0 = u64 [s1 + 0xa0]\n 10162: ra = 468, jump @1432\n      : @461 [@dyn 234] (gas: 6)\n 10168: a0 = 0\n 10170: a1 = u64 [s1 + 0xb8]\n 10174: a2 = 0\n 10176: ra = 0x33e\n 10180: ecalli 7 // 'seal_return'\n 10182: jump @836\n      : @462 (gas: 1)\n 10185: t0 = 470, jump @1341\n      : @463 [@dyn 235] (gas: 4)\n 10191: ra = 0x1d8\n 10195: ecalli 10 // 'value_transferred'\n 10197: t0 = 0x1da\n 10201: jump @1342\n      : @464 [@dyn 236] (gas: 1)\n 10204: t0 = 474, jump @1342\n      : @465 [@dyn 237] (gas: 1)\n 10210: jump @467 if a0 == 0\n      : @466 (gas: 1)\n 10213: jump @720\n      : @467 (gas: 3)\n 10216: a0 = u64 [s1 + 0xb8]\n 10220: a0 = i32 [a0]\n 10222: jump @469 if a0 >u 3\n      : @468 (gas: 1)\n 10226: jump @721\n      : @469 (gas: 3)\n 10229: a0 = s1 + 0x1160\n 10233: a1 = 0x40\n 10236: ra = 476, jump @1424\n      : @470 [@dyn 238] (gas: 11)\n 10242: a1 = s1 + 0x1038\n 10246: a2 = a1 + 0x100\n 10250: a0 = u64 [a2 + 0x40]\n 10253: u64 [s1 + 0x38] = a0\n 10256: a0 = u64 [a2 + 0x38]\n 10259: u64 [s1 + 0x40] = a0\n 10262: a0 = u64 [a2 + 0x30]\n 10265: u64 [s1 + 0x48] = a0\n 10268: a0 = u64 [a2 + 0x28]\n 10271: u64 [s1 + 0x50] = a0\n 10274: t0 = 478, jump @1411\n      : @471 [@dyn 239] (gas: 2)\n 10280: a0 = s1 + 0x1140\n 10284: ra = 480, jump @1428\n      : @472 [@dyn 240] (gas: 35)\n 10290: a0 = s1 + 0x1038\n 10294: t2 = u64 [a0 + 0x118]\n 10298: ra = u64 [a0 + 0x110]\n 10302: t1 = u64 [a0 + 0x120]\n 10306: a4 = u64 [a0 + 0x108]\n 10310: a0 = t2 << 0x3f\n 10313: a1 = ra >> 0x1\n 10316: a0 = a0 | a1\n 10319: a1 = t1 << 0x3f\n 10322: a2 = t2 >> 0x1\n 10325: a1 = a1 | a2\n 10328: a2 = ra << 0x3f\n 10331: a3 = a4 >> 0x1\n 10334: a5 = a3 | a2\n 10337: a2 = t1 >> 0x1\n 10340: u64 [s1 + 0xa8] = a4\n 10344: a4 = a4 & 0x1\n 10347: a3 = -a4\n 10349: a1 = a1 & a3\n 10352: t0 = a3 & a0\n 10355: a2 = a2 & a3\n 10358: a0 = a5 & 0x7f\n 10361: u64 [s1 + 0xb0] = a0\n 10365: a5 = a0 if a4 == 0\n 10368: u64 [s1 + 0x98] = a5\n 10372: a0 = a5 <u 0x20\n 10375: u64 [s1 + 0x88] = t0\n 10379: a0 = 0 if t0 != 0\n 10381: u64 [s1 + 0x90] = a1\n 10385: u64 [s1 + 0x80] = a2\n 10389: a1 = a1 | a2\n 10392: a0 = 0 if a1 != 0\n 10394: u64 [s1 + 0xb8] = a4\n 10398: a1 = a4 <u 0x1\n 10401: jump @474 if a1 == a0\n      : @473 (gas: 1)\n 10404: jump @722\n      : @474 (gas: 12)\n 10407: a2 = u64 [s1 + 0x40]\n 10410: a3 = u64 [s1 + 0x50]\n 10413: a0 = a3 | a2\n 10416: a1 = u64 [s1 + 0x48]\n 10419: a4 = u64 [s1 + 0x38]\n 10422: a1 = a1 | a4\n 10425: a0 = a0 | a1\n 10428: a0 = a0 >> 0x20\n 10431: a1 = a1 | a2\n 10434: a1 = a1 << 0x20\n 10437: a1 = a1 | a0\n 10440: jump @476 if a1 == 0\n      : @475 (gas: 1)\n 10443: jump @660\n      : @476 (gas: 15)\n 10446: a0 = a3\n 10448: u64 [s1 + 0x70] = ra\n 10451: u64 [s1 + 0x78] = t2\n 10454: u64 [s1 + 0xa0] = t1\n 10458: a1 = u64 [s1 + 0x98]\n 10462: a3 = s1 + 0x1038\n 10466: u64 [a3 + 0xe8] = a1\n 10470: a1 = u64 [s1 + 0x88]\n 10474: u64 [a3 + 0xf0] = a1\n 10478: a1 = u64 [s1 + 0x90]\n 10482: u64 [a3 + 0xf8] = a1\n 10486: a1 = s1 + 0x1120\n 10490: a2 = u64 [s1 + 0x80]\n 10494: u64 [a3 + 0x100] = a2\n 10498: ra = 482, jump @1426\n      : @477 [@dyn 241] (gas: 2)\n 10504: a0 = u64 [s1 + 0xb8]\n 10508: jump @479 if a0 == 0\n      : @478 (gas: 1)\n 10511: jump @672\n      : @479 (gas: 1)\n 10514: t0 = 484, jump @1391\n      : @480 [@dyn 242] (gas: 1)\n 10520: jump @482 if a1 != 0\n      : @481 (gas: 1)\n 10523: jump @660\n      : @482 (gas: 13)\n 10526: a1 = u64 [s1 + 0xa8]\n 10530: a1 = a1 & 0xffffffffffffff00\n 10534: i32 a0 = a3 + 0x20\n 10537: a2 = s1 + 0x1038\n 10541: a3 = u64 [s1 + 0x70]\n 10544: u64 [a2 + 0x70] = a3\n 10547: u64 [a2 + 0x68] = a1\n 10550: a1 = u64 [s1 + 0x78]\n 10553: u64 [a2 + 0x78] = a1\n 10556: a1 = s1 + 0x10a0\n 10560: a3 = u64 [s1 + 0xa0]\n 10564: u64 [a2 + 0x80] = a3\n 10568: ra = 486, jump @1426\n      : @483 [@dyn 243] (gas: 7)\n 10574: t2 = 0\n 10576: t0 = 0\n 10578: a5 = 0\n 10580: a0 = u64 [s1 + 0xb0]\n 10584: a0 = a0 >u 0\n 10586: ra = a0 << 0x5\n 10589: fallthrough\n      : @484 (gas: 34)\n 10590: a0 = ra + 0x3f\n 10593: a1 = a0 <u ra\n 10596: a2 = t2 + a1\n 10599: a0 = a0 & 0xffffffffffffffe0\n 10602: t1 = u64 [s1 + 0x50]\n 10605: t1 = t1 + a0\n 10608: a0 = t1 <u a0\n 10611: a3 = u64 [s1 + 0x48]\n 10614: a3 = a3 + a2\n 10617: ra = a3 + a0\n 10620: a3 = ra ^ a2\n 10623: a4 = ra <u a2\n 10626: a4 = a0 if a3 == 0\n 10629: a0 = a2 <u t2\n 10632: a0 = a1 if a1 == 0\n 10635: a0 = a0 + t0\n 10638: a1 = a0 <u t0\n 10641: t2 = u64 [s1 + 0x40]\n 10644: a2 = a0 + t2\n 10647: a4 = a4 + a2\n 10650: a0 = a2 <u a0\n 10653: a2 = a4 <u a2\n 10656: t0 = u64 [s1 + 0x38]\n 10659: a3 = a5 + t0\n 10662: a1 = a1 + a3\n 10665: a0 = a0 + a1\n 10668: a5 = a0 + a2\n 10671: a0 = a5 >u 0\n 10673: a1 = a4 >u 0\n 10675: a1 = a0 if a5 != 0\n 10678: a0 = a4 | a5\n 10681: a2 = ra >u 0\n 10683: a2 = a1 if a0 != 0\n 10686: jump @486 if a2 == 0\n      : @485 (gas: 1)\n 10689: jump @773\n      : @486 (gas: 14)\n 10692: a0 = u64 [s1 + 0x50]\n 10695: a0 = t1 <u a0\n 10698: a2 = u64 [s1 + 0x48]\n 10701: a1 = ra ^ a2\n 10704: a2 = ra <u a2\n 10707: a2 = a0 if a1 == 0\n 10710: a0 = a4 <u t2\n 10713: a1 = a5 ^ t0\n 10716: a3 = a5 <u t0\n 10719: a3 = a0 if a1 == 0\n 10722: a0 = a4 ^ t2\n 10725: a0 = a0 | a1\n 10728: a3 = a2 if a0 == 0\n 10731: jump @488 if a3 == 0\n      : @487 (gas: 1)\n 10734: jump @773\n      : @488 (gas: 13)\n 10737: a2 = s1 + 0x1038\n 10741: a3 = t1\n 10743: u64 [a2 + 0x48] = a3\n 10746: u64 [a2 + 0x50] = ra\n 10749: u64 [a2 + 0x58] = a4\n 10752: a0 = 0x40\n 10755: a1 = s1 + 0x1080\n 10759: u64 [a2 + 0x60] = a5\n 10762: u64 [s1 + 0xb0] = a3\n 10766: u64 [s1 + 0xa8] = ra\n 10770: u64 [s1 + 0xa0] = a4\n 10774: u64 [s1 + 0xb8] = a5\n 10778: ra = 488, jump @1426\n      : @489 [@dyn 244] (gas: 23)\n 10784: a1 = s1 + 0x1038\n 10788: a0 = u64 [s1 + 0x38]\n 10791: u64 [a1] = a0\n 10793: a0 = u64 [s1 + 0x40]\n 10796: a2 = a1 + 0xffffffffffffff00\n 10800: u64 [a2 + 0xf8] = a0\n 10804: a0 = u64 [s1 + 0x48]\n 10807: u64 [a2 + 0xf0] = a0\n 10811: a0 = u64 [s1 + 0x50]\n 10814: u64 [a2 + 0xe8] = a0\n 10818: a0 = u64 [s1 + 0xb8]\n 10822: u64 [a1 + 0x20] = a0\n 10825: a0 = u64 [s1 + 0xa0]\n 10829: u64 [a1 + 0x18] = a0\n 10832: a0 = u64 [s1 + 0xa8]\n 10836: u64 [a1 + 0x10] = a0\n 10839: a4 = a1\n 10841: a0 = s1 + 0x1060\n 10845: a1 = s1 + 0x1040\n 10849: a2 = s1 + 0x1020\n 10853: a3 = u64 [s1 + 0xb0]\n 10857: u64 [a4 + 0x8] = a3\n 10860: ra = 490, jump @1015\n      : @490 [@dyn 245] (gas: 12)\n 10866: a5 = u64 [s1 + 0xb8]\n 10870: t0 = u64 [s1 + 0xa0]\n 10874: a4 = u64 [s1 + 0xa8]\n 10878: a2 = u64 [s1 + 0xb0]\n 10882: a0 = a2 | t0\n 10885: a1 = a4 | a5\n 10888: a0 = a0 | a1\n 10891: a0 = a0 >> 0x20\n 10894: a1 = a1 | t0\n 10897: a1 = a1 << 0x20\n 10900: a0 = a0 | a1\n 10903: jump @660 if a0 != 0\n      : @491 (gas: 7)\n 10907: a1 = s1 + 0x1038\n 10911: a0 = u64 [a1 + 0x30]\n 10914: a3 = u64 [a1 + 0x40]\n 10917: u64 [s1 + 0x98] = a3\n 10921: t1 = u64 [a1 + 0x28]\n 10924: a3 = u64 [a1 + 0x38]\n 10927: fallthrough\n      : @492 (gas: 24)\n 10928: t2 = a0 ^ a4\n 10931: a5 = a0 <u a4\n 10934: ra = t1 <u a2\n 10937: a5 = ra if t2 == 0\n 10940: a1 = a3 - t0\n 10943: t2 = a1 - a5\n 10946: a1 = a1 <u a5\n 10949: a3 = a3 <u t0\n 10952: a5 = u64 [s1 + 0x98]\n 10956: a3 = a5 - a3\n 10959: a5 = u64 [s1 + 0xb8]\n 10963: a3 = a3 - a5\n 10966: a3 = a3 - a1\n 10969: a0 = a0 - a4\n 10972: a0 = a0 - ra\n 10975: a1 = t1 - a2\n 10978: a0 = a0 | a3\n 10981: a3 = a1 | t2\n 10984: a3 = a3 | a0\n 10987: a0 = a0 | t2\n 10990: a3 = a3 >> 0x20\n 10993: a0 = a0 << 0x20\n 10996: a0 = a0 | a3\n 10999: jump @660 if a0 != 0\n      : @493 (gas: 3)\n 11003: a0 = a2\n 11005: u64 [s1 + 0xb8] = a1\n 11009: ra = 492, jump @1436\n      : @494 [@dyn 246] (gas: 6)\n 11015: i32 a1 = a0 + 0\n 11017: a2 = i32 [s1 + 0xb8]\n 11021: a0 = 0\n 11023: ra = 0x310\n 11027: ecalli 7 // 'seal_return'\n 11029: jump @784\n      : @495 (gas: 1)\n 11032: t0 = 494, jump @1341\n      : @496 [@dyn 247] (gas: 4)\n 11038: ra = 0x1f0\n 11042: ecalli 10 // 'value_transferred'\n 11044: t0 = 0x1f2\n 11048: jump @1342\n      : @497 [@dyn 248] (gas: 1)\n 11051: t0 = 498, jump @1342\n      : @498 [@dyn 249] (gas: 1)\n 11057: jump @500 if a0 == 0\n      : @499 (gas: 1)\n 11060: jump @727\n      : @500 (gas: 3)\n 11063: a0 = u64 [s1 + 0xb8]\n 11067: a0 = i32 [a0]\n 11069: jump @502 if a0 >u 3\n      : @501 (gas: 1)\n 11073: jump @728\n      : @502 (gas: 1)\n 11076: ra = 500, jump @1150\n      : @503 [@dyn 250] (gas: 1)\n 11082: t0 = 502, jump @1398\n      : @504 [@dyn 251] (gas: 2)\n 11088: a0 = a0 + 0x121\n 11092: ra = 504, jump @1428\n      : @505 [@dyn 252] (gas: 5)\n 11098: a2 = s1 + 0x7ff\n 11102: a2 = a2 + 0x39\n 11105: a0 = u64 [a2 + 0xe8]\n 11109: a1 = a0 & 0xff\n 11113: jump @507 if a1 != 0\n      : @506 (gas: 1)\n 11116: jump @729\n      : @507 (gas: 5)\n 11119: a4 = u64 [a2 + 0x100]\n 11123: a3 = u64 [a2 + 0xf8]\n 11127: a2 = u64 [a2 + 0xf0]\n 11131: a5 = a0 & 0xffffffffffffff00\n 11135: t0 = 506, jump @1380\n      : @508 [@dyn 253] (gas: 1)\n 11141: ra = 508, jump @1429\n      : @509 [@dyn 254] (gas: 4)\n 11147: a0 = s1 + 0x7ff\n 11151: a0 = a0 + 0x101\n 11155: a1 = 0x40\n 11158: ra = 510, jump @1424\n      : @510 [@dyn 255] (gas: 17)\n 11164: a0 = s1 + 0x7ff\n 11168: a0 = a0 + 0x39\n 11171: a1 = u64 [a0 + 0xe0]\n 11175: u64 [s1 + 0xb0] = a1\n 11179: a1 = u64 [a0 + 0xd8]\n 11183: u64 [s1 + 0xa8] = a1\n 11187: a1 = u64 [a0 + 0xd0]\n 11191: u64 [s1 + 0xa0] = a1\n 11195: a0 = u64 [a0 + 0xc8]\n 11199: u64 [s1 + 0xb8] = a0\n 11203: a0 = 0x30280\n 11208: u64 [s1 + 0x98] = a0\n 11212: i32 a0 = a0 + 0\n 11214: ra = 0x200\n 11218: ecalli 3 // 'caller'\n 11220: t0 = 0x202\n 11224: jump @1399\n      : @511 [@dyn 256] (gas: 1)\n 11227: t0 = 514, jump @1399\n      : @512 [@dyn 257] (gas: 1)\n 11233: jump @660 if a0 != 0\n      : @513 (gas: 2)\n 11237: a2 = u64 [s1 + 0x98]\n 11241: t0 = 516, jump @1343\n      : @514 [@dyn 258] (gas: 8)\n 11247: u64 [a2 + 192] = 0\n 11251: u64 [a2 + 0xb8] = a1\n 11255: u64 [a2 + 0xb0] = a0\n 11259: a1 = s1 + 0x7ff\n 11263: a1 = a1 + 0xe1\n 11267: u64 [a2 + 0xa8] = a3\n 11271: a0 = a4\n 11273: ra = 518, jump @1426\n      : @515 [@dyn 259] (gas: 16)\n 11279: a0 = u64 [0x200c8]\n 11284: a1 = u64 [0x200d0]\n 11289: a2 = s1 + 0x7ff\n 11293: a2 = a2 + 0x39\n 11296: u64 [a2 + 0xa0] = a0\n 11300: a0 = u64 [0x200d8]\n 11305: u64 [a2 + 0x98] = a1\n 11309: a3 = u64 [0x200e0]\n 11314: u64 [a2 + 0x90] = a0\n 11318: a0 = a2\n 11320: a1 = 0x20\n 11323: a2 = s1 + 0x7ff\n 11327: a2 = a2 + 0xc1\n 11331: u64 [a0 + 0x88] = a3\n 11335: a0 = u64 [s1 + 0xb8]\n 11339: ra = 520, jump @1430\n      : @516 [@dyn 260] (gas: 4)\n 11345: a1 = 0x20280\n 11350: i32 a1 = a1 + 0\n 11352: a0 = 0\n 11354: jump @835\n      : @517 (gas: 1)\n 11357: t0 = 522, jump @1341\n      : @518 [@dyn 261] (gas: 4)\n 11363: ra = 0x20c\n 11367: ecalli 10 // 'value_transferred'\n 11369: t0 = 0x20e\n 11373: jump @1342\n      : @519 [@dyn 262] (gas: 1)\n 11376: t0 = 526, jump @1342\n      : @520 [@dyn 263] (gas: 1)\n 11382: jump @522 if a0 == 0\n      : @521 (gas: 1)\n 11385: jump @734\n      : @522 (gas: 3)\n 11388: a0 = u64 [s1 + 0xb8]\n 11392: a0 = i32 [a0]\n 11394: jump @524 if a0 >u 3\n      : @523 (gas: 1)\n 11398: jump @735\n      : @524 (gas: 1)\n 11401: t0 = 528, jump @1382\n      : @525 [@dyn 264] (gas: 2)\n 11407: a0 = s1 + 0x500\n 11411: ra = 530, jump @1428\n      : @526 [@dyn 265] (gas: 12)\n 11417: a1 = s1 + 0x500\n 11421: a0 = u64 [a1 + 0x18]\n 11424: u64 [s1 + 0xb8] = a0\n 11428: a0 = u64 [a1 + 0x10]\n 11431: u64 [s1 + 0xb0] = a0\n 11435: a0 = u64 [a1 + 0x8]\n 11438: u64 [s1 + 0xa8] = a0\n 11442: a0 = u64 [a1]\n 11444: u64 [s1 + 0xa0] = a0\n 11448: a0 = s1 + 0x4e0\n 11452: a1 = 0x40\n 11455: ra = 532, jump @1424\n      : @527 [@dyn 266] (gas: 6)\n 11461: a4 = s1 + 0x400\n 11465: a0 = u64 [a4 + 0xf8]\n 11469: a1 = u64 [a4 + 0xf0]\n 11473: a2 = u64 [a4 + 0xe8]\n 11477: a3 = u64 [a4 + 0xe0]\n 11481: t0 = 534, jump @1383\n      : @528 [@dyn 267] (gas: 1)\n 11487: jump @660 if a0 != 0\n      : @529 (gas: 14)\n 11491: a0 = u64 [s1 + 0xa0]\n 11495: a2 = s1 + 0x400\n 11499: u64 [a2 + 0xc0] = a0\n 11503: a0 = u64 [s1 + 0xa8]\n 11507: u64 [a2 + 0xc8] = a0\n 11511: a0 = u64 [s1 + 0xb0]\n 11515: u64 [a2 + 0xd0] = a0\n 11519: a1 = s1 + 0x4c0\n 11523: a0 = u64 [s1 + 0xb8]\n 11527: u64 [a2 + 0xd8] = a0\n 11531: a0 = a3\n 11533: u64 [s1 + 0xb8] = a3\n 11537: ra = 0x30c\n 11541: jump @1426\n      : @530 (gas: 1)\n 11544: jump @532 if a0 == 1889567281\n      : @531 (gas: 1)\n 11551: jump @736\n      : @532 (gas: 1)\n 11554: t0 = 536, jump @1341\n      : @533 [@dyn 268] (gas: 4)\n 11560: ra = 0x21a\n 11564: ecalli 10 // 'value_transferred'\n 11566: t0 = 0x21c\n 11570: jump @1342\n      : @534 [@dyn 269] (gas: 1)\n 11573: t0 = 540, jump @1342\n      : @535 [@dyn 270] (gas: 1)\n 11579: jump @537 if a0 == 0\n      : @536 (gas: 1)\n 11582: jump @742\n      : @537 (gas: 4)\n 11585: a0 = u64 [s1 + 0xb8]\n 11589: a0 = i32 [a0]\n 11591: a1 = 0x23\n 11594: jump @539 if a1 <u a0\n      : @538 (gas: 1)\n 11597: jump @743\n      : @539 (gas: 5)\n 11600: a0 = s1 + 0x7ff\n 11604: a0 = a0 + 0x541\n 11608: ra = 0x21e\n 11612: t0 = 0x44a\n 11616: jump @1420\n      : @540 [@dyn 271] (gas: 14)\n 11619: a3 = s1 + 0x7ff\n 11623: a3 = a3 + 0x39\n 11626: a0 = u64 [a3 + 0x508]\n 11630: a1 = u64 [a3 + 0x510]\n 11634: a2 = u32 [a3 + 0x518]\n 11638: u64 [a3 + 1280] = 0\n 11642: a4 = a3 + 0x400\n 11646: u64 [a4 + 0xf8] = a2\n 11650: u64 [a4 + 0xf0] = a1\n 11654: a1 = s1 + 0x7ff\n 11658: a1 = a1 + 0x521\n 11662: u64 [a4 + 0xe8] = a0\n 11666: a0 = 0\n 11668: ra = 544, jump @1426\n      : @541 [@dyn 272] (gas: 11)\n 11674: a0 = s1 + 0x7ff\n 11678: a0 = a0 + 0x39\n 11681: u64 [a0 + 1248] = 0\n 11685: u64 [a0 + 1240] = 0\n 11689: u64 [a0 + 1232] = 0\n 11693: a2 = a0\n 11695: a0 = 0x20\n 11698: a1 = s1 + 0x7ff\n 11702: a1 = a1 + 0x501\n 11706: u64 [a2 + 1224] = 0\n 11710: ra = 546, jump @1426\n      : @542 [@dyn 273] (gas: 2)\n 11716: a1 = i32 [0x2026c]\n 11721: jump @544 if a1 >u 63\n      : @543 (gas: 2)\n 11725: u32 [0x2026c] = 0x40\n 11731: fallthrough\n      : @544 (gas: 13)\n 11732: a0 = sp + 0xffffffffffffffe0\n 11735: a2 = a0 & 0xffffffffffffffe0\n 11738: u64 [s1 + 0xb8] = a2\n 11742: sp = a2\n 11744: a0 = 0x20280\n 11749: i32 a0 = a0 + 0\n 11751: i32 a2 = a2 + 0\n 11753: a1 = 0x40\n 11756: ra = 0x224\n 11760: ecalli 6 // 'hash_keccak_256'\n 11762: a3 = u64 [s1 + 0xb8]\n 11766: t0 = 0x226\n 11770: jump @1352\n      : @545 [@dyn 274] (gas: 2)\n 11773: a3 = u64 [s1 + 0xb8]\n 11777: t0 = 550, jump @1352\n      : @546 [@dyn 275] (gas: 3)\n 11783: a0 = s1 + 0x7ff\n 11787: a0 = a0 + 0x4e1\n 11791: ra = 552, jump @1428\n      : @547 [@dyn 276] (gas: 15)\n 11797: a1 = s1 + 0x7ff\n 11801: a1 = a1 + 0x39\n 11804: a2 = a1 + 0x400\n 11808: a0 = u64 [a2 + 0xc0]\n 11812: u64 [s1 + 0xb8] = a0\n 11816: a0 = u64 [a2 + 0xb8]\n 11820: u64 [s1 + 0xb0] = a0\n 11824: a0 = u64 [a2 + 0xb0]\n 11828: u64 [s1 + 0xa8] = a0\n 11832: a0 = u64 [a2 + 0xa8]\n 11836: u64 [s1 + 0xa0] = a0\n 11840: a0 = s1 + 0x7ff\n 11844: a0 = a0 + 0x4c1\n 11848: a1 = 0x40\n 11851: ra = 554, jump @1424\n      : @548 [@dyn 277] (gas: 4)\n 11857: a3 = s1 + 0x7ff\n 11861: a3 = a3 + 0x39\n 11864: a5 = a3 + 0x400\n 11868: t0 = 556, jump @1400\n      : @549 [@dyn 278] (gas: 1)\n 11874: jump @660 if a0 != 0\n      : @550 (gas: 15)\n 11878: a0 = u64 [s1 + 0xa0]\n 11882: a2 = a3 + 0x400\n 11886: u64 [a2 + 0x68] = a0\n 11889: a0 = u64 [s1 + 0xa8]\n 11893: u64 [a2 + 0x70] = a0\n 11896: a0 = u64 [s1 + 0xb0]\n 11900: u64 [a2 + 0x78] = a0\n 11903: a1 = s1 + 0x7ff\n 11907: a1 = a1 + 0x4a1\n 11911: a0 = u64 [s1 + 0xb8]\n 11915: u64 [a2 + 0x80] = a0\n 11919: a0 = a4\n 11921: u64 [s1 + 0xb8] = a4\n 11925: ra = 0x30c\n 11929: jump @1426\n      : @551 (gas: 1)\n 11932: t0 = 558, jump @1341\n      : @552 [@dyn 279] (gas: 4)\n 11938: ra = 0x230\n 11942: ecalli 10 // 'value_transferred'\n 11944: t0 = 0x232\n 11948: jump @1342\n      : @553 [@dyn 280] (gas: 1)\n 11951: t0 = 562, jump @1342\n      : @554 [@dyn 281] (gas: 1)\n 11957: jump @556 if a0 == 0\n      : @555 (gas: 1)\n 11960: jump @744\n      : @556 (gas: 3)\n 11963: a0 = u64 [s1 + 0xb8]\n 11967: a0 = i32 [a0]\n 11969: jump @558 if a0 >u 3\n      : @557 (gas: 1)\n 11973: jump @745\n      : @558 (gas: 1)\n 11976: ra = 564, jump @1150\n      : @559 [@dyn 282] (gas: 1)\n 11982: ra = 566, jump @1332\n      : @560 [@dyn 283] (gas: 1)\n 11988: t0 = 568, jump @1413\n      : @561 [@dyn 284] (gas: 4)\n 11994: u64 [a1 + 0] = 0x5\n 11997: a0 = s1 + 0x7ff\n 12001: a0 = a0 + 0x681\n 12005: ra = 570, jump @1428\n      : @562 [@dyn 285] (gas: 10)\n 12011: a1 = s1 + 0x7ff\n 12015: a1 = a1 + 0x39\n 12018: a5 = a1 + 0x600\n 12022: a2 = u64 [a5 + 0x50]\n 12025: a0 = u64 [a5 + 0x48]\n 12028: a3 = u64 [a5 + 0x58]\n 12031: a4 = u64 [a5 + 0x60]\n 12034: a0 = a0 & 0xffffffffffffff00\n 12038: a5 = a0 | 0x1\n 12041: t0 = 572, jump @1380\n      : @563 [@dyn 286] (gas: 1)\n 12047: ra = 574, jump @1429\n      : @564 [@dyn 287] (gas: 4)\n 12053: a0 = s1 + 0x7ff\n 12057: a0 = a0 + 0x661\n 12061: a1 = 0x40\n 12064: ra = 576, jump @1424\n      : @565 [@dyn 288] (gas: 18)\n 12070: a0 = s1 + 0x7ff\n 12074: a0 = a0 + 0x39\n 12077: a2 = a0 + 0x600\n 12081: a1 = u64 [a2 + 0x40]\n 12084: u64 [s1 + 0xb0] = a1\n 12088: a1 = u64 [a2 + 0x38]\n 12091: u64 [s1 + 0xa8] = a1\n 12095: a1 = u64 [a2 + 0x30]\n 12098: u64 [s1 + 0xa0] = a1\n 12102: a0 = u64 [a2 + 0x28]\n 12105: u64 [s1 + 0xb8] = a0\n 12109: a0 = 0x30280\n 12114: u64 [s1 + 0x98] = a0\n 12118: i32 a0 = a0 + 0\n 12120: ra = 0x242\n 12124: ecalli 3 // 'caller'\n 12126: t0 = 0x244\n 12130: jump @1399\n      : @566 [@dyn 289] (gas: 1)\n 12133: t0 = 580, jump @1399\n      : @567 [@dyn 290] (gas: 1)\n 12139: jump @660 if a0 != 0\n      : @568 (gas: 2)\n 12143: a2 = u64 [s1 + 0x98]\n 12147: t0 = 582, jump @1343\n      : @569 [@dyn 291] (gas: 9)\n 12153: u64 [a2 + 1568] = 0\n 12157: a5 = a2 + 0x600\n 12161: u64 [a5 + 0x18] = a1\n 12164: u64 [a5 + 0x10] = a0\n 12167: a1 = s1 + 0x7ff\n 12171: a1 = a1 + 0x641\n 12175: u64 [a5 + 0x8] = a3\n 12178: a0 = a4\n 12180: ra = 584, jump @1426\n      : @570 [@dyn 292] (gas: 16)\n 12186: a0 = u64 [0x20088]\n 12191: a1 = u64 [0x20090]\n 12196: a2 = s1 + 0x7ff\n 12200: a2 = a2 + 0x39\n 12203: u64 [a2 + 0x600] = a0\n 12207: a0 = u64 [0x20098]\n 12212: u64 [a2 + 0x5f8] = a1\n 12216: a3 = u64 [0x200a0]\n 12221: u64 [a2 + 0x5f0] = a0\n 12225: a0 = a2\n 12227: a1 = 0x20\n 12230: a2 = s1 + 0x7ff\n 12234: a2 = a2 + 0x621\n 12238: u64 [a0 + 0x5e8] = a3\n 12242: a0 = u64 [s1 + 0xb8]\n 12246: ra = 586, jump @1430\n      : @571 [@dyn 293] (gas: 4)\n 12252: a1 = 0x20280\n 12257: i32 a1 = a1 + 0\n 12259: a0 = 0\n 12261: jump @835\n      : @572 (gas: 6)\n 12264: i32 a1 = a1 + 0\n 12266: a0 = 0\n 12268: a2 = 0\n 12270: ra = 0x33e\n 12274: ecalli 7 // 'seal_return'\n 12276: jump @836\n      : @573 (gas: 1)\n 12279: t0 = 588, jump @1341\n      : @574 [@dyn 294] (gas: 4)\n 12285: ra = 0x24e\n 12289: ecalli 10 // 'value_transferred'\n 12291: t0 = 0x250\n 12295: jump @1342\n      : @575 [@dyn 295] (gas: 1)\n 12298: t0 = 592, jump @1342\n      : @576 [@dyn 296] (gas: 1)\n 12304: jump @578 if a0 == 0\n      : @577 (gas: 1)\n 12307: jump @746\n      : @578 (gas: 3)\n 12310: a0 = u64 [s1 + 0xb8]\n 12314: a0 = i32 [a0]\n 12316: jump @580 if a0 >u 35\n      : @579 (gas: 1)\n 12320: jump @747\n      : @580 (gas: 19)\n 12323: a0 = sp + 0xffffffffffffffe0\n 12326: a0 = a0 & 0xffffffffffffffe0\n 12329: u64 [s1 + 0xb8] = a0\n 12333: sp = a0\n 12335: i32 a0 = a0 + 0\n 12337: a1 = 0x4\n 12340: ecalli 1 // 'call_data_load'\n 12342: a3 = u64 [s1 + 0xb8]\n 12346: a2 = u64 [a3]\n 12348: a0 = u64 [a3 + 0x8]\n 12351: a1 = u64 [a3 + 0x10]\n 12354: a3 = u64 [a3 + 0x18]\n 12357: u64 [s1 + 0x6b8] = a3\n 12361: u64 [s1 + 0x6b0] = a1\n 12365: u64 [s1 + 0x6a8] = a0\n 12369: a0 = s1 + 0x6c0\n 12373: a1 = s1 + 0x6a0\n 12377: u64 [s1 + 0x6a0] = a2\n 12381: ra = 594, jump @1044\n      : @581 [@dyn 297] (gas: 11)\n 12387: a0 = u64 [s1 + 0x6d8]\n 12391: u64 [s1 + 0xb8] = a0\n 12395: a0 = u64 [s1 + 0x6d0]\n 12399: u64 [s1 + 0xb0] = a0\n 12403: a0 = u64 [s1 + 0x6c8]\n 12407: u64 [s1 + 0xa8] = a0\n 12411: a0 = u64 [s1 + 0x6c0]\n 12415: u64 [s1 + 0xa0] = a0\n 12419: a0 = s1 + 0x680\n 12423: a1 = 0x40\n 12426: ra = 596, jump @1424\n      : @582 [@dyn 298] (gas: 6)\n 12432: a4 = s1 + 0x600\n 12436: a0 = u64 [a4 + 0x98]\n 12440: a1 = u64 [a4 + 0x90]\n 12444: a2 = u64 [a4 + 0x88]\n 12448: a3 = u64 [a4 + 0x80]\n 12452: t0 = 598, jump @1383\n      : @583 [@dyn 299] (gas: 1)\n 12458: jump @660 if a0 != 0\n      : @584 (gas: 14)\n 12462: a0 = u64 [s1 + 0xa0]\n 12466: a2 = s1 + 0x600\n 12470: u64 [a2 + 0x60] = a0\n 12473: a0 = u64 [s1 + 0xa8]\n 12477: u64 [a2 + 0x68] = a0\n 12480: a0 = u64 [s1 + 0xb0]\n 12484: u64 [a2 + 0x70] = a0\n 12487: a1 = s1 + 0x660\n 12491: a0 = u64 [s1 + 0xb8]\n 12495: u64 [a2 + 0x78] = a0\n 12498: a0 = a3\n 12500: u64 [s1 + 0xb8] = a3\n 12504: ra = 0x30c\n 12508: jump @1426\n      : @585 (gas: 1)\n 12511: t0 = 600, jump @1341\n      : @586 [@dyn 300] (gas: 4)\n 12517: ra = 0x25a\n 12521: ecalli 10 // 'value_transferred'\n 12523: t0 = 0x25c\n 12527: jump @1342\n      : @587 [@dyn 301] (gas: 1)\n 12530: t0 = 604, jump @1342\n      : @588 [@dyn 302] (gas: 1)\n 12536: jump @590 if a0 == 0\n      : @589 (gas: 1)\n 12539: jump @748\n      : @590 (gas: 4)\n 12542: a0 = u64 [s1 + 0xb8]\n 12546: a0 = i32 [a0]\n 12548: a1 = 0x43\n 12551: jump @592 if a1 <u a0\n      : @591 (gas: 1)\n 12554: jump @749\n      : @592 (gas: 4)\n 12557: a0 = s1 + 0x1260\n 12561: ra = 0x25e\n 12565: t0 = 0x44a\n 12569: jump @1420\n      : @593 [@dyn 303] (gas: 20)\n 12572: a1 = s1 + 0x1038\n 12576: a2 = a1 + 0x200\n 12580: a0 = u64 [a2 + 0x28]\n 12583: u64 [s1 + 0xb8] = a0\n 12587: a0 = u64 [a2 + 0x30]\n 12590: u64 [s1 + 0xb0] = a0\n 12594: a0 = u64 [a2 + 0x38]\n 12597: u64 [s1 + 0xa8] = a0\n 12601: a0 = u64 [a2 + 0x40]\n 12604: u64 [s1 + 0xa0] = a0\n 12608: a0 = sp + 0xffffffffffffffe0\n 12611: a0 = a0 & 0xffffffffffffffe0\n 12614: u64 [s1 + 0x80] = a0\n 12618: sp = a0\n 12620: i32 a0 = a0 + 0\n 12622: a1 = 0x24\n 12625: ra = 0x260\n 12629: ecalli 1 // 'call_data_load'\n 12631: t0 = 0x262\n 12635: jump @1394\n      : @594 [@dyn 304] (gas: 1)\n 12638: t0 = 610, jump @1394\n      : @595 [@dyn 305] (gas: 7)\n 12644: a0 = 0x30280\n 12649: u64 [s1 + 0x78] = a0\n 12652: i32 a0 = a0 + 0\n 12654: ra = 0x264\n 12658: ecalli 3 // 'caller'\n 12660: t0 = 0x266\n 12664: jump @1377\n      : @596 [@dyn 306] (gas: 1)\n 12667: t0 = 614, jump @1377\n      : @597 [@dyn 307] (gas: 27)\n 12673: a3 = s1 + 0x1038\n 12677: a4 = u64 [s1 + 0x80]\n 12681: a5 = a3 + 0x100\n 12685: u64 [a5 + 0xe0] = a4\n 12689: a4 = u64 [s1 + 0x88]\n 12693: u64 [a5 + 0xd8] = a4\n 12697: a4 = u64 [s1 + 0x90]\n 12701: u64 [a5 + 0xd0] = a4\n 12705: a4 = u64 [s1 + 0x98]\n 12709: u64 [a5 + 0xc8] = a4\n 12713: a4 = u64 [s1 + 0xa0]\n 12717: u64 [a3 + 0x200] = a4\n 12721: a4 = u64 [s1 + 0xa8]\n 12725: u64 [a5 + 0xf8] = a4\n 12729: a4 = u64 [s1 + 0xb0]\n 12733: u64 [a5 + 0xf0] = a4\n 12737: a4 = u64 [s1 + 0xb8]\n 12741: u64 [a5 + 0xe8] = a4\n 12745: a4 = a3 + 0x200\n 12749: u64 [a4 + 0x18] = a2\n 12752: u64 [a4 + 0x10] = a0\n 12755: u64 [a4 + 0x8] = a1\n 12758: a0 = s1 + 0x1240\n 12762: a1 = s1 + 0x1220\n 12766: a2 = s1 + 0x1200\n 12770: u64 [a3 + 544] = 0\n 12774: ra = 616, jump @1097\n      : @598 [@dyn 308] (gas: 3)\n 12780: a0 = s1 + 0x11e0\n 12784: a1 = 0x40\n 12787: ra = 618, jump @1424\n      : @599 [@dyn 309] (gas: 7)\n 12793: a3 = s1 + 0x1038\n 12797: a5 = a3 + 0x100\n 12801: a4 = u64 [a5 + 0xc0]\n 12805: a1 = u64 [a5 + 0xb8]\n 12809: a2 = u64 [a5 + 0xb0]\n 12813: a0 = u64 [a5 + 0xa8]\n 12817: t0 = 620, jump @1364\n      : @600 [@dyn 310] (gas: 1)\n 12823: jump @660 if a1 != 0\n      : @601 (gas: 8)\n 12827: u64 [a3 + 416] = 0\n 12831: u64 [a3 + 408] = 0\n 12835: u64 [a3 + 392] = 0x1\n 12840: a1 = s1 + 0x11c0\n 12844: u64 [a3 + 400] = 0\n 12848: u64 [s1 + 0xb8] = a0\n 12852: ra = 0x30c\n 12856: jump @1426\n      : @602 (gas: 1)\n 12859: t0 = 622, jump @1341\n      : @603 [@dyn 311] (gas: 4)\n 12865: ra = 0x270\n 12869: ecalli 10 // 'value_transferred'\n 12871: t0 = 0x272\n 12875: jump @1342\n      : @604 [@dyn 312] (gas: 1)\n 12878: t0 = 626, jump @1342\n      : @605 [@dyn 313] (gas: 1)\n 12884: jump @750 if a0 != 0\n      : @606 (gas: 4)\n 12888: a0 = u64 [s1 + 0xb8]\n 12892: a0 = i32 [a0]\n 12894: a1 = 0x63\n 12897: jump @751 if a1 >=u a0\n      : @607 (gas: 4)\n 12901: a0 = s1 + 0x640\n 12905: ra = 0x274\n 12909: t0 = 0x44a\n 12913: jump @1420\n      : @608 [@dyn 314] (gas: 12)\n 12916: a0 = u64 [s1 + 0x640]\n 12920: u64 [s1 + 0xb8] = a0\n 12924: a0 = u64 [s1 + 0x648]\n 12928: u64 [s1 + 0xb0] = a0\n 12932: a0 = u64 [s1 + 0x650]\n 12936: u64 [s1 + 0xa8] = a0\n 12940: a0 = u64 [s1 + 0x658]\n 12944: u64 [s1 + 0xa0] = a0\n 12948: a0 = s1 + 0x620\n 12952: ra = 0x276\n 12956: t0 = 0x454\n 12960: jump @1420\n      : @609 [@dyn 315] (gas: 18)\n 12963: a0 = u64 [s1 + 0x620]\n 12967: u64 [s1 + 0x78] = a0\n 12970: a0 = u64 [s1 + 0x628]\n 12974: u64 [s1 + 0x70] = a0\n 12977: a0 = u64 [s1 + 0x630]\n 12981: u64 [s1 + 0x68] = a0\n 12984: a0 = u64 [s1 + 0x638]\n 12988: u64 [s1 + 0x60] = a0\n 12991: a0 = sp + 0xffffffffffffffe0\n 12994: a0 = a0 & 0xffffffffffffffe0\n 12997: u64 [s1 + 0x80] = a0\n 13001: sp = a0\n 13003: i32 a0 = a0 + 0\n 13005: a1 = 0x44\n 13008: ra = 0x278\n 13012: ecalli 1 // 'call_data_load'\n 13014: t0 = 0x27a\n 13018: jump @1394\n      : @610 [@dyn 316] (gas: 1)\n 13021: t0 = 634, jump @1394\n      : @611 [@dyn 317] (gas: 8)\n 13027: a0 = 0x30280\n 13032: u64 [s1 + 0x58] = a0\n 13035: i32 a0 = a0 + 0\n 13037: ra = 0x27c\n 13041: ecalli 3 // 'caller'\n 13043: a2 = u64 [s1 + 0x58]\n 13046: t0 = 0x27e\n 13050: jump @1345\n      : @612 [@dyn 318] (gas: 2)\n 13053: a2 = u64 [s1 + 0x58]\n 13056: t0 = 638, jump @1345\n      : @613 [@dyn 319] (gas: 25)\n 13062: a2 = u64 [s1 + 0x80]\n 13066: u64 [s1 + 0x5d8] = a2\n 13070: a2 = u64 [s1 + 0x88]\n 13074: u64 [s1 + 0x5d0] = a2\n 13078: a2 = u64 [s1 + 0x90]\n 13082: u64 [s1 + 0x5c8] = a2\n 13086: a2 = u64 [s1 + 0x98]\n 13090: u64 [s1 + 0x5c0] = a2\n 13094: u64 [s1 + 1528] = 0\n 13098: a2 = u64 [s1 + 0xa0]\n 13102: a4 = s1 + 0x600\n 13106: u64 [a4 + 0x18] = a2\n 13109: a2 = u64 [s1 + 0xa8]\n 13113: u64 [a4 + 0x10] = a2\n 13116: a2 = u64 [s1 + 0xb0]\n 13120: u64 [a4 + 0x8] = a2\n 13123: a2 = u64 [s1 + 0xb8]\n 13127: u64 [a4] = a2\n 13129: u64 [s1 + 0x5f0] = a1\n 13133: u64 [s1 + 0x5e8] = a0\n 13137: a0 = s1 + 0x600\n 13141: a1 = s1 + 0x5e0\n 13145: a2 = s1 + 0x5c0\n 13149: u64 [s1 + 0x5e0] = a3\n 13153: ra = 640, jump @1050\n      : @614 [@dyn 320] (gas: 28)\n 13159: a0 = u64 [s1 + 0x80]\n 13163: u64 [s1 + 0x578] = a0\n 13167: a0 = u64 [s1 + 0x88]\n 13171: u64 [s1 + 0x570] = a0\n 13175: a0 = u64 [s1 + 0x90]\n 13179: u64 [s1 + 0x568] = a0\n 13183: a0 = u64 [s1 + 0x98]\n 13187: u64 [s1 + 0x560] = a0\n 13191: a0 = u64 [s1 + 0x60]\n 13194: u64 [s1 + 0x598] = a0\n 13198: a0 = u64 [s1 + 0x68]\n 13201: u64 [s1 + 0x590] = a0\n 13205: a0 = u64 [s1 + 0x70]\n 13208: u64 [s1 + 0x588] = a0\n 13212: a0 = u64 [s1 + 0x78]\n 13215: u64 [s1 + 0x580] = a0\n 13219: a0 = u64 [s1 + 0xa0]\n 13223: u64 [s1 + 0x5b8] = a0\n 13227: a0 = u64 [s1 + 0xa8]\n 13231: u64 [s1 + 0x5b0] = a0\n 13235: a0 = u64 [s1 + 0xb0]\n 13239: u64 [s1 + 0x5a8] = a0\n 13243: a0 = s1 + 0x5a0\n 13247: a1 = s1 + 0x580\n 13251: a2 = s1 + 0x560\n 13255: a3 = u64 [s1 + 0xb8]\n 13259: u64 [s1 + 0x5a0] = a3\n 13263: ra = 642, jump @1097\n      : @615 [@dyn 321] (gas: 3)\n 13269: a0 = s1 + 0x540\n 13273: a1 = 0x40\n 13276: ra = 644, jump @1424\n      : @616 [@dyn 322] (gas: 6)\n 13282: a4 = s1 + 0x500\n 13286: a3 = u64 [a4 + 0x58]\n 13289: a1 = u64 [a4 + 0x50]\n 13292: a2 = u64 [a4 + 0x48]\n 13295: a0 = u64 [a4 + 0x40]\n 13298: t0 = 646, jump @1365\n      : @617 [@dyn 323] (gas: 1)\n 13304: jump @660 if a1 != 0\n      : @618 (gas: 8)\n 13308: u64 [s1 + 1336] = 0\n 13312: u64 [s1 + 1328] = 0\n 13316: u64 [s1 + 1320] = 0\n 13320: a1 = s1 + 0x520\n 13324: u64 [s1 + 1312] = 0x1\n 13329: u64 [s1 + 0xb8] = a0\n 13333: ra = 0x30c\n 13337: jump @1426\n      : @619 (gas: 1)\n 13340: t0 = 648, jump @1341\n      : @620 [@dyn 324] (gas: 4)\n 13346: ra = 0x28a\n 13350: ecalli 10 // 'value_transferred'\n 13352: t0 = 0x28c\n 13356: jump @1342\n      : @621 [@dyn 325] (gas: 1)\n 13359: t0 = 652, jump @1342\n      : @622 [@dyn 326] (gas: 1)\n 13365: jump @752 if a0 != 0\n      : @623 (gas: 3)\n 13369: a0 = u64 [s1 + 0xb8]\n 13373: a0 = i32 [a0]\n 13375: jump @753 if a0 <=u 3\n      : @624 (gas: 3)\n 13380: a0 = s1 + 0x14e0\n 13384: a1 = 0x40\n 13387: ra = 654, jump @1424\n      : @625 [@dyn 327] (gas: 7)\n 13393: a3 = s1 + 0x1038\n 13397: a5 = a3 + 0x400\n 13401: a4 = u64 [a5 + 0xc0]\n 13405: a1 = u64 [a5 + 0xb8]\n 13409: a2 = u64 [a5 + 0xb0]\n 13413: a0 = u64 [a5 + 0xa8]\n 13417: t0 = 656, jump @1364\n      : @626 [@dyn 328] (gas: 1)\n 13423: jump @660 if a1 != 0\n      : @627 (gas: 13)\n 13427: a1 = u64 [0x20028]\n 13432: a5 = a3 + 0x400\n 13436: u64 [a5 + 0xa0] = a1\n 13440: a4 = u64 [0x20030]\n 13445: a1 = u64 [0x20038]\n 13450: a2 = u64 [0x20040]\n 13455: u64 [a5 + 0x98] = a4\n 13459: u64 [a5 + 0x90] = a1\n 13463: a1 = s1 + 0x14c0\n 13467: u64 [a5 + 0x88] = a2\n 13471: u64 [s1 + 0xb8] = a0\n 13475: ra = 0x30c\n 13479: jump @1426\n      : @628 (gas: 1)\n 13482: t0 = 658, jump @1341\n      : @629 [@dyn 329] (gas: 4)\n 13488: ra = 0x294\n 13492: ecalli 10 // 'value_transferred'\n 13494: t0 = 0x296\n 13498: jump @1342\n      : @630 [@dyn 330] (gas: 1)\n 13501: t0 = 662, jump @1342\n      : @631 [@dyn 331] (gas: 1)\n 13507: jump @754 if a0 != 0\n      : @632 (gas: 4)\n 13511: a0 = u64 [s1 + 0xb8]\n 13515: a0 = i32 [a0]\n 13517: a1 = 0x43\n 13520: jump @755 if a1 >=u a0\n      : @633 (gas: 4)\n 13524: a0 = s1 + 0x4a0\n 13528: ra = 0x298\n 13532: t0 = 0x44a\n 13536: jump @1420\n      : @634 [@dyn 332] (gas: 34)\n 13539: a1 = s1 + 0x400\n 13543: a0 = u64 [a1 + 0xb0]\n 13547: u64 [s1 + 0x98] = a0\n 13551: a0 = u64 [a1 + 0xa8]\n 13555: u64 [s1 + 0xb0] = a0\n 13559: a0 = u64 [a1 + 0xa0]\n 13563: u64 [s1 + 0xb8] = a0\n 13567: a0 = sp + 0xffffffffffffffe0\n 13570: a0 = a0 & 0xffffffffffffffe0\n 13573: u64 [s1 + 0xa8] = a0\n 13577: sp = a0\n 13579: a0 = sp + 0xffffffffffffffe0\n 13582: a0 = a0 & 0xffffffffffffffe0\n 13585: u64 [s1 + 0xa0] = a0\n 13589: sp = a0\n 13591: i32 a0 = a0 + 0\n 13593: a1 = 0x24\n 13596: ecalli 1 // 'call_data_load'\n 13598: a3 = u64 [s1 + 0xa0]\n 13602: a0 = u64 [a3 + 0x18]\n 13605: a1 = u64 [a3 + 0x10]\n 13608: a2 = u64 [a3 + 0x8]\n 13611: a3 = u64 [a3]\n 13613: a4 = u64 [s1 + 0xa8]\n 13617: u64 [a4 + 0x18] = a0\n 13620: u64 [a4 + 0x10] = a1\n 13623: u64 [a4 + 0x8] = a2\n 13626: u64 [a4] = a3\n 13628: a0 = 0x30280\n 13633: u64 [s1 + 0xa0] = a0\n 13637: i32 a0 = a0 + 0\n 13639: u64 [s1 + 0x90] = a0\n 13643: ecalli 3 // 'caller'\n 13645: fallthrough\n      : @635 (gas: 7)\n 13646: a2 = u64 [s1 + 0xa0]\n 13650: a0 = u32 [a2 + 0x10]\n 13653: a1 = u64 [a2]\n 13655: a2 = u64 [a2 + 0x8]\n 13658: a0 = a0 | a1\n 13661: a0 = a0 | a2\n 13664: jump @756 if a0 == 0\n      : @636 (gas: 9)\n 13668: a0 = u64 [s1 + 0x98]\n 13672: a0 = a0 << 0x20\n 13675: a1 = a0 >> 0x20\n 13678: a0 = u64 [s1 + 0xb0]\n 13682: a2 = u64 [s1 + 0xb8]\n 13686: a0 = a0 | a2\n 13689: u64 [s1 + 0x98] = a1\n 13693: a0 = a0 | a1\n 13696: jump @761 if a0 == 0\n      : @637 (gas: 6)\n 13700: a0 = u64 [s1 + 0x90]\n 13704: ra = 0x29a\n 13708: ecalli 3 // 'caller'\n 13710: a2 = u64 [s1 + 0xa0]\n 13714: t0 = 0x29c\n 13718: jump @1345\n      : @638 [@dyn 333] (gas: 2)\n 13721: a2 = u64 [s1 + 0xa0]\n 13725: t0 = 668, jump @1345\n      : @639 [@dyn 334] (gas: 7)\n 13731: u64 [s1 + 1176] = 0\n 13735: u64 [s1 + 0x490] = a1\n 13739: u64 [s1 + 0x488] = a0\n 13743: a1 = s1 + 0x480\n 13747: u64 [s1 + 0x480] = a3\n 13751: a0 = 0\n 13753: ra = 670, jump @1426\n      : @640 [@dyn 335] (gas: 7)\n 13759: u64 [s1 + 1144] = 0\n 13763: u64 [s1 + 1136] = 0\n 13767: u64 [s1 + 1120] = 0x1\n 13772: a0 = 0x20\n 13775: a1 = s1 + 0x460\n 13779: u64 [s1 + 1128] = 0\n 13783: ra = 672, jump @1426\n      : @641 [@dyn 336] (gas: 3)\n 13789: a1 = 0x2026c\n 13794: a0 = i32 [0x2026c]\n 13799: jump @643 if a0 >u 63\n      : @642 (gas: 2)\n 13803: u32 [0x2026c] = 0x40\n 13809: fallthrough\n      : @643 (gas: 15)\n 13810: a0 = sp + 0xffffffffffffffe0\n 13813: a2 = a0 & 0xffffffffffffffe0\n 13816: u64 [s1 + 0x78] = a2\n 13819: sp = a2\n 13821: a0 = 0x20280\n 13826: i32 a0 = a0 + 0\n 13828: i32 a2 = a2 + 0\n 13830: u64 [s1 + 0x88] = a1\n 13834: a1 = 0x40\n 13837: u64 [s1 + 0x80] = a0\n 13841: ra = 0x2a2\n 13845: ecalli 6 // 'hash_keccak_256'\n 13847: a3 = u64 [s1 + 0x78]\n 13850: t0 = 0x2a4\n 13854: jump @1397\n      : @644 [@dyn 337] (gas: 2)\n 13857: a3 = u64 [s1 + 0x78]\n 13860: t0 = 676, jump @1397\n      : @645 [@dyn 338] (gas: 21)\n 13866: u64 [s1 + 0x70] = a0\n 13869: a0 = reverse a1\n 13871: u64 [s1 + 0x68] = a0\n 13874: a0 = reverse a2\n 13876: u64 [s1 + 0x60] = a0\n 13879: a0 = reverse a3\n 13881: u64 [s1 + 0x58] = a0\n 13884: a0 = sp + 0xffffffffffffffe0\n 13887: a0 = a0 & 0xffffffffffffffe0\n 13890: u64 [s1 + 0x78] = a0\n 13893: sp = a0\n 13895: u64 [s1 + 1112] = 0\n 13899: a0 = u64 [s1 + 0x98]\n 13903: u64 [s1 + 0x450] = a0\n 13907: a0 = u64 [s1 + 0xb0]\n 13911: u64 [s1 + 0x448] = a0\n 13915: a1 = s1 + 0x440\n 13919: a0 = u64 [s1 + 0xb8]\n 13923: u64 [s1 + 0x440] = a0\n 13927: a0 = 0\n 13929: ra = 678, jump @1426\n      : @646 [@dyn 339] (gas: 12)\n 13935: a0 = u64 [s1 + 0x58]\n 13938: a3 = s1 + 0x400\n 13942: u64 [a3 + 0x38] = a0\n 13945: a0 = u64 [s1 + 0x60]\n 13948: u64 [a3 + 0x30] = a0\n 13951: a0 = u64 [s1 + 0x68]\n 13954: u64 [a3 + 0x28] = a0\n 13957: a0 = 0x20\n 13960: a1 = s1 + 0x420\n 13964: a2 = u64 [s1 + 0x70]\n 13967: u64 [a3 + 0x20] = a2\n 13970: ra = 680, jump @1426\n      : @647 [@dyn 340] (gas: 3)\n 13976: a1 = u64 [s1 + 0x88]\n 13980: a0 = i32 [a1]\n 13982: jump @649 if a0 >u 63\n      : @648 (gas: 2)\n 13986: u32 [a1 + 0] = 0x40\n 13989: fallthrough\n      : @649 (gas: 24)\n 13990: a0 = sp + 0xffffffffffffffe0\n 13993: a0 = a0 & 0xffffffffffffffe0\n 13996: u64 [s1 + 0x88] = a0\n 14000: sp = a0\n 14002: i32 a2 = a0 + 0\n 14004: a1 = 0x40\n 14007: a0 = u64 [s1 + 0x80]\n 14011: ecalli 6 // 'hash_keccak_256'\n 14013: a3 = u64 [s1 + 0x88]\n 14017: a0 = u64 [a3 + 0x18]\n 14020: a1 = u64 [a3 + 0x10]\n 14023: a2 = u64 [a3 + 0x8]\n 14026: a3 = u64 [a3]\n 14028: a4 = reverse a0\n 14030: a1 = reverse a1\n 14032: a2 = reverse a2\n 14034: a3 = reverse a3\n 14036: a0 = u64 [s1 + 0x78]\n 14039: u64 [a0 + 0x18] = a3\n 14042: u64 [a0 + 0x10] = a2\n 14045: u64 [a0 + 0x8] = a1\n 14048: u64 [a0] = a4\n 14050: a1 = u64 [s1 + 0xa8]\n 14054: ra = 682, jump @1429\n      : @650 [@dyn 341] (gas: 3)\n 14060: a0 = s1 + 0x400\n 14064: a1 = 0x40\n 14067: ra = 684, jump @1424\n      : @651 [@dyn 342] (gas: 6)\n 14073: a4 = s1 + 0x400\n 14077: a3 = u64 [a4 + 0x18]\n 14080: a1 = u64 [a4 + 0x10]\n 14083: a2 = u64 [a4 + 0x8]\n 14086: a0 = u64 [a4]\n 14088: t0 = 686, jump @1365\n      : @652 [@dyn 343] (gas: 1)\n 14094: jump @660 if a1 != 0\n      : @653 (gas: 12)\n 14098: a3 = u64 [s1 + 0xa8]\n 14102: a4 = u64 [a3]\n 14104: a1 = u64 [a3 + 0x8]\n 14107: a2 = u64 [a3 + 0x10]\n 14110: a3 = u64 [a3 + 0x18]\n 14113: u64 [s1 + 0x3f8] = a3\n 14117: u64 [s1 + 0x3f0] = a2\n 14121: u64 [s1 + 0x3e8] = a1\n 14125: a1 = s1 + 0x3e0\n 14129: u64 [s1 + 0x3e0] = a4\n 14133: u64 [s1 + 0xa8] = a0\n 14137: ra = 688, jump @1426\n      : @654 [@dyn 344] (gas: 6)\n 14143: a0 = u64 [s1 + 0x90]\n 14147: ra = 0x2b2\n 14151: ecalli 3 // 'caller'\n 14153: a2 = u64 [s1 + 0xa0]\n 14157: t0 = 0x2b4\n 14161: jump @1349\n      : @655 [@dyn 345] (gas: 2)\n 14164: a2 = u64 [s1 + 0xa0]\n 14168: t0 = 692, jump @1349\n      : @656 [@dyn 346] (gas: 31)\n 14174: t0 = a1 | a0\n 14177: a3 = a3 >> 0x20\n 14180: a2 = reverse a2\n 14182: a1 = a2 << 0x20\n 14185: a1 = a1 | a3\n 14188: a2 = a2 >> 0x20\n 14191: u64 [s1 + 920] = 0\n 14195: a0 = u64 [s1 + 0x98]\n 14199: u64 [s1 + 0x390] = a0\n 14203: a0 = u64 [s1 + 0xb0]\n 14207: u64 [s1 + 0x388] = a0\n 14211: a0 = u64 [s1 + 0xb8]\n 14215: u64 [s1 + 0x380] = a0\n 14219: u64 [s1 + 952] = 0\n 14223: a3 = u64 [0x200e8]\n 14228: a4 = u64 [0x200f0]\n 14233: a5 = u64 [0x200f8]\n 14238: a0 = u64 [0x20100]\n 14243: u64 [s1 + 0x3d8] = a3\n 14247: u64 [s1 + 0x3d0] = a4\n 14251: u64 [s1 + 0x3c8] = a5\n 14255: u64 [s1 + 0x3c0] = a0\n 14259: u64 [s1 + 0x3b0] = a2\n 14263: u64 [s1 + 0x3a8] = a1\n 14267: a1 = 0x20\n 14270: a2 = s1 + 0x3c0\n 14274: a3 = s1 + 0x3a0\n 14278: a4 = s1 + 0x380\n 14282: u64 [s1 + 0x3a0] = t0\n 14286: a0 = u64 [s1 + 0xa8]\n 14290: ra = 694, jump @1432\n      : @657 [@dyn 347] (gas: 3)\n 14296: a0 = s1 + 0x360\n 14300: a1 = 0x40\n 14303: ra = 696, jump @1424\n      : @658 [@dyn 348] (gas: 6)\n 14309: a4 = s1 + 0x300\n 14313: a3 = u64 [a4 + 0x78]\n 14316: a1 = u64 [a4 + 0x70]\n 14319: a2 = u64 [a4 + 0x68]\n 14322: a0 = u64 [a4 + 0x60]\n 14325: t0 = 698, jump @1365\n      : @659 [@dyn 349] (gas: 1)\n 14331: jump @780 if a1 == 0\n      : @660 (gas: 1)\n 14335: trap\n      : @661 (gas: 7)\n 14336: u64 [s1 + 600] = 0\n 14340: u64 [s1 + 592] = 0\n 14344: u64 [s1 + 584] = 0\n 14348: a1 = s1 + 0x240\n 14352: u64 [s1 + 576] = 0x3\n 14357: a0 = 0\n 14359: ra = 700, jump @1426\n      : @662 [@dyn 350] (gas: 34)\n 14365: a0 = sp + 0xffffffffffffffe0\n 14368: t1 = a0 & 0xffffffffffffffe0\n 14371: sp = t1\n 14373: ra = 0\n 14375: t2 = 0\n 14377: t0 = 0\n 14379: a5 = 0\n 14381: a0 = u64 [0x20108]\n 14386: a1 = u64 [0x20110]\n 14391: a2 = u64 [0x20118]\n 14396: a3 = u64 [0x20120]\n 14401: a4 = t1\n 14403: u64 [a4 + 0x18] = a0\n 14406: u64 [a4 + 0x10] = a1\n 14409: u64 [a4 + 0x8] = a2\n 14412: u64 [a4] = a3\n 14414: a1 = u64 [s1 + 0x50]\n 14417: a0 = a1 + 0x20\n 14420: u64 [s1 + 0x78] = a0\n 14423: a0 = a0 <u a1\n 14426: a1 = u64 [s1 + 0x48]\n 14429: a2 = a1 + a0\n 14432: u64 [s1 + 0x70] = a2\n 14435: a1 = a2 <u a1\n 14438: a1 = a0 if a0 == 0\n 14441: a0 = u64 [s1 + 0x40]\n 14444: a1 = a1 + a0\n 14447: u64 [s1 + 0x68] = a1\n 14450: a0 = a1 <u a0\n 14453: a1 = u64 [s1 + 0x38]\n 14456: a0 = a0 + a1\n 14459: u64 [s1 + 0x60] = a0\n 14462: u64 [s1 + 0x58] = a4\n 14465: fallthrough\n      : @663 (gas: 16)\n 14466: a0 = u64 [s1 + 0x98]\n 14470: a0 = ra <u a0\n 14473: a2 = u64 [s1 + 0x88]\n 14477: a1 = t2 ^ a2\n 14480: a2 = t2 <u a2\n 14483: a2 = a0 if a1 == 0\n 14486: a4 = u64 [s1 + 0x90]\n 14490: a0 = t0 <u a4\n 14493: a3 = u64 [s1 + 0x80]\n 14497: a1 = a5 ^ a3\n 14500: a3 = a5 <u a3\n 14503: a3 = a0 if a1 == 0\n 14506: a0 = t0 ^ a4\n 14509: a0 = a0 | a1\n 14512: a3 = a2 if a0 == 0\n 14515: jump @665 if a3 != 0\n      : @664 (gas: 1)\n 14518: jump @401\n      : @665 (gas: 7)\n 14521: a0 = s1 + 0x220\n 14525: a1 = t1\n 14527: u64 [s1 + 0xb8] = a5\n 14531: u64 [s1 + 0xb0] = t0\n 14535: u64 [s1 + 0xa8] = t2\n 14539: u64 [s1 + 0xa0] = ra\n 14543: ra = 702, jump @1428\n      : @666 [@dyn 351] (gas: 1)\n 14549: t0 = 704, jump @1369\n      : @667 [@dyn 352] (gas: 6)\n 14555: t0 = a1 <u a5\n 14558: a5 = u64 [s1 + 0xb8]\n 14562: a3 = u64 [s1 + 0x60]\n 14565: a5 = a5 + a3\n 14568: a5 = a5 + t0\n 14571: t0 = 706, jump @1401\n      : @668 [@dyn 353] (gas: 1)\n 14577: jump @660 if a1 != 0\n      : @669 (gas: 11)\n 14581: a3 = s1 + 0x200\n 14585: a2 = u64 [a3 + 0x38]\n 14588: a1 = u64 [a3 + 0x30]\n 14591: a5 = u64 [a3 + 0x28]\n 14594: a4 = u64 [a3 + 0x20]\n 14597: u64 [a3] = a4\n 14599: u64 [a3 + 0x8] = a5\n 14602: u64 [a3 + 0x10] = a1\n 14605: a1 = s1 + 0x200\n 14609: u64 [a3 + 0x18] = a2\n 14612: ra = 708, jump @1426\n      : @670 [@dyn 354] (gas: 1)\n 14618: t0 = 710, jump @1347\n      : @671 [@dyn 355] (gas: 2)\n 14624: t0 = a3\n 14626: jump @663\n      : @672 (gas: 8)\n 14629: a2 = s1 + 0x1038\n 14633: u64 [a2 + 224] = 0\n 14637: u64 [a2 + 216] = 0\n 14641: u64 [a2 + 208] = 0\n 14645: a1 = s1 + 0x1100\n 14649: u64 [a2 + 200] = 0x4\n 14654: a0 = 0\n 14656: ra = 712, jump @1426\n      : @673 [@dyn 356] (gas: 34)\n 14662: a0 = sp + 0xffffffffffffffe0\n 14665: t1 = a0 & 0xffffffffffffffe0\n 14668: sp = t1\n 14670: ra = 0\n 14672: t2 = 0\n 14674: t0 = 0\n 14676: a5 = 0\n 14678: a0 = u64 [0x20068]\n 14683: a1 = u64 [0x20070]\n 14688: a2 = u64 [0x20078]\n 14693: a3 = u64 [0x20080]\n 14698: a4 = t1\n 14700: u64 [a4 + 0x18] = a0\n 14703: u64 [a4 + 0x10] = a1\n 14706: u64 [a4 + 0x8] = a2\n 14709: u64 [a4] = a3\n 14711: a1 = u64 [s1 + 0x50]\n 14714: a0 = a1 + 0x20\n 14717: u64 [s1 + 0x78] = a0\n 14720: a0 = a0 <u a1\n 14723: a1 = u64 [s1 + 0x48]\n 14726: a2 = a1 + a0\n 14729: u64 [s1 + 0x70] = a2\n 14732: a1 = a2 <u a1\n 14735: a1 = a0 if a0 == 0\n 14738: a0 = u64 [s1 + 0x40]\n 14741: a1 = a1 + a0\n 14744: u64 [s1 + 0x68] = a1\n 14747: a0 = a1 <u a0\n 14750: a1 = u64 [s1 + 0x38]\n 14753: a0 = a0 + a1\n 14756: u64 [s1 + 0x60] = a0\n 14759: u64 [s1 + 0x58] = a4\n 14762: fallthrough\n      : @674 (gas: 16)\n 14763: a0 = u64 [s1 + 0x98]\n 14767: a0 = ra <u a0\n 14770: a2 = u64 [s1 + 0x88]\n 14774: a1 = t2 ^ a2\n 14777: a2 = t2 <u a2\n 14780: a2 = a0 if a1 == 0\n 14783: a4 = u64 [s1 + 0x90]\n 14787: a0 = t0 <u a4\n 14790: a3 = u64 [s1 + 0x80]\n 14794: a1 = a5 ^ a3\n 14797: a3 = a5 <u a3\n 14800: a3 = a0 if a1 == 0\n 14803: a0 = t0 ^ a4\n 14806: a0 = a0 | a1\n 14809: a3 = a2 if a0 == 0\n 14812: jump @676 if a3 != 0\n      : @675 (gas: 1)\n 14815: jump @484\n      : @676 (gas: 7)\n 14818: a0 = s1 + 0x10e0\n 14822: a1 = t1\n 14824: u64 [s1 + 0xb8] = a5\n 14828: u64 [s1 + 0xb0] = t0\n 14832: u64 [s1 + 0xa8] = t2\n 14836: u64 [s1 + 0xa0] = ra\n 14840: ra = 714, jump @1428\n      : @677 [@dyn 357] (gas: 1)\n 14846: t0 = 716, jump @1369\n      : @678 [@dyn 358] (gas: 6)\n 14852: t0 = a1 <u a5\n 14855: a5 = u64 [s1 + 0xb8]\n 14859: a3 = u64 [s1 + 0x60]\n 14862: a5 = a5 + a3\n 14865: a5 = a5 + t0\n 14868: t0 = 718, jump @1401\n      : @679 [@dyn 359] (gas: 1)\n 14874: jump @660 if a1 != 0\n      : @680 (gas: 11)\n 14878: a5 = s1 + 0x1038\n 14882: t0 = u64 [a5 + 0xc0]\n 14886: a1 = u64 [a5 + 0xb8]\n 14890: a2 = u64 [a5 + 0xb0]\n 14894: a4 = u64 [a5 + 0xa8]\n 14898: u64 [a5 + 0x88] = a4\n 14902: u64 [a5 + 0x90] = a2\n 14906: u64 [a5 + 0x98] = a1\n 14910: a1 = s1 + 0x10c0\n 14914: u64 [a5 + 0xa0] = t0\n 14918: ra = 720, jump @1426\n      : @681 [@dyn 360] (gas: 1)\n 14924: t0 = 722, jump @1347\n      : @682 [@dyn 361] (gas: 2)\n 14930: t0 = a3\n 14932: jump @674\n      : @683 (gas: 4)\n 14935: a1 = 0x20280\n 14940: i32 a1 = a1 + 0\n 14942: a0 = 0x1\n 14945: jump @835\n      : @684 (gas: 4)\n 14948: a1 = 0x20280\n 14953: i32 a1 = a1 + 0\n 14955: a0 = 0x1\n 14958: jump @835\n      : @685 (gas: 4)\n 14961: a1 = 0x20280\n 14966: i32 a1 = a1 + 0\n 14968: a0 = 0x1\n 14971: jump @835\n      : @686 (gas: 4)\n 14974: a1 = 0x20280\n 14979: i32 a1 = a1 + 0\n 14981: a0 = 0x1\n 14984: jump @835\n      : @687 (gas: 4)\n 14987: a1 = 0x20280\n 14992: i32 a1 = a1 + 0\n 14994: a0 = 0x1\n 14997: jump @835\n      : @688 (gas: 4)\n 15000: a1 = 0x20280\n 15005: i32 a1 = a1 + 0\n 15007: a0 = 0x1\n 15010: jump @835\n      : @689 (gas: 4)\n 15013: a1 = 0x20280\n 15018: i32 a1 = a1 + 0\n 15020: a0 = 0x1\n 15023: jump @835\n      : @690 (gas: 4)\n 15026: a1 = 0x20280\n 15031: i32 a1 = a1 + 0\n 15033: a0 = 0x1\n 15036: jump @835\n      : @691 (gas: 4)\n 15039: a1 = 0x20280\n 15044: i32 a1 = a1 + 0\n 15046: a0 = 0x1\n 15049: jump @835\n      : @692 (gas: 4)\n 15052: a1 = 0x20280\n 15057: i32 a1 = a1 + 0\n 15059: a0 = 0x1\n 15062: jump @835\n      : @693 (gas: 4)\n 15065: a1 = 0x20280\n 15070: i32 a1 = a1 + 0\n 15072: a0 = 0x1\n 15075: jump @835\n      : @694 (gas: 4)\n 15078: a1 = 0x20280\n 15083: i32 a1 = a1 + 0\n 15085: a0 = 0x1\n 15088: jump @835\n      : @695 (gas: 4)\n 15091: a1 = 0x20280\n 15096: i32 a1 = a1 + 0\n 15098: a0 = 0x1\n 15101: jump @835\n      : @696 (gas: 4)\n 15104: a1 = 0x20280\n 15109: i32 a1 = a1 + 0\n 15111: a0 = 0x1\n 15114: jump @835\n      : @697 (gas: 6)\n 15117: u64 [s1 + 272] = 0\n 15121: u64 [s1 + 264] = 0\n 15125: u64 [s1 + 256] = 0\n 15129: t0 = 0x2d4\n 15133: a0 = 0x4e487b7100000000\n 15143: fallthrough\n      : @698 [@dyn 362] (gas: 4)\n 15144: a1 = s1 + 0x100\n 15148: u64 [s1 + 0x118] = a0\n 15152: a0 = 0\n 15154: ra = 726, jump @1426\n      : @699 [@dyn 363] (gas: 7)\n 15160: u64 [s1 + 248] = 0\n 15164: u64 [s1 + 240] = 0\n 15168: u64 [s1 + 224] = 0x22\n 15173: a0 = 0x4\n 15176: a1 = s1 + 0xe0\n 15180: u64 [s1 + 232] = 0\n 15184: ra = 728, jump @1426\n      : @700 [@dyn 364] (gas: 2)\n 15190: a1 = i32 [0x2026c]\n 15195: jump @702 if a1 >u 63\n      : @701 (gas: 3)\n 15199: u32 [0x2026c] = 0x40\n 15205: a1 = 0x20280\n 15210: jump @779\n      : @702 (gas: 2)\n 15213: a1 = 0x20280\n 15218: jump @779\n      : @703 (gas: 4)\n 15221: a1 = 0x20280\n 15226: i32 a1 = a1 + 0\n 15228: a0 = 0x1\n 15231: jump @835\n      : @704 (gas: 4)\n 15234: a1 = 0x20280\n 15239: i32 a1 = a1 + 0\n 15241: a0 = 0x1\n 15244: jump @835\n      : @705 (gas: 9)\n 15247: u64 [a2 + 344] = 0\n 15251: u64 [a2 + 336] = 0\n 15255: u64 [a2 + 328] = 0\n 15259: a0 = 0xe2517d3f00000000\n 15269: a1 = s1 + 0x7ff\n 15273: a1 = a1 + 0x181\n 15277: u64 [a2 + 0x160] = a0\n 15281: a0 = 0\n 15283: ra = 730, jump @1426\n      : @706 [@dyn 365] (gas: 6)\n 15289: a0 = u64 [s1 + 0x20]\n 15292: ra = 0x2dc\n 15296: ecalli 3 // 'caller'\n 15298: a2 = u64 [s1 + 0x70]\n 15301: t0 = 0x2de\n 15305: jump @1343\n      : @707 [@dyn 366] (gas: 2)\n 15308: a2 = u64 [s1 + 0x70]\n 15311: t0 = 734, jump @1343\n      : @708 [@dyn 367] (gas: 9)\n 15317: u64 [a2 + 320] = 0\n 15321: a4 = a2 + 0x100\n 15325: u64 [a4 + 0x38] = a1\n 15328: u64 [a4 + 0x30] = a0\n 15331: a0 = 0x4\n 15334: a1 = s1 + 0x7ff\n 15338: a1 = a1 + 0x161\n 15342: u64 [a4 + 0x28] = a3\n 15345: ra = 736, jump @1426\n      : @709 [@dyn 368] (gas: 16)\n 15351: a0 = u64 [s1 + 0x40]\n 15354: a1 = s1 + 0x7ff\n 15358: a1 = a1 + 0x39\n 15361: a2 = a1 + 0x100\n 15365: u64 [a2 + 0x20] = a0\n 15368: a0 = u64 [s1 + 0x30]\n 15371: u64 [a2 + 0x18] = a0\n 15374: a0 = u64 [s1 + 0x28]\n 15377: u64 [a2 + 0x10] = a0\n 15380: a3 = a1\n 15382: a0 = 0x24\n 15385: a1 = s1 + 0x7ff\n 15389: a1 = a1 + 0x141\n 15393: a2 = u64 [s1 + 0x38]\n 15396: u64 [a3 + 0x108] = a2\n 15400: ra = 738, jump @1426\n      : @710 [@dyn 369] (gas: 3)\n 15406: a0 = u64 [s1 + 0x88]\n 15410: a0 = i32 [a0]\n 15412: jump @712 if a0 >u 95\n      : @711 (gas: 7)\n 15416: a1 = u64 [s1 + 0x88]\n 15420: u32 [a1 + 0] = 0x60\n 15423: a0 = 0x1\n 15426: a2 = 0x44\n 15429: a1 = u64 [s1 + 0xb8]\n 15433: ecalli 7 // 'seal_return'\n 15435: jump @720\n      : @712 (gas: 5)\n 15438: a0 = 0x1\n 15441: a2 = 0x44\n 15444: a1 = u64 [s1 + 0xb8]\n 15448: ecalli 7 // 'seal_return'\n 15450: jump @720\n      : @713 (gas: 12)\n 15453: a0 = s1 + 0x7ff\n 15457: a0 = a0 + 0x39\n 15460: u64 [a0 + 408] = 0\n 15464: u64 [a0 + 400] = 0\n 15468: u64 [a0 + 392] = 0\n 15472: a2 = a0\n 15474: a0 = 0xec442f0500000000\n 15484: a1 = s1 + 0x7ff\n 15488: a1 = a1 + 0x1c1\n 15492: u64 [a2 + 0x1a0] = a0\n 15496: a0 = 0\n 15498: ra = 740, jump @1426\n      : @714 [@dyn 370] (gas: 12)\n 15504: a0 = s1 + 0x7ff\n 15508: a0 = a0 + 0x39\n 15511: u64 [a0 + 384] = 0\n 15515: u64 [a0 + 376] = 0\n 15519: u64 [a0 + 368] = 0\n 15523: a2 = a0\n 15525: a0 = 0x4\n 15528: a1 = s1 + 0x7ff\n 15532: a1 = a1 + 0x1a1\n 15536: u64 [a2 + 360] = 0\n 15540: ra = 0x2e8\n 15544: jump @1426\n      : @715 (gas: 12)\n 15547: a0 = s1 + 0x7ff\n 15551: a0 = a0 + 0x39\n 15554: u64 [a0 + 472] = 0\n 15558: u64 [a0 + 464] = 0\n 15562: u64 [a0 + 456] = 0\n 15566: a2 = a0\n 15568: a0 = 0x4e487b7100000000\n 15578: a1 = s1 + 0x7ff\n 15582: a1 = a1 + 0x201\n 15586: u64 [a2 + 0x1e0] = a0\n 15590: a0 = 0\n 15592: ra = 742, jump @1426\n      : @716 [@dyn 371] (gas: 11)\n 15598: a1 = s1 + 0x7ff\n 15602: a1 = a1 + 0x39\n 15605: u64 [a1 + 448] = 0\n 15609: u64 [a1 + 440] = 0\n 15613: u64 [a1 + 424] = 0x11\n 15618: a2 = a1\n 15620: a0 = 0x4\n 15623: a1 = s1 + 0x7ff\n 15627: a1 = a1 + 0x1e1\n 15631: u64 [a2 + 432] = 0\n 15635: ra = 744, jump @1426\n      : @717 [@dyn 372] (gas: 3)\n 15641: a0 = u64 [s1 + 0x88]\n 15645: a0 = i32 [a0]\n 15647: jump @719 if a0 >u 63\n      : @718 (gas: 7)\n 15651: a1 = u64 [s1 + 0x88]\n 15655: u32 [a1 + 0] = 0x40\n 15658: a0 = 0x1\n 15661: a2 = 0x24\n 15664: a1 = u64 [s1 + 0xb8]\n 15668: ecalli 7 // 'seal_return'\n 15670: jump @720\n      : @719 (gas: 5)\n 15672: a0 = 0x1\n 15675: a2 = 0x24\n 15678: a1 = u64 [s1 + 0xb8]\n 15682: ecalli 7 // 'seal_return'\n 15684: fallthrough\n      : @720 (gas: 4)\n 15685: a1 = 0x20280\n 15690: i32 a1 = a1 + 0\n 15692: a0 = 0x1\n 15695: jump @835\n      : @721 (gas: 4)\n 15698: a1 = 0x20280\n 15703: i32 a1 = a1 + 0\n 15705: a0 = 0x1\n 15708: jump @835\n      : @722 (gas: 12)\n 15711: a0 = s1 + 0x7ff\n 15715: a0 = a0 + 0x39\n 15718: u64 [a0 + 1944] = 0\n 15722: u64 [a0 + 1936] = 0\n 15726: u64 [a0 + 1928] = 0\n 15730: a2 = a0\n 15732: a0 = 0x4e487b7100000000\n 15742: a1 = s1 + 0x7ff\n 15746: a1 = a1 + 0x7c1\n 15750: u64 [a2 + 0x7a0] = a0\n 15754: a0 = 0\n 15756: ra = 746, jump @1426\n      : @723 [@dyn 373] (gas: 11)\n 15762: a1 = s1 + 0x7ff\n 15766: a1 = a1 + 0x39\n 15769: u64 [a1 + 1920] = 0\n 15773: u64 [a1 + 1912] = 0\n 15777: u64 [a1 + 1896] = 0x22\n 15782: a2 = a1\n 15784: a0 = 0x4\n 15787: a1 = s1 + 0x7ff\n 15791: a1 = a1 + 0x7a1\n 15795: u64 [a2 + 1904] = 0\n 15799: ra = 748, jump @1426\n      : @724 [@dyn 374] (gas: 2)\n 15805: a1 = i32 [0x2026c]\n 15810: jump @726 if a1 >u 63\n      : @725 (gas: 3)\n 15814: u32 [0x2026c] = 0x40\n 15820: a1 = 0x20280\n 15825: jump @779\n      : @726 (gas: 2)\n 15828: a1 = 0x20280\n 15833: jump @779\n      : @727 (gas: 4)\n 15836: a1 = 0x20280\n 15841: i32 a1 = a1 + 0\n 15843: a0 = 0x1\n 15846: jump @835\n      : @728 (gas: 4)\n 15849: a1 = 0x20280\n 15854: i32 a1 = a1 + 0\n 15856: a0 = 0x1\n 15859: jump @835\n      : @729 (gas: 10)\n 15862: a3 = 0\n 15864: u64 [a2 + 120] = 0\n 15867: u64 [a2 + 112] = 0\n 15870: a0 = 0x8dfc202b00000000\n 15880: u64 [a2 + 0x80] = a0\n 15884: a1 = s1 + 0x7ff\n 15888: a1 = a1 + 0xa1\n 15892: u64 [a2 + 104] = 0\n 15895: a0 = 0\n 15897: ra = 750, jump @1426\n      : @730 [@dyn 375] (gas: 2)\n 15903: a1 = i32 [0x2026c]\n 15908: jump @732 if a1 >u 31\n      : @731 (gas: 3)\n 15912: u32 [0x2026c] = 0x20\n 15918: a1 = 0x20280\n 15923: jump @733\n      : @732 (gas: 2)\n 15925: a1 = 0x20280\n 15930: fallthrough\n      : @733 (gas: 5)\n 15931: i32 a1 = a1 + 0\n 15933: a0 = 0x1\n 15936: a2 = 0x4\n 15939: ecalli 7 // 'seal_return'\n 15941: fallthrough\n      : @734 (gas: 4)\n 15942: a1 = 0x20280\n 15947: i32 a1 = a1 + 0\n 15949: a0 = 0x1\n 15952: jump @835\n      : @735 (gas: 4)\n 15955: a1 = 0x20280\n 15960: i32 a1 = a1 + 0\n 15962: a0 = 0x1\n 15965: jump @835\n      : @736 (gas: 1)\n 15968: jump @784 if a0 != 3578229791\n      : @737 (gas: 1)\n 15976: t0 = 752, jump @1341\n      : @738 [@dyn 376] (gas: 4)\n 15982: ra = 0x2f2\n 15986: ecalli 10 // 'value_transferred'\n 15988: t0 = 0x2f4\n 15992: jump @1342\n      : @739 [@dyn 377] (gas: 1)\n 15995: t0 = 756, jump @1342\n      : @740 [@dyn 378] (gas: 1)\n 16001: jump @796 if a0 == 0\n      : @741 (gas: 4)\n 16005: a1 = 0x20280\n 16010: i32 a1 = a1 + 0\n 16012: a0 = 0x1\n 16015: jump @835\n      : @742 (gas: 4)\n 16018: a1 = 0x20280\n 16023: i32 a1 = a1 + 0\n 16025: a0 = 0x1\n 16028: jump @835\n      : @743 (gas: 4)\n 16031: a1 = 0x20280\n 16036: i32 a1 = a1 + 0\n 16038: a0 = 0x1\n 16041: jump @835\n      : @744 (gas: 4)\n 16044: a1 = 0x20280\n 16049: i32 a1 = a1 + 0\n 16051: a0 = 0x1\n 16054: jump @835\n      : @745 (gas: 4)\n 16057: a1 = 0x20280\n 16062: i32 a1 = a1 + 0\n 16064: a0 = 0x1\n 16067: jump @835\n      : @746 (gas: 4)\n 16070: a1 = 0x20280\n 16075: i32 a1 = a1 + 0\n 16077: a0 = 0x1\n 16080: jump @835\n      : @747 (gas: 4)\n 16083: a1 = 0x20280\n 16088: i32 a1 = a1 + 0\n 16090: a0 = 0x1\n 16093: jump @835\n      : @748 (gas: 4)\n 16096: a1 = 0x20280\n 16101: i32 a1 = a1 + 0\n 16103: a0 = 0x1\n 16106: jump @835\n      : @749 (gas: 4)\n 16109: a1 = 0x20280\n 16114: i32 a1 = a1 + 0\n 16116: a0 = 0x1\n 16119: jump @835\n      : @750 (gas: 4)\n 16122: a1 = 0x20280\n 16127: i32 a1 = a1 + 0\n 16129: a0 = 0x1\n 16132: jump @835\n      : @751 (gas: 4)\n 16135: a1 = 0x20280\n 16140: i32 a1 = a1 + 0\n 16142: a0 = 0x1\n 16145: jump @835\n      : @752 (gas: 4)\n 16148: a1 = 0x20280\n 16153: i32 a1 = a1 + 0\n 16155: a0 = 0x1\n 16158: jump @835\n      : @753 (gas: 4)\n 16161: a1 = 0x20280\n 16166: i32 a1 = a1 + 0\n 16168: a0 = 0x1\n 16171: jump @835\n      : @754 (gas: 4)\n 16174: a1 = 0x20280\n 16179: i32 a1 = a1 + 0\n 16181: a0 = 0x1\n 16184: jump @835\n      : @755 (gas: 4)\n 16187: a1 = 0x20280\n 16192: i32 a1 = a1 + 0\n 16194: a0 = 0x1\n 16197: jump @835\n      : @756 (gas: 8)\n 16200: u64 [s1 + 752] = 0\n 16204: u64 [s1 + 744] = 0\n 16208: u64 [s1 + 736] = 0\n 16212: a0 = 0xe602df0500000000\n 16222: a1 = s1 + 0x2e0\n 16226: u64 [s1 + 0x2f8] = a0\n 16230: a0 = 0\n 16232: ra = 758, jump @1426\n      : @757 [@dyn 379] (gas: 7)\n 16238: u64 [s1 + 728] = 0\n 16242: u64 [s1 + 720] = 0\n 16246: u64 [s1 + 712] = 0\n 16250: a0 = 0x4\n 16253: a1 = s1 + 0x2c0\n 16257: u64 [s1 + 704] = 0\n 16261: ra = 760, jump @1426\n      : @758 [@dyn 380] (gas: 2)\n 16267: a1 = i32 [0x2026c]\n 16272: jump @760 if a1 >u 63\n      : @759 (gas: 3)\n 16276: u32 [0x2026c] = 0x40\n 16282: a1 = 0x20280\n 16287: jump @779\n      : @760 (gas: 2)\n 16290: a1 = 0x20280\n 16295: jump @779\n      : @761 (gas: 8)\n 16298: u64 [s1 + 816] = 0\n 16302: u64 [s1 + 808] = 0\n 16306: u64 [s1 + 800] = 0\n 16310: a0 = 0x94280d6200000000\n 16320: a1 = s1 + 0x320\n 16324: u64 [s1 + 0x338] = a0\n 16328: a0 = 0\n 16330: ra = 762, jump @1426\n      : @762 [@dyn 381] (gas: 7)\n 16336: u64 [s1 + 792] = 0\n 16340: u64 [s1 + 784] = 0\n 16344: u64 [s1 + 776] = 0\n 16348: a0 = 0x4\n 16351: a1 = s1 + 0x300\n 16355: u64 [s1 + 768] = 0\n 16359: ra = 764, jump @1426\n      : @763 [@dyn 382] (gas: 2)\n 16365: a1 = i32 [0x2026c]\n 16370: jump @765 if a1 >u 63\n      : @764 (gas: 3)\n 16374: u32 [0x2026c] = 0x40\n 16380: a1 = 0x20280\n 16385: jump @779\n      : @765 (gas: 2)\n 16388: a1 = 0x20280\n 16393: jump @779\n      : @766 (gas: 1)\n 16396: t0 = 766, jump @1384\n      : @767 [@dyn 383] (gas: 1)\n 16402: ra = 768, jump @1426\n      : @768 [@dyn 384] (gas: 1)\n 16408: t0 = 770, jump @1395\n      : @769 [@dyn 385] (gas: 1)\n 16414: ra = 772, jump @1426\n      : @770 [@dyn 386] (gas: 2)\n 16420: a1 = i32 [0x2026c]\n 16425: jump @772 if a1 >u 63\n      : @771 (gas: 3)\n 16429: u32 [0x2026c] = 0x40\n 16435: a1 = 0x20280\n 16440: jump @779\n      : @772 (gas: 2)\n 16443: a1 = 0x20280\n 16448: jump @779\n      : @773 (gas: 9)\n 16450: a0 = s1 + 0x7ff\n 16454: a0 = a0 + 0x39\n 16457: u64 [a0 + 2008] = 0\n 16461: u64 [a0 + 2000] = 0\n 16465: u64 [a0 + 1992] = 0\n 16469: a2 = a0\n 16471: t0 = 0x306\n 16475: a0 = 0x4e487b7100000000\n 16485: fallthrough\n      : @774 [@dyn 387] (gas: 4)\n 16486: a1 = s1 + 0x1000\n 16490: u64 [a2 + 0x7e0] = a0\n 16494: a0 = 0\n 16496: ra = 776, jump @1426\n      : @775 [@dyn 388] (gas: 11)\n 16502: a1 = s1 + 0x7ff\n 16506: a1 = a1 + 0x39\n 16509: u64 [a1 + 1984] = 0\n 16513: u64 [a1 + 1976] = 0\n 16517: u64 [a1 + 1960] = 0x41\n 16522: a2 = a1\n 16524: a0 = 0x4\n 16527: a1 = s1 + 0x7ff\n 16531: a1 = a1 + 0x7e1\n 16535: u64 [a2 + 1968] = 0\n 16539: ra = 778, jump @1426\n      : @776 [@dyn 389] (gas: 2)\n 16545: a1 = i32 [0x2026c]\n 16550: jump @778 if a1 >u 63\n      : @777 (gas: 3)\n 16554: u32 [0x2026c] = 0x40\n 16560: a1 = 0x20280\n 16565: jump @779\n      : @778 (gas: 2)\n 16567: a1 = 0x20280\n 16572: fallthrough\n      : @779 (gas: 5)\n 16573: i32 a1 = a1 + 0\n 16575: a0 = 0x1\n 16578: a2 = 0x24\n 16581: ecalli 7 // 'seal_return'\n 16583: fallthrough\n      : @780 (gas: 7)\n 16584: u64 [s1 + 856] = 0\n 16588: u64 [s1 + 848] = 0\n 16592: u64 [s1 + 840] = 0\n 16596: a1 = s1 + 0x340\n 16600: u64 [s1 + 832] = 0x1\n 16605: u64 [s1 + 0xb8] = a0\n 16609: ra = 780, jump @1426\n      : @781 [@dyn 390] (gas: 3)\n 16615: a1 = 0x20\n 16618: a0 = u64 [s1 + 0xb8]\n 16622: ra = 782, jump @1436\n      : @782 [@dyn 391] (gas: 6)\n 16628: i32 a1 = a0 + 0\n 16630: a2 = 0x20\n 16633: a0 = 0\n 16635: ra = 0x310\n 16639: ecalli 7 // 'seal_return'\n 16641: jump @784\n      : @783 (gas: 5)\n 16643: a2 = 0x20\n 16646: a0 = 0\n 16648: ra = 0x310\n 16652: ecalli 7 // 'seal_return'\n 16654: fallthrough\n      : @784 [@dyn 392] (gas: 1)\n 16655: jump @790 if a0 != 33540519\n      : @785 (gas: 1)\n 16662: t0 = 786, jump @1341\n      : @786 [@dyn 393] (gas: 4)\n 16668: ra = 0x314\n 16672: ecalli 10 // 'value_transferred'\n 16674: t0 = 0x316\n 16678: jump @1342\n      : @787 [@dyn 394] (gas: 1)\n 16681: t0 = 790, jump @1342\n      : @788 [@dyn 395] (gas: 1)\n 16687: jump @804 if a0 == 0\n      : @789 (gas: 4)\n 16691: a1 = 0x20280\n 16696: i32 a1 = a1 + 0\n 16698: a0 = 0x1\n 16701: jump @835\n      : @790 (gas: 1)\n 16704: jump @798 if a0 != 791671133\n      : @791 (gas: 1)\n 16711: t0 = 792, jump @1341\n      : @792 [@dyn 396] (gas: 4)\n 16717: ra = 0x31a\n 16721: ecalli 10 // 'value_transferred'\n 16723: t0 = 0x31c\n 16727: jump @1342\n      : @793 [@dyn 397] (gas: 1)\n 16730: t0 = 796, jump @1342\n      : @794 [@dyn 398] (gas: 1)\n 16736: jump @820 if a0 == 0\n      : @795 (gas: 4)\n 16740: a1 = 0x20280\n 16745: i32 a1 = a1 + 0\n 16747: a0 = 0x1\n 16750: jump @835\n      : @796 (gas: 3)\n 16753: a0 = u64 [s1 + 0xb8]\n 16757: a0 = i32 [a0]\n 16759: jump @806 if a0 >u 67\n      : @797 (gas: 4)\n 16763: a1 = 0x20280\n 16768: i32 a1 = a1 + 0\n 16770: a0 = 0x1\n 16773: jump @835\n      : @798 (gas: 1)\n 16776: jump @814 if a0 != 911641278\n      : @799 (gas: 1)\n 16784: t0 = 798, jump @1341\n      : @800 [@dyn 399] (gas: 4)\n 16790: ra = 0x320\n 16794: ecalli 10 // 'value_transferred'\n 16796: t0 = 0x322\n 16800: jump @1342\n      : @801 [@dyn 400] (gas: 1)\n 16803: t0 = 802, jump @1342\n      : @802 [@dyn 401] (gas: 1)\n 16809: jump @825 if a0 == 0\n      : @803 (gas: 4)\n 16813: a1 = 0x20280\n 16818: i32 a1 = a1 + 0\n 16820: a0 = 0x1\n 16823: jump @835\n      : @804 (gas: 3)\n 16826: a0 = u64 [s1 + 0xb8]\n 16830: a0 = i32 [a0]\n 16832: jump @822 if a0 >u 35\n      : @805 (gas: 4)\n 16837: a1 = 0x20280\n 16842: i32 a1 = a1 + 0\n 16844: a0 = 0x1\n 16847: jump @835\n      : @806 (gas: 1)\n 16850: t0 = 804, jump @1396\n      : @807 [@dyn 402] (gas: 4)\n 16856: ra = 0x326\n 16860: ecalli 1 // 'call_data_load'\n 16862: t0 = 0x328\n 16866: jump @1392\n      : @808 [@dyn 403] (gas: 1)\n 16869: t0 = 808, jump @1392\n      : @809 [@dyn 404] (gas: 4)\n 16875: a0 = s1 + 0x1380\n 16879: ra = 0x32a\n 16883: t0 = 0x454\n 16887: jump @1420\n      : @810 [@dyn 405] (gas: 22)\n 16890: a1 = s1 + 0x1038\n 16894: a2 = a1 + 0x300\n 16898: a0 = u64 [a2 + 0x48]\n 16901: u64 [s1 + 0x98] = a0\n 16905: a0 = u64 [a2 + 0x50]\n 16908: u64 [s1 + 0x90] = a0\n 16912: a0 = u64 [a2 + 0x58]\n 16915: u64 [s1 + 0x88] = a0\n 16919: a0 = u64 [a2 + 0x60]\n 16922: u64 [s1 + 0x80] = a0\n 16926: a0 = u64 [s1 + 0xa0]\n 16930: u64 [a2 + 0x20] = a0\n 16933: a0 = u64 [s1 + 0xa8]\n 16937: u64 [a2 + 0x18] = a0\n 16940: a0 = u64 [s1 + 0xb0]\n 16944: u64 [a2 + 0x10] = a0\n 16947: a3 = a1\n 16949: a0 = s1 + 0x1360\n 16953: a1 = s1 + 0x1340\n 16957: a2 = u64 [s1 + 0xb8]\n 16961: u64 [a3 + 0x308] = a2\n 16965: ra = 812, jump @1044\n      : @811 [@dyn 406] (gas: 13)\n 16971: a4 = s1 + 0x1038\n 16975: a5 = a4 + 0x300\n 16979: a1 = u64 [a5 + 0x28]\n 16982: a0 = u64 [a5 + 0x30]\n 16985: a2 = u64 [a5 + 0x38]\n 16988: a3 = u64 [a5 + 0x40]\n 16991: u64 [a5] = a3\n 16993: a3 = a4 + 0x200\n 16997: u64 [a3 + 0xf8] = a2\n 17001: u64 [a3 + 0xf0] = a0\n 17005: a0 = s1 + 0x1320\n 17009: u64 [a3 + 0xe8] = a1\n 17013: ra = 814, jump @1179\n      : @812 [@dyn 407] (gas: 23)\n 17019: a0 = s1 + 0x1038\n 17023: a1 = u64 [s1 + 0x80]\n 17027: a2 = a0 + 0x200\n 17031: u64 [a2 + 0xa0] = a1\n 17035: a1 = u64 [s1 + 0x88]\n 17039: u64 [a2 + 0x98] = a1\n 17043: a1 = u64 [s1 + 0x90]\n 17047: u64 [a2 + 0x90] = a1\n 17051: a1 = u64 [s1 + 0x98]\n 17055: u64 [a2 + 0x88] = a1\n 17059: a1 = u64 [s1 + 0xa0]\n 17063: u64 [a2 + 0xc0] = a1\n 17067: a1 = u64 [s1 + 0xa8]\n 17071: u64 [a2 + 0xb8] = a1\n 17075: a1 = u64 [s1 + 0xb0]\n 17079: u64 [a2 + 0xb0] = a1\n 17083: a4 = a0\n 17085: a0 = s1 + 0x1300\n 17089: a1 = s1 + 0x12e0\n 17093: a2 = s1 + 0x12c0\n 17097: a3 = u64 [s1 + 0xb8]\n 17101: u64 [a4 + 0x2a8] = a3\n 17105: ra = 816, jump @1251\n      : @813 [@dyn 408] (gas: 2)\n 17111: a1 = 0x20280\n 17116: jump @572\n      : @814 (gas: 1)\n 17119: jump @827 if a0 != 1117154408\n      : @815 (gas: 1)\n 17127: t0 = 818, jump @1341\n      : @816 [@dyn 409] (gas: 4)\n 17133: ra = 0x334\n 17137: ecalli 10 // 'value_transferred'\n 17139: t0 = 0x336\n 17143: jump @1342\n      : @817 [@dyn 410] (gas: 1)\n 17146: t0 = 822, jump @1342\n      : @818 [@dyn 411] (gas: 1)\n 17152: jump @836 if a0 == 0\n      : @819 (gas: 4)\n 17156: a1 = 0x20280\n 17161: i32 a1 = a1 + 0\n 17163: a0 = 0x1\n 17166: jump @835\n      : @820 (gas: 3)\n 17169: a0 = u64 [s1 + 0xb8]\n 17173: a0 = i32 [a0]\n 17175: jump @838 if a0 >u 67\n      : @821 (gas: 4)\n 17180: a1 = 0x20280\n 17185: i32 a1 = a1 + 0\n 17187: a0 = 0x1\n 17190: jump @835\n      : @822 (gas: 8)\n 17193: a0 = sp + 0xffffffffffffffe0\n 17196: a0 = a0 & 0xffffffffffffffe0\n 17199: u64 [s1 + 0xb8] = a0\n 17203: sp = a0\n 17205: i32 a0 = a0 + 0\n 17207: a1 = 0x4\n 17210: ecalli 1 // 'call_data_load'\n 17212: fallthrough\n      : @823 (gas: 11)\n 17213: a1 = u64 [s1 + 0xb8]\n 17217: a0 = u64 [a1 + 0x18]\n 17220: a2 = u64 [a1 + 0x10]\n 17223: a3 = u64 [a1]\n 17225: a1 = u64 [a1 + 0x8]\n 17228: a4 = a0 << 0x20\n 17231: a4 = a4 >> 0x20\n 17234: a2 = a2 | a3\n 17237: a4 = a4 | a1\n 17240: a4 = a4 | a2\n 17243: jump @846 if a4 == 0\n      : @824 (gas: 4)\n 17247: a1 = 0x20280\n 17252: i32 a1 = a1 + 0\n 17254: a0 = 0x1\n 17257: jump @835\n      : @825 (gas: 4)\n 17259: a0 = u64 [s1 + 0xb8]\n 17263: a0 = i32 [a0]\n 17265: a1 = 0x43\n 17268: jump @850 if a1 <u a0\n      : @826 (gas: 4)\n 17272: a1 = 0x20280\n 17277: i32 a1 = a1 + 0\n 17279: a0 = 0x1\n 17282: jump @835\n      : @827 (gas: 1)\n 17284: jump @833 if a0 != 2043438992\n      : @828 (gas: 1)\n 17291: t0 = 824, jump @1341\n      : @829 [@dyn 412] (gas: 4)\n 17297: ra = 0x33a\n 17301: ecalli 10 // 'value_transferred'\n 17303: t0 = 0x33c\n 17307: jump @1342\n      : @830 [@dyn 413] (gas: 1)\n 17310: t0 = 828, jump @1342\n      : @831 [@dyn 414] (gas: 1)\n 17316: jump @855 if a0 == 0\n      : @832 (gas: 4)\n 17320: a1 = 0x20280\n 17325: i32 a1 = a1 + 0\n 17327: a0 = 0x1\n 17330: jump @835\n      : @833 (gas: 4)\n 17332: a1 = 0x20280\n 17337: i32 a1 = a1 + 0\n 17339: a0 = 0x1\n 17342: jump @835\n      : @834 (gas: 6)\n 17344: i32 a1 = a1 + 0\n 17346: a0 = 0x1\n 17349: a2 = 0\n 17351: ra = 0x33e\n 17355: ecalli 7 // 'seal_return'\n 17357: jump @836\n      : @835 (gas: 4)\n 17359: a2 = 0\n 17361: ra = 0x33e\n 17365: ecalli 7 // 'seal_return'\n 17367: fallthrough\n      : @836 [@dyn 415] (gas: 3)\n 17368: a0 = u64 [s1 + 0xb8]\n 17372: a0 = i32 [a0]\n 17374: jump @857 if a0 >u 35\n      : @837 (gas: 2)\n 17379: a1 = 0x20280\n 17384: jump @834\n      : @838 (gas: 1)\n 17386: t0 = 832, jump @1396\n      : @839 [@dyn 416] (gas: 4)\n 17392: ra = 0x342\n 17396: ecalli 1 // 'call_data_load'\n 17398: t0 = 0x344\n 17402: jump @1392\n      : @840 [@dyn 417] (gas: 1)\n 17405: t0 = 836, jump @1392\n      : @841 [@dyn 418] (gas: 4)\n 17411: a0 = s1 + 0x7a0\n 17415: ra = 0x346\n 17419: t0 = 0x454\n 17423: jump @1420\n      : @842 [@dyn 419] (gas: 19)\n 17426: a0 = u64 [s1 + 0x7a0]\n 17430: u64 [s1 + 0x98] = a0\n 17434: a0 = u64 [s1 + 0x7a8]\n 17438: u64 [s1 + 0x90] = a0\n 17442: a0 = u64 [s1 + 0x7b0]\n 17446: u64 [s1 + 0x88] = a0\n 17450: a0 = u64 [s1 + 0x7b8]\n 17454: u64 [s1 + 0x80] = a0\n 17458: a0 = u64 [s1 + 0xa0]\n 17462: u64 [s1 + 0x778] = a0\n 17466: a0 = u64 [s1 + 0xa8]\n 17470: u64 [s1 + 0x770] = a0\n 17474: a0 = u64 [s1 + 0xb0]\n 17478: u64 [s1 + 0x768] = a0\n 17482: a0 = s1 + 0x780\n 17486: a1 = s1 + 0x760\n 17490: a2 = u64 [s1 + 0xb8]\n 17494: u64 [s1 + 0x760] = a2\n 17498: ra = 840, jump @1044\n      : @843 [@dyn 420] (gas: 10)\n 17504: a1 = u64 [s1 + 0x780]\n 17508: a0 = u64 [s1 + 0x788]\n 17512: a2 = u64 [s1 + 0x790]\n 17516: a3 = u64 [s1 + 0x798]\n 17520: u64 [s1 + 0x758] = a3\n 17524: u64 [s1 + 0x750] = a2\n 17528: u64 [s1 + 0x748] = a0\n 17532: a0 = s1 + 0x740\n 17536: u64 [s1 + 0x740] = a1\n 17540: ra = 842, jump @1179\n      : @844 [@dyn 421] (gas: 22)\n 17546: a0 = u64 [s1 + 0x80]\n 17550: a1 = s1 + 0x600\n 17554: u64 [a1 + 0xf8] = a0\n 17558: a0 = u64 [s1 + 0x88]\n 17562: u64 [a1 + 0xf0] = a0\n 17566: a0 = u64 [s1 + 0x90]\n 17570: u64 [a1 + 0xe8] = a0\n 17574: a0 = u64 [s1 + 0x98]\n 17578: u64 [a1 + 0xe0] = a0\n 17582: a0 = u64 [s1 + 0xa0]\n 17586: a4 = s1 + 0x700\n 17590: u64 [a4 + 0x18] = a0\n 17593: a0 = u64 [s1 + 0xa8]\n 17597: u64 [a4 + 0x10] = a0\n 17600: a0 = u64 [s1 + 0xb0]\n 17604: u64 [a4 + 0x8] = a0\n 17607: a0 = s1 + 0x720\n 17611: a1 = s1 + 0x700\n 17615: a2 = s1 + 0x6e0\n 17619: a3 = u64 [s1 + 0xb8]\n 17623: u64 [a4] = a3\n 17625: ra = 844, jump @1208\n      : @845 [@dyn 422] (gas: 2)\n 17631: a1 = 0x20280\n 17636: jump @572\n      : @846 (gas: 18)\n 17639: a3 = 0x7965db0b00000000\n 17649: a3 = a3 ^ a0\n 17652: a3 = a3 | a1\n 17655: a3 = a3 | a2\n 17658: a3 = a3 <u 0x1\n 17661: a4 = 0x1ffc9a700000000\n 17671: a0 = a0 ^ a4\n 17674: a0 = a0 | a1\n 17677: a0 = a0 | a2\n 17680: a0 = a0 <u 0x1\n 17683: a0 = a0 | a3\n 17686: u64 [s1 + 216] = 0\n 17690: u64 [s1 + 208] = 0\n 17694: u64 [s1 + 0xc0] = a0\n 17698: a0 = 0x80\n 17702: a1 = s1 + 0xc0\n 17706: u64 [s1 + 200] = 0\n 17710: ra = 846, jump @1426\n      : @847 [@dyn 423] (gas: 2)\n 17716: a1 = i32 [0x2026c]\n 17721: jump @849 if a1 >u 159\n      : @848 (gas: 4)\n 17726: u32 [0x2026c] = 0xa0\n 17733: a0 = 0x20280\n 17738: i32 a1 = a0 + 0x80\n 17742: jump @783\n      : @849 (gas: 3)\n 17745: a0 = 0x20280\n 17750: i32 a1 = a0 + 0x80\n 17754: jump @783\n      : @850 (gas: 5)\n 17757: a0 = s1 + 0x7ff\n 17761: a0 = a0 + 0x81\n 17765: ra = 0x350\n 17769: t0 = 0x454\n 17773: jump @1420\n      : @851 [@dyn 424] (gas: 15)\n 17776: a0 = s1 + 0x7ff\n 17780: a0 = a0 + 0x39\n 17783: a1 = u64 [a0 + 0x60]\n 17786: u64 [s1 + 0xa0] = a1\n 17790: a1 = u64 [a0 + 0x58]\n 17793: u64 [s1 + 0xa8] = a1\n 17797: a1 = u64 [a0 + 0x50]\n 17800: u64 [s1 + 0xb0] = a1\n 17804: a0 = u64 [a0 + 0x48]\n 17807: u64 [s1 + 0xb8] = a0\n 17811: a0 = 0x30280\n 17816: u64 [s1 + 0x98] = a0\n 17820: i32 a0 = a0 + 0\n 17822: ecalli 3 // 'caller'\n 17824: fallthrough\n      : @852 (gas: 25)\n 17825: a2 = u64 [s1 + 0x98]\n 17829: a0 = u64 [a2 + 0x8]\n 17832: a1 = u64 [a2]\n 17834: a2 = i32 [a2 + 0x10]\n 17837: a0 = reverse a0\n 17839: a3 = a0 >> 0x20\n 17842: a1 = reverse a1\n 17844: a4 = a1 << 0x20\n 17847: a3 = a3 | a4\n 17850: a0 = a0 << 0x20\n 17853: a2 = reverse a2\n 17855: a2 = a2 >> 0x20\n 17858: a0 = a0 | a2\n 17861: a1 = a1 >> 0x20\n 17864: a2 = u64 [s1 + 0xa8]\n 17868: a2 = a2 << 0x20\n 17871: a2 = a2 >> 0x20\n 17874: a1 = a1 ^ a2\n 17877: a2 = u64 [s1 + 0xb8]\n 17881: a0 = a0 ^ a2\n 17884: a0 = a0 | a1\n 17887: a1 = u64 [s1 + 0xb0]\n 17891: a1 = a1 ^ a3\n 17894: a0 = a0 | a1\n 17897: jump @864 if a0 != 0\n      : @853 (gas: 39)\n 17901: a0 = sp + 0xffffffffffffffe0\n 17904: a0 = a0 & 0xffffffffffffffe0\n 17907: u64 [s1 + 0x98] = a0\n 17911: sp = a0\n 17913: i32 a0 = a0 + 0\n 17915: a1 = 0x4\n 17918: ecalli 1 // 'call_data_load'\n 17920: a2 = u64 [s1 + 0x98]\n 17924: a3 = u64 [a2]\n 17926: a0 = u64 [a2 + 0x8]\n 17929: a1 = u64 [a2 + 0x10]\n 17932: a2 = u64 [a2 + 0x18]\n 17935: a4 = u64 [s1 + 0xa0]\n 17939: a5 = s1 + 0x1000\n 17943: u64 [a5 + 0xfffffffffffff818] = a4\n 17947: a4 = u64 [s1 + 0xa8]\n 17951: a5 = s1 + 0x1000\n 17955: u64 [a5 + 0xfffffffffffff810] = a4\n 17959: a4 = u64 [s1 + 0xb0]\n 17963: a5 = s1 + 0x1000\n 17967: u64 [a5 + 0xfffffffffffff808] = a4\n 17971: a4 = u64 [s1 + 0xb8]\n 17975: a5 = s1 + 0x1000\n 17979: u64 [a5 + 0xfffffffffffff800] = a4\n 17983: a4 = s1 + 0x7ff\n 17987: a4 = a4 + 0x39\n 17990: u64 [a4] = a2\n 17992: u64 [a4 + 0xfffffffffffffff8] = a1\n 17995: a1 = s1 + 0x1000\n 17999: u64 [a1 + 0xfffffffffffff828] = a0\n 18003: a0 = s1 + 0x7ff\n 18007: a0 = a0 + 0x41\n 18010: a1 = s1 + 0x7ff\n 18014: a1 = a1 + 0x21\n 18017: a2 = s1 + 0x7ff\n 18021: a2 = a2 + 0x1\n 18024: a4 = s1 + 0x1000\n 18028: u64 [a4 + 0xfffffffffffff820] = a3\n 18032: ra = 850, jump @1251\n      : @854 [@dyn 425] (gas: 2)\n 18038: a1 = 0x20280\n 18043: jump @572\n      : @855 (gas: 4)\n 18046: a0 = u64 [s1 + 0xb8]\n 18050: a0 = i32 [a0]\n 18052: a1 = 0x43\n 18055: jump @868 if a1 <u a0\n      : @856 (gas: 2)\n 18059: a1 = 0x20280\n 18064: jump @834\n      : @857 (gas: 1)\n 18067: t0 = 852, jump @1396\n      : @858 [@dyn 426] (gas: 4)\n 18073: ra = 0x356\n 18077: ecalli 1 // 'call_data_load'\n 18079: t0 = 0x358\n 18083: jump @1392\n      : @859 [@dyn 427] (gas: 1)\n 18086: t0 = 856, jump @1392\n      : @860 [@dyn 428] (gas: 8)\n 18092: a0 = 0x30280\n 18097: u64 [s1 + 0x98] = a0\n 18101: i32 a0 = a0 + 0\n 18103: ra = 0x35a\n 18107: ecalli 3 // 'caller'\n 18109: a2 = u64 [s1 + 0x98]\n 18113: t0 = 0x35c\n 18117: jump @1343\n      : @861 [@dyn 429] (gas: 2)\n 18120: a2 = u64 [s1 + 0x98]\n 18124: t0 = 860, jump @1343\n      : @862 [@dyn 430] (gas: 18)\n 18130: a4 = u64 [s1 + 0xa0]\n 18134: a5 = a2 + 0x300\n 18138: u64 [a5 + 0xe0] = a4\n 18142: a4 = u64 [s1 + 0xa8]\n 18146: u64 [a5 + 0xd8] = a4\n 18150: a4 = u64 [s1 + 0xb0]\n 18154: u64 [a5 + 0xd0] = a4\n 18158: a4 = u64 [s1 + 0xb8]\n 18162: u64 [a5 + 0xc8] = a4\n 18166: u64 [a2 + 1024] = 0\n 18170: u64 [a5 + 0xf8] = a1\n 18174: u64 [a5 + 0xf0] = a0\n 18178: a0 = s1 + 0x7ff\n 18182: a0 = a0 + 0x421\n 18186: a1 = s1 + 0x7ff\n 18190: a1 = a1 + 0x401\n 18194: u64 [a5 + 0xe8] = a3\n 18198: ra = 862, jump @1291\n      : @863 [@dyn 431] (gas: 2)\n 18204: a1 = 0x20280\n 18209: jump @572\n      : @864 (gas: 12)\n 18212: a2 = s1 + 0x7ff\n 18216: a2 = a2 + 0x39\n 18219: a3 = 0\n 18221: u64 [a2 + 56] = 0\n 18224: u64 [a2 + 48] = 0\n 18227: a0 = 0x6697b23200000000\n 18237: u64 [a2 + 0x40] = a0\n 18240: a1 = s1 + 0x7ff\n 18244: a1 = a1 + 0x61\n 18247: u64 [a2 + 40] = 0\n 18250: a0 = 0\n 18252: ra = 864, jump @1426\n      : @865 [@dyn 432] (gas: 2)\n 18258: a1 = i32 [0x2026c]\n 18263: jump @867 if a1 >u 31\n      : @866 (gas: 3)\n 18267: u32 [0x2026c] = 0x20\n 18273: a1 = 0x20280\n 18278: jump @733\n      : @867 (gas: 2)\n 18281: a1 = 0x20280\n 18286: jump @733\n      : @868 (gas: 5)\n 18289: a0 = s1 + 0x7ff\n 18293: a0 = a0 + 0x601\n 18297: ra = 0x362\n 18301: t0 = 0x44a\n 18305: jump @1420\n      : @869 [@dyn 433] (gas: 21)\n 18308: a1 = s1 + 0x7ff\n 18312: a1 = a1 + 0x39\n 18315: a2 = a1 + 0x500\n 18319: a0 = u64 [a2 + 0xc8]\n 18323: u64 [s1 + 0xb8] = a0\n 18327: a0 = u64 [a2 + 0xd0]\n 18331: u64 [s1 + 0xb0] = a0\n 18335: a0 = u64 [a2 + 0xd8]\n 18339: u64 [s1 + 0xa8] = a0\n 18343: a0 = u64 [a2 + 0xe0]\n 18347: u64 [s1 + 0xa0] = a0\n 18351: a0 = sp + 0xffffffffffffffe0\n 18354: a0 = a0 & 0xffffffffffffffe0\n 18357: u64 [s1 + 0x80] = a0\n 18361: sp = a0\n 18363: i32 a0 = a0 + 0\n 18365: a1 = 0x24\n 18368: ra = 0x364\n 18372: ecalli 1 // 'call_data_load'\n 18374: t0 = 0x366\n 18378: jump @1394\n      : @870 [@dyn 434] (gas: 1)\n 18381: t0 = 870, jump @1394\n      : @871 [@dyn 435] (gas: 7)\n 18387: a0 = 0x30280\n 18392: u64 [s1 + 0x78] = a0\n 18395: i32 a0 = a0 + 0\n 18397: ra = 0x368\n 18401: ecalli 3 // 'caller'\n 18403: t0 = 0x36a\n 18407: jump @1377\n      : @872 [@dyn 436] (gas: 1)\n 18410: t0 = 874, jump @1377\n      : @873 [@dyn 437] (gas: 31)\n 18416: a3 = s1 + 0x7ff\n 18420: a3 = a3 + 0x39\n 18423: a4 = u64 [s1 + 0x80]\n 18427: a5 = a3 + 0x500\n 18431: u64 [a5 + 0x80] = a4\n 18435: a4 = u64 [s1 + 0x88]\n 18439: u64 [a5 + 0x78] = a4\n 18442: a4 = u64 [s1 + 0x90]\n 18446: u64 [a5 + 0x70] = a4\n 18449: a4 = u64 [s1 + 0x98]\n 18453: u64 [a5 + 0x68] = a4\n 18456: u64 [a3 + 1440] = 0\n 18460: a4 = u64 [s1 + 0xa0]\n 18464: u64 [a5 + 0xc0] = a4\n 18468: a4 = u64 [s1 + 0xa8]\n 18472: u64 [a5 + 0xb8] = a4\n 18476: a4 = u64 [s1 + 0xb0]\n 18480: u64 [a5 + 0xb0] = a4\n 18484: u64 [a5 + 0x98] = a2\n 18488: u64 [a5 + 0x90] = a0\n 18492: u64 [a5 + 0x88] = a1\n 18496: a4 = a3\n 18498: a0 = s1 + 0x7ff\n 18502: a0 = a0 + 0x5e1\n 18506: a1 = s1 + 0x7ff\n 18510: a1 = a1 + 0x5c1\n 18514: a2 = s1 + 0x7ff\n 18518: a2 = a2 + 0x5a1\n 18522: a3 = u64 [s1 + 0xb8]\n 18526: u64 [a4 + 0x5a8] = a3\n 18530: ra = 876, jump @1050\n      : @874 [@dyn 438] (gas: 25)\n 18536: a0 = u64 [s1 + 0x80]\n 18540: a1 = s1 + 0x7ff\n 18544: a1 = a1 + 0x39\n 18547: a2 = a1 + 0x500\n 18551: u64 [a2 + 0x40] = a0\n 18554: a0 = u64 [s1 + 0x88]\n 18558: u64 [a2 + 0x38] = a0\n 18561: a0 = u64 [s1 + 0x90]\n 18565: u64 [a2 + 0x30] = a0\n 18568: a0 = u64 [s1 + 0x98]\n 18572: u64 [a2 + 0x28] = a0\n 18575: a0 = u64 [s1 + 0xa0]\n 18579: u64 [a2 + 0x60] = a0\n 18582: a0 = u64 [s1 + 0xa8]\n 18586: u64 [a2 + 0x58] = a0\n 18589: a0 = u64 [s1 + 0xb0]\n 18593: u64 [a2 + 0x50] = a0\n 18596: a3 = a1\n 18598: a0 = s1 + 0x7ff\n 18602: a0 = a0 + 0x581\n 18606: a1 = s1 + 0x7ff\n 18610: a1 = a1 + 0x561\n 18614: a2 = u64 [s1 + 0xb8]\n 18618: u64 [a3 + 0x548] = a2\n 18622: ra = 878, jump @1291\n      : @875 [@dyn 439] (gas: 2)\n 18628: a1 = 0x20280\n 18633: jump @572\n      : @876 (gas: 17)\n 18636: sp = sp + 0xffffffffffffff30\n 18640: u64 [sp + 0xc8] = ra\n 18644: u64 [sp + 0xc0] = s0\n 18648: u64 [sp + 0xb8] = s1\n 18652: s0 = sp + 0xd0\n 18656: sp = sp & 0xfffffffffffffff0\n 18659: a2 = u64 [a1 + 0x18]\n 18662: u64 [sp + 0x10] = a2\n 18665: a2 = u64 [a1 + 0x10]\n 18668: u64 [sp + 0x8] = a2\n 18671: a2 = u64 [a1 + 0x8]\n 18674: u64 [sp] = a2\n 18676: s1 = u64 [a1]\n 18678: u64 [sp + 0x28] = a0\n 18681: a0 = sp + 0x90\n 18685: a1 = 0x40\n 18688: ra = 880, jump @1424\n      : @877 [@dyn 440] (gas: 39)\n 18694: a1 = u64 [sp + 0x98]\n 18698: a2 = u64 [sp + 0x90]\n 18702: a0 = s1 + 0x1f\n 18705: ra = a0 <u s1\n 18708: a3 = u64 [sp]\n 18710: a4 = a3 + ra\n 18713: a0 = a0 & 0xffffffffffffffe0\n 18716: t1 = a1 + a4\n 18719: t0 = a2 + a0\n 18722: u64 [sp + 0x20] = a2\n 18725: a5 = t0 <u a2\n 18728: t1 = t1 + a5\n 18731: s1 = t1 ^ a1\n 18734: u64 [sp + 0x18] = a1\n 18737: a2 = t1 <u a1\n 18740: a2 = a5 if s1 == 0\n 18743: t2 = u64 [sp + 0xa8]\n 18747: a4 = a4 <u a3\n 18750: s1 = u64 [sp + 0xa0]\n 18754: a4 = ra if ra == 0\n 18757: a0 = u64 [sp + 0x8]\n 18760: a4 = a4 + a0\n 18763: a5 = a4 <u a0\n 18766: a4 = a4 + s1\n 18769: a3 = a4 + a2\n 18772: a0 = u64 [sp + 0x10]\n 18775: a0 = a0 + t2\n 18778: a0 = a0 + a5\n 18781: a5 = a3 <u a4\n 18784: a4 = a4 <u s1\n 18787: a0 = a0 + a4\n 18790: a4 = a0 + a5\n 18793: a0 = a4 >u 0\n 18795: a5 = a3 >u 0\n 18797: a5 = a0 if a4 != 0\n 18800: a0 = a3 | a4\n 18803: a1 = t1 >u 0\n 18805: a1 = a5 if a0 != 0\n 18808: jump @881 if a1 != 0\n      : @878 (gas: 8)\n 18811: a0 = a3 <u s1\n 18814: a1 = a4 ^ t2\n 18817: a5 = a4 <u t2\n 18820: a5 = a0 if a1 == 0\n 18823: a0 = a3 ^ s1\n 18826: a0 = a0 | a1\n 18829: a2 = a5 if a0 != 0\n 18832: jump @881 if a2 != 0\n      : @879 (gas: 8)\n 18835: u64 [sp + 0x70] = t0\n 18838: u64 [sp + 0x78] = t1\n 18841: u64 [sp + 0x80] = a3\n 18845: a0 = 0x40\n 18848: a1 = sp + 0x70\n 18851: u64 [sp + 0x88] = a4\n 18855: u64 [sp + 0x10] = t2\n 18858: ra = 882, jump @1426\n      : @880 [@dyn 441] (gas: 14)\n 18864: a0 = u64 [sp + 0x28]\n 18867: a1 = u64 [sp + 0x10]\n 18870: u64 [a0 + 0x18] = a1\n 18873: u64 [a0 + 0x10] = s1\n 18876: a1 = u64 [sp + 0x18]\n 18879: u64 [a0 + 0x8] = a1\n 18882: a1 = u64 [sp + 0x20]\n 18885: u64 [a0] = a1\n 18887: sp = s0 + 0xffffffffffffff30\n 18891: ra = u64 [sp + 0xc8]\n 18895: s0 = u64 [sp + 0xc0]\n 18899: s1 = u64 [sp + 0xb8]\n 18903: sp = sp + 0xd0\n 18907: ret\n      : @881 (gas: 6)\n 18909: u64 [sp + 96] = 0\n 18912: u64 [sp + 88] = 0\n 18915: u64 [sp + 80] = 0\n 18918: t0 = 0x374\n 18922: a0 = 0x4e487b7100000000\n 18932: fallthrough\n      : @882 [@dyn 442] (gas: 4)\n 18933: a1 = sp + 0x50\n 18936: u64 [sp + 0x68] = a0\n 18939: a0 = 0\n 18941: ra = 886, jump @1426\n      : @883 [@dyn 443] (gas: 7)\n 18947: u64 [sp + 72] = 0\n 18950: u64 [sp + 64] = 0\n 18953: u64 [sp + 48] = 0x41\n 18957: a0 = 0x4\n 18960: a1 = sp + 0x30\n 18963: u64 [sp + 56] = 0\n 18966: ra = 888, jump @1426\n      : @884 [@dyn 444] (gas: 2)\n 18972: a1 = i32 [0x2026c]\n 18977: jump @886 if a1 >u 63\n      : @885 (gas: 2)\n 18981: u32 [0x2026c] = 0x40\n 18987: fallthrough\n      : @886 (gas: 7)\n 18988: a1 = 0x20280\n 18993: i32 a1 = a1 + 0\n 18995: a0 = 0x1\n 18998: a2 = 0x24\n 19001: ra = 0x37a\n 19005: ecalli 7 // 'seal_return'\n 19007: fallthrough\n      : @887 [@dyn 445] (gas: 22)\n 19008: sp = sp + 0xfffffffffffffdc0\n 19012: a2 = sp + 0x200\n 19016: u64 [a2 + 0x38] = ra\n 19019: u64 [a2 + 0x30] = s0\n 19022: u64 [a2 + 0x28] = s1\n 19025: s0 = sp + 0x240\n 19029: sp = sp & 0xffffffffffffffe0\n 19032: s1 = sp\n 19034: a2 = u64 [a1 + 0x10]\n 19037: u64 [s1 + 0x30] = a2\n 19040: a2 = u64 [a1 + 0x8]\n 19043: u64 [s1 + 0x50] = a2\n 19046: a1 = u64 [a1]\n 19048: u64 [s1 + 0x58] = a1\n 19051: u64 [s1 + 0x38] = a0\n 19054: u64 [s1 + 536] = 0\n 19058: u64 [s1 + 528] = 0\n 19062: u64 [s1 + 520] = 0\n 19066: a1 = s1 + 0x200\n 19070: u64 [s1 + 512] = 0\n 19074: a0 = 0\n 19076: ra = 892, jump @1426\n      : @888 [@dyn 446] (gas: 7)\n 19082: u64 [s1 + 504] = 0\n 19086: u64 [s1 + 496] = 0\n 19090: u64 [s1 + 480] = 0x6\n 19095: a0 = 0x20\n 19098: a1 = s1 + 0x1e0\n 19102: u64 [s1 + 488] = 0\n 19106: ra = 894, jump @1426\n      : @889 [@dyn 447] (gas: 3)\n 19112: a1 = 0x2026c\n 19117: a0 = i32 [0x2026c]\n 19122: jump @891 if a0 >u 63\n      : @890 (gas: 2)\n 19126: u32 [0x2026c] = 0x40\n 19132: fallthrough\n      : @891 (gas: 14)\n 19133: a0 = sp + 0xffffffffffffffe0\n 19136: a2 = a0 & 0xffffffffffffffe0\n 19139: u64 [s1 + 0x28] = a2\n 19142: sp = a2\n 19144: a0 = 0x20280\n 19149: i32 a0 = a0 + 0\n 19151: i32 a2 = a2 + 0\n 19153: u64 [s1 + 0x48] = a1\n 19156: a1 = 0x40\n 19159: u64 [s1 + 0x40] = a0\n 19162: ra = 0x380\n 19166: ecalli 6 // 'hash_keccak_256'\n 19168: t0 = 0x382\n 19172: jump @1348\n      : @892 [@dyn 448] (gas: 1)\n 19175: t0 = 898, jump @1348\n      : @893 [@dyn 449] (gas: 13)\n 19181: a0 = u64 [s1 + 0x30]\n 19184: a0 = a0 << 0x20\n 19187: a0 = a0 >> 0x20\n 19190: u64 [s1 + 472] = 0\n 19194: u64 [s1] = a0\n 19196: u64 [s1 + 0x1d0] = a0\n 19200: a0 = u64 [s1 + 0x50]\n 19203: u64 [s1 + 0x1c8] = a0\n 19207: a1 = s1 + 0x1c0\n 19211: a0 = u64 [s1 + 0x58]\n 19214: u64 [s1 + 0x1c0] = a0\n 19218: a0 = 0\n 19220: ra = 900, jump @1426\n      : @894 [@dyn 450] (gas: 12)\n 19226: a0 = u64 [s1 + 0x8]\n 19229: a3 = s1 + 0x100\n 19233: u64 [a3 + 0xb8] = a0\n 19237: a0 = u64 [s1 + 0x10]\n 19240: u64 [a3 + 0xb0] = a0\n 19244: a0 = u64 [s1 + 0x18]\n 19247: u64 [a3 + 0xa8] = a0\n 19251: a0 = 0x20\n 19254: a1 = s1 + 0x1a0\n 19258: a2 = u64 [s1 + 0x20]\n 19261: u64 [a3 + 0xa0] = a2\n 19265: ra = 902, jump @1426\n      : @895 [@dyn 451] (gas: 3)\n 19271: a1 = u64 [s1 + 0x48]\n 19274: a0 = i32 [a1]\n 19276: jump @897 if a0 >u 63\n      : @896 (gas: 2)\n 19280: u32 [a1 + 0] = 0x40\n 19283: fallthrough\n      : @897 (gas: 4)\n 19284: a0 = sp + 0xffffffffffffffe0\n 19287: a0 = a0 & 0xffffffffffffffe0\n 19290: u64 [s1 + 0x30] = a0\n 19293: t0 = 904, jump @1415\n      : @898 [@dyn 452] (gas: 5)\n 19299: ra = 0x38a\n 19303: ecalli 6 // 'hash_keccak_256'\n 19305: a3 = u64 [s1 + 0x30]\n 19308: t0 = 0x38c\n 19312: jump @1360\n      : @899 [@dyn 453] (gas: 2)\n 19315: a3 = u64 [s1 + 0x30]\n 19318: t0 = 908, jump @1360\n      : @900 [@dyn 454] (gas: 2)\n 19324: a0 = s1 + 0x180\n 19328: ra = 910, jump @1428\n      : @901 [@dyn 455] (gas: 2)\n 19334: a0 = u8 [s1 + 0x180]\n 19338: jump @903 if a0 == 0\n      : @902 (gas: 2)\n 19341: a1 = 0\n 19343: jump @924\n      : @903 (gas: 6)\n 19346: u64 [s1 + 376] = 0\n 19350: u64 [s1 + 368] = 0\n 19354: u64 [s1 + 360] = 0\n 19358: a1 = s1 + 0x160\n 19362: u64 [s1 + 352] = 0\n 19366: ra = 912, jump @1426\n      : @904 [@dyn 456] (gas: 1)\n 19372: t0 = 914, jump @1373\n      : @905 [@dyn 457] (gas: 1)\n 19378: ra = 916, jump @1426\n      : @906 [@dyn 458] (gas: 3)\n 19384: a1 = u64 [s1 + 0x48]\n 19387: a0 = i32 [a1]\n 19389: jump @908 if a0 >u 63\n      : @907 (gas: 2)\n 19393: u32 [a1 + 0] = 0x40\n 19396: fallthrough\n      : @908 (gas: 4)\n 19397: a0 = sp + 0xffffffffffffffe0\n 19400: a0 = a0 & 0xffffffffffffffe0\n 19403: u64 [s1 + 0x30] = a0\n 19406: t0 = 918, jump @1415\n      : @909 [@dyn 459] (gas: 5)\n 19412: ra = 0x398\n 19416: ecalli 6 // 'hash_keccak_256'\n 19418: a3 = u64 [s1 + 0x30]\n 19421: t0 = 0x39a\n 19425: jump @1397\n      : @910 [@dyn 460] (gas: 2)\n 19428: a3 = u64 [s1 + 0x30]\n 19431: t0 = 922, jump @1397\n      : @911 [@dyn 461] (gas: 21)\n 19437: u64 [s1 + 0x28] = a0\n 19440: a0 = reverse a1\n 19442: u64 [s1 + 0x20] = a0\n 19445: a0 = reverse a2\n 19447: u64 [s1 + 0x18] = a0\n 19450: a0 = reverse a3\n 19452: u64 [s1 + 0x10] = a0\n 19455: a0 = sp + 0xffffffffffffffe0\n 19458: a0 = a0 & 0xffffffffffffffe0\n 19461: u64 [s1 + 0x30] = a0\n 19464: sp = a0\n 19466: u64 [s1 + 312] = 0\n 19470: a0 = u64 [s1]\n 19472: u64 [s1 + 0x130] = a0\n 19476: a0 = u64 [s1 + 0x50]\n 19479: u64 [s1 + 0x128] = a0\n 19483: a1 = s1 + 0x120\n 19487: a0 = u64 [s1 + 0x58]\n 19490: u64 [s1 + 0x120] = a0\n 19494: a0 = 0\n 19496: ra = 924, jump @1426\n      : @912 [@dyn 462] (gas: 12)\n 19502: a0 = u64 [s1 + 0x10]\n 19505: a3 = s1 + 0x100\n 19509: u64 [a3 + 0x18] = a0\n 19512: a0 = u64 [s1 + 0x18]\n 19515: u64 [a3 + 0x10] = a0\n 19518: a0 = u64 [s1 + 0x20]\n 19521: u64 [a3 + 0x8] = a0\n 19524: a0 = 0x20\n 19527: a1 = s1 + 0x100\n 19531: a2 = u64 [s1 + 0x28]\n 19534: u64 [a3] = a2\n 19536: ra = 926, jump @1426\n      : @913 [@dyn 463] (gas: 3)\n 19542: a1 = u64 [s1 + 0x48]\n 19545: a0 = i32 [a1]\n 19547: jump @915 if a0 >u 63\n      : @914 (gas: 2)\n 19551: u32 [a1 + 0] = 0x40\n 19554: fallthrough\n      : @915 (gas: 4)\n 19555: a0 = sp + 0xffffffffffffffe0\n 19558: a0 = a0 & 0xffffffffffffffe0\n 19561: u64 [s1 + 0x48] = a0\n 19564: t0 = 928, jump @1415\n      : @916 [@dyn 464] (gas: 5)\n 19570: ra = 0x3a2\n 19574: ecalli 6 // 'hash_keccak_256'\n 19576: a3 = u64 [s1 + 0x48]\n 19579: t0 = 0x3a4\n 19583: jump @1351\n      : @917 [@dyn 465] (gas: 2)\n 19586: a3 = u64 [s1 + 0x48]\n 19589: t0 = 932, jump @1351\n      : @918 [@dyn 466] (gas: 7)\n 19595: a1 = u64 [s1 + 0x30]\n 19598: u64 [a1 + 0x18] = a3\n 19601: u64 [a1 + 0x10] = a2\n 19604: u64 [a1 + 0x8] = a4\n 19607: u64 [a1] = a0\n 19609: a0 = s1 + 0xe0\n 19613: ra = 934, jump @1428\n      : @919 [@dyn 467] (gas: 15)\n 19619: a0 = u64 [s1 + 0xe8]\n 19623: a1 = u64 [s1 + 0xe0]\n 19627: a2 = u64 [s1 + 0xf0]\n 19631: a3 = u64 [s1 + 0xf8]\n 19635: a1 = a1 & 0xffffffffffffff00\n 19639: a4 = a1 | 0x1\n 19642: a1 = sp + 0xffffffffffffffe0\n 19645: a1 = a1 & 0xffffffffffffffe0\n 19648: sp = a1\n 19650: u64 [a1 + 0x18] = a3\n 19653: u64 [a1 + 0x10] = a2\n 19656: u64 [a1 + 0x8] = a0\n 19659: u64 [a1] = a4\n 19661: a0 = u64 [s1 + 0x30]\n 19664: ra = 936, jump @1429\n      : @920 [@dyn 468] (gas: 8)\n 19670: a0 = 0x30280\n 19675: u64 [s1 + 0x48] = a0\n 19678: i32 a0 = a0 + 0\n 19680: ra = 0x3aa\n 19684: ecalli 3 // 'caller'\n 19686: a2 = u64 [s1 + 0x48]\n 19689: t0 = 0x3ac\n 19693: jump @1349\n      : @921 [@dyn 469] (gas: 2)\n 19696: a2 = u64 [s1 + 0x48]\n 19699: t0 = 940, jump @1349\n      : @922 [@dyn 470] (gas: 36)\n 19705: t0 = a1 | a0\n 19708: a3 = a3 >> 0x20\n 19711: a2 = reverse a2\n 19713: a1 = a2 << 0x20\n 19716: a1 = a1 | a3\n 19719: a2 = a2 >> 0x20\n 19722: u64 [s1 + 120] = 0\n 19725: u64 [s1 + 152] = 0\n 19729: a0 = u64 [s1]\n 19731: u64 [s1 + 0x90] = a0\n 19735: a0 = u64 [s1 + 0x50]\n 19738: u64 [s1 + 0x88] = a0\n 19742: a0 = u64 [s1 + 0x58]\n 19745: u64 [s1 + 0x80] = a0\n 19749: u64 [s1 + 184] = 0\n 19753: u64 [s1 + 176] = 0\n 19757: u64 [s1 + 168] = 0\n 19761: u64 [s1 + 160] = 0\n 19765: a3 = u64 [0x20128]\n 19770: a4 = u64 [0x20130]\n 19775: a5 = u64 [0x20138]\n 19780: a0 = u64 [0x20140]\n 19785: u64 [s1 + 0xd8] = a3\n 19789: u64 [s1 + 0xd0] = a4\n 19793: u64 [s1 + 0xc8] = a5\n 19797: u64 [s1 + 0xc0] = a0\n 19801: u64 [s1 + 0x70] = a2\n 19804: u64 [s1 + 0x68] = a1\n 19807: a2 = s1 + 0xc0\n 19811: a3 = s1 + 0xa0\n 19815: a4 = s1 + 0x80\n 19819: a5 = s1 + 0x60\n 19822: u64 [s1 + 0x60] = t0\n 19825: a0 = 0\n 19827: a1 = 0\n 19829: ra = 942, jump @1434\n      : @923 [@dyn 471] (gas: 2)\n 19835: a1 = 0x1\n 19838: fallthrough\n      : @924 (gas: 12)\n 19839: a2 = u64 [s1 + 0x38]\n 19842: u64 [a2] = a1\n 19844: u64 [a2 + 8] = 0\n 19847: u64 [a2 + 16] = 0\n 19850: u64 [a2 + 24] = 0\n 19853: sp = s0 + 0xfffffffffffffdc0\n 19857: a0 = sp + 0x200\n 19861: ra = u64 [a0 + 0x38]\n 19864: s0 = u64 [a0 + 0x30]\n 19867: s1 = u64 [a0 + 0x28]\n 19870: sp = sp + 0x240\n 19874: ret\n      : @925 [@dyn 472] (gas: 7)\n 19876: a0 = u64 [0x20148]\n 19881: u64 [s1 + 0x20] = a0\n 19884: u64 [s1 + 0x238] = a0\n 19888: a1 = u64 [0x20150]\n 19893: a2 = u64 [0x20158]\n 19898: a0 = u64 [0x20160]\n 19903: t0 = 946, jump @1404\n      : @926 [@dyn 473] (gas: 1)\n 19909: ra = 948, jump @1426\n      : @927 [@dyn 474] (gas: 1)\n 19915: t0 = 950, jump @1357\n      : @928 [@dyn 475] (gas: 1)\n 19921: ra = 952, jump @1426\n      : @929 [@dyn 476] (gas: 3)\n 19927: a1 = 0x2026c\n 19932: a0 = i32 [0x2026c]\n 19937: jump @931 if a0 >u 63\n      : @930 (gas: 2)\n 19941: u32 [0x2026c] = 0x40\n 19947: fallthrough\n      : @931 (gas: 6)\n 19948: a0 = sp + 0xffffffffffffffe0\n 19951: a2 = a0 & 0xffffffffffffffe0\n 19954: u64 [s1 + 0x48] = a2\n 19957: sp = a2\n 19959: a0 = 0x20280\n 19964: t0 = 954, jump @1416\n      : @932 [@dyn 477] (gas: 4)\n 19970: ra = 0x3bc\n 19974: ecalli 6 // 'hash_keccak_256'\n 19976: t0 = 0x3be\n 19980: jump @1344\n      : @933 [@dyn 478] (gas: 1)\n 19983: t0 = 958, jump @1344\n      : @934 [@dyn 479] (gas: 1)\n 19989: ra = 960, jump @1426\n      : @935 [@dyn 480] (gas: 1)\n 19995: t0 = 962, jump @1370\n      : @936 [@dyn 481] (gas: 1)\n 20001: ra = 964, jump @1426\n      : @937 [@dyn 482] (gas: 3)\n 20007: a1 = u64 [s1 + 0x68]\n 20010: a0 = i32 [a1]\n 20012: jump @939 if a0 >u 63\n      : @938 (gas: 3)\n 20016: u32 [a1 + 0] = 0x40\n 20019: t0 = 0x3c6\n 20023: jump @1355\n      : @939 (gas: 1)\n 20026: t0 = 966, jump @1355\n      : @940 [@dyn 483] (gas: 4)\n 20032: ra = 0x3c8\n 20036: ecalli 6 // 'hash_keccak_256'\n 20038: t0 = 0x3ca\n 20042: jump @1350\n      : @941 [@dyn 484] (gas: 1)\n 20045: t0 = 970, jump @1350\n      : @942 [@dyn 485] (gas: 1)\n 20051: ra = 972, jump @1428\n      : @943 [@dyn 486] (gas: 2)\n 20057: a0 = u8 [s1 + 0x1a0]\n 20061: jump @945 if a0 == 0\n      : @944 (gas: 5)\n 20064: a1 = 0\n 20066: a0 = 0\n 20068: a2 = u64 [s1 + 0x58]\n 20071: t0 = 0x3f4\n 20075: jump @1359\n      : @945 (gas: 1)\n 20078: t0 = 974, jump @1386\n      : @946 [@dyn 487] (gas: 1)\n 20084: ra = 976, jump @1426\n      : @947 [@dyn 488] (gas: 1)\n 20090: t0 = 978, jump @1358\n      : @948 [@dyn 489] (gas: 1)\n 20096: ra = 980, jump @1426\n      : @949 [@dyn 490] (gas: 3)\n 20102: a1 = u64 [s1 + 0x68]\n 20105: a0 = i32 [a1]\n 20107: jump @951 if a0 >u 63\n      : @950 (gas: 3)\n 20111: u32 [a1 + 0] = 0x40\n 20114: t0 = 0x3d6\n 20118: jump @1355\n      : @951 (gas: 1)\n 20121: t0 = 982, jump @1355\n      : @952 [@dyn 491] (gas: 4)\n 20127: ra = 0x3d8\n 20131: ecalli 6 // 'hash_keccak_256'\n 20133: t0 = 0x3da\n 20137: jump @1346\n      : @953 [@dyn 492] (gas: 1)\n 20140: t0 = 986, jump @1346\n      : @954 [@dyn 493] (gas: 1)\n 20146: ra = 988, jump @1426\n      : @955 [@dyn 494] (gas: 1)\n 20152: t0 = 990, jump @1368\n      : @956 [@dyn 495] (gas: 1)\n 20158: ra = 992, jump @1426\n      : @957 [@dyn 496] (gas: 3)\n 20164: a1 = u64 [s1 + 0x68]\n 20167: a0 = i32 [a1]\n 20169: jump @959 if a0 >u 63\n      : @958 (gas: 2)\n 20173: u32 [a1 + 0] = 0x40\n 20176: fallthrough\n      : @959 (gas: 4)\n 20177: a0 = sp + 0xffffffffffffffe0\n 20180: a0 = a0 & 0xffffffffffffffe0\n 20183: u64 [s1 + 0x68] = a0\n 20186: t0 = 994, jump @1361\n      : @960 [@dyn 497] (gas: 4)\n 20192: ra = 0x3e4\n 20196: ecalli 6 // 'hash_keccak_256'\n 20198: t0 = 0x3e6\n 20202: jump @1353\n      : @961 [@dyn 498] (gas: 1)\n 20205: t0 = 998, jump @1353\n      : @962 [@dyn 499] (gas: 1)\n 20211: ra = 1000, jump @1428\n      : @963 [@dyn 500] (gas: 1)\n 20217: t0 = 1002, jump @1354\n      : @964 [@dyn 501] (gas: 1)\n 20223: ra = 1004, jump @1429\n      : @965 [@dyn 502] (gas: 8)\n 20229: a0 = 0x30280\n 20234: u64 [s1 + 0x68] = a0\n 20237: i32 a0 = a0 + 0\n 20239: ra = 0x3ee\n 20243: ecalli 3 // 'caller'\n 20245: a2 = u64 [s1 + 0x68]\n 20248: t0 = 0x3f0\n 20252: jump @1349\n      : @966 [@dyn 503] (gas: 2)\n 20255: a2 = u64 [s1 + 0x68]\n 20258: t0 = 1008, jump @1349\n      : @967 [@dyn 504] (gas: 40)\n 20264: t0 = a1 | a0\n 20267: a3 = a3 >> 0x20\n 20270: a2 = reverse a2\n 20272: a1 = a2 << 0x20\n 20275: a1 = a1 | a3\n 20278: a2 = a2 >> 0x20\n 20281: u64 [s1 + 152] = 0\n 20285: u64 [s1 + 184] = 0\n 20289: a0 = u64 [s1]\n 20291: u64 [s1 + 0xb0] = a0\n 20295: a0 = u64 [s1 + 0x70]\n 20298: u64 [s1 + 0xa8] = a0\n 20302: a0 = u64 [s1 + 0x78]\n 20305: u64 [s1 + 0xa0] = a0\n 20309: a0 = u64 [s1 + 0x20]\n 20312: u64 [s1 + 0xd8] = a0\n 20316: a0 = u64 [s1 + 0x18]\n 20319: u64 [s1 + 0xd0] = a0\n 20323: a0 = u64 [s1 + 0x10]\n 20326: u64 [s1 + 0xc8] = a0\n 20330: a0 = u64 [s1 + 0x8]\n 20333: u64 [s1 + 0xc0] = a0\n 20337: a3 = u64 [0x20168]\n 20342: a4 = u64 [0x20170]\n 20347: a5 = u64 [0x20178]\n 20352: a0 = u64 [0x20180]\n 20357: u64 [s1 + 0xf8] = a3\n 20361: u64 [s1 + 0xf0] = a4\n 20365: u64 [s1 + 0xe8] = a5\n 20369: u64 [s1 + 0xe0] = a0\n 20373: u64 [s1 + 0x90] = a2\n 20377: u64 [s1 + 0x88] = a1\n 20381: a2 = s1 + 0xe0\n 20385: a3 = s1 + 0xc0\n 20389: a4 = s1 + 0xa0\n 20393: a5 = s1 + 0x80\n 20397: u64 [s1 + 0x80] = t0\n 20401: a0 = 0\n 20403: a1 = 0\n 20405: ra = 1010, jump @1434\n      : @968 [@dyn 505] (gas: 4)\n 20411: a0 = 0\n 20413: a1 = 0x1\n 20416: a2 = u64 [s1 + 0x58]\n 20419: t0 = 1012, jump @1359\n      : @969 [@dyn 506] (gas: 1)\n 20425: ret\n      : @970 [@dyn 507] (gas: 7)\n 20427: a0 = u64 [0x20188]\n 20432: u64 [s1 + 0x20] = a0\n 20435: u64 [s1 + 0x238] = a0\n 20439: a1 = u64 [0x20190]\n 20444: a2 = u64 [0x20198]\n 20449: a0 = u64 [0x201a0]\n 20454: t0 = 1016, jump @1404\n      : @971 [@dyn 508] (gas: 1)\n 20460: ra = 1018, jump @1426\n      : @972 [@dyn 509] (gas: 1)\n 20466: t0 = 1020, jump @1357\n      : @973 [@dyn 510] (gas: 1)\n 20472: ra = 1022, jump @1426\n      : @974 [@dyn 511] (gas: 3)\n 20478: a1 = 0x2026c\n 20483: a0 = i32 [0x2026c]\n 20488: jump @976 if a0 >u 63\n      : @975 (gas: 2)\n 20492: u32 [0x2026c] = 0x40\n 20498: fallthrough\n      : @976 (gas: 6)\n 20499: a0 = sp + 0xffffffffffffffe0\n 20502: a2 = a0 & 0xffffffffffffffe0\n 20505: u64 [s1 + 0x48] = a2\n 20508: sp = a2\n 20510: a0 = 0x20280\n 20515: t0 = 1024, jump @1416\n      : @977 [@dyn 512] (gas: 4)\n 20521: ra = 0x402\n 20525: ecalli 6 // 'hash_keccak_256'\n 20527: t0 = 0x404\n 20531: jump @1344\n      : @978 [@dyn 513] (gas: 1)\n 20534: t0 = 1028, jump @1344\n      : @979 [@dyn 514] (gas: 1)\n 20540: ra = 1030, jump @1426\n      : @980 [@dyn 515] (gas: 1)\n 20546: t0 = 1032, jump @1370\n      : @981 [@dyn 516] (gas: 1)\n 20552: ra = 1034, jump @1426\n      : @982 [@dyn 517] (gas: 3)\n 20558: a1 = u64 [s1 + 0x68]\n 20561: a0 = i32 [a1]\n 20563: jump @984 if a0 >u 63\n      : @983 (gas: 3)\n 20567: u32 [a1 + 0] = 0x40\n 20570: t0 = 0x40c\n 20574: jump @1355\n      : @984 (gas: 1)\n 20577: t0 = 1036, jump @1355\n      : @985 [@dyn 518] (gas: 4)\n 20583: ra = 0x40e\n 20587: ecalli 6 // 'hash_keccak_256'\n 20589: t0 = 0x410\n 20593: jump @1350\n      : @986 [@dyn 519] (gas: 1)\n 20596: t0 = 1040, jump @1350\n      : @987 [@dyn 520] (gas: 1)\n 20602: ra = 1042, jump @1428\n      : @988 [@dyn 521] (gas: 2)\n 20608: a0 = u8 [s1 + 0x1a0]\n 20612: jump @990 if a0 == 0\n      : @989 (gas: 5)\n 20615: a1 = 0\n 20617: a0 = 0\n 20619: a2 = u64 [s1 + 0x58]\n 20622: t0 = 0x43a\n 20626: jump @1359\n      : @990 (gas: 1)\n 20629: t0 = 1044, jump @1386\n      : @991 [@dyn 522] (gas: 1)\n 20635: ra = 1046, jump @1426\n      : @992 [@dyn 523] (gas: 1)\n 20641: t0 = 1048, jump @1358\n      : @993 [@dyn 524] (gas: 1)\n 20647: ra = 1050, jump @1426\n      : @994 [@dyn 525] (gas: 3)\n 20653: a1 = u64 [s1 + 0x68]\n 20656: a0 = i32 [a1]\n 20658: jump @996 if a0 >u 63\n      : @995 (gas: 3)\n 20662: u32 [a1 + 0] = 0x40\n 20665: t0 = 0x41c\n 20669: jump @1355\n      : @996 (gas: 1)\n 20672: t0 = 1052, jump @1355\n      : @997 [@dyn 526] (gas: 4)\n 20678: ra = 0x41e\n 20682: ecalli 6 // 'hash_keccak_256'\n 20684: t0 = 0x420\n 20688: jump @1346\n      : @998 [@dyn 527] (gas: 1)\n 20691: t0 = 1056, jump @1346\n      : @999 [@dyn 528] (gas: 1)\n 20697: ra = 1058, jump @1426\n      : @1000 [@dyn 529] (gas: 1)\n 20703: t0 = 1060, jump @1368\n      : @1001 [@dyn 530] (gas: 1)\n 20709: ra = 1062, jump @1426\n      : @1002 [@dyn 531] (gas: 3)\n 20715: a1 = u64 [s1 + 0x68]\n 20718: a0 = i32 [a1]\n 20720: jump @1004 if a0 >u 63\n      : @1003 (gas: 2)\n 20724: u32 [a1 + 0] = 0x40\n 20727: fallthrough\n      : @1004 (gas: 4)\n 20728: a0 = sp + 0xffffffffffffffe0\n 20731: a0 = a0 & 0xffffffffffffffe0\n 20734: u64 [s1 + 0x68] = a0\n 20737: t0 = 1064, jump @1361\n      : @1005 [@dyn 532] (gas: 4)\n 20743: ra = 0x42a\n 20747: ecalli 6 // 'hash_keccak_256'\n 20749: t0 = 0x42c\n 20753: jump @1353\n      : @1006 [@dyn 533] (gas: 1)\n 20756: t0 = 1068, jump @1353\n      : @1007 [@dyn 534] (gas: 1)\n 20762: ra = 1070, jump @1428\n      : @1008 [@dyn 535] (gas: 1)\n 20768: t0 = 1072, jump @1354\n      : @1009 [@dyn 536] (gas: 1)\n 20774: ra = 1074, jump @1429\n      : @1010 [@dyn 537] (gas: 8)\n 20780: a0 = 0x30280\n 20785: u64 [s1 + 0x68] = a0\n 20788: i32 a0 = a0 + 0\n 20790: ra = 0x434\n 20794: ecalli 3 // 'caller'\n 20796: a2 = u64 [s1 + 0x68]\n 20799: t0 = 0x436\n 20803: jump @1349\n      : @1011 [@dyn 538] (gas: 2)\n 20806: a2 = u64 [s1 + 0x68]\n 20809: t0 = 1078, jump @1349\n      : @1012 [@dyn 539] (gas: 40)\n 20815: t0 = a1 | a0\n 20818: a3 = a3 >> 0x20\n 20821: a2 = reverse a2\n 20823: a1 = a2 << 0x20\n 20826: a1 = a1 | a3\n 20829: a2 = a2 >> 0x20\n 20832: u64 [s1 + 152] = 0\n 20836: u64 [s1 + 184] = 0\n 20840: a0 = u64 [s1]\n 20842: u64 [s1 + 0xb0] = a0\n 20846: a0 = u64 [s1 + 0x70]\n 20849: u64 [s1 + 0xa8] = a0\n 20853: a0 = u64 [s1 + 0x78]\n 20856: u64 [s1 + 0xa0] = a0\n 20860: a0 = u64 [s1 + 0x20]\n 20863: u64 [s1 + 0xd8] = a0\n 20867: a0 = u64 [s1 + 0x18]\n 20870: u64 [s1 + 0xd0] = a0\n 20874: a0 = u64 [s1 + 0x10]\n 20877: u64 [s1 + 0xc8] = a0\n 20881: a0 = u64 [s1 + 0x8]\n 20884: u64 [s1 + 0xc0] = a0\n 20888: a3 = u64 [0x201a8]\n 20893: a4 = u64 [0x201b0]\n 20898: a5 = u64 [0x201b8]\n 20903: a0 = u64 [0x201c0]\n 20908: u64 [s1 + 0xf8] = a3\n 20912: u64 [s1 + 0xf0] = a4\n 20916: u64 [s1 + 0xe8] = a5\n 20920: u64 [s1 + 0xe0] = a0\n 20924: u64 [s1 + 0x90] = a2\n 20928: u64 [s1 + 0x88] = a1\n 20932: a2 = s1 + 0xe0\n 20936: a3 = s1 + 0xc0\n 20940: a4 = s1 + 0xa0\n 20944: a5 = s1 + 0x80\n 20948: u64 [s1 + 0x80] = t0\n 20952: a0 = 0\n 20954: a1 = 0\n 20956: ra = 1080, jump @1434\n      : @1013 [@dyn 540] (gas: 4)\n 20962: a0 = 0\n 20964: a1 = 0x1\n 20967: a2 = u64 [s1 + 0x58]\n 20970: t0 = 1082, jump @1359\n      : @1014 [@dyn 541] (gas: 1)\n 20976: ret\n      : @1015 (gas: 22)\n 20978: sp = sp + 0xfffffffffffffee0\n 20982: u64 [sp + 0x118] = ra\n 20986: u64 [sp + 0x110] = s0\n 20990: u64 [sp + 0x108] = s1\n 20994: s0 = sp + 0x120\n 20998: sp = sp & 0xfffffffffffffff0\n 21001: a4 = u64 [a1 + 0x10]\n 21004: a3 = u64 [a1 + 0x18]\n 21007: a5 = u64 [a1 + 0x8]\n 21010: t0 = u64 [a1]\n 21012: u64 [sp + 0x68] = a3\n 21015: u64 [sp + 0x78] = a5\n 21018: a1 = a5 | a3\n 21021: a3 = t0 | a4\n 21024: a3 = a3 | a1\n 21027: a3 = a3 >> 0x20\n 21030: u64 [sp + 0x70] = a4\n 21033: a1 = a1 | a4\n 21036: a1 = a1 << 0x20\n 21039: a1 = a1 | a3\n 21042: u64 [sp + 0x8] = a0\n 21045: jump @1030 if a1 != 0\n      : @1016 (gas: 15)\n 21049: a0 = u64 [a2 + 0x18]\n 21052: u64 [sp + 0x48] = a0\n 21055: s1 = u64 [a2 + 0x10]\n 21058: a0 = u64 [a2 + 0x8]\n 21061: u64 [sp + 0x50] = a0\n 21064: a0 = u64 [a2]\n 21066: u64 [sp + 0x58] = a0\n 21069: u64 [sp + 248] = 0\n 21073: u64 [sp + 240] = 0\n 21077: u64 [sp + 232] = 0\n 21081: a1 = sp + 0xe0\n 21085: u64 [sp + 224] = 0x20\n 21090: a0 = t0\n 21092: u64 [sp + 0x60] = t0\n 21095: ra = 1084, jump @1426\n      : @1017 [@dyn 542] (gas: 12)\n 21101: a1 = u64 [sp + 0x58]\n 21104: a0 = a1 | s1\n 21107: a2 = u64 [sp + 0x48]\n 21110: a3 = u64 [sp + 0x50]\n 21113: a2 = a2 | a3\n 21116: a0 = a0 | a2\n 21119: a0 = a0 >> 0x20\n 21122: u64 [sp + 0x20] = s1\n 21125: a2 = a2 | s1\n 21128: a2 = a2 << 0x20\n 21131: a0 = a0 | a2\n 21134: jump @1030 if a0 != 0\n      : @1018 (gas: 2)\n 21138: a0 = sp + 0xc0\n 21142: ra = 1086, jump @1424\n      : @1019 [@dyn 543] (gas: 13)\n 21148: a0 = u64 [sp + 0x70]\n 21151: a1 = u64 [sp + 0x68]\n 21154: a1 = a1 | a0\n 21157: a0 = 0x100000000\n 21167: u64 [sp + 0x10] = a0\n 21170: a0 = 0xffffffe0\n 21180: a2 = u64 [sp + 0x60]\n 21183: a0 = a2 <u a0\n 21186: a3 = u64 [sp + 0x78]\n 21189: a0 = 0 if a3 != 0\n 21191: u64 [sp + 0x18] = a1\n 21194: a0 = 0 if a1 != 0\n 21196: jump @1030 if a0 == 0\n      : @1020 (gas: 16)\n 21200: a3 = u64 [sp + 0xd8]\n 21204: a4 = u64 [sp + 0xd0]\n 21208: a5 = u64 [sp + 0xc8]\n 21212: a1 = u64 [sp + 0xc0]\n 21216: i32 a0 = a2 + 0x20\n 21219: u64 [sp + 0x28] = a1\n 21222: u64 [sp + 0xa0] = a1\n 21226: u64 [sp + 0x30] = a5\n 21229: u64 [sp + 0xa8] = a5\n 21233: u64 [sp + 0x38] = a4\n 21236: u64 [sp + 0xb0] = a4\n 21240: a1 = sp + 0xa0\n 21244: u64 [sp + 0x40] = a3\n 21247: u64 [sp + 0xb8] = a3\n 21251: s1 = a2\n 21253: ra = 1088, jump @1426\n      : @1021 [@dyn 544] (gas: 8)\n 21259: a0 = u64 [sp + 0x10]\n 21262: a0 = a0 + 0xffffffffffffffc0\n 21265: a0 = s1 <u a0\n 21268: a1 = u64 [sp + 0x78]\n 21271: a0 = 0 if a1 != 0\n 21273: a1 = u64 [sp + 0x18]\n 21276: a0 = 0 if a1 != 0\n 21278: jump @1030 if a0 == 0\n      : @1022 (gas: 10)\n 21282: a0 = u64 [sp + 0x48]\n 21285: a1 = u64 [sp + 0x20]\n 21288: a0 = a0 | a1\n 21291: a1 = 0xffffffe0\n 21301: a3 = u64 [sp + 0x58]\n 21304: a1 = a3 <u a1\n 21307: a4 = u64 [sp + 0x50]\n 21310: a1 = 0 if a4 != 0\n 21312: a1 = 0 if a0 != 0\n 21314: jump @1030 if a1 == 0\n      : @1023 (gas: 13)\n 21318: a2 = s1\n 21320: a1 = u64 [sp + 0x28]\n 21323: a5 = u64 [sp + 0x38]\n 21326: a0 = a1 | a5\n 21329: a4 = u64 [sp + 0x40]\n 21332: s1 = u64 [sp + 0x30]\n 21335: a4 = a4 | s1\n 21338: a0 = a0 | a4\n 21341: a0 = a0 >> 0x20\n 21344: a4 = a4 | a5\n 21347: a4 = a4 << 0x20\n 21350: a0 = a0 | a4\n 21353: jump @1030 if a0 != 0\n      : @1024 (gas: 5)\n 21357: i32 a0 = a2 + 0x40\n 21360: i32 a3 = a3 + 0x20\n 21363: u64 [sp + 0x58] = a3\n 21366: s1 = a1\n 21368: ra = 1090, jump @1436\n      : @1025 [@dyn 545] (gas: 4)\n 21374: u64 [sp + 0x50] = a0\n 21377: a0 = u64 [sp + 0x58]\n 21380: a1 = s1\n 21382: ra = 1092, jump @1436\n      : @1026 [@dyn 546] (gas: 4)\n 21388: a1 = a0\n 21390: a0 = u64 [sp + 0x50]\n 21393: a2 = s1\n 21395: ra = 1094, jump @0\n      : @1027 [@dyn 547] (gas: 27)\n 21401: a0 = u64 [sp + 0x60]\n 21404: a0 = a0 + s1\n 21407: a1 = a0 <u s1\n 21410: a2 = u64 [sp + 0x78]\n 21413: a4 = u64 [sp + 0x30]\n 21416: a2 = a2 + a4\n 21419: a2 = a2 + a1\n 21422: a3 = a2 ^ a4\n 21425: a4 = a2 <u a4\n 21428: a4 = a1 if a3 == 0\n 21431: a1 = u64 [sp + 0x70]\n 21434: a3 = u64 [sp + 0x38]\n 21437: a1 = a1 + a3\n 21440: a3 = a1 <u a3\n 21443: a5 = u64 [sp + 0x68]\n 21446: s1 = u64 [sp + 0x40]\n 21449: a5 = a5 + s1\n 21452: a3 = a3 + a5\n 21455: a4 = a4 + a1\n 21458: a1 = a4 <u a1\n 21461: a1 = a1 + a3\n 21464: a1 = a1 | a4\n 21467: a3 = 0xffffffc0\n 21477: a3 = a0 <u a3\n 21480: a3 = 0 if a2 != 0\n 21482: a3 = 0 if a1 != 0\n 21484: jump @1030 if a3 == 0\n      : @1028 (gas: 7)\n 21488: i32 a0 = a0 + 0x40\n 21491: u64 [sp + 152] = 0\n 21495: u64 [sp + 144] = 0\n 21499: u64 [sp + 136] = 0\n 21503: a1 = sp + 0x80\n 21507: u64 [sp + 128] = 0\n 21511: ra = 1096, jump @1426\n      : @1029 [@dyn 548] (gas: 35)\n 21517: s1 = u64 [sp + 0x28]\n 21520: s1 = s1 + 0x1f\n 21523: a0 = 0x1ffffffe0\n 21533: a0 = a0 & s1\n 21536: a1 = u64 [sp + 0x60]\n 21539: a0 = a0 + a1\n 21542: a1 = a0 <u a1\n 21545: a3 = u64 [sp + 0x78]\n 21548: a2 = a3 + a1\n 21551: a3 = a2 <u a3\n 21554: a3 = a1 if a1 == 0\n 21557: a1 = u64 [sp + 0x70]\n 21560: a3 = a3 + a1\n 21563: a1 = a3 <u a1\n 21566: a4 = u64 [sp + 0x68]\n 21569: a1 = a1 + a4\n 21572: a4 = a0 + 0x40\n 21575: a0 = a4 <u a0\n 21578: a5 = a2 + a0\n 21581: a2 = a5 <u a2\n 21584: a2 = a0 if a0 == 0\n 21587: a2 = a2 + a3\n 21590: a0 = a2 <u a3\n 21593: a0 = a0 + a1\n 21596: a1 = u64 [sp + 0x8]\n 21599: u64 [a1] = a4\n 21601: u64 [a1 + 0x8] = a5\n 21604: u64 [a1 + 0x10] = a2\n 21607: u64 [a1 + 0x18] = a0\n 21610: sp = s0 + 0xfffffffffffffee0\n 21614: ra = u64 [sp + 0x118]\n 21618: s0 = u64 [sp + 0x110]\n 21622: s1 = u64 [sp + 0x108]\n 21626: sp = sp + 0x120\n 21630: ret\n      : @1030 (gas: 1)\n 21632: trap\n      : @1031 [@dyn 549] (gas: 5)\n 21633: a1 = 0x4\n 21636: ra = 0x44c\n 21640: ecalli 1 // 'call_data_load'\n 21642: t0 = 0x44e\n 21646: jump @1393\n      : @1032 [@dyn 550] (gas: 1)\n 21649: t0 = 1102, jump @1393\n      : @1033 [@dyn 551] (gas: 1)\n 21655: jump @1036 if a3 == 0\n      : @1034 (gas: 1)\n 21658: t0 = 1104, jump @1405\n      : @1035 [@dyn 552] (gas: 1)\n 21664: ret\n      : @1036 (gas: 8)\n 21666: a1 = 0x20280\n 21671: i32 a1 = a1 + 0\n 21673: a0 = 0x1\n 21676: a2 = 0\n 21678: ra = 0x452\n 21682: ecalli 7 // 'seal_return'\n 21684: t0 = 0x454\n 21688: jump @1420\n      : @1037 [@dyn 553] (gas: 1)\n 21691: t0 = 1108, jump @1420\n      : @1038 [@dyn 554] (gas: 5)\n 21697: a1 = 0x24\n 21700: ra = 0x456\n 21704: ecalli 1 // 'call_data_load'\n 21706: t0 = 0x458\n 21710: jump @1393\n      : @1039 [@dyn 555] (gas: 1)\n 21713: t0 = 1112, jump @1393\n      : @1040 [@dyn 556] (gas: 1)\n 21719: jump @1043 if a3 == 0\n      : @1041 (gas: 1)\n 21722: t0 = 1114, jump @1405\n      : @1042 [@dyn 557] (gas: 1)\n 21728: ret\n      : @1043 (gas: 7)\n 21730: a1 = 0x20280\n 21735: i32 a1 = a1 + 0\n 21737: a0 = 0x1\n 21740: a2 = 0\n 21742: ra = 0x45c\n 21746: ecalli 7 // 'seal_return'\n 21748: fallthrough\n      : @1044 [@dyn 558] (gas: 19)\n 21749: sp = sp + 0xffffffffffffff60\n 21753: u64 [sp + 0x98] = ra\n 21757: u64 [sp + 0x90] = s0\n 21761: u64 [sp + 0x88] = s1\n 21765: s0 = sp + 0xa0\n 21769: sp = sp & 0xffffffffffffffe0\n 21772: s1 = sp\n 21774: a2 = u64 [a1]\n 21776: a3 = u64 [a1 + 0x8]\n 21779: a4 = u64 [a1 + 0x10]\n 21782: a1 = u64 [a1 + 0x18]\n 21785: u64 [s1 + 0x18] = a0\n 21788: u64 [s1 + 0x78] = a1\n 21791: u64 [s1 + 0x70] = a4\n 21794: u64 [s1 + 0x68] = a3\n 21797: a1 = s1 + 0x60\n 21800: u64 [s1 + 0x60] = a2\n 21803: a0 = 0\n 21805: ra = 1118, jump @1426\n      : @1045 [@dyn 559] (gas: 7)\n 21811: u64 [s1 + 88] = 0\n 21814: u64 [s1 + 80] = 0\n 21817: u64 [s1 + 64] = 0x6\n 21821: a0 = 0x20\n 21824: a1 = s1 + 0x40\n 21827: u64 [s1 + 72] = 0\n 21830: ra = 1120, jump @1426\n      : @1046 [@dyn 560] (gas: 2)\n 21836: a1 = i32 [0x2026c]\n 21841: jump @1048 if a1 >u 63\n      : @1047 (gas: 2)\n 21845: u32 [0x2026c] = 0x40\n 21851: fallthrough\n      : @1048 (gas: 35)\n 21852: a0 = sp + 0xffffffffffffffe0\n 21855: a2 = a0 & 0xffffffffffffffe0\n 21858: u64 [s1 + 0x10] = a2\n 21861: sp = a2\n 21863: a0 = 0x20280\n 21868: i32 a0 = a0 + 0\n 21870: i32 a2 = a2 + 0\n 21872: a1 = 0x40\n 21875: ecalli 6 // 'hash_keccak_256'\n 21877: a3 = u64 [s1 + 0x10]\n 21880: a0 = u64 [a3]\n 21882: a1 = u64 [a3 + 0x8]\n 21885: a2 = u64 [a3 + 0x10]\n 21888: a3 = u64 [a3 + 0x18]\n 21891: a0 = reverse a0\n 21893: a1 = reverse a1\n 21895: a2 = reverse a2\n 21897: a3 = reverse a3\n 21899: a3 = a3 + 0x1\n 21902: a4 = a3 <u 0x1\n 21905: a2 = a2 + a4\n 21908: a4 = a3 | a2\n 21911: a4 = a4 <u 0x1\n 21914: a4 = a4 + a1\n 21917: a1 = a4 <u a1\n 21920: a0 = a0 + a1\n 21923: a1 = sp + 0xffffffffffffffe0\n 21926: a1 = a1 & 0xffffffffffffffe0\n 21929: sp = a1\n 21931: u64 [a1 + 0x8] = a2\n 21934: u64 [a1] = a3\n 21936: u64 [a1 + 0x10] = a4\n 21939: u64 [a1 + 0x18] = a0\n 21942: a0 = s1 + 0x20\n 21945: ra = 1122, jump @1428\n      : @1049 [@dyn 561] (gas: 15)\n 21951: a0 = u64 [s1 + 0x30]\n 21954: a1 = u64 [s1 + 0x38]\n 21957: a2 = u64 [s1 + 0x20]\n 21960: a3 = u64 [s1 + 0x28]\n 21963: a4 = u64 [s1 + 0x18]\n 21966: u64 [a4 + 0x10] = a0\n 21969: u64 [a4 + 0x18] = a1\n 21972: u64 [a4] = a2\n 21974: u64 [a4 + 0x8] = a3\n 21977: sp = s0 + 0xffffffffffffff60\n 21981: ra = u64 [sp + 0x98]\n 21985: s0 = u64 [sp + 0x90]\n 21989: s1 = u64 [sp + 0x88]\n 21993: sp = sp + 0xa0\n 21997: ret\n      : @1050 (gas: 37)\n 21999: sp = sp + 0xfffffffffffffd00\n 22003: a3 = sp + 0x200\n 22007: u64 [a3 + 0xf8] = ra\n 22011: u64 [a3 + 0xf0] = s0\n 22015: u64 [a3 + 0xe8] = s1\n 22019: s0 = sp + 0x300\n 22023: sp = sp & 0xffffffffffffffe0\n 22026: s1 = sp\n 22028: a3 = u64 [a2 + 0x18]\n 22031: u64 [s1 + 0x98] = a3\n 22035: a3 = u64 [a2 + 0x10]\n 22038: u64 [s1 + 0x90] = a3\n 22042: a3 = u64 [a2 + 0x8]\n 22045: u64 [s1 + 0xa0] = a3\n 22049: a2 = u64 [a2]\n 22051: u64 [s1 + 0xa8] = a2\n 22055: a2 = u64 [a1 + 0x10]\n 22058: u64 [s1 + 0x88] = a2\n 22062: a2 = u64 [a1 + 0x8]\n 22065: u64 [s1 + 0x80] = a2\n 22069: a1 = u64 [a1]\n 22071: u64 [s1 + 0x78] = a1\n 22074: a2 = u64 [a0]\n 22076: a1 = u64 [a0 + 0x8]\n 22079: a0 = u32 [a0 + 0x10]\n 22082: a3 = 0xffffffff\n 22092: u64 [s1 + 0x70] = a3\n 22095: u64 [s1 + 728] = 0\n 22099: u64 [s1 + 0x40] = a0\n 22102: u64 [s1 + 0x2d0] = a0\n 22106: u64 [s1 + 0x30] = a1\n 22109: u64 [s1 + 0x2c8] = a1\n 22113: a1 = s1 + 0x2c0\n 22117: u64 [s1 + 0x38] = a2\n 22120: u64 [s1 + 0x2c0] = a2\n 22124: a0 = 0\n 22126: ra = 1124, jump @1426\n      : @1051 [@dyn 562] (gas: 7)\n 22132: u64 [s1 + 696] = 0\n 22136: u64 [s1 + 688] = 0\n 22140: u64 [s1 + 672] = 0x1\n 22145: a0 = 0x20\n 22148: a1 = s1 + 0x2a0\n 22152: u64 [s1 + 680] = 0\n 22156: ra = 1126, jump @1426\n      : @1052 [@dyn 563] (gas: 3)\n 22162: a1 = 0x2026c\n 22167: a0 = i32 [0x2026c]\n 22172: jump @1054 if a0 >u 63\n      : @1053 (gas: 2)\n 22176: u32 [0x2026c] = 0x40\n 22182: fallthrough\n      : @1054 (gas: 15)\n 22183: a0 = sp + 0xffffffffffffffe0\n 22186: a2 = a0 & 0xffffffffffffffe0\n 22189: u64 [s1 + 0x68] = a2\n 22192: sp = a2\n 22194: a0 = 0x20280\n 22199: i32 a0 = a0 + 0\n 22201: i32 a2 = a2 + 0\n 22203: u64 [s1 + 0xb0] = a1\n 22207: a1 = 0x40\n 22210: u64 [s1 + 0xb8] = a0\n 22214: ra = 0x468\n 22218: ecalli 6 // 'hash_keccak_256'\n 22220: a3 = u64 [s1 + 0x68]\n 22223: t0 = 0x46a\n 22227: jump @1374\n      : @1055 [@dyn 564] (gas: 2)\n 22230: a3 = u64 [s1 + 0x68]\n 22233: t0 = 1130, jump @1374\n      : @1056 [@dyn 565] (gas: 17)\n 22239: a0 = u64 [s1 + 0x78]\n 22242: a0 = a0 & 0xffffffffffffffff\n 22245: a1 = u64 [s1 + 0x80]\n 22249: a1 = a1 & 0xffffffffffffffff\n 22252: a2 = u64 [s1 + 0x88]\n 22256: a3 = u64 [s1 + 0x70]\n 22259: a2 = a2 & a3\n 22262: u64 [s1 + 664] = 0\n 22266: u64 [s1 + 0x78] = a2\n 22269: u64 [s1 + 0x290] = a2\n 22273: u64 [s1 + 0x80] = a1\n 22277: u64 [s1 + 0x288] = a1\n 22281: a1 = s1 + 0x280\n 22285: u64 [s1 + 0x88] = a0\n 22289: u64 [s1 + 0x280] = a0\n 22293: a0 = 0\n 22295: ra = 1132, jump @1426\n      : @1057 [@dyn 566] (gas: 12)\n 22301: a0 = u64 [s1 + 0x48]\n 22304: a3 = s1 + 0x200\n 22308: u64 [a3 + 0x78] = a0\n 22311: a0 = u64 [s1 + 0x50]\n 22314: u64 [a3 + 0x70] = a0\n 22317: a0 = u64 [s1 + 0x58]\n 22320: u64 [a3 + 0x68] = a0\n 22323: a0 = 0x20\n 22326: a1 = s1 + 0x260\n 22330: a2 = u64 [s1 + 0x60]\n 22333: u64 [a3 + 0x60] = a2\n 22336: ra = 1134, jump @1426\n      : @1058 [@dyn 567] (gas: 3)\n 22342: a1 = u64 [s1 + 0xb0]\n 22346: a0 = i32 [a1]\n 22348: jump @1060 if a0 >u 63\n      : @1059 (gas: 2)\n 22352: u32 [a1 + 0] = 0x40\n 22355: fallthrough\n      : @1060 (gas: 4)\n 22356: a0 = sp + 0xffffffffffffffe0\n 22359: a0 = a0 & 0xffffffffffffffe0\n 22362: u64 [s1 + 0x70] = a0\n 22365: t0 = 1136, jump @1402\n      : @1061 [@dyn 568] (gas: 5)\n 22371: ra = 0x472\n 22375: ecalli 6 // 'hash_keccak_256'\n 22377: a3 = u64 [s1 + 0x70]\n 22380: t0 = 0x474\n 22384: jump @1381\n      : @1062 [@dyn 569] (gas: 2)\n 22387: a3 = u64 [s1 + 0x70]\n 22390: t0 = 1140, jump @1381\n      : @1063 [@dyn 570] (gas: 2)\n 22396: a0 = s1 + 0x240\n 22400: ra = 1142, jump @1428\n      : @1064 [@dyn 571] (gas: 9)\n 22406: ra = u64 [s1 + 0x258]\n 22410: t1 = u64 [s1 + 0x250]\n 22414: a4 = u64 [s1 + 0x248]\n 22418: t0 = u64 [s1 + 0x240]\n 22422: a0 = a4 & ra\n 22425: a1 = t0 & t1\n 22428: a0 = a0 & a1\n 22431: a1 = 0xffffffffffffffff\n 22434: jump @1081 if a0 == a1\n      : @1065 (gas: 23)\n 22438: a0 = u64 [s1 + 0xa8]\n 22442: a2 = t0 <u a0\n 22445: a1 = u64 [s1 + 0xa0]\n 22449: a0 = a4 ^ a1\n 22452: a5 = a4 <u a1\n 22455: u64 [s1 + 0x50] = a2\n 22458: a5 = a2 if a0 == 0\n 22461: a2 = u64 [s1 + 0x90]\n 22465: a3 = t1 <u a2\n 22468: a1 = u64 [s1 + 0x98]\n 22472: a0 = ra ^ a1\n 22475: a1 = ra <u a1\n 22478: u64 [s1 + 0x28] = a3\n 22481: a1 = a3 if a0 == 0\n 22484: a2 = t1 ^ a2\n 22487: a0 = a0 | a2\n 22490: u64 [s1 + 0x48] = a5\n 22493: a1 = a5 if a0 == 0\n 22496: u64 [s1 + 0x70] = t0\n 22499: u64 [s1 + 0x68] = a4\n 22502: u64 [s1 + 0x60] = ra\n 22505: u64 [s1 + 0x58] = t1\n 22508: jump @1082 if a1 != 0\n      : @1066 (gas: 6)\n 22512: a3 = u64 [s1 + 0x40]\n 22515: a2 = u64 [s1 + 0x38]\n 22518: a0 = a2 | a3\n 22521: t2 = u64 [s1 + 0x30]\n 22524: a0 = a0 | t2\n 22527: jump @1089 if a0 == 0\n      : @1067 (gas: 6)\n 22531: a0 = u64 [s1 + 0x88]\n 22535: a1 = u64 [s1 + 0x78]\n 22538: a0 = a0 | a1\n 22541: a1 = u64 [s1 + 0x80]\n 22545: a0 = a0 | a1\n 22548: jump @1091 if a0 == 0\n      : @1068 (gas: 7)\n 22552: u64 [s1 + 568] = 0\n 22556: u64 [s1 + 0x220] = a2\n 22560: u64 [s1 + 0x228] = t2\n 22564: a1 = s1 + 0x220\n 22568: u64 [s1 + 0x230] = a3\n 22572: a0 = 0\n 22574: ra = 1144, jump @1426\n      : @1069 [@dyn 572] (gas: 7)\n 22580: u64 [s1 + 536] = 0\n 22584: u64 [s1 + 528] = 0\n 22588: u64 [s1 + 512] = 0x1\n 22593: a0 = 0x20\n 22596: a1 = s1 + 0x200\n 22600: u64 [s1 + 520] = 0\n 22604: ra = 1146, jump @1426\n      : @1070 [@dyn 573] (gas: 3)\n 22610: a1 = u64 [s1 + 0xb0]\n 22614: a0 = i32 [a1]\n 22616: jump @1072 if a0 >u 63\n      : @1071 (gas: 2)\n 22620: u32 [a1 + 0] = 0x40\n 22623: fallthrough\n      : @1072 (gas: 4)\n 22624: a0 = sp + 0xffffffffffffffe0\n 22627: a0 = a0 & 0xffffffffffffffe0\n 22630: u64 [s1 + 0x40] = a0\n 22633: t0 = 1148, jump @1402\n      : @1073 [@dyn 574] (gas: 5)\n 22639: ra = 0x47e\n 22643: ecalli 6 // 'hash_keccak_256'\n 22645: a3 = u64 [s1 + 0x40]\n 22648: t0 = 0x480\n 22652: jump @1397\n      : @1074 [@dyn 575] (gas: 2)\n 22655: a3 = u64 [s1 + 0x40]\n 22658: t0 = 1152, jump @1397\n      : @1075 [@dyn 576] (gas: 21)\n 22664: u64 [s1 + 0x38] = a0\n 22667: a0 = reverse a1\n 22669: u64 [s1 + 0x30] = a0\n 22672: a0 = reverse a2\n 22674: u64 [s1 + 0x20] = a0\n 22677: a0 = reverse a3\n 22679: u64 [s1 + 0x18] = a0\n 22682: a0 = sp + 0xffffffffffffffe0\n 22685: a0 = a0 & 0xffffffffffffffe0\n 22688: u64 [s1 + 0x40] = a0\n 22691: sp = a0\n 22693: u64 [s1 + 504] = 0\n 22697: a0 = u64 [s1 + 0x78]\n 22700: u64 [s1 + 0x1f0] = a0\n 22704: a0 = u64 [s1 + 0x80]\n 22708: u64 [s1 + 0x1e8] = a0\n 22712: a1 = s1 + 0x1e0\n 22716: a0 = u64 [s1 + 0x88]\n 22720: u64 [s1 + 0x1e0] = a0\n 22724: a0 = 0\n 22726: ra = 1154, jump @1426\n      : @1076 [@dyn 577] (gas: 12)\n 22732: a0 = u64 [s1 + 0x18]\n 22735: a3 = s1 + 0x100\n 22739: u64 [a3 + 0xd8] = a0\n 22743: a0 = u64 [s1 + 0x20]\n 22746: u64 [a3 + 0xd0] = a0\n 22750: a0 = u64 [s1 + 0x30]\n 22753: u64 [a3 + 0xc8] = a0\n 22757: a0 = 0x20\n 22760: a1 = s1 + 0x1c0\n 22764: a2 = u64 [s1 + 0x38]\n 22767: u64 [a3 + 0xc0] = a2\n 22771: ra = 1156, jump @1426\n      : @1077 [@dyn 578] (gas: 3)\n 22777: a1 = u64 [s1 + 0xb0]\n 22781: a0 = i32 [a1]\n 22783: jump @1079 if a0 >u 63\n      : @1078 (gas: 2)\n 22787: u32 [a1 + 0] = 0x40\n 22790: fallthrough\n      : @1079 (gas: 4)\n 22791: a0 = sp + 0xffffffffffffffe0\n 22794: a0 = a0 & 0xffffffffffffffe0\n 22797: u64 [s1 + 0xb0] = a0\n 22801: t0 = 1158, jump @1402\n      : @1080 [@dyn 579] (gas: 44)\n 22807: ecalli 6 // 'hash_keccak_256'\n 22809: a2 = u64 [s1 + 0xb0]\n 22813: a0 = u64 [a2]\n 22815: a0 = reverse a0\n 22817: a1 = u64 [a2 + 0x8]\n 22820: a5 = u64 [s1 + 0x40]\n 22823: u64 [a5 + 0x18] = a0\n 22826: a0 = u64 [a2 + 0x10]\n 22829: a2 = u64 [a2 + 0x18]\n 22832: a1 = reverse a1\n 22834: u64 [a5 + 0x10] = a1\n 22837: a0 = reverse a0\n 22839: u64 [a5 + 0x8] = a0\n 22842: a0 = reverse a2\n 22844: u64 [a5] = a0\n 22846: a0 = u64 [s1 + 0x90]\n 22850: a1 = u64 [s1 + 0x58]\n 22853: a0 = a1 - a0\n 22856: a1 = u64 [s1 + 0x48]\n 22859: a2 = a0 - a1\n 22862: a0 = a0 <u a1\n 22865: a1 = u64 [s1 + 0x98]\n 22869: a3 = u64 [s1 + 0x60]\n 22872: a1 = a3 - a1\n 22875: a3 = u64 [s1 + 0x28]\n 22878: a1 = a1 - a3\n 22881: a0 = a1 - a0\n 22884: a1 = u64 [s1 + 0xa0]\n 22888: a3 = u64 [s1 + 0x68]\n 22891: a1 = a3 - a1\n 22894: a3 = u64 [s1 + 0x50]\n 22897: a3 = a1 - a3\n 22900: a1 = u64 [s1 + 0xa8]\n 22904: a4 = u64 [s1 + 0x70]\n 22907: a4 = a4 - a1\n 22910: a1 = sp + 0xffffffffffffffe0\n 22913: a1 = a1 & 0xffffffffffffffe0\n 22916: sp = a1\n 22918: u64 [a1 + 0x18] = a0\n 22921: u64 [a1 + 0x10] = a2\n 22924: u64 [a1 + 0x8] = a3\n 22927: u64 [a1] = a4\n 22929: a0 = a5\n 22931: ra = 1160, jump @1429\n      : @1081 [@dyn 580] (gas: 7)\n 22937: sp = s0 + 0xfffffffffffffd00\n 22941: a0 = sp + 0x200\n 22945: ra = u64 [a0 + 0xf8]\n 22949: s0 = u64 [a0 + 0xf0]\n 22953: s1 = u64 [a0 + 0xe8]\n 22957: sp = sp + 0x300\n 22961: ret\n      : @1082 (gas: 8)\n 22963: u64 [s1 + 304] = 0\n 22967: u64 [s1 + 296] = 0\n 22971: u64 [s1 + 288] = 0\n 22975: a0 = 0xfb8f41b200000000\n 22985: a1 = s1 + 0x120\n 22989: u64 [s1 + 0x138] = a0\n 22993: a0 = 0\n 22995: ra = 1162, jump @1426\n      : @1083 [@dyn 581] (gas: 11)\n 23001: u64 [s1 + 280] = 0\n 23005: a0 = u64 [s1 + 0x78]\n 23008: a3 = s1 + 0x100\n 23012: u64 [a3 + 0x10] = a0\n 23015: a0 = u64 [s1 + 0x80]\n 23019: u64 [a3 + 0x8] = a0\n 23022: a0 = 0x4\n 23025: a1 = s1 + 0x100\n 23029: a2 = u64 [s1 + 0x88]\n 23033: u64 [a3] = a2\n 23035: ra = 1164, jump @1426\n      : @1084 [@dyn 582] (gas: 11)\n 23041: a0 = u64 [s1 + 0x60]\n 23044: u64 [s1 + 0xf8] = a0\n 23048: a0 = u64 [s1 + 0x58]\n 23051: u64 [s1 + 0xf0] = a0\n 23055: a0 = u64 [s1 + 0x68]\n 23058: u64 [s1 + 0xe8] = a0\n 23062: a0 = 0x24\n 23065: a1 = s1 + 0xe0\n 23069: a2 = u64 [s1 + 0x70]\n 23072: u64 [s1 + 0xe0] = a2\n 23076: ra = 1166, jump @1426\n      : @1085 [@dyn 583] (gas: 11)\n 23082: a0 = u64 [s1 + 0x98]\n 23086: u64 [s1 + 0xd8] = a0\n 23090: a0 = u64 [s1 + 0x90]\n 23094: u64 [s1 + 0xd0] = a0\n 23098: a0 = u64 [s1 + 0xa0]\n 23102: u64 [s1 + 0xc8] = a0\n 23106: a0 = 0x44\n 23109: a1 = s1 + 0xc0\n 23113: a2 = u64 [s1 + 0xa8]\n 23117: u64 [s1 + 0xc0] = a2\n 23121: ra = 1168, jump @1426\n      : @1086 [@dyn 584] (gas: 3)\n 23127: a0 = u64 [s1 + 0xb0]\n 23131: a0 = i32 [a0]\n 23133: jump @1088 if a0 >u 127\n      : @1087 (gas: 5)\n 23137: a1 = u64 [s1 + 0xb0]\n 23141: u32 [a1 + 0] = 0x80\n 23145: a0 = 0x1\n 23148: a2 = 0x64\n 23151: jump @1096\n      : @1088 (gas: 6)\n 23154: a0 = 0x1\n 23157: a2 = 0x64\n 23160: a1 = u64 [s1 + 0xb8]\n 23164: ra = 0x498\n 23168: ecalli 7 // 'seal_return'\n 23170: jump @1097\n      : @1089 (gas: 8)\n 23173: u64 [s1 + 368] = 0\n 23177: u64 [s1 + 360] = 0\n 23181: u64 [s1 + 352] = 0\n 23185: a0 = 0xe602df0500000000\n 23195: a1 = s1 + 0x160\n 23199: u64 [s1 + 0x178] = a0\n 23203: a0 = 0\n 23205: ra = 1170, jump @1426\n      : @1090 [@dyn 585] (gas: 8)\n 23211: u64 [s1 + 344] = 0\n 23215: u64 [s1 + 336] = 0\n 23219: u64 [s1 + 328] = 0\n 23223: a0 = 0x4\n 23226: a1 = s1 + 0x140\n 23230: u64 [s1 + 320] = 0\n 23234: ra = 0x496\n 23238: jump @1426\n      : @1091 (gas: 8)\n 23241: u64 [s1 + 432] = 0\n 23245: u64 [s1 + 424] = 0\n 23249: u64 [s1 + 416] = 0\n 23253: a0 = 0x94280d6200000000\n 23263: a1 = s1 + 0x1a0\n 23267: u64 [s1 + 0x1b8] = a0\n 23271: a0 = 0\n 23273: ra = 1172, jump @1426\n      : @1092 [@dyn 586] (gas: 7)\n 23279: u64 [s1 + 408] = 0\n 23283: u64 [s1 + 400] = 0\n 23287: u64 [s1 + 392] = 0\n 23291: a0 = 0x4\n 23294: a1 = s1 + 0x180\n 23298: u64 [s1 + 384] = 0\n 23302: ra = 1174, jump @1426\n      : @1093 [@dyn 587] (gas: 3)\n 23308: a0 = u64 [s1 + 0xb0]\n 23312: a0 = i32 [a0]\n 23314: jump @1095 if a0 >u 63\n      : @1094 (gas: 5)\n 23318: a1 = u64 [s1 + 0xb0]\n 23322: u32 [a1 + 0] = 0x40\n 23325: a0 = 0x1\n 23328: a2 = 0x24\n 23331: jump @1096\n      : @1095 (gas: 6)\n 23333: a0 = 0x1\n 23336: a2 = 0x24\n 23339: a1 = u64 [s1 + 0xb8]\n 23343: ra = 0x498\n 23347: ecalli 7 // 'seal_return'\n 23349: jump @1097\n      : @1096 (gas: 4)\n 23351: a1 = u64 [s1 + 0xb8]\n 23355: ra = 0x498\n 23359: ecalli 7 // 'seal_return'\n 23361: fallthrough\n      : @1097 [@dyn 588] (gas: 17)\n 23362: sp = sp + 0xfffffffffffffca0\n 23366: a3 = sp + 0x300\n 23370: u64 [a3 + 0x58] = ra\n 23373: u64 [a3 + 0x50] = s0\n 23376: u64 [a3 + 0x48] = s1\n 23379: s0 = sp + 0x360\n 23383: sp = sp & 0xffffffffffffffe0\n 23386: s1 = sp\n 23388: a5 = u32 [a0 + 0x10]\n 23391: a3 = u64 [a0]\n 23393: a4 = u64 [a0 + 0x8]\n 23396: u64 [s1 + 0x78] = a3\n 23399: u64 [s1 + 0x68] = a5\n 23402: a0 = a3 | a5\n 23405: u64 [s1 + 0x70] = a4\n 23408: a0 = a0 | a4\n 23411: jump @1132 if a0 == 0\n      : @1098 (gas: 14)\n 23415: a0 = u64 [a1 + 0x10]\n 23418: a3 = u64 [a1 + 0x8]\n 23421: a1 = u64 [a1]\n 23423: a4 = 0xffffffffffffffff\n 23426: a5 = 0xffffffff\n 23436: a3 = a3 & a4\n 23439: a1 = a1 & a4\n 23442: a0 = a0 & a5\n 23445: u64 [s1 + 0x48] = a1\n 23448: u64 [s1 + 0x38] = a0\n 23451: a0 = a0 | a1\n 23454: u64 [s1 + 0x40] = a3\n 23457: a0 = a0 | a3\n 23460: jump @1137 if a0 == 0\n      : @1099 (gas: 9)\n 23464: a0 = u64 [a2 + 0x18]\n 23467: u64 [s1 + 0x98] = a0\n 23471: a0 = u64 [a2 + 0x10]\n 23474: u64 [s1 + 0x88] = a0\n 23478: a0 = u64 [a2 + 0x8]\n 23481: u64 [s1 + 0x80] = a0\n 23485: a0 = u64 [a2]\n 23487: u64 [s1 + 0x90] = a0\n 23491: ra = 1178, jump @1332\n      : @1100 [@dyn 589] (gas: 11)\n 23497: u64 [s1 + 824] = 0\n 23501: a0 = u64 [s1 + 0x68]\n 23504: a2 = s1 + 0x300\n 23508: u64 [a2 + 0x30] = a0\n 23511: a0 = u64 [s1 + 0x70]\n 23514: u64 [a2 + 0x28] = a0\n 23517: a1 = s1 + 0x320\n 23521: a0 = u64 [s1 + 0x78]\n 23524: u64 [a2 + 0x20] = a0\n 23527: a0 = 0\n 23529: ra = 1180, jump @1426\n      : @1101 [@dyn 590] (gas: 7)\n 23535: u64 [s1 + 792] = 0\n 23539: u64 [s1 + 784] = 0\n 23543: u64 [s1 + 776] = 0\n 23547: a0 = 0x20\n 23550: a1 = s1 + 0x300\n 23554: u64 [s1 + 768] = 0\n 23558: ra = 1182, jump @1426\n      : @1102 [@dyn 591] (gas: 3)\n 23564: a2 = 0x2026c\n 23569: a0 = i32 [0x2026c]\n 23574: jump @1104 if a0 >u 63\n      : @1103 (gas: 2)\n 23578: u32 [0x2026c] = 0x40\n 23584: fallthrough\n      : @1104 (gas: 15)\n 23585: u64 [s1 + 0x58] = a2\n 23588: a0 = sp + 0xffffffffffffffe0\n 23591: a2 = a0 & 0xffffffffffffffe0\n 23594: u64 [s1 + 0x50] = a2\n 23597: sp = a2\n 23599: a0 = 0x20280\n 23604: i32 a0 = a0 + 0\n 23606: i32 a2 = a2 + 0\n 23608: a1 = 0x40\n 23611: u64 [s1 + 0x60] = a0\n 23614: ra = 0x4a0\n 23618: ecalli 6 // 'hash_keccak_256'\n 23620: a3 = u64 [s1 + 0x50]\n 23623: t0 = 0x4a2\n 23627: jump @1352\n      : @1105 [@dyn 592] (gas: 2)\n 23630: a3 = u64 [s1 + 0x50]\n 23633: t0 = 1186, jump @1352\n      : @1106 [@dyn 593] (gas: 2)\n 23639: a0 = s1 + 0x2e0\n 23643: ra = 1188, jump @1428\n      : @1107 [@dyn 594] (gas: 28)\n 23649: a1 = s1 + 0x200\n 23653: a2 = u64 [a1 + 0xf8]\n 23657: a0 = u64 [a1 + 0xf0]\n 23661: a5 = u64 [a1 + 0xe8]\n 23665: a4 = u64 [a1 + 0xe0]\n 23669: a1 = u64 [s1 + 0x98]\n 23673: t1 = a2 ^ a1\n 23676: u64 [s1 + 0x28] = a2\n 23679: a1 = a2 <u a1\n 23682: a2 = u64 [s1 + 0x88]\n 23686: a3 = a0 <u a2\n 23689: u64 [s1 + 0x10] = a3\n 23692: a1 = a3 if t1 == 0\n 23695: a3 = u64 [s1 + 0x80]\n 23699: t0 = a5 ^ a3\n 23702: u64 [s1 + 0x30] = a5\n 23705: a5 = a5 <u a3\n 23708: a3 = u64 [s1 + 0x90]\n 23712: u64 [s1 + 0x50] = a4\n 23715: a3 = a4 <u a3\n 23718: u64 [s1 + 0x18] = a3\n 23721: a5 = a3 if t0 == 0\n 23724: u64 [s1 + 0x20] = a0\n 23727: a2 = a2 ^ a0\n 23730: a0 = a2 | t1\n 23733: u64 [s1 + 0x8] = a5\n 23736: a1 = a5 if a0 == 0\n 23739: jump @1143 if a1 != 0\n      : @1108 (gas: 11)\n 23743: u64 [s1 + 728] = 0\n 23747: a0 = u64 [s1 + 0x78]\n 23750: a2 = s1 + 0x200\n 23754: u64 [a2 + 0xc0] = a0\n 23758: a0 = u64 [s1 + 0x70]\n 23761: u64 [a2 + 0xc8] = a0\n 23765: a1 = s1 + 0x2c0\n 23769: a0 = u64 [s1 + 0x68]\n 23772: u64 [a2 + 0xd0] = a0\n 23776: a0 = 0\n 23778: ra = 1190, jump @1426\n      : @1109 [@dyn 595] (gas: 7)\n 23784: u64 [s1 + 696] = 0\n 23788: u64 [s1 + 688] = 0\n 23792: u64 [s1 + 680] = 0\n 23796: a0 = 0x20\n 23799: a1 = s1 + 0x2a0\n 23803: u64 [s1 + 672] = 0\n 23807: ra = 1192, jump @1426\n      : @1110 [@dyn 596] (gas: 28)\n 23813: a0 = u64 [s1 + 0x88]\n 23817: a1 = u64 [s1 + 0x20]\n 23820: a0 = a1 - a0\n 23823: a2 = u64 [s1 + 0x8]\n 23826: a1 = a0 - a2\n 23829: u64 [s1 + 0x20] = a1\n 23832: a0 = a0 <u a2\n 23835: a1 = u64 [s1 + 0x98]\n 23839: a2 = u64 [s1 + 0x28]\n 23842: a1 = a2 - a1\n 23845: a2 = u64 [s1 + 0x10]\n 23848: a1 = a1 - a2\n 23851: a1 = a1 - a0\n 23854: u64 [s1 + 0x28] = a1\n 23857: a2 = u64 [s1 + 0x58]\n 23860: a0 = i32 [a2]\n 23862: a1 = u64 [s1 + 0x80]\n 23866: a3 = u64 [s1 + 0x30]\n 23869: a1 = a3 - a1\n 23872: a3 = u64 [s1 + 0x18]\n 23875: a1 = a1 - a3\n 23878: u64 [s1 + 0x30] = a1\n 23881: a4 = 0x3f\n 23884: a1 = u64 [s1 + 0x90]\n 23888: a3 = u64 [s1 + 0x50]\n 23891: a3 = a3 - a1\n 23894: u64 [s1 + 0x50] = a3\n 23897: jump @1112 if a4 <u a0\n      : @1111 (gas: 2)\n 23900: u32 [a2 + 0] = 0x40\n 23903: fallthrough\n      : @1112 (gas: 4)\n 23904: a0 = sp + 0xffffffffffffffe0\n 23907: a0 = a0 & 0xffffffffffffffe0\n 23910: u64 [s1 + 0x18] = a0\n 23913: t0 = 1194, jump @1361\n      : @1113 [@dyn 597] (gas: 5)\n 23919: ra = 0x4ac\n 23923: ecalli 6 // 'hash_keccak_256'\n 23925: a3 = u64 [s1 + 0x18]\n 23928: t0 = 0x4ae\n 23932: jump @1367\n      : @1114 [@dyn 598] (gas: 2)\n 23935: a3 = u64 [s1 + 0x18]\n 23938: t0 = 1198, jump @1367\n      : @1115 [@dyn 599] (gas: 9)\n 23944: a2 = u64 [s1 + 0x28]\n 23947: u64 [a1 + 0x18] = a2\n 23950: a2 = u64 [s1 + 0x20]\n 23953: u64 [a1 + 0x10] = a2\n 23956: a2 = u64 [s1 + 0x30]\n 23959: u64 [a1 + 0x8] = a2\n 23962: a2 = u64 [s1 + 0x50]\n 23965: u64 [a1] = a2\n 23967: ra = 1200, jump @1429\n      : @1116 [@dyn 600] (gas: 11)\n 23973: u64 [s1 + 664] = 0\n 23977: a0 = u64 [s1 + 0x38]\n 23980: a2 = s1 + 0x200\n 23984: u64 [a2 + 0x90] = a0\n 23988: a0 = u64 [s1 + 0x40]\n 23991: u64 [a2 + 0x88] = a0\n 23995: a1 = s1 + 0x280\n 23999: a0 = u64 [s1 + 0x48]\n 24002: u64 [a2 + 0x80] = a0\n 24006: a0 = 0\n 24008: ra = 1202, jump @1426\n      : @1117 [@dyn 601] (gas: 1)\n 24014: t0 = 1204, jump @1403\n      : @1118 [@dyn 602] (gas: 1)\n 24020: ra = 1206, jump @1426\n      : @1119 [@dyn 603] (gas: 7)\n 24026: a1 = u64 [s1 + 0x58]\n 24029: a0 = sp + 0xffffffffffffffe0\n 24032: a0 = a0 & 0xffffffffffffffe0\n 24035: u64 [s1 + 0x50] = a0\n 24038: sp = a0\n 24040: a0 = i32 [a1]\n 24042: jump @1121 if a0 >u 63\n      : @1120 (gas: 2)\n 24046: u32 [a1 + 0] = 0x40\n 24049: fallthrough\n      : @1121 (gas: 4)\n 24050: a0 = sp + 0xffffffffffffffe0\n 24053: a0 = a0 & 0xffffffffffffffe0\n 24056: u64 [s1 + 0x58] = a0\n 24059: t0 = 1208, jump @1361\n      : @1122 [@dyn 604] (gas: 17)\n 24065: ecalli 6 // 'hash_keccak_256'\n 24067: a3 = u64 [s1 + 0x58]\n 24070: a0 = u64 [a3 + 0x18]\n 24073: a1 = u64 [a3 + 0x10]\n 24076: a2 = u64 [a3 + 0x8]\n 24079: a3 = u64 [a3]\n 24081: a0 = reverse a0\n 24083: a4 = reverse a1\n 24085: a2 = reverse a2\n 24087: a3 = reverse a3\n 24089: a1 = u64 [s1 + 0x50]\n 24092: u64 [a1 + 0x18] = a3\n 24095: u64 [a1 + 0x10] = a2\n 24098: u64 [a1 + 0x8] = a4\n 24101: u64 [a1] = a0\n 24103: a0 = s1 + 0x240\n 24107: ra = 1210, jump @1428\n      : @1123 [@dyn 605] (gas: 20)\n 24113: a1 = u64 [s1 + 0x248]\n 24117: a2 = u64 [s1 + 0x240]\n 24121: t0 = u64 [s1 + 0x258]\n 24125: a4 = u64 [s1 + 0x250]\n 24129: a5 = u64 [s1 + 0x80]\n 24133: a5 = a5 + a1\n 24136: a0 = u64 [s1 + 0x90]\n 24140: a0 = a0 + a2\n 24143: a2 = a0 <u a2\n 24146: a5 = a5 + a2\n 24149: a3 = a5 ^ a1\n 24152: a1 = a5 <u a1\n 24155: a1 = a2 if a3 == 0\n 24158: a2 = u64 [s1 + 0x88]\n 24162: a2 = a2 + a4\n 24165: a3 = u64 [s1 + 0x98]\n 24169: t0 = t0 + a3\n 24172: a3 = a2 <u a4\n 24175: a3 = a3 + t0\n 24178: t0 = 1212, jump @1371\n      : @1124 [@dyn 606] (gas: 2)\n 24184: a0 = u64 [s1 + 0x50]\n 24187: ra = 1214, jump @1429\n      : @1125 [@dyn 607] (gas: 3)\n 24193: a0 = s1 + 0x220\n 24197: a1 = 0x40\n 24200: ra = 1216, jump @1424\n      : @1126 [@dyn 608] (gas: 6)\n 24206: a4 = s1 + 0x200\n 24210: a3 = u64 [a4 + 0x38]\n 24213: a1 = u64 [a4 + 0x30]\n 24216: a2 = u64 [a4 + 0x28]\n 24219: a0 = u64 [a4 + 0x20]\n 24222: t0 = 1218, jump @1365\n      : @1127 [@dyn 609] (gas: 1)\n 24228: jump @1131 if a1 != 0\n      : @1128 (gas: 12)\n 24232: a1 = u64 [s1 + 0x90]\n 24236: a3 = s1 + 0x200\n 24240: u64 [a3] = a1\n 24242: a1 = u64 [s1 + 0x80]\n 24246: u64 [a3 + 0x8] = a1\n 24249: a1 = u64 [s1 + 0x88]\n 24253: u64 [a3 + 0x10] = a1\n 24256: a1 = s1 + 0x200\n 24260: a2 = u64 [s1 + 0x98]\n 24264: u64 [a3 + 0x18] = a2\n 24267: u64 [s1 + 0x98] = a0\n 24271: ra = 1220, jump @1426\n      : @1129 [@dyn 610] (gas: 29)\n 24277: u64 [s1 + 440] = 0\n 24281: a0 = u64 [s1 + 0x38]\n 24284: a5 = s1 + 0x100\n 24288: u64 [a5 + 0xb0] = a0\n 24292: a0 = u64 [s1 + 0x40]\n 24295: u64 [a5 + 0xa8] = a0\n 24299: a0 = u64 [s1 + 0x48]\n 24302: u64 [a5 + 0xa0] = a0\n 24306: u64 [s1 + 472] = 0\n 24310: a0 = u64 [s1 + 0x68]\n 24313: u64 [a5 + 0xd0] = a0\n 24317: a0 = u64 [s1 + 0x70]\n 24320: u64 [a5 + 0xc8] = a0\n 24324: a0 = u64 [0x201c8]\n 24329: a1 = u64 [0x201d0]\n 24334: a2 = u64 [0x201d8]\n 24339: a3 = u64 [s1 + 0x78]\n 24342: u64 [a5 + 0xc0] = a3\n 24346: u64 [a5 + 0xf8] = a0\n 24350: u64 [a5 + 0xf0] = a1\n 24354: u64 [a5 + 0xe8] = a2\n 24358: a0 = u64 [0x201e0]\n 24363: a1 = 0x20\n 24366: a2 = s1 + 0x1e0\n 24370: a3 = s1 + 0x1c0\n 24374: a4 = s1 + 0x1a0\n 24378: u64 [a5 + 0xe0] = a0\n 24382: a0 = u64 [s1 + 0x98]\n 24386: ra = 1222, jump @1432\n      : @1130 [@dyn 611] (gas: 7)\n 24392: sp = s0 + 0xfffffffffffffca0\n 24396: a0 = sp + 0x300\n 24400: ra = u64 [a0 + 0x58]\n 24403: s0 = u64 [a0 + 0x50]\n 24406: s1 = u64 [a0 + 0x48]\n 24409: sp = sp + 0x360\n 24413: ret\n      : @1131 (gas: 1)\n 24415: trap\n      : @1132 (gas: 8)\n 24416: u64 [s1 + 208] = 0\n 24420: u64 [s1 + 200] = 0\n 24424: u64 [s1 + 192] = 0\n 24428: a0 = 0x96c6fd1e00000000\n 24438: a1 = s1 + 0xc0\n 24442: u64 [s1 + 0xd8] = a0\n 24446: a0 = 0\n 24448: ra = 1224, jump @1426\n      : @1133 [@dyn 612] (gas: 7)\n 24454: u64 [s1 + 184] = 0\n 24458: u64 [s1 + 176] = 0\n 24462: u64 [s1 + 168] = 0\n 24466: a0 = 0x4\n 24469: a1 = s1 + 0xa0\n 24473: u64 [s1 + 160] = 0\n 24477: ra = 1226, jump @1426\n      : @1134 [@dyn 613] (gas: 2)\n 24483: a1 = i32 [0x2026c]\n 24488: jump @1136 if a1 >u 63\n      : @1135 (gas: 3)\n 24492: u32 [0x2026c] = 0x40\n 24498: a1 = 0x20280\n 24503: jump @1142\n      : @1136 (gas: 2)\n 24505: a1 = 0x20280\n 24510: jump @1142\n      : @1137 (gas: 8)\n 24512: u64 [s1 + 272] = 0\n 24516: u64 [s1 + 264] = 0\n 24520: u64 [s1 + 256] = 0\n 24524: a0 = 0xec442f0500000000\n 24534: a1 = s1 + 0x100\n 24538: u64 [s1 + 0x118] = a0\n 24542: a0 = 0\n 24544: ra = 1228, jump @1426\n      : @1138 [@dyn 614] (gas: 7)\n 24550: u64 [s1 + 248] = 0\n 24554: u64 [s1 + 240] = 0\n 24558: u64 [s1 + 232] = 0\n 24562: a0 = 0x4\n 24565: a1 = s1 + 0xe0\n 24569: u64 [s1 + 224] = 0\n 24573: ra = 1230, jump @1426\n      : @1139 [@dyn 615] (gas: 2)\n 24579: a1 = i32 [0x2026c]\n 24584: jump @1141 if a1 >u 63\n      : @1140 (gas: 3)\n 24588: u32 [0x2026c] = 0x40\n 24594: a1 = 0x20280\n 24599: jump @1142\n      : @1141 (gas: 2)\n 24601: a1 = 0x20280\n 24606: fallthrough\n      : @1142 (gas: 5)\n 24607: i32 a1 = a1 + 0\n 24609: a0 = 0x1\n 24612: a2 = 0x24\n 24615: ecalli 7 // 'seal_return'\n 24617: fallthrough\n      : @1143 (gas: 8)\n 24618: u64 [s1 + 400] = 0\n 24622: u64 [s1 + 392] = 0\n 24626: u64 [s1 + 384] = 0\n 24630: a0 = 0xe450d38c00000000\n 24640: a1 = s1 + 0x180\n 24644: u64 [s1 + 0x198] = a0\n 24648: a0 = 0\n 24650: ra = 1232, jump @1426\n      : @1144 [@dyn 616] (gas: 10)\n 24656: u64 [s1 + 376] = 0\n 24660: a0 = u64 [s1 + 0x68]\n 24663: u64 [s1 + 0x170] = a0\n 24667: a0 = u64 [s1 + 0x70]\n 24670: u64 [s1 + 0x168] = a0\n 24674: a0 = 0x4\n 24677: a1 = s1 + 0x160\n 24681: a2 = u64 [s1 + 0x78]\n 24684: u64 [s1 + 0x160] = a2\n 24688: ra = 1234, jump @1426\n      : @1145 [@dyn 617] (gas: 11)\n 24694: a0 = u64 [s1 + 0x28]\n 24697: u64 [s1 + 0x158] = a0\n 24701: a0 = u64 [s1 + 0x20]\n 24704: u64 [s1 + 0x150] = a0\n 24708: a0 = u64 [s1 + 0x30]\n 24711: u64 [s1 + 0x148] = a0\n 24715: a0 = 0x24\n 24718: a1 = s1 + 0x140\n 24722: a2 = u64 [s1 + 0x50]\n 24725: u64 [s1 + 0x140] = a2\n 24729: ra = 1236, jump @1426\n      : @1146 [@dyn 618] (gas: 12)\n 24735: a0 = u64 [s1 + 0x98]\n 24739: a3 = s1 + 0x100\n 24743: u64 [a3 + 0x38] = a0\n 24746: a0 = u64 [s1 + 0x88]\n 24750: u64 [a3 + 0x30] = a0\n 24753: a0 = u64 [s1 + 0x80]\n 24757: u64 [a3 + 0x28] = a0\n 24760: a0 = 0x44\n 24763: a1 = s1 + 0x120\n 24767: a2 = u64 [s1 + 0x90]\n 24771: u64 [a3 + 0x20] = a2\n 24774: ra = 1238, jump @1426\n      : @1147 [@dyn 619] (gas: 3)\n 24780: a0 = u64 [s1 + 0x58]\n 24783: a0 = i32 [a0]\n 24785: jump @1149 if a0 >u 127\n      : @1148 (gas: 3)\n 24789: a1 = u64 [s1 + 0x58]\n 24792: u32 [a1 + 0] = 0x80\n 24796: fallthrough\n      : @1149 (gas: 6)\n 24797: a0 = 0x1\n 24800: a2 = 0x64\n 24803: a1 = u64 [s1 + 0x60]\n 24806: ra = 0x4d8\n 24810: ecalli 7 // 'seal_return'\n 24812: fallthrough\n      : @1150 [@dyn 620] (gas: 22)\n 24813: sp = sp + 0xfffffffffffffe60\n 24817: u64 [sp + 0x198] = ra\n 24821: u64 [sp + 0x190] = s0\n 24825: u64 [sp + 0x188] = s1\n 24829: s0 = sp + 0x1a0\n 24833: sp = sp & 0xffffffffffffffe0\n 24836: s1 = sp\n 24838: a0 = u64 [0x201e8]\n 24843: u64 [s1 + 0x38] = a0\n 24846: u64 [s1 + 0x178] = a0\n 24850: a1 = u64 [0x201f0]\n 24855: a2 = u64 [0x201f8]\n 24860: a0 = u64 [0x20200]\n 24865: u64 [s1 + 0x28] = a1\n 24868: u64 [s1 + 0x170] = a1\n 24872: u64 [s1 + 0x20] = a2\n 24875: u64 [s1 + 0x168] = a2\n 24879: a1 = s1 + 0x160\n 24883: u64 [s1 + 0x30] = a0\n 24886: u64 [s1 + 0x160] = a0\n 24890: a0 = 0\n 24892: ra = 1242, jump @1426\n      : @1151 [@dyn 621] (gas: 1)\n 24898: t0 = 1244, jump @1373\n      : @1152 [@dyn 622] (gas: 1)\n 24904: ra = 1246, jump @1426\n      : @1153 [@dyn 623] (gas: 3)\n 24910: a1 = 0x2026c\n 24915: a0 = i32 [0x2026c]\n 24920: jump @1155 if a0 >u 63\n      : @1154 (gas: 2)\n 24924: u32 [0x2026c] = 0x40\n 24930: fallthrough\n      : @1155 (gas: 14)\n 24931: a0 = sp + 0xffffffffffffffe0\n 24934: a2 = a0 & 0xffffffffffffffe0\n 24937: u64 [s1 + 0x68] = a2\n 24940: sp = a2\n 24942: a0 = 0x20280\n 24947: i32 a0 = a0 + 0\n 24949: i32 a2 = a2 + 0\n 24951: u64 [s1 + 0x78] = a1\n 24954: a1 = 0x40\n 24957: u64 [s1 + 0x70] = a0\n 24960: ra = 0x4e0\n 24964: ecalli 6 // 'hash_keccak_256'\n 24966: t0 = 0x4e2\n 24970: jump @1372\n      : @1156 [@dyn 624] (gas: 1)\n 24973: t0 = 1250, jump @1372\n      : @1157 [@dyn 625] (gas: 8)\n 24979: a0 = 0x30280\n 24984: u64 [s1 + 0x68] = a0\n 24987: i32 a0 = a0 + 0\n 24989: u64 [s1 + 0x18] = a0\n 24992: ra = 0x4e4\n 24996: ecalli 3 // 'caller'\n 24998: t0 = 0x4e6\n 25002: jump @1362\n      : @1158 [@dyn 626] (gas: 1)\n 25005: t0 = 1254, jump @1362\n      : @1159 [@dyn 627] (gas: 1)\n 25011: ra = 1256, jump @1426\n      : @1160 [@dyn 628] (gas: 1)\n 25017: t0 = 1258, jump @1390\n      : @1161 [@dyn 629] (gas: 1)\n 25023: ra = 1260, jump @1426\n      : @1162 [@dyn 630] (gas: 3)\n 25029: a1 = u64 [s1 + 0x78]\n 25032: a0 = i32 [a1]\n 25034: jump @1164 if a0 >u 63\n      : @1163 (gas: 3)\n 25038: u32 [a1 + 0] = 0x40\n 25041: t0 = 0x4ee\n 25045: jump @1418\n      : @1164 (gas: 1)\n 25048: t0 = 1262, jump @1418\n      : @1165 [@dyn 631] (gas: 4)\n 25054: ra = 0x4f0\n 25058: ecalli 6 // 'hash_keccak_256'\n 25060: t0 = 0x4f2\n 25064: jump @1375\n      : @1166 [@dyn 632] (gas: 1)\n 25067: t0 = 1266, jump @1375\n      : @1167 [@dyn 633] (gas: 1)\n 25073: ra = 1268, jump @1428\n      : @1168 [@dyn 634] (gas: 2)\n 25079: a0 = u8 [s1 + 0xe0]\n 25083: jump @1170 if a0 == 0\n      : @1169 (gas: 6)\n 25086: sp = s0 + 0xfffffffffffffe60\n 25090: ra = u64 [sp + 0x198]\n 25094: s0 = u64 [sp + 0x190]\n 25098: s1 = u64 [sp + 0x188]\n 25102: sp = sp + 0x1a0\n 25106: ret\n      : @1170 (gas: 1)\n 25108: t0 = 1270, jump @1388\n      : @1171 [@dyn 635] (gas: 1)\n 25114: ra = 1272, jump @1426\n      : @1172 [@dyn 636] (gas: 5)\n 25120: a0 = u64 [s1 + 0x18]\n 25123: ra = 0x4fa\n 25127: ecalli 3 // 'caller'\n 25129: t0 = 0x4fc\n 25133: jump @1366\n      : @1173 [@dyn 637] (gas: 1)\n 25136: t0 = 1276, jump @1366\n      : @1174 [@dyn 638] (gas: 1)\n 25142: ra = 1278, jump @1426\n      : @1175 [@dyn 639] (gas: 11)\n 25148: a0 = u64 [s1 + 0x38]\n 25151: u64 [s1 + 0x98] = a0\n 25155: a0 = u64 [s1 + 0x28]\n 25158: u64 [s1 + 0x90] = a0\n 25162: a0 = u64 [s1 + 0x20]\n 25165: u64 [s1 + 0x88] = a0\n 25169: a0 = 0x24\n 25172: a1 = s1 + 0x80\n 25176: a2 = u64 [s1 + 0x30]\n 25179: u64 [s1 + 0x80] = a2\n 25183: ra = 1280, jump @1426\n      : @1176 [@dyn 640] (gas: 3)\n 25189: a0 = u64 [s1 + 0x78]\n 25192: a0 = i32 [a0]\n 25194: jump @1178 if a0 >u 95\n      : @1177 (gas: 3)\n 25198: a1 = u64 [s1 + 0x78]\n 25201: u32 [a1 + 0] = 0x60\n 25204: fallthrough\n      : @1178 (gas: 6)\n 25205: a0 = 0x1\n 25208: a2 = 0x44\n 25211: a1 = u64 [s1 + 0x70]\n 25214: ra = 0x502\n 25218: ecalli 7 // 'seal_return'\n 25220: fallthrough\n      : @1179 [@dyn 641] (gas: 22)\n 25221: sp = sp + 0xfffffffffffffe60\n 25225: u64 [sp + 0x198] = ra\n 25229: u64 [sp + 0x190] = s0\n 25233: u64 [sp + 0x188] = s1\n 25237: s0 = sp + 0x1a0\n 25241: sp = sp & 0xffffffffffffffe0\n 25244: s1 = sp\n 25246: a2 = u64 [a0]\n 25248: a1 = u64 [a0 + 0x8]\n 25251: a3 = u64 [a0 + 0x10]\n 25254: a0 = u64 [a0 + 0x18]\n 25257: u64 [s1 + 0x20] = a0\n 25260: u64 [s1 + 0x178] = a0\n 25264: u64 [s1 + 0x28] = a3\n 25267: u64 [s1 + 0x170] = a3\n 25271: u64 [s1 + 0x30] = a1\n 25274: u64 [s1 + 0x168] = a1\n 25278: a1 = s1 + 0x160\n 25282: u64 [s1 + 0x38] = a2\n 25285: u64 [s1 + 0x160] = a2\n 25289: a0 = 0\n 25291: ra = 1284, jump @1426\n      : @1180 [@dyn 642] (gas: 1)\n 25297: t0 = 1286, jump @1373\n      : @1181 [@dyn 643] (gas: 1)\n 25303: ra = 1288, jump @1426\n      : @1182 [@dyn 644] (gas: 3)\n 25309: a1 = 0x2026c\n 25314: a0 = i32 [0x2026c]\n 25319: jump @1184 if a0 >u 63\n      : @1183 (gas: 2)\n 25323: u32 [0x2026c] = 0x40\n 25329: fallthrough\n      : @1184 (gas: 14)\n 25330: a0 = sp + 0xffffffffffffffe0\n 25333: a2 = a0 & 0xffffffffffffffe0\n 25336: u64 [s1 + 0x68] = a2\n 25339: sp = a2\n 25341: a0 = 0x20280\n 25346: i32 a0 = a0 + 0\n 25348: i32 a2 = a2 + 0\n 25350: u64 [s1 + 0x78] = a1\n 25353: a1 = 0x40\n 25356: u64 [s1 + 0x70] = a0\n 25359: ra = 0x50a\n 25363: ecalli 6 // 'hash_keccak_256'\n 25365: t0 = 0x50c\n 25369: jump @1372\n      : @1185 [@dyn 645] (gas: 1)\n 25372: t0 = 1292, jump @1372\n      : @1186 [@dyn 646] (gas: 8)\n 25378: a0 = 0x30280\n 25383: u64 [s1 + 0x68] = a0\n 25386: i32 a0 = a0 + 0\n 25388: u64 [s1 + 0x18] = a0\n 25391: ra = 0x50e\n 25395: ecalli 3 // 'caller'\n 25397: t0 = 0x510\n 25401: jump @1362\n      : @1187 [@dyn 647] (gas: 1)\n 25404: t0 = 1296, jump @1362\n      : @1188 [@dyn 648] (gas: 1)\n 25410: ra = 1298, jump @1426\n      : @1189 [@dyn 649] (gas: 1)\n 25416: t0 = 1300, jump @1390\n      : @1190 [@dyn 650] (gas: 1)\n 25422: ra = 1302, jump @1426\n      : @1191 [@dyn 651] (gas: 3)\n 25428: a1 = u64 [s1 + 0x78]\n 25431: a0 = i32 [a1]\n 25433: jump @1193 if a0 >u 63\n      : @1192 (gas: 3)\n 25437: u32 [a1 + 0] = 0x40\n 25440: t0 = 0x518\n 25444: jump @1418\n      : @1193 (gas: 1)\n 25447: t0 = 1304, jump @1418\n      : @1194 [@dyn 652] (gas: 4)\n 25453: ra = 0x51a\n 25457: ecalli 6 // 'hash_keccak_256'\n 25459: t0 = 0x51c\n 25463: jump @1375\n      : @1195 [@dyn 653] (gas: 1)\n 25466: t0 = 1308, jump @1375\n      : @1196 [@dyn 654] (gas: 1)\n 25472: ra = 1310, jump @1428\n      : @1197 [@dyn 655] (gas: 2)\n 25478: a0 = u8 [s1 + 0xe0]\n 25482: jump @1199 if a0 == 0\n      : @1198 (gas: 6)\n 25485: sp = s0 + 0xfffffffffffffe60\n 25489: ra = u64 [sp + 0x198]\n 25493: s0 = u64 [sp + 0x190]\n 25497: s1 = u64 [sp + 0x188]\n 25501: sp = sp + 0x1a0\n 25505: ret\n      : @1199 (gas: 1)\n 25507: t0 = 1312, jump @1388\n      : @1200 [@dyn 656] (gas: 1)\n 25513: ra = 1314, jump @1426\n      : @1201 [@dyn 657] (gas: 5)\n 25519: a0 = u64 [s1 + 0x18]\n 25522: ra = 0x524\n 25526: ecalli 3 // 'caller'\n 25528: t0 = 0x526\n 25532: jump @1366\n      : @1202 [@dyn 658] (gas: 1)\n 25535: t0 = 1318, jump @1366\n      : @1203 [@dyn 659] (gas: 1)\n 25541: ra = 1320, jump @1426\n      : @1204 [@dyn 660] (gas: 11)\n 25547: a0 = u64 [s1 + 0x20]\n 25550: u64 [s1 + 0x98] = a0\n 25554: a0 = u64 [s1 + 0x28]\n 25557: u64 [s1 + 0x90] = a0\n 25561: a0 = u64 [s1 + 0x30]\n 25564: u64 [s1 + 0x88] = a0\n 25568: a0 = 0x24\n 25571: a1 = s1 + 0x80\n 25575: a2 = u64 [s1 + 0x38]\n 25578: u64 [s1 + 0x80] = a2\n 25582: ra = 1322, jump @1426\n      : @1205 [@dyn 661] (gas: 3)\n 25588: a0 = u64 [s1 + 0x78]\n 25591: a0 = i32 [a0]\n 25593: jump @1207 if a0 >u 95\n      : @1206 (gas: 3)\n 25597: a1 = u64 [s1 + 0x78]\n 25600: u32 [a1 + 0] = 0x60\n 25603: fallthrough\n      : @1207 (gas: 6)\n 25604: a0 = 0x1\n 25607: a2 = 0x44\n 25610: a1 = u64 [s1 + 0x70]\n 25613: ra = 0x52c\n 25617: ecalli 7 // 'seal_return'\n 25619: fallthrough\n      : @1208 [@dyn 662] (gas: 30)\n 25620: sp = sp + 0xfffffffffffffda0\n 25624: a3 = sp + 0x200\n 25628: u64 [a3 + 0x58] = ra\n 25631: u64 [a3 + 0x50] = s0\n 25634: u64 [a3 + 0x48] = s1\n 25637: s0 = sp + 0x260\n 25641: sp = sp & 0xffffffffffffffe0\n 25644: s1 = sp\n 25646: a3 = u64 [a2 + 0x10]\n 25649: u64 [s1 + 0x50] = a3\n 25652: a3 = u64 [a2 + 0x8]\n 25655: u64 [s1 + 0x70] = a3\n 25658: a2 = u64 [a2]\n 25660: u64 [s1 + 0x78] = a2\n 25663: a2 = u64 [a1]\n 25665: a3 = u64 [a1 + 0x8]\n 25668: a4 = u64 [a1 + 0x10]\n 25671: a1 = u64 [a1 + 0x18]\n 25674: u64 [s1 + 0x58] = a0\n 25677: u64 [s1 + 0x8] = a1\n 25680: u64 [s1 + 0x238] = a1\n 25684: u64 [s1 + 0x10] = a4\n 25687: u64 [s1 + 0x230] = a4\n 25691: u64 [s1 + 0x18] = a3\n 25694: u64 [s1 + 0x228] = a3\n 25698: a1 = s1 + 0x220\n 25702: u64 [s1 + 0x20] = a2\n 25705: u64 [s1 + 0x220] = a2\n 25709: a0 = 0\n 25711: ra = 1326, jump @1426\n      : @1209 [@dyn 663] (gas: 1)\n 25717: t0 = 1328, jump @1357\n      : @1210 [@dyn 664] (gas: 1)\n 25723: ra = 1330, jump @1426\n      : @1211 [@dyn 665] (gas: 3)\n 25729: a1 = 0x2026c\n 25734: a0 = i32 [0x2026c]\n 25739: jump @1213 if a0 >u 63\n      : @1212 (gas: 2)\n 25743: u32 [0x2026c] = 0x40\n 25749: fallthrough\n      : @1213 (gas: 6)\n 25750: a0 = sp + 0xffffffffffffffe0\n 25753: a2 = a0 & 0xffffffffffffffe0\n 25756: u64 [s1 + 0x48] = a2\n 25759: sp = a2\n 25761: a0 = 0x20280\n 25766: t0 = 1332, jump @1416\n      : @1214 [@dyn 666] (gas: 4)\n 25772: ra = 0x536\n 25776: ecalli 6 // 'hash_keccak_256'\n 25778: t0 = 0x538\n 25782: jump @1344\n      : @1215 [@dyn 667] (gas: 1)\n 25785: t0 = 1336, jump @1344\n      : @1216 [@dyn 668] (gas: 1)\n 25791: ra = 1338, jump @1426\n      : @1217 [@dyn 669] (gas: 1)\n 25797: t0 = 1340, jump @1370\n      : @1218 [@dyn 670] (gas: 1)\n 25803: ra = 1342, jump @1426\n      : @1219 [@dyn 671] (gas: 3)\n 25809: a1 = u64 [s1 + 0x68]\n 25812: a0 = i32 [a1]\n 25814: jump @1221 if a0 >u 63\n      : @1220 (gas: 3)\n 25818: u32 [a1 + 0] = 0x40\n 25821: t0 = 0x540\n 25825: jump @1355\n      : @1221 (gas: 1)\n 25828: t0 = 1344, jump @1355\n      : @1222 [@dyn 672] (gas: 4)\n 25834: ra = 0x542\n 25838: ecalli 6 // 'hash_keccak_256'\n 25840: t0 = 0x544\n 25844: jump @1350\n      : @1223 [@dyn 673] (gas: 1)\n 25847: t0 = 1348, jump @1350\n      : @1224 [@dyn 674] (gas: 1)\n 25853: ra = 1350, jump @1428\n      : @1225 [@dyn 675] (gas: 2)\n 25859: a0 = u8 [s1 + 0x1a0]\n 25863: jump @1227 if a0 == 0\n      : @1226 (gas: 5)\n 25866: a1 = 0\n 25868: a0 = 0\n 25870: a2 = u64 [s1 + 0x58]\n 25873: t0 = 0x56c\n 25877: jump @1359\n      : @1227 (gas: 11)\n 25880: a0 = u64 [s1 + 0x20]\n 25883: u64 [s1 + 0x180] = a0\n 25887: a0 = u64 [s1 + 0x18]\n 25890: u64 [s1 + 0x188] = a0\n 25894: a0 = u64 [s1 + 0x10]\n 25897: u64 [s1 + 0x190] = a0\n 25901: a1 = s1 + 0x180\n 25905: a0 = u64 [s1 + 0x8]\n 25908: u64 [s1 + 0x198] = a0\n 25912: a0 = 0\n 25914: ra = 1352, jump @1426\n      : @1228 [@dyn 676] (gas: 1)\n 25920: t0 = 1354, jump @1358\n      : @1229 [@dyn 677] (gas: 1)\n 25926: ra = 1356, jump @1426\n      : @1230 [@dyn 678] (gas: 3)\n 25932: a1 = u64 [s1 + 0x68]\n 25935: a0 = i32 [a1]\n 25937: jump @1232 if a0 >u 63\n      : @1231 (gas: 3)\n 25941: u32 [a1 + 0] = 0x40\n 25944: t0 = 0x54e\n 25948: jump @1355\n      : @1232 (gas: 1)\n 25951: t0 = 1358, jump @1355\n      : @1233 [@dyn 679] (gas: 4)\n 25957: ra = 0x550\n 25961: ecalli 6 // 'hash_keccak_256'\n 25963: t0 = 0x552\n 25967: jump @1346\n      : @1234 [@dyn 680] (gas: 1)\n 25970: t0 = 1362, jump @1346\n      : @1235 [@dyn 681] (gas: 1)\n 25976: ra = 1364, jump @1426\n      : @1236 [@dyn 682] (gas: 1)\n 25982: t0 = 1366, jump @1368\n      : @1237 [@dyn 683] (gas: 1)\n 25988: ra = 1368, jump @1426\n      : @1238 [@dyn 684] (gas: 3)\n 25994: a1 = u64 [s1 + 0x68]\n 25997: a0 = i32 [a1]\n 25999: jump @1240 if a0 >u 63\n      : @1239 (gas: 2)\n 26003: u32 [a1 + 0] = 0x40\n 26006: fallthrough\n      : @1240 (gas: 4)\n 26007: a0 = sp + 0xffffffffffffffe0\n 26010: a0 = a0 & 0xffffffffffffffe0\n 26013: u64 [s1 + 0x68] = a0\n 26016: t0 = 1370, jump @1361\n      : @1241 [@dyn 685] (gas: 4)\n 26022: ra = 0x55c\n 26026: ecalli 6 // 'hash_keccak_256'\n 26028: t0 = 0x55e\n 26032: jump @1353\n      : @1242 [@dyn 686] (gas: 1)\n 26035: t0 = 1374, jump @1353\n      : @1243 [@dyn 687] (gas: 1)\n 26041: ra = 1376, jump @1428\n      : @1244 [@dyn 688] (gas: 1)\n 26047: t0 = 1378, jump @1354\n      : @1245 [@dyn 689] (gas: 1)\n 26053: ra = 1380, jump @1429\n      : @1246 [@dyn 690] (gas: 8)\n 26059: a0 = 0x30280\n 26064: u64 [s1 + 0x68] = a0\n 26067: i32 a0 = a0 + 0\n 26069: ra = 0x566\n 26073: ecalli 3 // 'caller'\n 26075: a2 = u64 [s1 + 0x68]\n 26078: t0 = 0x568\n 26082: jump @1349\n      : @1247 [@dyn 691] (gas: 2)\n 26085: a2 = u64 [s1 + 0x68]\n 26088: t0 = 1384, jump @1349\n      : @1248 [@dyn 692] (gas: 40)\n 26094: t0 = a1 | a0\n 26097: a3 = a3 >> 0x20\n 26100: a2 = reverse a2\n 26102: a1 = a2 << 0x20\n 26105: a1 = a1 | a3\n 26108: a2 = a2 >> 0x20\n 26111: u64 [s1 + 152] = 0\n 26115: u64 [s1 + 184] = 0\n 26119: a0 = u64 [s1]\n 26121: u64 [s1 + 0xb0] = a0\n 26125: a0 = u64 [s1 + 0x70]\n 26128: u64 [s1 + 0xa8] = a0\n 26132: a0 = u64 [s1 + 0x78]\n 26135: u64 [s1 + 0xa0] = a0\n 26139: a0 = u64 [s1 + 0x8]\n 26142: u64 [s1 + 0xd8] = a0\n 26146: a0 = u64 [s1 + 0x10]\n 26149: u64 [s1 + 0xd0] = a0\n 26153: a0 = u64 [s1 + 0x18]\n 26156: u64 [s1 + 0xc8] = a0\n 26160: a0 = u64 [s1 + 0x20]\n 26163: u64 [s1 + 0xc0] = a0\n 26167: a3 = u64 [0x20208]\n 26172: a4 = u64 [0x20210]\n 26177: a5 = u64 [0x20218]\n 26182: a0 = u64 [0x20220]\n 26187: u64 [s1 + 0xf8] = a3\n 26191: u64 [s1 + 0xf0] = a4\n 26195: u64 [s1 + 0xe8] = a5\n 26199: u64 [s1 + 0xe0] = a0\n 26203: u64 [s1 + 0x90] = a2\n 26207: u64 [s1 + 0x88] = a1\n 26211: a2 = s1 + 0xe0\n 26215: a3 = s1 + 0xc0\n 26219: a4 = s1 + 0xa0\n 26223: a5 = s1 + 0x80\n 26227: u64 [s1 + 0x80] = t0\n 26231: a0 = 0\n 26233: a1 = 0\n 26235: ra = 1386, jump @1434\n      : @1249 [@dyn 693] (gas: 4)\n 26241: a0 = 0\n 26243: a1 = 0x1\n 26246: a2 = u64 [s1 + 0x58]\n 26249: t0 = 1388, jump @1359\n      : @1250 [@dyn 694] (gas: 1)\n 26255: ret\n      : @1251 (gas: 30)\n 26257: sp = sp + 0xfffffffffffffda0\n 26261: a3 = sp + 0x200\n 26265: u64 [a3 + 0x58] = ra\n 26268: u64 [a3 + 0x50] = s0\n 26271: u64 [a3 + 0x48] = s1\n 26274: s0 = sp + 0x260\n 26278: sp = sp & 0xffffffffffffffe0\n 26281: s1 = sp\n 26283: a3 = u64 [a2 + 0x10]\n 26286: u64 [s1 + 0x38] = a3\n 26289: a3 = u64 [a2 + 0x8]\n 26292: u64 [s1 + 0x70] = a3\n 26295: a2 = u64 [a2]\n 26297: u64 [s1 + 0x78] = a2\n 26300: a2 = u64 [a1]\n 26302: a3 = u64 [a1 + 0x8]\n 26305: a4 = u64 [a1 + 0x10]\n 26308: a1 = u64 [a1 + 0x18]\n 26311: u64 [s1 + 0x30] = a0\n 26314: u64 [s1 + 0x40] = a1\n 26317: u64 [s1 + 0x238] = a1\n 26321: u64 [s1 + 0x48] = a4\n 26324: u64 [s1 + 0x230] = a4\n 26328: u64 [s1 + 0x50] = a3\n 26331: u64 [s1 + 0x228] = a3\n 26335: a1 = s1 + 0x220\n 26339: u64 [s1 + 0x58] = a2\n 26342: u64 [s1 + 0x220] = a2\n 26346: a0 = 0\n 26348: ra = 1390, jump @1426\n      : @1252 [@dyn 695] (gas: 1)\n 26354: t0 = 1392, jump @1357\n      : @1253 [@dyn 696] (gas: 1)\n 26360: ra = 1394, jump @1426\n      : @1254 [@dyn 697] (gas: 3)\n 26366: a1 = 0x2026c\n 26371: a0 = i32 [0x2026c]\n 26376: jump @1256 if a0 >u 63\n      : @1255 (gas: 2)\n 26380: u32 [0x2026c] = 0x40\n 26386: fallthrough\n      : @1256 (gas: 6)\n 26387: a0 = sp + 0xffffffffffffffe0\n 26390: a2 = a0 & 0xffffffffffffffe0\n 26393: u64 [s1 + 0x28] = a2\n 26396: sp = a2\n 26398: a0 = 0x20280\n 26403: t0 = 1396, jump @1416\n      : @1257 [@dyn 698] (gas: 4)\n 26409: ra = 0x576\n 26413: ecalli 6 // 'hash_keccak_256'\n 26415: t0 = 0x578\n 26419: jump @1348\n      : @1258 [@dyn 699] (gas: 1)\n 26422: t0 = 1400, jump @1348\n      : @1259 [@dyn 700] (gas: 13)\n 26428: a0 = u64 [s1 + 0x38]\n 26431: a0 = a0 << 0x20\n 26434: a0 = a0 >> 0x20\n 26437: u64 [s1 + 504] = 0\n 26441: u64 [s1 + 0x38] = a0\n 26444: u64 [s1 + 0x1f0] = a0\n 26448: a0 = u64 [s1 + 0x70]\n 26451: u64 [s1 + 0x1e8] = a0\n 26455: a1 = s1 + 0x1e0\n 26459: a0 = u64 [s1 + 0x78]\n 26462: u64 [s1 + 0x1e0] = a0\n 26466: a0 = 0\n 26468: ra = 1402, jump @1426\n      : @1260 [@dyn 701] (gas: 12)\n 26474: a0 = u64 [s1 + 0x8]\n 26477: a3 = s1 + 0x100\n 26481: u64 [a3 + 0xd8] = a0\n 26485: a0 = u64 [s1 + 0x10]\n 26488: u64 [a3 + 0xd0] = a0\n 26492: a0 = u64 [s1 + 0x18]\n 26495: u64 [a3 + 0xc8] = a0\n 26499: a0 = 0x20\n 26502: a1 = s1 + 0x1c0\n 26506: a2 = u64 [s1 + 0x20]\n 26509: u64 [a3 + 0xc0] = a2\n 26513: ra = 1404, jump @1426\n      : @1261 [@dyn 702] (gas: 3)\n 26519: a1 = u64 [s1 + 0x68]\n 26522: a0 = i32 [a1]\n 26524: jump @1263 if a0 >u 63\n      : @1262 (gas: 2)\n 26528: u32 [a1 + 0] = 0x40\n 26531: fallthrough\n      : @1263 (gas: 4)\n 26532: a0 = sp + 0xffffffffffffffe0\n 26535: a0 = a0 & 0xffffffffffffffe0\n 26538: u64 [s1 + 0x20] = a0\n 26541: t0 = 1406, jump @1361\n      : @1264 [@dyn 703] (gas: 5)\n 26547: ra = 0x580\n 26551: ecalli 6 // 'hash_keccak_256'\n 26553: a3 = u64 [s1 + 0x20]\n 26556: t0 = 0x582\n 26560: jump @1360\n      : @1265 [@dyn 704] (gas: 2)\n 26563: a3 = u64 [s1 + 0x20]\n 26566: t0 = 1410, jump @1360\n      : @1266 [@dyn 705] (gas: 2)\n 26572: a0 = s1 + 0x1a0\n 26576: ra = 1412, jump @1428\n      : @1267 [@dyn 706] (gas: 2)\n 26582: a0 = u8 [s1 + 0x1a0]\n 26586: jump @1289 if a0 == 0\n      : @1268 (gas: 11)\n 26590: a0 = u64 [s1 + 0x58]\n 26593: u64 [s1 + 0x180] = a0\n 26597: a0 = u64 [s1 + 0x50]\n 26600: u64 [s1 + 0x188] = a0\n 26604: a0 = u64 [s1 + 0x48]\n 26607: u64 [s1 + 0x190] = a0\n 26611: a1 = s1 + 0x180\n 26615: a0 = u64 [s1 + 0x40]\n 26618: u64 [s1 + 0x198] = a0\n 26622: a0 = 0\n 26624: ra = 1414, jump @1426\n      : @1269 [@dyn 707] (gas: 1)\n 26630: t0 = 1416, jump @1358\n      : @1270 [@dyn 708] (gas: 1)\n 26636: ra = 1418, jump @1426\n      : @1271 [@dyn 709] (gas: 3)\n 26642: a1 = u64 [s1 + 0x68]\n 26645: a0 = i32 [a1]\n 26647: jump @1273 if a0 >u 63\n      : @1272 (gas: 2)\n 26651: u32 [a1 + 0] = 0x40\n 26654: fallthrough\n      : @1273 (gas: 4)\n 26655: a0 = sp + 0xffffffffffffffe0\n 26658: a0 = a0 & 0xffffffffffffffe0\n 26661: u64 [s1 + 0x28] = a0\n 26664: t0 = 1420, jump @1361\n      : @1274 [@dyn 710] (gas: 4)\n 26670: ra = 0x58e\n 26674: ecalli 6 // 'hash_keccak_256'\n 26676: t0 = 0x590\n 26680: jump @1348\n      : @1275 [@dyn 711] (gas: 1)\n 26683: t0 = 1424, jump @1348\n      : @1276 [@dyn 712] (gas: 10)\n 26689: u64 [s1 + 344] = 0\n 26693: a0 = u64 [s1 + 0x38]\n 26696: u64 [s1 + 0x150] = a0\n 26700: a0 = u64 [s1 + 0x70]\n 26703: u64 [s1 + 0x148] = a0\n 26707: a1 = s1 + 0x140\n 26711: a0 = u64 [s1 + 0x78]\n 26714: u64 [s1 + 0x140] = a0\n 26718: a0 = 0\n 26720: ra = 1426, jump @1426\n      : @1277 [@dyn 713] (gas: 12)\n 26726: a0 = u64 [s1 + 0x8]\n 26729: a3 = s1 + 0x100\n 26733: u64 [a3 + 0x38] = a0\n 26736: a0 = u64 [s1 + 0x10]\n 26739: u64 [a3 + 0x30] = a0\n 26742: a0 = u64 [s1 + 0x18]\n 26745: u64 [a3 + 0x28] = a0\n 26748: a0 = 0x20\n 26751: a1 = s1 + 0x120\n 26755: a2 = u64 [s1 + 0x20]\n 26758: u64 [a3 + 0x20] = a2\n 26761: ra = 1428, jump @1426\n      : @1278 [@dyn 714] (gas: 3)\n 26767: a1 = u64 [s1 + 0x68]\n 26770: a0 = i32 [a1]\n 26772: jump @1280 if a0 >u 63\n      : @1279 (gas: 2)\n 26776: u32 [a1 + 0] = 0x40\n 26779: fallthrough\n      : @1280 (gas: 4)\n 26780: a0 = sp + 0xffffffffffffffe0\n 26783: a0 = a0 & 0xffffffffffffffe0\n 26786: u64 [s1 + 0x68] = a0\n 26789: t0 = 1430, jump @1361\n      : @1281 [@dyn 715] (gas: 5)\n 26795: ra = 0x598\n 26799: ecalli 6 // 'hash_keccak_256'\n 26801: a3 = u64 [s1 + 0x68]\n 26804: t0 = 0x59a\n 26808: jump @1360\n      : @1282 [@dyn 716] (gas: 2)\n 26811: a3 = u64 [s1 + 0x68]\n 26814: t0 = 1434, jump @1360\n      : @1283 [@dyn 717] (gas: 2)\n 26820: a0 = s1 + 0x100\n 26824: ra = 1436, jump @1428\n      : @1284 [@dyn 718] (gas: 15)\n 26830: a4 = s1 + 0x100\n 26834: a0 = u64 [a4 + 0x8]\n 26837: a2 = u64 [a4 + 0x10]\n 26840: a1 = u64 [a4]\n 26842: a3 = u64 [a4 + 0x18]\n 26845: a4 = a1 & 0xffffffffffffff00\n 26849: a1 = sp + 0xffffffffffffffe0\n 26852: a1 = a1 & 0xffffffffffffffe0\n 26855: sp = a1\n 26857: u64 [a1 + 0x18] = a3\n 26860: u64 [a1 + 0x10] = a2\n 26863: u64 [a1 + 0x8] = a0\n 26866: u64 [a1] = a4\n 26868: a0 = u64 [s1 + 0x28]\n 26871: ra = 1438, jump @1429\n      : @1285 [@dyn 719] (gas: 8)\n 26877: a0 = 0x30280\n 26882: u64 [s1 + 0x68] = a0\n 26885: i32 a0 = a0 + 0\n 26887: ra = 0x5a0\n 26891: ecalli 3 // 'caller'\n 26893: a2 = u64 [s1 + 0x68]\n 26896: t0 = 0x5a2\n 26900: jump @1349\n      : @1286 [@dyn 720] (gas: 2)\n 26903: a2 = u64 [s1 + 0x68]\n 26906: t0 = 1442, jump @1349\n      : @1287 [@dyn 721] (gas: 40)\n 26912: t0 = a1 | a0\n 26915: a3 = a3 >> 0x20\n 26918: a2 = reverse a2\n 26920: a1 = a2 << 0x20\n 26923: a1 = a1 | a3\n 26926: a2 = a2 >> 0x20\n 26929: u64 [s1 + 152] = 0\n 26933: u64 [s1 + 184] = 0\n 26937: a0 = u64 [s1 + 0x38]\n 26940: u64 [s1 + 0xb0] = a0\n 26944: a0 = u64 [s1 + 0x70]\n 26947: u64 [s1 + 0xa8] = a0\n 26951: a0 = u64 [s1 + 0x78]\n 26954: u64 [s1 + 0xa0] = a0\n 26958: a0 = u64 [s1 + 0x40]\n 26961: u64 [s1 + 0xd8] = a0\n 26965: a0 = u64 [s1 + 0x48]\n 26968: u64 [s1 + 0xd0] = a0\n 26972: a0 = u64 [s1 + 0x50]\n 26975: u64 [s1 + 0xc8] = a0\n 26979: a0 = u64 [s1 + 0x58]\n 26982: u64 [s1 + 0xc0] = a0\n 26986: a3 = u64 [0x20228]\n 26991: a4 = u64 [0x20230]\n 26996: a5 = u64 [0x20238]\n 27001: a0 = u64 [0x20240]\n 27006: u64 [s1 + 0xf8] = a3\n 27010: u64 [s1 + 0xf0] = a4\n 27014: u64 [s1 + 0xe8] = a5\n 27018: u64 [s1 + 0xe0] = a0\n 27022: u64 [s1 + 0x90] = a2\n 27026: u64 [s1 + 0x88] = a1\n 27030: a2 = s1 + 0xe0\n 27034: a3 = s1 + 0xc0\n 27038: a4 = s1 + 0xa0\n 27042: a5 = s1 + 0x80\n 27046: u64 [s1 + 0x80] = t0\n 27050: a0 = 0\n 27052: a1 = 0\n 27054: ra = 1444, jump @1434\n      : @1288 [@dyn 722] (gas: 5)\n 27060: a0 = 0\n 27062: a1 = 0x1\n 27065: a2 = u64 [s1 + 0x30]\n 27068: t0 = 0x5a6\n 27072: jump @1359\n      : @1289 (gas: 3)\n 27075: a1 = 0\n 27077: a2 = u64 [s1 + 0x30]\n 27080: t0 = 1446, jump @1359\n      : @1290 [@dyn 723] (gas: 1)\n 27086: ret\n      : @1291 (gas: 17)\n 27088: sp = sp + 0xfffffffffffffd40\n 27092: a2 = sp + 0x200\n 27096: u64 [a2 + 0xb8] = ra\n 27100: u64 [a2 + 0xb0] = s0\n 27104: u64 [a2 + 0xa8] = s1\n 27108: s0 = sp + 0x2c0\n 27112: sp = sp & 0xffffffffffffffe0\n 27115: s1 = sp\n 27117: a3 = u32 [a0 + 0x10]\n 27120: a2 = u64 [a0]\n 27122: a4 = u64 [a0 + 0x8]\n 27125: u64 [s1 + 0x58] = a2\n 27128: u64 [s1 + 0x48] = a3\n 27131: a0 = a2 | a3\n 27134: u64 [s1 + 0x50] = a4\n 27137: a0 = a0 | a4\n 27140: jump @1320 if a0 == 0\n      : @1292 (gas: 9)\n 27144: a0 = u64 [a1 + 0x18]\n 27147: u64 [s1 + 0x78] = a0\n 27150: a0 = u64 [a1 + 0x10]\n 27153: u64 [s1 + 0x68] = a0\n 27156: a0 = u64 [a1 + 0x8]\n 27159: u64 [s1 + 0x60] = a0\n 27162: a0 = u64 [a1]\n 27164: u64 [s1 + 0x70] = a0\n 27167: ra = 1448, jump @1332\n      : @1293 [@dyn 724] (gas: 11)\n 27173: u64 [s1 + 664] = 0\n 27177: a0 = u64 [s1 + 0x48]\n 27180: a2 = s1 + 0x200\n 27184: u64 [a2 + 0x90] = a0\n 27188: a0 = u64 [s1 + 0x50]\n 27191: u64 [a2 + 0x88] = a0\n 27195: a1 = s1 + 0x280\n 27199: a0 = u64 [s1 + 0x58]\n 27202: u64 [a2 + 0x80] = a0\n 27206: a0 = 0\n 27208: ra = 1450, jump @1426\n      : @1294 [@dyn 725] (gas: 1)\n 27214: t0 = 1452, jump @1403\n      : @1295 [@dyn 726] (gas: 1)\n 27220: ra = 1454, jump @1426\n      : @1296 [@dyn 727] (gas: 3)\n 27226: a2 = 0x2026c\n 27231: a0 = i32 [0x2026c]\n 27236: jump @1298 if a0 >u 63\n      : @1297 (gas: 2)\n 27240: u32 [0x2026c] = 0x40\n 27246: fallthrough\n      : @1298 (gas: 15)\n 27247: u64 [s1 + 0x38] = a2\n 27250: a0 = sp + 0xffffffffffffffe0\n 27253: a2 = a0 & 0xffffffffffffffe0\n 27256: u64 [s1 + 0x30] = a2\n 27259: sp = a2\n 27261: a0 = 0x20280\n 27266: i32 a0 = a0 + 0\n 27268: i32 a2 = a2 + 0\n 27270: a1 = 0x40\n 27273: u64 [s1 + 0x40] = a0\n 27276: ra = 0x5b0\n 27280: ecalli 6 // 'hash_keccak_256'\n 27282: a3 = u64 [s1 + 0x30]\n 27285: t0 = 0x5b2\n 27289: jump @1352\n      : @1299 [@dyn 728] (gas: 2)\n 27292: a3 = u64 [s1 + 0x30]\n 27295: t0 = 1458, jump @1352\n      : @1300 [@dyn 729] (gas: 2)\n 27301: a0 = s1 + 0x240\n 27305: ra = 1460, jump @1428\n      : @1301 [@dyn 730] (gas: 28)\n 27311: a1 = s1 + 0x200\n 27315: a2 = u64 [a1 + 0x58]\n 27318: a0 = u64 [a1 + 0x50]\n 27321: a5 = u64 [a1 + 0x48]\n 27324: a4 = u64 [a1 + 0x40]\n 27327: a1 = u64 [s1 + 0x78]\n 27330: t1 = a2 ^ a1\n 27333: u64 [s1 + 0x20] = a2\n 27336: a1 = a2 <u a1\n 27339: a2 = u64 [s1 + 0x68]\n 27342: a3 = a0 <u a2\n 27345: u64 [s1 + 0x8] = a3\n 27348: a1 = a3 if t1 == 0\n 27351: a3 = u64 [s1 + 0x60]\n 27354: t0 = a5 ^ a3\n 27357: u64 [s1 + 0x28] = a5\n 27360: a5 = a5 <u a3\n 27363: a3 = u64 [s1 + 0x70]\n 27366: u64 [s1 + 0x30] = a4\n 27369: a3 = a4 <u a3\n 27372: u64 [s1 + 0x10] = a3\n 27375: a5 = a3 if t0 == 0\n 27378: u64 [s1 + 0x18] = a0\n 27381: a2 = a2 ^ a0\n 27384: a0 = a2 | t1\n 27387: u64 [s1] = a5\n 27389: a1 = a5 if a0 == 0\n 27392: jump @1325 if a1 != 0\n      : @1302 (gas: 11)\n 27396: u64 [s1 + 568] = 0\n 27400: a0 = u64 [s1 + 0x58]\n 27403: a2 = s1 + 0x200\n 27407: u64 [a2 + 0x20] = a0\n 27410: a0 = u64 [s1 + 0x50]\n 27413: u64 [a2 + 0x28] = a0\n 27416: a1 = s1 + 0x220\n 27420: a0 = u64 [s1 + 0x48]\n 27423: u64 [a2 + 0x30] = a0\n 27426: a0 = 0\n 27428: ra = 1462, jump @1426\n      : @1303 [@dyn 731] (gas: 7)\n 27434: u64 [s1 + 536] = 0\n 27438: u64 [s1 + 528] = 0\n 27442: u64 [s1 + 520] = 0\n 27446: a0 = 0x20\n 27449: a1 = s1 + 0x200\n 27453: u64 [s1 + 512] = 0\n 27457: ra = 1464, jump @1426\n      : @1304 [@dyn 732] (gas: 27)\n 27463: a0 = u64 [s1 + 0x68]\n 27466: a1 = u64 [s1 + 0x18]\n 27469: a0 = a1 - a0\n 27472: a2 = u64 [s1]\n 27474: a1 = a0 - a2\n 27477: u64 [s1 + 0x18] = a1\n 27480: a0 = a0 <u a2\n 27483: a1 = u64 [s1 + 0x78]\n 27486: a2 = u64 [s1 + 0x20]\n 27489: a1 = a2 - a1\n 27492: a2 = u64 [s1 + 0x8]\n 27495: a1 = a1 - a2\n 27498: a1 = a1 - a0\n 27501: u64 [s1 + 0x20] = a1\n 27504: a2 = u64 [s1 + 0x38]\n 27507: a0 = i32 [a2]\n 27509: a1 = u64 [s1 + 0x60]\n 27512: a3 = u64 [s1 + 0x28]\n 27515: a1 = a3 - a1\n 27518: a3 = u64 [s1 + 0x10]\n 27521: a1 = a1 - a3\n 27524: u64 [s1 + 0x28] = a1\n 27527: a3 = u64 [s1 + 0x70]\n 27530: a4 = u64 [s1 + 0x30]\n 27533: a4 = a4 - a3\n 27536: u64 [s1 + 0x30] = a4\n 27539: jump @1306 if a0 >u 63\n      : @1305 (gas: 2)\n 27543: u32 [a2 + 0] = 0x40\n 27546: fallthrough\n      : @1306 (gas: 4)\n 27547: a0 = sp + 0xffffffffffffffe0\n 27550: a0 = a0 & 0xffffffffffffffe0\n 27553: u64 [s1 + 0x38] = a0\n 27556: t0 = 1466, jump @1415\n      : @1307 [@dyn 733] (gas: 5)\n 27562: ra = 0x5bc\n 27566: ecalli 6 // 'hash_keccak_256'\n 27568: a3 = u64 [s1 + 0x38]\n 27571: t0 = 0x5be\n 27575: jump @1367\n      : @1308 [@dyn 734] (gas: 2)\n 27578: a3 = u64 [s1 + 0x38]\n 27581: t0 = 1470, jump @1367\n      : @1309 [@dyn 735] (gas: 9)\n 27587: a2 = u64 [s1 + 0x20]\n 27590: u64 [a1 + 0x18] = a2\n 27593: a2 = u64 [s1 + 0x18]\n 27596: u64 [a1 + 0x10] = a2\n 27599: a2 = u64 [s1 + 0x28]\n 27602: u64 [a1 + 0x8] = a2\n 27605: a2 = u64 [s1 + 0x30]\n 27608: u64 [a1] = a2\n 27610: ra = 1472, jump @1429\n      : @1310 [@dyn 736] (gas: 1)\n 27616: t0 = 1474, jump @1413\n      : @1311 [@dyn 737] (gas: 3)\n 27622: u64 [a1 + 0] = 0x2\n 27625: a0 = s1 + 0x1e0\n 27629: ra = 1476, jump @1428\n      : @1312 [@dyn 738] (gas: 41)\n 27635: a4 = u64 [s1 + 0x1e8]\n 27639: a0 = u64 [s1 + 0x1f8]\n 27643: u64 [s1 + 0x40] = a0\n 27646: t2 = u64 [s1 + 0x1e0]\n 27650: t0 = u64 [s1 + 0x1f0]\n 27654: a2 = u64 [s1 + 0x60]\n 27657: t1 = a4 ^ a2\n 27660: a5 = a4 <u a2\n 27663: a1 = u64 [s1 + 0x70]\n 27666: ra = t2 <u a1\n 27669: a5 = ra if t1 == 0\n 27672: a0 = u64 [s1 + 0x68]\n 27675: t1 = t0 - a0\n 27678: a3 = t1 - a5\n 27681: u64 [s1 + 0x38] = a3\n 27684: t1 = t1 <u a5\n 27687: a0 = t0 <u a0\n 27690: a5 = u64 [s1 + 0x78]\n 27693: a3 = u64 [s1 + 0x40]\n 27696: a5 = a3 - a5\n 27699: a5 = a5 - a0\n 27702: a5 = a5 - t1\n 27705: a0 = a4 - a2\n 27708: a2 = a0 - ra\n 27711: a3 = t2 - a1\n 27714: a0 = sp + 0xffffffffffffffe0\n 27717: a0 = a0 & 0xffffffffffffffe0\n 27720: sp = a0\n 27722: u64 [a0 + 24] = 0\n 27725: u64 [a0 + 16] = 0\n 27728: u64 [a0 + 8] = 0\n 27731: u64 [a0 + 0] = 0x2\n 27734: a1 = sp + 0xffffffffffffffe0\n 27737: a1 = a1 & 0xffffffffffffffe0\n 27740: sp = a1\n 27742: u64 [a1 + 0x18] = a5\n 27745: a4 = u64 [s1 + 0x38]\n 27748: u64 [a1 + 0x10] = a4\n 27751: u64 [a1 + 0x8] = a2\n 27754: u64 [a1] = a3\n 27756: ra = 1478, jump @1429\n      : @1313 [@dyn 739] (gas: 3)\n 27762: a0 = s1 + 0x1c0\n 27766: a1 = 0x40\n 27769: ra = 1480, jump @1424\n      : @1314 [@dyn 740] (gas: 6)\n 27775: a4 = s1 + 0x100\n 27779: a0 = u64 [a4 + 0xd8]\n 27783: a1 = u64 [a4 + 0xd0]\n 27787: a2 = u64 [a4 + 0xc8]\n 27791: a3 = u64 [a4 + 0xc0]\n 27795: t0 = 1482, jump @1383\n      : @1315 [@dyn 741] (gas: 1)\n 27801: jump @1319 if a0 != 0\n      : @1316 (gas: 12)\n 27805: a0 = u64 [s1 + 0x70]\n 27808: u64 [s1 + 0x1a0] = a0\n 27812: a0 = u64 [s1 + 0x60]\n 27815: u64 [s1 + 0x1a8] = a0\n 27819: a0 = u64 [s1 + 0x68]\n 27822: u64 [s1 + 0x1b0] = a0\n 27826: a1 = s1 + 0x1a0\n 27830: a0 = u64 [s1 + 0x78]\n 27833: u64 [s1 + 0x1b8] = a0\n 27837: a0 = a3\n 27839: u64 [s1 + 0x78] = a3\n 27842: ra = 1484, jump @1426\n      : @1317 [@dyn 742] (gas: 26)\n 27848: u64 [s1 + 344] = 0\n 27852: u64 [s1 + 336] = 0\n 27856: u64 [s1 + 328] = 0\n 27860: u64 [s1 + 320] = 0\n 27864: u64 [s1 + 376] = 0\n 27868: a0 = u64 [s1 + 0x48]\n 27871: a5 = s1 + 0x100\n 27875: u64 [a5 + 0x70] = a0\n 27878: a0 = u64 [s1 + 0x50]\n 27881: u64 [a5 + 0x68] = a0\n 27884: a0 = u64 [0x20248]\n 27889: a1 = u64 [0x20250]\n 27894: a2 = u64 [0x20258]\n 27899: a3 = u64 [s1 + 0x58]\n 27902: u64 [a5 + 0x60] = a3\n 27905: u64 [a5 + 0x98] = a0\n 27909: u64 [a5 + 0x90] = a1\n 27913: u64 [a5 + 0x88] = a2\n 27917: a0 = u64 [0x20260]\n 27922: a1 = 0x20\n 27925: a2 = s1 + 0x180\n 27929: a3 = s1 + 0x160\n 27933: a4 = s1 + 0x140\n 27937: u64 [a5 + 0x80] = a0\n 27941: a0 = u64 [s1 + 0x78]\n 27944: ra = 1486, jump @1432\n      : @1318 [@dyn 743] (gas: 7)\n 27950: sp = s0 + 0xfffffffffffffd40\n 27954: a0 = sp + 0x200\n 27958: ra = u64 [a0 + 0xb8]\n 27962: s0 = u64 [a0 + 0xb0]\n 27966: s1 = u64 [a0 + 0xa8]\n 27970: sp = sp + 0x2c0\n 27974: ret\n      : @1319 (gas: 1)\n 27976: trap\n      : @1320 (gas: 8)\n 27977: u64 [s1 + 176] = 0\n 27981: u64 [s1 + 168] = 0\n 27985: u64 [s1 + 160] = 0\n 27989: a0 = 0x96c6fd1e00000000\n 27999: a1 = s1 + 0xa0\n 28003: u64 [s1 + 0xb8] = a0\n 28007: a0 = 0\n 28009: ra = 1488, jump @1426\n      : @1321 [@dyn 744] (gas: 7)\n 28015: u64 [s1 + 152] = 0\n 28019: u64 [s1 + 144] = 0\n 28023: u64 [s1 + 136] = 0\n 28027: a0 = 0x4\n 28030: a1 = s1 + 0x80\n 28034: u64 [s1 + 128] = 0\n 28038: ra = 1490, jump @1426\n      : @1322 [@dyn 745] (gas: 2)\n 28044: a1 = i32 [0x2026c]\n 28049: jump @1324 if a1 >u 63\n      : @1323 (gas: 2)\n 28053: u32 [0x2026c] = 0x40\n 28059: fallthrough\n      : @1324 (gas: 6)\n 28060: a1 = 0x20280\n 28065: i32 a1 = a1 + 0\n 28067: a0 = 0x1\n 28070: a2 = 0x24\n 28073: ecalli 7 // 'seal_return'\n 28075: fallthrough\n      : @1325 (gas: 8)\n 28076: u64 [s1 + 304] = 0\n 28080: u64 [s1 + 296] = 0\n 28084: u64 [s1 + 288] = 0\n 28088: a0 = 0xe450d38c00000000\n 28098: a1 = s1 + 0x120\n 28102: u64 [s1 + 0x138] = a0\n 28106: a0 = 0\n 28108: ra = 1492, jump @1426\n      : @1326 [@dyn 746] (gas: 11)\n 28114: u64 [s1 + 280] = 0\n 28118: a0 = u64 [s1 + 0x48]\n 28121: a3 = s1 + 0x100\n 28125: u64 [a3 + 0x10] = a0\n 28128: a0 = u64 [s1 + 0x50]\n 28131: u64 [a3 + 0x8] = a0\n 28134: a0 = 0x4\n 28137: a1 = s1 + 0x100\n 28141: a2 = u64 [s1 + 0x58]\n 28144: u64 [a3] = a2\n 28146: ra = 1494, jump @1426\n      : @1327 [@dyn 747] (gas: 11)\n 28152: a0 = u64 [s1 + 0x20]\n 28155: u64 [s1 + 0xf8] = a0\n 28159: a0 = u64 [s1 + 0x18]\n 28162: u64 [s1 + 0xf0] = a0\n 28166: a0 = u64 [s1 + 0x28]\n 28169: u64 [s1 + 0xe8] = a0\n 28173: a0 = 0x24\n 28176: a1 = s1 + 0xe0\n 28180: a2 = u64 [s1 + 0x30]\n 28183: u64 [s1 + 0xe0] = a2\n 28187: ra = 1496, jump @1426\n      : @1328 [@dyn 748] (gas: 11)\n 28193: a0 = u64 [s1 + 0x78]\n 28196: u64 [s1 + 0xd8] = a0\n 28200: a0 = u64 [s1 + 0x68]\n 28203: u64 [s1 + 0xd0] = a0\n 28207: a0 = u64 [s1 + 0x60]\n 28210: u64 [s1 + 0xc8] = a0\n 28214: a0 = 0x44\n 28217: a1 = s1 + 0xc0\n 28221: a2 = u64 [s1 + 0x70]\n 28224: u64 [s1 + 0xc0] = a2\n 28228: ra = 1498, jump @1426\n      : @1329 [@dyn 749] (gas: 3)\n 28234: a0 = u64 [s1 + 0x38]\n 28237: a0 = i32 [a0]\n 28239: jump @1331 if a0 >u 127\n      : @1330 (gas: 3)\n 28243: a1 = u64 [s1 + 0x38]\n 28246: u32 [a1 + 0] = 0x80\n 28250: fallthrough\n      : @1331 (gas: 6)\n 28251: a0 = 0x1\n 28254: a2 = 0x64\n 28257: a1 = u64 [s1 + 0x40]\n 28260: ra = 0x5dc\n 28264: ecalli 7 // 'seal_return'\n 28266: fallthrough\n      : @1332 [@dyn 750] (gas: 12)\n 28267: sp = sp + 0xffffffffffffff80\n 28270: u64 [sp + 0x78] = ra\n 28273: u64 [sp + 0x70] = s0\n 28276: s0 = sp + 0x80\n 28280: sp = sp & 0xffffffffffffffe0\n 28283: u64 [sp + 88] = 0\n 28286: u64 [sp + 80] = 0\n 28289: u64 [sp + 72] = 0\n 28292: u64 [sp + 64] = 0x5\n 28296: a0 = sp + 0x20\n 28299: a1 = sp + 0x40\n 28302: ra = 1502, jump @1428\n      : @1333 [@dyn 751] (gas: 2)\n 28308: a0 = u8 [sp + 0x20]\n 28311: jump @1335 if a0 != 0\n      : @1334 (gas: 5)\n 28314: sp = s0 + 0xffffffffffffff80\n 28317: ra = u64 [sp + 0x78]\n 28320: s0 = u64 [sp + 0x70]\n 28323: sp = sp + 0x80\n 28327: ret\n      : @1335 (gas: 8)\n 28329: u64 [sp + 16] = 0\n 28332: u64 [sp + 8] = 0\n 28335: u64 [sp + 0] = 0\n 28337: a0 = 0xd93c066500000000\n 28347: a1 = sp\n 28349: u64 [sp + 0x18] = a0\n 28352: a0 = 0\n 28354: ra = 1504, jump @1426\n      : @1336 [@dyn 752] (gas: 2)\n 28360: a1 = i32 [0x2026c]\n 28365: jump @1338 if a1 >u 31\n      : @1337 (gas: 2)\n 28369: u32 [0x2026c] = 0x20\n 28375: fallthrough\n      : @1338 (gas: 7)\n 28376: a1 = 0x20280\n 28381: i32 a1 = a1 + 0\n 28383: a0 = 0x1\n 28386: a2 = 0x4\n 28389: ra = 0x5e2\n 28393: ecalli 7 // 'seal_return'\n 28395: fallthrough\n      : @1339 [@dyn 753] [export #0: 'call'] (gas: 4)\n 28396: sp = sp + 0xfffffffffffffff8\n 28399: u64 [sp] = ra\n 28401: a0 = 0\n 28403: ra = 1508, jump @15\n      : @1340 [@dyn 754] [export #1: 'deploy'] (gas: 4)\n 28409: sp = sp + 0xfffffffffffffff8\n 28412: u64 [sp] = ra\n 28414: a0 = 0x1\n 28417: ra = 1510, jump @15\n      : @1341 [@dyn 755] (gas: 11)\n 28423: a0 = sp + 0xffffffffffffffe0\n 28426: a0 = a0 & 0xffffffffffffffe0\n 28429: u64 [s1 + 0xb0] = a0\n 28433: sp = a0\n 28435: a1 = 0\n 28437: u64 [a0 + 24] = 0\n 28440: u64 [a0 + 16] = 0\n 28443: u64 [a0 + 8] = 0\n 28446: u64 [a0 + 0] = 0\n 28448: i32 a0 = a0 + 0\n 28450: jump [t0]\n      : @1342 (gas: 9)\n 28452: a3 = u64 [s1 + 0xb0]\n 28456: a0 = u64 [a3 + 0x10]\n 28459: a1 = u64 [a3 + 0x18]\n 28462: a2 = u64 [a3 + 0x8]\n 28465: a3 = u64 [a3]\n 28467: a1 = a1 | a2\n 28470: a0 = a0 | a3\n 28473: a0 = a0 | a1\n 28476: jump [t0]\n      : @1343 (gas: 16)\n 28478: a0 = u64 [a2 + 0x8]\n 28481: a1 = i32 [a2 + 0x10]\n 28484: a2 = u64 [a2]\n 28486: a0 = reverse a0\n 28488: a3 = a0 << 0x20\n 28491: a1 = reverse a1\n 28493: a1 = a1 >> 0x20\n 28496: a3 = a3 | a1\n 28499: a0 = a0 >> 0x20\n 28502: a1 = reverse a2\n 28504: a2 = a1 << 0x20\n 28507: a0 = a0 | a2\n 28510: a1 = a1 >> 0x20\n 28513: a2 = s1 + 0x7ff\n 28517: a2 = a2 + 0x39\n 28520: jump [t0]\n      : @1344 (gas: 30)\n 28522: a3 = u64 [s1 + 0x48]\n 28525: a0 = u64 [a3 + 0x18]\n 28528: a1 = u64 [a3 + 0x10]\n 28531: a2 = u64 [a3 + 0x8]\n 28534: a3 = u64 [a3]\n 28536: a0 = reverse a0\n 28538: u64 [s1 + 0x40] = a0\n 28541: a0 = reverse a1\n 28543: u64 [s1 + 0x38] = a0\n 28546: a0 = reverse a2\n 28548: u64 [s1 + 0x30] = a0\n 28551: a0 = reverse a3\n 28553: u64 [s1 + 0x28] = a0\n 28556: a0 = sp + 0xffffffffffffffe0\n 28559: a0 = a0 & 0xffffffffffffffe0\n 28562: u64 [s1 + 0x48] = a0\n 28565: sp = a0\n 28567: a0 = u64 [s1 + 0x50]\n 28570: a0 = a0 << 0x20\n 28573: a0 = a0 >> 0x20\n 28576: u64 [s1 + 504] = 0\n 28580: u64 [s1] = a0\n 28582: u64 [s1 + 0x1f0] = a0\n 28586: a0 = u64 [s1 + 0x70]\n 28589: u64 [s1 + 0x1e8] = a0\n 28593: a1 = s1 + 0x1e0\n 28597: a0 = u64 [s1 + 0x78]\n 28600: u64 [s1 + 0x1e0] = a0\n 28604: a0 = 0\n 28606: jump [t0]\n      : @1345 (gas: 14)\n 28608: a0 = u64 [a2 + 0x8]\n 28611: a1 = i32 [a2 + 0x10]\n 28614: a2 = u64 [a2]\n 28616: a0 = reverse a0\n 28618: a3 = a0 << 0x20\n 28621: a1 = reverse a1\n 28623: a1 = a1 >> 0x20\n 28626: a3 = a3 | a1\n 28629: a0 = a0 >> 0x20\n 28632: a1 = reverse a2\n 28634: a2 = a1 << 0x20\n 28637: a0 = a0 | a2\n 28640: a1 = a1 >> 0x20\n 28643: jump [t0]\n      : @1346 (gas: 27)\n 28645: a3 = u64 [s1 + 0x50]\n 28648: a0 = u64 [a3 + 0x18]\n 28651: a1 = u64 [a3 + 0x10]\n 28654: a2 = u64 [a3 + 0x8]\n 28657: a3 = u64 [a3]\n 28659: a0 = reverse a0\n 28661: u64 [s1 + 0x48] = a0\n 28664: a0 = reverse a1\n 28666: u64 [s1 + 0x40] = a0\n 28669: a0 = reverse a2\n 28671: u64 [s1 + 0x38] = a0\n 28674: a0 = reverse a3\n 28676: u64 [s1 + 0x30] = a0\n 28679: a0 = sp + 0xffffffffffffffe0\n 28682: a0 = a0 & 0xffffffffffffffe0\n 28685: u64 [s1 + 0x50] = a0\n 28688: sp = a0\n 28690: u64 [s1 + 344] = 0\n 28694: a0 = u64 [s1]\n 28696: u64 [s1 + 0x150] = a0\n 28700: a0 = u64 [s1 + 0x70]\n 28703: u64 [s1 + 0x148] = a0\n 28707: a1 = s1 + 0x140\n 28711: a0 = u64 [s1 + 0x78]\n 28714: u64 [s1 + 0x140] = a0\n 28718: a0 = 0\n 28720: jump [t0]\n      : @1347 (gas: 33)\n 28722: a5 = u64 [s1 + 0xb8]\n 28726: t1 = u64 [s1 + 0x58]\n 28729: a0 = u64 [t1]\n 28731: a1 = u64 [t1 + 0x18]\n 28734: a2 = u64 [t1 + 0x8]\n 28737: a3 = u64 [t1 + 0x10]\n 28740: a0 = a0 + 0x1\n 28743: a4 = a0 <u 0x1\n 28746: a2 = a2 + a4\n 28749: a4 = a0 | a2\n 28752: a4 = a4 <u 0x1\n 28755: a4 = a4 + a3\n 28758: a3 = a4 <u a3\n 28761: a1 = a1 + a3\n 28764: a3 = t1\n 28766: u64 [a3] = a0\n 28768: u64 [a3 + 0x8] = a2\n 28771: u64 [a3 + 0x10] = a4\n 28774: u64 [a3 + 0x18] = a1\n 28777: a1 = u64 [s1 + 0xa0]\n 28781: a0 = a1 + 0x20\n 28784: a1 = a0 <u a1\n 28787: a3 = u64 [s1 + 0xa8]\n 28791: a2 = a3 + a1\n 28794: a3 = a2 <u a3\n 28797: a3 = a1 if a1 == 0\n 28800: a1 = u64 [s1 + 0xb0]\n 28804: a3 = a3 + a1\n 28807: a1 = a3 <u a1\n 28810: a5 = a5 + a1\n 28813: ra = a0\n 28815: t2 = a2\n 28817: jump [t0]\n      : @1348 (gas: 18)\n 28819: a3 = u64 [s1 + 0x28]\n 28822: a0 = u64 [a3 + 0x18]\n 28825: a1 = u64 [a3 + 0x10]\n 28828: a2 = u64 [a3 + 0x8]\n 28831: a3 = u64 [a3]\n 28833: a0 = reverse a0\n 28835: u64 [s1 + 0x20] = a0\n 28838: a0 = reverse a1\n 28840: u64 [s1 + 0x18] = a0\n 28843: a0 = reverse a2\n 28845: u64 [s1 + 0x10] = a0\n 28848: a0 = reverse a3\n 28850: u64 [s1 + 0x8] = a0\n 28853: a0 = sp + 0xffffffffffffffe0\n 28856: a0 = a0 & 0xffffffffffffffe0\n 28859: u64 [s1 + 0x28] = a0\n 28862: sp = a0\n 28864: jump [t0]\n      : @1349 (gas: 8)\n 28866: a0 = u64 [a2 + 0x8]\n 28869: a1 = i32 [a2 + 0x10]\n 28872: a2 = u64 [a2]\n 28874: a3 = reverse a0\n 28876: a0 = a3 << 0x20\n 28879: a1 = reverse a1\n 28881: a1 = a1 >> 0x20\n 28884: jump [t0]\n      : @1350 (gas: 16)\n 28886: a3 = u64 [s1 + 0x50]\n 28889: a0 = u64 [a3 + 0x18]\n 28892: a1 = u64 [a3 + 0x10]\n 28895: a2 = u64 [a3 + 0x8]\n 28898: a3 = u64 [a3]\n 28900: a0 = reverse a0\n 28902: a4 = reverse a1\n 28904: a2 = reverse a2\n 28906: a3 = reverse a3\n 28908: a1 = u64 [s1 + 0x48]\n 28911: u64 [a1 + 0x18] = a3\n 28914: u64 [a1 + 0x10] = a2\n 28917: u64 [a1 + 0x8] = a4\n 28920: u64 [a1] = a0\n 28922: a0 = s1 + 0x1a0\n 28926: jump [t0]\n      : @1351 (gas: 9)\n 28928: a0 = u64 [a3 + 0x18]\n 28931: a1 = u64 [a3 + 0x10]\n 28934: a2 = u64 [a3 + 0x8]\n 28937: a3 = u64 [a3]\n 28939: a0 = reverse a0\n 28941: a4 = reverse a1\n 28943: a2 = reverse a2\n 28945: a3 = reverse a3\n 28947: jump [t0]\n      : @1352 (gas: 16)\n 28949: a0 = u64 [a3 + 0x18]\n 28952: a1 = u64 [a3 + 0x10]\n 28955: a2 = u64 [a3 + 0x8]\n 28958: a3 = u64 [a3]\n 28960: a0 = reverse a0\n 28962: a4 = reverse a1\n 28964: a2 = reverse a2\n 28966: a3 = reverse a3\n 28968: a1 = sp + 0xffffffffffffffe0\n 28971: a1 = a1 & 0xffffffffffffffe0\n 28974: sp = a1\n 28976: u64 [a1 + 0x18] = a3\n 28979: u64 [a1 + 0x10] = a2\n 28982: u64 [a1 + 0x8] = a4\n 28985: u64 [a1] = a0\n 28987: jump [t0]\n      : @1353 (gas: 16)\n 28989: a3 = u64 [s1 + 0x68]\n 28992: a0 = u64 [a3 + 0x18]\n 28995: a1 = u64 [a3 + 0x10]\n 28998: a2 = u64 [a3 + 0x8]\n 29001: a3 = u64 [a3]\n 29003: a0 = reverse a0\n 29005: a4 = reverse a1\n 29007: a2 = reverse a2\n 29009: a3 = reverse a3\n 29011: a1 = u64 [s1 + 0x50]\n 29014: u64 [a1 + 0x18] = a3\n 29017: u64 [a1 + 0x10] = a2\n 29020: u64 [a1 + 0x8] = a4\n 29023: u64 [a1] = a0\n 29025: a0 = s1 + 0x100\n 29029: jump [t0]\n      : @1354 (gas: 16)\n 29031: a4 = s1 + 0x100\n 29035: a0 = u64 [a4 + 0x8]\n 29038: a1 = u64 [a4]\n 29040: a2 = u64 [a4 + 0x10]\n 29043: a3 = u64 [a4 + 0x18]\n 29046: a1 = a1 & 0xffffffffffffff00\n 29050: a4 = a1 | 0x1\n 29053: a1 = sp + 0xffffffffffffffe0\n 29056: a1 = a1 & 0xffffffffffffffe0\n 29059: sp = a1\n 29061: u64 [a1 + 0x18] = a3\n 29064: u64 [a1 + 0x10] = a2\n 29067: u64 [a1 + 0x8] = a0\n 29070: u64 [a1] = a4\n 29072: a0 = u64 [s1 + 0x50]\n 29075: jump [t0]\n      : @1355 (gas: 8)\n 29077: a0 = sp + 0xffffffffffffffe0\n 29080: a0 = a0 & 0xffffffffffffffe0\n 29083: u64 [s1 + 0x50] = a0\n 29086: sp = a0\n 29088: i32 a2 = a0 + 0\n 29090: a1 = 0x40\n 29093: a0 = u64 [s1 + 0x60]\n 29096: jump [t0]\n      : @1356 (gas: 20)\n 29098: a4 = u64 [s1 + 0x118]\n 29102: a2 = a4 <u 0x80\n 29106: a3 = u64 [s1 + 0xd0]\n 29110: a1 = a3 if a2 != 0\n 29113: a5 = u64 [s1 + 0xd8]\n 29117: a3 = u64 [s1 + 0xe8]\n 29121: a3 = a3 | a5\n 29124: a3 = a0 if a2 == 0\n 29127: a1 = 0xffffffffffffffff if a4 == 0\n 29130: a3 = 0xffffffffffffffff if a4 == 0\n 29133: a4 = u64 [s1 + 0xe0]\n 29137: a4 = 0 if a2 == 0\n 29139: a5 = 0 if a2 == 0\n 29141: a0 = u64 [s1 + 0xf0]\n 29145: a0 = a0 & ~a3\n 29148: a2 = u64 [s1 + 0xf8]\n 29152: a2 = a2 & ~a1\n 29155: a1 = u64 [s1 + 0x100]\n 29159: a3 = a1 & ~a5\n 29162: jump [t0]\n      : @1357 (gas: 7)\n 29164: u64 [s1 + 536] = 0\n 29168: u64 [s1 + 528] = 0\n 29172: u64 [s1 + 512] = 0x6\n 29177: a0 = 0x20\n 29180: a1 = s1 + 0x200\n 29184: u64 [s1 + 520] = 0\n 29188: jump [t0]\n      : @1358 (gas: 7)\n 29190: u64 [s1 + 376] = 0\n 29194: u64 [s1 + 368] = 0\n 29198: u64 [s1 + 352] = 0x6\n 29203: a0 = 0x20\n 29206: a1 = s1 + 0x160\n 29210: u64 [s1 + 360] = 0\n 29214: jump [t0]\n      : @1359 (gas: 11)\n 29216: u64 [a2] = a1\n 29218: u64 [a2 + 0x8] = a0\n 29221: u64 [a2 + 0x10] = a0\n 29224: u64 [a2 + 0x18] = a0\n 29227: sp = s0 + 0xfffffffffffffda0\n 29231: a0 = sp + 0x200\n 29235: ra = u64 [a0 + 0x58]\n 29238: s0 = u64 [a0 + 0x50]\n 29241: s1 = u64 [a0 + 0x48]\n 29244: sp = sp + 0x260\n 29248: jump [t0]\n      : @1360 (gas: 14)\n 29250: a0 = u64 [a3 + 0x18]\n 29253: a1 = u64 [a3 + 0x10]\n 29256: a2 = u64 [a3 + 0x8]\n 29259: a3 = u64 [a3]\n 29261: a0 = reverse a0\n 29263: a4 = reverse a1\n 29265: a2 = reverse a2\n 29267: a3 = reverse a3\n 29269: a1 = u64 [s1 + 0x28]\n 29272: u64 [a1 + 0x18] = a3\n 29275: u64 [a1 + 0x10] = a2\n 29278: u64 [a1 + 0x8] = a4\n 29281: u64 [a1] = a0\n 29283: jump [t0]\n      : @1361 (gas: 5)\n 29285: sp = a0\n 29287: i32 a2 = a0 + 0\n 29289: a1 = 0x40\n 29292: a0 = u64 [s1 + 0x60]\n 29295: jump [t0]\n      : @1362 (gas: 21)\n 29297: a2 = u64 [s1 + 0x68]\n 29300: a0 = u64 [a2 + 0x8]\n 29303: a1 = i32 [a2 + 0x10]\n 29306: a2 = u64 [a2]\n 29308: a0 = reverse a0\n 29310: a3 = a0 << 0x20\n 29313: a1 = reverse a1\n 29315: a1 = a1 >> 0x20\n 29318: a3 = a3 | a1\n 29321: a0 = a0 >> 0x20\n 29324: a1 = reverse a2\n 29326: a2 = a1 << 0x20\n 29329: a0 = a0 | a2\n 29332: a1 = a1 >> 0x20\n 29335: u64 [s1 + 312] = 0\n 29339: u64 [s1 + 0x130] = a1\n 29343: u64 [s1 + 0x128] = a0\n 29347: a1 = s1 + 0x120\n 29351: u64 [s1 + 0x120] = a3\n 29355: a0 = 0\n 29357: jump [t0]\n      : @1363 (gas: 16)\n 29359: a5 = u64 [s1 + 0x110]\n 29363: a4 = a1 ^ a5\n 29366: a1 = a1 <u a5\n 29369: a1 = a3 if a4 == 0\n 29372: a2 = u64 [s1 + 0x108]\n 29376: a3 = t1 <u a2\n 29379: a5 = u64 [s1 + 0x100]\n 29383: a4 = t2 ^ a5\n 29386: a5 = t2 <u a5\n 29389: a5 = a3 if a4 == 0\n 29392: u64 [a0 + 0x10] = t1\n 29395: a2 = t1 ^ a2\n 29398: a2 = a2 | a4\n 29401: a5 = a1 if a2 == 0\n 29404: u64 [a0 + 0x18] = t2\n 29407: jump [t0]\n      : @1364 (gas: 8)\n 29409: a4 = a4 | a2\n 29412: a2 = a0 | a1\n 29415: a2 = a2 | a4\n 29418: a2 = a2 >> 0x20\n 29421: a1 = a1 | a4\n 29424: a1 = a1 << 0x20\n 29427: a1 = a1 | a2\n 29430: jump [t0]\n      : @1365 (gas: 8)\n 29432: a3 = a3 | a2\n 29435: a2 = a0 | a1\n 29438: a2 = a2 | a3\n 29441: a2 = a2 >> 0x20\n 29444: a1 = a1 | a3\n 29447: a1 = a1 << 0x20\n 29450: a1 = a1 | a2\n 29453: jump [t0]\n      : @1366 (gas: 21)\n 29455: a2 = u64 [s1 + 0x68]\n 29458: a0 = u64 [a2 + 0x8]\n 29461: a1 = i32 [a2 + 0x10]\n 29464: a2 = u64 [a2]\n 29466: a0 = reverse a0\n 29468: a3 = a0 << 0x20\n 29471: a1 = reverse a1\n 29473: a1 = a1 >> 0x20\n 29476: a3 = a3 | a1\n 29479: a0 = a0 >> 0x20\n 29482: a1 = reverse a2\n 29484: a2 = a1 << 0x20\n 29487: a0 = a0 | a2\n 29490: a1 = a1 >> 0x20\n 29493: u64 [s1 + 184] = 0\n 29497: u64 [s1 + 0xb0] = a1\n 29501: u64 [s1 + 0xa8] = a0\n 29505: a0 = 0x4\n 29508: a1 = s1 + 0xa0\n 29512: u64 [s1 + 0xa0] = a3\n 29516: jump [t0]\n      : @1367 (gas: 19)\n 29518: a0 = u64 [a3 + 0x18]\n 29521: a1 = u64 [a3 + 0x10]\n 29524: a2 = u64 [a3 + 0x8]\n 29527: a3 = u64 [a3]\n 29529: a4 = reverse a0\n 29531: a1 = reverse a1\n 29533: a2 = reverse a2\n 29535: a3 = reverse a3\n 29537: a0 = sp + 0xffffffffffffffe0\n 29540: a0 = a0 & 0xffffffffffffffe0\n 29543: sp = a0\n 29545: u64 [a0 + 0x18] = a3\n 29548: u64 [a0 + 0x10] = a2\n 29551: u64 [a0 + 0x8] = a1\n 29554: u64 [a0] = a4\n 29556: a1 = sp + 0xffffffffffffffe0\n 29559: a1 = a1 & 0xffffffffffffffe0\n 29562: sp = a1\n 29564: jump [t0]\n      : @1368 (gas: 12)\n 29566: a0 = u64 [s1 + 0x30]\n 29569: a3 = s1 + 0x100\n 29573: u64 [a3 + 0x38] = a0\n 29576: a0 = u64 [s1 + 0x38]\n 29579: u64 [a3 + 0x30] = a0\n 29582: a0 = u64 [s1 + 0x40]\n 29585: u64 [a3 + 0x28] = a0\n 29588: a0 = 0x20\n 29591: a1 = s1 + 0x120\n 29595: a2 = u64 [s1 + 0x48]\n 29598: u64 [a3 + 0x20] = a2\n 29601: jump [t0]\n      : @1369 (gas: 15)\n 29603: ra = u64 [s1 + 0xa0]\n 29607: t2 = u64 [s1 + 0xa8]\n 29611: t1 = u64 [s1 + 0xb0]\n 29615: a1 = u64 [s1 + 0x78]\n 29618: a0 = a1 + ra\n 29621: a1 = a0 <u a1\n 29624: a4 = u64 [s1 + 0x70]\n 29627: a2 = a4 + t2\n 29630: a2 = a2 + a1\n 29633: a5 = a2 ^ a4\n 29636: a4 = a2 <u a4\n 29639: a4 = a1 if a5 == 0\n 29642: a5 = u64 [s1 + 0x68]\n 29645: a1 = a5 + t1\n 29648: jump [t0]\n      : @1370 (gas: 12)\n 29650: a0 = u64 [s1 + 0x28]\n 29653: a3 = s1 + 0x100\n 29657: u64 [a3 + 0xd8] = a0\n 29661: a0 = u64 [s1 + 0x30]\n 29664: u64 [a3 + 0xd0] = a0\n 29668: a0 = u64 [s1 + 0x38]\n 29671: u64 [a3 + 0xc8] = a0\n 29675: a0 = 0x20\n 29678: a1 = s1 + 0x1c0\n 29682: a2 = u64 [s1 + 0x40]\n 29685: u64 [a3 + 0xc0] = a2\n 29689: jump [t0]\n      : @1371 (gas: 11)\n 29691: a4 = a2 + a1\n 29694: a1 = a4 <u a2\n 29697: a3 = a3 + a1\n 29700: a1 = sp + 0xffffffffffffffe0\n 29703: a1 = a1 & 0xffffffffffffffe0\n 29706: sp = a1\n 29708: u64 [a1 + 0x10] = a4\n 29711: u64 [a1 + 0x8] = a5\n 29714: u64 [a1] = a0\n 29716: u64 [a1 + 0x18] = a3\n 29719: jump [t0]\n      : @1372 (gas: 18)\n 29721: a3 = u64 [s1 + 0x68]\n 29724: a0 = u64 [a3 + 0x18]\n 29727: a1 = u64 [a3 + 0x10]\n 29730: a2 = u64 [a3 + 0x8]\n 29733: a3 = u64 [a3]\n 29735: a0 = reverse a0\n 29737: u64 [s1 + 0x58] = a0\n 29740: a0 = reverse a1\n 29742: u64 [s1 + 0x50] = a0\n 29745: a0 = reverse a2\n 29747: u64 [s1 + 0x48] = a0\n 29750: a0 = reverse a3\n 29752: u64 [s1 + 0x40] = a0\n 29755: a0 = sp + 0xffffffffffffffe0\n 29758: a0 = a0 & 0xffffffffffffffe0\n 29761: u64 [s1 + 0x60] = a0\n 29764: sp = a0\n 29766: jump [t0]\n      : @1373 (gas: 7)\n 29768: u64 [s1 + 344] = 0\n 29772: u64 [s1 + 336] = 0\n 29776: u64 [s1 + 320] = 0x6\n 29781: a0 = 0x20\n 29784: a1 = s1 + 0x140\n 29788: u64 [s1 + 328] = 0\n 29792: jump [t0]\n      : @1374 (gas: 17)\n 29794: a0 = u64 [a3 + 0x18]\n 29797: a1 = u64 [a3 + 0x10]\n 29800: a2 = u64 [a3 + 0x8]\n 29803: a3 = u64 [a3]\n 29805: a0 = reverse a0\n 29807: u64 [s1 + 0x60] = a0\n 29810: a0 = reverse a1\n 29812: u64 [s1 + 0x58] = a0\n 29815: a0 = reverse a2\n 29817: u64 [s1 + 0x50] = a0\n 29820: a0 = reverse a3\n 29822: u64 [s1 + 0x48] = a0\n 29825: a0 = sp + 0xffffffffffffffe0\n 29828: a0 = a0 & 0xffffffffffffffe0\n 29831: u64 [s1 + 0x68] = a0\n 29834: sp = a0\n 29836: jump [t0]\n      : @1375 (gas: 16)\n 29838: a3 = u64 [s1 + 0x58]\n 29841: a0 = u64 [a3 + 0x18]\n 29844: a1 = u64 [a3 + 0x10]\n 29847: a2 = u64 [a3 + 0x8]\n 29850: a3 = u64 [a3]\n 29852: a0 = reverse a0\n 29854: a4 = reverse a1\n 29856: a2 = reverse a2\n 29858: a3 = reverse a3\n 29860: a1 = u64 [s1 + 0x60]\n 29863: u64 [a1 + 0x18] = a3\n 29866: u64 [a1 + 0x10] = a2\n 29869: u64 [a1 + 0x8] = a4\n 29872: u64 [a1] = a0\n 29874: a0 = s1 + 0xe0\n 29878: jump [t0]\n      : @1376 (gas: 17)\n 29880: a0 = u64 [a5]\n 29882: a1 = u64 [a5 + 0x8]\n 29885: a2 = u64 [a5 + 0x10]\n 29888: a0 = a0 + 0x1\n 29891: a3 = a0 <u 0x1\n 29894: a1 = a1 + a3\n 29897: a3 = u64 [a5 + 0x18]\n 29900: a4 = a0 | a1\n 29903: a4 = a4 <u 0x1\n 29906: a4 = a4 + a2\n 29909: a2 = a4 <u a2\n 29912: a2 = a2 + a3\n 29915: u64 [a5] = a0\n 29917: u64 [a5 + 0x8] = a1\n 29920: u64 [a5 + 0x10] = a4\n 29923: u64 [a5 + 0x18] = a2\n 29926: jump [t0]\n      : @1377 (gas: 15)\n 29928: a2 = u64 [s1 + 0x78]\n 29931: a0 = u64 [a2 + 0x8]\n 29934: a1 = i32 [a2 + 0x10]\n 29937: a2 = u64 [a2]\n 29939: a0 = reverse a0\n 29941: a3 = a0 << 0x20\n 29944: a1 = reverse a1\n 29946: a1 = a1 >> 0x20\n 29949: a1 = a1 | a3\n 29952: a0 = a0 >> 0x20\n 29955: a2 = reverse a2\n 29957: a3 = a2 << 0x20\n 29960: a0 = a0 | a3\n 29963: a2 = a2 >> 0x20\n 29966: jump [t0]\n      : @1378 (gas: 13)\n 29968: a4 = a0 << 0x3f\n 29971: a5 = a1 >> 0x1\n 29974: t1 = a5 | a4\n 29977: a5 = a3 << 0x3f\n 29980: a0 = a0 >> 0x1\n 29983: a0 = a0 | a5\n 29986: a1 = a1 << 0x3f\n 29989: a5 = a2 >> 0x1\n 29992: a1 = a1 | a5\n 29995: a3 = a3 >> 0x1\n 29998: a2 = a2 & 0x1\n 30001: a5 = -a2\n 30003: jump [t0]\n      : @1379 (gas: 12)\n 30005: a4 = 0 if a2 == 0\n 30007: a5 = 0 if a2 == 0\n 30009: a1 = u64 [s1 + 0xf8]\n 30013: a1 = a1 & ~a3\n 30016: a3 = s1 + 0x100\n 30020: a2 = u64 [a3]\n 30022: a0 = a2 & ~a0\n 30025: a2 = u64 [a3 + 0x8]\n 30028: a5 = a2 & ~a5\n 30031: a2 = u64 [a3 + 0x10]\n 30034: a4 = a2 & ~a4\n 30037: jump [t0]\n      : @1380 (gas: 15)\n 30039: a0 = sp + 0xffffffffffffffe0\n 30042: a0 = a0 & 0xffffffffffffffe0\n 30045: sp = a0\n 30047: u64 [a0 + 24] = 0\n 30050: u64 [a0 + 16] = 0\n 30053: u64 [a0 + 8] = 0\n 30056: u64 [a0 + 0] = 0x5\n 30059: a1 = sp + 0xffffffffffffffe0\n 30062: a1 = a1 & 0xffffffffffffffe0\n 30065: sp = a1\n 30067: u64 [a1 + 0x18] = a4\n 30070: u64 [a1 + 0x10] = a3\n 30073: u64 [a1 + 0x8] = a2\n 30076: u64 [a1] = a5\n 30078: jump [t0]\n      : @1381 (gas: 14)\n 30080: a0 = u64 [a3 + 0x18]\n 30083: a1 = u64 [a3 + 0x10]\n 30086: a2 = u64 [a3 + 0x8]\n 30089: a3 = u64 [a3]\n 30091: a0 = reverse a0\n 30093: a4 = reverse a1\n 30095: a2 = reverse a2\n 30097: a3 = reverse a3\n 30099: a1 = u64 [s1 + 0x68]\n 30102: u64 [a1 + 0x18] = a3\n 30105: u64 [a1 + 0x10] = a2\n 30108: u64 [a1 + 0x8] = a4\n 30111: u64 [a1] = a0\n 30113: jump [t0]\n      : @1382 (gas: 9)\n 30115: a1 = sp + 0xffffffffffffffe0\n 30118: a1 = a1 & 0xffffffffffffffe0\n 30121: sp = a1\n 30123: u64 [a1 + 24] = 0\n 30126: u64 [a1 + 16] = 0\n 30129: u64 [a1 + 8] = 0\n 30132: a0 = 0x2\n 30135: u64 [a1] = a0\n 30137: jump [t0]\n      : @1383 (gas: 8)\n 30139: a0 = a0 | a2\n 30142: a2 = a3 | a1\n 30145: a2 = a2 | a0\n 30148: a2 = a2 >> 0x20\n 30151: a0 = a0 | a1\n 30154: a0 = a0 << 0x20\n 30157: a0 = a0 | a2\n 30160: jump [t0]\n      : @1384 (gas: 8)\n 30162: u64 [s1 + 336] = 0\n 30166: u64 [s1 + 328] = 0\n 30170: u64 [s1 + 320] = 0\n 30174: a0 = 0x4e487b7100000000\n 30184: a1 = s1 + 0x140\n 30188: u64 [s1 + 0x158] = a0\n 30192: a0 = 0\n 30194: jump [t0]\n      : @1385 (gas: 13)\n 30196: a5 = a5 + a2\n 30199: a3 = a5 <u a2\n 30202: a2 = a2 <u t2\n 30205: a0 = t1 + a2\n 30208: a0 = a0 + a3\n 30211: a2 = a1 | a5\n 30214: a0 = a0 | a4\n 30217: a2 = a2 | a0\n 30220: a2 = a2 >> 0x20\n 30223: a0 = a0 | a5\n 30226: a0 = a0 << 0x20\n 30229: a0 = a0 | a2\n 30232: jump [t0]\n      : @1386 (gas: 11)\n 30234: a0 = u64 [s1 + 0x20]\n 30237: u64 [s1 + 0x198] = a0\n 30241: a0 = u64 [s1 + 0x18]\n 30244: u64 [s1 + 0x190] = a0\n 30248: a0 = u64 [s1 + 0x10]\n 30251: u64 [s1 + 0x188] = a0\n 30255: a1 = s1 + 0x180\n 30259: a0 = u64 [s1 + 0x8]\n 30262: u64 [s1 + 0x180] = a0\n 30266: a0 = 0\n 30268: jump [t0]\n      : @1387 (gas: 15)\n 30270: a2 = a2 | a0\n 30273: a3 = u64 [s1 + 0xe0]\n 30277: a3 = a3 | a1\n 30280: a0 = u64 [s1 + 0xe8]\n 30284: a4 = a4 | a0\n 30287: a0 = u64 [s1 + 0xf0]\n 30291: a5 = a5 | a0\n 30294: a0 = sp + 0xffffffffffffffe0\n 30297: a0 = a0 & 0xffffffffffffffe0\n 30300: sp = a0\n 30302: a1 = 0\n 30304: u64 [a0 + 24] = 0\n 30307: u64 [a0 + 16] = 0\n 30310: u64 [a0 + 8] = 0\n 30313: jump [t0]\n      : @1388 (gas: 8)\n 30315: u64 [s1 + 208] = 0\n 30319: u64 [s1 + 200] = 0\n 30323: u64 [s1 + 192] = 0\n 30327: a0 = 0xe2517d3f00000000\n 30337: a1 = s1 + 0xc0\n 30341: u64 [s1 + 0xd8] = a0\n 30345: a0 = 0\n 30347: jump [t0]\n      : @1389 (gas: 8)\n 30349: a2 = a4 >u 0\n 30351: a1 = a1 ^ 0x1\n 30354: a1 = a2 if a4 != 0\n 30357: a2 = t2 >u 0\n 30359: a3 = a5 >u 0\n 30361: a3 = a2 if a5 == 0\n 30364: a3 = a1 if a0 == 0\n 30367: jump [t0]\n      : @1390 (gas: 12)\n 30369: a0 = u64 [s1 + 0x40]\n 30372: a3 = s1 + 0x100\n 30376: u64 [a3 + 0x18] = a0\n 30379: a0 = u64 [s1 + 0x48]\n 30382: u64 [a3 + 0x10] = a0\n 30385: a0 = u64 [s1 + 0x50]\n 30388: u64 [a3 + 0x8] = a0\n 30391: a0 = 0x20\n 30394: a1 = s1 + 0x100\n 30398: a2 = u64 [s1 + 0x58]\n 30401: u64 [a3] = a2\n 30403: jump [t0]\n      : @1391 (gas: 10)\n 30405: a0 = u64 [s1 + 0x40]\n 30408: a1 = u64 [s1 + 0x38]\n 30411: a0 = a0 | a1\n 30414: a1 = 0xffffffe0\n 30424: a3 = u64 [s1 + 0x50]\n 30427: a1 = a3 <u a1\n 30430: a2 = u64 [s1 + 0x48]\n 30433: a1 = 0 if a2 != 0\n 30435: a1 = 0 if a0 != 0\n 30437: jump [t0]\n      : @1392 (gas: 10)\n 30439: a1 = u64 [s1 + 0xa0]\n 30443: a0 = u64 [a1]\n 30445: u64 [s1 + 0xb8] = a0\n 30449: a0 = u64 [a1 + 0x8]\n 30452: u64 [s1 + 0xb0] = a0\n 30456: a0 = u64 [a1 + 0x10]\n 30459: u64 [s1 + 0xa8] = a0\n 30463: a0 = u64 [a1 + 0x18]\n 30466: u64 [s1 + 0xa0] = a0\n 30470: jump [t0]\n      : @1393 (gas: 10)\n 30472: a0 = u64 [sp + 0x10]\n 30475: a1 = u64 [sp + 0x18]\n 30478: a2 = 0x100000000\n 30488: a2 = a2 ^ a0\n 30491: a2 = a2 | a1\n 30494: a3 = a0 >> 0x20\n 30497: a3 = a3 <u 0x1\n 30500: a3 = 0 if a1 != 0\n 30502: a3 = 0 if a2 == 0\n 30504: jump [t0]\n      : @1394 (gas: 10)\n 30506: a1 = u64 [s1 + 0x80]\n 30510: a0 = u64 [a1]\n 30512: u64 [s1 + 0x98] = a0\n 30516: a0 = u64 [a1 + 0x8]\n 30519: u64 [s1 + 0x90] = a0\n 30523: a0 = u64 [a1 + 0x10]\n 30526: u64 [s1 + 0x88] = a0\n 30530: a0 = u64 [a1 + 0x18]\n 30533: u64 [s1 + 0x80] = a0\n 30537: jump [t0]\n      : @1395 (gas: 7)\n 30539: u64 [s1 + 312] = 0\n 30543: u64 [s1 + 304] = 0\n 30547: u64 [s1 + 288] = 0x41\n 30552: a0 = 0x4\n 30555: a1 = s1 + 0x120\n 30559: u64 [s1 + 296] = 0\n 30563: jump [t0]\n      : @1396 (gas: 7)\n 30565: a0 = sp + 0xffffffffffffffe0\n 30568: a0 = a0 & 0xffffffffffffffe0\n 30571: u64 [s1 + 0xa0] = a0\n 30575: sp = a0\n 30577: i32 a0 = a0 + 0\n 30579: a1 = 0x4\n 30582: jump [t0]\n      : @1397 (gas: 6)\n 30584: a0 = u64 [a3 + 0x18]\n 30587: a1 = u64 [a3 + 0x10]\n 30590: a2 = u64 [a3 + 0x8]\n 30593: a3 = u64 [a3]\n 30595: a0 = reverse a0\n 30597: jump [t0]\n      : @1398 (gas: 9)\n 30599: a1 = sp + 0xffffffffffffffe0\n 30602: a1 = a1 & 0xffffffffffffffe0\n 30605: sp = a1\n 30607: u64 [a1 + 24] = 0\n 30610: u64 [a1 + 16] = 0\n 30613: u64 [a1 + 8] = 0\n 30616: u64 [a1 + 0] = 0x5\n 30619: a0 = s1 + 0x7ff\n 30623: jump [t0]\n      : @1399 (gas: 13)\n 30625: a0 = u64 [s1 + 0xb0]\n 30629: a1 = u64 [s1 + 0xa0]\n 30633: a0 = a0 | a1\n 30636: a1 = u64 [s1 + 0xb8]\n 30640: a4 = a1\n 30642: a2 = u64 [s1 + 0xa8]\n 30646: a1 = a1 | a2\n 30649: a1 = a1 | a0\n 30652: a1 = a1 >> 0x20\n 30655: a0 = a0 | a2\n 30658: a0 = a0 << 0x20\n 30661: a0 = a0 | a1\n 30664: jump [t0]\n      : @1400 (gas: 12)\n 30666: a0 = u64 [a5 + 0xa0]\n 30670: a1 = u64 [a5 + 0x98]\n 30674: a2 = u64 [a5 + 0x90]\n 30678: a4 = u64 [a5 + 0x88]\n 30682: a0 = a0 | a2\n 30685: a2 = a4 | a1\n 30688: a2 = a2 | a0\n 30691: a2 = a2 >> 0x20\n 30694: a0 = a0 | a1\n 30697: a0 = a0 << 0x20\n 30700: a0 = a0 | a2\n 30703: jump [t0]\n      : @1401 (gas: 11)\n 30705: a4 = a4 + a1\n 30708: a1 = a4 <u a1\n 30711: a1 = a1 + a5\n 30714: a1 = a1 | a2\n 30717: a2 = a0 | a4\n 30720: a2 = a2 | a1\n 30723: a1 = a1 | a4\n 30726: a2 = a2 >> 0x20\n 30729: a1 = a1 << 0x20\n 30732: a1 = a1 | a2\n 30735: jump [t0]\n      : @1402 (gas: 5)\n 30737: sp = a0\n 30739: i32 a2 = a0 + 0\n 30741: a1 = 0x40\n 30744: a0 = u64 [s1 + 0xb8]\n 30748: jump [t0]\n      : @1403 (gas: 7)\n 30750: u64 [s1 + 632] = 0\n 30754: u64 [s1 + 624] = 0\n 30758: u64 [s1 + 616] = 0\n 30762: a0 = 0x20\n 30765: a1 = s1 + 0x260\n 30769: u64 [s1 + 608] = 0\n 30773: jump [t0]\n      : @1404 (gas: 9)\n 30775: u64 [s1 + 0x18] = a1\n 30778: u64 [s1 + 0x230] = a1\n 30782: u64 [s1 + 0x10] = a2\n 30785: u64 [s1 + 0x228] = a2\n 30789: a1 = s1 + 0x220\n 30793: u64 [s1 + 0x8] = a0\n 30796: u64 [s1 + 0x220] = a0\n 30800: a0 = 0\n 30802: jump [t0]\n      : @1405 (gas: 12)\n 30804: a2 = u64 [sp]\n 30806: a3 = u64 [sp + 0x8]\n 30809: u64 [s1] = a2\n 30811: u64 [s1 + 0x8] = a3\n 30814: u64 [s1 + 0x10] = a0\n 30817: u64 [s1 + 0x18] = a1\n 30820: sp = s0 + 0xffffffffffffffc0\n 30823: ra = u64 [sp + 0x38]\n 30826: s0 = u64 [sp + 0x30]\n 30829: s1 = u64 [sp + 0x28]\n 30832: sp = sp + 0x40\n 30835: jump [t0]\n      : @1406 (gas: 10)\n 30837: u64 [s1 + 0xd8] = a0\n 30841: u64 [s1 + 0xe0] = a1\n 30845: a0 = u64 [s1 + 0xd0]\n 30849: a0 = a0 | a1\n 30852: u64 [s1 + 0xd0] = a0\n 30856: a0 = u64 [s1 + 0x118]\n 30860: a2 = a0 + 0xffffffffffffff80\n 30863: a0 = 0xffffffffffffffff\n 30866: a1 = 0xffffffffffffffff\n 30869: jump [t0]\n      : @1407 (gas: 7)\n 30871: a0 = a0 << 0x3b\n 30874: a1 = a0 >> 0x38\n 30877: u64 [s1 + 0x118] = a1\n 30881: a2 = 0x80 - a1\n 30885: a0 = 0xffffffffffffffff\n 30888: a1 = 0xffffffffffffffff\n 30891: jump [t0]\n      : @1408 (gas: 10)\n 30893: a0 = t2 + a2\n 30896: a0 = a0 + a4\n 30899: a2 = a1 | a5\n 30902: a0 = a0 | a3\n 30905: a2 = a2 | a0\n 30908: a2 = a2 >> 0x20\n 30911: a0 = a0 | a5\n 30914: a0 = a0 << 0x20\n 30917: a0 = a0 | a2\n 30920: jump [t0]\n      : @1409 (gas: 9)\n 30922: a1 = sp + 0xffffffffffffffe0\n 30925: a1 = a1 & 0xffffffffffffffe0\n 30928: sp = a1\n 30930: u64 [a1 + 0x18] = a4\n 30933: u64 [a1 + 0x10] = a3\n 30936: u64 [a1 + 0x8] = a2\n 30939: u64 [a1] = a0\n 30941: a0 = u64 [s1 + 0x108]\n 30945: jump [t0]\n      : @1410 (gas: 9)\n 30947: a1 = sp + 0xffffffffffffffe0\n 30950: a1 = a1 & 0xffffffffffffffe0\n 30953: sp = a1\n 30955: u64 [a1 + 0x18] = a4\n 30958: u64 [a1 + 0x10] = a3\n 30961: u64 [a1 + 0x8] = a2\n 30964: u64 [a1] = a0\n 30966: a0 = u64 [s1 + 0x110]\n 30970: jump [t0]\n      : @1411 (gas: 9)\n 30972: a1 = sp + 0xffffffffffffffe0\n 30975: a1 = a1 & 0xffffffffffffffe0\n 30978: sp = a1\n 30980: u64 [a1 + 24] = 0\n 30983: u64 [a1 + 16] = 0\n 30986: u64 [a1 + 8] = 0\n 30989: a0 = 0x4\n 30992: u64 [a1] = a0\n 30994: jump [t0]\n      : @1412 (gas: 9)\n 30996: a1 = sp + 0xffffffffffffffe0\n 30999: a1 = a1 & 0xffffffffffffffe0\n 31002: sp = a1\n 31004: u64 [a1 + 24] = 0\n 31007: u64 [a1 + 16] = 0\n 31010: u64 [a1 + 8] = 0\n 31013: a0 = 0x3\n 31016: u64 [a1] = a0\n 31018: jump [t0]\n      : @1413 (gas: 7)\n 31020: a1 = sp + 0xffffffffffffffe0\n 31023: a1 = a1 & 0xffffffffffffffe0\n 31026: sp = a1\n 31028: u64 [a1 + 24] = 0\n 31031: u64 [a1 + 16] = 0\n 31034: u64 [a1 + 8] = 0\n 31037: jump [t0]\n      : @1414 (gas: 6)\n 31039: a1 = a3 << 0x3\n 31042: u64 [s1 + 0x118] = a1\n 31046: i32 a2 = 0x80 - a1\n 31050: a0 = 0xffffffffffffffff\n 31053: a1 = 0xffffffffffffffff\n 31056: jump [t0]\n      : @1415 (gas: 5)\n 31058: sp = a0\n 31060: i32 a2 = a0 + 0\n 31062: a1 = 0x40\n 31065: a0 = u64 [s1 + 0x40]\n 31068: jump [t0]\n      : @1416 (gas: 6)\n 31070: i32 a0 = a0 + 0\n 31072: i32 a2 = a2 + 0\n 31074: u64 [s1 + 0x68] = a1\n 31077: a1 = 0x40\n 31080: u64 [s1 + 0x60] = a0\n 31083: jump [t0]\n      : @1417 (gas: 9)\n 31085: a0 = sp + 0xffffffffffffffe0\n 31088: a0 = a0 & 0xffffffffffffffe0\n 31091: sp = a0\n 31093: u64 [a0 + 24] = 0\n 31096: u64 [a0 + 16] = 0\n 31099: u64 [a0 + 8] = 0\n 31102: a2 = 0x2\n 31105: u64 [a0] = a2\n 31107: jump [t0]\n      : @1418 (gas: 8)\n 31109: a0 = sp + 0xffffffffffffffe0\n 31112: a0 = a0 & 0xffffffffffffffe0\n 31115: u64 [s1 + 0x58] = a0\n 31118: sp = a0\n 31120: i32 a2 = a0 + 0\n 31122: a1 = 0x40\n 31125: a0 = u64 [s1 + 0x70]\n 31128: jump [t0]\n      : @1419 (gas: 5)\n 31130: a0 = sp + 0xffffffffffffffe0\n 31133: a2 = a0 & 0xffffffffffffffe0\n 31136: u64 [s1 + 0x100] = a2\n 31140: sp = a2\n 31142: jump [t0]\n      : @1420 (gas: 9)\n 31144: sp = sp + 0xffffffffffffffc0\n 31147: u64 [sp + 0x38] = ra\n 31150: u64 [sp + 0x30] = s0\n 31153: u64 [sp + 0x28] = s1\n 31156: s0 = sp + 0x40\n 31159: sp = sp & 0xffffffffffffffe0\n 31162: s1 = a0\n 31164: i32 a0 = sp + 0\n 31166: jump [t0]\n      : @1421 (gas: 10)\n 31168: sp = sp & 0xffffffffffffffe0\n 31171: s1 = sp\n 31173: a2 = u64 [a1 + 0x10]\n 31176: u64 [s1 + 0x50] = a2\n 31179: a2 = u64 [a1 + 0x8]\n 31182: u64 [s1 + 0x70] = a2\n 31185: a1 = u64 [a1]\n 31187: u64 [s1 + 0x78] = a1\n 31190: u64 [s1 + 0x58] = a0\n 31193: jump [t0]\n      : @1422 (gas: 2)\n 31195: a1 = i32 [0x20270]\n 31200: jump @243 if a1 == 0\n      : @1423 (gas: 4)\n 31204: a0 = 0x302a0\n 31209: i32 a0 = a0 + 0\n 31211: ecalli 8 // 'set_immutable_data'\n 31213: jump @243\n      : @1424 (gas: 8)\n 31216: sp = sp + 0xfffffffffffffff0\n 31219: u64 [sp + 0x8] = ra\n 31222: u64 [sp] = s0\n 31224: a2 = a1\n 31226: s0 = a0\n 31228: a1 = 0x20\n 31231: a0 = a2\n 31233: ra = 1512, jump @1436\n      : @1425 [@dyn 756] (gas: 100)\n 31239: a1 = u8 [a0 + 0x1]\n 31242: a2 = u8 [a0]\n 31244: a3 = u8 [a0 + 0x2]\n 31247: a4 = u8 [a0 + 0x3]\n 31250: a1 = a1 << 0x8\n 31253: a1 = a1 | a2\n 31256: a3 = a3 << 0x10\n 31259: a4 = a4 << 0x18\n 31262: a3 = a3 | a4\n 31265: a1 = a1 | a3\n 31268: a2 = u8 [a0 + 0x5]\n 31271: a3 = u8 [a0 + 0x4]\n 31274: a4 = u8 [a0 + 0x6]\n 31277: a5 = u8 [a0 + 0x7]\n 31280: a2 = a2 << 0x8\n 31283: a2 = a2 | a3\n 31286: a4 = a4 << 0x10\n 31289: a5 = a5 << 0x18\n 31292: a4 = a4 | a5\n 31295: a2 = a2 | a4\n 31298: a2 = a2 << 0x20\n 31301: t0 = a2 | a1\n 31304: a2 = u8 [a0 + 0x9]\n 31307: a3 = u8 [a0 + 0x8]\n 31310: a4 = u8 [a0 + 0xa]\n 31313: a5 = u8 [a0 + 0xb]\n 31316: a2 = a2 << 0x8\n 31319: a2 = a2 | a3\n 31322: a4 = a4 << 0x10\n 31325: a5 = a5 << 0x18\n 31328: a4 = a4 | a5\n 31331: a2 = a2 | a4\n 31334: a3 = u8 [a0 + 0xd]\n 31337: a4 = u8 [a0 + 0xc]\n 31340: a5 = u8 [a0 + 0xe]\n 31343: a1 = u8 [a0 + 0xf]\n 31346: a3 = a3 << 0x8\n 31349: a3 = a3 | a4\n 31352: a5 = a5 << 0x10\n 31355: a1 = a1 << 0x18\n 31358: a1 = a1 | a5\n 31361: a1 = a1 | a3\n 31364: a1 = a1 << 0x20\n 31367: t1 = a1 | a2\n 31370: a1 = u8 [a0 + 0x11]\n 31373: a3 = u8 [a0 + 0x10]\n 31376: a4 = u8 [a0 + 0x12]\n 31379: a5 = u8 [a0 + 0x13]\n 31382: a1 = a1 << 0x8\n 31385: a1 = a1 | a3\n 31388: a4 = a4 << 0x10\n 31391: a5 = a5 << 0x18\n 31394: a4 = a4 | a5\n 31397: a1 = a1 | a4\n 31400: a3 = u8 [a0 + 0x15]\n 31403: a4 = u8 [a0 + 0x14]\n 31406: a5 = u8 [a0 + 0x16]\n 31409: a2 = u8 [a0 + 0x17]\n 31412: a3 = a3 << 0x8\n 31415: a3 = a3 | a4\n 31418: a5 = a5 << 0x10\n 31421: a2 = a2 << 0x18\n 31424: a2 = a2 | a5\n 31427: a2 = a2 | a3\n 31430: a2 = a2 << 0x20\n 31433: a3 = a2 | a1\n 31436: a1 = u8 [a0 + 0x19]\n 31439: a2 = u8 [a0 + 0x18]\n 31442: a4 = u8 [a0 + 0x1a]\n 31445: a5 = u8 [a0 + 0x1b]\n 31448: a1 = a1 << 0x8\n 31451: a1 = a1 | a2\n 31454: a4 = a4 << 0x10\n 31457: a5 = a5 << 0x18\n 31460: a4 = a4 | a5\n 31463: a1 = a1 | a4\n 31466: a2 = u8 [a0 + 0x1d]\n 31469: a4 = u8 [a0 + 0x1c]\n 31472: a5 = u8 [a0 + 0x1e]\n 31475: a0 = u8 [a0 + 0x1f]\n 31478: a2 = a2 << 0x8\n 31481: a2 = a2 | a4\n 31484: a5 = a5 << 0x10\n 31487: a0 = a0 << 0x18\n 31490: a0 = a0 | a5\n 31493: a0 = a0 | a2\n 31496: a0 = a0 << 0x20\n 31499: a0 = a0 | a1\n 31502: a0 = reverse a0\n 31504: a1 = reverse a3\n 31506: a2 = reverse t1\n 31508: a3 = reverse t0\n 31510: u64 [s0 + 0x18] = a3\n 31513: u64 [s0 + 0x10] = a2\n 31516: u64 [s0 + 0x8] = a1\n 31519: u64 [s0] = a0\n 31521: ra = u64 [sp + 0x8]\n 31524: s0 = u64 [sp]\n 31526: sp = sp + 0x10\n 31529: ret\n      : @1426 (gas: 12)\n 31531: sp = sp + 0xffffffffffffffd8\n 31534: u64 [sp + 0x20] = ra\n 31537: u64 [sp + 0x18] = s0\n 31540: u64 [sp + 0x10] = s1\n 31543: a2 = u64 [a1]\n 31545: u64 [sp + 0x8] = a2\n 31548: a2 = u64 [a1 + 0x8]\n 31551: u64 [sp] = a2\n 31553: s0 = u64 [a1 + 0x10]\n 31556: s1 = u64 [a1 + 0x18]\n 31559: a1 = 0x20\n 31562: ra = 1514, jump @1436\n      : @1427 [@dyn 757] (gas: 71)\n 31568: a1 = reverse s1\n 31570: a2 = reverse s0\n 31572: a3 = u64 [sp]\n 31574: a3 = reverse a3\n 31576: a4 = u64 [sp + 0x8]\n 31579: a4 = reverse a4\n 31581: u8 [a0 + 0x18] = a4\n 31584: u8 [a0 + 0x10] = a3\n 31587: u8 [a0 + 0x8] = a2\n 31590: u8 [a0] = a1\n 31592: a5 = a4 >> 0x38\n 31595: u8 [a0 + 0x1f] = a5\n 31598: a5 = a4 >> 0x30\n 31601: u8 [a0 + 0x1e] = a5\n 31604: a5 = a4 >> 0x28\n 31607: u8 [a0 + 0x1d] = a5\n 31610: a5 = a4 >> 0x20\n 31613: u8 [a0 + 0x1c] = a5\n 31616: a5 = a4 >> 0x18\n 31619: u8 [a0 + 0x1b] = a5\n 31622: a5 = a4 >> 0x10\n 31625: u8 [a0 + 0x1a] = a5\n 31628: a4 = a4 >> 0x8\n 31631: u8 [a0 + 0x19] = a4\n 31634: a4 = a3 >> 0x38\n 31637: u8 [a0 + 0x17] = a4\n 31640: a4 = a3 >> 0x30\n 31643: u8 [a0 + 0x16] = a4\n 31646: a4 = a3 >> 0x28\n 31649: u8 [a0 + 0x15] = a4\n 31652: a4 = a3 >> 0x20\n 31655: u8 [a0 + 0x14] = a4\n 31658: a4 = a3 >> 0x18\n 31661: u8 [a0 + 0x13] = a4\n 31664: a4 = a3 >> 0x10\n 31667: u8 [a0 + 0x12] = a4\n 31670: a3 = a3 >> 0x8\n 31673: u8 [a0 + 0x11] = a3\n 31676: a3 = a2 >> 0x38\n 31679: u8 [a0 + 0xf] = a3\n 31682: a3 = a2 >> 0x30\n 31685: u8 [a0 + 0xe] = a3\n 31688: a3 = a2 >> 0x28\n 31691: u8 [a0 + 0xd] = a3\n 31694: a3 = a2 >> 0x20\n 31697: u8 [a0 + 0xc] = a3\n 31700: a3 = a2 >> 0x18\n 31703: u8 [a0 + 0xb] = a3\n 31706: a3 = a2 >> 0x10\n 31709: u8 [a0 + 0xa] = a3\n 31712: a2 = a2 >> 0x8\n 31715: u8 [a0 + 0x9] = a2\n 31718: a2 = a1 >> 0x38\n 31721: u8 [a0 + 0x7] = a2\n 31724: a2 = a1 >> 0x30\n 31727: u8 [a0 + 0x6] = a2\n 31730: a2 = a1 >> 0x28\n 31733: u8 [a0 + 0x5] = a2\n 31736: a2 = a1 >> 0x20\n 31739: u8 [a0 + 0x4] = a2\n 31742: a2 = a1 >> 0x18\n 31745: u8 [a0 + 0x3] = a2\n 31748: a2 = a1 >> 0x10\n 31751: u8 [a0 + 0x2] = a2\n 31754: a1 = a1 >> 0x8\n 31757: u8 [a0 + 0x1] = a1\n 31760: ra = u64 [sp + 0x20]\n 31763: s0 = u64 [sp + 0x18]\n 31766: s1 = u64 [sp + 0x10]\n 31769: sp = sp + 0x28\n 31772: ret\n      : @1428 (gas: 41)\n 31774: sp = sp + 0xffffffffffffffa0\n 31777: u64 [sp + 0x58] = ra\n 31780: u64 [sp + 0x50] = s0\n 31783: u64 [sp + 0x48] = s1\n 31786: s0 = sp + 0x60\n 31789: sp = sp & 0xffffffffffffffe0\n 31792: s1 = a0\n 31794: a0 = u64 [a1 + 0x18]\n 31797: a2 = u64 [a1 + 0x10]\n 31800: a3 = u64 [a1 + 0x8]\n 31803: a1 = u64 [a1]\n 31805: a0 = reverse a0\n 31807: a2 = reverse a2\n 31809: a3 = reverse a3\n 31811: a1 = reverse a1\n 31813: u64 [sp + 0x38] = a1\n 31816: u64 [sp + 0x30] = a3\n 31819: u64 [sp + 0x28] = a2\n 31822: u64 [sp + 0x20] = a0\n 31825: i32 a1 = sp + 0x20\n 31828: i32 a2 = sp + 0\n 31830: a0 = 0\n 31832: ecalli 5 // 'get_storage_or_zero'\n 31834: a0 = u64 [sp + 0x18]\n 31837: a1 = u64 [sp + 0x10]\n 31840: a2 = u64 [sp + 0x8]\n 31843: a3 = u64 [sp]\n 31845: a0 = reverse a0\n 31847: a1 = reverse a1\n 31849: a2 = reverse a2\n 31851: a3 = reverse a3\n 31853: u64 [s1 + 0x18] = a3\n 31856: u64 [s1 + 0x10] = a2\n 31859: u64 [s1 + 0x8] = a1\n 31862: u64 [s1] = a0\n 31864: sp = s0 + 0xffffffffffffffa0\n 31867: ra = u64 [sp + 0x58]\n 31870: s0 = u64 [sp + 0x50]\n 31873: s1 = u64 [sp + 0x48]\n 31876: sp = sp + 0x60\n 31879: ret\n      : @1429 (gas: 38)\n 31881: sp = sp + 0xffffffffffffffa0\n 31884: u64 [sp + 0x58] = ra\n 31887: u64 [sp + 0x50] = s0\n 31890: s0 = sp + 0x60\n 31893: sp = sp & 0xffffffffffffffe0\n 31896: t0 = u64 [a0]\n 31898: a3 = u64 [a0 + 0x8]\n 31901: a4 = u64 [a0 + 0x10]\n 31904: a0 = u64 [a0 + 0x18]\n 31907: t1 = u64 [a1]\n 31909: a2 = u64 [a1 + 0x8]\n 31912: a5 = u64 [a1 + 0x10]\n 31915: a1 = u64 [a1 + 0x18]\n 31918: t2 = reverse a0\n 31920: a4 = reverse a4\n 31922: a3 = reverse a3\n 31924: a0 = reverse t0\n 31926: t0 = reverse a1\n 31928: a5 = reverse a5\n 31930: a2 = reverse a2\n 31932: a1 = reverse t1\n 31934: u64 [sp + 0x38] = a0\n 31937: u64 [sp + 0x30] = a3\n 31940: u64 [sp + 0x28] = a4\n 31943: u64 [sp + 0x20] = t2\n 31946: u64 [sp + 0x18] = a1\n 31949: u64 [sp + 0x10] = a2\n 31952: u64 [sp + 0x8] = a5\n 31955: u64 [sp] = t0\n 31957: i32 a1 = sp + 0x20\n 31960: i32 a2 = sp + 0\n 31962: a0 = 0\n 31964: ecalli 9 // 'set_storage_or_clear'\n 31966: sp = s0 + 0xffffffffffffffa0\n 31969: ra = u64 [sp + 0x58]\n 31972: s0 = u64 [sp + 0x50]\n 31975: sp = sp + 0x60\n 31978: ret\n      : @1430 (gas: 16)\n 31980: sp = sp + 0xffffffffffffffa0\n 31983: u64 [sp + 0x58] = ra\n 31986: u64 [sp + 0x50] = s0\n 31989: u64 [sp + 0x48] = s1\n 31992: s0 = sp + 0x60\n 31995: sp = sp & 0xffffffffffffffe0\n 31998: a3 = u64 [a2]\n 32000: u64 [sp + 0x18] = a3\n 32003: a3 = u64 [a2 + 0x8]\n 32006: u64 [sp + 0x10] = a3\n 32009: a3 = u64 [a2 + 0x10]\n 32012: u64 [sp + 0x8] = a3\n 32015: a2 = u64 [a2 + 0x18]\n 32018: u64 [sp] = a2\n 32020: s1 = 0x20\n 32023: ra = 1516, jump @1436\n      : @1431 [@dyn 758] (gas: 23)\n 32029: a1 = u64 [sp]\n 32031: a1 = reverse a1\n 32033: a2 = u64 [sp + 0x8]\n 32036: a2 = reverse a2\n 32038: a3 = u64 [sp + 0x10]\n 32041: a3 = reverse a3\n 32043: a4 = u64 [sp + 0x18]\n 32046: a4 = reverse a4\n 32048: u64 [sp + 0x38] = a4\n 32051: u64 [sp + 0x30] = a3\n 32054: u64 [sp + 0x28] = a2\n 32057: u64 [sp + 0x20] = a1\n 32060: i32 a2 = a0 + 0\n 32062: i32 a3 = s1 + 0\n 32064: i32 a0 = sp + 0x20\n 32067: a1 = 0x1\n 32070: ecalli 4 // 'deposit_event'\n 32072: sp = s0 + 0xffffffffffffffa0\n 32075: ra = u64 [sp + 0x58]\n 32078: s0 = u64 [sp + 0x50]\n 32081: s1 = u64 [sp + 0x48]\n 32084: sp = sp + 0x60\n 32087: ret\n      : @1432 (gas: 31)\n 32089: sp = sp + 0xffffffffffffff20\n 32093: u64 [sp + 0xd8] = ra\n 32097: u64 [sp + 0xd0] = s0\n 32101: u64 [sp + 0xc8] = s1\n 32105: s0 = sp + 0xe0\n 32109: sp = sp & 0xffffffffffffffe0\n 32112: a5 = u64 [a4]\n 32114: u64 [sp + 0x40] = a5\n 32117: a5 = u64 [a4 + 0x8]\n 32120: u64 [sp + 0x48] = a5\n 32123: a5 = u64 [a4 + 0x10]\n 32126: u64 [sp + 0x50] = a5\n 32129: a4 = u64 [a4 + 0x18]\n 32132: u64 [sp + 0x58] = a4\n 32135: a4 = u64 [a3]\n 32137: u64 [sp + 0x18] = a4\n 32140: a4 = u64 [a3 + 0x8]\n 32143: u64 [sp + 0x20] = a4\n 32146: a4 = u64 [a3 + 0x10]\n 32149: u64 [sp + 0x28] = a4\n 32152: a3 = u64 [a3 + 0x18]\n 32155: u64 [sp + 0x30] = a3\n 32158: s1 = u64 [a2]\n 32160: a3 = u64 [a2 + 0x8]\n 32163: u64 [sp] = a3\n 32165: a3 = u64 [a2 + 0x10]\n 32168: u64 [sp + 0x8] = a3\n 32171: a2 = u64 [a2 + 0x18]\n 32174: u64 [sp + 0x10] = a2\n 32177: u64 [sp + 56] = 0x20\n 32181: ra = 1518, jump @1436\n      : @1433 [@dyn 759] (gas: 46)\n 32187: a1 = reverse s1\n 32189: u64 [sp + 0x78] = a1\n 32192: a1 = u64 [sp]\n 32194: a1 = reverse a1\n 32196: u64 [sp + 0x70] = a1\n 32199: a1 = u64 [sp + 0x8]\n 32202: a1 = reverse a1\n 32204: u64 [sp + 0x68] = a1\n 32207: a1 = u64 [sp + 0x10]\n 32210: a1 = reverse a1\n 32212: u64 [sp + 0x60] = a1\n 32215: a1 = u64 [sp + 0x18]\n 32218: a1 = reverse a1\n 32220: u64 [sp + 0x98] = a1\n 32224: a1 = u64 [sp + 0x20]\n 32227: a1 = reverse a1\n 32229: u64 [sp + 0x90] = a1\n 32233: a1 = u64 [sp + 0x28]\n 32236: a1 = reverse a1\n 32238: u64 [sp + 0x88] = a1\n 32242: a1 = u64 [sp + 0x30]\n 32245: a1 = reverse a1\n 32247: u64 [sp + 0x80] = a1\n 32251: a1 = u64 [sp + 0x40]\n 32254: a1 = reverse a1\n 32256: u64 [sp + 0xb8] = a1\n 32260: a1 = u64 [sp + 0x48]\n 32263: a1 = reverse a1\n 32265: u64 [sp + 0xb0] = a1\n 32269: a1 = u64 [sp + 0x50]\n 32272: a1 = reverse a1\n 32274: u64 [sp + 0xa8] = a1\n 32278: a1 = u64 [sp + 0x58]\n 32281: a1 = reverse a1\n 32283: u64 [sp + 0xa0] = a1\n 32287: i32 a2 = a0 + 0\n 32289: a3 = i32 [sp + 0x38]\n 32292: i32 a0 = sp + 0x60\n 32295: a1 = 0x3\n 32298: ecalli 4 // 'deposit_event'\n 32300: sp = s0 + 0xffffffffffffff20\n 32304: ra = u64 [sp + 0xd8]\n 32308: s0 = u64 [sp + 0xd0]\n 32312: s1 = u64 [sp + 0xc8]\n 32316: sp = sp + 0xe0\n 32320: ret\n      : @1434 (gas: 39)\n 32322: sp = sp + 0xfffffffffffffee0\n 32326: u64 [sp + 0x118] = ra\n 32330: u64 [sp + 0x110] = s0\n 32334: u64 [sp + 0x108] = s1\n 32338: s0 = sp + 0x120\n 32342: sp = sp & 0xffffffffffffffe0\n 32345: s1 = u64 [a5]\n 32347: u64 [sp + 0x60] = s1\n 32350: s1 = u64 [a5 + 0x8]\n 32353: u64 [sp + 0x68] = s1\n 32356: s1 = u64 [a5 + 0x10]\n 32359: u64 [sp + 0x70] = s1\n 32362: a5 = u64 [a5 + 0x18]\n 32365: u64 [sp + 0x78] = a5\n 32368: a5 = u64 [a4]\n 32370: u64 [sp + 0x38] = a5\n 32373: a5 = u64 [a4 + 0x8]\n 32376: u64 [sp + 0x40] = a5\n 32379: a5 = u64 [a4 + 0x10]\n 32382: u64 [sp + 0x48] = a5\n 32385: a4 = u64 [a4 + 0x18]\n 32388: u64 [sp + 0x50] = a4\n 32391: a4 = u64 [a3]\n 32393: u64 [sp + 0x18] = a4\n 32396: a4 = u64 [a3 + 0x8]\n 32399: u64 [sp + 0x20] = a4\n 32402: a4 = u64 [a3 + 0x10]\n 32405: u64 [sp + 0x28] = a4\n 32408: a3 = u64 [a3 + 0x18]\n 32411: u64 [sp + 0x30] = a3\n 32414: s1 = u64 [a2]\n 32416: a3 = u64 [a2 + 0x8]\n 32419: u64 [sp] = a3\n 32421: a3 = u64 [a2 + 0x10]\n 32424: u64 [sp + 0x8] = a3\n 32427: a2 = u64 [a2 + 0x18]\n 32430: u64 [sp + 0x10] = a2\n 32433: u64 [sp + 88] = 0\n 32436: ra = 1520, jump @1436\n      : @1435 [@dyn 760] (gas: 58)\n 32442: a1 = reverse s1\n 32444: u64 [sp + 0x98] = a1\n 32448: a1 = u64 [sp]\n 32450: a1 = reverse a1\n 32452: u64 [sp + 0x90] = a1\n 32456: a1 = u64 [sp + 0x8]\n 32459: a1 = reverse a1\n 32461: u64 [sp + 0x88] = a1\n 32465: a1 = u64 [sp + 0x10]\n 32468: a1 = reverse a1\n 32470: u64 [sp + 0x80] = a1\n 32474: a1 = u64 [sp + 0x18]\n 32477: a1 = reverse a1\n 32479: u64 [sp + 0xb8] = a1\n 32483: a1 = u64 [sp + 0x20]\n 32486: a1 = reverse a1\n 32488: u64 [sp + 0xb0] = a1\n 32492: a1 = u64 [sp + 0x28]\n 32495: a1 = reverse a1\n 32497: u64 [sp + 0xa8] = a1\n 32501: a1 = u64 [sp + 0x30]\n 32504: a1 = reverse a1\n 32506: u64 [sp + 0xa0] = a1\n 32510: a1 = u64 [sp + 0x38]\n 32513: a1 = reverse a1\n 32515: u64 [sp + 0xd8] = a1\n 32519: a1 = u64 [sp + 0x40]\n 32522: a1 = reverse a1\n 32524: u64 [sp + 0xd0] = a1\n 32528: a1 = u64 [sp + 0x48]\n 32531: a1 = reverse a1\n 32533: u64 [sp + 0xc8] = a1\n 32537: a1 = u64 [sp + 0x50]\n 32540: a1 = reverse a1\n 32542: u64 [sp + 0xc0] = a1\n 32546: a1 = u64 [sp + 0x60]\n 32549: a1 = reverse a1\n 32551: u64 [sp + 0xf8] = a1\n 32555: a1 = u64 [sp + 0x68]\n 32558: a1 = reverse a1\n 32560: u64 [sp + 0xf0] = a1\n 32564: a1 = u64 [sp + 0x70]\n 32567: a1 = reverse a1\n 32569: u64 [sp + 0xe8] = a1\n 32573: a1 = u64 [sp + 0x78]\n 32576: a1 = reverse a1\n 32578: u64 [sp + 0xe0] = a1\n 32582: i32 a2 = a0 + 0\n 32584: a3 = i32 [sp + 0x58]\n 32587: i32 a0 = sp + 0x80\n 32591: a1 = 0x4\n 32594: ecalli 4 // 'deposit_event'\n 32596: sp = s0 + 0xfffffffffffffee0\n 32600: ra = u64 [sp + 0x118]\n 32604: s0 = u64 [sp + 0x110]\n 32608: s1 = u64 [sp + 0x108]\n 32612: sp = sp + 0x120\n 32616: ret\n      : @1436 (gas: 2)\n 32618: i32 a2 = a1 + 0\n 32620: jump @1441 if a2 == 0\n      : @1437 (gas: 2)\n 32623: i32 a2 = a0 >> 0x10\n 32626: jump @1442 if a2 != 0\n      : @1438 (gas: 4)\n 32629: a1 = a1 + a0\n 32632: i32 a1 = a1 + 0x1f\n 32635: a1 = a1 & 0xffffffffffffffe0\n 32638: jump @1442 if a1 >u 65536\n      : @1439 (gas: 3)\n 32644: a2 = 0x2026c\n 32649: a3 = i32 [0x2026c]\n 32654: jump @1441 if a3 >=u a1\n      : @1440 (gas: 2)\n 32657: u32 [0x2026c] = a1\n 32662: fallthrough\n      : @1441 (gas: 4)\n 32663: a1 = 0x20280\n 32668: i32 a0 = a0 + 0\n 32670: a0 = a0 + a1\n 32673: ret\n      : @1442 (gas: 1)\n 32675: trap\n      : @1443 (gas: 2)\n 32676: a3 = a2 & 0x40\n 32679: jump @1447 if a3 != 0\n      : @1444 (gas: 1)\n 32682: jump @1446 if a2 == 0\n      : @1445 (gas: 6)\n 32685: i32 a3 = 0x40 - a2\n 32688: a3 = a0 >> a3\n 32691: a0 = a0 << a2\n 32694: a1 = a1 << a2\n 32697: a1 = a1 | a3\n 32700: ret\n      : @1446 (gas: 1)\n 32702: ret\n      : @1447 (gas: 4)\n 32704: a1 = a2 + 0xffffffffffffffc0\n 32707: a1 = a0 << a1\n 32710: a0 = 0\n 32712: ret\n      : @1448 (gas: 2)\n 32714: a3 = a2 & 0x40\n 32717: jump @1452 if a3 != 0\n      : @1449 (gas: 1)\n 32720: jump @1451 if a2 == 0\n      : @1450 (gas: 6)\n 32723: i32 a3 = 0x40 - a2\n 32726: a3 = a1 << a3\n 32729: a1 = a1 >> a2\n 32732: a0 = a0 >> a2\n 32735: a0 = a0 | a3\n 32738: ret\n      : @1451 (gas: 1)\n 32740: ret\n      : @1452 (gas: 4)\n 32742: a0 = a2 + 0xffffffffffffffc0\n 32745: a0 = a1 >> a0\n 32748: a1 = 0\n 32750: ret\n",
        "bytecode": {
          "linkReferences": {},
          "object": "50564d00005099000000000000010700c1a002c00080038268006e656b6f54794d9bc8e21bad52f2ddaa8d37fc68b0c26916a1c463f1a72b95efb323f54d5af5287ab365328ea2d765b32165339f927464b96c3f931b68c1322a860d44736637f34876c7d2fef02d9fd08c50cca46058de4caba1b8b8858c81a656891c988defee1af85fc1fbac358af209d74f347dae39c6658caab400868e9bd16be37ffe4bb620e3be01ea8ce76274eab57002424ecd5447f7c9b0110d0058a2054b54fcdbeb9bc8e21bad52f2ddaa8d37fc68b0c26916a1c463f1a72b95efb323f54d5af528e6f25b490aeeb95da41b4c83a7919cff534eaae8a544d2fdaa73b0e4ea8ad37b5b7decebe5e15b8cf3841e7d42714fd11e29b2f7c01403dd25b9c3c7c80a205b003c599e0e5a57c228db122fc9f859f9d002053b5a39c3695bf8716f4416255e1dff7e7e1188872fd1014979ec26e982400927504a02787c0d6f6533a74045307ab365328ea2d765b32165339f927464b96c3f931b68c1322a860d44736637f31dff7e7e1188872fd1014979ec26e982400927504a02787c0d6f6533a74045304876c7d2fef02d9fd08c50cca46058de4caba1b8b8858c81a656891c988defee1dff7e7e1188872fd1014979ec26e982400927504a02787c0d6f6533a74045309bc8e21bad52f2ddaa8d37fc68b0c26916a1c463f1a72b95efb323f54d5af5287ab365328ea2d765b32165339f927464b96c3f931b68c1322a860d44736637f31dff7e7e1188872fd1014979ec26e982400927504a02787c0d6f6533a74045309dc6d9325c1f39f67429440b67ea472a64fdc7edd13539b51b1739a847e021eb9bc8e21bad52f2ddaa8d37fc68b0c26916a1c463f1a72b95efb323f54d5af5280480ce0b000000000e0000001c0000002a000000300000003d000000500000005f0000006a0000007c0000009000000063616c6c5f646174615f636f707963616c6c5f646174615f6c6f616463616c6c5f646174615f73697a6563616c6c65726465706f7369745f6576656e746765745f73746f726167655f6f725f7a65726f686173685f6b656363616b5f3235367365616c5f72657475726e7365745f696d6d757461626c655f646174617365745f73746f726167655f6f725f636c65617276616c75655f7472616e73666572726564051302c0ec6e0463616c6cc0f96e066465706c6f7906c0e49582f802c0f07f8a00d6002401a401bd01d001f2012d028802d702f5024b039e03ab03f203fb031004390473048f04f7051206b906cf069a07ad07c207c707d007a308b008dc08e108f808fd0802090709130918097709c709cc09e5090a0a360a3e0a590a660aae0ab70ad00af70a320b4e0bbd0cd80c490d5f0d2d0e3a0e4f0e540e5d0e210f2f0f590f5f0f770f7d0f830f890f960f9c0f09106e1074108f10b510e210ec10081128113211501165116f11a711bc11c611ff113a1248125212df12e512fa120413241341136b138c139613af13f313fd130a142414531468147214df14ec140615311537153d154315491583159315b115eb15fb151916531663168116c616e3162817631773179117d717de170a18b318c018c618df18e918091926195b1968196e199619bc19f4191f1a651a6f1acc1a081b3c1b461b631b831ba41bd91be61bec1b0c1c271c521c5f1c651c971cc21c071d2b1d711d7b1dd71d0b1e3f1e491e621e971ea51ee31ef01ef61e161f301f5c1f691f6f1f8f1faa1fe91ff61ffc1f1c203e2048201621262160212f227d22c922d622dc220423a323ce2312241b243824412462249924b624c624cf24dd2414251a252825b125b725ed251726402651265b267726c926d226e32601273927b827cf27dc27e227022828283228082918294e29202a722a072b1e2b2b2b312b4a2b502b5a2b852b8b2b9c2bdb2be12bef2b0f2c512c632c702c762c8f2c992cc52cdf2c282d352d3b2d632d9a2dc42dfd2d072e152e512e622ea22eaf2eb52ece2ed42eda2eeb2e0f2f152f262f652f6b2f792f9a2fdc2ffd2f0a30103063309030aa30e530f230f8301c315e3164317b318131ec31f931173241324e3254327432a332dd32e332fd3206336733d533e233f83322342f34353451346f34b034bd34c334e3349935a335bf35dd3521362a366f369836ec36f9360e373f3754375e37d837e537fb371d38d538db38f1381a3920394639fe39043a1a3a4c3a523a283b383b563bb93bcc3bd53bf73b2e3c903cee3c193d923dbd3d1f3e6e3e7b3e813e6e3f8b3fd03fed3f124018401e40244066407640a140e740f4400f411c4129412f414d415a4160419641a341a941d841e541eb41fa414b427b42d742ed42fa42004391439e43a443d843f043fd430344124460448a44df443445704576469946a646ac46c846d2461c4752478447cd47d347ea47f0476848c4480649b049f549034a1c4a404a8a4aa84ae74aed4a1a4b474b634b734b7c4b864bac4bb24bb84bd44be44bed4b2e4c564c724c824c8b4ca34cd64cf04cf94c7b4da44dc54dcb4dd14dd74d024e0f4e154e1b4e214e274e404e4d4e534e594e744e7a4e804e864e9f4eac4eb24eb84ebe4ec44ee04eed4ef34ef94eff4e054f1f4f284fbb4fc94fcb4fec4ff24ff84ffe4f295036503c50425048504e50675074507a5080509b50a150a750ad50c650d350d950df50e550eb50075114511a51205126512c5146514f51e251f0516d529c520b537e538c5399530d54815491549754a054bb54c154d154d754e054f55433554c55bf5574569256d656df561d574657635773577c578657345852586f587f588858cc58f95817599959d959015a2a5a575aab5aef5a0c5b425bc95bef5b0c5c4e5c575c615ce85c055d6f5d7f5d885da55dce5dd45dda5d015e315e785e815e8e5ea45ed55e485f865fa35fe65f0360506076609f60cc60ed60426148614e618d619361ad61b361b961bf61c561de61eb61f161f7611a622062306236623c6265628562d162d762dd621c6322633c63426348634e6354636d637a6380638663a963af63bf63c563cb63f463146475647b648164ac64b964bf64c564cb64d164ea64f764fd640365406546654c656565726578657e6584658a65a665b365b965bf65c565cb65e565ee6581668f66f266f866fe66296736673c676a679767b367c367cc67d66706680c6812682e683b68416866688f68ab68bb68c468ce68fd6817692069b469ce69256a4e6a546a5a6a9c6aa56aaf6a2a6b476baa6bba6bc36be06be66bf36b726c7f6c996cc86c2e6d6f6d8c6dd26df86d216e4a6e6b6e946ec86eec6ef96e076f077a507b1d7dbb7dba7eaa876e978a2098aa20977b2098bb20c89b0bc9ba0a979b019abbaeab20ae873751094ec87909647a017c8b95880195ac0178ab64caab9cf42836510934c87909647a017c8b95880195ac0178ab64caab9cf4281c51091a839aff01c8a80b7cbb9599ffc8a70c78cb83aaff5209f032009511f07b10087b158475010a02013d0768020251050750100250330004951108f8951700077b70f0007b75e8007b76e0009515f807951100f89511b8fa8411e06416956938104929e0044929d8044929c8048000330740956800154929d00433000e0128587a951110fe7b10e8017b15e0017b16d8019515f001951190f98411e0641695670010492718f895670010492710f895680010492800f880003307409568ff0795880195690010492908f85010060c7a95670010492738f895670010492730f895670010492728f895670010492720f895670010837720f80a0a0195670010827730f895680010828838f895690010829928f8956a001082aa20f8d49808d4a707d4870751070628901338096802024926d8074926d0074926c8079567e0079568c0077b6918017b69c0075010082d47956b000782baf80082b8f00082b9e80082b7e00050120a4071510806284a137b6710018268180150100c9f7d83778168180133090a018268180156181f072835139567a0078268100150100e03788267b8077b6780008267b0077b67788267a8077b67708267a0077b676849267807492670074926600740956780079568600749266807501010a4469568000782899800828a9000828b880082878000d49b0cd4a708d4c808988820d4ac0c97cc20d4c80851080628b112492658074926500749264807330c07956840077b6c40077b69c8007b6ac0007b6bb8007b67d000501012a878826ad0008267c8008268c000d487071408e0ffffff00000000d88a088269b80094989478520806285b1283a720492630073a090000024926280749262007956820077b6938077b67f00050101459784926f8064926f0064926e00640956700079568e0064926e806501016dc4595680007828c18828910828a088287d4ca0bd49708d4b808988820d49b0b97bb20d4b80851080628ee114926d8064926d0064926c806330b039568c0067b6bc0067b6998007b6a90007b67a0007b6c8800501018e577826aa0008267980082688800d487071408e0ffffff00000000d88a08826990009498947852080628981183a7204926b0064926a8064926a006140900000000004b544d9568a0067b69b8067b671850101a9277956780068268d00050101c4a76956700068279980082789000827a88008e978e8bdb970b7b6ae0008ea77b68587b69e800d498087b67507b6ba8007b68d800db8b07510706284e11826780067b676050121e2775956760065010202878956b000682b77082b86882b96082ba78501222057188920184807fd27c04d23c0bdb9800880820d2ac0c648994b9d4c4079479aa920628371150122459728267608877207b67b000510af8017b6b10017b6018017b6cf8007b6408014926580649265006492648069568400649264006033307501026bd7639086c020256181f123308203d086c020233022828137550122810753307800202837783993308200a0682686095871fd88708826be000c88b09d8b902da8802826858c828087b684897883b989a05d48a0c8268000182821897993b828810987705d497076f206f84826ab00094ba8268d800948a94ac94a7c87002d80209c89408c8c808d3480cd84807dac9077b67408269180195971fd8970c82691001c8c90bd89b03dacc0382690801c839097b6930979c3b98b905d4c90997bb3b987c05d4cb0bc80b0b7b6b1801d80b0cc8c40bc89b0bd34b097b6b1001d84b07da9c077b6738826c48826758d87c09826be800c89b0b98cc0597b93bd4c909826700018274827c0898bb0594a994ab6fcc6f47c87b0bc89c0ad8ca09c89b0b826340c8a303d8a30ac8ab04826930826a0801d8a90b8260f800c8b000989905970b3bd4b909980b05c87b0bc8c909d8c90cc8cb0b826738c897077b670801d8970cc8cb0b7b6b0001951be084b7e064717b67f800017b727b7808826b1801d8b20a50122abd6c510c449518e08488e06481491818491810491808490850102c7c768267f8008272827a18827808827b10952201882901c89808d48209889901c89b03d8b30bc8ba0428ad8267b0008577018268e000826950db89078269a800826ad800dba907826ce800d4c802826a6098a93f7b695097840198803f826858978b0198833f97cc0197a9017b69407b64387b60307b6b287b63485107a6017b62a8007b6c2084aae07b6ab000492618064926100649260806956800064926000603330750102e77749517e08477e07b67080164713308203307501030a0789518e08488e07b6800016481837783893308200a064926180120826b000182b7330233033304330a492610013300330c82b8086f77826908017b971882b71082bb186f887b9810826810016f777b97086fb77b97018267b0007b6ae800d87a07857b017b681001948b01d4c007947b018268d00082671801c87808826ab800c82a0a8269c000c839098267c8007b64f000c874048267a8007b6300017b62f800520bee007b6ce00082671801d8780bc8ba0a6427d32a02d87a0cda2b0cc89c0cd89c0bd839095012321871510706286d0d9567a0017b60d80050103448728267a0018269a801826ab001826bb8015012360d71501038c774826c080150123aed6c956c000182c718957220d872088267f800c88709d8790ada880a82c7c87a0ad87a088264f000c884048267e800957820d8780b82c710c8b700d87007dabb07826bd800c8b707d8b70b826ce000c8bc0c7b621801649264a3648a6408647028f6fe826950d48a07d4270752072d01492600014926f8004926100149260801826238826830826328826b48285301826360826bb000d33b0b826c58d4cb0bd47b0b826c48826220510ba90082671801d8780bc8ba0a8267f800d37a02d87a0cda2b0cc89c0cd89c0b82670001d8790950123c0f705207670c9567e00550103e4571956800058287f8007b6710018287f0007b6700018287e8007b67f8008287e0007b67f000826760501240c06f501042c8767b67e8007b68d0003307ff3308ff82691801501044d7765012467d6f501048cd7650124aa86882681001e0b80b50124cbc6f50104e7673826220826c4801826750826938d47909826730826a28d47a0ad4c20c826b4095bb019517e08477e064714917184917104917084907039518e08488e064817b8c187b8a107b89087b8b33005e282573956720068268f0007b6c205010507e70826c20826b48826328826830826238826950826a60826738067b670801826730067b671001826728067b67f800826720067b67000101d4cb0b7b6bf000d483077b67e800d492077b67e0005012527d6f501054dd757b67c0007b68d8008267608a79033307ff3308ff501056ea757b67d0007b68c8008268c000d487077b67c000826718018379803307ff3308ff501058c575826b180188b98000826ac000db9a07826cc800826ad800d4ca0ada980a93b7ff93baff826bd00050125a046b82694050125c056c4907039518e08488e064817b8c187b8b107b8a087b8950105e35729567c0058268a0005010608f6f95670005827ad8008278d0008279c8008ea78e8bdba70b7b69b8008e977b68c0007b6ab000d4a8087b67d8007b6be0007b68f000db8b075207330b8267c0057b67c800501262536e9567a0055010646c71956b000582b7b00082b8a80082b9a00082bab800501266456a88920184807fd27c04d23c0bdb9800880820d2ac0c648994b9d4c4079479ab924a0b5012689b6b8267c8008877207b67e800510aff017b6b10017b6018017b6cf8007b640801492698054926900549268805956880054926800504330750106afe6f39086c020256181f123308203d086c020233026c28546e50126c516e3307800202837783993308200a068268c80095871fd88708826bb800c88b09d8b902da88028268c000c828087b68d00097883b989a05d48a0c8268000182821897993b828810987705d497076f206f84826ae80094ba8268f000948a94ac94a7c87002d80209c89408c8c808d3480cd84807dac9077b67a8008269180195971fd8970c82691001c8c90bd89b03dacc0382690801c839097b6958979c3b98b905d4c90997bb3b987c05d4cb0bc80b0b7b6b1801d80b0cc8c40bc89b0bd34b097b6b1001d84b07da9c077b6760826cd0008267c000d87c09826bb000c89b0b98cc0597b93bd4c909826700018274827c0898bb0594a994ab6fcc6f47c87b0bc89c0ad8ca09c89b0b8263a800c8a303d8a30ac8ab04826958826a0801d8a90b8260f800c8b000989905970b3bd4b909980b05c87b0bc8c909d8c90cc8cb0b826760c897077b670801d8970cc8cb0b7b6b0001951be084b7e064717b67f800017b727b7808826b1801d8b20a50126ef765510c449518e08488e064814918184918104918084908501070b66f8267f8008272827a18827808827b10952201882901c89808d48209889901c89b03d8b30bc8ba0428ad8267e800857701826bb8008268d800dbb8078268e0008269f000db980751079e018267c8008477e07b67d0004926580549265005492648059568400549264005043307501072e76d9517e08477e07b6710016471330820330750107410729518e08488e07b6808016481837783893308200a06330020826708018272492618013303330c330b33043309330a8278087b68000164786f27826210017b27188287108288187b680801826800016f887b28106f7764287b2708826708016f77826218017b87018267d0007b6bf000d87b07857b017b64e800944b017b6a08017b690001d4a907947b018267a000c80708826a90007b621801c8a202826498007b63f800c8340982638800c8c303520bdb007b6cd8007b60e000d87800c8020bd3ab02d8ab0cda200c501276cc675207dd0695674002501078bb6b95680002828740828948828a50828b5850127a996a50107c3a6e826c100150127e60668267e000957220d8720882671801c88703d8730ada880a8267f800c8a704d87408826cd800c88c0c8267f000957820d8780b8267e800c8b709d87907dabb07826a0001c8a707d8a70b826a0801c8ba0a642064326443648b64946479280dff826ac8008269c000d49a07826cb000d4cb08d4870752072b01492600014926f8004926100149260801285501826bd000826cc800d3cb0b826cc000d4cb0b8260b800826cb000d4c00cd4cb0b510b9900d87800c8020bd3ab02d8ab0cda200c50228000d9665207e9059567200550208200c76a956800058287387b6708018287307b6700018287287b67f8008287207b67f0008267c800502284004469502086004b707b67e8007b68d0003307ff3308ff8269180150208800597050228a00fe6850208c004d7050228e00276282680801e0b80b50229000536950209200f36c8260b80001826bc80098b73f970901d4790998073f8268c000978a01d47a0a98873f826cb00097cc01d47c0c97bb0195bb019517e08477e064714917184917104917084907049518e08488e064817b8c187b8a107b89087b8b3300a20028906c9567600582681850209400ed69826cb000826bb8008269c000826ac800956800058287787b6708018287707b6710018287687b67f8008287607b6700010198973f97c801d487077b67f00098b73f979801d487077b67e80098a73f97b801d487077b67e00097a7017b67d80050229600d76850209800366f7b67b8007b68d0008267c8008a79033307ff3308ff50209a00416f7b67c8007b68c0008268b800d487077b67b800826718018379803307ff3308ff50209c001b6f826b180188b98000826ab800db9a07826cc000826ad000d4ca0ada980a93b7ff93baff826bc80050229e0059648269d8005022a00058654907049518e08488e064817b8c187b8b107b8a087b895020a200876b33078002037b67180183777b6710013300a4000a03826918013302a600289b5e826918015022a600945e4926f8047b68f0047b67e804956700059568e0047b6ae0045020a800f638826710013300aa000a03826918013302ac00285e5e826918015022ac00575e4926b8047b68b0047b67a8049567c0049568a0047b6aa0043300ae009511a0fd951900027b90587b95507b9648951560023302b003281c68826710013300b0000a03826918013302b20028075e826918015022b200005e49267804956900047b98707b976895678004956860047b9a603300b4009511a0fd951900027b90587b95507b9648951560023302f60328c467826710010a0301826918018097108298829908d48707d49707510788049518e08488e06481491818491810491808490805956740045020b600ea697c6740045207c4045022b8006163956700045020ba00d2698264180482631004826000047b600801826c08049518e08488e06481826970c8c90b826768c87000d87007c87b0bd39b0ad89b09daa709826278c83207826a8000c84a0ad82702c82a0ac87909d87907c87a02d3bc07d8cb0c826a0801d8a00adb7c0ad83907d3240cd84204dac704d39307d4c707db740a7b89107b8b087b807b8218520a73045022bc0094665020be00aa69826710013300c0000a03826918013302c20028c95c826918015022c200c25c4926f803956900037b98f0007b97e8009568e0037b9ae00033075020c4000d684926d8034926d0034926c8033307209568c0034926c0035020c600f0679517e08477e07b670801647139086c020256183f133308403d086c02023302c8002838665022c800356633078002027b67f800837783993308403300ca000a06826a00013302cc0028775d826a00015022cc00705d826808017b8a187b89107b8b087b879567a0035020ce0075688268a8038269a0038262b803826bb003826c70c88c0c826768c89707d89709c89c0cd38c0ad88c08daa908826978c8b909826a8000c8a202d8b90ac82a0a5022d0000e60826708015020d2009268956780033308405020d400ec65956b000382ba980082b8900082b9880082b780005022d600da5e5208e6008268687b6860038268707b6868038268787b68700395686003826980007b6978037b6708015020d800de66826710013300da000a03826918013302dc00285d5c826918015022dc00565cd4780298aa206f99979820d4a80898992049261803492638034926300349262803492620033a0a0800023a0b1000023a0c1800023a072000027b6a5803956a00037bab507bac487ba7407ba9107ba80833082095694003956a2003956b00037b620003826708015020de0080689567e0023308405020e0000a65956b000282b7f80082b8f00082b9e80082bae0005022e200bb605107b2020033088002028388330701280d330880020283883307010133093300e4000a073302e60028a4605022e600a1605020e800f4655022ea000e625020ec00e86539086c020256183f1220036c020240330880020228500233088002022848024926900149268801492680013302ee00140700000000717b484e01956880017b67980133075020f0009e654926780149267001492660012233070495686001492668015020f200806539086c020256183f1220036c020240330880020228e801330880020228e0014926f0014926e8014926e0013302f400140700000000717b484e019568e0017b67f80133075020f60036654926d8014926d0014926c001413307049568c0014926c8015020f800186539086c020256183f1220036c020240330880020228800133088002022878014926300249262802492620023302fa00140700000000717b484e01956820027b67380233075020fc00ce644926180249261002492600022233070495680002492608025020fe00b06439086c020256183f1220036c02024033088002022818013308800202281001492690024926880249268002140700000000052f44ec956880027b6798023307502000016b644926780249267002492668023307049568600249266002502002014e6439086c020256183f1220036c020240330880020228b600330880020228ae0049263004492628044926200414070000000065063cd9956820047b673804330750200401096439086c020256181f0b20036c02022001330880020283883307013309040a07014926d0024926c8024926c00233020601140700000000717b484e019568c0027b67d802330750200801be634926b8024926b0024926a002113307049568a0024926a80250200a01a06339086c020256183f1120036c0202403308800202280833088002020183883307013309240a07018267f800bea707330833097b6a18010a28136282671801330850200c019967837833072847fd33076802027b67b80039076802025517040728c42b9517e08477e07b67b000647183773308330010010a01018267b00081771c524759cb56840a28841651475448d1913a015247419bd8950a289f0f5147dffd17a2a6035247bb9c05a90a28a3185147931339d5170751473eed62dd05045247e9b13ae60a28c61b514703defd068a075247b3a75e090a28421c5247dd0d16180a28eb135247dd72b8230a28bf195247a39c8a240a287117514767e53c31540652473aa84b3f0a2880125147190fc140280a5147bb5a975c0a286e14502212015a56330014010a0a33021601286756502216016456510706288e218267b800817756170307288e2150221801ae5e9577810450201a013b639567ff07957739827748047b67b8009567ff079577610433084050201c01ed60956aff0795aa3995ac000482cb4082c83882c93082c72850221e01c15951080628d61e7c68b8008e88492a2004492a18047ba808049568ff0795884104492a10047b67b80033000c0328d96150222001b255330022010a0a3302240128bf5550222401bc555107062800218267b8008177330843ac780628fe209567ff079577810733002601330254042815609568ff07958839958900078297587b67a8008297507b67b0008297487b67b80050222801af5d0a01826aa00082a782a80882a91082aa18956bff0795bb3995bc00077bca407bc9387bc8309568ff07958861077bc728330750202a013d619568ff079588394928200749281807492808070664893307209568ff07958841074929100750202c01126133086c020239076c020256173f0b20036c020240019517e08479e07b69900064913307800202837783997b68a0003308407b67980033002e010a06826a90003302300128165d826a9000502230010f5d7b6788006f877b6780006f977b67786fa77b67709517e08477e07b67900064718267a8009777209877209569ff0795993949290007959a00067ba7f8008267b0007ba7f0009568ff07958821078267b8007ba7e80033075020320165608267709568ff07958839958900067b97e0008267787b97d800826780007b97d000648a3307209568ff0795880107826988007ba9c8065020340129608268a000818756173f08480840019517e08477e07b67b8006471837933084082679800330036010a06826ab8003302380128c755826ab80050223801c055826890007b8a187b89107b8b087b879567ff079577e10650203a01c1609567ff079577398277a8067b67b8009567ff079577c10633084050203c01735e956aff0795aa3995ac000682cba00082c8980082c9900082c7880050223e01435751080628581c7c68b8008e88492a8006492a78067ba868069568ff079588a106492a70067b67b80033000c03285b5f502240013453330042010a0a33024401284153502244013e53510706289c1e8267b800817756170307289c1e9567a01133084050204601ea5d956a381095ac000182cb800082c87882c97082c76850224801c05651080628d51b492a6001492a5801492a500195688011492a48017b67b80033000c0328e25e50224a01bb5233004c010a0a33024e0128c85250224e01c552510706283d1e8267b8008177330843ac7806283b1e1407ffffffff000000007b67b8009567a0143300500133024a0428145d95683810828768047b67b000828770047b679000808778047b67880095678014330052013302540428e95c95683810958900048297587b67a8008297507b67a0008297487b67980049284004826788007b9738826790007b97306489956860148267b0007b9728043307502054012a5e95683810492820044928180449280804016489330720956840144929100450205601065e33086c020239076c020256173f0b20036c020240019517e08479e07b69880064913307800202837783997b68b0003308407b679000330058010a06826a880033025a01280a5a826a880050225a01035a7b6780006f877b67786f977b67706fa77b67689517e08477e07b6788006471826798008477ff8269a0008498ff8269b800826aa800d2a909956a3810492a000495ab00037bb9f8007bb8f000956820147bb7e800330750205c015a5d82676895683810958900037b97e0008267707b97d8008267787b97d000648a33072095680014826980007ba9c80350205e01265d8268b000818756173f08480840019517e08477e07b67b8006471837933084082679000330060010a06826ab8003302620128c452826ab80050226201bd52826888007b8a187b89107b8b087b879567e01350206401c25d95683810958900038297c0007b67b8008297b8007b67b0008297b0007b67a8008297a8007b67a0009567c013330840502066015f5b956a381095ac0003502268012b595107062857198267a00095a900037b97688267a8007b97708267b0007b97789568a0138267b8007b97800064b77b6bb80033000c0328515c50226a012a5033006c010a0a33026e0128375050226e01345051070628c61b8267b80081775617030728c61b9567e00733084050207001e05a956b000782baf80082b8f00082b9e80082b7e00050227201ce5351080628cc184926d8074926d0074926c8079568c0074926c007127b67b80033000c0328d85b50227401b14f330076010a0a3302780128be4f50227801bb4f51070628671b8267b80081775617030728671b9567a01233084050207a01675a956a381095ac000282cb800082c87882c97082c76850227c013d535108062852183a0848000295ac00027bc8603a0b5000023a085800023a096000027bcb587bc850956880127bc9487b67b80033000c03284b5b50227e01244f330080010a0a3302820128314f502282012e4f51070628f41a8267b80081775617030728f41a9567a00233084050208401da598267b8027b67388267b0027b67408267a8027b67488267a0027b675050228601dc589567800250208801dc5b826990028264880282629802826c800297973f984801d4870797283f7b69b000989901d4980897493f98ca01d49a0b9829017b6ca80084cc019acad2a808d27a03d2a90984b07fdac00b7b6b980088b7207b63880094377b6890007b698000d4980894877b6cb80088c801aa780628571a826940826b50d49b07826838826a48d4a808d48707987720d49808978820d4780851080628221764b77b60707b64787b62a00082689800956a00027ba860826888007ba868826890007ba87095686002826980007ba97850208a011b5a8267b80051070628e31650228c01a55552080628d6168268a800848800ff83a720826978956b00017bb9e8007bb8e0008268b0007bb8f0009568e001826aa0007bbaf80050208e01d15933043302330c8267708e779770050195073fd80708c884098477e0826350c87303d87307826a48c89a0ac87a00d3900ad8900bdaa70bd84907da8807c82707d82708826440c84709c89b0bd87907d89b09826238c82c0ac8a808c88707c8970c8ec78eb8dbc708d4cb078e09db7809510906283a1e826750d87307826948d39008d89009da8709d84b07d32c08d82c0ada870ad34b07d48707da790a510a06280d1e7b63c0017b60c8017b6bd0013307409568c0017b6cd8017b63b0007b60a8007b6ba0007b6cb800502090010259826738956b00017bb7788267407bb7708267487bb7688267507bb7608267b8007bb798008267a0007bb790008267a8007bb788009567a0019568800195696001826ab0007bba8000502092017b2f826cb8008262a000826ba8008269b000d42907d4cb08d48707987720d42808978820d48707510706285a15956c000182c7a80082c8b8007b6898008263a00182cab00028f00750229401444c330096010a0a3302980128514c502298014e4c5107062896188267b8008177330843ac78062894189567ff079577e10333009a0133024a0428a7569568ff07958839958900038297b8007b67788297b0007b67a8008297a8007b67b0009517e08477e07b67b800647183773308240a018268b8008287187b67a0008287107b6798008287087b67900082877b6780003a074800027b6740956aff0795aa3995ab00037bb7a0003a085000023a095800023a076000027b68307bb898007b69287bb990009568ff079588c1037b67387bb78800330750209c018e579568ff079588394928800349287803492868030664893307209568ff079588a1034929700350209e01635733086c020239076c020256173f0b20036c020240019517e08479e07b69706491330780020283777b68880083993308407b67b8003300a0010a06826a703302a201285350826a705022a2014d5033078002037b677083777b67203300a4010a038269703302a60128094b8269705022a601034b49296003959b00037bb8587bb7509568ff07958881037bba4833075020a801cf568267489568ff07958839958900037b97408267507b97388267587b9730648a3307209568ff07958861038269607ba928035020aa01985682688800818756173f08480840019517e08477e07b67605022ac0161533300ae010a06826a603302b00128bd50826a605022b001b7509567ff07957741035020b20147579569ff079599397c97080352070628a4168267789777209879208267b0008268a800d487077b6970d497075207062852175020b4015d495022b6018f509567ff07957721035020b801fc569568ff0795883982840003958900028297f800829be800829cf0009518e08488e06481826a9000c8ca0a82628000c8b202d8b20bc8ba0ad3ca03d8ca09da3b09826b9800c87b0bc89b0cd8bc038260a000c84000d87b0bc80b0bc83b00d87c03d3040bd84004dab304d3c707d4b707da79047b8c107b8a087b827b80185104062813175022ba01c2535020bc01d8569569ff079599394929e002826770959a00027ba7d8008267a8007ba7d0009568ff07958801038267b0007ba7c80033075020be0144559567ff079577394927c0024927b8024927b00264793307209568ff079588e1024929a8025020c0011a559517e08477e07b6778647182698800819756173f08480940019517e08477e07b6788005022c201d7513300c4010a06826a88003302c60128b24a826a88005022c601ab4a8268787b8a187b89107b8b087b879567ff079577c1025020c801ad559567ff07957739957a000282a8900082a988008272a00282ab9800826c9000c88c0c82678000c89707d89709c89c0cd38c0ad88c08daa90882699800c8b909826aa000c8a202d8b90ac82a0a5022ca01384d8267785020cc01bd559567ff079577a1023308405020ce011353956aff0795aa3995ac000282cb800082c87882c97082c7685022d001e64b51080628fb108268800095ab00027bb848826890007bb850826898007bb8589568ff07958881028269a0007bb9607b67a0005020d201f853956cff0795cc39492c000282677095c800017b87f8008267a8007b87f0008267b0007b87e800492c2002492c1802492c10023a07a800023a08b000023a09b800023a0ac0000295cb00027bb7407bb8387bb9307bba283308209569ff0795996102956aff0795aa4102956bff0795bb2102492c08028267a0005020d401a75533078268b800330933003e030a0728121c5022d6013e473300d8010a0a3302da01284b475022da0148475107062860158267b800817756170307286015956760113308405020dc01f45195683810958900018297407b67388297387b67408297307b67488297287b67505022de01da50956740115020e001f25395673810827418018270100182732001827b080197473f980801d4870797383f984901d4980897093f98ba01d49a0c9839017b6ba80084bb019abad2a808d27a02d2a90984c77f7b67b000dab70c7b6c980088c7207b62880094277b6890007b698000d4980894877b6bb80088b801aa780628bb14826940826a50d49a07826848826b38d4b808d48707987720d49808978820d4780851080628340f64a77b60707b64787b63a00082689800956a38107ba8e800826888007ba8f000826890007ba8f80095682011826980007ba900015020e20129528267b8005107062816105022e401b34d52080628e40e8268a800848800ff83a72095693810826a707b9a707b98688268787b98789568a010826aa0007b9a80005020e601e35133043302330c8267b0008e779770050195073fd80708c884098477e0826350c87303d87307826a48c89a0ac87a00d3900ad8900bdaa70bd84907da8807c82707d82708826440c84709c89b0bd87907d89b09826238c82c0ac8a808c88707c8970c8ec78eb8dbc708d4cb078e09db7809510906288116826750d87307826948d39008d89009da8709d84b07d32c08d82c0ada870ad34b07d48707da790a510a0628541695693810643a7b9a487b90507b9b58330740956880107b9c607b6ab0007b60a8007b6ba0007b6cb8005020e8011151956838108267387b87826740958900ff7b97f8008267487b97f0008267507b97e8008267b8007b87208267a0007b87188267a8007b8710648b956760109568401095692010826ab0007bba085020ea018627826cb8008262a000826ba8008269b000d42907d4cb08d48707987720d42808978820d487075207680d95683810828730828a407b6a9800828328828a3801d3b704d8b70cd89300da400cc92a08c9c804d8c808d82a0a826c9800c9ac0a826cb800c9ca0ac98a0ac9b707c90707c99308d4a707d4480ad47a0ad4470798aa20977720d4a7075207080d64977b68b8005020ec01695483788169b8003307330010030a0728fa155022ee01ef433300f0010a0a3302f20128fc435022f201f94351070628a8128267b80081775617030728a8125020f401a9355022f6013d4c957721015020f801ca509569ff079599398297e8008478ff00520806288a12829b0001829af8008299f000847c00ff5022fa01d8495020fc0104519567ff07957701013308405020fe015a4e9567ff079577398278e0007b68b0008278d8007b68a8008278d0007b68a0008277c8007b67b80033078002037b6798008377330000020a033302020228c94b50220202c64b52071e0c826998005022040255434929c0007b98b8007b97b0009568ff079588e1007b9aa80064b750200602224f3a07c800023a08d000029569ff079599397b97a0003a07d800027b9898003a0ae000027b97900064973308209569ff079599c1007b7a88008267b80050200802a15033088002028388330728751750220a02aa4233000c020a0a33020e0228b74250220e02b44251070628cd118267b80081775617030728cd11502210021a4995670005502012028b4f956800058287187b67b8008287107b67b0008287087b67a80082877b67a0009567e00433084050201402314d956b000482b7f80082b8f00082b9e80082bae00050221602e2485207200b8267a000956900047b97c0008267a8007b97c8008267b0007b97d0009568c0048267b8007b97d80064a77b6ab80033000c0328164e51473182a0700a28411150221802e54133001a020a0a33021c0228f24150221c02ef415107062854118267b8008177330823ac78062852119567ff079577410533001e0233024a0428484c956aff0795aa3982a7080582a8100580a91805492a000595ab00047bb9f8007bb8f0009568ff07958821057bb7e800330750202002974d9567ff079577394927e0044927d8044927d00464793307209568ff07958801054929c804502022026d4d39086c020256183f0b20036c020240019517e08479e07b69b8006491330780020283778399330840330024020a06826ab80033022602281b43826ab8005022260214439567ff079577e104502028020f4e9568ff07958839958900048297c0007b67b8008297b8007b67b0008297b0007b67a8008297a8007b67a0009567ff079577c10433084050202a02a54b956aff0795aa3995ac000450222c026e4952079d098267a00095a900047b97688267a8007b97708267b0007b97789568ff079588a1048267b8007b97800064b77b6bb80033000c0328924c50222e026b40330030020a0a3302320228784050223202754051070628f40f8267b80081775617030728f40f502034022532502036029d3f50223802584a4908059567ff079577810650203a02394d9568ff07958839958c000682c95082c74882ca5882cb60847700ff867c0150223c024e4650203e027a4d9567ff079577610633084050204002d04a9567ff07957739957900068298407b68b0008298387b68a8008298307b68a0008297287b67b80033078002037b6798008377330042020a0333024402283f48502244023c48520794088269980050224602cb3f49292006959c00067bc8187bc7109568ff07958841067bca0864b750204802974b3a078800023a089000029569ff079599397b9700063a079800027b98f8053a0aa000027b97f00564973308209569ff07959921067b7ae8058267b80050204a02164d33088002028388330728ea1383883307330933003e030a0728e41350224c02103f33004e020a0a33025002281d3f502250021a3f51070628b30e8267b80081775617230728b30e9517e08477e07b67b800647183773308040a01826ab80082a982a70882a81082aa187b6ab8067b68b0067b67a8069567c0069568a0067b69a0065020520298248267d8067b67b8008267d0067b67b0008267c8067b67a8008267c0067b67a00095678006330840502054026649956b000682b7980082b8900082b9880082ba8000502256021745520755078267a000956900067b97608267a8007b97688267b0007b9770956860068267b8007b977864a77b6ab80033000c03284f4a50225802283e33005a020a0a33025c0228353e50225c02323e51070628e50d8267b8008177330843ac780628e30d9567601233005e0233024a04288f4895683810958900028297287b67b8008297307b67b0008297387b67a8008297407b67a0009517e08477e07b67800064718377330824330060020a013302620228cf4550226202cc4533078002037b67788377330064020a0333026602287043502266026d43956a3810826b800095ac00017bcbe000826b88007bcbd800826b90007bcbd000826b98007bcbc800826ba0007bab0002826ba8007bcbf800826bb0007bcbf000826bb8007bcbe80095ab00027bb9187bb7107bb808956740129568201295690012492a2002502068025c299567e01133084050206a02fd47956a381095ac000182cbc00082c8b80082c9b00082c7a80050226c02d0405208e805492aa001492a9801492a8801019568c011492a90017b67b80033000c0328f34850226e02cc3c330070020a0a3302720228d93c50227202d63c5207a60c8267b8008177330863ae78a60c956740063300740233024a04283747826740067b67b800826748067b67b000826750067b67a800826758067b67a000956720063300760233025404280847826720067b6778826728067b6770826730067b6768826738067b67609517e08477e07b67800064718377330844330078020a0133027a0228504450227a024d4433078002037b6758837733007c020a0382695833027e0228c63c82695850227e02c03c826980007b69d805826988007b69d005826990007b69c805826998007b69c0054926f8058269a000956b00067bb9188269a8007bb9108269b0007bb9088269b8007bb97b68f0057b67e805956700069568e0059569c0057b6ae005502080028e22826780007b677805826788007b677005826790007b676805826798007b6760058267607b6798058267687b6790058267707b6788058267787b6780058267a0007b67b8058267a8007b67b0058267b0007b67a8059567a0059568800595696005826ab8007b6aa00550208202732795674005330840502084021446956b000582ba5882b85082b94882b74050228602063f520807044926380549263005492628059568200549262005017b67b80033000c0328124750228802eb3a33008a020a0a33028c0228f83a50228c02f53a5207df0a8267b8008177541703e20a9567e01433084050208e02a545956a381095ac000482cbc00082c8b80082c9b00082c7a80050229002783e520890033a0828000295ac00047bc8a0003a0b3000023a083800023a094000027bcb98007bc890009568c0147bc988007b67b80033000c03288446502292025d3a330094020a0a33029602286a3a50229602673a52076b0a8267b8008177330843ae786b0a9567a0043300980233024a0428c844956800048287b0007b6798008287a8007b67b0008287a0007b67b8009517e08477e07b67a80064719517e08477e07b67a000647183773308240a01826aa00082a71882a81082a90882aa826ba8007bb7187bb8107bb9087bba33078002037b67a00083777b6790000a03018269a0008097108298829908d48707d497075107e809826798009777209878208267b0008269b800d497077b689800d4870751072a0a8267900033009a020a038269a00033029c02282a3a8269a00050229c02233a492698047b6890047b678804956880047b6a8004330750209e0272454926780449267004492660040133072095686004492668045020a002544533086c020239076c020256173f0b20036c020240019517e08479e07b697864913307800202837783997b6888003308407b6780003300a2020a06826a783302a402285a41826a785022a40254417b67706f877b67686f977b67606fa77b67589517e08477e07b6778647149265804826798007b6750048267b0007b674804956840048267b8007b67400433075020a602c244826758956a00047ba7388267607ba7308267687ba728330720956820048269707ba9205020a802994482688800818756173f08480840019517e08477e07b67880064718379330840826780000a06826a880082a71882a81082a90882aa6f7b6f886f996faa8267787b7a187b79107b78087b7b8268a8005020aa02a345956700043308405020ac02fd42956b000482ba1882b81082b90882b75022ae02f03b5208f100826aa80082ab82a80882a91082aa187b6af8037b69f0037b68e8039568e0037b6be0037b67a8005020b002f243826790003300b2020a038269a0003302b4022871398269a0005022b4026a39d4780298aa206f99979820d4a80898992049269803826798007b6790038267b0007b6788038267b8007b6780034926b8033a0ae800023a0bf000023a0cf800023a070001027b6ad8037b6bd0037b6cc8037b67c0037b69b0037b68a8033308209569c003956aa003956b80037b62a0038267a8005020b6028745956760033308405020b8021142956b000382ba7882b87082b96882b7605022ba02033b5108cd080049265802492650024926480295684002492640020333075020bc0214439517e08473e06431330033043302330c3a070801023a081001023a091801023a0a200102643b7bb7187bb8107bb9087bba8268509587207b6778d88707826848c878097b6970d88908da7708826740c878087b6868d87807826838c887077b67607b6b580182679800d8700782698800d39408d89409da8709826b9000d8b207826a8000d3ac08d8ac0ada870ad3b207d48707da790a520a0628b9e89567200264387b6cb8007b62b0007b64a8007b60a0005020be024f435022c002ce3ad8c802826cb800826a60c8ac0cc82c0c5022c202063f52080eff956a000282a93882a83082ac2882ab207bab7bac087ba810956800027ba9185020c40217425022c602183764a22860ff956938104929e0004929d8004929d000956800114929c8000433075020c802eb419517e08473e06431330033043302330c3a076800023a087000023a097800023a0a800002643b7bb7187bb8107bb9087bba8268509587207b6778d88707826848c878097b6970d88908da7708826740c878087b6868d87807826838c887077b67607b6b580182679800d8700782698800d39408d89409da8709826b9000d8b207826a8000d3ac08d8ac0ada870ad3b207d48707da790a520a06287fef9567e01064387b6cb8007b62b0007b64a8007b60a0005020ca0226425022cc02a539d8c802826cb800826a60c8ac0cc82c0c5022ce02dd3d5208e5fd956c381082c2c00082c8b80082c9b00082cba8007bcb88007bc990007bc898009568c0107bc2a0005020d002e5405022d202e63564a22857ff33088002028388330701286e0933088002028388330701286109330880020283883307012854093308800202838833070128470933088002028388330701283a0933088002028388330701282d093308800202838833070128200933088002028388330701281309330880020283883307012806093308800202838833070128f9083308800202838833070128ec083308800202838833070128df083308800202838833070128d2083308800202838833070128c5084926100149260801492600013302d402140700000000717b484e01956800017b67180133075020d602f93f4926f8004926f0004926e000223307049568e0004926e8005020d802db3f39086c020256183f1220036c02024033088002022853053308800202284b0533088002028388330701285008330880020283883307012843084929580149295001492948011407000000003f7d51e29568ff07958881017b97600133075020da02783f8267203300dc020a038269703302de022875338269705022de026f3349294001959b00017bb8387bb7303307049568ff07958861017bba285020e0023a3f8267409568ff07958839958900017b97208267307b97188267287b9710648a3307249568ff07958841018269387ba908015020e202033f82678800817756175f1a826888004808603307013309448268b8000a0728fa003307013309448268b8000a0728eb009567ff079577394927980149279001492788016479140700000000052f44ec9568ff079588c1017b97a00133075020e402a13e9567ff0795773949278001492778014927700164793307049568ff079588a101492968013300e80228733e9567ff079577394927d8014927d0014927c8016479140700000000717b484e9568ff07958801027b97e00133075020e602433e9568ff079588394928c0014928b8014928a8011164893307049568ff079588e1014929b0015020e802183e82678800817756173f19826888004808403307013309248268b8000a07280f3307013309248268b8000a070133088002028388330701288006330880020283883307012873069567ff079577394927980749279007492788076479140700000000717b484e9568ff079588c1077b97a00733075020ea029f3d9568ff079588394928800749287807492868072264893307049568ff079588a107492970075020ec02743d39086c020256183f1220036c020240330880020228ec02330880020228e4023308800202838833070128e9053308800202838833070128dc05330a4919784919701407000000002b20fc8d7b9780009568ff079588a10049196833075020ee02123d39086c020256181f1120036c0202203308800202280833088002020183883307013309040a070133088002028388330701287f053308800202838833070128720552471f7447d5af025022f0029f303300f2020a0a3302f40228ac305022f402a9305107f0023308800202838833070128400533088002028388330701283305330880020283883307012826053308800202838833070128190533088002028388330701280c053308800202838833070128ff043308800202838833070128f2043308800202838833070128e5043308800202838833070128d8043308800202838833070128cb043308800202838833070128be043308800202838833070128b1043308800202838833070128a4043308800202838833070128970433088002028388330701288a044926f0024926e8024926e00214070000000005df02e69568e0027b67f80233075020f602c33b4926d8024926d0024926c8023307049568c0024926c0025020f802a63b39086c020256183f1220036c0202403308800202281e013308800202281601492630034926280349262003140700000000620d2894956820037b67380333075020fa02613b49261803492610034926080333070495680003492600035020fc02443b39086c020256183f1220036c020240330880020228bc00330880020228b4005022fe02c63550200003193b502202033337502004030d3b39086c020256183f1220036c02024033088002022885003308800202287d9567ff079577394927d8074927d0074927c807647933020603140700000000717b484e01956800107b97e007330750200803bb3a9568ff079588394928c0074928b8074928a8074164893307049568ff079588e1074929b00750200a03903a39086c020256183f1120036c0202403308800202280833088002020183883307013309240a07014926580349265003492648039568400349264003017b67b80050200c034a3a3308208267b80050200e037c3e83783309203307330010030a07280e3309203307330010030a07015247a7c9ff013150221203f12d330014030a0a3302160328fe2d50221603fb2d51078b003308800202838833070128920252475df12f2f4850221803c02d33001a030a0a33021c0328cd2d50221c03ca2d5107b101330880020283883307012861028267b80081775617435b33088002028388330701284a025247be8a5636570150221e03772d330020030a0a3302220328842d50222203812d5107c201330880020283883307012818028267b8008177561723690133088002028388330701280002502224039335330026030a01330228032805355022280302359567801333002a033302540428b13795683810958900038297487b6798008297507b6790008297587b6788008297607b6780008267a0007b97208267a8007b97188267b0007b9710648a95676013956840138269b8007ba9080350202c03b012956b381095bc000382c82882c73082c93882ca407bca95ba00027ba9f8007ba7f000956720137ba8e80050202e0310209567381082688000957900027b98a000826888007b989800826890007b989000826898007b9888008268a0007b98c0008268a8007b98b8008268b0007b98b000647b956700139568e0129569c012826ab8007bbaa80250203003c0233308800202280ced5247686c9642a50050223203202c330034030a0a33023603282d2c502236032a2c5107d8003308800202838833070128c1008267b8008177561743d3003308800202838833070128a9009517e08477e07b67b800647183773308040a01018268b800828718828910828a828808977b2098bb20d4a909d48b0bd49b0b510b8c013308800202838833070128668267b8008177330843ac78e90133088002028388330701284d52479067cc7930502238037c2b33003a030a0a33023c0328892b50223c03862b5107da0233088002028388330701281d3308800202838833070128118388330701330933003e030a07280b330933003e030a07018267b8008177561723b502330880020228d8502240037b33330042030a013302440328ed3250224403ea329567a00733004603330254042899358267a0077b6798008267a8077b6790008267b0077b6788008267b8077b6780008267a0007b6778078267a8007b6770078267b0007b67680795678007956860078269b8007b696007502048039b10826880078267880782699007826a98077b6a58077b6950077b674807956740077b68400750204a03011e82678000956800067b87f800826788007b87f000826790007b87e800826798007b87e0008267a000956b00077bb7188267a8007bb7108267b0007bb70895672007956800079569e006826ab8007bba50204c033b1f33088002022804eb140a000000000bdb6579d37a0ad48a0ad49a0a88aa01140b00000000a7c9ff01d3b707d48707d49707887701d4a7074926d8004926d0007b67c000330780009568c0004926c80050204e03fd3539086c020256289f001820036c0202a00033078002028378800028b5fb33078002028378800028a9fb9567ff07957781003300500333025404283b349567ff079577398278607b68a0008278587b68a8008278507b68b0008277487b67b80033078002037b67980083770a03018269980082970882988199106f77987a206f88978b20d4ba0a9777206f99989920d497079888208269a800979920989920d398088269b800d39707d487078268b000d3a808d4870752073b019517e08477e07b679800647183773308040a0182699800829a829708829810829918826ba000956c00107bcb18f8826ba800956c00107bcb10f8826bb000956c00107bcb08f8826bb800956c00107bcb00f8956bff0795bb397bb97bb8f8956800107b8728f89567ff079577419568ff079588219569ff07959901956b00107bba20f85020520321203308800202286de98267b8008177330843ac78ea0033088002022830fd50225403d230330056030a013302580328443050225803413033078002037b679800837733005a030a038269980033025c032879288269980050225c037228826ba000959c00037bcbe000826ba8007bcbd800826bb0007bcbd000826bb8007bcbc800492900047bc8f8007bc7f0009567ff07957721049568ff07958801047bcae80050205e03ba22330880020228c7e89569ff07959939330a49193849193014070000000032b297667b97409568ff07958861491928330750206003df3339086c020256181f1220036c020220330880020228d5f6330880020228cdf69567ff07957701063300620333024a042827329568ff07958839958900058297c8007b67b8008297d0007b67b0008297d8007b67a8008297e0007b67a0009517e08477e07b67800064718377330824330064030a013302660328602f502266035d2f33078002037b67788377330068030a0333026a0328012d50226a03fe2c956aff0795aa39826b800095ac00057bcb8000826b88007bcb78826b90007bcb70826b98007bcb68492aa005826ba0007bcbc000826ba8007bcbb800826bb0007bcbb0007bc998007bc790007bc8880064ab9567ff079577e1059568ff079588c1059569ff079599a105826ab8007bbaa80550206c038d0d826780009568ff07958839958900057b9740826788007b9738826790007b9730826798007b97288267a0007b97608267a8007b97588267b0007b9750648a9567ff07957781059568ff07958861058269b8007ba9480550206e0312213308800202281fe7951130ff7b10c8007b15c0007b16b8009515d0008411f08289187b19108289107b19088289087b1982867b17289517900033084050207003f030821898008219900095671fd86700821ac80a0b8477e0c8b803c879027b1920d8920cc8c303d383067b1818d88309da6c098214a800d8ab0b8216a000da000b821708c87b0bd87b0cc86b0bc89b0a821710c84707c8c707d8ba0cd86b0bc8b707c8c70b8eb78eacdbb70cd4ba078e38db7c08520865d86a07d34b08d84b0cda870cd36a07d48707db7c0952094d7b12707b13787b1a80003307409518707b1b88007b14105020720381318217288218107b78187b76108218187b78088218207b78955130ff8210c8008215c0008216b8009511d000320049116049115849115033027403140700000000717b484e019518507b17683307502076032e314911484911404911304133070495183049113850207803153139086c020256183f0b20036c020240013308800202838833070133092433007a030a07019511c0fd951900027b90387b95307b9628951540028411e064168289107b69308289087b695082887b68587b67384926180249261002492608029568000249260002330750207c03a7304926f8014926f0014926e001063307209568e0014926e80150207e03893033086c020239076c020256173f0b20036c020240019517e08479e07b692864913307800202837783997b68483308407b6740330080030a063302820328af2550228203ac258267309777209877204926d8017b677b67d0018267507b67c8019568c0018267587b67c0013307502084031730826708956a00017ba7b8008267107ba7b0008267187ba7a8003307209568a0018269207ba9a00050208603ea2f826848818756173f08480840019517e08477e07b673050228803f52d33008a030a06826a3033028c0328d226826a3050228c03cc269567800150208e039e307c678001510708330828f001492678014926700149266801956860014926600150209003852f502292039c2850209403792f826848818756173f08480840019517e08477e07b673050229603842d330098030a06826a3033029a0328972b826a3050229a03912b7b67286f877b67206f977b67186fa77b67109517e08477e07b673064714926380182677b6730018267507b672801956820018267587b672001330750209c03032f826710956a00017ba7188267187ba7108267207ba708330720956800018269287ba950209e03db2e826848818756173f08480840019517e08477e07b67485022a003e62c3300a2030a06826a483302a403288124826a485022a4037b248268307b8a187b89107b8b087b879567e0005020a603812f8267e8008268e0008269f000826af800848800ff868b019518e08488e064817b8a187b89107b87087b8b8267305020a803b92f33078002037b674883773300aa030a038269483302ac0328d5238269485022ac03cf23d4780298aa206f99979820d4a8089899204916784926980082677b6790008267507b6788008267587b6780004926b8004926b0004926a8004926a0003a0a2801023a0b3001023a0c3801023a074001027b6ad8007b6bd0007b6cc8007b67c0007b69707b68689569c000956aa000956b8000956c607b6260330733085020ae03cd30330801018269387b984919084919104919189551c0fd951700028270388275308276289511400232003a074801027b67207b6738023a085001023a095801023a076001025022b203782a5020b403662d5022b60321245020b8035a2d33086c020239076c020256173f0b20036c020240019517e08479e07b6948649133078002025022ba03622b3300bc030a063302be03285e215022be035b215020c003162d5022c203b7255020c4030a2d826868818756173f0e4808403302c603285e235022c6035b233300c8030a063302ca03288c225022ca0389225020cc03cb2d7c67a001510711330833078269583302f40328b5235022ce03ac275020d003b72c5022d2038c235020d403ab2c826868818756173f0e4808403302d60328ff225022d603fc223300d8030a063302da03283c215022da0339215020dc03792c5022de03c6245020e0036d2c826868818756173f08480840019517e08477e07b67685022e2038b233300e4030a063302e6032853225022e60350225020e8032b2d5022ea036e225020ec038a2d33078002037b676883773300ee030a038269683302f00328a6218269685022f003a021d4780298aa206f99979820d4a808989920492698004926b80082677b67b0008267707b67a8008267787b67a0008267207b67d8008267187b67d0008267107b67c8008267087b67c0003a0a6801023a0b7001023a0c7801023a078001027b6af8007b6bf0007b6ce8007b67e0007b6990007b6888009569e000956ac000956ba000956c80007b628000330733085020f2038d2e33073308018269585022f4035d2232003a078801027b67207b6738023a089001023a099801023a07a001025022f80351285020fa033f2b5022fc03fa215020fe03332b33086c020239076c020256173f0b20036c020240019517e08479e07b694864913307800202502200043b29330002040a063302040428371f50220404341f50200604ef2a50220804902350200a04e32a826868818756173f0e48084033020c0428372150220c04342133000e040a063302100428652050221004622050201204a42b7c67a0015107113308330782695833023a04288e2150221404852550201604902a50221804652150201a04842a826868818756173f0e48084033021c0428d82050221c04d52033001e040a063302200428151f50222004121f50202204522a502224049f2250202604462a826868818756173f08480840019517e08477e07b676850222804642133002a040a0633022c04282c2050222c04292050202e04042b50223004472050203204632b33078002037b67688377330034040a0382696833023604287f1f82696850223604791fd4780298aa206f99979820d4a808989920492698004926b80082677b67b0008267707b67a8008267787b67a0008267207b67d8008267187b67d0008267107b67c8008267087b67c0003a0aa801023a0bb001023a0cb801023a07c001027b6af8007b6bf0007b6ce8007b67e0007b6990007b6888009569e000956ac000956ba000956c80007b6280003307330850203804662c330733080182695850223a04362032009511e0fe7b1018017b1510017b160801951520018411f0828b10828a18828c0882827b1a687b1c78d4ac08d4b20ad48a0a98aa207b1b70d4b808978820d4a8087b170852084b028297187b17488296108297087b175082977b17584921f8004921f0004921e8009518e0004921e0002064277b126050203c04c428821858d46807821948821a50d4a909d497079877207b1620d46909979920d497075207f2019517c00050203e045a27821770821868d47808140700000000010000007b17101407e0ffffff00000000821960d87907821a7894a77b181894875107b401821ad800821bd000821cc8008218c0008397207b18287b18a0007b1c307b1ca8007b1b387b1bb0009518a0007b1a407b1ab80064965020400426288217109577c0d876078218789487821818948751076201821748821820d487071408e0ffffff00000000821a58d88a08821b5094b8947851083e016469821828821c38d4c807821b40821630d46b0bd4b707987720d4cb0b97bb20d4b7075207170183974083aa207b1a58648650204204f22b7b1750821758646850204404e42b64788217506469502046046dac821760c86707d86708821978821b30c8b909c88909d3b90ad8b90bdaa80b821870821a38c8a808d8a80a821c68821640c86c0cc8ca0ac88b0bd88b08c8a808d4b808140ac0ffffff00000000d8a70a949a948a510a9400837740492198004921900049218800951880004921800050204804242782162895661f1407e0ffffff01000000d26707821860c88707d88708821a78c88a09d8a90ada880a821870c88a0ad88a08821b68c8b808957b40d87b07c8790cd89c09da7709c8a909d8a907c887078218087b8b7b8c087b89107b87189551e0fe8210180182151001821608019511200132000033080433004c040a0133024e04287a2250224e047722510a0b50225004ba233200330880020283883307013309330052040a073302540428f02450225404ed24330824330056040a0133025804283a22502258043722510a0b50225a047a23320033088002028388330701330933005c040a0701951160ff7b1098007b1590007b1688009515a0008411e064168289828a08828b108288187b67187b68787b6b707b6a689568607b6960330750205e04fe254916584916504916400633072095684049164850206004e52539086c020256183f0b20036c020240019517e08479e07b691064913307800202837783993308400a06826a1082a782a80882a91082aa186f776f886f996faa95aa0188ab01c8b909d49a0b88bb01c88b0bd88b08c887079518e08488e064817b89087b8a7b8b107b8718956720502062046526826730826838826920826a28826b187bb7107bb8187bb97bba08955160ff8210980082159000821688009511a0003200951100fd951a00027ba0f8007ba5f0007ba6e800951500038411e06416829a187b6a9800829a107b6a9000829a087b6aa00082997b69a8008289107b6988008289087b69800082887b68788279827808807710140affffffff000000007b6a704926d8027b67407b67d0027b68307b68c8029568c0027b69387b69c002330750206404bd244926b8024926b0024926a002013307209568a0024926a802502066049f2433086c020239076c020256173f0b20036c020240019517e08479e07b696864913307800202837783997b68b0003308407b67b800330068040a06826a6833026a04288f1d826a6850226a04891d8267788477ff826880008488ff82698800826a70d2a909492698027b69787b6990027b6880007b688802956880027b6788007b678002330750206c041424826748956a00027ba7788267507ba7708267587ba768330720956860028269607ba96050206e04eb238268b000818756173f08480840019517e08477e07b677050227004b420330072040a06826a703302740428101e826a70502274040a1e95674002502076049e248260580282635002826b480282624002d20b07d23208d287073308ffaa87f7018267a800d872098268a000d38b07d88b0c7b6950da790c82699000d8930a82689800d38007d880087b6a28da7a08d39309d497077b6c48da7c087b62707b6b687b60607b63585208c701826a40826938d4a907826430d447075107860282678800826878d4870782688000d487075107b502492638027b6920027b642802956820027b6a3002330750207804fd2249261802492610024926000201330720956800024926080250207a04df228268b000818756173f08480840019517e08477e07b674050227c04a81f33007e040a06826a403302800428fc1e826a4050228004f61e7b67386f877b67306f977b67206fa77b67189517e08477e07b674064714926f8018267787b67f001826780007b67e8019568e001826788007b67e0013307502082046522826718956a00017ba7d8008267207ba7d0008267307ba7c8003307209568c0018269387ba9c0005020840438228268b000818756173f08480840019517e08477e07b67b00050228604001f0a068269b00082976f77829808826c407bc7188297108299186f887bc8106f777bc7086f977bc782679000826858c97807826848c98709d8870782689800826a60c98a08826a28c9a808c978078268a000826a68c98a08826a50c9a80a8268a800826b70c98b0b9518e08488e064817b87187b89107b8a087b8b64c750208804f622955100fd951700028270f8008275f0008276e800951100033200492630014926280149262001140700000000b2418ffb956820017b673801330750208a04582149261801826778956a00017ba710826780007ba70833070495680001826988007ba950208c0430218267607b67f8008267587b67f0008267687b67e8003307249568e0008269707b69e00050208e040721826798007b67d800826790007b67d0008267a0007b67c8003307449568c0008269a8007b69c00050209004da208267b000817756177f158268b0004808800033070133096428c8003307013309648268b800330098040a0728c00049267001492668014926600114070000000005df02e6956860017b67780133075020920486204926580149265001492648013307049568400149264001330096042865204926b0014926a8014926a001140700000000620d28949568a0017b67b801330750209404422049269801492690014926880133070495688001492680015020960425208267b000817756173f138268b00048084033070133092428143307013309248268b800330098040a07280d8268b800330098040a07019511a0fc951a00037ba0587ba5507ba648951560038411e06416807c10827a827b087b6a787b6c68d4ca077b6b70d4b7075107ed03828710828a088288330bff140cffffffff00000000d2ba0ad2b808d2c7077b68487b6738d487077b6a40d4a70751071c048297187b6798008297107b6788008297087b67800082977b67900050209a04a81249263803826768956900037b97308267707b9728956820038267787b9720330750209c04421f492618034926100349260803330720956800034926000350209e04251f33096c020239076c020256173f0b20036c020240017b69589517e08479e07b695064913307800202837783993308407b67603300a0040a06826a503302a20428ca14826a505022a204c4149567e0025020a404c31f956800028289f8008287f000828ce800828be00082689800d389037b6928d8890882698800d8970a7b6a10da3a08826a8000d3ac027b6c30d8ac0c826a90007b6b50d8ab0a7b6a18da2a0c7b6720d37909d439077b6c08da7c0852086f034926d802826778956900027b97c0008267707b97c8009568c0028267687b97d00033075020a604491e4926b8024926b0024926a8023307209568a0024926a0025020a8042c1e82678800826820c97807826908c997087b6820d8970782689800826928c98908826910c99808c978087b6828826958819782688000826a30c98a08826a18c9a8087b6830330b3f82689000826a50c98a0a7b6a50ac7b07480940019517e08477e07b67185022aa04fc143300ac040a06826a183302ae0428d215826a185022ae04cc158269287b89188269207b89108269307b89088269507b895020b004ea1e49269802826738956900027b9790008267407b978800956880028267487b97800033075020b204631d5022b404501a5020b604571d8268589517e08477e07b67506471818756173f08480840019517e08477e07b67585022b8046a140a06826a5882a71882a81082a90882aa6f776f8b6f996faa8268507b8a187b89107b8b087b87956740025020ba04f31d826848028269400282625802826b5002826c8000c88c0c82679000c89707d89709c89c0cd38c0ad88c08daa90882698800c8b909826a9800c8a202d8b90ac82a0a5022bc0489158267505020be040e1e956720023308405020c004681b956b000282ba3882b83082b92882b7205022c2045a145208bb0082689000956a00027ba8826880007ba808826888007ba81095680002826998007ba9187b6798005020c4045c1c4926b801826738956c00017bc7b0008267407bc7a8008267487bc7a0004926d8018267687bc7d0008267707bc7c8003a07c801023a08d001023a09d80102826a787bcac0007bc7f8007bc8f0007bc9e8003a07e001023308209569e001956ac001956ba0017bc7e000826798005020c604171e9551a0fc95170003827058827550827648951160033200004926d0004926c8004926c0001407000000001efdc6969568c0007b67d80033075020c804ab1b4926b8004926b0004926a8003307049568a0004926a0005020ca048e1b39086c020256183f1120036c0202403308800202286833088002022861492610014926080149260001140700000000052f44ec956800017b67180133075020cc044b1b4926f8004926f0004926e8003307049568e0004926e0005020ce042e1b39086c020256183f1120036c0202403308800202280833088002020183883307013309240a07014926900149268801492680011407000000008cd350e4956880017b67980133075020d004e11a492678018267687b6770018267707b676801330704956860018269787b6960015020d204bb1a8267287b6758018267207b6750018267307b674801330724956840018269507b6940015020d404921a82679800956a00017ba738826788007ba730826780007ba72833074495682001826990007ba9205020d604651a826758817756177f0c82685848088000013307013309648268603300d8040a0701951160fe7b1098017b1590017b1688019515a0018411e064163a07e801027b67387b6778013a08f001023a09f801023a070002027b68287b6870017b69207b696801956860017b67307b67600133075020da04ef195022dc0406135020de04e31933086c020239076c020256173f0b20036c020240019517e08479e07b696864913307800202837783997b68783308407b67703300e0040a063302e204288f125022e2048c1233078002037b676883777b67183300e4040a033302e60428c7105022e604c4105020e80478195022ea04e8145020ec046c19826878818756173f0e4808403302ee0428b0175022ee04ad173300f0040a063302f20428a6125022f204a3125020f4042d1a7c67e000510719955160fe8210980182159001821688019511a00132005022f60457145020f80411198267183300fa040a033302fc0428e2105022fc04df105020fe04f5188267387b6798008267287b6790008267207b678800330724956880008269307b69800050200005cc18826778817756175f0b82687848086001330701330944826870330002050a0701951160fe7b1098017b1590017b1688019515a0018411e064168279827808827a108277187b67207b6778017b6a287b6a70017b68307b686801956860017b69387b696001330750200405601850220605771150200805541833086c020239076c020256173f0b20036c020240019517e08479e07b696864913307800202837783997b68783308407b677033000a050a0633020c0528001150220c05fd1033078002037b676883777b671833000e050a033302100528380f50221005350f50201205e91750221405591350201605dd17826878818756173f0e48084033021805282116502218051e1633001a050a0633021c0528171150221c05141150201e059e187c67e000510719955160fe8210980182159001821688019511a001320050222005c812502022058217826718330024050a033302260528530f50222605500f5020280566178267207b6798008267287b6790008267307b678800330724956880008269387b69800050202a053d17826778817756175f0b8268784808600133070133094482687033002c050a07019511a0fd951a00027ba0587ba5507ba648951560028411e06416829a107b6a50829a087b6a7082997b69788289828a08828b108288187b67587b68087b6838027b6b107b6b30027b6a187b6a2802956820027b69207b692002330750202e05bc1650223005770d50203205b01633086c020239076c020256173f0b20036c020240019517e08479e07b69486491330780020250223405b814330036050a063302380528b40a50223805b10a50203a056c1650223c050d0f50203e056016826868818756173f0e4808403302400528b40c50224005b10c330042050a063302440528e20b50224405df0b5020460521177c67a0015107113308330782695833026c05280b0d8267207b6780018267187b6788018267107b679001956880018267087b679801330750204805f11550224a05c60c50204c05e515826868818756173f0e48084033024e0528390c50224e05360c330050050a063302520528760a50225205730a50205405b31550225605000e50205805a715826868818756173f08480840019517e08477e07b676850225a05c50c33005c050a0633025e05288d0b50225e058a0b50206005651650226205a80b50206405c41633078002037b67688377330066050a038269683302680528e00a82696850226805da0ad4780298aa206f99979820d4a808989920492698004926b80082677b67b0008267707b67a8008267787b67a0008267087b67d8008267107b67d0008267187b67c8008267207b67c0003a0a0802023a0b1002023a0c1802023a072002027b6af8007b6bf0007b6ce8007b67e0007b6990007b6888009569e000956ac000956ba000956c80007b6280003307330850206a05c717330733080182695850226c05970b32009511a0fd951a00027ba0587ba5507ba648951560028411e06416829a107b6a38829a087b6a7082997b69788289828a08828b108288187b67307b68407b6838027b6b487b6b30027b6a507b6a2802956820027b69587b692002330750206e053f1450227005fa0a50207205331433086c020239076c020256173f0b20036c020240019517e08479e07b692864913307800202502274053b12330076050a0633027805286009502278055d098267389777209877204926f8017b67387b67f0018267707b67e8019568e0018267787b67e001330750207a05c713826708956a00017ba7d8008267107ba7d0008267187ba7c8003307209568c0018269207ba9c00050207c059a13826868818756173f08480840019517e08477e07b672050227e05b80a330080050a06826a203302820528820a826a20502282057c0a9567a001502084054e147c67a0015107e9018267587b6780018267507b6788018267487b679001956880018267407b6798013307502086052b1350228805000a50208a051f13826868818756173f08480840019517e08477e07b672850228c053d0a33008e050a0633029005285b08502290055808492658018267387b6750018267707b674801956840018267787b674001330750209205cb12826708956a00017ba7388267107ba7308267187ba728330720956820018269207ba92050209405a212826868818756173f08480840019517e08477e07b676850229605c009330098050a06826a6833029a05288a09826a6850229a0584099567000150209c055613956b000182b70882b91082b882ba18848b00ff9518e08488e064817b8a187b89107b87087b8b82672850209e05921333078002037b676883773300a0050a038269683302a20528ae078269685022a205a807d4780298aa206f99979820d4a808989920492698004926b8008267387b67b0008267707b67a8008267787b67a0008267407b67d8008267487b67d0008267507b67c8008267587b67c0003a0a2802023a0b3002023a0c3802023a074002027b6af8007b6bf0007b6ce8007b67e0007b6990007b6888009569e000956ac000956ba000956c80007b628000330733085020a405941433073308018269303302a60528600833088269305022a60558083200951140fd951900027b90b8007b95b0007b96a8009515c0028411e06416807a108279827b087b69587b6a48d4a9077b6b50d4b707510745038287187b67788287107b67688287087b676082877b67705020a8054c0449269802826748956900027b9790008267507b978800956880028267587b97800033075020aa05e3105022ac05d00d5020ae05d71033096c020239076c020256173f0b20036c020240017b69389517e08479e07b693064913307800202837783993308407b67403300b0050a06826a303302b205287c06826a305022b2057606956740025020b405751195680002828958828750828c48828b40826878d389037b6920d88908826968d8970a7b6a08da3a08826a60d3ac027b6c28d8ac0c826a707b6b30d8ab0a7b6a10da2a0c7b6718d37909d439077b6cda7c085208ac0249263802826758956900027b97208267507b9728956820028267487b973033075020b605071049261802492610024926080233072095680002492600025020b805ea0f826768826818c978078269c997087b6818d89707826878826920c98908826908c99808c978087b68208269388197826860826a28c98a08826a10c9a8087b6828826a70826b30c9ab0b7b6b3056173f08480940019517e08477e07b67385022ba05ae0d3300bc050a06826a383302be05289707826a385022be0591078269207b89188269187b89108269287b89088269307b895020c005af105022c2054c0d4908029567e0015020c4053110826be8018267f8017b67408264e0018262f001826960d39b03d89b0c826870d88400da300c826768c97203c9c30a7b6a38d8c303d87207826c78826a40c9ca0cc97c0cc93c0cc99b07c90709c9840a9517e08477e064714917184917104917084907029518e08488e064817b8c18826b387b8b107b89087b8a5020c6051d109567c0013308405020c805770d956b000182b7d80082b8d00082b9c80082bac0005022ca0528095207af008267707b67a0018267607b67a8018267687b67b0019568a0018267787b67b80164a77b6a785020cc05690e4926580149265001492648014926400149267801826748956c00017bc7708267507bc7683a074802023a085002023a09580202826a587bca607bc798007bc890007bc988003a0760020233082095698001956a6001956b40017bc780008267785020ce053110955140fd951700028270b8008275b0008276a8009511c0023200004926b0004926a8004926a0001407000000001efdc6969568a0007b67b80033075020d005c20d49269800492690004926880033070495688000492680005020d205a50d39086c020256183f0b20036c02024001330880020283883307013309240a07014926300149262801492620011407000000008cd350e4956820017b67380133075020d4055f0d49261801826748956a00017ba7108267507ba708330704956800018269587ba95020d605390d8267207b67f8008267187b67f0008267287b67e8003307249568e0008269307b69e0005020d805100d8267787b67d8008267687b67d0008267607b67c8003307449568c0008269707b69c0005020da05e70c826738817756177f0c82683848088000013307013309648268403300dc050a07019511807b10787b1570951580008411e0491158491150491148491140059517209518405020de05900d7c1720520712955180821078821570951180003200491110491108490114070000000065063cd964187b171833075020e005690c39086c020256181f0b20036c02022001330880020283883307013309043300e2050a07019511f87b1033075020e4057d919511f87b103307015020e6056f919517e08477e07b67b00064713308491718491710491708490783773202826ab00082a71082a81882a90882aad49808d4a707d48707320282970881981082996f77977a206f88988820d48a0a9877206f98978920d497079888209569ff079599393202826a4882a71882a81082a90882aa6f777b67406f877b67386f977b67306fa77b67289517e08477e07b674864718267509777209877204926f8017b677b67f0018267707b67e8019568e0018267787b67e0013307320282970881981082996f77977a206f88988820d48a0a9877206f98978920d497079888203202826a5082a71882a81082a90882aa6f777b67486f877b67406f977b67386fa77b67309517e08477e07b675064714926580182677b6750018267707b674801956840018267787b67400133073202826cb8008263588237823818823908823a10957701887b01c8b909d4970b88bb01c8ab0bd8ab0ac8a808643a7ba77ba9087bab107ba8188268a000958720d88708826aa800c88a09d8a90ada880a8268b000c88a0ad88a08c88c0c647064943202826a2882a71882a81082a90882aa6f777b67206f877b67186f977b67106fa77b67089517e08477e07b67286471320282970881981082996f7a97a7206f889888203202826a5082a71882a81082a90882aa6f776f8b6f996faa8268487b8a187b89107b8b087b879567a001320282a71882a81082a90882aa6f776f8b6f996faa320282a71882a81082a90882aa6f776f8b6f996faa9518e08488e064817b8a187b89107b8b087b873202826a6882a71882a81082a90882aa6f776f8b6f996faa8268507b8a187b89107b8b087b87956700013202956b000182b70882b882b91082ba18848800ff868b019518e08488e064817b8a187b89107b87087b8b82675032029517e08477e07b6750647183793308408267603202826b180188b98000826ad000db9a08826cd800826ae800d4ca0ada970a93b8ff93baff826be000939b939c8267f000e0a7078269f800e0890982680001e0c80a3202492618024926100249260002063307209568000249260802320249267801492670014926600106330720956860014926680132027b987b97087b97107b97189551a0fd9517000282705882755082764895116002320282a71882a81082a90882aa6f776f8b6f996faa8268287b8a187b89107b8b087b87320264718379330840826760320282696882970881981082996f77977a206f88988820d48a0a9877206f98978920d49707988820492638017b6830017b672801956820017b6a200133073202826c1001d3c80bd8c808daba0882690801d8930a826c0001d3c40bd8c40cdaba0c7b7310d39309d4b909da980c7b74183202d49b0bd48709d4b909989920d4b808978820d498083202d49a0ad48709d4a909989920d4a808978820d49808320282696882970881981082996f77977a206f88988820d48a0a9877206f98978920d497079888204926b8007b68b0007b67a8003307049568a0007b6aa000320282a71882a81082a90882aa6f7b6f886f996faa9517e08477e064717b7a187b79107b78087b7b9518e08488e064813202826730956a00017ba7388267387ba7308267407ba728330720956820018269487ba92032028260a0008264a8008263b000826878c80807d88708826b70c84b09c88909d3b90cd8b90bdac80b826c68c83c083202826728956a00017ba7d8008267307ba7d0008267387ba7c8003307209568c0018269407ba9c0003202c8890bd89b08c88a0a9518e08488e064817b8b107b8c087b877b8a183202826a6882a71882a81082a90882aa6f777b67586f877b67506f977b67486fa77b67409517e08477e07b676064713202492658014926500149264001063307209568400149264801320282a71882a81082a90882aa6f777b67606f877b67586f977b67506fa77b67489517e08477e07b676864713202826a5882a71882a81082a90882aa6f776f8b6f996faa8268607b8a187b89107b8b087b879567e000320282c782c80882c910957701887a01c8a80882ca18d4870b88bb01c89b0bd89b09c8a9097bc77bc8087bcb107bc918320282697882970881981082996f77977a206f88988820d4a8089877206f99979a20d4a7079899203202977b3f988c01d4bc0397ac3f987701d4c70797883f989c01d4c80898aa018499019a9c3202939b939c8268f800e0a808956a000182a9e0790782a908e0c90c82a910e0b90b32029517e08477e064714917184917104917084907059518e08488e064817b8b187b8a107b89087b8c320282a71882a81082a90882aa6f776f8b6f996faa8268687b8a187b89107b8b087b8732029518e08488e064814918184918104918083307027b873202d49707d48a09d47909989920d48707977720d497073202492650014926480149264001140700000000717b484e956840017b67580133073202c89c0cd89c0ad84909c89307c8a707d4c809d4b707d47909989920d4c707977720d4970732028267207b6798018267187b6790018267107b678801956880018267087b67800133073202d47909826ae000d48a0a8267e800d47b0b8267f000d47c0c9517e08477e06471330849171849171049170832024926d0004926c8004926c0001407000000003f7d51e29568c0007b67d800330732028eb9858801dbb9088e498ecadac90ada780a3202826740956a00017ba7188267487ba7108267507ba708330720956800018269587ba93202826740826838d487071408e0ffffff00000000826a50d88a088269489498947832028268a00082877b67b8008287087b67b0008287107b67a8008287187b67a000320282171082181814090000000001000000d37909d48909987a2088aa01948a939a32028268800082877b6798008287087b6790008287107b6788008287187b678000320249263801492630014926200141330704956820014926280132029517e08477e07b67a00064718377330804320282a71882a81082a90882aa6f7732029518e08488e064814918184918104918084908059567ff0732028267b0008268a000d487078268b800648b8269a800d49808d47808988820d49707977720d48707320282c7a00082c8980082c9900082cb8800d49707d48b09d47909989920d48707977720d497073202c88b0bd88b08c8c808d49808d4b709d48909d4b808989920978820d498083202647183793308408267b8003202492678024926700249266802330720956860024926600232027b68187b6830027b69107b692802956820027b67087b672002330732028219821a087b697b6a087b67107b68189551c082103882153082162895114032027b67d8007b68e0008267d000d487077b67d000826718019579803307ff3308ff320297773b9878387b6818019a8980003307ff3308ff3202c89407c8b707d4c809d4a707d47909989920d4c707977720d4970732029518e08488e064817b8b187b8a107b89087b878267080132029518e08488e064817b8b187b8a107b89087b878267100132029518e08488e064814918184918104918083307047b8732029518e08488e064814918184918104918083307037b8732029518e08488e06481491818491810491808320297a8037b6818018d8980003307ff3308ff3202647183793308408267403202837783997b68683308407b676032029517e08477e064714917184917104917083309027b7932029517e08477e07b67586471837933084082677032029517e08479e07b690001649132029511c07b10387b15307b16289515408411e06476831732028411e064168289107b69508289087b697082887b68787b6758320239087002025108eb9d3307a0020383770a0828de9d9511f07b10087b156489647533082064975020e80569057c78017c797c7a027c7b03978808d4980897aa1097bb18d4ba0ad4a8087c79057c7a047c7b067c7c07979908d4a90997bb1097cc18d4cb0bd4b909979920d489027c79097c7a087c7b0a7c7c0b979908d4a90997bb1097cc18d4cb0bd4b9097c7a0d7c7b0c7c7c0e7c780f97aa08d4ba0a97cc10978818d4c808d4a808978820d498037c78117c7a107c7b127c7c13978808d4a80897bb1097cc18d4cb0bd4b8087c7a157c7b147c7c167c791797aa08d4ba0a97cc10979918d4c909d4a909979920d4890a7c78197c79187c7b1a7c7c1b978808d4980897bb1097cc18d4cb0bd4b8087c791d7c7b1c7c7c1e7c771f979908d4b90997cc10977718d4c707d49707977720d487076f776fa86f396f2a7b5a187b59107b58087b57821008821595111032009511d87b10207b15187b161082897b19088289087b198285108286183308205020ea0520046f686f59821a6faa821b086fbb787b18787a10787908787898bc38787c1f98bc30787c1e98bc28787c1d98bc20787c1c98bc18787c1b98bc10787c1a98bb08787b1998ab38787b1798ab30787b1698ab28787b1598ab20787b1498ab18787b1398ab10787b1298aa08787a11989a38787a0f989a30787a0e989a28787a0d989a20787a0c989a18787a0b989a10787a0a98990878790998893878790798893078790698892878790598892078790498891878790398891078790298880878780182102082151882161095112832009511a07b10587b15507b16489515608411e06476828718828910828a0882886f776f996faa6f887b18387b1a307b19287b1720831820831933070a05821718821810821908821a6f776f886f996faa7b6a187b69107b68087b679551a082105882155082164895116032009511a07b10587b15509515608411e08272827a08827b108277188283828908828c108288186f746fbb6faa6f276f826fcc6f996f387b17387b1a307b1b287b14207b18187b19107b1c087b12831820831933070a099551a082105882155095116032009511a07b10587b15507b16489515608411e0829a7b1a18829a087b1a10829a107b1a088299187b193306205020ec05530282186f888219086f99821a106faa821b186fbb7b1b387b1a307b19287b18208379836a8317203308010a049551a08210588215508216489511603200951120ff7b10d8007b15d0007b16c8009515e0008411e082bc7b1c4082bc087b1c4882bc107b1c5082bb187b1b5882ab7b1b1882ab087b1b2082ab107b1b2882aa187b1a308296829a087b1a829a107b1a088299187b1910491138205020ee05b5016f687b187882186f887b18708218086f887b18688218106f887b18608218186f887b1898008218206f887b1890008218286f887b1888008218306f887b1880008218406f887b18b8008218486f887b18b0008218506f887b18a8008218586f887b18a0008379811a388317603308030a04955120ff8210d8008215d0008216c8009511e00032009511e0fe7b1018017b1510017b160801951520018411e082c67b166082c6087b166882c6107b167082cc187b1c7882bc7b1c3882bc087b1c4082bc107b1c4882bb187b1b5082ab7b1b1882ab087b1b2082ab107b1b2882aa187b1a308296829a087b1a829a107b1a088299187b19104911585020f005b6006f687b18980082186f887b1890008218086f887b1888008218106f887b1880008218186f887b18b8008218206f887b18b0008218286f887b18a8008218306f887b18a0008218386f887b18d8008218406f887b18d0008218486f887b18c8008218506f887b18c0008218606f887b18f8008218686f887b18f0008218706f887b18e8008218786f887b18e0008379811a58831780003308040a049551e0fe821018018215100182160801951120013200838951092b8b7910520931c8780883881f8488e056380000012533096c0202390a6c0202ae8a093d086c02020133088002028377c88707320000849a40520a195109148d9a40d0a70acf9707cf9808d4a808320032009598c0cf870833073200849a40520a195109148d9a40cfa80ad09808d09707d4a707320032009597c0d078073308320049922425494b2a252da9944c4949496948242222222245449088484444448a88882091881011111111d188888888244988888888101111218908454724224444229188101121222292244912118988880811910012952442444484881011219294244992884844444488880490a8241111404442448888a8448924224924448824094992a45212928888888888500891908450294924499224922415459524491249248924499244924492249124515295244992482449922489249262898424252944499224498a44129148922449922489482222221492288524aa14a2aaa814494a941a91449288442211898888484a9224241121222284089124929444224992482251559244444492249124494412499248880811111111911022920821844808c924499224254952929288842449121111113191488410912421221291244444229224424292921422424444258a4844242242848888084992a452844844444444442884484842a8144924894492489254145592248948224924499224922492442492244aaa9224922412499224492289a458222149490a519224499222118948442222221492288524aa9428aa2a519124a254a26844128948221189482422922421224492841021924812492492481249a4aa1291482222221189442491240922824824128908828824822008224110234922492449529224252912092222229148242689249124124110114982884844922022129124114490a42405218a282211444444041145248288888888481291882212414412918848129168a4249194241144041144444452922449924892248924499224258220a2884410111151101189089228444224085189221241242982888824499224912488201244444410894422222288282211242589888810428848922422228248101111410ca5501645822008420421211111018c2888088908420421211111018c2888088908420421211111018c28880889084204212111114044414424220811848444440011052182a1a41111018c28880889084204a1b0a4918a89824a881049a28a4602090824209080804002020924904002020908248822411245820822111109229124411245444444248822411225898848241289445094241249225210890825228210229844a12211452482284a49a24822111111115190484422a24444045164129588221241242922884444248844444490441111111109a2489044914810114982242222221244912089920410119188888888884424128988448a88828808252208218249142a1251442288524a124522118988888882444422512222882293a84414910822491144444444444482882089482412114524882241124522414444044944448848104582248a44828848122421124248221109a24890449148108944224104111149124992444a9244a288144992244992242511914824224124411291444444440455ca24499224499224499224959424499224499244442222228244922489888888888820222249922411111109a2489044492222128948444412952291481421918810422211912888448412114108114c52284a44892408295122092292881424124992129108a2c824419448828820124992882449104404918888488a449224912492244992242509824824222222a2201211252282244591490451442248922282484444442249924824091244248844240992884422119108229188888888082184489244444444044551822812245124124424499204114444449224491229492291282245922449922449494444444444049104494422491211411565922449922449922449924a4a922449922449a224894444049112914844229122221244442449928824924992249148922449922882a228411409922812041144229288882088481089888888085114092282888888821022112244898808422588224112458208229148149120222282888888888828228104512448a2241111894444444444144422a2444410229844a112452482882012111111111109221144442291888822124491208922411024228844924482202241241289442244512488082292881484108910214a4444102a5594208a04491449a252942422222288888888880411111144442291881491208a044994242212914824124954a24810521409222222222222222222224944441009222222828808111109a2481051222212111111111189442291242a512408294a24414444444444241289222222828888888844229188888888888820124492041111112212449120a2100922222282081121848888880451248828111189888888244aa25224299214a268a42411494422115144228888888288908820840826295424a24412a49492a4888888888244922491045164129528925495244510092249414449222222828822124152928888888810428888884844440491209224881111a120a92a84104a5292244992244946224924922449a28888204824092292a424120425222242415255082194a42449922449928c44924824499244111141904812444444444444109450124a4249280925a12494849250124a4249280925a12422228011051121114188202424948492880820220a1225922022494482442249522212411491244a12251211051011059188281111894444014444412422948808a28824514934948492484414404414442242898820441012124a424949001191821041282c69280925014114092294849250124a4249280925a12494849250124a4249280925111140444144242208118484444400110511918820441012120441102208094522a20860444124229488084204a1b0a41111218244508a4ad140104582082581208a04114aa208250141140922944421940451248888442412894424122922228848922222228888888888888888282222829080208a04114aa2104a92a83492922489508a12a11408a24810a1144aa5a8a251080551248888444444444444444444041111111111444444444444229188888290009224802449444444104220444224222291442291085123a594a4249124924822894a51928888888888884889884422114148940809a24810a228221144444444444444444410122909209114840842422222128988888888242a512408298a0491888844221111111111454444440411894422914824524444441012111149925422414452922449924824499224492a29499224492289044992a4888828490430294822491022184aa21149222549494444144484440421443049a19244912049148948142422914824821499248812491041a4444444100429324910259220a59424459188444122499248418a4c1244892448922288888824252941485122099292248a44222222841022229288482ac89424224914122184200882102298a41044912008821489045124082295481004418a448228120441902293045124088220a42891044949228a442291482442082122222222222a28090a89104210044108114c5208a2481004418a4482281204914a240882204522411409822048914982281204411052944882a4241145229148241221841011111111111594044544449294244992249224252222942049922449449024800490a4141111492412912848925224092049454992244922494152500a922449922449922409201589888820092049922449922449929244444413458204855214091245820485523422225249922429482249102298a4502925a94a9224494a49822449522222a28888889448248a44a294049048242251101112118410c124858a44944882241249242222a22091244924411499248812491041444492442492241249922449124992882412111151101112114491498228910429a5242912111151908844229108a2c82482a29224a554244922491249124952920a2222228a8800220a229148220a1289442211444444242282282292241125220288288888444422228088828848441045242989a88846248994922489a404902449128944a208229124928288484410420493a4504994488208222222924492481249922489484422120511918820922489244952244912499249822891044992a42012918844411024494526094a92aa92a40822222291244924920409224124491011452211892012914844221142484444484444041149a21111404441442422081184421111404441442422081184c2924644001105914824124122914824828844228948902231493422225248841012894814044108114c52a82451240829512408822045224114098248444414048922419048241289204532493422225249128944240a82208408262954922812849428120441902291208a04412422220a824491204824128944902299241a91245292949224914844a2200842886092421045822008522412449120885422894422120541902291208a044110a4c824411409822008294a244152928822914824128910428888888888880a4a822292444a9252922412894814044108114c5208a248902412894814242291482482149924881249104144229188444110a4c824411409229188444122499248821499248812491041242592929420a42891044949221289442291488410424444444444545012294111111129254912499294201291884441108410c1242954122592208248922449922449922429118924911444442282242549922429499224894c1244892448922405412288484492244992244992242549529214448288880822914844a2041111914812424822222422224144444423228088828848441022184a1a11014414442249220589442291081289442211a4484c124d12491249902489920228052182a1249a0a5282242a4915494a5252294949222549a59492a4245124225149a5242529492aa5942445918844454a922449524922892491a44a924a292549259552925495244549aa2a495549492a49aa4a92a2484924294929492545442292242a1289141112514448442589481225a92a49aa9292544a52928888a84812892449929224494992a4249592942422125192aa92929454224992488a882449922425229148244a92949492a4524a495211211125a9945292549254952445254992242949492a25294949922449aa225192a4a424494a5249aa4a924a4a924a9224454400119524499224251289485422914852498a880022aaa492124992442a490049aa2812894449004952459148248a088928894a49aaa4248922124592244544244992922449922a514424a2442212554a922429221291a42422294992242525294a4a529494249594249594a444245552252929492a4925255149925429494a0a112a4995829424499224499224499224499224499224499224499224499224499224499224495592524a929292045529494992244992244992244992244992244992244992244952922425a92a495225a92a494992922425294955559224295592942449499294a0524a495249499222222225499292244929492228959494142952a4489122458a921411114544444a922425499292244929491214152952a4489122458a142952a448912245891411119524491042c2509a24495249254992545200",
          "opcodes": ""
        },
        "methodIdentifiers": {
          "DEFAULT_ADMIN_ROLE()": "a217fddf",
          "MINTER_ROLE()": "d5391393",
          "PAUSER_ROLE()": "e63ab1e9",
          "allowance(address,address)": "dd62ed3e",
          "approve(address,uint256)": "095ea7b3",
          "balanceOf(address)": "70a08231",
          "burn(uint256)": "42966c68",
          "burnFrom(address,uint256)": "79cc6790",
          "decimals()": "313ce567",
          "getRoleAdmin(bytes32)": "248a9ca3",
          "grantRole(bytes32,address)": "2f2ff15d",
          "hasRole(bytes32,address)": "91d14854",
          "mint(address,uint256)": "40c10f19",
          "name()": "06fdde03",
          "pause()": "8456cb59",
          "paused()": "5c975abb",
          "renounceRole(bytes32,address)": "36568abe",
          "revokeRole(bytes32,address)": "d547741f",
          "supportsInterface(bytes4)": "01ffc9a7",
          "symbol()": "95d89b41",
          "totalSupply()": "18160ddd",
          "transfer(address,uint256)": "a9059cbb",
          "transferFrom(address,address,uint256)": "23b872dd",
          "unpause()": "3f4ba83a"
        }
      },
      "hash": "62a63bab867ad31eea27594b32798141020d9ed7354a56e89ba02c0f409a7bab",
      "factoryDependenciesUnlinked": [],
      "factoryDependencies": {},
      "missingLibraries": [],
      "objectFormat": "PVM"
    }
  }
}