{
  "_format": "hh-sol-artifact-1",
  "contractName": "UUPSProxy",
  "sourceName": "contracts/upgrade/uups.sol",
  "abi": [
    {
      "inputs": [
        {
          "internalType": "address",
          "name": "_implementation",
          "type": "address"
        }
      ],
      "stateMutability": "nonpayable",
      "type": "constructor"
    },
    {
      "stateMutability": "payable",
      "type": "fallback"
    },
    {
      "inputs": [],
      "name": "admin",
      "outputs": [
        {
          "internalType": "address",
          "name": "",
          "type": "address"
        }
      ],
      "stateMutability": "view",
      "type": "function"
    },
    {
      "inputs": [],
      "name": "implementation",
      "outputs": [
        {
          "internalType": "address",
          "name": "",
          "type": "address"
        }
      ],
      "stateMutability": "view",
      "type": "function"
    },
    {
      "inputs": [
        {
          "internalType": "address",
          "name": "_newImplementation",
          "type": "address"
        }
      ],
      "name": "upgrade",
      "outputs": [],
      "stateMutability": "nonpayable",
      "type": "function"
    },
    {
      "inputs": [],
      "name": "value",
      "outputs": [
        {
          "internalType": "uint256",
          "name": "",
          "type": "uint256"
        }
      ],
      "stateMutability": "view",
      "type": "function"
    }
  ],
  "bytecode": "0x608060405234801561001057600080fd5b506040516106a03803806106a08339818101604052810190610032919061011c565b806000806101000a81548173ffffffffffffffffffffffffffffffffffffffff021916908373ffffffffffffffffffffffffffffffffffffffff16021790555033600160006101000a81548173ffffffffffffffffffffffffffffffffffffffff021916908373ffffffffffffffffffffffffffffffffffffffff16021790555050610149565b600080fd5b600073ffffffffffffffffffffffffffffffffffffffff82169050919050565b60006100e9826100be565b9050919050565b6100f9816100de565b811461010457600080fd5b50565b600081519050610116816100f0565b92915050565b600060208284031215610132576101316100b9565b5b600061014084828501610107565b91505092915050565b610548806101586000396000f3fe6080604052600436106100435760003560e01c80630900f010146101165780633fa4f2451461013f5780635c60da1b1461016a578063f851a4401461019557610044565b5b60008060008054906101000a900473ffffffffffffffffffffffffffffffffffffffff1673ffffffffffffffffffffffffffffffffffffffff1660003660405161008f929190610322565b600060405180830381855af49150503d80600081146100ca576040519150601f19603f3d011682016040523d82523d6000602084013e6100cf565b606091505b509150915081610114576040517f08c379a000000000000000000000000000000000000000000000000000000000815260040161010b90610398565b60405180910390fd5b005b34801561012257600080fd5b5061013d6004803603810190610138919061041b565b6101c0565b005b34801561014b57600080fd5b50610154610293565b6040516101619190610461565b60405180910390f35b34801561017657600080fd5b5061017f610299565b60405161018c919061048b565b60405180910390f35b3480156101a157600080fd5b506101aa6102bd565b6040516101b7919061048b565b60405180910390f35b600160009054906101000a900473ffffffffffffffffffffffffffffffffffffffff1673ffffffffffffffffffffffffffffffffffffffff163373ffffffffffffffffffffffffffffffffffffffff1614610250576040517f08c379a0000000000000000000000000000000000000000000000000000000008152600401610247906104f2565b60405180910390fd5b806000806101000a81548173ffffffffffffffffffffffffffffffffffffffff021916908373ffffffffffffffffffffffffffffffffffffffff16021790555050565b60025481565b60008054906101000a900473ffffffffffffffffffffffffffffffffffffffff1681565b600160009054906101000a900473ffffffffffffffffffffffffffffffffffffffff1681565b600081905092915050565b82818337600083830152505050565b600061030983856102e3565b93506103168385846102ee565b82840190509392505050565b600061032f8284866102fd565b91508190509392505050565b600082825260208201905092915050565b7f44656c656761746563616c6c206661696c656400000000000000000000000000600082015250565b600061038260138361033b565b915061038d8261034c565b602082019050919050565b600060208201905081810360008301526103b181610375565b9050919050565b600080fd5b600073ffffffffffffffffffffffffffffffffffffffff82169050919050565b60006103e8826103bd565b9050919050565b6103f8816103dd565b811461040357600080fd5b50565b600081359050610415816103ef565b92915050565b600060208284031215610431576104306103b8565b5b600061043f84828501610406565b91505092915050565b6000819050919050565b61045b81610448565b82525050565b60006020820190506104766000830184610452565b92915050565b610485816103dd565b82525050565b60006020820190506104a0600083018461047c565b92915050565b7f4e6f7420616e2061646d696e0000000000000000000000000000000000000000600082015250565b60006104dc600c8361033b565b91506104e7826104a6565b602082019050919050565b6000602082019050818103600083015261050b816104cf565b905091905056fea26469706673582212209c3eefe74283572fef50af8a28a81cb4fa39ce7df21863c9cc269033dd0b159264736f6c634300081c0033",
  "linkReferences": {},
  "deployedLinkReferences": {}
}